{
  "_format": "hh-sol-artifact-1",
  "contractName": "TransactionManager",
  "sourceName": "contracts/core/TransactionManager.sol",
  "abi": [
    {
      "inputs": [],
      "stateMutability": "nonpayable",
      "type": "constructor"
    },
    {
      "inputs": [],
      "name": "InvalidInitialization",
      "type": "error"
    },
    {
      "inputs": [],
      "name": "NotInitializing",
      "type": "error"
    },
    {
      "inputs": [
        {
          "internalType": "address",
          "name": "owner",
          "type": "address"
        }
      ],
      "name": "OwnableInvalidOwner",
      "type": "error"
    },
    {
      "inputs": [
        {
          "internalType": "address",
          "name": "account",
          "type": "address"
        }
      ],
      "name": "OwnableUnauthorizedAccount",
      "type": "error"
    },
    {
      "inputs": [],
      "name": "ReentrancyGuardReentrantCall",
      "type": "error"
    },
    {
      "anonymous": false,
      "inputs": [
        {
          "indexed": true,
          "internalType": "bytes32",
          "name": "txId",
          "type": "bytes32"
        },
        {
          "indexed": true,
          "internalType": "address",
          "name": "dapp",
          "type": "address"
        },
        {
          "indexed": false,
          "internalType": "address",
          "name": "arbitrator",
          "type": "address"
        },
        {
          "indexed": false,
          "internalType": "bytes",
          "name": "rawData",
          "type": "bytes"
        },
        {
          "indexed": false,
          "internalType": "bytes",
          "name": "script",
          "type": "bytes"
        },
        {
          "indexed": false,
          "internalType": "address",
          "name": "timeoutCompensationReceiver",
          "type": "address"
        }
      ],
      "name": "ArbitrationRequested",
      "type": "event"
    },
    {
      "anonymous": false,
      "inputs": [
        {
          "indexed": true,
          "internalType": "bytes32",
          "name": "txId",
          "type": "bytes32"
        },
        {
          "indexed": true,
          "internalType": "address",
          "name": "dapp",
          "type": "address"
        },
        {
          "indexed": true,
          "internalType": "address",
          "name": "arbitrator",
          "type": "address"
        },
        {
          "indexed": false,
          "internalType": "bytes",
          "name": "btcTxSignature",
          "type": "bytes"
        }
      ],
      "name": "ArbitrationSubmitted",
      "type": "event"
    },
    {
      "anonymous": false,
      "inputs": [
        {
          "indexed": true,
          "internalType": "address",
          "name": "newOracle",
          "type": "address"
        }
      ],
      "name": "AssetOracleUpdated",
      "type": "event"
    },
    {
      "anonymous": false,
      "inputs": [
        {
          "indexed": true,
          "internalType": "address",
          "name": "newParser",
          "type": "address"
        }
      ],
      "name": "BTCAddressParserChanged",
      "type": "event"
    },
    {
      "anonymous": false,
      "inputs": [
        {
          "indexed": true,
          "internalType": "bytes32",
          "name": "txId",
          "type": "bytes32"
        },
        {
          "indexed": true,
          "internalType": "address",
          "name": "revenueETHAddress",
          "type": "address"
        },
        {
          "indexed": false,
          "internalType": "uint256",
          "name": "arbitratorFee",
          "type": "uint256"
        },
        {
          "indexed": false,
          "internalType": "uint256",
          "name": "systemFee",
          "type": "uint256"
        },
        {
          "indexed": false,
          "internalType": "uint256",
          "name": "refundedFee",
          "type": "uint256"
        }
      ],
      "name": "DepositFeeTransfer",
      "type": "event"
    },
    {
      "anonymous": false,
      "inputs": [
        {
          "indexed": false,
          "internalType": "uint64",
          "name": "version",
          "type": "uint64"
        }
      ],
      "name": "Initialized",
      "type": "event"
    },
    {
      "anonymous": false,
      "inputs": [
        {
          "indexed": true,
          "internalType": "address",
          "name": "previousOwner",
          "type": "address"
        },
        {
          "indexed": true,
          "internalType": "address",
          "name": "newOwner",
          "type": "address"
        }
      ],
      "name": "OwnershipTransferred",
      "type": "event"
    },
    {
      "anonymous": false,
      "inputs": [
        {
          "indexed": true,
          "internalType": "address",
          "name": "arbitratorManager",
          "type": "address"
        }
      ],
      "name": "SetArbitratorManager",
      "type": "event"
    },
    {
      "anonymous": false,
      "inputs": [
        {
          "indexed": true,
          "internalType": "bytes32",
          "name": "txId",
          "type": "bytes32"
        },
        {
          "indexed": true,
          "internalType": "address",
          "name": "dapp",
          "type": "address"
        }
      ],
      "name": "TransactionCompleted",
      "type": "event"
    },
    {
      "anonymous": false,
      "inputs": [
        {
          "indexed": true,
          "internalType": "bytes32",
          "name": "id",
          "type": "bytes32"
        },
        {
          "indexed": true,
          "internalType": "address",
          "name": "dapp",
          "type": "address"
        },
        {
          "indexed": true,
          "internalType": "address",
          "name": "arbitrator",
          "type": "address"
        },
        {
          "indexed": false,
          "internalType": "uint256",
          "name": "deadline",
          "type": "uint256"
        },
        {
          "indexed": false,
          "internalType": "uint256",
          "name": "depositFee",
          "type": "uint256"
        },
        {
          "indexed": false,
          "internalType": "address",
          "name": "compensationReceiver",
          "type": "address"
        }
      ],
      "name": "TransactionRegistered",
      "type": "event"
    },
    {
      "anonymous": false,
      "inputs": [
        {
          "indexed": true,
          "internalType": "bytes32",
          "name": "txId",
          "type": "bytes32"
        },
        {
          "indexed": true,
          "internalType": "address",
          "name": "dapp",
          "type": "address"
        }
      ],
      "name": "UTXOsUploaded",
      "type": "event"
    },
    {
      "inputs": [],
      "name": "arbitratorManager",
      "outputs": [
        {
          "internalType": "contract IArbitratorManager",
          "name": "",
          "type": "address"
        }
      ],
      "stateMutability": "view",
      "type": "function"
    },
    {
      "inputs": [],
      "name": "assetOracle",
      "outputs": [
        {
          "internalType": "contract IAssetOracle",
          "name": "",
          "type": "address"
        }
      ],
      "stateMutability": "view",
      "type": "function"
    },
    {
      "inputs": [],
      "name": "btcAddressParser",
      "outputs": [
        {
          "internalType": "contract IBtcAddress",
          "name": "",
          "type": "address"
        }
      ],
      "stateMutability": "view",
      "type": "function"
    },
    {
      "inputs": [],
      "name": "btcUtils",
      "outputs": [
        {
          "internalType": "contract IBTCUtils",
          "name": "",
          "type": "address"
        }
      ],
      "stateMutability": "view",
      "type": "function"
    },
    {
      "inputs": [],
      "name": "compensationManager",
      "outputs": [
        {
          "internalType": "address",
          "name": "",
          "type": "address"
        }
      ],
      "stateMutability": "view",
      "type": "function"
    },
    {
      "inputs": [
        {
          "internalType": "bytes32",
          "name": "id",
          "type": "bytes32"
        }
      ],
      "name": "completeTransaction",
      "outputs": [],
      "stateMutability": "nonpayable",
      "type": "function"
    },
    {
      "inputs": [
        {
          "internalType": "bytes32",
          "name": "id",
          "type": "bytes32"
        },
        {
          "internalType": "address",
          "name": "receivedCompensationAddress",
          "type": "address"
        }
      ],
      "name": "completeTransactionWithSlash",
      "outputs": [],
      "stateMutability": "nonpayable",
      "type": "function"
    },
    {
      "inputs": [],
      "name": "configManager",
      "outputs": [
        {
          "internalType": "contract IConfigManager",
          "name": "",
          "type": "address"
        }
      ],
      "stateMutability": "view",
      "type": "function"
    },
    {
      "inputs": [],
      "name": "dappRegistry",
      "outputs": [
        {
          "internalType": "contract IDAppRegistry",
          "name": "",
          "type": "address"
        }
      ],
      "stateMutability": "view",
      "type": "function"
    },
    {
      "inputs": [
        {
          "internalType": "uint256",
          "name": "deadline",
          "type": "uint256"
        },
        {
          "internalType": "address",
          "name": "arbitrator",
          "type": "address"
        }
      ],
      "name": "getRegisterTransactionBtcFee",
      "outputs": [
        {
          "internalType": "uint256",
          "name": "fee",
          "type": "uint256"
        }
      ],
      "stateMutability": "view",
      "type": "function"
    },
    {
      "inputs": [
        {
          "internalType": "uint256",
          "name": "deadline",
          "type": "uint256"
        },
        {
          "internalType": "address",
          "name": "arbitrator",
          "type": "address"
        }
      ],
      "name": "getRegisterTransactionFee",
      "outputs": [
        {
          "internalType": "uint256",
          "name": "fee",
          "type": "uint256"
        }
      ],
      "stateMutability": "view",
      "type": "function"
    },
    {
      "inputs": [
        {
          "internalType": "bytes32",
          "name": "id",
          "type": "bytes32"
        }
      ],
      "name": "getTransactionBtcRawDataById",
      "outputs": [
        {
          "internalType": "bytes",
          "name": "",
          "type": "bytes"
        }
      ],
      "stateMutability": "view",
      "type": "function"
    },
    {
      "inputs": [
        {
          "internalType": "bytes32",
          "name": "id",
          "type": "bytes32"
        }
      ],
      "name": "getTransactionDataById",
      "outputs": [
        {
          "components": [
            {
              "internalType": "uint256",
              "name": "startTime",
              "type": "uint256"
            },
            {
              "internalType": "uint256",
              "name": "deadline",
              "type": "uint256"
            },
            {
              "internalType": "uint256",
              "name": "requestArbitrationTime",
              "type": "uint256"
            },
            {
              "internalType": "uint256",
              "name": "depositedFee",
              "type": "uint256"
            },
            {
              "internalType": "enum DataTypes.TransactionStatus",
              "name": "status",
              "type": "uint8"
            },
            {
              "internalType": "uint256",
              "name": "arbitratorBtcFee",
              "type": "uint256"
            }
          ],
          "internalType": "struct DataTypes.TransactionData",
          "name": "",
          "type": "tuple"
        }
      ],
      "stateMutability": "view",
      "type": "function"
    },
    {
      "inputs": [
        {
          "internalType": "bytes32",
          "name": "txHash",
          "type": "bytes32"
        }
      ],
      "name": "getTransactionDataByTxHash",
      "outputs": [
        {
          "components": [
            {
              "internalType": "uint256",
              "name": "startTime",
              "type": "uint256"
            },
            {
              "internalType": "uint256",
              "name": "deadline",
              "type": "uint256"
            },
            {
              "internalType": "uint256",
              "name": "requestArbitrationTime",
              "type": "uint256"
            },
            {
              "internalType": "uint256",
              "name": "depositedFee",
              "type": "uint256"
            },
            {
              "internalType": "enum DataTypes.TransactionStatus",
              "name": "status",
              "type": "uint8"
            },
            {
              "internalType": "uint256",
              "name": "arbitratorBtcFee",
              "type": "uint256"
            }
          ],
          "internalType": "struct DataTypes.TransactionData",
          "name": "",
          "type": "tuple"
        }
      ],
      "stateMutability": "view",
      "type": "function"
    },
    {
      "inputs": [
        {
          "internalType": "bytes32",
          "name": "id",
          "type": "bytes32"
        }
      ],
      "name": "getTransactionPartiesById",
      "outputs": [
        {
          "components": [
            {
              "internalType": "address",
              "name": "dapp",
              "type": "address"
            },
            {
              "internalType": "address",
              "name": "arbitrator",
              "type": "address"
            },
            {
              "internalType": "address",
              "name": "compensationReceiver",
              "type": "address"
            },
            {
              "internalType": "address",
              "name": "timeoutCompensationReceiver",
              "type": "address"
            },
            {
              "internalType": "address",
              "name": "refundAddress",
              "type": "address"
            },
            {
              "internalType": "address",
              "name": "depositedFeeRefundAddress",
              "type": "address"
            }
          ],
          "internalType": "struct DataTypes.TransactionParties",
          "name": "",
          "type": "tuple"
        }
      ],
      "stateMutability": "view",
      "type": "function"
    },
    {
      "inputs": [
        {
          "internalType": "bytes32",
          "name": "txHash",
          "type": "bytes32"
        }
      ],
      "name": "getTransactionPartiesByTxHash",
      "outputs": [
        {
          "components": [
            {
              "internalType": "address",
              "name": "dapp",
              "type": "address"
            },
            {
              "internalType": "address",
              "name": "arbitrator",
              "type": "address"
            },
            {
              "internalType": "address",
              "name": "compensationReceiver",
              "type": "address"
            },
            {
              "internalType": "address",
              "name": "timeoutCompensationReceiver",
              "type": "address"
            },
            {
              "internalType": "address",
              "name": "refundAddress",
              "type": "address"
            },
            {
              "internalType": "address",
              "name": "depositedFeeRefundAddress",
              "type": "address"
            }
          ],
          "internalType": "struct DataTypes.TransactionParties",
          "name": "",
          "type": "tuple"
        }
      ],
      "stateMutability": "view",
      "type": "function"
    },
    {
      "inputs": [
        {
          "internalType": "bytes32",
          "name": "id",
          "type": "bytes32"
        }
      ],
      "name": "getTransactionSignHashById",
      "outputs": [
        {
          "internalType": "bytes32",
          "name": "",
          "type": "bytes32"
        }
      ],
      "stateMutability": "view",
      "type": "function"
    },
    {
      "inputs": [
        {
          "internalType": "bytes32",
          "name": "id",
          "type": "bytes32"
        }
      ],
      "name": "getTransactionSignatureById",
      "outputs": [
        {
          "internalType": "bytes",
          "name": "",
          "type": "bytes"
        }
      ],
      "stateMutability": "view",
      "type": "function"
    },
    {
      "inputs": [
        {
          "internalType": "bytes32",
          "name": "txHash",
          "type": "bytes32"
        }
      ],
      "name": "getTransactionSignatureByTxHash",
      "outputs": [
        {
          "internalType": "bytes",
          "name": "",
          "type": "bytes"
        }
      ],
      "stateMutability": "view",
      "type": "function"
    },
    {
      "inputs": [
        {
          "internalType": "bytes32",
          "name": "id",
          "type": "bytes32"
        }
      ],
      "name": "getTransactionStatus",
      "outputs": [
        {
          "internalType": "enum DataTypes.TransactionStatus",
          "name": "status",
          "type": "uint8"
        }
      ],
      "stateMutability": "view",
      "type": "function"
    },
    {
      "inputs": [
        {
          "internalType": "bytes32",
          "name": "id",
          "type": "bytes32"
        }
      ],
      "name": "getTransactionUTXOsById",
      "outputs": [
        {
          "components": [
            {
              "internalType": "bytes32",
              "name": "txHash",
              "type": "bytes32"
            },
            {
              "internalType": "uint32",
              "name": "index",
              "type": "uint32"
            },
            {
              "internalType": "bytes",
              "name": "script",
              "type": "bytes"
            },
            {
              "internalType": "uint256",
              "name": "amount",
              "type": "uint256"
            }
          ],
          "internalType": "struct DataTypes.UTXO[]",
          "name": "",
          "type": "tuple[]"
        }
      ],
      "stateMutability": "view",
      "type": "function"
    },
    {
      "inputs": [
        {
          "internalType": "address",
          "name": "_arbitratorManager",
          "type": "address"
        },
        {
          "internalType": "address",
          "name": "_dappRegistry",
          "type": "address"
        },
        {
          "internalType": "address",
          "name": "_configManager",
          "type": "address"
        },
        {
          "internalType": "address",
          "name": "_compensationManager",
          "type": "address"
        },
        {
          "internalType": "address",
          "name": "_btcUtils",
          "type": "address"
        },
        {
          "internalType": "address",
          "name": "_btcAddressParser",
          "type": "address"
        },
        {
          "internalType": "address",
          "name": "_assetOracle",
          "type": "address"
        }
      ],
      "name": "initialize",
      "outputs": [],
      "stateMutability": "nonpayable",
      "type": "function"
    },
    {
      "inputs": [
        {
          "internalType": "bytes32",
          "name": "id",
          "type": "bytes32"
        }
      ],
      "name": "isAbleCompletedTransaction",
      "outputs": [
        {
          "internalType": "bool",
          "name": "",
          "type": "bool"
        }
      ],
      "stateMutability": "view",
      "type": "function"
    },
    {
      "inputs": [],
      "name": "owner",
      "outputs": [
        {
          "internalType": "address",
          "name": "",
          "type": "address"
        }
      ],
      "stateMutability": "view",
      "type": "function"
    },
    {
      "inputs": [
        {
          "internalType": "address",
          "name": "arbitrator",
          "type": "address"
        },
        {
          "internalType": "uint256",
          "name": "deadline",
          "type": "uint256"
        },
        {
          "internalType": "address",
          "name": "compensationReceiver",
          "type": "address"
        },
        {
          "internalType": "address",
          "name": "refundAddress",
          "type": "address"
        }
      ],
      "name": "registerTransaction",
      "outputs": [
        {
          "internalType": "bytes32",
          "name": "",
          "type": "bytes32"
        }
      ],
      "stateMutability": "payable",
      "type": "function"
    },
    {
      "inputs": [],
      "name": "renounceOwnership",
      "outputs": [],
      "stateMutability": "nonpayable",
      "type": "function"
    },
    {
      "inputs": [
        {
          "components": [
            {
              "internalType": "bytes32",
              "name": "id",
              "type": "bytes32"
            },
            {
              "internalType": "bytes",
              "name": "rawData",
              "type": "bytes"
            },
            {
              "internalType": "enum DataTypes.SignDataType",
              "name": "signDataType",
              "type": "uint8"
            },
            {
              "internalType": "uint8",
              "name": "signHashFlag",
              "type": "uint8"
            },
            {
              "internalType": "bytes",
              "name": "script",
              "type": "bytes"
            },
            {
              "internalType": "address",
              "name": "timeoutCompensationReceiver",
              "type": "address"
            }
          ],
          "internalType": "struct DataTypes.ArbitrationData",
          "name": "data",
          "type": "tuple"
        }
      ],
      "name": "requestArbitration",
      "outputs": [],
      "stateMutability": "nonpayable",
      "type": "function"
    },
    {
      "inputs": [
        {
          "internalType": "address",
          "name": "_arbitratorManager",
          "type": "address"
        }
      ],
      "name": "setArbitratorManager",
      "outputs": [],
      "stateMutability": "nonpayable",
      "type": "function"
    },
    {
      "inputs": [
        {
          "internalType": "address",
          "name": "_assetOracle",
          "type": "address"
        }
      ],
      "name": "setAssetOracle",
      "outputs": [],
      "stateMutability": "nonpayable",
      "type": "function"
    },
    {
      "inputs": [
        {
          "internalType": "address",
          "name": "_btcAddressParser",
          "type": "address"
        }
      ],
      "name": "setBTCAddressParser",
      "outputs": [],
      "stateMutability": "nonpayable",
      "type": "function"
    },
    {
      "inputs": [
        {
          "internalType": "bytes32",
          "name": "id",
          "type": "bytes32"
        },
        {
          "internalType": "bytes",
          "name": "btcTxSignature",
          "type": "bytes"
        }
      ],
      "name": "submitArbitration",
      "outputs": [],
      "stateMutability": "nonpayable",
      "type": "function"
    },
    {
      "inputs": [
        {
          "internalType": "bytes32",
          "name": "",
          "type": "bytes32"
        }
      ],
      "name": "transactionSignData",
      "outputs": [
        {
          "internalType": "bytes",
          "name": "",
          "type": "bytes"
        }
      ],
      "stateMutability": "view",
      "type": "function"
    },
    {
      "inputs": [
        {
          "internalType": "bytes32",
          "name": "id",
          "type": "bytes32"
        }
      ],
      "name": "transferArbitrationFee",
      "outputs": [
        {
          "internalType": "uint256",
          "name": "arbitratorFee",
          "type": "uint256"
        },
        {
          "internalType": "uint256",
          "name": "systemFee",
          "type": "uint256"
        }
      ],
      "stateMutability": "nonpayable",
      "type": "function"
    },
    {
      "inputs": [
        {
          "internalType": "address",
          "name": "newOwner",
          "type": "address"
        }
      ],
      "name": "transferOwnership",
      "outputs": [],
      "stateMutability": "nonpayable",
      "type": "function"
    },
    {
      "inputs": [
        {
          "internalType": "bytes32",
          "name": "",
          "type": "bytes32"
        }
      ],
      "name": "txHashToId",
      "outputs": [
        {
          "internalType": "bytes32",
          "name": "",
          "type": "bytes32"
        }
      ],
      "stateMutability": "view",
      "type": "function"
    },
    {
      "inputs": [
        {
          "internalType": "bytes32",
          "name": "id",
          "type": "bytes32"
        },
        {
          "components": [
            {
              "internalType": "bytes32",
              "name": "txHash",
              "type": "bytes32"
            },
            {
              "internalType": "uint32",
              "name": "index",
              "type": "uint32"
            },
            {
              "internalType": "bytes",
              "name": "script",
              "type": "bytes"
            },
            {
              "internalType": "uint256",
              "name": "amount",
              "type": "uint256"
            }
          ],
          "internalType": "struct DataTypes.UTXO[]",
          "name": "utxos",
          "type": "tuple[]"
        }
      ],
      "name": "uploadUTXOs",
      "outputs": [],
      "stateMutability": "nonpayable",
      "type": "function"
    }
  ],
  "bytecode": "0x60806040523480156200001157600080fd5b506200001c62000022565b620000d6565b7ff0c57e16840df040f15088dc2f81fe391c3923bec73e23a9662efc9c229c6a00805468010000000000000000900460ff1615620000735760405163f92ee8a960e01b815260040160405180910390fd5b80546001600160401b0390811614620000d35780546001600160401b0319166001600160401b0390811782556040519081527fc7f505b2f371ae2175ee4913f4499e1f2633a7b5936321eed1cdaeb6115181d29060200160405180910390a15b50565b614c8a80620000e66000396000f3fe60806040526004361061020f5760003560e01c806384b46d6a11610118578063a7157190116100a0578063ca0ab0751161006f578063ca0ab0751461083b578063d09d03a31461085b578063de0ca1661461087b578063f2fde38b1461089b578063f9a9df19146108bb57600080fd5b8063a7157190146107ae578063a8a0e882146107ce578063ae2db1cc146107ee578063c1ce47d21461080e57600080fd5b806394407465116100e7578063944074651461055f57806397315e441461058c5780639dc37d08146105b9578063a0037eac146106cc578063a130312a1461078e57600080fd5b806384b46d6a146104b557806388727e6b146104d55780638b0ae217146105025780638da5cb5b1461052257600080fd5b8063520936b51161019b57806366347a631161016a57806366347a631461040b578063715018a61461042b5780637577b6df14610440578063759787c414610475578063814936701461049557600080fd5b8063520936b51461036d578063537bcc551461039d57806354c22062146103bd57806363e877b6146103eb57600080fd5b80632c7e8ca3116101e25780632c7e8ca3146102c05780632ce4e8f5146102e057806335876476146103005780634308dc8e146103205780634e4f0ec41461034d57600080fd5b80630559b877146102145780630f6f9a1e146102515780631d4d3a5d146102735780632722606814610293575b600080fd5b34801561022057600080fd5b50600454610234906001600160a01b031681565b6040516001600160a01b0390911681526020015b60405180910390f35b34801561025d57600080fd5b5061027161026c366004613b1f565b6108ce565b005b34801561027f57600080fd5b50601054610234906001600160a01b031681565b34801561029f57600080fd5b506102b36102ae366004613b9d565b610a9b565b6040516102489190613bee565b3480156102cc57600080fd5b506102716102db366004613c4e565b610b34565b3480156102ec57600080fd5b506102716102fb366004613c4e565b610b84565b34801561030c57600080fd5b5061027161031b366004613c72565b610c14565b34801561032c57600080fd5b5061034061033b366004613b9d565b610e4a565b6040516102489190613d58565b34801561035957600080fd5b50610271610368366004613d6b565b610eec565b34801561037957600080fd5b5061038d610388366004613b9d565b611233565b6040519015158152602001610248565b3480156103a957600080fd5b506103406103b8366004613b9d565b611344565b3480156103c957600080fd5b506103dd6103d8366004613dd3565b61136e565b604051908152602001610248565b3480156103f757600080fd5b50600554610234906001600160a01b031681565b34801561041757600080fd5b50610271610426366004613e03565b6115b6565b34801561043757600080fd5b50610271611f7a565b34801561044c57600080fd5b5061046061045b366004613b9d565b611f8e565b60408051928352602083019190915201610248565b34801561048157600080fd5b50600054610234906001600160a01b031681565b3480156104a157600080fd5b506102b36104b0366004613b9d565b6121cb565b3480156104c157600080fd5b50600354610234906001600160a01b031681565b3480156104e157600080fd5b506104f56104f0366004613b9d565b61223d565b6040516102489190613e3d565b34801561050e57600080fd5b5061027161051d366004613c4e565b612368565b34801561052e57600080fd5b507f9016d09d72d40fdae2fd8ceac6b6234c7706214fd39c1cd1e609a0528c199300546001600160a01b0316610234565b34801561056b57600080fd5b5061057f61057a366004613b9d565b6123f8565b6040516102489190613ecf565b34801561059857600080fd5b506103dd6105a7366004613b9d565b6000908152600c602052604090205490565b3480156105c557600080fd5b506106716105d4366004613b9d565b6040805160c081018252600080825260208201819052918101829052606081018290526080810182905260a081019190915250600090815260076020908152604091829020825160c08101845281546001600160a01b03908116825260018301548116938201939093526002820154831693810193909352600381015482166060840152600481015482166080840152600501541660a082015290565b604051610248919081516001600160a01b03908116825260208084015182169083015260408084015182169083015260608084015182169083015260808084015182169083015260a092830151169181019190915260c00190565b3480156106d857600080fd5b506106716106e7366004613b9d565b6040805160c081018252600080825260208201819052918101829052606081018290526080810182905260a0810191909152506000908152600e602090815260408083205483526007825291829020825160c08101845281546001600160a01b03908116825260018301548116938201939093526002820154831693810193909352600381015482166060840152600481015482166080840152600501541660a082015290565b34801561079a57600080fd5b506102716107a9366004613b9d565b6124e9565b3480156107ba57600080fd5b506103dd6107c9366004613dd3565b612636565b3480156107da57600080fd5b506103406107e9366004613b9d565b612875565b3480156107fa57600080fd5b50610340610809366004613b9d565b61290f565b34801561081a57600080fd5b506103dd610829366004613b9d565b600e6020526000908152604090205481565b34801561084757600080fd5b50600254610234906001600160a01b031681565b34801561086757600080fd5b50610271610876366004613dd3565b61292c565b34801561088757600080fd5b50600154610234906001600160a01b031681565b3480156108a757600080fd5b506102716108b6366004613c4e565b612b5a565b6103dd6108c9366004613edd565b612b95565b6001811461090f576040805180820182526002815261055360f41b6020820152905162461bcd60e51b81526109069190600401613d58565b60405180910390fd5b60008381526007602052604081209060008581526006602052604090206004015460ff16600581111561094457610944613bb6565b146109795760408051808201825260028152612a1960f11b6020820152905162461bcd60e51b81526109069190600401613d58565b80546001600160a01b031633146109ba57604080518082018252600281526104e360f41b6020820152905162461bcd60e51b81526109069190600401613d58565b6000848152600b602052604090208054156109ff5760408051808201825260028152612a9960f11b6020820152905162461bcd60e51b81526109069190600401613d58565b60005b83811015610a665781858583818110610a1d57610a1d613f30565b9050602002810190610a2f9190613f46565b815460018101835560009283526020909220909160040201610a518282614117565b50508080610a5e906141bb565b915050610a02565b50604051339086907fbe870ee46d1946169135a006725f4beb7bf05701d38e45b8d0e55892fabff1d990600090a35050505050565b610aa3613ad8565b6000828152600e602090815260408083205483526006825291829020825160c08101845281548152600182015492810192909252600281015492820192909252600382015460608201526004820154909190608083019060ff166005811115610b0e57610b0e613bb6565b6005811115610b1f57610b1f613bb6565b81526020016005820154815250509050919050565b610b3c61310b565b600080546001600160a01b0319166001600160a01b038316908117825560405190917fa323f9f93bbee02edb5e1034969f6ef41fb674527d2ea7e9271ad206435b58f491a250565b610b8c61310b565b6001600160a01b038116610bca57604080518082018252600281526105a360f41b6020820152905162461bcd60e51b81526109069190600401613d58565b601080546001600160a01b0319166001600160a01b0383169081179091556040517f045dafc7c4ca3d05de630e8253620f7b16675301ba6b6040a6590090bb28037790600090a250565b7ff0c57e16840df040f15088dc2f81fe391c3923bec73e23a9662efc9c229c6a008054600160401b810460ff1615906001600160401b0316600081158015610c595750825b90506000826001600160401b03166001148015610c755750303b155b905081158015610c83575080155b15610ca15760405163f92ee8a960e01b815260040160405180910390fd5b845467ffffffffffffffff191660011785558315610ccb57845460ff60401b1916600160401b1785555b610cd3613166565b610cdc33613176565b6001600160a01b038c161580610cf957506001600160a01b038b16155b80610d0b57506001600160a01b038a16155b80610d1d57506001600160a01b038916155b80610d2f57506001600160a01b038816155b80610d4157506001600160a01b038716155b80610d5357506001600160a01b038616155b15610d8857604080518082018252600281526105a360f41b6020820152905162461bcd60e51b81526109069190600401613d58565b600080546001600160a01b03199081166001600160a01b038f8116919091179092556001805482168e84161790556002805482168d84161790556004805482168c84161790556003805482168b84161790556005805482168a8416179055601080549091169188169190911790558315610e3c57845460ff60401b19168555604051600181527fc7f505b2f371ae2175ee4913f4499e1f2633a7b5936321eed1cdaeb6115181d29060200160405180910390a15b505050505050505050505050565b6000818152600960205260409020805460609190610e6790613fd4565b80601f0160208091040260200160405190810160405280929190818152602001828054610e9390613fd4565b8015610ee05780601f10610eb557610100808354040283529160200191610ee0565b820191906000526020600020905b815481529060010190602001808311610ec357829003601f168201915b50505050509050919050565b600083815260066020908152604080832060079092529091206002600483015460ff166005811115610f2057610f20613bb6565b14610f555760408051808201825260028152612a1960f11b6020820152905162461bcd60e51b81526109069190600401613d58565b6040805160c0810182528354815260018401546020820152600284015491810191909152600383015460608201526004830154610fcc91908490608083019060ff166005811115610fa857610fa8613bb6565b6005811115610fb957610fb9613bb6565b8152602001600582015481525050613187565b15611001576040805180820182526002815261543960f01b6020820152905162461bcd60e51b81526109069190600401613d58565b6000546001820154604051630e70978b60e21b81526001600160a01b0391821660048201523360248201529116906339c25e2c90604401602060405180830381865afa158015611055573d6000803e3d6000fd5b505050506040513d601f19601f8201168201806040525081019061107991906141e9565b6110ad57604080518082018252600281526104e360f41b6020820152905162461bcd60e51b81526109069190600401613d58565b600354604051630263f12b60e61b81526001600160a01b03909116906398fc4ac0906110df908790879060040161422d565b602060405180830381865afa1580156110fc573d6000803e3d6000fd5b505050506040513d601f19601f8201168201806040525081019061112091906141e9565b611154576040805180820182526002815261553960f01b6020820152905162461bcd60e51b81526109069190600401613d58565b60048201805460ff19166005179055600085815260096020526040902061117c848683614057565b50600054600182015460405163069fa0a760e51b81526001600160a01b03918216600482015291169063d3f414e090602401600060405180830381600087803b1580156111c857600080fd5b505af11580156111dc573d6000803e3d6000fd5b505082546040513393506001600160a01b03909116915087907fc3087094b1ca79d1b0196cfe915c3153df5266eba37502790ddfc1e3532d355990611224908990899061422d565b60405180910390a45050505050565b6000818152600660209081526040808320815160c0810183528154815260018201549381019390935260028101549183019190915260038101546060830152600481015483929190608083019060ff16600581111561129457611294613bb6565b60058111156112a5576112a5613bb6565b81526005919091015460209091015290506000816080015160058111156112ce576112ce613bb6565b036112dc5750600192915050565b6002816080015160058111156112f4576112f4613bb6565b036113155761130281613187565b156113105750600192915050565b61133b565b60058160800151600581111561132d5761132d613bb6565b0361133b5750600192915050565b50600092915050565b6000818152600e6020908152604080832054835260099091529020805460609190610e6790613fd4565b60008042841161137f576000611389565b6113894285614241565b600254604051636dd5b69d60e01b81527f251496a2e9229b930e5943f3c3e4da6cb786017948b856c9d455ed9cf0fc156c60048201529192506001600160a01b031690636dd5b69d90602401602060405180830381865afa1580156113f2573d6000803e3d6000fd5b505050506040513d601f19601f820116820180604052508101906114169190614254565b8110806114ad5750600254604051636dd5b69d60e01b81527fd31f84da73b6cb3a8c2e853a7c46b1c95600fc6ab5acdbeb4f7f16e875c25ab860048201526001600160a01b0390911690636dd5b69d90602401602060405180830381865afa158015611486573d6000803e3d6000fd5b505050506040513d601f19601f820116820180604052508101906114aa9190614254565b81115b156114e2576040805180820182526002815261493160f01b6020820152905162461bcd60e51b81526109069190600401613d58565b6001600160a01b03831661152057604080518082018252600281526105a360f41b6020820152905162461bcd60e51b81526109069190600401613d58565b6000805460405163b1130fd960e01b81526001600160a01b0386811660048301529091169063b1130fd990602401602060405180830381865afa15801561156b573d6000803e3d6000fd5b505050506040513d601f19601f8201168201806040525081019061158f919061432c565b519050600061159f858385613226565b90506115aa816132c6565b93505050505b92915050565b6115be613407565b60006115d060c0830160a08401613c4e565b6001600160a01b03160361160e57604080518082018252600281526105a360f41b6020820152905162461bcd60e51b81526109069190600401613d58565b8035600090815260066020526040812090600482015460ff16600581111561163857611638613bb6565b1461166d5760408051808201825260028152612a1960f11b6020820152905162461bcd60e51b81526109069190600401613d58565b8060010154600260009054906101000a90046001600160a01b03166001600160a01b0316632b6f600d6040518163ffffffff1660e01b8152600401602060405180830381865afa1580156116c5573d6000803e3d6000fd5b505050506040513d601f19601f820116820180604052508101906116e99190614254565b6116f3904261436d565b1115611729576040805180820182526002815261553760f01b6020820152905162461bcd60e51b81526109069190600401613d58565b600161173b6060840160408501614380565b600281111561174c5761174c613bb6565b146117815760408051808201825260028152610aa760f31b6020820152905162461bcd60e51b81526109069190600401613d58565b8135600090815260076020526040902080546001600160a01b031633146117d257604080518082018252600281526104e360f41b6020820152905162461bcd60e51b81526109069190600401613d58565b82356000908152600b60205260408120805490910361181b576040805180820182526002815261553360f01b6020820152905162461bcd60e51b81526109069190600401613d58565b6003546000906001600160a01b031663f64af3d361183c6020880188613f78565b6040518363ffffffff1660e01b815260040161185992919061422d565b600060405180830381865afa158015611876573d6000803e3d6000fd5b505050506040513d6000823e601f3d908101601f1916820160405261189e9190810190614512565b8254602082015151919250146118de576040805180820182526002815261553160f01b6020820152905162461bcd60e51b81526109069190600401613d58565b60005b8160200151518110156119de5782818154811061190057611900613f30565b9060005260206000209060040201600001548260200151828151811061192857611928613f30565b602002602001015160000151141580611997575082818154811061194e5761194e613f30565b60009182526020918290206001600490920201015490830151805163ffffffff909216918390811061198257611982613f30565b60200260200101516020015163ffffffff1614155b156119cc576040805180820182526002815261553160f01b6020820152905162461bcd60e51b81526109069190600401613d58565b806119d6816141bb565b9150506118e1565b506000826000815481106119f4576119f4613f30565b600091825260208220600360049092020181015490549092506001600160a01b031663aca6fee88483611a2a60808c018c613f78565b878d6060016020810190611a3e91906146ac565b6040518763ffffffff1660e01b8152600401611a5f96959493929190614741565b600060405180830381865afa158015611a7c573d6000803e3d6000fd5b505050506040513d6000823e601f3d908101601f19168201604052611aa4919081019061487e565b9050600060028083604051611ab991906148b2565b602060405180830381855afa158015611ad6573d6000803e3d6000fd5b5050506040513d601f19601f82011682018060405250810190611af99190614254565b604051602001611b0b91815260200190565b60408051601f1981840301815290829052611b25916148b2565b602060405180830381855afa158015611b42573d6000803e3d6000fd5b5050506040513d601f19601f82011682018060405250810190611b659190614254565b6000805460018901546040516326415b0f60e21b81526001600160a01b03918216600482015293945091928392909116906399056c3c90602401600060405180830381865afa158015611bbc573d6000803e3d6000fd5b505050506040513d6000823e601f3d908101601f19168201604052611be4919081019061492a565b6101a00151905060005b866040015151811015611dbb57600554604051632e235f3960e01b81526000916001600160a01b031690632e235f3990611c2c908690600401613d58565b600060405180830381865afa158015611c49573d6000803e3d6000fd5b505050506040513d6000823e601f3d908101601f19168201604052611c71919081019061487e565b9050808051906020012088604001518381518110611c9157611c91613f30565b602002602001015160200151805190602001201493508315611da8576000612710600260009054906101000a90046001600160a01b03166001600160a01b03166355f50acc6040518163ffffffff1660e01b8152600401602060405180830381865afa158015611d05573d6000803e3d6000fd5b505050506040513d601f19601f82011682018060405250810190611d299190614254565b611d33908a614ad2565b611d3d9190614ae9565b90508089604001518481518110611d5657611d56613f30565b6020026020010151600001516001600160401b03161015611da1576040805180820182526002815261493560f01b6020820152905162461bcd60e51b81526109069190600401613d58565b5050611dbb565b5080611db3816141bb565b915050611bee565b5081611df1576040805180820182526002815261493360f01b6020820152905162461bcd60e51b81526109069190600401613d58565b611e0160c08b0160a08c01613c4e565b6003890180546001600160a01b0319166001600160a01b03929092169190911790554260028a81019190915560048a01805460ff1916600183021790555089356000908152600c60209081526040909120849055611e61908b018b613f78565b8b35600090815260086020526040902091611e7d919083614057565b50611e8b60808b018b613f78565b8b356000908152600a6020526040902091611ea7919083614057565b506000838152600e602090815260408083208d359055600d9091529020611ece8582614b0b565b50875460018901546001600160a01b03918216918c35917f81c89bbce5115bf315ea29f7001ebabb88f6d3e4d76132bf792f2085799ed0e49116611f1560208f018f613f78565b8f8060800190611f259190613f78565b8f60030160009054906101000a90046001600160a01b0316604051611f4f96959493929190614bca565b60405180910390a3505050505050505050611f776001600080516020614c3583398151915255565b50565b611f8261310b565b611f8c6000613453565b565b60045460009081906001600160a01b03163314611fd55760408051808201825260028152614e3760f01b6020820152905162461bcd60e51b81526109069190600401613d58565b6000838152600760209081526040808320815160c0808201845282546001600160a01b039081168352600180850154821684880152600280860154831685880152600380870154841660608088019190915260048089015486166080808a01919091526005998a015490961660a08901528e8c5260068b52898c208a519788018b5280548852948501549a87019a909a5291830154978501979097529581015495830195909552948401549195949093929084019160ff169081111561209d5761209d613bb6565b60058111156120ae576120ae613bb6565b81526005919091015460209091015290506000816080015160058111156120d7576120d7613bb6565b1480156120e75750806020015142115b80612181575060058160800151600581111561210557612105613bb6565b14801561218157506000546020830151604051632911125160e01b81526001600160a01b039182166004820152911690632911125190602401602060405180830381865afa15801561215b573d6000803e3d6000fd5b505050506040513d601f19601f8201168201806040525081019061217f91906141e9565b155b1561219b5761219085836134c4565b935093505050915091565b60408051808201825260028152612a1960f11b6020820152905162461bcd60e51b81526109069190600401613d58565b6121d3613ad8565b600660008381526020019081526020016000206040518060c0016040529081600082015481526020016001820154815260200160028201548152602001600382015481526020016004820160009054906101000a900460ff166005811115610b0e57610b0e613bb6565b6060600b6000838152602001908152602001600020805480602002602001604051908101604052809291908181526020016000905b8282101561235d576000848152602090819020604080516080810182526004860290920180548352600181015463ffffffff1693830193909352600283018054929392918401916122c290613fd4565b80601f01602080910402602001604051908101604052809291908181526020018280546122ee90613fd4565b801561233b5780601f106123105761010080835404028352916020019161233b565b820191906000526020600020905b81548152906001019060200180831161231e57829003601f168201915b5050505050815260200160038201548152505081526020019060010190612272565b505050509050919050565b61237061310b565b6001600160a01b0381166123ae57604080518082018252600281526105a360f41b6020820152905162461bcd60e51b81526109069190600401613d58565b600580546001600160a01b0319166001600160a01b0383169081179091556040517f5d263627c90d0f6c9e5b56ab2a0952bc65431ee3225325ee7be26c5856d1446290600090a250565b6000818152600660209081526040808320815160c0810183528154815260018201549381019390935260028101549183019190915260038101546060830152600481015483929190608083019060ff16600581111561245957612459613bb6565b600581111561246a5761246a613bb6565b815260059182015460209091015260808201519350909150600090839081111561249657612496613bb6565b1480156124a65750428160200151105b156124b057600391505b6002816080015160058111156124c8576124c8613bb6565b1480156124d957506124d981613187565b156124e357600391505b50919050565b60008181526007602052604090819020905163520936b560e01b815260048101839052309063520936b590602401602060405180830381865afa158015612534573d6000803e3d6000fd5b505050506040513d601f19601f8201168201806040525081019061255891906141e9565b61258c5760408051808201825260028152610a8760f31b6020820152905162461bcd60e51b81526109069190600401613d58565b80546001600160a01b031633146125cd57604080518082018252600281526104e360f41b6020820152905162461bcd60e51b81526109069190600401613d58565b6040805160c08101825282546001600160a01b0390811682526001840154811660208301526002840154811692820192909252600383015482166060820152600483015482166080820152600583015490911660a08201526126309083906134c4565b50505050565b600080428411612647576000612651565b6126514285614241565b600254604051636dd5b69d60e01b81527f251496a2e9229b930e5943f3c3e4da6cb786017948b856c9d455ed9cf0fc156c60048201529192506001600160a01b031690636dd5b69d90602401602060405180830381865afa1580156126ba573d6000803e3d6000fd5b505050506040513d601f19601f820116820180604052508101906126de9190614254565b8110806127755750600254604051636dd5b69d60e01b81527fd31f84da73b6cb3a8c2e853a7c46b1c95600fc6ab5acdbeb4f7f16e875c25ab860048201526001600160a01b0390911690636dd5b69d90602401602060405180830381865afa15801561274e573d6000803e3d6000fd5b505050506040513d601f19601f820116820180604052508101906127729190614254565b81115b156127aa576040805180820182526002815261493160f01b6020820152905162461bcd60e51b81526109069190600401613d58565b6001600160a01b0383166127e857604080518082018252600281526105a360f41b6020820152905162461bcd60e51b81526109069190600401613d58565b600080546040516326415b0f60e21b81526001600160a01b038681166004830152909116906399056c3c90602401600060405180830381865afa158015612833573d6000803e3d6000fd5b505050506040513d6000823e601f3d908101601f1916820160405261285b919081019061492a565b905061286c84826040015184613226565b95945050505050565b600d602052600090815260409020805461288e90613fd4565b80601f01602080910402602001604051908101604052809291908181526020018280546128ba90613fd4565b80156129075780601f106128dc57610100808354040283529160200191612907565b820191906000526020600020905b8154815290600101906020018083116128ea57829003601f168201915b505050505081565b6000818152600860205260409020805460609190610e6790613fd4565b6004546001600160a01b0316331461296e5760408051808201825260028152614e3760f01b6020820152905162461bcd60e51b81526109069190600401613d58565b600082815260076020908152604080832060069092529091206001600482015460ff1660058111156129a2576129a2613bb6565b036129d75760408051808201825260028152612a1960f11b6020820152905162461bcd60e51b81526109069190600401613d58565b6001600160a01b038316612a1557604080518082018252600281526105a360f41b6020820152905162461bcd60e51b81526109069190600401613d58565b60048101805460ff1916600117905560038101546040516000916001600160a01b038616918381818185875af1925050503d8060008114612a72576040519150601f19603f3d011682016040523d82523d6000602084013e612a77565b606091505b5050905080612ab0576040805180820182526002815261463160f01b6020820152905162461bcd60e51b81526109069190600401613d58565b600054600184015460405163cedb588b60e01b81526001600160a01b0391821660048201526024810188905291169063cedb588b90604401600060405180830381600087803b158015612b0257600080fd5b505af1158015612b16573d6000803e3d6000fd5b505084546040516001600160a01b0390911692508791507f15d1e788ed875e6f2294a51087aa5cd2e2c10c92e627eb0a6bbbfceceaa01b9890600090a35050505050565b612b6261310b565b6001600160a01b038116612b8c57604051631e4fbdf760e01b815260006004820152602401610906565b611f7781613453565b6000612b9f613407565b6001600160a01b0385161580612bbc57506001600160a01b038316155b80612bce57506001600160a01b038216155b15612c0357604080518082018252600281526105a360f41b6020820152905162461bcd60e51b81526109069190600401613d58565b60015460405163682dc82b60e11b81523360048201526001600160a01b039091169063d05b905690602401602060405180830381865afa158015612c4b573d6000803e3d6000fd5b505050506040513d601f19601f82011682018060405250810190612c6f91906141e9565b612ca3576040805180820182526002815261221960f11b6020820152905162461bcd60e51b81526109069190600401613d58565b600054604051631c569df760e31b81526001600160a01b0387811660048301529091169063e2b4efb890602401602060405180830381865afa158015612ced573d6000803e3d6000fd5b505050506040513d601f19601f82011682018060405250810190612d1191906141e9565b612d45576040805180820182526002815261413360f01b6020820152905162461bcd60e51b81526109069190600401613d58565b428411612d7c576040805180820182526002815261543360f01b6020820152905162461bcd60e51b81526109069190600401613d58565b6000612d884286614241565b600254604051636dd5b69d60e01b81527f251496a2e9229b930e5943f3c3e4da6cb786017948b856c9d455ed9cf0fc156c60048201529192506001600160a01b031690636dd5b69d90602401602060405180830381865afa158015612df1573d6000803e3d6000fd5b505050506040513d601f19601f82011682018060405250810190612e159190614254565b811080612eac5750600254604051636dd5b69d60e01b81527fd31f84da73b6cb3a8c2e853a7c46b1c95600fc6ab5acdbeb4f7f16e875c25ab860048201526001600160a01b0390911690636dd5b69d90602401602060405180830381865afa158015612e85573d6000803e3d6000fd5b505050506040513d601f19601f82011682018060405250810190612ea99190614254565b81115b15612ee1576040805180820182526002815261493160f01b6020820152905162461bcd60e51b81526109069190600401613d58565b6000612eed8688612636565b905080341015612f27576040805180820182526002815261543560f01b6020820152905162461bcd60e51b81526109069190600401613d58565b6000423389600f6000815480929190612f3f906141bb565b909155506040805160208101959095526bffffffffffffffffffffffff19606094851b8116918601919091529190921b16605483015260688201526088016040516020818303038152906040528051906020012090506000612fa1888a61136e565b6000546040516315969bed60e11b81526001600160a01b038c8116600483015260248201869052929350911690632b2d37da90604401600060405180830381600087803b158015612ff157600080fd5b505af1158015613005573d6000803e3d6000fd5b50505060008381526006602090815260408083206007909252822042825560018083018d90553460038401556005830186905560048301805493955091939260ff1916908302179055506001810180546001600160a01b03808e166001600160a01b031992831681179093556002840180548d8316908416811790915584548316339081178655600586018054938e169390941692909217909255604080518e8152346020820152908101929092529086907feb31e9cc08e6aec1724c65bd618ab8709af006b0972f1a04bba0fe0b0192142e9060600160405180910390a450919450505050506131036001600080516020614c3583398151915255565b949350505050565b3361313d7f9016d09d72d40fdae2fd8ceac6b6234c7706214fd39c1cd1e609a0528c199300546001600160a01b031690565b6001600160a01b031614611f8c5760405163118cdaa760e01b8152336004820152602401610906565b61316e6135a2565b611f8c6135eb565b61317e6135a2565b611f77816135f3565b6000816020015142111561319d57506001919050565b60025460408051632b6f600d60e01b815290516000926001600160a01b031691632b6f600d9160048083019260209291908290030181865afa1580156131e7573d6000803e3d6000fd5b505050506040513d601f19601f8201168201806040525081019061320b9190614254565b905080836040015161321d919061436d565b42119392505050565b6000805460405163014f6b1960e41b81526001600160a01b038681166004830152839216906314f6b19090602401602060405180830381865afa158015613271573d6000803e3d6000fd5b505050506040513d601f19601f820116820180604052508101906132959190614254565b90506132a76127106301e13380614ad2565b846132b28584614ad2565b6132bc9190614ad2565b61286c9190614ae9565b6010546040516317a6948f60e21b815273517e9e5d46c1ea8ab6f78677d6114ef47f71f6c4600482015260009182916001600160a01b0390911690635e9a523c90602401602060405180830381865afa158015613327573d6000803e3d6000fd5b505050506040513d601f19601f8201168201806040525081019061334b9190614254565b6010546040516317a6948f60e21b815273df4191bfe8fae019fd6af9433e8ed6bfc4b90ca160048201529192506000916001600160a01b0390911690635e9a523c90602401602060405180830381865afa1580156133ad573d6000803e3d6000fd5b505050506040513d601f19601f820116820180604052508101906133d19190614254565b90506133e581670de0b6b3a7640000614ad2565b6133ef8386614ad2565b6133fd906305f5e100614ad2565b6131039190614ae9565b600080516020614c3583398151915280546001190161343957604051633ee5aeb560e01b815260040160405180910390fd5b60029055565b6001600080516020614c3583398151915255565b7f9016d09d72d40fdae2fd8ceac6b6234c7706214fd39c1cd1e609a0528c19930080546001600160a01b031981166001600160a01b03848116918217845560405192169182907f8be0079c531659141344cd1fd0a4f28419497f9722a3daafe3b4186f6b6457e090600090a3505050565b6000806000806134d486866135fb565b600054602088015160405163cedb588b60e01b81526001600160a01b039182166004820152602481018b9052939550919350169063cedb588b90604401600060405180830381600087803b15801561352b57600080fd5b505af115801561353f573d6000803e3d6000fd5b505050600087815260066020526040808220600401805460ff19166001179055875190516001600160a01b03909116925088917f15d1e788ed875e6f2294a51087aa5cd2e2c10c92e627eb0a6bbbfceceaa01b9891a390925090505b9250929050565b7ff0c57e16840df040f15088dc2f81fe391c3923bec73e23a9662efc9c229c6a0054600160401b900460ff16611f8c57604051631afcd79f60e31b815260040160405180910390fd5b61343f6135a2565b612b626135a2565b6000805460208301516040516326415b0f60e21b81526001600160a01b0391821660048201528392839216906399056c3c90602401600060405180830381865afa15801561364d573d6000803e3d6000fd5b505050506040513d6000823e601f3d908101601f19168201604052613675919081019061492a565b90506000600660008781526020019081526020016000206040518060c0016040529081600082015481526020016001820154815260200160028201548152602001600382015481526020016004820160009054906101000a900460ff1660058111156136e3576136e3613bb6565b60058111156136f4576136f4613bb6565b8152602001600582015481525050905060008160200151421161372257815161371d9042614241565b613733565b815160208301516137339190614241565b9050600061374a8760200151856040015184613226565b90508060000361376457600080955095505050505061359b565b8260600151811115613777575060608201515b600254604051636dd5b69d60e01b81527fd91f20541e9312a0f4d27f0f0ba02500035307ac99ea67c86c8342ab3fd71bc56004820152600091612710916001600160a01b0390911690636dd5b69d90602401602060405180830381865afa1580156137e6573d6000803e3d6000fd5b505050506040513d601f19601f8201168201806040525081019061380a9190614254565b6138149084614ad2565b61381e9190614ae9565b9050600061382c8284614241565b90506000600260009054906101000a90046001600160a01b03166001600160a01b0316638b6570a06040518163ffffffff1660e01b8152600401602060405180830381865afa158015613883573d6000803e3d6000fd5b505050506040513d601f19601f820116820180604052508101906138a79190614c17565b90506000816001600160a01b03168460405160006040518083038185875af1925050503d80600081146138f6576040519150601f19603f3d011682016040523d82523d6000602084013e6138fb565b606091505b5050905080613934576040805180820182526002815261463160f01b6020820152905162461bcd60e51b81526109069190600401613d58565b6000886101c001516001600160a01b03168460405160006040518083038185875af1925050503d8060008114613986576040519150601f19603f3d011682016040523d82523d6000602084013e61398b565b606091505b50509050806139c4576040805180820182526002815261463160f01b6020820152905162461bcd60e51b81526109069190600401613d58565b60008689606001516139d69190614241565b90508015613a6f5760008d60a001516001600160a01b03168260405160006040518083038185875af1925050503d8060008114613a2f576040519150601f19603f3d011682016040523d82523d6000602084013e613a34565b606091505b5050905080613a6d576040805180820182526002815261463160f01b6020820152905162461bcd60e51b81526109069190600401613d58565b505b6101c08a015160408051898152602081018990529081018390526001600160a01b03909116908f907f0e6f7005813080ec5f9df085ae1a9ee5221216f7746e432f210b6ce161e681659060600160405180910390a350929c939b50929950505050505050505050565b6040518060c001604052806000815260200160008152602001600081526020016000815260200160006005811115613b1257613b12613bb6565b8152602001600081525090565b600080600060408486031215613b3457600080fd5b8335925060208401356001600160401b0380821115613b5257600080fd5b818601915086601f830112613b6657600080fd5b813581811115613b7557600080fd5b8760208260051b8501011115613b8a57600080fd5b6020830194508093505050509250925092565b600060208284031215613baf57600080fd5b5035919050565b634e487b7160e01b600052602160045260246000fd5b60068110613bea57634e487b7160e01b600052602160045260246000fd5b9052565b600060c082019050825182526020830151602083015260408301516040830152606083015160608301526080830151613c2a6080840182613bcc565b5060a092830151919092015290565b6001600160a01b0381168114611f7757600080fd5b600060208284031215613c6057600080fd5b8135613c6b81613c39565b9392505050565b600080600080600080600060e0888a031215613c8d57600080fd5b8735613c9881613c39565b96506020880135613ca881613c39565b95506040880135613cb881613c39565b94506060880135613cc881613c39565b93506080880135613cd881613c39565b925060a0880135613ce881613c39565b915060c0880135613cf881613c39565b8091505092959891949750929550565b60005b83811015613d23578181015183820152602001613d0b565b50506000910152565b60008151808452613d44816020860160208601613d08565b601f01601f19169290920160200192915050565b602081526000613c6b6020830184613d2c565b600080600060408486031215613d8057600080fd5b8335925060208401356001600160401b0380821115613d9e57600080fd5b818601915086601f830112613db257600080fd5b813581811115613dc157600080fd5b876020828501011115613b8a57600080fd5b60008060408385031215613de657600080fd5b823591506020830135613df881613c39565b809150509250929050565b600060208284031215613e1557600080fd5b81356001600160401b03811115613e2b57600080fd5b820160c08185031215613c6b57600080fd5b60006020808301818452808551808352604092508286019150828160051b87010184880160005b83811015613ec157603f19898403018552815160808151855263ffffffff898301511689860152878201518189870152613ea082870182613d2c565b60609384015196909301959095525094870194925090860190600101613e64565b509098975050505050505050565b602081016115b08284613bcc565b60008060008060808587031215613ef357600080fd5b8435613efe81613c39565b9350602085013592506040850135613f1581613c39565b91506060850135613f2581613c39565b939692955090935050565b634e487b7160e01b600052603260045260246000fd5b60008235607e19833603018112613f5c57600080fd5b9190910192915050565b63ffffffff81168114611f7757600080fd5b6000808335601e19843603018112613f8f57600080fd5b8301803591506001600160401b03821115613fa957600080fd5b60200191503681900382131561359b57600080fd5b634e487b7160e01b600052604160045260246000fd5b600181811c90821680613fe857607f821691505b6020821081036124e357634e487b7160e01b600052602260045260246000fd5b601f82111561405257600081815260208120601f850160051c8101602086101561402f5750805b601f850160051c820191505b8181101561404e5782815560010161403b565b5050505b505050565b6001600160401b0383111561406e5761406e613fbe565b6140828361407c8354613fd4565b83614008565b6000601f8411600181146140b6576000851561409e5750838201355b600019600387901b1c1916600186901b178355614110565b600083815260209020601f19861690835b828110156140e757868501358255602094850194600190920191016140c7565b50868210156141045760001960f88860031b161c19848701351681555b505060018560011b0183555b5050505050565b8135815560018101602083013561412d81613f66565b815463ffffffff191663ffffffff91909116179055604082013536839003601e1901811261415a57600080fd5b820180356001600160401b0381111561417257600080fd5b60208201915080360382131561418757600080fd5b614195818360028601614057565b5050606082013560038201555050565b634e487b7160e01b600052601160045260246000fd5b6000600182016141cd576141cd6141a5565b5060010190565b805180151581146141e457600080fd5b919050565b6000602082840312156141fb57600080fd5b613c6b826141d4565b81835281816020850137506000828201602090810191909152601f909101601f19169091010190565b602081526000613103602083018486614204565b818103818111156115b0576115b06141a5565b60006020828403121561426657600080fd5b5051919050565b604080519081016001600160401b038111828210171561428f5761428f613fbe565b60405290565b60405160a081016001600160401b038111828210171561428f5761428f613fbe565b604051608081016001600160401b038111828210171561428f5761428f613fbe565b60405161020081016001600160401b038111828210171561428f5761428f613fbe565b604051601f8201601f191681016001600160401b038111828210171561432457614324613fbe565b604052919050565b60006020828403121561433e57600080fd5b604051602081018181106001600160401b038211171561436057614360613fbe565b6040529151825250919050565b808201808211156115b0576115b06141a5565b60006020828403121561439257600080fd5b813560038110613c6b57600080fd5b80516141e481613f66565b60006001600160401b038211156143c5576143c5613fbe565b5060051b60200190565b600082601f8301126143e057600080fd5b81516001600160401b038111156143f9576143f9613fbe565b61440c601f8201601f19166020016142fc565b81815284602083860101111561442157600080fd5b613103826020830160208701613d08565b600082601f83011261444357600080fd5b81516020614458614453836143ac565b6142fc565b82815260059290921b8401810191818101908684111561447757600080fd5b8286015b848110156145075780516001600160401b038082111561449b5760008081fd5b908801906040828b03601f19018113156144b55760008081fd5b6144bd61426d565b8784015183811681146144d05760008081fd5b81529083015190828211156144e55760008081fd5b6144f38c89848701016143cf565b81890152865250505091830191830161447b565b509695505050505050565b6000602080838503121561452557600080fd5b82516001600160401b038082111561453c57600080fd5b9084019060a0828703121561455057600080fd5b614558614295565b825161456381613f66565b8152828401518281111561457657600080fd5b8301601f8101881361458757600080fd5b8051614595614453826143ac565b81815260059190911b8201860190868101908a8311156145b457600080fd5b8784015b83811015614651578051878111156145cf57600080fd5b85016080818e03601f190112156145e557600080fd5b6145ed6142b7565b8a8201518152604082015161460181613f66565b818c01526060820151898111156146185760008081fd5b6146268f8d838601016143cf565b6040830152506080820151915061463c82613f66565b606081019190915283529188019188016145b8565b50808886015250505050604083015193508184111561466f57600080fd5b61467b87858501614432565b604082015261468c606084016143a1565b606082015261469d608084016141d4565b60808201529695505050505050565b6000602082840312156146be57600080fd5b813560ff81168114613c6b57600080fd5b600081518084526020808501808196508360051b8101915082860160005b85811015614734578284038952815180516001600160401b03168552850151604086860181905261472081870183613d2c565b9a87019a95505050908401906001016146ed565b5091979650505050505050565b60a081526000610140820163ffffffff808a511660a08501526020808b015160a060c087015283815180865261016095508588019150858160051b8901019550838301925060005b818110156147e95761015f198988030183528351608081518952878783015116878a015260408083015182828c01526147c4838c0182613d2c565b6060948501518b169b9094019a909a5250909750509284019291840191600101614789565b5050505060408b0151858403609f190160e0870152915061480a83836146cf565b925060608b0151915061482661010086018363ffffffff169052565b60808b0151151561012086015263ffffffff8a1690850152508281036040840152614852818789614204565b91505061486a60608301856001600160401b03169052565b60ff83166080830152979650505050505050565b60006020828403121561489057600080fd5b81516001600160401b038111156148a657600080fd5b613103848285016143cf565b60008251613f5c818460208701613d08565b80516141e481613c39565b600082601f8301126148e057600080fd5b815160206148f0614453836143ac565b82815260059290921b8401810191818101908684111561490f57600080fd5b8286015b848110156145075780518352918301918301614913565b60006020828403121561493c57600080fd5b81516001600160401b038082111561495357600080fd5b90830190610200828603121561496857600080fd5b6149706142d9565b614979836148c4565b8152614987602084016141d4565b60208201526040830151604082015260608301516060820152608083015160808201526149b660a084016148c4565b60a08201526149c760c084016148c4565b60c082015260e0830151828111156149de57600080fd5b6149ea878286016148cf565b60e0830152506101006149fe8185016148c4565b908201526101208381015183811115614a1657600080fd5b614a22888287016143cf565b8284015250506101408084015183811115614a3c57600080fd5b614a48888287016143cf565b8284015250506101608084015181830152506101808084015183811115614a6e57600080fd5b614a7a888287016143cf565b8284015250506101a08084015183811115614a9457600080fd5b614aa0888287016143cf565b8284015250506101c09150614ab68284016148c4565b918101919091526101e091820151918101919091529392505050565b80820281158282048414176115b0576115b06141a5565b600082614b0657634e487b7160e01b600052601260045260246000fd5b500490565b81516001600160401b03811115614b2457614b24613fbe565b614b3881614b328454613fd4565b84614008565b602080601f831160018114614b6d5760008415614b555750858301515b600019600386901b1c1916600185901b17855561404e565b600085815260208120601f198616915b82811015614b9c57888601518255948401946001909101908401614b7d565b5085821015614bba5787850151600019600388901b60f8161c191681555b5050505050600190811b01905550565b600060018060a01b03808916835260806020840152614bed60808401888a614204565b8381036040850152614c00818789614204565b925050808416606084015250979650505050505050565b600060208284031215614c2957600080fd5b8151613c6b81613c3956fe9b779b17422d0df92223018b32b4d1fa46e071723d6817e2486d003becc55f00a2646970667358221220fdb83974a67ce5c9b5947616cbfcbf7154f94048115eaa08e204a92b85905f9664736f6c63430008140033",
  "linkReferences": {},
  "deployedLinkReferences": {}
}