{
  "_format": "hh-sol-artifact-1",
  "contractName": "TransactionManager",
  "sourceName": "contracts/core/TransactionManager.sol",
  "abi": [
    {
      "inputs": [],
      "stateMutability": "nonpayable",
      "type": "constructor"
    },
    {
      "inputs": [],
      "name": "InvalidInitialization",
      "type": "error"
    },
    {
      "inputs": [],
      "name": "NotInitializing",
      "type": "error"
    },
    {
      "inputs": [
        {
          "internalType": "address",
          "name": "owner",
          "type": "address"
        }
      ],
      "name": "OwnableInvalidOwner",
      "type": "error"
    },
    {
      "inputs": [
        {
          "internalType": "address",
          "name": "account",
          "type": "address"
        }
      ],
      "name": "OwnableUnauthorizedAccount",
      "type": "error"
    },
    {
      "inputs": [],
      "name": "ReentrancyGuardReentrantCall",
      "type": "error"
    },
    {
      "anonymous": false,
      "inputs": [
        {
          "indexed": true,
          "internalType": "bytes32",
          "name": "txId",
          "type": "bytes32"
        },
        {
          "indexed": true,
          "internalType": "address",
          "name": "dapp",
          "type": "address"
        },
        {
          "indexed": false,
          "internalType": "address",
          "name": "arbitrator",
          "type": "address"
        },
        {
          "indexed": false,
          "internalType": "bytes",
          "name": "rawData",
          "type": "bytes"
        },
        {
          "indexed": false,
          "internalType": "bytes",
          "name": "script",
          "type": "bytes"
        },
        {
          "indexed": false,
          "internalType": "address",
          "name": "timeoutCompensationReceiver",
          "type": "address"
        }
      ],
      "name": "ArbitrationRequested",
      "type": "event"
    },
    {
      "anonymous": false,
      "inputs": [
        {
          "indexed": true,
          "internalType": "bytes32",
          "name": "txId",
          "type": "bytes32"
        },
        {
          "indexed": true,
          "internalType": "address",
          "name": "dapp",
          "type": "address"
        },
        {
          "indexed": true,
          "internalType": "address",
          "name": "arbitrator",
          "type": "address"
        },
        {
          "indexed": false,
          "internalType": "bytes",
          "name": "btcTxSignature",
          "type": "bytes"
        }
      ],
      "name": "ArbitrationSubmitted",
      "type": "event"
    },
    {
      "anonymous": false,
      "inputs": [
        {
          "indexed": true,
          "internalType": "address",
          "name": "newParser",
          "type": "address"
        }
      ],
      "name": "BTCAddressParserChanged",
      "type": "event"
    },
    {
      "anonymous": false,
      "inputs": [
        {
          "indexed": true,
          "internalType": "address",
          "name": "newBtcBlockHeaders",
          "type": "address"
        }
      ],
      "name": "BtcBlockHeadersChanged",
      "type": "event"
    },
    {
      "anonymous": false,
      "inputs": [
        {
          "indexed": true,
          "internalType": "address",
          "name": "newBtcUtils",
          "type": "address"
        }
      ],
      "name": "BtcUtilsChanged",
      "type": "event"
    },
    {
      "anonymous": false,
      "inputs": [
        {
          "indexed": true,
          "internalType": "address",
          "name": "newConfigManager",
          "type": "address"
        }
      ],
      "name": "ConfigManagerUpdated",
      "type": "event"
    },
    {
      "anonymous": false,
      "inputs": [
        {
          "indexed": true,
          "internalType": "bytes32",
          "name": "id",
          "type": "bytes32"
        },
        {
          "indexed": true,
          "internalType": "bytes32",
          "name": "txHash",
          "type": "bytes32"
        },
        {
          "indexed": false,
          "internalType": "uint256",
          "name": "blockHeight",
          "type": "uint256"
        }
      ],
      "name": "DAppFeeTransactionSet",
      "type": "event"
    },
    {
      "anonymous": false,
      "inputs": [
        {
          "indexed": true,
          "internalType": "bytes32",
          "name": "txId",
          "type": "bytes32"
        },
        {
          "indexed": true,
          "internalType": "address",
          "name": "revenueETHAddress",
          "type": "address"
        },
        {
          "indexed": false,
          "internalType": "uint256",
          "name": "arbitratorFee",
          "type": "uint256"
        },
        {
          "indexed": false,
          "internalType": "uint256",
          "name": "systemFee",
          "type": "uint256"
        },
        {
          "indexed": false,
          "internalType": "uint256",
          "name": "refundedFee",
          "type": "uint256"
        }
      ],
      "name": "DepositFeeTransfer",
      "type": "event"
    },
    {
      "anonymous": false,
      "inputs": [
        {
          "indexed": false,
          "internalType": "uint64",
          "name": "version",
          "type": "uint64"
        }
      ],
      "name": "Initialized",
      "type": "event"
    },
    {
      "anonymous": false,
      "inputs": [
        {
          "indexed": true,
          "internalType": "address",
          "name": "previousOwner",
          "type": "address"
        },
        {
          "indexed": true,
          "internalType": "address",
          "name": "newOwner",
          "type": "address"
        }
      ],
      "name": "OwnershipTransferred",
      "type": "event"
    },
    {
      "anonymous": false,
      "inputs": [
        {
          "indexed": true,
          "internalType": "address",
          "name": "arbitratorManager",
          "type": "address"
        }
      ],
      "name": "SetArbitratorManager",
      "type": "event"
    },
    {
      "anonymous": false,
      "inputs": [
        {
          "indexed": true,
          "internalType": "bytes32",
          "name": "txId",
          "type": "bytes32"
        },
        {
          "indexed": true,
          "internalType": "address",
          "name": "dapp",
          "type": "address"
        },
        {
          "indexed": true,
          "internalType": "address",
          "name": "arbitrator",
          "type": "address"
        },
        {
          "indexed": false,
          "internalType": "uint256",
          "name": "timestamp",
          "type": "uint256"
        }
      ],
      "name": "TransactionClosedUnpaid",
      "type": "event"
    },
    {
      "anonymous": false,
      "inputs": [
        {
          "indexed": true,
          "internalType": "bytes32",
          "name": "txId",
          "type": "bytes32"
        },
        {
          "indexed": true,
          "internalType": "address",
          "name": "dapp",
          "type": "address"
        }
      ],
      "name": "TransactionCompleted",
      "type": "event"
    },
    {
      "anonymous": false,
      "inputs": [
        {
          "indexed": true,
          "internalType": "bytes32",
          "name": "id",
          "type": "bytes32"
        },
        {
          "indexed": true,
          "internalType": "address",
          "name": "dapp",
          "type": "address"
        },
        {
          "indexed": true,
          "internalType": "address",
          "name": "arbitrator",
          "type": "address"
        },
        {
          "indexed": false,
          "internalType": "uint256",
          "name": "deadline",
          "type": "uint256"
        },
        {
          "indexed": false,
          "internalType": "uint256",
          "name": "depositFee",
          "type": "uint256"
        },
        {
          "indexed": false,
          "internalType": "uint256",
          "name": "btcFee",
          "type": "uint256"
        },
        {
          "indexed": false,
          "internalType": "address",
          "name": "compensationReceiver",
          "type": "address"
        },
        {
          "indexed": false,
          "internalType": "uint256",
          "name": "timestamp",
          "type": "uint256"
        },
        {
          "indexed": false,
          "internalType": "string",
          "name": "btcFeeAddress",
          "type": "string"
        }
      ],
      "name": "TransactionRegistered",
      "type": "event"
    },
    {
      "anonymous": false,
      "inputs": [
        {
          "indexed": true,
          "internalType": "bytes32",
          "name": "txId",
          "type": "bytes32"
        },
        {
          "indexed": true,
          "internalType": "address",
          "name": "dapp",
          "type": "address"
        }
      ],
      "name": "UTXOsUploaded",
      "type": "event"
    },
    {
      "inputs": [],
      "name": "arbitratorManager",
      "outputs": [
        {
          "internalType": "contract IArbitratorManager",
          "name": "",
          "type": "address"
        }
      ],
      "stateMutability": "view",
      "type": "function"
    },
    {
      "inputs": [],
      "name": "btcAddressParser",
      "outputs": [
        {
          "internalType": "contract IBtcAddress",
          "name": "",
          "type": "address"
        }
      ],
      "stateMutability": "view",
      "type": "function"
    },
    {
      "inputs": [],
      "name": "btcBlockHeaders",
      "outputs": [
        {
          "internalType": "contract IBtcBlockHeaders",
          "name": "",
          "type": "address"
        }
      ],
      "stateMutability": "view",
      "type": "function"
    },
    {
      "inputs": [],
      "name": "btcUtils",
      "outputs": [
        {
          "internalType": "contract IBTCUtils",
          "name": "",
          "type": "address"
        }
      ],
      "stateMutability": "view",
      "type": "function"
    },
    {
      "inputs": [
        {
          "internalType": "bytes32",
          "name": "id",
          "type": "bytes32"
        }
      ],
      "name": "closeUnpaidTransaction",
      "outputs": [],
      "stateMutability": "nonpayable",
      "type": "function"
    },
    {
      "inputs": [],
      "name": "compensationManager",
      "outputs": [
        {
          "internalType": "address",
          "name": "",
          "type": "address"
        }
      ],
      "stateMutability": "view",
      "type": "function"
    },
    {
      "inputs": [
        {
          "internalType": "bytes32",
          "name": "id",
          "type": "bytes32"
        }
      ],
      "name": "completeTransaction",
      "outputs": [],
      "stateMutability": "nonpayable",
      "type": "function"
    },
    {
      "inputs": [
        {
          "internalType": "bytes32",
          "name": "id",
          "type": "bytes32"
        },
        {
          "internalType": "address",
          "name": "receivedCompensationAddress",
          "type": "address"
        }
      ],
      "name": "completeTransactionWithSlash",
      "outputs": [],
      "stateMutability": "nonpayable",
      "type": "function"
    },
    {
      "inputs": [],
      "name": "configManager",
      "outputs": [
        {
          "internalType": "contract IConfigManager",
          "name": "",
          "type": "address"
        }
      ],
      "stateMutability": "view",
      "type": "function"
    },
    {
      "inputs": [],
      "name": "dappRegistry",
      "outputs": [
        {
          "internalType": "contract IDAppRegistry",
          "name": "",
          "type": "address"
        }
      ],
      "stateMutability": "view",
      "type": "function"
    },
    {
      "inputs": [
        {
          "internalType": "bytes32",
          "name": "id",
          "type": "bytes32"
        }
      ],
      "name": "getTransactionBtcRawDataById",
      "outputs": [
        {
          "internalType": "bytes",
          "name": "",
          "type": "bytes"
        }
      ],
      "stateMutability": "view",
      "type": "function"
    },
    {
      "inputs": [
        {
          "internalType": "bytes32",
          "name": "id",
          "type": "bytes32"
        }
      ],
      "name": "getTransactionDataById",
      "outputs": [
        {
          "components": [
            {
              "internalType": "uint256",
              "name": "startTime",
              "type": "uint256"
            },
            {
              "internalType": "uint256",
              "name": "deadline",
              "type": "uint256"
            },
            {
              "internalType": "uint256",
              "name": "requestArbitrationTime",
              "type": "uint256"
            },
            {
              "internalType": "uint256",
              "name": "depositedFee",
              "type": "uint256"
            },
            {
              "internalType": "enum DataTypes.TransactionStatus",
              "name": "status",
              "type": "uint8"
            },
            {
              "internalType": "uint256",
              "name": "arbitratorBtcFee",
              "type": "uint256"
            },
            {
              "internalType": "string",
              "name": "btcFeeAddress",
              "type": "string"
            },
            {
              "internalType": "bytes32",
              "name": "btcFeeTxHash",
              "type": "bytes32"
            }
          ],
          "internalType": "struct DataTypes.TransactionData",
          "name": "",
          "type": "tuple"
        }
      ],
      "stateMutability": "view",
      "type": "function"
    },
    {
      "inputs": [
        {
          "internalType": "bytes32",
          "name": "txHash",
          "type": "bytes32"
        }
      ],
      "name": "getTransactionDataByTxHash",
      "outputs": [
        {
          "components": [
            {
              "internalType": "uint256",
              "name": "startTime",
              "type": "uint256"
            },
            {
              "internalType": "uint256",
              "name": "deadline",
              "type": "uint256"
            },
            {
              "internalType": "uint256",
              "name": "requestArbitrationTime",
              "type": "uint256"
            },
            {
              "internalType": "uint256",
              "name": "depositedFee",
              "type": "uint256"
            },
            {
              "internalType": "enum DataTypes.TransactionStatus",
              "name": "status",
              "type": "uint8"
            },
            {
              "internalType": "uint256",
              "name": "arbitratorBtcFee",
              "type": "uint256"
            },
            {
              "internalType": "string",
              "name": "btcFeeAddress",
              "type": "string"
            },
            {
              "internalType": "bytes32",
              "name": "btcFeeTxHash",
              "type": "bytes32"
            }
          ],
          "internalType": "struct DataTypes.TransactionData",
          "name": "",
          "type": "tuple"
        }
      ],
      "stateMutability": "view",
      "type": "function"
    },
    {
      "inputs": [
        {
          "internalType": "bytes32",
          "name": "id",
          "type": "bytes32"
        }
      ],
      "name": "getTransactionPartiesById",
      "outputs": [
        {
          "components": [
            {
              "internalType": "address",
              "name": "dapp",
              "type": "address"
            },
            {
              "internalType": "address",
              "name": "arbitrator",
              "type": "address"
            },
            {
              "internalType": "address",
              "name": "compensationReceiver",
              "type": "address"
            },
            {
              "internalType": "address",
              "name": "timeoutCompensationReceiver",
              "type": "address"
            },
            {
              "internalType": "address",
              "name": "refundAddress",
              "type": "address"
            },
            {
              "internalType": "address",
              "name": "depositedFeeRefundAddress",
              "type": "address"
            }
          ],
          "internalType": "struct DataTypes.TransactionParties",
          "name": "",
          "type": "tuple"
        }
      ],
      "stateMutability": "view",
      "type": "function"
    },
    {
      "inputs": [
        {
          "internalType": "bytes32",
          "name": "txHash",
          "type": "bytes32"
        }
      ],
      "name": "getTransactionPartiesByTxHash",
      "outputs": [
        {
          "components": [
            {
              "internalType": "address",
              "name": "dapp",
              "type": "address"
            },
            {
              "internalType": "address",
              "name": "arbitrator",
              "type": "address"
            },
            {
              "internalType": "address",
              "name": "compensationReceiver",
              "type": "address"
            },
            {
              "internalType": "address",
              "name": "timeoutCompensationReceiver",
              "type": "address"
            },
            {
              "internalType": "address",
              "name": "refundAddress",
              "type": "address"
            },
            {
              "internalType": "address",
              "name": "depositedFeeRefundAddress",
              "type": "address"
            }
          ],
          "internalType": "struct DataTypes.TransactionParties",
          "name": "",
          "type": "tuple"
        }
      ],
      "stateMutability": "view",
      "type": "function"
    },
    {
      "inputs": [
        {
          "internalType": "bytes32",
          "name": "id",
          "type": "bytes32"
        }
      ],
      "name": "getTransactionSignHashById",
      "outputs": [
        {
          "internalType": "bytes32",
          "name": "",
          "type": "bytes32"
        }
      ],
      "stateMutability": "view",
      "type": "function"
    },
    {
      "inputs": [
        {
          "internalType": "bytes32",
          "name": "id",
          "type": "bytes32"
        }
      ],
      "name": "getTransactionSignatureById",
      "outputs": [
        {
          "internalType": "bytes",
          "name": "",
          "type": "bytes"
        }
      ],
      "stateMutability": "view",
      "type": "function"
    },
    {
      "inputs": [
        {
          "internalType": "bytes32",
          "name": "txHash",
          "type": "bytes32"
        }
      ],
      "name": "getTransactionSignatureByTxHash",
      "outputs": [
        {
          "internalType": "bytes",
          "name": "",
          "type": "bytes"
        }
      ],
      "stateMutability": "view",
      "type": "function"
    },
    {
      "inputs": [
        {
          "internalType": "bytes32",
          "name": "id",
          "type": "bytes32"
        }
      ],
      "name": "getTransactionStatus",
      "outputs": [
        {
          "internalType": "enum DataTypes.TransactionStatus",
          "name": "status",
          "type": "uint8"
        }
      ],
      "stateMutability": "view",
      "type": "function"
    },
    {
      "inputs": [
        {
          "internalType": "bytes32",
          "name": "id",
          "type": "bytes32"
        }
      ],
      "name": "getTransactionUTXOScriptById",
      "outputs": [
        {
          "internalType": "bytes",
          "name": "",
          "type": "bytes"
        }
      ],
      "stateMutability": "view",
      "type": "function"
    },
    {
      "inputs": [
        {
          "internalType": "bytes32",
          "name": "id",
          "type": "bytes32"
        }
      ],
      "name": "getTransactionUTXOsById",
      "outputs": [
        {
          "components": [
            {
              "internalType": "bytes32",
              "name": "txHash",
              "type": "bytes32"
            },
            {
              "internalType": "uint32",
              "name": "index",
              "type": "uint32"
            },
            {
              "internalType": "bytes",
              "name": "script",
              "type": "bytes"
            },
            {
              "internalType": "uint256",
              "name": "amount",
              "type": "uint256"
            }
          ],
          "internalType": "struct DataTypes.UTXO[]",
          "name": "",
          "type": "tuple[]"
        }
      ],
      "stateMutability": "view",
      "type": "function"
    },
    {
      "inputs": [
        {
          "internalType": "address",
          "name": "_arbitratorManager",
          "type": "address"
        },
        {
          "internalType": "address",
          "name": "_dappRegistry",
          "type": "address"
        },
        {
          "internalType": "address",
          "name": "_configManager",
          "type": "address"
        },
        {
          "internalType": "address",
          "name": "_compensationManager",
          "type": "address"
        },
        {
          "internalType": "address",
          "name": "_btcUtils",
          "type": "address"
        },
        {
          "internalType": "address",
          "name": "_btcAddressParser",
          "type": "address"
        },
        {
          "internalType": "address",
          "name": "_btcBlockHeaders",
          "type": "address"
        }
      ],
      "name": "initialize",
      "outputs": [],
      "stateMutability": "nonpayable",
      "type": "function"
    },
    {
      "inputs": [
        {
          "internalType": "bytes32",
          "name": "id",
          "type": "bytes32"
        }
      ],
      "name": "isAbleCompletedTransaction",
      "outputs": [
        {
          "internalType": "bool",
          "name": "",
          "type": "bool"
        }
      ],
      "stateMutability": "view",
      "type": "function"
    },
    {
      "inputs": [],
      "name": "owner",
      "outputs": [
        {
          "internalType": "address",
          "name": "",
          "type": "address"
        }
      ],
      "stateMutability": "view",
      "type": "function"
    },
    {
      "inputs": [
        {
          "components": [
            {
              "internalType": "address",
              "name": "arbitrator",
              "type": "address"
            },
            {
              "internalType": "uint256",
              "name": "deadline",
              "type": "uint256"
            },
            {
              "internalType": "address",
              "name": "compensationReceiver",
              "type": "address"
            },
            {
              "internalType": "address",
              "name": "refundAddress",
              "type": "address"
            }
          ],
          "internalType": "struct ITransactionManager.RegisterData",
          "name": "data",
          "type": "tuple"
        }
      ],
      "name": "registerTransaction",
      "outputs": [
        {
          "internalType": "bytes32",
          "name": "",
          "type": "bytes32"
        },
        {
          "internalType": "string",
          "name": "",
          "type": "string"
        }
      ],
      "stateMutability": "payable",
      "type": "function"
    },
    {
      "inputs": [],
      "name": "renounceOwnership",
      "outputs": [],
      "stateMutability": "nonpayable",
      "type": "function"
    },
    {
      "inputs": [
        {
          "components": [
            {
              "internalType": "bytes32",
              "name": "id",
              "type": "bytes32"
            },
            {
              "internalType": "bytes",
              "name": "rawData",
              "type": "bytes"
            },
            {
              "internalType": "enum DataTypes.SignDataType",
              "name": "signDataType",
              "type": "uint8"
            },
            {
              "internalType": "uint8",
              "name": "signHashFlag",
              "type": "uint8"
            },
            {
              "internalType": "bytes",
              "name": "script",
              "type": "bytes"
            },
            {
              "internalType": "address",
              "name": "timeoutCompensationReceiver",
              "type": "address"
            }
          ],
          "internalType": "struct DataTypes.ArbitrationData",
          "name": "data",
          "type": "tuple"
        }
      ],
      "name": "requestArbitration",
      "outputs": [],
      "stateMutability": "nonpayable",
      "type": "function"
    },
    {
      "inputs": [
        {
          "internalType": "address",
          "name": "_arbitratorManager",
          "type": "address"
        }
      ],
      "name": "setArbitratorManager",
      "outputs": [],
      "stateMutability": "nonpayable",
      "type": "function"
    },
    {
      "inputs": [
        {
          "internalType": "address",
          "name": "_btcAddressParser",
          "type": "address"
        }
      ],
      "name": "setBTCAddressParser",
      "outputs": [],
      "stateMutability": "nonpayable",
      "type": "function"
    },
    {
      "inputs": [
        {
          "internalType": "address",
          "name": "_btcBlockHeaders",
          "type": "address"
        }
      ],
      "name": "setBtcBlockHeaders",
      "outputs": [],
      "stateMutability": "nonpayable",
      "type": "function"
    },
    {
      "inputs": [
        {
          "internalType": "address",
          "name": "_btcUtils",
          "type": "address"
        }
      ],
      "name": "setBtcUtils",
      "outputs": [],
      "stateMutability": "nonpayable",
      "type": "function"
    },
    {
      "inputs": [
        {
          "internalType": "address",
          "name": "_configManager",
          "type": "address"
        }
      ],
      "name": "setConfigManager",
      "outputs": [],
      "stateMutability": "nonpayable",
      "type": "function"
    },
    {
      "inputs": [
        {
          "internalType": "bytes32",
          "name": "id",
          "type": "bytes32"
        },
        {
          "internalType": "bytes",
          "name": "rawData",
          "type": "bytes"
        },
        {
          "internalType": "bytes32[]",
          "name": "merkleProof",
          "type": "bytes32[]"
        },
        {
          "internalType": "uint256",
          "name": "index",
          "type": "uint256"
        },
        {
          "internalType": "uint32",
          "name": "blockHeight",
          "type": "uint32"
        }
      ],
      "name": "setDAppBtcFeeTransaction",
      "outputs": [],
      "stateMutability": "nonpayable",
      "type": "function"
    },
    {
      "inputs": [
        {
          "internalType": "bytes32",
          "name": "id",
          "type": "bytes32"
        },
        {
          "internalType": "bytes",
          "name": "btcTxSignature",
          "type": "bytes"
        }
      ],
      "name": "submitArbitration",
      "outputs": [],
      "stateMutability": "nonpayable",
      "type": "function"
    },
    {
      "inputs": [
        {
          "internalType": "bytes32",
          "name": "",
          "type": "bytes32"
        }
      ],
      "name": "transactionSignData",
      "outputs": [
        {
          "internalType": "bytes",
          "name": "",
          "type": "bytes"
        }
      ],
      "stateMutability": "view",
      "type": "function"
    },
    {
      "inputs": [
        {
          "internalType": "bytes32",
          "name": "id",
          "type": "bytes32"
        }
      ],
      "name": "transferArbitrationFee",
      "outputs": [
        {
          "internalType": "uint256",
          "name": "arbitratorFee",
          "type": "uint256"
        },
        {
          "internalType": "uint256",
          "name": "systemFee",
          "type": "uint256"
        }
      ],
      "stateMutability": "nonpayable",
      "type": "function"
    },
    {
      "inputs": [
        {
          "internalType": "address",
          "name": "newOwner",
          "type": "address"
        }
      ],
      "name": "transferOwnership",
      "outputs": [],
      "stateMutability": "nonpayable",
      "type": "function"
    },
    {
      "inputs": [
        {
          "internalType": "bytes32",
          "name": "",
          "type": "bytes32"
        }
      ],
      "name": "txHashToId",
      "outputs": [
        {
          "internalType": "bytes32",
          "name": "",
          "type": "bytes32"
        }
      ],
      "stateMutability": "view",
      "type": "function"
    },
    {
      "inputs": [
        {
          "internalType": "bytes32",
          "name": "id",
          "type": "bytes32"
        },
        {
          "components": [
            {
              "internalType": "bytes32",
              "name": "txHash",
              "type": "bytes32"
            },
            {
              "internalType": "uint32",
              "name": "index",
              "type": "uint32"
            },
            {
              "internalType": "bytes",
              "name": "script",
              "type": "bytes"
            },
            {
              "internalType": "uint256",
              "name": "amount",
              "type": "uint256"
            }
          ],
          "internalType": "struct DataTypes.UTXO[]",
          "name": "utxos",
          "type": "tuple[]"
        },
        {
          "internalType": "bytes",
          "name": "lockScript",
          "type": "bytes"
        }
      ],
      "name": "uploadUTXOs",
      "outputs": [],
      "stateMutability": "nonpayable",
      "type": "function"
    }
  ],
  "bytecode": "0x60806040523480156200001157600080fd5b506200001c62000022565b620000d6565b7ff0c57e16840df040f15088dc2f81fe391c3923bec73e23a9662efc9c229c6a00805468010000000000000000900460ff1615620000735760405163f92ee8a960e01b815260040160405180910390fd5b80546001600160401b0390811614620000d35780546001600160401b0319166001600160401b0390811782556040519081527fc7f505b2f371ae2175ee4913f4499e1f2633a7b5936321eed1cdaeb6115181d29060200160405180910390a15b50565b615e9580620000e66000396000f3fe6080604052600436106102305760003560e01c80638b0ae2171161012e578063c1ce47d2116100ab578063e1d139b21161006f578063e1d139b2146108bc578063ea97137a146108dc578063eb44c0f2146108fd578063ec9bd0c51461091d578063f2fde38b1461093d57600080fd5b8063c1ce47d21461080f578063c258d4fc1461083c578063ca0ab0751461085c578063d09d03a31461087c578063de0ca1661461089c57600080fd5b8063a0037eac116100f2578063a0037eac146106cd578063a130312a1461078f578063a8a0e882146107af578063ae2db1cc146107cf578063b4e25e80146107ef57600080fd5b80638b0ae217146104f55780638da5cb5b14610515578063944074651461055257806397315e441461057f5780639dc37d08146105ba57600080fd5b8063537bcc55116101bc5780637577b6df116101805780637577b6df14610433578063759787c414610468578063814936701461048857806384b46d6a146104a857806388727e6b146104c857600080fd5b8063537bcc551461039e5780635f8b411d146103be57806363e877b6146103de57806366347a63146103fe578063715018a61461041e57600080fd5b806332239b7c1161020357806332239b7c146102e1578063358764761461030e5780634308dc8e1461032e5780634e4f0ec41461034e578063520936b51461036e57600080fd5b80630559b877146102355780631eedf03c1461027257806327226068146102945780632c7e8ca3146102c1575b600080fd5b34801561024157600080fd5b50600554610255906001600160a01b031681565b6040516001600160a01b0390911681526020015b60405180910390f35b34801561027e57600080fd5b5061029261028d366004614c23565b61095d565b005b3480156102a057600080fd5b506102b46102af366004614c9c565b610c53565b6040516102699190614d3d565b3480156102cd57600080fd5b506102926102dc366004614dca565b610d89565b3480156102ed57600080fd5b506103016102fc366004614c9c565b610e19565b6040516102699190614de7565b34801561031a57600080fd5b50610292610329366004614dfa565b610ebb565b34801561033a57600080fd5b50610301610349366004614c9c565b6110cb565b34801561035a57600080fd5b50610292610369366004614e90565b6110e8565b34801561037a57600080fd5b5061038e610389366004614c9c565b61151f565b6040519015158152602001610269565b3480156103aa57600080fd5b506103016103b9366004614c9c565b6116df565b3480156103ca57600080fd5b506102926103d9366004614dca565b611709565b3480156103ea57600080fd5b50600654610255906001600160a01b031681565b34801561040a57600080fd5b50610292610419366004614edb565b611799565b34801561042a57600080fd5b50610292612258565b34801561043f57600080fd5b5061045361044e366004614c9c565b61226c565b60408051928352602083019190915201610269565b34801561047457600080fd5b50600154610255906001600160a01b031681565b34801561049457600080fd5b506102b46104a3366004614c9c565b612549565b3480156104b457600080fd5b50600454610255906001600160a01b031681565b3480156104d457600080fd5b506104e86104e3366004614c9c565b6125bc565b6040516102699190614f15565b34801561050157600080fd5b50610292610510366004614dca565b6126e7565b34801561052157600080fd5b507f9016d09d72d40fdae2fd8ceac6b6234c7706214fd39c1cd1e609a0528c199300546001600160a01b0316610255565b34801561055e57600080fd5b5061057261056d366004614c9c565b612777565b6040516102699190614fa7565b34801561058b57600080fd5b506105ac61059a366004614c9c565b6000908152600e602052604090205490565b604051908152602001610269565b3480156105c657600080fd5b506106726105d5366004614c9c565b6040805160c081018252600080825260208201819052918101829052606081018290526080810182905260a081019190915250600090815260096020908152604091829020825160c08101845281546001600160a01b03908116825260018301548116938201939093526002820154831693810193909352600381015482166060840152600481015482166080840152600501541660a082015290565b604051610269919081516001600160a01b03908116825260208084015182169083015260408084015182169083015260608084015182169083015260808084015182169083015260a092830151169181019190915260c00190565b3480156106d957600080fd5b506106726106e8366004614c9c565b6040805160c081018252600080825260208201819052918101829052606081018290526080810182905260a08101919091525060009081526010602090815260408083205483526009825291829020825160c08101845281546001600160a01b03908116825260018301548116938201939093526002820154831693810193909352600381015482166060840152600481015482166080840152600501541660a082015290565b34801561079b57600080fd5b506102926107aa366004614c9c565b612902565b3480156107bb57600080fd5b506103016107ca366004614c9c565b612a4f565b3480156107db57600080fd5b506103016107ea366004614c9c565b612ae9565b3480156107fb57600080fd5b5061029261080a366004614dca565b612b06565b34801561081b57600080fd5b506105ac61082a366004614c9c565b60106020526000908152604090205481565b34801561084857600080fd5b50610292610857366004614c9c565b612b96565b34801561086857600080fd5b50600354610255906001600160a01b031681565b34801561088857600080fd5b50610292610897366004614fb5565b612ea9565b3480156108a857600080fd5b50600254610255906001600160a01b031681565b3480156108c857600080fd5b50600754610255906001600160a01b031681565b6108ef6108ea366004614fe5565b6130e3565b604051610269929190614ff7565b34801561090957600080fd5b50610292610918366004614dca565b61341c565b34801561092957600080fd5b50610292610938366004615022565b6134ac565b34801561094957600080fd5b50610292610958366004614dca565b6138c7565b6001831461099e576040805180820182526002815261055360f41b6020820152905162461bcd60e51b81526109959190600401614de7565b60405180910390fd5b6000858152600960205260409020600660008781526008602052604090206004015460ff1660068111156109d4576109d4614cb5565b14158015610a06575060008681526008602052604081206004015460ff166006811115610a0357610a03614cb5565b14155b15610a3b5760408051808201825260028152612a1960f11b6020820152905162461bcd60e51b81526109959190600401614de7565b80546001600160a01b03163314610a7c57604080518082018252600281526104e360f41b6020820152905162461bcd60e51b81526109959190600401614de7565b6004546001600160a01b031663eea079a58484338989600081610aa157610aa16150a8565b9050602002810190610ab391906150be565b610ac19060408101906150de565b6040518663ffffffff1660e01b8152600401610ae195949392919061514d565b602060405180830381865afa158015610afe573d6000803e3d6000fd5b505050506040513d601f19601f82011682018060405250810190610b2291906151a4565b610b565760408051808201825260028152614c3160f01b6020820152905162461bcd60e51b81526109959190600401614de7565b6000868152600d60205260409020805415610b9b5760408051808201825260028152612a9960f11b6020820152905162461bcd60e51b81526109959190600401614de7565b60005b85811015610c025781878783818110610bb957610bb96150a8565b9050602002810190610bcb91906150be565b815460018101835560009283526020909220909160040201610bed8282615318565b50508080610bfa906153bc565b915050610b9e565b506000878152601160205260409020610c1c848683615258565b50604051339088907fbe870ee46d1946169135a006725f4beb7bf05701d38e45b8d0e55892fabff1d990600090a350505050505050565b610c5b614b48565b6000828152601060209081526040808320548352600882529182902082516101008101845281548152600182015492810192909252600281015492820192909252600382015460608201526004820154909190608083019060ff166006811115610cc757610cc7614cb5565b6006811115610cd857610cd8614cb5565b815260200160058201548152602001600682018054610cf6906151d5565b80601f0160208091040260200160405190810160405280929190818152602001828054610d22906151d5565b8015610d6f5780601f10610d4457610100808354040283529160200191610d6f565b820191906000526020600020905b815481529060010190602001808311610d5257829003601f168201915b505050505081526020016007820154815250509050919050565b610d91613902565b6001600160a01b038116610dcf57604080518082018252600281526105a360f41b6020820152905162461bcd60e51b81526109959190600401614de7565b600180546001600160a01b0319166001600160a01b0383169081179091556040517fa323f9f93bbee02edb5e1034969f6ef41fb674527d2ea7e9271ad206435b58f490600090a250565b6000818152601160205260409020805460609190610e36906151d5565b80601f0160208091040260200160405190810160405280929190818152602001828054610e62906151d5565b8015610eaf5780601f10610e8457610100808354040283529160200191610eaf565b820191906000526020600020905b815481529060010190602001808311610e9257829003601f168201915b50505050509050919050565b6000610ec561395d565b805490915060ff600160401b82041615906001600160401b0316600081158015610eec5750825b90506000826001600160401b03166001148015610f085750303b155b905081158015610f16575080155b15610f345760405163f92ee8a960e01b815260040160405180910390fd5b845467ffffffffffffffff191660011785558315610f5e57845460ff60401b1916600160401b1785555b610f66613988565b610f6f33613998565b6001600160a01b038c161580610f8c57506001600160a01b038b16155b80610f9e57506001600160a01b038a16155b80610fb057506001600160a01b038916155b80610fc257506001600160a01b038816155b80610fd457506001600160a01b038716155b1561100957604080518082018252600281526105a360f41b6020820152905162461bcd60e51b81526109959190600401614de7565b600180546001600160a01b03199081166001600160a01b038f8116919091179092556002805482168e84161790556003805482168d84161790556005805482168c84161790556004805482168b84161790556006805482168a84161790556007805490911691881691909117905583156110bd57845460ff60401b19168555604051600181527fc7f505b2f371ae2175ee4913f4499e1f2633a7b5936321eed1cdaeb6115181d29060200160405180910390a15b505050505050505050505050565b6000818152600b60205260409020805460609190610e36906151d5565b60008381526008602052604090206002600482015460ff16600681111561111157611111614cb5565b146111465760408051808201825260028152612a1960f11b6020820152905162461bcd60e51b81526109959190600401614de7565b6040805161010081018252825481526001830154602082015260028301549181019190915260038201546060820152600482015461125a91908390608083019060ff16600681111561119a5761119a614cb5565b60068111156111ab576111ab614cb5565b8152602001600582015481526020016006820180546111c9906151d5565b80601f01602080910402602001604051908101604052809291908181526020018280546111f5906151d5565b80156112425780601f1061121757610100808354040283529160200191611242565b820191906000526020600020905b81548152906001019060200180831161122557829003601f168201915b505050505081526020016007820154815250506139a9565b1561128f576040805180820182526002815261543960f01b6020820152905162461bcd60e51b81526109959190600401614de7565b600084815260096020908152604091829020825160c08101845281546001600160a01b0390811682526001808401548216948301859052600284015482168387015260038401548216606084015260048085015483166080850152600590940154821660a0840152549451630e70978b60e21b81529283019390935233602483015292909116906339c25e2c90604401602060405180830381865afa15801561133c573d6000803e3d6000fd5b505050506040513d601f19601f8201168201806040525081019061136091906151a4565b61139457604080518082018252600281526104e360f41b6020820152905162461bcd60e51b81526109959190600401614de7565b60048054604051630263f12b60e61b81526001600160a01b03909116916398fc4ac0916113c59188918891016153d5565b602060405180830381865afa1580156113e2573d6000803e3d6000fd5b505050506040513d601f19601f8201168201806040525081019061140691906151a4565b61143a576040805180820182526002815261553960f01b6020820152905162461bcd60e51b81526109959190600401614de7565b60048201805460ff191660051790556000858152600b60205260409020611462848683615258565b50600154602082015160405163069fa0a760e51b81526001600160a01b03918216600482015291169063d3f414e090602401600060405180830381600087803b1580156114ae57600080fd5b505af11580156114c2573d6000803e3d6000fd5b50505050336001600160a01b031681600001516001600160a01b0316867fc3087094b1ca79d1b0196cfe915c3153df5266eba37502790ddfc1e3532d355987876040516115109291906153d5565b60405180910390a45050505050565b60008181526008602090815260408083208151610100810183528154815260018201549381019390935260028101549183019190915260038101546060830152600481015483929190608083019060ff16600681111561158157611581614cb5565b600681111561159257611592614cb5565b8152602001600582015481526020016006820180546115b0906151d5565b80601f01602080910402602001604051908101604052809291908181526020018280546115dc906151d5565b80156116295780601f106115fe57610100808354040283529160200191611629565b820191906000526020600020905b81548152906001019060200180831161160c57829003601f168201915b505050918352505060079190910154602090910152905060068160800151600681111561165857611658614cb5565b1480611679575060008160800151600681111561167757611677614cb5565b145b80611699575060058160800151600681111561169757611697614cb5565b145b806116c857506002816080015160068111156116b7576116b7614cb5565b1480156116c857506116c8816139a9565b156116d65750600192915050565b50600092915050565b6000818152601060209081526040808320548352600b9091529020805460609190610e36906151d5565b611711613902565b6001600160a01b03811661174f57604080518082018252600281526105a360f41b6020820152905162461bcd60e51b81526109959190600401614de7565b600780546001600160a01b0319166001600160a01b0383169081179091556040517f8734e6b78958753959661626b83b989d8602b1a72fda0e0717390776175c220290600090a250565b6117a1613a48565b60006117b360c0830160a08401614dca565b6001600160a01b0316036117f157604080518082018252600281526105a360f41b6020820152905162461bcd60e51b81526109959190600401614de7565b8035600090815260086020526040812090600482015460ff16600681111561181b5761181b614cb5565b146118505760408051808201825260028152612a1960f11b6020820152905162461bcd60e51b81526109959190600401614de7565b8060010154600360009054906101000a90046001600160a01b03166001600160a01b0316632b6f600d6040518163ffffffff1660e01b8152600401602060405180830381865afa1580156118a8573d6000803e3d6000fd5b505050506040513d601f19601f820116820180604052508101906118cc91906153e9565b6118d69042615402565b111561190c576040805180820182526002815261553760f01b6020820152905162461bcd60e51b81526109959190600401614de7565b600161191e6060840160408501615415565b600281111561192f5761192f614cb5565b146119645760408051808201825260028152610aa760f31b6020820152905162461bcd60e51b81526109959190600401614de7565b8135600090815260096020526040902080546001600160a01b031633146119b557604080518082018252600281526104e360f41b6020820152905162461bcd60e51b81526109959190600401614de7565b82356000908152600d6020908152604080832080548251818502810185019093528083529192909190849084015b82821015611ace576000848152602090819020604080516080810182526004860290920180548352600181015463ffffffff169383019390935260028301805492939291840191611a33906151d5565b80601f0160208091040260200160405190810160405280929190818152602001828054611a5f906151d5565b8015611aac5780601f10611a8157610100808354040283529160200191611aac565b820191906000526020600020905b815481529060010190602001808311611a8f57829003601f168201915b50505050508152602001600382015481525050815260200190600101906119e3565b5050505090508051600003611b0d576040805180820182526002815261553360f01b6020820152905162461bcd60e51b81526109959190600401614de7565b6004546000906001600160a01b031663f64af3d3611b2e60208801886150de565b6040518363ffffffff1660e01b8152600401611b4b9291906153d5565b600060405180830381865afa158015611b68573d6000803e3d6000fd5b505050506040513d6000823e601f3d908101601f19168201604052611b909190810190615638565b9050815181602001515114611bcf576040805180820182526002815261553160f01b6020820152905162461bcd60e51b81526109959190600401614de7565b60005b816020015151811015611cbd57828181518110611bf157611bf16150a8565b60200260200101516000015182602001518281518110611c1357611c136150a8565b602002602001015160000151141580611c765750828181518110611c3957611c396150a8565b60200260200101516020015163ffffffff1682602001518281518110611c6157611c616150a8565b60200260200101516020015163ffffffff1614155b15611cab576040805180820182526002815261553160f01b6020820152905162461bcd60e51b81526109959190600401614de7565b80611cb5816153bc565b915050611bd2565b50600082600081518110611cd357611cd36150a8565b6020908102919091010151606001516004549091506000906001600160a01b031663aca6fee88483611d0860808c018c6150de565b878d6060016020810190611d1c91906157d2565b6040518763ffffffff1660e01b8152600401611d3d96959493929190615867565b600060405180830381865afa158015611d5a573d6000803e3d6000fd5b505050506040513d6000823e601f3d908101601f19168201604052611d8291908101906159a4565b9050600060028083604051611d9791906159d8565b602060405180830381855afa158015611db4573d6000803e3d6000fd5b5050506040513d601f19601f82011682018060405250810190611dd791906153e9565b604051602001611de991815260200190565b60408051601f1981840301815290829052611e03916159d8565b602060405180830381855afa158015611e20573d6000803e3d6000fd5b5050506040513d601f19601f82011682018060405250810190611e4391906153e9565b6001805490880154604051630fef2a6f60e41b81526001600160a01b0391821660048201529293506000928392919091169063fef2a6f090602401600060405180830381865afa158015611e9b573d6000803e3d6000fd5b505050506040513d6000823e601f3d908101601f19168201604052611ec391908101906159ea565b60600151905060005b86604001515181101561209957600654604051632e235f3960e01b81526000916001600160a01b031690632e235f3990611f0a908690600401614de7565b600060405180830381865afa158015611f27573d6000803e3d6000fd5b505050506040513d6000823e601f3d908101601f19168201604052611f4f91908101906159a4565b9050808051906020012088604001518381518110611f6f57611f6f6150a8565b602002602001015160200151805190602001201493508315612086576000612710600360009054906101000a90046001600160a01b03166001600160a01b03166355f50acc6040518163ffffffff1660e01b8152600401602060405180830381865afa158015611fe3573d6000803e3d6000fd5b505050506040513d601f19601f8201168201806040525081019061200791906153e9565b612011908a615aa5565b61201b9190615ad2565b90508089604001518481518110612034576120346150a8565b6020026020010151600001516001600160401b0316101561207f576040805180820182526002815261493560f01b6020820152905162461bcd60e51b81526109959190600401614de7565b5050612099565b5080612091816153bc565b915050611ecc565b50816120cf576040805180820182526002815261493360f01b6020820152905162461bcd60e51b81526109959190600401614de7565b6120df60c08b0160a08c01614dca565b6003890180546001600160a01b0319166001600160a01b03929092169190911790554260028a81019190915560048a01805460ff1916600183021790555089356000908152600e6020908152604090912084905561213f908b018b6150de565b8b356000908152600a602052604090209161215b919083615258565b5061216960808b018b6150de565b8b356000908152600c6020526040902091612185919083615258565b5060008381526010602090815260408083208d359055600f90915290206121ac8582615ae6565b50875460018901546001600160a01b03918216918c35917f81c89bbce5115bf315ea29f7001ebabb88f6d3e4d76132bf792f2085799ed0e491166121f360208f018f6150de565b8f806080019061220391906150de565b8f60030160009054906101000a90046001600160a01b031660405161222d96959493929190615ba5565b60405180910390a35050505050505050506122556001600080516020615e4083398151915255565b50565b612260613902565b61226a6000613a94565b565b60055460009081906001600160a01b031633146122b35760408051808201825260028152614e3760f01b6020820152905162461bcd60e51b81526109959190600401614de7565b6000838152600960209081526040808320815160c08101835281546001600160a01b0390811682526001808401548216838701526002808501548316848701526003808601548416606080870191909152600480880154861660808089019190915260059098015490951660a08701528c8a5260088952878a20885161010081018a52815481529481015499850199909952918801549683019690965294860154948101949094528401549094939183019060ff16600681111561237957612379614cb5565b600681111561238a5761238a614cb5565b8152602001600582015481526020016006820180546123a8906151d5565b80601f01602080910402602001604051908101604052809291908181526020018280546123d4906151d5565b80156124215780601f106123f657610100808354040283529160200191612421565b820191906000526020600020905b81548152906001019060200180831161240457829003601f168201915b505050918352505060079190910154602090910152905060008160800151600681111561245057612450614cb5565b1480156124605750806020015142115b806124fa575060058160800151600681111561247e5761247e614cb5565b1480156124fa57506001546020830151604051632911125160e01b81526001600160a01b039182166004820152911690632911125190602401602060405180830381865afa1580156124d4573d6000803e3d6000fd5b505050506040513d601f19601f820116820180604052508101906124f891906151a4565b155b15612514576125098583613b05565b935093505050915091565b60408051808201825260028152612a1960f11b6020820152905162461bcd60e51b81526109959190600401614de7565b915091565b612551614b48565b6008600083815260200190815260200160002060405180610100016040529081600082015481526020016001820154815260200160028201548152602001600382015481526020016004820160009054906101000a900460ff166006811115610cc757610cc7614cb5565b6060600d6000838152602001908152602001600020805480602002602001604051908101604052809291908181526020016000905b828210156126dc576000848152602090819020604080516080810182526004860290920180548352600181015463ffffffff169383019390935260028301805492939291840191612641906151d5565b80601f016020809104026020016040519081016040528092919081815260200182805461266d906151d5565b80156126ba5780601f1061268f576101008083540402835291602001916126ba565b820191906000526020600020905b81548152906001019060200180831161269d57829003601f168201915b50505050508152602001600382015481525050815260200190600101906125f1565b505050509050919050565b6126ef613902565b6001600160a01b03811661272d57604080518082018252600281526105a360f41b6020820152905162461bcd60e51b81526109959190600401614de7565b600680546001600160a01b0319166001600160a01b0383169081179091556040517f5d263627c90d0f6c9e5b56ab2a0952bc65431ee3225325ee7be26c5856d1446290600090a250565b60008181526008602090815260408083208151610100810183528154815260018201549381019390935260028101549183019190915260038101546060830152600481015483929190608083019060ff1660068111156127d9576127d9614cb5565b60068111156127ea576127ea614cb5565b815260200160058201548152602001600682018054612808906151d5565b80601f0160208091040260200160405190810160405280929190818152602001828054612834906151d5565b80156128815780601f1061285657610100808354040283529160200191612881565b820191906000526020600020905b81548152906001019060200180831161286457829003601f168201915b50505091835250506007919091015460209091015260808101519250905060008260068111156128b3576128b3614cb5565b1480156128c35750428160200151105b806128f257506002816080015160068111156128e1576128e1614cb5565b1480156128f257506128f2816139a9565b156128fc57600391505b50919050565b60008181526009602052604090819020905163520936b560e01b815260048101839052309063520936b590602401602060405180830381865afa15801561294d573d6000803e3d6000fd5b505050506040513d601f19601f8201168201806040525081019061297191906151a4565b6129a55760408051808201825260028152610a8760f31b6020820152905162461bcd60e51b81526109959190600401614de7565b80546001600160a01b031633146129e657604080518082018252600281526104e360f41b6020820152905162461bcd60e51b81526109959190600401614de7565b6040805160c08101825282546001600160a01b0390811682526001840154811660208301526002840154811692820192909252600383015482166060820152600483015482166080820152600583015490911660a0820152612a49908390613b05565b50505050565b600f6020526000908152604090208054612a68906151d5565b80601f0160208091040260200160405190810160405280929190818152602001828054612a94906151d5565b8015612ae15780601f10612ab657610100808354040283529160200191612ae1565b820191906000526020600020905b815481529060010190602001808311612ac457829003601f168201915b505050505081565b6000818152600a60205260409020805460609190610e36906151d5565b612b0e613902565b6001600160a01b038116612b4c57604080518082018252600281526105a360f41b6020820152905162461bcd60e51b81526109959190600401614de7565b600380546001600160a01b0319166001600160a01b0383169081179091556040517f6a801685c5950e3d8ece256f75ca0ff31ed0ae02aeae73f8180ff32e978a2f6b90600090a250565b600081815260096020908152604091829020825160c08101845281546001600160a01b03908116825260018301548116938201849052600283015481169482019490945260038201548416606082015260048201548416608082015260059091015490921660a08301523314612c3657604080518082018252600281526104e360f41b6020820152905162461bcd60e51b81526109959190600401614de7565b600082815260086020908152604080832081516101008101835281548152600182015493810193909352600281015491830191909152600381015460608301526004810154608083019060ff166006811115612c9457612c94614cb5565b6006811115612ca557612ca5614cb5565b815260200160058201548152602001600682018054612cc3906151d5565b80601f0160208091040260200160405190810160405280929190818152602001828054612cef906151d5565b8015612d3c5780601f10612d1157610100808354040283529160200191612d3c565b820191906000526020600020905b815481529060010190602001808311612d1f57829003601f168201915b5050505050815260200160078201548152505090508060a00151600003612d8d576040805180820182526002815261211960f11b6020820152905162461bcd60e51b81526109959190600401614de7565b600354604080516369e6c5a560e01b815290516000926001600160a01b0316916369e6c5a59160048083019260209291908290030181865afa158015612dd7573d6000803e3d6000fd5b505050506040513d601f19601f82011682018060405250810190612dfb91906153e9565b8251909150612e0b908290615402565b4211612e41576040805180820182526002815261543160f01b6020820152905162461bcd60e51b81526109959190600401614de7565b612e4b8484613b05565b505082602001516001600160a01b031683600001516001600160a01b0316857f539b8179d7bd023ac9f8ab39d08bd72917d41b88f4479eccb11c4c8b8e2931ef42604051612e9b91815260200190565b60405180910390a450505050565b6005546001600160a01b03163314612eeb5760408051808201825260028152614e3760f01b6020820152905162461bcd60e51b81526109959190600401614de7565b600082815260096020908152604080832060089092529091206001600482015460ff166006811115612f1f57612f1f614cb5565b03612f545760408051808201825260028152612a1960f11b6020820152905162461bcd60e51b81526109959190600401614de7565b6001600160a01b038316612f9257604080518082018252600281526105a360f41b6020820152905162461bcd60e51b81526109959190600401614de7565b60048101805460ff1916600117905560038101548015613039576000846001600160a01b03168260405160006040518083038185875af1925050503d8060008114612ff9576040519150601f19603f3d011682016040523d82523d6000602084013e612ffe565b606091505b5050905080613037576040805180820182526002815261463160f01b6020820152905162461bcd60e51b81526109959190600401614de7565b505b600180549084015460405163cedb588b60e01b81526001600160a01b0391821660048201526024810188905291169063cedb588b90604401600060405180830381600087803b15801561308b57600080fd5b505af115801561309f573d6000803e3d6000fd5b505084546040516001600160a01b0390911692508791507f15d1e788ed875e6f2294a51087aa5cd2e2c10c92e627eb0a6bbbfceceaa01b9890600090a35050505050565b600060606130ef613a48565b6130f883613be3565b6000613108426020860135615bf2565b6001549091506000906001600160a01b031663dfcf048d8361312d6020890189614dca565b6040516001600160e01b031960e085901b16815260048101929092526001600160a01b03166024820152604401602060405180830381865afa158015613177573d6000803e3d6000fd5b505050506040513d601f19601f8201168201806040525081019061319b91906153e9565b9050803410156131d5576040805180820182526002815261543560f01b6020820152905162461bcd60e51b81526109959190600401614de7565b6001546000906001600160a01b031663b6ca3e07846131f760208a018a614dca565b6040516001600160e01b031960e085901b16815260048101929092526001600160a01b03166024820152604401602060405180830381865afa158015613241573d6000803e3d6000fd5b505050506040513d601f19601f8201168201806040525081019061326591906153e9565b90506000423361327860208a018a614dca565b600080549080613287836153bc565b909155506040805160208101959095526bffffffffffffffffffffffff19606094851b8116918601919091529190921b166054830152606882015260880160408051601f1981840301815291905280516020918201206001549092506001600160a01b031690632b2d37da906132ff908a018a614dca565b6040516001600160e01b031960e084901b1681526001600160a01b03909116600482015260248101849052604401600060405180830381600087803b15801561334757600080fd5b505af115801561335b573d6000803e3d6000fd5b5050505061336b81883485613f79565b60006133838261337e60208b018b614dca565b61407d565b90506133926020890189614dca565b6001600160a01b0316336001600160a01b0316837f1b4f5de17fe2b00e0f40c5911ca1a63050990bc6368270acc53e124917fa6e008b6020013534888e60400160208101906133e19190614dca565b42896040516133f596959493929190615c05565b60405180910390a490955093505050506125446001600080516020615e4083398151915255565b613424613902565b6001600160a01b03811661346257604080518082018252600281526105a360f41b6020820152905162461bcd60e51b81526109959190600401614de7565b600480546001600160a01b0319166001600160a01b0383169081179091556040517fedfaa3bf5c2591af99a9a84e77e7d5b52a712ac2f7df014f60a6d9581e1fe4c890600090a250565b8415806134b7575082155b156134ec576040805180820182526002815261049360f41b6020820152905162461bcd60e51b81526109959190600401614de7565b600087815260096020526040902080546001600160a01b0316331461353b57604080518082018252600281526104e360f41b6020820152905162461bcd60e51b81526109959190600401614de7565b6000888152600860205260408120600581015490910361355c5750506138be565b60068054604051632e235f3960e01b81526000926001600160a01b0390921691632e235f399161359191860190600401615c3e565b600060405180830381865afa1580156135ae573d6000803e3d6000fd5b505050506040513d6000823e601f3d908101601f191682016040526135d691908101906159a4565b6004805460405163f64af3d360e01b81529293506000926001600160a01b039091169163f64af3d39161360d918e918e91016153d5565b600060405180830381865afa15801561362a573d6000803e3d6000fd5b505050506040513d6000823e601f3d908101601f191682016040526136529190810190615638565b90506000805b8260400151518110156136e65760008360400151828151811061367d5761367d6150a8565b6020026020010151602001519050613695858261420d565b156136d357836040015182815181106136b0576136b06150a8565b6020026020010151600001516001600160401b0316836136d09190615402565b92505b50806136de816153bc565b915050613658565b508360050154811015613723576040805180820182526002815261493560f01b6020820152905162461bcd60e51b81526109959190600401614de7565b600754604051631831281f60e21b815263ffffffff881660048201526000916001600160a01b0316906360c4a07c9060240161010060405180830381865afa158015613773573d6000803e3d6000fd5b505050506040513d601f19601f820116820180604052508101906137979190615cc9565b90506000600460009054906101000a90046001600160a01b03166001600160a01b0316636d78a10b8e8e6040518363ffffffff1660e01b81526004016137de9291906153d5565b602060405180830381865afa1580156137fb573d6000803e3d6000fd5b505050506040513d601f19601f8201168201806040525081019061381f91906153e9565b90506138328183604001518d8d8d614270565b613866576040805180820182526002815261092760f31b6020820152905162461bcd60e51b81526109959190600401614de7565b6007860181905560048601805460ff1916905560405163ffffffff8916815281908f907fa95a5e84942ed971fc1c23b67adb9b126bd5c349e645b490fcd60a72f516af609060200160405180910390a3505050505050505b50505050505050565b6138cf613902565b6001600160a01b0381166138f957604051631e4fbdf760e01b815260006004820152602401610995565b61225581613a94565b336139347f9016d09d72d40fdae2fd8ceac6b6234c7706214fd39c1cd1e609a0528c199300546001600160a01b031690565b6001600160a01b03161461226a5760405163118cdaa760e01b8152336004820152602401610995565b6000807ff0c57e16840df040f15088dc2f81fe391c3923bec73e23a9662efc9c229c6a005b92915050565b6139906142fc565b61226a614321565b6139a06142fc565b61225581614329565b600081602001514211156139bf57506001919050565b60035460408051632b6f600d60e01b815290516000926001600160a01b031691632b6f600d9160048083019260209291908290030181865afa158015613a09573d6000803e3d6000fd5b505050506040513d601f19601f82011682018060405250810190613a2d91906153e9565b9050808360400151613a3f9190615402565b42119392505050565b600080516020615e40833981519152805460011901613a7a57604051633ee5aeb560e01b815260040160405180910390fd5b60029055565b6001600080516020615e4083398151915255565b7f9016d09d72d40fdae2fd8ceac6b6234c7706214fd39c1cd1e609a0528c19930080546001600160a01b031981166001600160a01b03848116918217845560405192169182907f8be0079c531659141344cd1fd0a4f28419497f9722a3daafe3b4186f6b6457e090600090a3505050565b600080600080613b158686614331565b600154602088015160405163cedb588b60e01b81526001600160a01b039182166004820152602481018b9052939550919350169063cedb588b90604401600060405180830381600087803b158015613b6c57600080fd5b505af1158015613b80573d6000803e3d6000fd5b505050600087815260086020526040808220600401805460ff19166001179055875190516001600160a01b03909116925088917f15d1e788ed875e6f2294a51087aa5cd2e2c10c92e627eb0a6bbbfceceaa01b9891a390925090505b9250929050565b6000613bf26020830183614dca565b6001600160a01b03161480613c1f57506000613c146060830160408401614dca565b6001600160a01b0316145b80613c4257506000613c376080830160608401614dca565b6001600160a01b0316145b15613c7757604080518082018252600281526105a360f41b6020820152905162461bcd60e51b81526109959190600401614de7565b60025460405163682dc82b60e11b81523360048201526001600160a01b039091169063d05b905690602401602060405180830381865afa158015613cbf573d6000803e3d6000fd5b505050506040513d601f19601f82011682018060405250810190613ce391906151a4565b613d17576040805180820182526002815261221960f11b6020820152905162461bcd60e51b81526109959190600401614de7565b6001546001600160a01b031663e2b4efb8613d356020840184614dca565b6040516001600160e01b031960e084901b1681526001600160a01b039091166004820152602401602060405180830381865afa158015613d79573d6000803e3d6000fd5b505050506040513d601f19601f82011682018060405250810190613d9d91906151a4565b613dd1576040805180820182526002815261413360f01b6020820152905162461bcd60e51b81526109959190600401614de7565b42816020013511613e0c576040805180820182526002815261543360f01b6020820152905162461bcd60e51b81526109959190600401614de7565b6000613e1c426020840135615bf2565b600354604051636dd5b69d60e01b81527f251496a2e9229b930e5943f3c3e4da6cb786017948b856c9d455ed9cf0fc156c60048201529192506001600160a01b031690636dd5b69d90602401602060405180830381865afa158015613e85573d6000803e3d6000fd5b505050506040513d601f19601f82011682018060405250810190613ea991906153e9565b811080613f405750600354604051636dd5b69d60e01b81527fd31f84da73b6cb3a8c2e853a7c46b1c95600fc6ab5acdbeb4f7f16e875c25ab860048201526001600160a01b0390911690636dd5b69d90602401602060405180830381865afa158015613f19573d6000803e3d6000fd5b505050506040513d601f19601f82011682018060405250810190613f3d91906153e9565b81115b15613f75576040805180820182526002815261493160f01b6020820152905162461bcd60e51b81526109959190600401614de7565b5050565b6000848152600860209081526040808320600983529220428355908501356001830155600382018490556005820183905582613fb6576000613fb9565b60065b60048301805460ff19166001836006811115613fd757613fd7614cb5565b0217905550613fe96020860186614dca565b6001820180546001600160a01b0319166001600160a01b039290921691909117905561401b6060860160408701614dca565b6002820180546001600160a01b03929092166001600160a01b0319928316179055815416331781556140536080860160608701614dca565b60059190910180546001600160a01b0319166001600160a01b039092169190911790555050505050565b600154604051630fef2a6f60e41b81526001600160a01b03838116600483015260609260009291169063fef2a6f090602401600060405180830381865afa1580156140cc573d6000803e3d6000fd5b505050506040513d6000823e601f3d908101601f191682016040526140f491908101906159ea565b60409081015181514260208201526bffffffffffffffffffffffff193360601b169281019290925260548201869052915060009060740160405160208183030381529060405280519060200120905060008183518460405160200161415b93929190615d7d565b60408051601f198184030181529082905260065463064d1f4960e51b83529092506000916001600160a01b039091169063c9a3e9209061419f908590600401615dd2565b600060405180830381865afa1580156141bc573d6000803e3d6000fd5b505050506040513d6000823e601f3d908101601f191682016040526141e491908101906159a4565b60008881526008602052604090209091506006016142028282615ae6565b509695505050505050565b8151815160009160019181148083146142295760009250614266565b600160208701838101602088015b60028483851001036142615780518351146142555760009650600093505b60209283019201614237565b505050505b5090949350505050565b60008582825b858110156142ee576000878783818110614292576142926150a8565b9050602002013590506002836142a89190615e0e565b6000036142c0576142b98482614921565b93506142cd565b6142ca8185614921565b93505b6142d8600284615ad2565b92505080806142e6906153bc565b915050614276565b505090941495945050505050565b614304614a0f565b61226a57604051631afcd79f60e31b815260040160405180910390fd5b613a806142fc565b6138cf6142fc565b600082815260086020908152604080832081516101008101835281548152600182015493810193909352600281015491830191909152600381015460608301526004810154839283929091608083019060ff16600681111561439557614395614cb5565b60068111156143a6576143a6614cb5565b8152602001600582015481526020016006820180546143c4906151d5565b80601f01602080910402602001604051908101604052809291908181526020018280546143f0906151d5565b801561443d5780601f106144125761010080835404028352916020019161443d565b820191906000526020600020905b81548152906001019060200180831161442057829003601f168201915b505050505081526020016007820154815250509050806060015160000361446b576000809250925050613bdc565b6000816020015142116144895781516144849042615bf2565b61449a565b8151602083015161449a9190615bf2565b600154602087015160405163dfcf048d60e01b8152600481018490526001600160a01b03918216602482015292935060009291169063dfcf048d90604401602060405180830381865afa1580156144f5573d6000803e3d6000fd5b505050506040513d601f19601f8201168201806040525081019061451991906153e9565b9050806000036145325760008094509450505050613bdc565b8260600151811115614545575060608201515b600354604051636dd5b69d60e01b81527fd91f20541e9312a0f4d27f0f0ba02500035307ac99ea67c86c8342ab3fd71bc56004820152600091612710916001600160a01b0390911690636dd5b69d90602401602060405180830381865afa1580156145b4573d6000803e3d6000fd5b505050506040513d601f19601f820116820180604052508101906145d891906153e9565b6145e29084615aa5565b6145ec9190615ad2565b905060006145fa8284615bf2565b90506000600360009054906101000a90046001600160a01b03166001600160a01b0316638b6570a06040518163ffffffff1660e01b8152600401602060405180830381865afa158015614651573d6000803e3d6000fd5b505050506040513d601f19601f820116820180604052508101906146759190615e22565b90506000816001600160a01b03168460405160006040518083038185875af1925050503d80600081146146c4576040519150601f19603f3d011682016040523d82523d6000602084013e6146c9565b606091505b5050905080614702576040805180820182526002815261463160f01b6020820152905162461bcd60e51b81526109959190600401614de7565b60015460208b0151604051630fef2a6f60e41b81526001600160a01b039182166004820152600092919091169063fef2a6f090602401600060405180830381865afa158015614755573d6000803e3d6000fd5b505050506040513d6000823e601f3d908101601f1916820160405261477d91908101906159ea565b9050600081608001516001600160a01b03168560405160006040518083038185875af1925050503d80600081146147d0576040519150601f19603f3d011682016040523d82523d6000602084013e6147d5565b606091505b505090508061480e576040805180820182526002815261463160f01b6020820152905162461bcd60e51b81526109959190600401614de7565b6000878a606001516148209190615bf2565b905080156148b95760008d60a001516001600160a01b03168260405160006040518083038185875af1925050503d8060008114614879576040519150601f19603f3d011682016040523d82523d6000602084013e61487e565b606091505b50509050806148b7576040805180820182526002815261463160f01b6020820152905162461bcd60e51b81526109959190600401614de7565b505b6080830151604080518a8152602081018a90529081018390526001600160a01b03909116908f907f0e6f7005813080ec5f9df085ae1a9ee5221216f7746e432f210b6ce161e681659060600160405180910390a350939c949b50939950505050505050505050565b6040805181815260608101825260009182919060208201818036833701905050905060005b60208110156149fd578461495b82601f615bf2565b6020811061496b5761496b6150a8565b1a60f81b828281518110614981576149816150a8565b60200101906001600160f81b031916908160001a905350836149a482601f615bf2565b602081106149b4576149b46150a8565b1a60f81b826149c4836020615402565b815181106149d4576149d46150a8565b60200101906001600160f81b031916908160001a905350806149f5816153bc565b915050614946565b50614a0781614a29565b949350505050565b6000614a1961395d565b54600160401b900460ff16919050565b60008060028084604051614a3d91906159d8565b602060405180830381855afa158015614a5a573d6000803e3d6000fd5b5050506040513d601f19601f82011682018060405250810190614a7d91906153e9565b604051602001614a8f91815260200190565b60408051601f1981840301815290829052614aa9916159d8565b602060405180830381855afa158015614ac6573d6000803e3d6000fd5b5050506040513d601f19601f82011682018060405250810190614ae991906153e9565b9050614af481614afb565b9392505050565b60008060005b6020811015614b4157614b15816008615aa5565b848260208110614b2757614b276150a8565b1a901b919091179080614b39816153bc565b915050614b01565b5092915050565b6040518061010001604052806000815260200160008152602001600081526020016000815260200160006006811115614b8357614b83614cb5565b81526000602082018190526060604083018190529091015290565b60008083601f840112614bb057600080fd5b5081356001600160401b03811115614bc757600080fd5b6020830191508360208260051b8501011115613bdc57600080fd5b60008083601f840112614bf457600080fd5b5081356001600160401b03811115614c0b57600080fd5b602083019150836020828501011115613bdc57600080fd5b600080600080600060608688031215614c3b57600080fd5b8535945060208601356001600160401b0380821115614c5957600080fd5b614c6589838a01614b9e565b90965094506040880135915080821115614c7e57600080fd5b50614c8b88828901614be2565b969995985093965092949392505050565b600060208284031215614cae57600080fd5b5035919050565b634e487b7160e01b600052602160045260246000fd5b60078110614ce957634e487b7160e01b600052602160045260246000fd5b9052565b60005b83811015614d08578181015183820152602001614cf0565b50506000910152565b60008151808452614d29816020860160208601614ced565b601f01601f19169290920160200192915050565b602081528151602082015260208201516040820152604082015160608201526060820151608082015260006080830151614d7a60a0840182614ccb565b5060a083015160c083015260c08301516101008060e0850152614da1610120850183614d11565b60e095909501519301929092525090919050565b6001600160a01b038116811461225557600080fd5b600060208284031215614ddc57600080fd5b8135614af481614db5565b602081526000614af46020830184614d11565b600080600080600080600060e0888a031215614e1557600080fd5b8735614e2081614db5565b96506020880135614e3081614db5565b95506040880135614e4081614db5565b94506060880135614e5081614db5565b93506080880135614e6081614db5565b925060a0880135614e7081614db5565b915060c0880135614e8081614db5565b8091505092959891949750929550565b600080600060408486031215614ea557600080fd5b8335925060208401356001600160401b03811115614ec257600080fd5b614ece86828701614be2565b9497909650939450505050565b600060208284031215614eed57600080fd5b81356001600160401b03811115614f0357600080fd5b820160c08185031215614af457600080fd5b60006020808301818452808551808352604092508286019150828160051b87010184880160005b83811015614f9957603f19898403018552815160808151855263ffffffff898301511689860152878201518189870152614f7882870182614d11565b60609384015196909301959095525094870194925090860190600101614f3c565b509098975050505050505050565b602081016139828284614ccb565b60008060408385031215614fc857600080fd5b823591506020830135614fda81614db5565b809150509250929050565b6000608082840312156128fc57600080fd5b828152604060208201526000614a076040830184614d11565b63ffffffff8116811461225557600080fd5b600080600080600080600060a0888a03121561503d57600080fd5b8735965060208801356001600160401b038082111561505b57600080fd5b6150678b838c01614be2565b909850965060408a013591508082111561508057600080fd5b5061508d8a828b01614b9e565b909550935050606088013591506080880135614e8081615010565b634e487b7160e01b600052603260045260246000fd5b60008235607e198336030181126150d457600080fd5b9190910192915050565b6000808335601e198436030181126150f557600080fd5b8301803591506001600160401b0382111561510f57600080fd5b602001915036819003821315613bdc57600080fd5b81835281816020850137506000828201602090810191909152601f909101601f19169091010190565b606081526000615161606083018789615124565b6001600160a01b03861660208401528281036040840152615183818587615124565b98975050505050505050565b8051801515811461519f57600080fd5b919050565b6000602082840312156151b657600080fd5b614af48261518f565b634e487b7160e01b600052604160045260246000fd5b600181811c908216806151e957607f821691505b6020821081036128fc57634e487b7160e01b600052602260045260246000fd5b601f82111561525357600081815260208120601f850160051c810160208610156152305750805b601f850160051c820191505b8181101561524f5782815560010161523c565b5050505b505050565b6001600160401b0383111561526f5761526f6151bf565b6152838361527d83546151d5565b83615209565b6000601f8411600181146152b7576000851561529f5750838201355b600019600387901b1c1916600186901b178355615311565b600083815260209020601f19861690835b828110156152e857868501358255602094850194600190920191016152c8565b50868210156153055760001960f88860031b161c19848701351681555b505060018560011b0183555b5050505050565b8135815560018101602083013561532e81615010565b815463ffffffff191663ffffffff91909116179055604082013536839003601e1901811261535b57600080fd5b820180356001600160401b0381111561537357600080fd5b60208201915080360382131561538857600080fd5b615396818360028601615258565b5050606082013560038201555050565b634e487b7160e01b600052601160045260246000fd5b6000600182016153ce576153ce6153a6565b5060010190565b602081526000614a07602083018486615124565b6000602082840312156153fb57600080fd5b5051919050565b80820180821115613982576139826153a6565b60006020828403121561542757600080fd5b813560038110614af457600080fd5b604080519081016001600160401b0381118282101715615458576154586151bf565b60405290565b60405160a081016001600160401b0381118282101715615458576154586151bf565b604051608081016001600160401b0381118282101715615458576154586151bf565b604051601f8201601f191681016001600160401b03811182821017156154ca576154ca6151bf565b604052919050565b805161519f81615010565b60006001600160401b038211156154f6576154f66151bf565b5060051b60200190565b600082601f83011261551157600080fd5b81516001600160401b0381111561552a5761552a6151bf565b61553d601f8201601f19166020016154a2565b81815284602083860101111561555257600080fd5b614a07826020830160208701614ced565b600082601f83011261557457600080fd5b81516020615589615584836154dd565b6154a2565b82815260059290921b840181019181810190868411156155a857600080fd5b8286015b848110156142025780516001600160401b03808211156155cc5760008081fd5b908801906040828b03601f19018113156155e65760008081fd5b6155ee615436565b8784015183811681146156015760008081fd5b81529083015190828211156156165760008081fd5b6156248c8984870101615500565b8189015286525050509183019183016155ac565b6000602080838503121561564b57600080fd5b82516001600160401b038082111561566257600080fd5b9084019060a0828703121561567657600080fd5b61567e61545e565b825161568981615010565b8152828401518281111561569c57600080fd5b8301601f810188136156ad57600080fd5b80516156bb615584826154dd565b81815260059190911b8201860190868101908a8311156156da57600080fd5b8784015b83811015615777578051878111156156f557600080fd5b85016080818e03601f1901121561570b57600080fd5b615713615480565b8a8201518152604082015161572781615010565b818c015260608201518981111561573e5760008081fd5b61574c8f8d83860101615500565b6040830152506080820151915061576282615010565b606081019190915283529188019188016156de565b50808886015250505050604083015193508184111561579557600080fd5b6157a187858501615563565b60408201526157b2606084016154d2565b60608201526157c36080840161518f565b60808201529695505050505050565b6000602082840312156157e457600080fd5b813560ff81168114614af457600080fd5b600081518084526020808501808196508360051b8101915082860160005b8581101561585a578284038952815180516001600160401b03168552850151604086860181905261584681870183614d11565b9a87019a9550505090840190600101615813565b5091979650505050505050565b60a081526000610140820163ffffffff808a511660a08501526020808b015160a060c087015283815180865261016095508588019150858160051b8901019550838301925060005b8181101561590f5761015f198988030183528351608081518952878783015116878a015260408083015182828c01526158ea838c0182614d11565b6060948501518b169b9094019a909a52509097505092840192918401916001016158af565b5050505060408b0151858403609f190160e0870152915061593083836157f5565b925060608b0151915061594c61010086018363ffffffff169052565b60808b0151151561012086015263ffffffff8a1690850152508281036040840152615978818789615124565b91505061599060608301856001600160401b03169052565b60ff83166080830152979650505050505050565b6000602082840312156159b657600080fd5b81516001600160401b038111156159cc57600080fd5b614a0784828501615500565b600082516150d4818460208701614ced565b6000602082840312156159fc57600080fd5b81516001600160401b0380821115615a1357600080fd5b9083019060a08286031215615a2757600080fd5b615a2f61545e565b8251815260208301516020820152604083015182811115615a4f57600080fd5b615a5b87828601615500565b604083015250606083015182811115615a7357600080fd5b615a7f87828601615500565b60608301525060808301519250615a9583614db5565b6080810192909252509392505050565b8082028115828204841417613982576139826153a6565b634e487b7160e01b600052601260045260246000fd5b600082615ae157615ae1615abc565b500490565b81516001600160401b03811115615aff57615aff6151bf565b615b1381615b0d84546151d5565b84615209565b602080601f831160018114615b485760008415615b305750858301515b600019600386901b1c1916600185901b17855561524f565b600085815260208120601f198616915b82811015615b7757888601518255948401946001909101908401615b58565b5085821015615b955787850151600019600388901b60f8161c191681555b5050505050600190811b01905550565b600060018060a01b03808916835260806020840152615bc860808401888a615124565b8381036040850152615bdb818789615124565b925050808416606084015250979650505050505050565b81810381811115613982576139826153a6565b86815285602082015284604082015260018060a01b038416606082015282608082015260c060a0820152600061518360c0830184614d11565b6000602080835260008454615c52816151d5565b80848701526040600180841660008114615c735760018114615c8d57615cbb565b60ff1985168984015283151560051b890183019550615cbb565b896000528660002060005b85811015615cb35781548b8201860152908301908801615c98565b8a0184019650505b509398975050505050505050565b6000610100808385031215615cdd57600080fd5b604051908101906001600160401b0382118183101715615cff57615cff6151bf565b8160405283519150615d1082615010565b8181526020840151602082015260408401516040820152615d33606085016154d2565b6060820152615d44608085016154d2565b6080820152615d5560a085016154d2565b60a082015260c084015160c0820152615d7060e085016154d2565b60e0820152949350505050565b600160fd1b8152836001820152607560f81b602182015260ff60f81b8360f81b16602282015260008251615db8816023850160208701614ced565b602b60fa1b60239390910192830152506024019392505050565b604081526000615de56040830184614d11565b828103602084015260078152661b585a5b9b995d60ca1b60208201526040810191505092915050565b600082615e1d57615e1d615abc565b500690565b600060208284031215615e3457600080fd5b8151614af481614db556fe9b779b17422d0df92223018b32b4d1fa46e071723d6817e2486d003becc55f00a26469706673582212201311bd54b39afe702bb83a5a2840b820290b6187a5b7ed0d2333f20974efa9c164736f6c63430008140033",
  "linkReferences": {},
  "deployedLinkReferences": {}
}