{
  "_format": "hh-sol-artifact-1",
  "contractName": "TransactionManager",
  "sourceName": "contracts/core/TransactionManager.sol",
  "abi": [
    {
      "inputs": [],
      "stateMutability": "nonpayable",
      "type": "constructor"
    },
    {
      "inputs": [],
      "name": "InvalidInitialization",
      "type": "error"
    },
    {
      "inputs": [],
      "name": "NotInitializing",
      "type": "error"
    },
    {
      "inputs": [
        {
          "internalType": "address",
          "name": "owner",
          "type": "address"
        }
      ],
      "name": "OwnableInvalidOwner",
      "type": "error"
    },
    {
      "inputs": [
        {
          "internalType": "address",
          "name": "account",
          "type": "address"
        }
      ],
      "name": "OwnableUnauthorizedAccount",
      "type": "error"
    },
    {
      "inputs": [],
      "name": "ReentrancyGuardReentrantCall",
      "type": "error"
    },
    {
      "anonymous": false,
      "inputs": [
        {
          "indexed": true,
          "internalType": "bytes32",
          "name": "txId",
          "type": "bytes32"
        },
        {
          "indexed": true,
          "internalType": "address",
          "name": "dapp",
          "type": "address"
        },
        {
          "indexed": false,
          "internalType": "address",
          "name": "arbitrator",
          "type": "address"
        },
        {
          "indexed": false,
          "internalType": "bytes",
          "name": "rawData",
          "type": "bytes"
        },
        {
          "indexed": false,
          "internalType": "bytes",
          "name": "script",
          "type": "bytes"
        },
        {
          "indexed": false,
          "internalType": "address",
          "name": "timeoutCompensationReceiver",
          "type": "address"
        }
      ],
      "name": "ArbitrationRequested",
      "type": "event"
    },
    {
      "anonymous": false,
      "inputs": [
        {
          "indexed": true,
          "internalType": "bytes32",
          "name": "txId",
          "type": "bytes32"
        },
        {
          "indexed": true,
          "internalType": "address",
          "name": "dapp",
          "type": "address"
        },
        {
          "indexed": true,
          "internalType": "address",
          "name": "arbitrator",
          "type": "address"
        },
        {
          "indexed": false,
          "internalType": "bytes",
          "name": "btcTxSignature",
          "type": "bytes"
        }
      ],
      "name": "ArbitrationSubmitted",
      "type": "event"
    },
    {
      "anonymous": false,
      "inputs": [
        {
          "indexed": true,
          "internalType": "address",
          "name": "newParser",
          "type": "address"
        }
      ],
      "name": "BTCAddressParserChanged",
      "type": "event"
    },
    {
      "anonymous": false,
      "inputs": [
        {
          "indexed": true,
          "internalType": "address",
          "name": "newBtcBlockHeaders",
          "type": "address"
        }
      ],
      "name": "BtcBlockHeadersChanged",
      "type": "event"
    },
    {
      "anonymous": false,
      "inputs": [
        {
          "indexed": true,
          "internalType": "address",
          "name": "newBtcUtils",
          "type": "address"
        }
      ],
      "name": "BtcUtilsChanged",
      "type": "event"
    },
    {
      "anonymous": false,
      "inputs": [
        {
          "indexed": true,
          "internalType": "bytes32",
          "name": "id",
          "type": "bytes32"
        },
        {
          "indexed": true,
          "internalType": "bytes32",
          "name": "txHash",
          "type": "bytes32"
        },
        {
          "indexed": false,
          "internalType": "uint256",
          "name": "blockHeight",
          "type": "uint256"
        }
      ],
      "name": "DAppFeeTransactionSet",
      "type": "event"
    },
    {
      "anonymous": false,
      "inputs": [
        {
          "indexed": true,
          "internalType": "bytes32",
          "name": "txId",
          "type": "bytes32"
        },
        {
          "indexed": true,
          "internalType": "address",
          "name": "revenueETHAddress",
          "type": "address"
        },
        {
          "indexed": false,
          "internalType": "uint256",
          "name": "arbitratorFee",
          "type": "uint256"
        },
        {
          "indexed": false,
          "internalType": "uint256",
          "name": "systemFee",
          "type": "uint256"
        },
        {
          "indexed": false,
          "internalType": "uint256",
          "name": "refundedFee",
          "type": "uint256"
        }
      ],
      "name": "DepositFeeTransfer",
      "type": "event"
    },
    {
      "anonymous": false,
      "inputs": [
        {
          "indexed": false,
          "internalType": "uint64",
          "name": "version",
          "type": "uint64"
        }
      ],
      "name": "Initialized",
      "type": "event"
    },
    {
      "anonymous": false,
      "inputs": [
        {
          "indexed": true,
          "internalType": "address",
          "name": "previousOwner",
          "type": "address"
        },
        {
          "indexed": true,
          "internalType": "address",
          "name": "newOwner",
          "type": "address"
        }
      ],
      "name": "OwnershipTransferred",
      "type": "event"
    },
    {
      "anonymous": false,
      "inputs": [
        {
          "indexed": true,
          "internalType": "address",
          "name": "arbitratorManager",
          "type": "address"
        }
      ],
      "name": "SetArbitratorManager",
      "type": "event"
    },
    {
      "anonymous": false,
      "inputs": [
        {
          "indexed": true,
          "internalType": "bytes32",
          "name": "txId",
          "type": "bytes32"
        },
        {
          "indexed": true,
          "internalType": "address",
          "name": "dapp",
          "type": "address"
        },
        {
          "indexed": true,
          "internalType": "address",
          "name": "arbitrator",
          "type": "address"
        },
        {
          "indexed": false,
          "internalType": "uint256",
          "name": "timestamp",
          "type": "uint256"
        }
      ],
      "name": "TransactionClosedUnpaid",
      "type": "event"
    },
    {
      "anonymous": false,
      "inputs": [
        {
          "indexed": true,
          "internalType": "bytes32",
          "name": "txId",
          "type": "bytes32"
        },
        {
          "indexed": true,
          "internalType": "address",
          "name": "dapp",
          "type": "address"
        }
      ],
      "name": "TransactionCompleted",
      "type": "event"
    },
    {
      "anonymous": false,
      "inputs": [
        {
          "indexed": true,
          "internalType": "bytes32",
          "name": "id",
          "type": "bytes32"
        },
        {
          "indexed": true,
          "internalType": "address",
          "name": "dapp",
          "type": "address"
        },
        {
          "indexed": true,
          "internalType": "address",
          "name": "arbitrator",
          "type": "address"
        },
        {
          "indexed": false,
          "internalType": "uint256",
          "name": "deadline",
          "type": "uint256"
        },
        {
          "indexed": false,
          "internalType": "uint256",
          "name": "depositFee",
          "type": "uint256"
        },
        {
          "indexed": false,
          "internalType": "address",
          "name": "compensationReceiver",
          "type": "address"
        },
        {
          "indexed": false,
          "internalType": "uint256",
          "name": "timestamp",
          "type": "uint256"
        }
      ],
      "name": "TransactionRegistered",
      "type": "event"
    },
    {
      "anonymous": false,
      "inputs": [
        {
          "indexed": true,
          "internalType": "bytes32",
          "name": "txId",
          "type": "bytes32"
        },
        {
          "indexed": true,
          "internalType": "address",
          "name": "dapp",
          "type": "address"
        }
      ],
      "name": "UTXOsUploaded",
      "type": "event"
    },
    {
      "inputs": [],
      "name": "arbitratorManager",
      "outputs": [
        {
          "internalType": "contract IArbitratorManager",
          "name": "",
          "type": "address"
        }
      ],
      "stateMutability": "view",
      "type": "function"
    },
    {
      "inputs": [],
      "name": "assetOracle",
      "outputs": [
        {
          "internalType": "contract IAssetOracle",
          "name": "",
          "type": "address"
        }
      ],
      "stateMutability": "view",
      "type": "function"
    },
    {
      "inputs": [],
      "name": "btcAddressParser",
      "outputs": [
        {
          "internalType": "contract IBtcAddress",
          "name": "",
          "type": "address"
        }
      ],
      "stateMutability": "view",
      "type": "function"
    },
    {
      "inputs": [],
      "name": "btcBlockHeaders",
      "outputs": [
        {
          "internalType": "contract IBtcBlockHeaders",
          "name": "",
          "type": "address"
        }
      ],
      "stateMutability": "view",
      "type": "function"
    },
    {
      "inputs": [],
      "name": "btcUtils",
      "outputs": [
        {
          "internalType": "contract IBTCUtils",
          "name": "",
          "type": "address"
        }
      ],
      "stateMutability": "view",
      "type": "function"
    },
    {
      "inputs": [
        {
          "internalType": "bytes32",
          "name": "id",
          "type": "bytes32"
        }
      ],
      "name": "closeUnpaidTransaction",
      "outputs": [],
      "stateMutability": "nonpayable",
      "type": "function"
    },
    {
      "inputs": [],
      "name": "compensationManager",
      "outputs": [
        {
          "internalType": "address",
          "name": "",
          "type": "address"
        }
      ],
      "stateMutability": "view",
      "type": "function"
    },
    {
      "inputs": [
        {
          "internalType": "bytes32",
          "name": "id",
          "type": "bytes32"
        }
      ],
      "name": "completeTransaction",
      "outputs": [],
      "stateMutability": "nonpayable",
      "type": "function"
    },
    {
      "inputs": [
        {
          "internalType": "bytes32",
          "name": "id",
          "type": "bytes32"
        },
        {
          "internalType": "address",
          "name": "receivedCompensationAddress",
          "type": "address"
        }
      ],
      "name": "completeTransactionWithSlash",
      "outputs": [],
      "stateMutability": "nonpayable",
      "type": "function"
    },
    {
      "inputs": [],
      "name": "configManager",
      "outputs": [
        {
          "internalType": "contract IConfigManager",
          "name": "",
          "type": "address"
        }
      ],
      "stateMutability": "view",
      "type": "function"
    },
    {
      "inputs": [],
      "name": "dappRegistry",
      "outputs": [
        {
          "internalType": "contract IDAppRegistry",
          "name": "",
          "type": "address"
        }
      ],
      "stateMutability": "view",
      "type": "function"
    },
    {
      "inputs": [
        {
          "internalType": "bytes32",
          "name": "id",
          "type": "bytes32"
        }
      ],
      "name": "getTransactionBtcRawDataById",
      "outputs": [
        {
          "internalType": "bytes",
          "name": "",
          "type": "bytes"
        }
      ],
      "stateMutability": "view",
      "type": "function"
    },
    {
      "inputs": [
        {
          "internalType": "bytes32",
          "name": "id",
          "type": "bytes32"
        }
      ],
      "name": "getTransactionDataById",
      "outputs": [
        {
          "components": [
            {
              "internalType": "uint256",
              "name": "startTime",
              "type": "uint256"
            },
            {
              "internalType": "uint256",
              "name": "deadline",
              "type": "uint256"
            },
            {
              "internalType": "uint256",
              "name": "requestArbitrationTime",
              "type": "uint256"
            },
            {
              "internalType": "uint256",
              "name": "depositedFee",
              "type": "uint256"
            },
            {
              "internalType": "enum DataTypes.TransactionStatus",
              "name": "status",
              "type": "uint8"
            },
            {
              "internalType": "uint256",
              "name": "arbitratorBtcFee",
              "type": "uint256"
            },
            {
              "internalType": "string",
              "name": "btcFeeAddress",
              "type": "string"
            },
            {
              "internalType": "bytes32",
              "name": "btcFeeTxHash",
              "type": "bytes32"
            }
          ],
          "internalType": "struct DataTypes.TransactionData",
          "name": "",
          "type": "tuple"
        }
      ],
      "stateMutability": "view",
      "type": "function"
    },
    {
      "inputs": [
        {
          "internalType": "bytes32",
          "name": "txHash",
          "type": "bytes32"
        }
      ],
      "name": "getTransactionDataByTxHash",
      "outputs": [
        {
          "components": [
            {
              "internalType": "uint256",
              "name": "startTime",
              "type": "uint256"
            },
            {
              "internalType": "uint256",
              "name": "deadline",
              "type": "uint256"
            },
            {
              "internalType": "uint256",
              "name": "requestArbitrationTime",
              "type": "uint256"
            },
            {
              "internalType": "uint256",
              "name": "depositedFee",
              "type": "uint256"
            },
            {
              "internalType": "enum DataTypes.TransactionStatus",
              "name": "status",
              "type": "uint8"
            },
            {
              "internalType": "uint256",
              "name": "arbitratorBtcFee",
              "type": "uint256"
            },
            {
              "internalType": "string",
              "name": "btcFeeAddress",
              "type": "string"
            },
            {
              "internalType": "bytes32",
              "name": "btcFeeTxHash",
              "type": "bytes32"
            }
          ],
          "internalType": "struct DataTypes.TransactionData",
          "name": "",
          "type": "tuple"
        }
      ],
      "stateMutability": "view",
      "type": "function"
    },
    {
      "inputs": [
        {
          "internalType": "bytes32",
          "name": "id",
          "type": "bytes32"
        }
      ],
      "name": "getTransactionPartiesById",
      "outputs": [
        {
          "components": [
            {
              "internalType": "address",
              "name": "dapp",
              "type": "address"
            },
            {
              "internalType": "address",
              "name": "arbitrator",
              "type": "address"
            },
            {
              "internalType": "address",
              "name": "compensationReceiver",
              "type": "address"
            },
            {
              "internalType": "address",
              "name": "timeoutCompensationReceiver",
              "type": "address"
            },
            {
              "internalType": "address",
              "name": "refundAddress",
              "type": "address"
            },
            {
              "internalType": "address",
              "name": "depositedFeeRefundAddress",
              "type": "address"
            }
          ],
          "internalType": "struct DataTypes.TransactionParties",
          "name": "",
          "type": "tuple"
        }
      ],
      "stateMutability": "view",
      "type": "function"
    },
    {
      "inputs": [
        {
          "internalType": "bytes32",
          "name": "txHash",
          "type": "bytes32"
        }
      ],
      "name": "getTransactionPartiesByTxHash",
      "outputs": [
        {
          "components": [
            {
              "internalType": "address",
              "name": "dapp",
              "type": "address"
            },
            {
              "internalType": "address",
              "name": "arbitrator",
              "type": "address"
            },
            {
              "internalType": "address",
              "name": "compensationReceiver",
              "type": "address"
            },
            {
              "internalType": "address",
              "name": "timeoutCompensationReceiver",
              "type": "address"
            },
            {
              "internalType": "address",
              "name": "refundAddress",
              "type": "address"
            },
            {
              "internalType": "address",
              "name": "depositedFeeRefundAddress",
              "type": "address"
            }
          ],
          "internalType": "struct DataTypes.TransactionParties",
          "name": "",
          "type": "tuple"
        }
      ],
      "stateMutability": "view",
      "type": "function"
    },
    {
      "inputs": [
        {
          "internalType": "bytes32",
          "name": "id",
          "type": "bytes32"
        }
      ],
      "name": "getTransactionSignHashById",
      "outputs": [
        {
          "internalType": "bytes32",
          "name": "",
          "type": "bytes32"
        }
      ],
      "stateMutability": "view",
      "type": "function"
    },
    {
      "inputs": [
        {
          "internalType": "bytes32",
          "name": "id",
          "type": "bytes32"
        }
      ],
      "name": "getTransactionSignatureById",
      "outputs": [
        {
          "internalType": "bytes",
          "name": "",
          "type": "bytes"
        }
      ],
      "stateMutability": "view",
      "type": "function"
    },
    {
      "inputs": [
        {
          "internalType": "bytes32",
          "name": "txHash",
          "type": "bytes32"
        }
      ],
      "name": "getTransactionSignatureByTxHash",
      "outputs": [
        {
          "internalType": "bytes",
          "name": "",
          "type": "bytes"
        }
      ],
      "stateMutability": "view",
      "type": "function"
    },
    {
      "inputs": [
        {
          "internalType": "bytes32",
          "name": "id",
          "type": "bytes32"
        }
      ],
      "name": "getTransactionStatus",
      "outputs": [
        {
          "internalType": "enum DataTypes.TransactionStatus",
          "name": "status",
          "type": "uint8"
        }
      ],
      "stateMutability": "view",
      "type": "function"
    },
    {
      "inputs": [
        {
          "internalType": "bytes32",
          "name": "id",
          "type": "bytes32"
        }
      ],
      "name": "getTransactionUTXOsById",
      "outputs": [
        {
          "components": [
            {
              "internalType": "bytes32",
              "name": "txHash",
              "type": "bytes32"
            },
            {
              "internalType": "uint32",
              "name": "index",
              "type": "uint32"
            },
            {
              "internalType": "bytes",
              "name": "script",
              "type": "bytes"
            },
            {
              "internalType": "uint256",
              "name": "amount",
              "type": "uint256"
            }
          ],
          "internalType": "struct DataTypes.UTXO[]",
          "name": "",
          "type": "tuple[]"
        }
      ],
      "stateMutability": "view",
      "type": "function"
    },
    {
      "inputs": [
        {
          "internalType": "address",
          "name": "_arbitratorManager",
          "type": "address"
        },
        {
          "internalType": "address",
          "name": "_dappRegistry",
          "type": "address"
        },
        {
          "internalType": "address",
          "name": "_configManager",
          "type": "address"
        },
        {
          "internalType": "address",
          "name": "_compensationManager",
          "type": "address"
        },
        {
          "internalType": "address",
          "name": "_btcUtils",
          "type": "address"
        },
        {
          "internalType": "address",
          "name": "_btcAddressParser",
          "type": "address"
        }
      ],
      "name": "initialize",
      "outputs": [],
      "stateMutability": "nonpayable",
      "type": "function"
    },
    {
      "inputs": [
        {
          "internalType": "bytes32",
          "name": "id",
          "type": "bytes32"
        }
      ],
      "name": "isAbleCompletedTransaction",
      "outputs": [
        {
          "internalType": "bool",
          "name": "",
          "type": "bool"
        }
      ],
      "stateMutability": "view",
      "type": "function"
    },
    {
      "inputs": [],
      "name": "owner",
      "outputs": [
        {
          "internalType": "address",
          "name": "",
          "type": "address"
        }
      ],
      "stateMutability": "view",
      "type": "function"
    },
    {
      "inputs": [
        {
          "components": [
            {
              "internalType": "address",
              "name": "arbitrator",
              "type": "address"
            },
            {
              "internalType": "uint256",
              "name": "deadline",
              "type": "uint256"
            },
            {
              "internalType": "address",
              "name": "compensationReceiver",
              "type": "address"
            },
            {
              "internalType": "address",
              "name": "refundAddress",
              "type": "address"
            }
          ],
          "internalType": "struct ITransactionManager.RegisterData",
          "name": "data",
          "type": "tuple"
        }
      ],
      "name": "registerTransaction",
      "outputs": [
        {
          "internalType": "bytes32",
          "name": "",
          "type": "bytes32"
        },
        {
          "internalType": "string",
          "name": "",
          "type": "string"
        }
      ],
      "stateMutability": "payable",
      "type": "function"
    },
    {
      "inputs": [],
      "name": "renounceOwnership",
      "outputs": [],
      "stateMutability": "nonpayable",
      "type": "function"
    },
    {
      "inputs": [
        {
          "components": [
            {
              "internalType": "bytes32",
              "name": "id",
              "type": "bytes32"
            },
            {
              "internalType": "bytes",
              "name": "rawData",
              "type": "bytes"
            },
            {
              "internalType": "enum DataTypes.SignDataType",
              "name": "signDataType",
              "type": "uint8"
            },
            {
              "internalType": "uint8",
              "name": "signHashFlag",
              "type": "uint8"
            },
            {
              "internalType": "bytes",
              "name": "script",
              "type": "bytes"
            },
            {
              "internalType": "address",
              "name": "timeoutCompensationReceiver",
              "type": "address"
            }
          ],
          "internalType": "struct DataTypes.ArbitrationData",
          "name": "data",
          "type": "tuple"
        }
      ],
      "name": "requestArbitration",
      "outputs": [],
      "stateMutability": "nonpayable",
      "type": "function"
    },
    {
      "inputs": [
        {
          "internalType": "address",
          "name": "_arbitratorManager",
          "type": "address"
        }
      ],
      "name": "setArbitratorManager",
      "outputs": [],
      "stateMutability": "nonpayable",
      "type": "function"
    },
    {
      "inputs": [
        {
          "internalType": "address",
          "name": "_btcAddressParser",
          "type": "address"
        }
      ],
      "name": "setBTCAddressParser",
      "outputs": [],
      "stateMutability": "nonpayable",
      "type": "function"
    },
    {
      "inputs": [
        {
          "internalType": "address",
          "name": "_btcBlockHeaders",
          "type": "address"
        }
      ],
      "name": "setBtcBlockHeaders",
      "outputs": [],
      "stateMutability": "nonpayable",
      "type": "function"
    },
    {
      "inputs": [
        {
          "internalType": "address",
          "name": "_btcUtils",
          "type": "address"
        }
      ],
      "name": "setBtcUtils",
      "outputs": [],
      "stateMutability": "nonpayable",
      "type": "function"
    },
    {
      "inputs": [
        {
          "internalType": "bytes32",
          "name": "id",
          "type": "bytes32"
        },
        {
          "internalType": "bytes",
          "name": "rawData",
          "type": "bytes"
        },
        {
          "internalType": "bytes32[]",
          "name": "merkleProof",
          "type": "bytes32[]"
        },
        {
          "internalType": "uint256",
          "name": "index",
          "type": "uint256"
        },
        {
          "internalType": "uint32",
          "name": "blockHeight",
          "type": "uint32"
        }
      ],
      "name": "setDAppBtcFeeTransaction",
      "outputs": [],
      "stateMutability": "nonpayable",
      "type": "function"
    },
    {
      "inputs": [
        {
          "internalType": "bytes32",
          "name": "id",
          "type": "bytes32"
        },
        {
          "internalType": "bytes",
          "name": "btcTxSignature",
          "type": "bytes"
        }
      ],
      "name": "submitArbitration",
      "outputs": [],
      "stateMutability": "nonpayable",
      "type": "function"
    },
    {
      "inputs": [
        {
          "internalType": "bytes32",
          "name": "",
          "type": "bytes32"
        }
      ],
      "name": "transactionSignData",
      "outputs": [
        {
          "internalType": "bytes",
          "name": "",
          "type": "bytes"
        }
      ],
      "stateMutability": "view",
      "type": "function"
    },
    {
      "inputs": [
        {
          "internalType": "bytes32",
          "name": "id",
          "type": "bytes32"
        }
      ],
      "name": "transferArbitrationFee",
      "outputs": [
        {
          "internalType": "uint256",
          "name": "arbitratorFee",
          "type": "uint256"
        },
        {
          "internalType": "uint256",
          "name": "systemFee",
          "type": "uint256"
        }
      ],
      "stateMutability": "nonpayable",
      "type": "function"
    },
    {
      "inputs": [
        {
          "internalType": "address",
          "name": "newOwner",
          "type": "address"
        }
      ],
      "name": "transferOwnership",
      "outputs": [],
      "stateMutability": "nonpayable",
      "type": "function"
    },
    {
      "inputs": [
        {
          "internalType": "bytes32",
          "name": "",
          "type": "bytes32"
        }
      ],
      "name": "txHashToId",
      "outputs": [
        {
          "internalType": "bytes32",
          "name": "",
          "type": "bytes32"
        }
      ],
      "stateMutability": "view",
      "type": "function"
    },
    {
      "inputs": [
        {
          "internalType": "bytes32",
          "name": "id",
          "type": "bytes32"
        },
        {
          "components": [
            {
              "internalType": "bytes32",
              "name": "txHash",
              "type": "bytes32"
            },
            {
              "internalType": "uint32",
              "name": "index",
              "type": "uint32"
            },
            {
              "internalType": "bytes",
              "name": "script",
              "type": "bytes"
            },
            {
              "internalType": "uint256",
              "name": "amount",
              "type": "uint256"
            }
          ],
          "internalType": "struct DataTypes.UTXO[]",
          "name": "utxos",
          "type": "tuple[]"
        }
      ],
      "name": "uploadUTXOs",
      "outputs": [],
      "stateMutability": "nonpayable",
      "type": "function"
    }
  ],
  "bytecode": "0x60806040523480156200001157600080fd5b506200001c62000022565b620000d6565b7ff0c57e16840df040f15088dc2f81fe391c3923bec73e23a9662efc9c229c6a00805468010000000000000000900460ff1615620000735760405163f92ee8a960e01b815260040160405180910390fd5b80546001600160401b0390811614620000d35780546001600160401b0319166001600160401b0390811782556040519081527fc7f505b2f371ae2175ee4913f4499e1f2633a7b5936321eed1cdaeb6115181d29060200160405180910390a15b50565b615bb380620000e66000396000f3fe6080604052600436106102255760003560e01c80638da5cb5b11610123578063c258d4fc116100ab578063e1d139b21161006f578063e1d139b214610891578063ea97137a146108b1578063eb44c0f2146108d2578063ec9bd0c5146108f2578063f2fde38b1461091257600080fd5b8063c258d4fc146107f1578063ca0ab07514610811578063cc2a9a5b14610831578063d09d03a314610851578063de0ca1661461087157600080fd5b8063a0037eac116100f2578063a0037eac146106a2578063a130312a14610764578063a8a0e88214610784578063ae2db1cc146107a4578063c1ce47d2146107c457600080fd5b80638da5cb5b146104ea578063944074651461052757806397315e44146105545780639dc37d081461058f57600080fd5b80635f8b411d116101b1578063759787c411610175578063759787c41461043d578063814936701461045d57806384b46d6a1461047d57806388727e6b1461049d5780638b0ae217146104ca57600080fd5b80635f8b411d1461039357806363e877b6146103b357806366347a63146103d3578063715018a6146103f35780637577b6df1461040857600080fd5b80632c7e8ca3116101f85780632c7e8ca3146102d65780634308dc8e146102f65780634e4f0ec414610323578063520936b514610343578063537bcc551461037357600080fd5b80630559b8771461022a5780630f6f9a1e146102675780631d4d3a5d1461028957806327226068146102a9575b600080fd5b34801561023657600080fd5b5060045461024a906001600160a01b031681565b6040516001600160a01b0390911681526020015b60405180910390f35b34801561027357600080fd5b50610287610282366004614844565b610932565b005b34801561029557600080fd5b5060105461024a906001600160a01b031681565b3480156102b557600080fd5b506102c96102c436600461488f565b610b2c565b60405161025e9190614930565b3480156102e257600080fd5b506102876102f13660046149bd565b610c65565b34801561030257600080fd5b5061031661031136600461488f565b610cb5565b60405161025e91906149da565b34801561032f57600080fd5b5061028761033e366004614a2e565b610d57565b34801561034f57600080fd5b5061036361035e36600461488f565b61113b565b604051901515815260200161025e565b34801561037f57600080fd5b5061031661038e36600461488f565b61130d565b34801561039f57600080fd5b506102876103ae3660046149bd565b611337565b3480156103bf57600080fd5b5060055461024a906001600160a01b031681565b3480156103df57600080fd5b506102876103ee366004614a6c565b6113c7565b3480156103ff57600080fd5b50610287611d8b565b34801561041457600080fd5b5061042861042336600461488f565b611d9f565b6040805192835260208301919091520161025e565b34801561044957600080fd5b5060005461024a906001600160a01b031681565b34801561046957600080fd5b506102c961047836600461488f565b61207f565b34801561048957600080fd5b5060035461024a906001600160a01b031681565b3480156104a957600080fd5b506104bd6104b836600461488f565b6120f2565b60405161025e9190614aa6565b3480156104d657600080fd5b506102876104e53660046149bd565b61221d565b3480156104f657600080fd5b507f9016d09d72d40fdae2fd8ceac6b6234c7706214fd39c1cd1e609a0528c199300546001600160a01b031661024a565b34801561053357600080fd5b5061054761054236600461488f565b6122ad565b60405161025e9190614b38565b34801561056057600080fd5b5061058161056f36600461488f565b6000908152600c602052604090205490565b60405190815260200161025e565b34801561059b57600080fd5b506106476105aa36600461488f565b6040805160c081018252600080825260208201819052918101829052606081018290526080810182905260a081019190915250600090815260076020908152604091829020825160c08101845281546001600160a01b03908116825260018301548116938201939093526002820154831693810193909352600381015482166060840152600481015482166080840152600501541660a082015290565b60405161025e919081516001600160a01b03908116825260208084015182169083015260408084015182169083015260608084015182169083015260808084015182169083015260a092830151169181019190915260c00190565b3480156106ae57600080fd5b506106476106bd36600461488f565b6040805160c081018252600080825260208201819052918101829052606081018290526080810182905260a0810191909152506000908152600e602090815260408083205483526007825291829020825160c08101845281546001600160a01b03908116825260018301548116938201939093526002820154831693810193909352600381015482166060840152600481015482166080840152600501541660a082015290565b34801561077057600080fd5b5061028761077f36600461488f565b612439565b34801561079057600080fd5b5061031661079f36600461488f565b612586565b3480156107b057600080fd5b506103166107bf36600461488f565b612620565b3480156107d057600080fd5b506105816107df36600461488f565b600e6020526000908152604090205481565b3480156107fd57600080fd5b5061028761080c36600461488f565b61263d565b34801561081d57600080fd5b5060025461024a906001600160a01b031681565b34801561083d57600080fd5b5061028761084c366004614b46565b61295f565b34801561085d57600080fd5b5061028761086c366004614bc8565b612b76565b34801561087d57600080fd5b5060015461024a906001600160a01b031681565b34801561089d57600080fd5b5060115461024a906001600160a01b031681565b6108c46108bf366004614bf8565b612da4565b60405161025e929190614c0a565b3480156108de57600080fd5b506102876108ed3660046149bd565b6130eb565b3480156108fe57600080fd5b5061028761090d366004614c35565b61317b565b34801561091e57600080fd5b5061028761092d3660046149bd565b613556565b60018114610973576040805180820182526002815261055360f41b6020820152905162461bcd60e51b815261096a91906004016149da565b60405180910390fd5b600083815260076020908152604080832060069283905292206004015460ff16818111156109a3576109a36148a8565b1415806109d55750600084815260066020819052604082206004015460ff16908111156109d2576109d26148a8565b14155b15610a0a5760408051808201825260028152612a1960f11b6020820152905162461bcd60e51b815261096a91906004016149da565b80546001600160a01b03163314610a4b57604080518082018252600281526104e360f41b6020820152905162461bcd60e51b815261096a91906004016149da565b6000848152600b60205260409020805415610a905760408051808201825260028152612a9960f11b6020820152905162461bcd60e51b815261096a91906004016149da565b60005b83811015610af75781858583818110610aae57610aae614ccb565b9050602002810190610ac09190614ce1565b815460018101835560009283526020909220909160040201610ae28282614ea0565b50508080610aef90614f44565b915050610a93565b50604051339086907fbe870ee46d1946169135a006725f4beb7bf05701d38e45b8d0e55892fabff1d990600090a35050505050565b610b346147aa565b6000828152600e602090815260408083205483526006808352928190208151610100810183528154815260018201549381019390935260028101549183019190915260038101546060830152600481015491929091608084019160ff90911690811115610ba357610ba36148a8565b6006811115610bb457610bb46148a8565b815260200160058201548152602001600682018054610bd290614d5d565b80601f0160208091040260200160405190810160405280929190818152602001828054610bfe90614d5d565b8015610c4b5780601f10610c2057610100808354040283529160200191610c4b565b820191906000526020600020905b815481529060010190602001808311610c2e57829003601f168201915b505050505081526020016007820154815250509050919050565b610c6d613591565b600080546001600160a01b0319166001600160a01b038316908117825560405190917fa323f9f93bbee02edb5e1034969f6ef41fb674527d2ea7e9271ad206435b58f491a250565b6000818152600960205260409020805460609190610cd290614d5d565b80601f0160208091040260200160405190810160405280929190818152602001828054610cfe90614d5d565b8015610d4b5780601f10610d2057610100808354040283529160200191610d4b565b820191906000526020600020905b815481529060010190602001808311610d2e57829003601f168201915b50505050509050919050565b600083815260066020908152604080832060079092529091206002600483015460ff166006811115610d8b57610d8b6148a8565b14610dc05760408051808201825260028152612a1960f11b6020820152905162461bcd60e51b815261096a91906004016149da565b60408051610100810182528354815260018401546020820152600284015491810191909152600383015460608201526004830154610ed491908490608083019060ff166006811115610e1457610e146148a8565b6006811115610e2557610e256148a8565b815260200160058201548152602001600682018054610e4390614d5d565b80601f0160208091040260200160405190810160405280929190818152602001828054610e6f90614d5d565b8015610ebc5780601f10610e9157610100808354040283529160200191610ebc565b820191906000526020600020905b815481529060010190602001808311610e9f57829003601f168201915b505050505081526020016007820154815250506135ec565b15610f09576040805180820182526002815261543960f01b6020820152905162461bcd60e51b815261096a91906004016149da565b6000546001820154604051630e70978b60e21b81526001600160a01b0391821660048201523360248201529116906339c25e2c90604401602060405180830381865afa158015610f5d573d6000803e3d6000fd5b505050506040513d601f19601f82011682018060405250810190610f819190614f72565b610fb557604080518082018252600281526104e360f41b6020820152905162461bcd60e51b815261096a91906004016149da565b600354604051630263f12b60e61b81526001600160a01b03909116906398fc4ac090610fe79087908790600401614fb6565b602060405180830381865afa158015611004573d6000803e3d6000fd5b505050506040513d601f19601f820116820180604052508101906110289190614f72565b61105c576040805180820182526002815261553960f01b6020820152905162461bcd60e51b815261096a91906004016149da565b60048201805460ff191660051790556000858152600960205260409020611084848683614de0565b50600054600182015460405163069fa0a760e51b81526001600160a01b03918216600482015291169063d3f414e090602401600060405180830381600087803b1580156110d057600080fd5b505af11580156110e4573d6000803e3d6000fd5b505082546040513393506001600160a01b03909116915087907fc3087094b1ca79d1b0196cfe915c3153df5266eba37502790ddfc1e3532d35599061112c9089908990614fb6565b60405180910390a45050505050565b6000818152600660208181526040808420815161010081018352815481526001820154938101939093526002810154918301919091526003810154606083015260048101548493608084019160ff169081111561119a5761119a6148a8565b60068111156111ab576111ab6148a8565b8152602001600582015481526020016006820180546111c990614d5d565b80601f01602080910402602001604051908101604052809291908181526020018280546111f590614d5d565b80156112425780601f1061121757610100808354040283529160200191611242565b820191906000526020600020905b81548152906001019060200180831161122557829003601f168201915b5050509183525050600791909101546020909101529050600681608001516006811115611271576112716148a8565b0361127f5750600192915050565b600081608001516006811115611297576112976148a8565b036112a55750600192915050565b6002816080015160068111156112bd576112bd6148a8565b036112de576112cb816135ec565b156112d95750600192915050565b611304565b6005816080015160068111156112f6576112f66148a8565b036113045750600192915050565b50600092915050565b6000818152600e6020908152604080832054835260099091529020805460609190610cd290614d5d565b61133f613591565b6001600160a01b03811661137d57604080518082018252600281526105a360f41b6020820152905162461bcd60e51b815261096a91906004016149da565b601180546001600160a01b0319166001600160a01b0383169081179091556040517f8734e6b78958753959661626b83b989d8602b1a72fda0e0717390776175c220290600090a250565b6113cf61368b565b60006113e160c0830160a084016149bd565b6001600160a01b03160361141f57604080518082018252600281526105a360f41b6020820152905162461bcd60e51b815261096a91906004016149da565b8035600090815260066020526040812090600482015460ff166006811115611449576114496148a8565b1461147e5760408051808201825260028152612a1960f11b6020820152905162461bcd60e51b815261096a91906004016149da565b8060010154600260009054906101000a90046001600160a01b03166001600160a01b0316632b6f600d6040518163ffffffff1660e01b8152600401602060405180830381865afa1580156114d6573d6000803e3d6000fd5b505050506040513d601f19601f820116820180604052508101906114fa9190614fca565b6115049042614fe3565b111561153a576040805180820182526002815261553760f01b6020820152905162461bcd60e51b815261096a91906004016149da565b600161154c6060840160408501614ff6565b600281111561155d5761155d6148a8565b146115925760408051808201825260028152610aa760f31b6020820152905162461bcd60e51b815261096a91906004016149da565b8135600090815260076020526040902080546001600160a01b031633146115e357604080518082018252600281526104e360f41b6020820152905162461bcd60e51b815261096a91906004016149da565b82356000908152600b60205260408120805490910361162c576040805180820182526002815261553360f01b6020820152905162461bcd60e51b815261096a91906004016149da565b6003546000906001600160a01b031663f64af3d361164d6020880188614d01565b6040518363ffffffff1660e01b815260040161166a929190614fb6565b600060405180830381865afa158015611687573d6000803e3d6000fd5b505050506040513d6000823e601f3d908101601f191682016040526116af919081019061523c565b8254602082015151919250146116ef576040805180820182526002815261553160f01b6020820152905162461bcd60e51b815261096a91906004016149da565b60005b8160200151518110156117ef5782818154811061171157611711614ccb565b9060005260206000209060040201600001548260200151828151811061173957611739614ccb565b6020026020010151600001511415806117a8575082818154811061175f5761175f614ccb565b60009182526020918290206001600490920201015490830151805163ffffffff909216918390811061179357611793614ccb565b60200260200101516020015163ffffffff1614155b156117dd576040805180820182526002815261553160f01b6020820152905162461bcd60e51b815261096a91906004016149da565b806117e781614f44565b9150506116f2565b5060008260008154811061180557611805614ccb565b600091825260208220600360049092020181015490549092506001600160a01b031663aca6fee8848361183b60808c018c614d01565b878d606001602081019061184f91906153d6565b6040518763ffffffff1660e01b81526004016118709695949392919061546b565b600060405180830381865afa15801561188d573d6000803e3d6000fd5b505050506040513d6000823e601f3d908101601f191682016040526118b591908101906155a8565b90506000600280836040516118ca91906155dc565b602060405180830381855afa1580156118e7573d6000803e3d6000fd5b5050506040513d601f19601f8201168201806040525081019061190a9190614fca565b60405160200161191c91815260200190565b60408051601f1981840301815290829052611936916155dc565b602060405180830381855afa158015611953573d6000803e3d6000fd5b5050506040513d601f19601f820116820180604052508101906119769190614fca565b6000805460018901546040516326415b0f60e21b81526001600160a01b03918216600482015293945091928392909116906399056c3c90602401600060405180830381865afa1580156119cd573d6000803e3d6000fd5b505050506040513d6000823e601f3d908101601f191682016040526119f59190810190615654565b6101a00151905060005b866040015151811015611bcc57600554604051632e235f3960e01b81526000916001600160a01b031690632e235f3990611a3d9086906004016149da565b600060405180830381865afa158015611a5a573d6000803e3d6000fd5b505050506040513d6000823e601f3d908101601f19168201604052611a8291908101906155a8565b9050808051906020012088604001518381518110611aa257611aa2614ccb565b602002602001015160200151805190602001201493508315611bb9576000612710600260009054906101000a90046001600160a01b03166001600160a01b03166355f50acc6040518163ffffffff1660e01b8152600401602060405180830381865afa158015611b16573d6000803e3d6000fd5b505050506040513d601f19601f82011682018060405250810190611b3a9190614fca565b611b44908a6157fc565b611b4e9190615829565b90508089604001518481518110611b6757611b67614ccb565b6020026020010151600001516001600160401b03161015611bb2576040805180820182526002815261493560f01b6020820152905162461bcd60e51b815261096a91906004016149da565b5050611bcc565b5080611bc481614f44565b9150506119ff565b5081611c02576040805180820182526002815261493360f01b6020820152905162461bcd60e51b815261096a91906004016149da565b611c1260c08b0160a08c016149bd565b6003890180546001600160a01b0319166001600160a01b03929092169190911790554260028a81019190915560048a01805460ff1916600183021790555089356000908152600c60209081526040909120849055611c72908b018b614d01565b8b35600090815260086020526040902091611c8e919083614de0565b50611c9c60808b018b614d01565b8b356000908152600a6020526040902091611cb8919083614de0565b506000838152600e602090815260408083208d359055600d9091529020611cdf858261583d565b50875460018901546001600160a01b03918216918c35917f81c89bbce5115bf315ea29f7001ebabb88f6d3e4d76132bf792f2085799ed0e49116611d2660208f018f614d01565b8f8060800190611d369190614d01565b8f60030160009054906101000a90046001600160a01b0316604051611d60969594939291906158fc565b60405180910390a3505050505050505050611d886001600080516020615b5e83398151915255565b50565b611d93613591565b611d9d60006136d7565b565b60045460009081906001600160a01b03163314611de65760408051808201825260028152614e3760f01b6020820152905162461bcd60e51b815261096a91906004016149da565b6000838152600760209081526040808320815160c08101835281546001600160a01b0390811682526001808401548216838701526002808501548316848701526003808601548416606080870191909152600480880154861660808089019190915260059098015490951660a08701528c8a526006808a52888b20895161010081018b5281548152958101549a86019a909a52928901549784019790975287015495820195909552908501549195949093909284019160ff1690811115611eaf57611eaf6148a8565b6006811115611ec057611ec06148a8565b815260200160058201548152602001600682018054611ede90614d5d565b80601f0160208091040260200160405190810160405280929190818152602001828054611f0a90614d5d565b8015611f575780601f10611f2c57610100808354040283529160200191611f57565b820191906000526020600020905b815481529060010190602001808311611f3a57829003601f168201915b5050509183525050600791909101546020909101529050600081608001516006811115611f8657611f866148a8565b148015611f965750806020015142115b806120305750600581608001516006811115611fb457611fb46148a8565b14801561203057506000546020830151604051632911125160e01b81526001600160a01b039182166004820152911690632911125190602401602060405180830381865afa15801561200a573d6000803e3d6000fd5b505050506040513d601f19601f8201168201806040525081019061202e9190614f72565b155b1561204a5761203f8583613748565b935093505050915091565b60408051808201825260028152612a1960f11b6020820152905162461bcd60e51b815261096a91906004016149da565b915091565b6120876147aa565b6006600083815260200190815260200160002060405180610100016040529081600082015481526020016001820154815260200160028201548152602001600382015481526020016004820160009054906101000a900460ff166006811115610ba357610ba36148a8565b6060600b6000838152602001908152602001600020805480602002602001604051908101604052809291908181526020016000905b82821015612212576000848152602090819020604080516080810182526004860290920180548352600181015463ffffffff16938301939093526002830180549293929184019161217790614d5d565b80601f01602080910402602001604051908101604052809291908181526020018280546121a390614d5d565b80156121f05780601f106121c5576101008083540402835291602001916121f0565b820191906000526020600020905b8154815290600101906020018083116121d357829003601f168201915b5050505050815260200160038201548152505081526020019060010190612127565b505050509050919050565b612225613591565b6001600160a01b03811661226357604080518082018252600281526105a360f41b6020820152905162461bcd60e51b815261096a91906004016149da565b600580546001600160a01b0319166001600160a01b0383169081179091556040517f5d263627c90d0f6c9e5b56ab2a0952bc65431ee3225325ee7be26c5856d1446290600090a250565b6000818152600660208181526040808420815161010081018352815481526001820154938101939093526002810154918301919091526003810154606083015260048101548493608084019160ff169081111561230c5761230c6148a8565b600681111561231d5761231d6148a8565b81526020016005820154815260200160068201805461233b90614d5d565b80601f016020809104026020016040519081016040528092919081815260200182805461236790614d5d565b80156123b45780601f10612389576101008083540402835291602001916123b4565b820191906000526020600020905b81548152906001019060200180831161239757829003601f168201915b50505091835250506007919091015460209091015260808101519250905060008260068111156123e6576123e66148a8565b1480156123f65750428160200151105b1561240057600391505b600281608001516006811115612418576124186148a8565b1480156124295750612429816135ec565b1561243357600391505b50919050565b60008181526007602052604090819020905163520936b560e01b815260048101839052309063520936b590602401602060405180830381865afa158015612484573d6000803e3d6000fd5b505050506040513d601f19601f820116820180604052508101906124a89190614f72565b6124dc5760408051808201825260028152610a8760f31b6020820152905162461bcd60e51b815261096a91906004016149da565b80546001600160a01b0316331461251d57604080518082018252600281526104e360f41b6020820152905162461bcd60e51b815261096a91906004016149da565b6040805160c08101825282546001600160a01b0390811682526001840154811660208301526002840154811692820192909252600383015482166060820152600483015482166080820152600583015490911660a0820152612580908390613748565b50505050565b600d602052600090815260409020805461259f90614d5d565b80601f01602080910402602001604051908101604052809291908181526020018280546125cb90614d5d565b80156126185780601f106125ed57610100808354040283529160200191612618565b820191906000526020600020905b8154815290600101906020018083116125fb57829003601f168201915b505050505081565b6000818152600860205260409020805460609190610cd290614d5d565b600081815260076020908152604091829020825160c08101845281546001600160a01b03908116825260018301548116938201849052600283015481169482019490945260038201548416606082015260048201548416608082015260059091015490921660a083015233146126dd57604080518082018252600281526104e360f41b6020820152905162461bcd60e51b815261096a91906004016149da565b60006006600084815260200190815260200160002060405180610100016040529081600082015481526020016001820154815260200160028201548152602001600382015481526020016004820160009054906101000a900460ff16600681111561274a5761274a6148a8565b600681111561275b5761275b6148a8565b81526020016005820154815260200160068201805461277990614d5d565b80601f01602080910402602001604051908101604052809291908181526020018280546127a590614d5d565b80156127f25780601f106127c7576101008083540402835291602001916127f2565b820191906000526020600020905b8154815290600101906020018083116127d557829003601f168201915b5050505050815260200160078201548152505090508060a00151600003612843576040805180820182526002815261211960f11b6020820152905162461bcd60e51b815261096a91906004016149da565b600254604080516369e6c5a560e01b815290516000926001600160a01b0316916369e6c5a59160048083019260209291908290030181865afa15801561288d573d6000803e3d6000fd5b505050506040513d601f19601f820116820180604052508101906128b19190614fca565b82519091506128c1908290614fe3565b42116128f7576040805180820182526002815261543160f01b6020820152905162461bcd60e51b815261096a91906004016149da565b6129018484613748565b505082602001516001600160a01b031683600001516001600160a01b0316857f539b8179d7bd023ac9f8ab39d08bd72917d41b88f4479eccb11c4c8b8e2931ef4260405161295191815260200190565b60405180910390a450505050565b7ff0c57e16840df040f15088dc2f81fe391c3923bec73e23a9662efc9c229c6a008054600160401b810460ff1615906001600160401b03166000811580156129a45750825b90506000826001600160401b031660011480156129c05750303b155b9050811580156129ce575080155b156129ec5760405163f92ee8a960e01b815260040160405180910390fd5b845467ffffffffffffffff191660011785558315612a1657845460ff60401b1916600160401b1785555b612a1e613826565b612a2733613836565b6001600160a01b038b161580612a4457506001600160a01b038a16155b80612a5657506001600160a01b038916155b80612a6857506001600160a01b038816155b80612a7a57506001600160a01b038716155b80612a8c57506001600160a01b038616155b15612ac157604080518082018252600281526105a360f41b6020820152905162461bcd60e51b815261096a91906004016149da565b600080546001600160a01b03199081166001600160a01b038e8116919091179092556001805482168d84161790556002805482168c84161790556004805482168b84161790556003805482168a8416179055600580549091169188169190911790558315612b6957845460ff60401b19168555604051600181527fc7f505b2f371ae2175ee4913f4499e1f2633a7b5936321eed1cdaeb6115181d29060200160405180910390a15b5050505050505050505050565b6004546001600160a01b03163314612bb85760408051808201825260028152614e3760f01b6020820152905162461bcd60e51b815261096a91906004016149da565b600082815260076020908152604080832060069092529091206001600482015460ff166006811115612bec57612bec6148a8565b03612c215760408051808201825260028152612a1960f11b6020820152905162461bcd60e51b815261096a91906004016149da565b6001600160a01b038316612c5f57604080518082018252600281526105a360f41b6020820152905162461bcd60e51b815261096a91906004016149da565b60048101805460ff1916600117905560038101546040516000916001600160a01b038616918381818185875af1925050503d8060008114612cbc576040519150601f19603f3d011682016040523d82523d6000602084013e612cc1565b606091505b5050905080612cfa576040805180820182526002815261463160f01b6020820152905162461bcd60e51b815261096a91906004016149da565b600054600184015460405163cedb588b60e01b81526001600160a01b0391821660048201526024810188905291169063cedb588b90604401600060405180830381600087803b158015612d4c57600080fd5b505af1158015612d60573d6000803e3d6000fd5b505084546040516001600160a01b0390911692508791507f15d1e788ed875e6f2294a51087aa5cd2e2c10c92e627eb0a6bbbfceceaa01b9890600090a35050505050565b60006060612db061368b565b612db983613847565b6000612dc9426020860135615949565b60008054919250906001600160a01b031663dfcf048d83612ded60208901896149bd565b6040516001600160e01b031960e085901b16815260048101929092526001600160a01b03166024820152604401602060405180830381865afa158015612e37573d6000803e3d6000fd5b505050506040513d601f19601f82011682018060405250810190612e5b9190614fca565b905080341015612e95576040805180820182526002815261543560f01b6020820152905162461bcd60e51b815261096a91906004016149da565b600080546001600160a01b031663b6ca3e0784612eb560208a018a6149bd565b6040516001600160e01b031960e085901b16815260048101929092526001600160a01b03166024820152604401602060405180830381865afa158015612eff573d6000803e3d6000fd5b505050506040513d601f19601f82011682018060405250810190612f239190614fca565b905060004233612f3660208a018a6149bd565b600f8054906000612f4683614f44565b909155506040805160208101959095526bffffffffffffffffffffffff19606094851b8116918601919091529190921b166054830152606882015260880160408051601f1981840301815291905280516020918201206000549092506001600160a01b031690632b2d37da90612fbe908a018a6149bd565b6040516001600160e01b031960e084901b1681526001600160a01b03909116600482015260248101849052604401600060405180830381600087803b15801561300657600080fd5b505af115801561301a573d6000803e3d6000fd5b5050505061302a81883485613bdd565b60006130428261303d60208b018b6149bd565b613ce1565b905061305160208901896149bd565b6001600160a01b0316336001600160a01b0316837f8bb1eee9f94a43b69e0e66712b669ff2f8e04ccc45969cc2f10b7e68b64ba9548b60200135348d604001602081019061309f91906149bd565b6040805193845260208401929092526001600160a01b03169082015242606082015260800160405180910390a4909550935050505061207a6001600080516020615b5e83398151915255565b6130f3613591565b6001600160a01b03811661313157604080518082018252600281526105a360f41b6020820152905162461bcd60e51b815261096a91906004016149da565b600380546001600160a01b0319166001600160a01b0383169081179091556040517fedfaa3bf5c2591af99a9a84e77e7d5b52a712ac2f7df014f60a6d9581e1fe4c890600090a250565b600087815260076020526040902080546001600160a01b031633146131ca57604080518082018252600281526104e360f41b6020820152905162461bcd60e51b815261096a91906004016149da565b600088815260066020526040812060058101549091036131eb57505061354d565b600554604051632e235f3960e01b81526000916001600160a01b031690632e235f399061321f90600686019060040161595c565b600060405180830381865afa15801561323c573d6000803e3d6000fd5b505050506040513d6000823e601f3d908101601f1916820160405261326491908101906155a8565b60035460405163f64af3d360e01b81529192506000916001600160a01b039091169063f64af3d39061329c908d908d90600401614fb6565b600060405180830381865afa1580156132b9573d6000803e3d6000fd5b505050506040513d6000823e601f3d908101601f191682016040526132e1919081019061523c565b90506000805b8260400151518110156133755760008360400151828151811061330c5761330c614ccb565b60200260200101516020015190506133248582613e74565b15613362578360400151828151811061333f5761333f614ccb565b6020026020010151600001516001600160401b03168361335f9190614fe3565b92505b508061336d81614f44565b9150506132e7565b5083600501548110156133b2576040805180820182526002815261493560f01b6020820152905162461bcd60e51b815261096a91906004016149da565b601154604051631831281f60e21b815263ffffffff881660048201526000916001600160a01b0316906360c4a07c9060240161010060405180830381865afa158015613402573d6000803e3d6000fd5b505050506040513d601f19601f8201168201806040525081019061342691906159e7565b90506000600360009054906101000a90046001600160a01b03166001600160a01b0316636d78a10b8e8e6040518363ffffffff1660e01b815260040161346d929190614fb6565b602060405180830381865afa15801561348a573d6000803e3d6000fd5b505050506040513d601f19601f820116820180604052508101906134ae9190614fca565b90506134c18183604001518d8d8d613ed7565b6134f5576040805180820182526002815261092760f31b6020820152905162461bcd60e51b815261096a91906004016149da565b6007860181905560048601805460ff1916905560405163ffffffff8916815281908f907fa95a5e84942ed971fc1c23b67adb9b126bd5c349e645b490fcd60a72f516af609060200160405180910390a3505050505050505b50505050505050565b61355e613591565b6001600160a01b03811661358857604051631e4fbdf760e01b81526000600482015260240161096a565b611d88816136d7565b336135c37f9016d09d72d40fdae2fd8ceac6b6234c7706214fd39c1cd1e609a0528c199300546001600160a01b031690565b6001600160a01b031614611d9d5760405163118cdaa760e01b815233600482015260240161096a565b6000816020015142111561360257506001919050565b60025460408051632b6f600d60e01b815290516000926001600160a01b031691632b6f600d9160048083019260209291908290030181865afa15801561364c573d6000803e3d6000fd5b505050506040513d601f19601f820116820180604052508101906136709190614fca565b90508083604001516136829190614fe3565b42119392505050565b600080516020615b5e8339815191528054600119016136bd57604051633ee5aeb560e01b815260040160405180910390fd5b60029055565b6001600080516020615b5e83398151915255565b7f9016d09d72d40fdae2fd8ceac6b6234c7706214fd39c1cd1e609a0528c19930080546001600160a01b031981166001600160a01b03848116918217845560405192169182907f8be0079c531659141344cd1fd0a4f28419497f9722a3daafe3b4186f6b6457e090600090a3505050565b6000806000806137588686613f63565b600054602088015160405163cedb588b60e01b81526001600160a01b039182166004820152602481018b9052939550919350169063cedb588b90604401600060405180830381600087803b1580156137af57600080fd5b505af11580156137c3573d6000803e3d6000fd5b505050600087815260066020526040808220600401805460ff19166001179055875190516001600160a01b03909116925088917f15d1e788ed875e6f2294a51087aa5cd2e2c10c92e627eb0a6bbbfceceaa01b9891a390925090505b9250929050565b61382e614544565b611d9d61458d565b61383e614544565b611d8881614595565b600061385660208301836149bd565b6001600160a01b031614806138835750600061387860608301604084016149bd565b6001600160a01b0316145b806138a65750600061389b60808301606084016149bd565b6001600160a01b0316145b156138db57604080518082018252600281526105a360f41b6020820152905162461bcd60e51b815261096a91906004016149da565b60015460405163682dc82b60e11b81523360048201526001600160a01b039091169063d05b905690602401602060405180830381865afa158015613923573d6000803e3d6000fd5b505050506040513d601f19601f820116820180604052508101906139479190614f72565b61397b576040805180820182526002815261221960f11b6020820152905162461bcd60e51b815261096a91906004016149da565b6000546001600160a01b031663e2b4efb861399960208401846149bd565b6040516001600160e01b031960e084901b1681526001600160a01b039091166004820152602401602060405180830381865afa1580156139dd573d6000803e3d6000fd5b505050506040513d601f19601f82011682018060405250810190613a019190614f72565b613a35576040805180820182526002815261413360f01b6020820152905162461bcd60e51b815261096a91906004016149da565b42816020013511613a70576040805180820182526002815261543360f01b6020820152905162461bcd60e51b815261096a91906004016149da565b6000613a80426020840135615949565b600254604051636dd5b69d60e01b81527f251496a2e9229b930e5943f3c3e4da6cb786017948b856c9d455ed9cf0fc156c60048201529192506001600160a01b031690636dd5b69d90602401602060405180830381865afa158015613ae9573d6000803e3d6000fd5b505050506040513d601f19601f82011682018060405250810190613b0d9190614fca565b811080613ba45750600254604051636dd5b69d60e01b81527fd31f84da73b6cb3a8c2e853a7c46b1c95600fc6ab5acdbeb4f7f16e875c25ab860048201526001600160a01b0390911690636dd5b69d90602401602060405180830381865afa158015613b7d573d6000803e3d6000fd5b505050506040513d601f19601f82011682018060405250810190613ba19190614fca565b81115b15613bd9576040805180820182526002815261493160f01b6020820152905162461bcd60e51b815261096a91906004016149da565b5050565b6000848152600660209081526040808320600783529220428355908501356001830155600382018490556005820183905582613c1a576000613c1d565b60065b60048301805460ff19166001836006811115613c3b57613c3b6148a8565b0217905550613c4d60208601866149bd565b6001820180546001600160a01b0319166001600160a01b0392909216919091179055613c7f60608601604087016149bd565b6002820180546001600160a01b03929092166001600160a01b031992831617905581541633178155613cb760808601606087016149bd565b60059190910180546001600160a01b0319166001600160a01b039092169190911790555050505050565b600080546040516326415b0f60e21b81526001600160a01b0384811660048301526060939216906399056c3c90602401600060405180830381865afa158015613d2e573d6000803e3d6000fd5b505050506040513d6000823e601f3d908101601f19168201604052613d569190810190615654565b6101800151604080514260208201526bffffffffffffffffffffffff193360601b169181019190915260548101869052909150600090607401604051602081830303815290604052805190602001209050600081835184604051602001613dbf93929190615a9b565b60408051601f198184030181529082905260055463064d1f4960e51b83529092506000916001600160a01b039091169063c9a3e92090613e03908590600401615af0565b600060405180830381865afa158015613e20573d6000803e3d6000fd5b505050506040513d6000823e601f3d908101601f19168201604052613e4891908101906155a8565b600088815260066020819052604090912091925001613e67828261583d565b5093505050505b92915050565b815181516000916001918114808314613e905760009250613ecd565b600160208701838101602088015b6002848385100103613ec8578051835114613ebc5760009650600093505b60209283019201613e9e565b505050505b5090949350505050565b60008582825b85811015613f55576000878783818110613ef957613ef9614ccb565b905060200201359050600283613f0f9190615b2c565b600003613f2757613f20848261459d565b9350613f34565b613f31818561459d565b93505b613f3f600284615829565b9250508080613f4d90614f44565b915050613edd565b505090941495945050505050565b60008060006006600086815260200190815260200160002060405180610100016040529081600082015481526020016001820154815260200160028201548152602001600382015481526020016004820160009054906101000a900460ff166006811115613fd357613fd36148a8565b6006811115613fe457613fe46148a8565b81526020016005820154815260200160068201805461400290614d5d565b80601f016020809104026020016040519081016040528092919081815260200182805461402e90614d5d565b801561407b5780601f106140505761010080835404028352916020019161407b565b820191906000526020600020905b81548152906001019060200180831161405e57829003601f168201915b5050505050815260200160078201548152505090506000816020015142116140ae5781516140a99042615949565b6140bf565b815160208301516140bf9190615949565b60008054602088015160405163dfcf048d60e01b8152600481018590526001600160a01b039182166024820152939450919291169063dfcf048d90604401602060405180830381865afa15801561411a573d6000803e3d6000fd5b505050506040513d601f19601f8201168201806040525081019061413e9190614fca565b905080600003614157576000809450945050505061381f565b826060015181111561416a575060608201515b600254604051636dd5b69d60e01b81527fd91f20541e9312a0f4d27f0f0ba02500035307ac99ea67c86c8342ab3fd71bc56004820152600091612710916001600160a01b0390911690636dd5b69d90602401602060405180830381865afa1580156141d9573d6000803e3d6000fd5b505050506040513d601f19601f820116820180604052508101906141fd9190614fca565b61420790846157fc565b6142119190615829565b9050600061421f8284615949565b90506000600260009054906101000a90046001600160a01b03166001600160a01b0316638b6570a06040518163ffffffff1660e01b8152600401602060405180830381865afa158015614276573d6000803e3d6000fd5b505050506040513d601f19601f8201168201806040525081019061429a9190615b40565b90506000816001600160a01b03168460405160006040518083038185875af1925050503d80600081146142e9576040519150601f19603f3d011682016040523d82523d6000602084013e6142ee565b606091505b5050905080614327576040805180820182526002815261463160f01b6020820152905162461bcd60e51b815261096a91906004016149da565b6000805460208c01516040516326415b0f60e21b81526001600160a01b0391821660048201529116906399056c3c90602401600060405180830381865afa158015614376573d6000803e3d6000fd5b505050506040513d6000823e601f3d908101601f1916820160405261439e9190810190615654565b90506000816101c001516001600160a01b03168560405160006040518083038185875af1925050503d80600081146143f2576040519150601f19603f3d011682016040523d82523d6000602084013e6143f7565b606091505b5050905080614430576040805180820182526002815261463160f01b6020820152905162461bcd60e51b815261096a91906004016149da565b6000878a606001516144429190615949565b905080156144db5760008d60a001516001600160a01b03168260405160006040518083038185875af1925050503d806000811461449b576040519150601f19603f3d011682016040523d82523d6000602084013e6144a0565b606091505b50509050806144d9576040805180820182526002815261463160f01b6020820152905162461bcd60e51b815261096a91906004016149da565b505b6101c0830151604080518a8152602081018a90529081018390526001600160a01b03909116908f907f0e6f7005813080ec5f9df085ae1a9ee5221216f7746e432f210b6ce161e681659060600160405180910390a350939c949b50939950505050505050505050565b7ff0c57e16840df040f15088dc2f81fe391c3923bec73e23a9662efc9c229c6a0054600160401b900460ff16611d9d57604051631afcd79f60e31b815260040160405180910390fd5b6136c3614544565b61355e614544565b6040805181815260608101825260009182919060208201818036833701905050905060005b602081101561467957846145d782601f615949565b602081106145e7576145e7614ccb565b1a60f81b8282815181106145fd576145fd614ccb565b60200101906001600160f81b031916908160001a9053508361462082601f615949565b6020811061463057614630614ccb565b1a60f81b82614640836020614fe3565b8151811061465057614650614ccb565b60200101906001600160f81b031916908160001a9053508061467181614f44565b9150506145c2565b506146838161468b565b949350505050565b6000806002808460405161469f91906155dc565b602060405180830381855afa1580156146bc573d6000803e3d6000fd5b5050506040513d601f19601f820116820180604052508101906146df9190614fca565b6040516020016146f191815260200190565b60408051601f198184030181529082905261470b916155dc565b602060405180830381855afa158015614728573d6000803e3d6000fd5b5050506040513d601f19601f8201168201806040525081019061474b9190614fca565b90506147568161475d565b9392505050565b60008060005b60208110156147a3576147778160086157fc565b84826020811061478957614789614ccb565b1a901b91909117908061479b81614f44565b915050614763565b5092915050565b60405180610100016040528060008152602001600081526020016000815260200160008152602001600060068111156147e5576147e56148a8565b81526000602082018190526060604083018190529091015290565b60008083601f84011261481257600080fd5b5081356001600160401b0381111561482957600080fd5b6020830191508360208260051b850101111561381f57600080fd5b60008060006040848603121561485957600080fd5b8335925060208401356001600160401b0381111561487657600080fd5b61488286828701614800565b9497909650939450505050565b6000602082840312156148a157600080fd5b5035919050565b634e487b7160e01b600052602160045260246000fd5b600781106148dc57634e487b7160e01b600052602160045260246000fd5b9052565b60005b838110156148fb5781810151838201526020016148e3565b50506000910152565b6000815180845261491c8160208601602086016148e0565b601f01601f19169290920160200192915050565b60208152815160208201526020820151604082015260408201516060820152606082015160808201526000608083015161496d60a08401826148be565b5060a083015160c083015260c08301516101008060e0850152614994610120850183614904565b60e095909501519301929092525090919050565b6001600160a01b0381168114611d8857600080fd5b6000602082840312156149cf57600080fd5b8135614756816149a8565b6020815260006147566020830184614904565b60008083601f8401126149ff57600080fd5b5081356001600160401b03811115614a1657600080fd5b60208301915083602082850101111561381f57600080fd5b600080600060408486031215614a4357600080fd5b8335925060208401356001600160401b03811115614a6057600080fd5b614882868287016149ed565b600060208284031215614a7e57600080fd5b81356001600160401b03811115614a9457600080fd5b820160c0818503121561475657600080fd5b60006020808301818452808551808352604092508286019150828160051b87010184880160005b83811015614b2a57603f19898403018552815160808151855263ffffffff898301511689860152878201518189870152614b0982870182614904565b60609384015196909301959095525094870194925090860190600101614acd565b509098975050505050505050565b60208101613e6e82846148be565b60008060008060008060c08789031215614b5f57600080fd5b8635614b6a816149a8565b95506020870135614b7a816149a8565b94506040870135614b8a816149a8565b93506060870135614b9a816149a8565b92506080870135614baa816149a8565b915060a0870135614bba816149a8565b809150509295509295509295565b60008060408385031215614bdb57600080fd5b823591506020830135614bed816149a8565b809150509250929050565b60006080828403121561243357600080fd5b8281526040602082015260006146836040830184614904565b63ffffffff81168114611d8857600080fd5b600080600080600080600060a0888a031215614c5057600080fd5b8735965060208801356001600160401b0380821115614c6e57600080fd5b614c7a8b838c016149ed565b909850965060408a0135915080821115614c9357600080fd5b50614ca08a828b01614800565b909550935050606088013591506080880135614cbb81614c23565b8091505092959891949750929550565b634e487b7160e01b600052603260045260246000fd5b60008235607e19833603018112614cf757600080fd5b9190910192915050565b6000808335601e19843603018112614d1857600080fd5b8301803591506001600160401b03821115614d3257600080fd5b60200191503681900382131561381f57600080fd5b634e487b7160e01b600052604160045260246000fd5b600181811c90821680614d7157607f821691505b60208210810361243357634e487b7160e01b600052602260045260246000fd5b601f821115614ddb57600081815260208120601f850160051c81016020861015614db85750805b601f850160051c820191505b81811015614dd757828155600101614dc4565b5050505b505050565b6001600160401b03831115614df757614df7614d47565b614e0b83614e058354614d5d565b83614d91565b6000601f841160018114614e3f5760008515614e275750838201355b600019600387901b1c1916600186901b178355614e99565b600083815260209020601f19861690835b82811015614e705786850135825560209485019460019092019101614e50565b5086821015614e8d5760001960f88860031b161c19848701351681555b505060018560011b0183555b5050505050565b81358155600181016020830135614eb681614c23565b815463ffffffff191663ffffffff91909116179055604082013536839003601e19018112614ee357600080fd5b820180356001600160401b03811115614efb57600080fd5b602082019150803603821315614f1057600080fd5b614f1e818360028601614de0565b5050606082013560038201555050565b634e487b7160e01b600052601160045260246000fd5b600060018201614f5657614f56614f2e565b5060010190565b80518015158114614f6d57600080fd5b919050565b600060208284031215614f8457600080fd5b61475682614f5d565b81835281816020850137506000828201602090810191909152601f909101601f19169091010190565b602081526000614683602083018486614f8d565b600060208284031215614fdc57600080fd5b5051919050565b80820180821115613e6e57613e6e614f2e565b60006020828403121561500857600080fd5b81356003811061475657600080fd5b604080519081016001600160401b038111828210171561503957615039614d47565b60405290565b60405160a081016001600160401b038111828210171561503957615039614d47565b604051608081016001600160401b038111828210171561503957615039614d47565b60405161020081016001600160401b038111828210171561503957615039614d47565b604051601f8201601f191681016001600160401b03811182821017156150ce576150ce614d47565b604052919050565b8051614f6d81614c23565b60006001600160401b038211156150fa576150fa614d47565b5060051b60200190565b600082601f83011261511557600080fd5b81516001600160401b0381111561512e5761512e614d47565b615141601f8201601f19166020016150a6565b81815284602083860101111561515657600080fd5b6146838260208301602087016148e0565b600082601f83011261517857600080fd5b8151602061518d615188836150e1565b6150a6565b82815260059290921b840181019181810190868411156151ac57600080fd5b8286015b84811015613e675780516001600160401b03808211156151d05760008081fd5b908801906040828b03601f19018113156151ea5760008081fd5b6151f2615017565b8784015183811681146152055760008081fd5b815290830151908282111561521a5760008081fd5b6152288c8984870101615104565b8189015286525050509183019183016151b0565b6000602080838503121561524f57600080fd5b82516001600160401b038082111561526657600080fd5b9084019060a0828703121561527a57600080fd5b61528261503f565b825161528d81614c23565b815282840151828111156152a057600080fd5b8301601f810188136152b157600080fd5b80516152bf615188826150e1565b81815260059190911b8201860190868101908a8311156152de57600080fd5b8784015b8381101561537b578051878111156152f957600080fd5b85016080818e03601f1901121561530f57600080fd5b615317615061565b8a8201518152604082015161532b81614c23565b818c01526060820151898111156153425760008081fd5b6153508f8d83860101615104565b6040830152506080820151915061536682614c23565b606081019190915283529188019188016152e2565b50808886015250505050604083015193508184111561539957600080fd5b6153a587858501615167565b60408201526153b6606084016150d6565b60608201526153c760808401614f5d565b60808201529695505050505050565b6000602082840312156153e857600080fd5b813560ff8116811461475657600080fd5b600081518084526020808501808196508360051b8101915082860160005b8581101561545e578284038952815180516001600160401b03168552850151604086860181905261544a81870183614904565b9a87019a9550505090840190600101615417565b5091979650505050505050565b60a081526000610140820163ffffffff808a511660a08501526020808b015160a060c087015283815180865261016095508588019150858160051b8901019550838301925060005b818110156155135761015f198988030183528351608081518952878783015116878a015260408083015182828c01526154ee838c0182614904565b6060948501518b169b9094019a909a52509097505092840192918401916001016154b3565b5050505060408b0151858403609f190160e0870152915061553483836153f9565b925060608b0151915061555061010086018363ffffffff169052565b60808b0151151561012086015263ffffffff8a169085015250828103604084015261557c818789614f8d565b91505061559460608301856001600160401b03169052565b60ff83166080830152979650505050505050565b6000602082840312156155ba57600080fd5b81516001600160401b038111156155d057600080fd5b61468384828501615104565b60008251614cf78184602087016148e0565b8051614f6d816149a8565b600082601f83011261560a57600080fd5b8151602061561a615188836150e1565b82815260059290921b8401810191818101908684111561563957600080fd5b8286015b84811015613e67578051835291830191830161563d565b60006020828403121561566657600080fd5b81516001600160401b038082111561567d57600080fd5b90830190610200828603121561569257600080fd5b61569a615083565b6156a3836155ee565b81526156b160208401614f5d565b60208201526040830151604082015260608301516060820152608083015160808201526156e060a084016155ee565b60a08201526156f160c084016155ee565b60c082015260e08301518281111561570857600080fd5b615714878286016155f9565b60e0830152506101006157288185016155ee565b90820152610120838101518381111561574057600080fd5b61574c88828701615104565b828401525050610140808401518381111561576657600080fd5b61577288828701615104565b828401525050610160808401518183015250610180808401518381111561579857600080fd5b6157a488828701615104565b8284015250506101a080840151838111156157be57600080fd5b6157ca88828701615104565b8284015250506101c091506157e08284016155ee565b918101919091526101e091820151918101919091529392505050565b8082028115828204841417613e6e57613e6e614f2e565b634e487b7160e01b600052601260045260246000fd5b60008261583857615838615813565b500490565b81516001600160401b0381111561585657615856614d47565b61586a816158648454614d5d565b84614d91565b602080601f83116001811461589f57600084156158875750858301515b600019600386901b1c1916600185901b178555614dd7565b600085815260208120601f198616915b828110156158ce578886015182559484019460019091019084016158af565b50858210156158ec5787850151600019600388901b60f8161c191681555b5050505050600190811b01905550565b600060018060a01b0380891683526080602084015261591f60808401888a614f8d565b8381036040850152615932818789614f8d565b925050808416606084015250979650505050505050565b81810381811115613e6e57613e6e614f2e565b600060208083526000845461597081614d5d565b8084870152604060018084166000811461599157600181146159ab576159d9565b60ff1985168984015283151560051b8901830195506159d9565b896000528660002060005b858110156159d15781548b82018601529083019088016159b6565b8a0184019650505b509398975050505050505050565b60006101008083850312156159fb57600080fd5b604051908101906001600160401b0382118183101715615a1d57615a1d614d47565b8160405283519150615a2e82614c23565b8181526020840151602082015260408401516040820152615a51606085016150d6565b6060820152615a62608085016150d6565b6080820152615a7360a085016150d6565b60a082015260c084015160c0820152615a8e60e085016150d6565b60e0820152949350505050565b600160fd1b8152836001820152607560f81b602182015260ff60f81b8360f81b16602282015260008251615ad68160238501602087016148e0565b602b60fa1b60239390910192830152506024019392505050565b604081526000615b036040830184614904565b828103602084015260078152661b585a5b9b995d60ca1b60208201526040810191505092915050565b600082615b3b57615b3b615813565b500690565b600060208284031215615b5257600080fd5b8151614756816149a856fe9b779b17422d0df92223018b32b4d1fa46e071723d6817e2486d003becc55f00a26469706673582212203ee27a92450fe09e7af7f564577d0e665a8995ae6055131ba9cda92184a5f43264736f6c63430008140033",
  "linkReferences": {},
  "deployedLinkReferences": {}
}