{
  "_format": "hh-sol-artifact-1",
  "contractName": "MockBtcAddress",
  "sourceName": "contracts/mocks/MockBtcAddress.sol",
  "abi": [
    {
      "inputs": [
        {
          "internalType": "string",
          "name": "btc_address",
          "type": "string"
        }
      ],
      "name": "DecodeBtcAddressToScript",
      "outputs": [
        {
          "internalType": "bytes",
          "name": "",
          "type": "bytes"
        }
      ],
      "stateMutability": "view",
      "type": "function"
    },
    {
      "inputs": [
        {
          "internalType": "bytes",
          "name": "script",
          "type": "bytes"
        },
        {
          "internalType": "string",
          "name": "network",
          "type": "string"
        }
      ],
      "name": "EncodeSegWitAddress",
      "outputs": [
        {
          "internalType": "string",
          "name": "",
          "type": "string"
        }
      ],
      "stateMutability": "view",
      "type": "function"
    },
    {
      "inputs": [
        {
          "internalType": "string",
          "name": "",
          "type": "string"
        }
      ],
      "name": "btc_address_to_script",
      "outputs": [
        {
          "internalType": "bytes",
          "name": "",
          "type": "bytes"
        }
      ],
      "stateMutability": "view",
      "type": "function"
    },
    {
      "inputs": [
        {
          "internalType": "string",
          "name": "btc_address",
          "type": "string"
        }
      ],
      "name": "decodeAddress",
      "outputs": [
        {
          "internalType": "bytes",
          "name": "",
          "type": "bytes"
        },
        {
          "internalType": "enum BtcAddressType",
          "name": "",
          "type": "uint8"
        }
      ],
      "stateMutability": "view",
      "type": "function"
    },
    {
      "inputs": [
        {
          "internalType": "bytes",
          "name": "",
          "type": "bytes"
        }
      ],
      "name": "script_to_btc_address",
      "outputs": [
        {
          "internalType": "string",
          "name": "",
          "type": "string"
        }
      ],
      "stateMutability": "view",
      "type": "function"
    },
    {
      "inputs": [
        {
          "internalType": "string",
          "name": "btc_address",
          "type": "string"
        },
        {
          "internalType": "bytes",
          "name": "script",
          "type": "bytes"
        }
      ],
      "name": "setBtcAddressToScript",
      "outputs": [],
      "stateMutability": "nonpayable",
      "type": "function"
    }
  ],
  "bytecode": "0x608060405234801561001057600080fd5b506107c5806100206000396000f3fe608060405234801561001057600080fd5b50600436106100625760003560e01c8063207d1d84146100675780632e235f39146100915780633fdfb5fb146100b1578063a1475036146100c6578063c9a3e920146100d9578063fd603a87146100ec575b600080fd5b61007a6100753660046104e0565b6100ff565b60405161008892919061056d565b60405180910390f35b6100a461009f3660046104e0565b6101b7565b60405161008891906105ad565b6100c46100bf3660046105c7565b610267565b005b6100a46100d43660046104e0565b6102c3565b6100a46100e73660046105c7565b610368565b6100a46100fa3660046104e0565b610419565b606060008083604051610112919061062b565b9081526020016040518091039020600081805461012e90610647565b80601f016020809104026020016040519081016040528092919081815260200182805461015a90610647565b80156101a75780601f1061017c576101008083540402835291602001916101a7565b820191906000526020600020905b81548152906001019060200180831161018a57829003601f168201915b5050505050915091509150915091565b60606000826040516101c9919061062b565b908152602001604051809103902080546101e290610647565b80601f016020809104026020016040519081016040528092919081815260200182805461020e90610647565b801561025b5780601f106102305761010080835404028352916020019161025b565b820191906000526020600020905b81548152906001019060200180831161023e57829003601f168201915b50505050509050919050565b80600083604051610278919061062b565b9081526020016040518091039020908161029291906106cf565b50816001826040516102a4919061062b565b908152602001604051809103902090816102be91906106cf565b505050565b8051602081830181018051600182529282019190930120915280546102e790610647565b80601f016020809104026020016040519081016040528092919081815260200182805461031390610647565b80156103605780601f1061033557610100808354040283529160200191610360565b820191906000526020600020905b81548152906001019060200180831161034357829003601f168201915b505050505081565b606060018360405161037a919061062b565b9081526020016040518091039020805461039390610647565b80601f01602080910402602001604051908101604052809291908181526020018280546103bf90610647565b801561040c5780601f106103e15761010080835404028352916020019161040c565b820191906000526020600020905b8154815290600101906020018083116103ef57829003601f168201915b5050505050905092915050565b8051602081830181018051600082529282019190930120915280546102e790610647565b634e487b7160e01b600052604160045260246000fd5b600082601f83011261046457600080fd5b813567ffffffffffffffff8082111561047f5761047f61043d565b604051601f8301601f19908116603f011681019082821181831017156104a7576104a761043d565b816040528381528660208588010111156104c057600080fd5b836020870160208301376000602085830101528094505050505092915050565b6000602082840312156104f257600080fd5b813567ffffffffffffffff81111561050957600080fd5b61051584828501610453565b949350505050565b60005b83811015610538578181015183820152602001610520565b50506000910152565b6000815180845261055981602086016020860161051d565b601f01601f19169290920160200192915050565b6040815260006105806040830185610541565b9050600783106105a057634e487b7160e01b600052602160045260246000fd5b8260208301529392505050565b6020815260006105c06020830184610541565b9392505050565b600080604083850312156105da57600080fd5b823567ffffffffffffffff808211156105f257600080fd5b6105fe86838701610453565b9350602085013591508082111561061457600080fd5b5061062185828601610453565b9150509250929050565b6000825161063d81846020870161051d565b9190910192915050565b600181811c9082168061065b57607f821691505b60208210810361067b57634e487b7160e01b600052602260045260246000fd5b50919050565b601f8211156102be57600081815260208120601f850160051c810160208610156106a85750805b601f850160051c820191505b818110156106c7578281556001016106b4565b505050505050565b815167ffffffffffffffff8111156106e9576106e961043d565b6106fd816106f78454610647565b84610681565b602080601f831160018114610732576000841561071a5750858301515b600019600386901b1c1916600185901b1785556106c7565b600085815260208120601f198616915b8281101561076157888601518255948401946001909101908401610742565b508582101561077f5787850151600019600388901b60f8161c191681555b5050505050600190811b0190555056fea264697066735822122093ab020b6aafad9b39ee002fe795551d6dd8cf2718f7532b593a91339c9cdfa264736f6c63430008140033",
  "linkReferences": {},
  "deployedLinkReferences": {}
}