{
  "_format": "hh-sol-artifact-1",
  "contractName": "MockAssetOracle",
  "sourceName": "contracts/mocks/MockAssetOracle.sol",
  "abi": [
    {
      "inputs": [],
      "stateMutability": "nonpayable",
      "type": "constructor"
    },
    {
      "inputs": [
        {
          "internalType": "address",
          "name": "asset",
          "type": "address"
        }
      ],
      "name": "assetPrices",
      "outputs": [
        {
          "internalType": "uint256",
          "name": "",
          "type": "uint256"
        }
      ],
      "stateMutability": "view",
      "type": "function"
    }
  ],
  "bytecode": "0x608060405234801561001057600080fd5b50610190806100206000396000f3fe608060405234801561001057600080fd5b506004361061002b5760003560e01c80635e9a523c14610030575b600080fd5b61004361003e36600461012a565b610055565b60405190815260200160405180910390f35b60006001600160a01b03821673df4191bfe8fae019fd6af9433e8ed6bfc4b90ca10361008c57506910d3d89c6fbcd1000000919050565b6001600160a01b038216730daddd286487f3a03ea9a1b693585fd46cdccf9f036100bf5750670de0b6b3a7640000919050565b6001600160a01b03821673517e9e5d46c1ea8ab6f78677d6114ef47f71f6c4036100f2575067255ba61522ff3e00919050565b6001600160a01b03821673a06be0f5950781ce28d965e5efc6996e88a8c141036101255750670de188bc2cebfd00919050565b919050565b60006020828403121561013c57600080fd5b81356001600160a01b038116811461015357600080fd5b939250505056fea2646970667358221220d9f31a29d338e1df1e50354f34cf2bc79ac34daac45ee7dff695baadb839c1e364736f6c63430008140033",
  "linkReferences": {},
  "deployedLinkReferences": {}
}