{
  "_format": "hh-sol-artifact-1",
  "contractName": "ArbitratorManager",
  "sourceName": "contracts/core/ArbitratorManager.sol",
  "abi": [
    {
      "inputs": [],
      "stateMutability": "nonpayable",
      "type": "constructor"
    },
    {
      "inputs": [],
      "name": "InvalidInitialization",
      "type": "error"
    },
    {
      "inputs": [],
      "name": "NotInitializing",
      "type": "error"
    },
    {
      "inputs": [
        {
          "internalType": "address",
          "name": "owner",
          "type": "address"
        }
      ],
      "name": "OwnableInvalidOwner",
      "type": "error"
    },
    {
      "inputs": [
        {
          "internalType": "address",
          "name": "account",
          "type": "address"
        }
      ],
      "name": "OwnableUnauthorizedAccount",
      "type": "error"
    },
    {
      "inputs": [],
      "name": "ReentrancyGuardReentrantCall",
      "type": "error"
    },
    {
      "anonymous": false,
      "inputs": [
        {
          "indexed": true,
          "internalType": "address",
          "name": "arbitrator",
          "type": "address"
        },
        {
          "indexed": false,
          "internalType": "uint256",
          "name": "deadline",
          "type": "uint256"
        }
      ],
      "name": "ArbitratorDeadlineUpdated",
      "type": "event"
    },
    {
      "anonymous": false,
      "inputs": [
        {
          "indexed": true,
          "internalType": "address",
          "name": "arbitrator",
          "type": "address"
        },
        {
          "indexed": false,
          "internalType": "uint256",
          "name": "ethFeeRate",
          "type": "uint256"
        },
        {
          "indexed": false,
          "internalType": "uint256",
          "name": "btcFeeRate",
          "type": "uint256"
        }
      ],
      "name": "ArbitratorFeeRateUpdated",
      "type": "event"
    },
    {
      "anonymous": false,
      "inputs": [
        {
          "indexed": true,
          "internalType": "address",
          "name": "arbitrator",
          "type": "address"
        }
      ],
      "name": "ArbitratorFrozen",
      "type": "event"
    },
    {
      "anonymous": false,
      "inputs": [
        {
          "indexed": true,
          "internalType": "address",
          "name": "arbitrator",
          "type": "address"
        }
      ],
      "name": "ArbitratorPaused",
      "type": "event"
    },
    {
      "anonymous": false,
      "inputs": [
        {
          "indexed": true,
          "internalType": "address",
          "name": "arbitrator",
          "type": "address"
        },
        {
          "indexed": true,
          "internalType": "address",
          "name": "operator",
          "type": "address"
        },
        {
          "indexed": false,
          "internalType": "address",
          "name": "revenueAddress",
          "type": "address"
        },
        {
          "indexed": false,
          "internalType": "string",
          "name": "btcAddress",
          "type": "string"
        },
        {
          "indexed": false,
          "internalType": "bytes",
          "name": "btcPubKey",
          "type": "bytes"
        },
        {
          "indexed": false,
          "internalType": "uint256",
          "name": "feeRate",
          "type": "uint256"
        },
        {
          "indexed": false,
          "internalType": "uint256",
          "name": "deadline",
          "type": "uint256"
        }
      ],
      "name": "ArbitratorRegistered",
      "type": "event"
    },
    {
      "anonymous": false,
      "inputs": [
        {
          "indexed": true,
          "internalType": "address",
          "name": "arbitrator",
          "type": "address"
        },
        {
          "indexed": true,
          "internalType": "bytes32",
          "name": "transactionId",
          "type": "bytes32"
        }
      ],
      "name": "ArbitratorReleased",
      "type": "event"
    },
    {
      "anonymous": false,
      "inputs": [
        {
          "indexed": true,
          "internalType": "address",
          "name": "arbitrator",
          "type": "address"
        }
      ],
      "name": "ArbitratorTerminatedWithSlash",
      "type": "event"
    },
    {
      "anonymous": false,
      "inputs": [
        {
          "indexed": true,
          "internalType": "address",
          "name": "arbitrator",
          "type": "address"
        }
      ],
      "name": "ArbitratorUnpaused",
      "type": "event"
    },
    {
      "anonymous": false,
      "inputs": [
        {
          "indexed": true,
          "internalType": "address",
          "name": "arbitrator",
          "type": "address"
        },
        {
          "indexed": true,
          "internalType": "bytes32",
          "name": "transactionId",
          "type": "bytes32"
        }
      ],
      "name": "ArbitratorWorking",
      "type": "event"
    },
    {
      "anonymous": false,
      "inputs": [
        {
          "indexed": true,
          "internalType": "address",
          "name": "oldManager",
          "type": "address"
        },
        {
          "indexed": true,
          "internalType": "address",
          "name": "newManager",
          "type": "address"
        }
      ],
      "name": "CompensationManagerUpdated",
      "type": "event"
    },
    {
      "anonymous": false,
      "inputs": [
        {
          "indexed": false,
          "internalType": "uint64",
          "name": "version",
          "type": "uint64"
        }
      ],
      "name": "Initialized",
      "type": "event"
    },
    {
      "anonymous": false,
      "inputs": [
        {
          "indexed": true,
          "internalType": "address",
          "name": "transactionManager",
          "type": "address"
        },
        {
          "indexed": true,
          "internalType": "address",
          "name": "compensationManager",
          "type": "address"
        }
      ],
      "name": "InitializedManager",
      "type": "event"
    },
    {
      "anonymous": false,
      "inputs": [
        {
          "indexed": true,
          "internalType": "address",
          "name": "oldNFTContract",
          "type": "address"
        },
        {
          "indexed": true,
          "internalType": "address",
          "name": "newNFTContract",
          "type": "address"
        }
      ],
      "name": "NFTContractUpdated",
      "type": "event"
    },
    {
      "anonymous": false,
      "inputs": [
        {
          "indexed": true,
          "internalType": "address",
          "name": "arbitrator",
          "type": "address"
        },
        {
          "indexed": true,
          "internalType": "address",
          "name": "operator",
          "type": "address"
        },
        {
          "indexed": false,
          "internalType": "bytes",
          "name": "btcPubKey",
          "type": "bytes"
        },
        {
          "indexed": false,
          "internalType": "string",
          "name": "btcAddress",
          "type": "string"
        }
      ],
      "name": "OperatorSet",
      "type": "event"
    },
    {
      "anonymous": false,
      "inputs": [
        {
          "indexed": true,
          "internalType": "address",
          "name": "previousOwner",
          "type": "address"
        },
        {
          "indexed": true,
          "internalType": "address",
          "name": "newOwner",
          "type": "address"
        }
      ],
      "name": "OwnershipTransferred",
      "type": "event"
    },
    {
      "anonymous": false,
      "inputs": [
        {
          "indexed": true,
          "internalType": "address",
          "name": "arbitrator",
          "type": "address"
        },
        {
          "indexed": false,
          "internalType": "address",
          "name": "ethAddress",
          "type": "address"
        },
        {
          "indexed": false,
          "internalType": "bytes",
          "name": "btcPubKey",
          "type": "bytes"
        },
        {
          "indexed": false,
          "internalType": "string",
          "name": "btcAddress",
          "type": "string"
        }
      ],
      "name": "RevenueAddressesSet",
      "type": "event"
    },
    {
      "anonymous": false,
      "inputs": [
        {
          "indexed": true,
          "internalType": "address",
          "name": "arbitrator",
          "type": "address"
        },
        {
          "indexed": true,
          "internalType": "address",
          "name": "assetAddress",
          "type": "address"
        },
        {
          "indexed": false,
          "internalType": "uint256",
          "name": "amount",
          "type": "uint256"
        },
        {
          "indexed": false,
          "internalType": "uint256[]",
          "name": "nftTokenIds",
          "type": "uint256[]"
        }
      ],
      "name": "StakeAdded",
      "type": "event"
    },
    {
      "anonymous": false,
      "inputs": [
        {
          "indexed": true,
          "internalType": "address",
          "name": "arbitrator",
          "type": "address"
        },
        {
          "indexed": true,
          "internalType": "address",
          "name": "assetAddress",
          "type": "address"
        },
        {
          "indexed": false,
          "internalType": "uint256",
          "name": "amount",
          "type": "uint256"
        }
      ],
      "name": "StakeWithdrawn",
      "type": "event"
    },
    {
      "anonymous": false,
      "inputs": [
        {
          "indexed": true,
          "internalType": "address",
          "name": "oldManager",
          "type": "address"
        },
        {
          "indexed": true,
          "internalType": "address",
          "name": "newManager",
          "type": "address"
        }
      ],
      "name": "TransactionManagerUpdated",
      "type": "event"
    },
    {
      "inputs": [],
      "name": "compensationManager",
      "outputs": [
        {
          "internalType": "address",
          "name": "",
          "type": "address"
        }
      ],
      "stateMutability": "view",
      "type": "function"
    },
    {
      "inputs": [],
      "name": "configManager",
      "outputs": [
        {
          "internalType": "contract ConfigManager",
          "name": "",
          "type": "address"
        }
      ],
      "stateMutability": "view",
      "type": "function"
    },
    {
      "inputs": [
        {
          "internalType": "address",
          "name": "arbitrator",
          "type": "address"
        }
      ],
      "name": "frozenArbitrator",
      "outputs": [],
      "stateMutability": "nonpayable",
      "type": "function"
    },
    {
      "inputs": [
        {
          "internalType": "address",
          "name": "arbitratorAddress",
          "type": "address"
        }
      ],
      "name": "getArbitratorInfo",
      "outputs": [
        {
          "components": [
            {
              "internalType": "address",
              "name": "arbitrator",
              "type": "address"
            },
            {
              "internalType": "bool",
              "name": "paused",
              "type": "bool"
            },
            {
              "internalType": "uint256",
              "name": "currentFeeRate",
              "type": "uint256"
            },
            {
              "internalType": "bytes32",
              "name": "activeTransactionId",
              "type": "bytes32"
            },
            {
              "internalType": "uint256",
              "name": "ethAmount",
              "type": "uint256"
            },
            {
              "internalType": "address",
              "name": "erc20Token",
              "type": "address"
            },
            {
              "internalType": "address",
              "name": "nftContract",
              "type": "address"
            },
            {
              "internalType": "uint256[]",
              "name": "nftTokenIds",
              "type": "uint256[]"
            },
            {
              "internalType": "address",
              "name": "operator",
              "type": "address"
            },
            {
              "internalType": "bytes",
              "name": "operatorBtcPubKey",
              "type": "bytes"
            },
            {
              "internalType": "string",
              "name": "operatorBtcAddress",
              "type": "string"
            },
            {
              "internalType": "uint256",
              "name": "deadLine",
              "type": "uint256"
            },
            {
              "internalType": "bytes",
              "name": "revenueBtcPubKey",
              "type": "bytes"
            },
            {
              "internalType": "string",
              "name": "revenueBtcAddress",
              "type": "string"
            },
            {
              "internalType": "address",
              "name": "revenueETHAddress",
              "type": "address"
            },
            {
              "internalType": "uint256",
              "name": "lastSubmittedWorkTime",
              "type": "uint256"
            }
          ],
          "internalType": "struct DataTypes.ArbitratorInfo",
          "name": "",
          "type": "tuple"
        }
      ],
      "stateMutability": "view",
      "type": "function"
    },
    {
      "inputs": [
        {
          "internalType": "address",
          "name": "arbitrator",
          "type": "address"
        }
      ],
      "name": "getArbitratorInfoExt",
      "outputs": [
        {
          "components": [
            {
              "internalType": "uint256",
              "name": "currentBTCFeeRate",
              "type": "uint256"
            }
          ],
          "internalType": "struct DataTypes.ArbitratorInfoExt",
          "name": "",
          "type": "tuple"
        }
      ],
      "stateMutability": "view",
      "type": "function"
    },
    {
      "inputs": [
        {
          "internalType": "address",
          "name": "arbitrator",
          "type": "address"
        }
      ],
      "name": "getAvailableStake",
      "outputs": [
        {
          "internalType": "uint256",
          "name": "",
          "type": "uint256"
        }
      ],
      "stateMutability": "view",
      "type": "function"
    },
    {
      "inputs": [
        {
          "internalType": "address",
          "name": "arbitrator",
          "type": "address"
        }
      ],
      "name": "getTotalNFTStakeValue",
      "outputs": [
        {
          "internalType": "uint256",
          "name": "",
          "type": "uint256"
        }
      ],
      "stateMutability": "view",
      "type": "function"
    },
    {
      "inputs": [
        {
          "internalType": "address",
          "name": "_transactionManager",
          "type": "address"
        },
        {
          "internalType": "address",
          "name": "_compensationManager",
          "type": "address"
        }
      ],
      "name": "initTransactionAndCompensationManager",
      "outputs": [],
      "stateMutability": "nonpayable",
      "type": "function"
    },
    {
      "inputs": [
        {
          "internalType": "address",
          "name": "_configManager",
          "type": "address"
        },
        {
          "internalType": "address",
          "name": "_nftContract",
          "type": "address"
        },
        {
          "internalType": "address",
          "name": "_nftInfo",
          "type": "address"
        }
      ],
      "name": "initialize",
      "outputs": [],
      "stateMutability": "nonpayable",
      "type": "function"
    },
    {
      "inputs": [
        {
          "internalType": "address",
          "name": "arbitratorAddress",
          "type": "address"
        }
      ],
      "name": "isActiveArbitrator",
      "outputs": [
        {
          "internalType": "bool",
          "name": "",
          "type": "bool"
        }
      ],
      "stateMutability": "view",
      "type": "function"
    },
    {
      "inputs": [
        {
          "internalType": "address",
          "name": "arbitrator",
          "type": "address"
        }
      ],
      "name": "isConfigModifiable",
      "outputs": [
        {
          "internalType": "bool",
          "name": "",
          "type": "bool"
        }
      ],
      "stateMutability": "view",
      "type": "function"
    },
    {
      "inputs": [
        {
          "internalType": "address",
          "name": "arbitrator",
          "type": "address"
        }
      ],
      "name": "isFrozenStatus",
      "outputs": [
        {
          "internalType": "bool",
          "name": "",
          "type": "bool"
        }
      ],
      "stateMutability": "view",
      "type": "function"
    },
    {
      "inputs": [
        {
          "internalType": "address",
          "name": "arbitrator",
          "type": "address"
        },
        {
          "internalType": "address",
          "name": "operator",
          "type": "address"
        }
      ],
      "name": "isOperatorOf",
      "outputs": [
        {
          "internalType": "bool",
          "name": "",
          "type": "bool"
        }
      ],
      "stateMutability": "view",
      "type": "function"
    },
    {
      "inputs": [
        {
          "internalType": "address",
          "name": "arbitrator",
          "type": "address"
        }
      ],
      "name": "isPaused",
      "outputs": [
        {
          "internalType": "bool",
          "name": "",
          "type": "bool"
        }
      ],
      "stateMutability": "view",
      "type": "function"
    },
    {
      "inputs": [],
      "name": "nftContract",
      "outputs": [
        {
          "internalType": "contract IERC721",
          "name": "",
          "type": "address"
        }
      ],
      "stateMutability": "view",
      "type": "function"
    },
    {
      "inputs": [],
      "name": "nftInfo",
      "outputs": [
        {
          "internalType": "contract IBNFTInfo",
          "name": "",
          "type": "address"
        }
      ],
      "stateMutability": "view",
      "type": "function"
    },
    {
      "inputs": [],
      "name": "owner",
      "outputs": [
        {
          "internalType": "address",
          "name": "",
          "type": "address"
        }
      ],
      "stateMutability": "view",
      "type": "function"
    },
    {
      "inputs": [],
      "name": "pause",
      "outputs": [],
      "stateMutability": "nonpayable",
      "type": "function"
    },
    {
      "inputs": [
        {
          "internalType": "string",
          "name": "defaultBtcAddress",
          "type": "string"
        },
        {
          "internalType": "bytes",
          "name": "defaultBtcPubKey",
          "type": "bytes"
        },
        {
          "internalType": "uint256",
          "name": "feeRate",
          "type": "uint256"
        },
        {
          "internalType": "uint256",
          "name": "btcFeeRate",
          "type": "uint256"
        },
        {
          "internalType": "uint256",
          "name": "deadline",
          "type": "uint256"
        }
      ],
      "name": "registerArbitratorByStakeETH",
      "outputs": [],
      "stateMutability": "payable",
      "type": "function"
    },
    {
      "inputs": [
        {
          "internalType": "uint256[]",
          "name": "tokenIds",
          "type": "uint256[]"
        },
        {
          "internalType": "string",
          "name": "defaultBtcAddress",
          "type": "string"
        },
        {
          "internalType": "bytes",
          "name": "defaultBtcPubKey",
          "type": "bytes"
        },
        {
          "internalType": "uint256",
          "name": "feeRate",
          "type": "uint256"
        },
        {
          "internalType": "uint256",
          "name": "btcFeeRate",
          "type": "uint256"
        },
        {
          "internalType": "uint256",
          "name": "deadline",
          "type": "uint256"
        }
      ],
      "name": "registerArbitratorByStakeNFT",
      "outputs": [],
      "stateMutability": "nonpayable",
      "type": "function"
    },
    {
      "inputs": [
        {
          "internalType": "address",
          "name": "arbitrator",
          "type": "address"
        },
        {
          "internalType": "bytes32",
          "name": "transactionId",
          "type": "bytes32"
        }
      ],
      "name": "releaseArbitrator",
      "outputs": [],
      "stateMutability": "nonpayable",
      "type": "function"
    },
    {
      "inputs": [],
      "name": "renounceOwnership",
      "outputs": [],
      "stateMutability": "nonpayable",
      "type": "function"
    },
    {
      "inputs": [
        {
          "internalType": "uint256",
          "name": "deadline",
          "type": "uint256"
        }
      ],
      "name": "setArbitratorDeadline",
      "outputs": [],
      "stateMutability": "nonpayable",
      "type": "function"
    },
    {
      "inputs": [
        {
          "internalType": "address",
          "name": "arbitrator",
          "type": "address"
        },
        {
          "internalType": "bytes32",
          "name": "transactionId",
          "type": "bytes32"
        }
      ],
      "name": "setArbitratorWorking",
      "outputs": [],
      "stateMutability": "nonpayable",
      "type": "function"
    },
    {
      "inputs": [
        {
          "internalType": "address",
          "name": "_compensationManager",
          "type": "address"
        }
      ],
      "name": "setCompensationManager",
      "outputs": [],
      "stateMutability": "nonpayable",
      "type": "function"
    },
    {
      "inputs": [
        {
          "internalType": "uint256",
          "name": "ethFeeRate",
          "type": "uint256"
        },
        {
          "internalType": "uint256",
          "name": "btcFeeRate",
          "type": "uint256"
        }
      ],
      "name": "setFeeRates",
      "outputs": [],
      "stateMutability": "nonpayable",
      "type": "function"
    },
    {
      "inputs": [
        {
          "internalType": "address",
          "name": "_nftContract",
          "type": "address"
        }
      ],
      "name": "setNFTContract",
      "outputs": [],
      "stateMutability": "nonpayable",
      "type": "function"
    },
    {
      "inputs": [
        {
          "internalType": "address",
          "name": "operator",
          "type": "address"
        },
        {
          "internalType": "bytes",
          "name": "btcPubKey",
          "type": "bytes"
        },
        {
          "internalType": "string",
          "name": "btcAddress",
          "type": "string"
        }
      ],
      "name": "setOperator",
      "outputs": [],
      "stateMutability": "nonpayable",
      "type": "function"
    },
    {
      "inputs": [
        {
          "internalType": "address",
          "name": "ethAddress",
          "type": "address"
        },
        {
          "internalType": "bytes",
          "name": "btcPubKey",
          "type": "bytes"
        },
        {
          "internalType": "string",
          "name": "btcAddress",
          "type": "string"
        }
      ],
      "name": "setRevenueAddresses",
      "outputs": [],
      "stateMutability": "nonpayable",
      "type": "function"
    },
    {
      "inputs": [
        {
          "internalType": "address",
          "name": "_transactionManager",
          "type": "address"
        }
      ],
      "name": "setTransactionManager",
      "outputs": [],
      "stateMutability": "nonpayable",
      "type": "function"
    },
    {
      "inputs": [],
      "name": "stakeETH",
      "outputs": [],
      "stateMutability": "payable",
      "type": "function"
    },
    {
      "inputs": [
        {
          "internalType": "uint256[]",
          "name": "tokenIds",
          "type": "uint256[]"
        }
      ],
      "name": "stakeNFT",
      "outputs": [],
      "stateMutability": "nonpayable",
      "type": "function"
    },
    {
      "inputs": [
        {
          "internalType": "address",
          "name": "arbitrator",
          "type": "address"
        }
      ],
      "name": "terminateArbitratorWithSlash",
      "outputs": [],
      "stateMutability": "nonpayable",
      "type": "function"
    },
    {
      "inputs": [],
      "name": "transactionManager",
      "outputs": [
        {
          "internalType": "address",
          "name": "",
          "type": "address"
        }
      ],
      "stateMutability": "view",
      "type": "function"
    },
    {
      "inputs": [
        {
          "internalType": "address",
          "name": "newOwner",
          "type": "address"
        }
      ],
      "name": "transferOwnership",
      "outputs": [],
      "stateMutability": "nonpayable",
      "type": "function"
    },
    {
      "inputs": [],
      "name": "unpause",
      "outputs": [],
      "stateMutability": "nonpayable",
      "type": "function"
    },
    {
      "inputs": [],
      "name": "unstake",
      "outputs": [],
      "stateMutability": "nonpayable",
      "type": "function"
    },
    {
      "inputs": [],
      "name": "zeroAddress",
      "outputs": [
        {
          "internalType": "address",
          "name": "",
          "type": "address"
        }
      ],
      "stateMutability": "view",
      "type": "function"
    }
  ],
  "bytecode": "0x60806040523480156200001157600080fd5b506200001c62000022565b620000d6565b7ff0c57e16840df040f15088dc2f81fe391c3923bec73e23a9662efc9c229c6a00805468010000000000000000900460ff1615620000735760405163f92ee8a960e01b815260040160405180910390fd5b80546001600160401b0390811614620000d35780546001600160401b0319166001600160401b0390811782556040519081527fc7f505b2f371ae2175ee4913f4499e1f2633a7b5936321eed1cdaeb6115181d29060200160405180910390a15b50565b61505e80620000e66000396000f3fe6080604052600436106102255760003560e01c80638da5cb5b11610123578063ca0ab075116100ab578063dceb986d1161006f578063dceb986d146106cb578063e25268d2146106d3578063e2b4efb8146106f3578063f2fde38b14610713578063feaca5831461073357600080fd5b8063ca0ab0751461062b578063cedb588b1461064b578063d2b6f74b1461066b578063d3f414e01461068b578063d56d229d146106ab57600080fd5b80639f7ca8dd116100f25780639f7ca8dd1461054d578063a7ccabdf1461056d578063b1130fd91461058d578063b553fe1e146105eb578063c0c53b8b1461060b57600080fd5b80638da5cb5b146104b057806399056c3c146104ed578063998b2fd81461051a5780639b8b780f1461053a57600080fd5b80632def6620116101b15780634476a660116101755780634476a660146104065780635b14f18314610426578063654b4e8314610466578063715018a6146104865780638456cb591461049b57600080fd5b80632def66201461037c57806339c25e2c146103915780633b716452146103b15780633f4ba83a146103d157806344019f7e146103e657600080fd5b8063182c5744116101f8578063182c5744146102cc5780631e57b875146102ec578063291112511461030c57806329a3f2031461033c5780632b2d37da1461035c57600080fd5b80630559b8771461022a5780630930907b146102675780630b1fa61c1461027c57806314f6b1901461029e575b600080fd5b34801561023657600080fd5b5060055461024a906001600160a01b031681565b6040516001600160a01b0390911681526020015b60405180910390f35b34801561027357600080fd5b5061024a600081565b34801561028857600080fd5b5061029c61029736600461433a565b610753565b005b3480156102aa57600080fd5b506102be6102b936600461433a565b6107f4565b60405190815260200161025e565b3480156102d857600080fd5b5061029c6102e736600461439b565b610830565b3480156102f857600080fd5b5061029c61030736600461441d565b610965565b34801561031857600080fd5b5061032c61032736600461433a565b610abe565b604051901515815260200161025e565b34801561034857600080fd5b5061029c6103573660046144ce565b610e5d565b34801561036857600080fd5b5061029c610377366004614550565b610f76565b34801561038857600080fd5b5061029c611090565b34801561039d57600080fd5b5061032c6103ac36600461457c565b611419565b3480156103bd57600080fd5b5060045461024a906001600160a01b031681565b3480156103dd57600080fd5b5061029c611443565b3480156103f257600080fd5b5061029c6104013660046145b5565b61150f565b34801561041257600080fd5b5061029c61042136600461433a565b611621565b34801561043257600080fd5b5061032c61044136600461433a565b6001600160a01b0316600090815260036020526040902054600160a01b900460ff1690565b34801561047257600080fd5b5061029c6104813660046144ce565b6116b9565b34801561049257600080fd5b5061029c611822565b3480156104a757600080fd5b5061029c611834565b3480156104bc57600080fd5b507f9016d09d72d40fdae2fd8ceac6b6234c7706214fd39c1cd1e609a0528c199300546001600160a01b031661024a565b3480156104f957600080fd5b5061050d61050836600461433a565b611903565b60405161025e9190614659565b34801561052657600080fd5b5061029c61053536600461433a565b611cd9565b61029c6105483660046147d1565b612024565b34801561055957600080fd5b5061032c61056836600461433a565b612108565b34801561057957600080fd5b5061029c61058836600461433a565b6124a3565b34801561059957600080fd5b506105dc6105a836600461433a565b60408051602080820183526000918290526001600160a01b0393909316815260068352819020815192830190915254815290565b6040519051815260200161025e565b3480156105f757600080fd5b5060025461024a906001600160a01b031681565b34801561061757600080fd5b5061029c610626366004614857565b61253b565b34801561063757600080fd5b5060005461024a906001600160a01b031681565b34801561065757600080fd5b5061029c610666366004614550565b6126f4565b34801561067757600080fd5b5061029c61068636600461457c565b61280c565b34801561069757600080fd5b5061029c6106a636600461433a565b612914565b3480156106b757600080fd5b5060015461024a906001600160a01b031681565b61029c612a60565b3480156106df57600080fd5b506102be6106ee36600461433a565b612b64565b3480156106ff57600080fd5b5061032c61070e36600461433a565b612cd3565b34801561071f57600080fd5b5061029c61072e36600461433a565b6131a5565b34801561073f57600080fd5b5061029c61074e3660046148a2565b6131e3565b61075b6134eb565b6001600160a01b0381166107a257604080518082018252600281526105a360f41b6020820152905162461bcd60e51b815261079991906004016148c4565b60405180910390fd5b600480546001600160a01b038381166001600160a01b0319831681179093556040519116919082907f960d9803c7ca631d3232d16e9971c7fd8e82d5f7ff7c2824c7b29dcab8a37d2e90600090a35050565b6001600160a01b03811660009081526003602052604081208161081684612b64565b905080826003015461082891906148ed565b949350505050565b6000819003610869576040805180820182526002815261453560f01b6020820152905162461bcd60e51b815261079991906004016148c4565b33600090815260036020526040902080546001600160a01b03166108b7576040805180820182526002815261209960f11b6020820152905162461bcd60e51b815261079991906004016148c4565b6108c033612108565b6108f4576040805180820182526002815261043360f41b6020820152905162461bcd60e51b815261079991906004016148c4565b60006109008484613546565b905061090d8285856137f6565b61091b826003015482613a2d565b61092482613c5f565b6001546040516001600160a01b03909116903390600080516020614fe98339815191529061095790859089908990614900565b60405180910390a350505050565b61096d613ce2565b60008890036109a6576040805180820182526002815261453560f01b6020820152905162461bcd60e51b815261079991906004016148c4565b60006109b83389898989898989613d1a565b905060006109c68b8b613546565b90506109d3828c8c6137f6565b6109e1826003015482613a2d565b6109ea82613c5f565b600160009054906101000a90046001600160a01b03166001600160a01b0316336001600160a01b0316600080516020614fe9833981519152838e8e604051610a3493929190614900565b60405180910390a36007820154600d8301546040516001600160a01b039283169233927f1ab9d0508879cf64270650fc89b30617972d694fd1053946f028860daf125c7c92610a9292909116908e908e908e908e908e908d9061496a565b60405180910390a35050610ab3600160008051602061500983398151915255565b505050505050505050565b6001600160a01b03818116600090815260036020818152604080842081516102008101835281548088168252600160a01b900460ff16151581850152600182015481840152600282015460608201529381015460808501526004810154861660a0850152600581015490951660c084015260068501805482518185028101850190935280835294958695909360e0860193929190830182828015610b8157602002820191906000526020600020905b815481526020019060010190808311610b6d575b505050918352505060078201546001600160a01b03166020820152600882018054604090920191610bb1906149b9565b80601f0160208091040260200160405190810160405280929190818152602001828054610bdd906149b9565b8015610c2a5780601f10610bff57610100808354040283529160200191610c2a565b820191906000526020600020905b815481529060010190602001808311610c0d57829003601f168201915b50505050508152602001600982018054610c43906149b9565b80601f0160208091040260200160405190810160405280929190818152602001828054610c6f906149b9565b8015610cbc5780601f10610c9157610100808354040283529160200191610cbc565b820191906000526020600020905b815481529060010190602001808311610c9f57829003601f168201915b50505050508152602001600a8201548152602001600b82018054610cdf906149b9565b80601f0160208091040260200160405190810160405280929190818152602001828054610d0b906149b9565b8015610d585780601f10610d2d57610100808354040283529160200191610d58565b820191906000526020600020905b815481529060010190602001808311610d3b57829003601f168201915b50505050508152602001600c82018054610d71906149b9565b80601f0160208091040260200160405190810160405280929190818152602001828054610d9d906149b9565b8015610dea5780601f10610dbf57610100808354040283529160200191610dea565b820191906000526020600020905b815481529060010190602001808311610dcd57829003601f168201915b5050509183525050600d8201546001600160a01b039081166020830152600e90920154604090910152815191925016610e4d576040805180820182526002815261209960f11b6020820152905162461bcd60e51b815261079991906004016148c4565b610e5681613e3b565b9392505050565b33600090815260036020526040902080546001600160a01b0316610eab576040805180820182526002815261209960f11b6020820152905162461bcd60e51b815261079991906004016148c4565b610eb433612108565b610ee8576040805180820182526002815261043360f41b6020820152905162461bcd60e51b815261079991906004016148c4565b600d810180546001600160a01b0319166001600160a01b038816179055600b8101610f14858783614a58565b50600c8101610f24838583614a58565b50336001600160a01b03167f8e68353cf53df77c6b6993341bb1d784fab04f2f38b2c51654b51de6ce32274e8787878787604051610f66959493929190614b17565b60405180910390a2505050505050565b6004546001600160a01b03163314610fb85760408051808201825260028152614e3160f01b6020820152905162461bcd60e51b815261079991906004016148c4565b600554600160a01b900460ff16610ff95760408051808201825260028152614e3560f01b6020820152905162461bcd60e51b815261079991906004016148c4565b6001600160a01b038216600090815260036020526040902061101a83612cd3565b61104e576040805180820182526002815261413360f01b6020820152905162461bcd60e51b815261079991906004016148c4565b6002810182905560405182906001600160a01b038516907f43b9442ba3328a37dad0041120b36563dafcdbdb7b200665d8cbb0c44982720c90600090a3505050565b611098613ce2565b3360009081526003602052604090206002810154156110ed5760405162461bcd60e51b815260206004820152601160248201527041726269747261746f72576f726b696e6760781b6044820152606401610799565b3360009081526003602052604090208054611110906001600160a01b0316612108565b611144576040805180820182526002815261533160f01b6020820152905162461bcd60e51b815261079991906004016148c4565b60008160030154118061115a5750600681015415155b6111905760405162461bcd60e51b81526020600482015260076024820152664e6f5374616b6560c81b6044820152606401610799565b600381018054600090915560058201546001600160a01b0316158015906111ba5750600682015415155b156113345760008260060180548060200260200160405190810160405280929190818152602001828054801561120f57602002820191906000526020600020905b8154815260200190600101908083116111fb575b509394506000935061122092505050565b604051908082528060200260200182016040528015611249578160200160208202803683370190505b5080516112609160068601916020909101906142c5565b506005830180546001600160a01b031916905560005b81518110156113315760015482516001600160a01b03909116906323b872dd90309033908690869081106112ac576112ac614b5b565b60209081029190910101516040516001600160e01b031960e086901b1681526001600160a01b0393841660048201529290911660248301526044820152606401600060405180830381600087803b15801561130657600080fd5b505af115801561131a573d6000803e3d6000fd5b50505050808061132990614b71565b915050611276565b50505b80156113c557604051600090339083908381818185875af1925050503d806000811461137c576040519150601f19603f3d011682016040523d82523d6000602084013e611381565b606091505b50509050806113c35760405162461bcd60e51b815260206004820152600e60248201526d151c985b9cd9995c91985a5b195960921b6044820152606401610799565b505b60405181815260009033907fb7c918e0e249f999e965cafeb6c664271b3f4317d296461500e71da39f0cbda39060200160405180910390a3505050611417600160008051602061500983398151915255565b565b6001600160a01b038281166000908152600360205260409020600701548116908216145b92915050565b33600090815260036020526040902080546001600160a01b0316611491576040805180820182526002815261209960f11b6020820152905162461bcd60e51b815261079991906004016148c4565b8054600160a01b900460ff166114d65760405162461bcd60e51b815260206004820152600a6024820152691b9bdd081c185d5cd95960b21b6044820152606401610799565b805460ff60a01b1916815560405133907f9f71f687820b75e4208e6fdd2091be151d94465fe4bafd2506bed2b9a430437d90600090a250565b428111611546576040805180820182526002815261543360f01b6020820152905162461bcd60e51b815261079991906004016148c4565b33600090815260036020526040902080546001600160a01b0316611594576040805180820182526002815261209960f11b6020820152905162461bcd60e51b815261079991906004016148c4565b600081600a01541180156115ac575080600a01548211155b156115e1576040805180820182526002815261543360f01b6020820152905162461bcd60e51b815261079991906004016148c4565b600a810182905560405182815233907fff191d17033fc90a7dae896652cf93df6f261bc4176c000d0e5e21345b139ccb9060200160405180910390a25050565b6116296134eb565b6001600160a01b03811661166757604080518082018252600281526105a360f41b6020820152905162461bcd60e51b815261079991906004016148c4565b600580546001600160a01b038381166001600160a01b0319831681179093556040519116919082907fb2de57cf284062a9a3402f8683281c49d5a6747b1f369d0eec883b83503f3c8d90600090a35050565b6001600160a01b0385166117015760405162461bcd60e51b815260206004820152600f60248201526e24b73b30b634b227b832b930ba37b960891b6044820152606401610799565b61170a33612108565b61173e576040805180820182526002815261043360f41b6020820152905162461bcd60e51b815261079991906004016148c4565b33600090815260036020526040902080546001600160a01b031661178c576040805180820182526002815261209960f11b6020820152905162461bcd60e51b815261079991906004016148c4565b6007810180546001600160a01b0319166001600160a01b038816179055600881016117b8858783614a58565b50600981016117c8838583614a58565b50856001600160a01b0316336001600160a01b03167ff920b7832d3774e2ac2efb86fccb411bc92e19a8ea66687764dea93140bdad4a878787876040516118129493929190614b8a565b60405180910390a3505050505050565b61182a6134eb565b6114176000613eeb565b33600090815260036020526040902080546001600160a01b0316611882576040805180820182526002815261209960f11b6020820152905162461bcd60e51b815261079991906004016148c4565b61188b33612cd3565b6118c45760405162461bcd60e51b815260206004820152600a6024820152694e6f742061637469766560b01b6044820152606401610799565b805460ff60a01b1916600160a01b17815560405133907ff8f74f9bb1ed360c36a0bd59e0d8aa5cbdd15bb6e8e86af871f343daf432be2290600090a250565b604080516102008101825260008082526020820181905291810182905260608082018390526080820183905260a0820183905260c0820183905260e08201819052610100820183905261012082018190526101408201819052610160820183905261018082018190526101a08201526101c081018290526101e08101919091526001600160a01b0382811660009081526003602081815260409283902083516102008101855281548087168252600160a01b900460ff16151581840152600182015481860152600282015460608201529281015460808401526004810154851660a0840152600581015490941660c083015260068401805484518184028101840190955280855292949360e08601939092830182828015611a4357602002820191906000526020600020905b815481526020019060010190808311611a2f575b505050918352505060078201546001600160a01b03166020820152600882018054604090920191611a73906149b9565b80601f0160208091040260200160405190810160405280929190818152602001828054611a9f906149b9565b8015611aec5780601f10611ac157610100808354040283529160200191611aec565b820191906000526020600020905b815481529060010190602001808311611acf57829003601f168201915b50505050508152602001600982018054611b05906149b9565b80601f0160208091040260200160405190810160405280929190818152602001828054611b31906149b9565b8015611b7e5780601f10611b5357610100808354040283529160200191611b7e565b820191906000526020600020905b815481529060010190602001808311611b6157829003601f168201915b50505050508152602001600a8201548152602001600b82018054611ba1906149b9565b80601f0160208091040260200160405190810160405280929190818152602001828054611bcd906149b9565b8015611c1a5780601f10611bef57610100808354040283529160200191611c1a565b820191906000526020600020905b815481529060010190602001808311611bfd57829003601f168201915b50505050508152602001600c82018054611c33906149b9565b80601f0160208091040260200160405190810160405280929190818152602001828054611c5f906149b9565b8015611cac5780601f10611c8157610100808354040283529160200191611cac565b820191906000526020600020905b815481529060010190602001808311611c8f57829003601f168201915b5050509183525050600d8201546001600160a01b03166020820152600e9091015460409091015292915050565b6005546001600160a01b03163314611d1b5760408051808201825260028152614e3760f01b6020820152905162461bcd60e51b815261079991906004016148c4565b600554600160a01b900460ff16611d5c5760408051808201825260028152614e3560f01b6020820152905162461bcd60e51b815261079991906004016148c4565b6001600160a01b0380821660009081526003602052604090208054909116611dae576040805180820182526002815261209960f11b6020820152905162461bcd60e51b815261079991906004016148c4565b60038101548015611e4e576000600383018190556005546040516001600160a01b039091169083908381818185875af1925050503d8060008114611e0e576040519150601f19603f3d011682016040523d82523d6000602084013e611e13565b606091505b5050905080611e4c576040805180820182526002815261463160f01b6020820152905162461bcd60e51b815261079991906004016148c4565b505b60058201546001600160a01b031615801590611e6d5750600682015415155b15611feb57600082600601805480602002602001604051908101604052809291908181526020018280548015611ec257602002820191906000526020600020905b815481526020019060010190808311611eae575b5093945060009350611ed392505050565b604051908082528060200260200182016040528015611efc578160200160208202803683370190505b508051611f139160068601916020909101906142c5565b506005830180546001600160a01b031916905560005b8151811015611fe85760015460055483516001600160a01b03928316926323b872dd923092911690869086908110611f6357611f63614b5b565b60209081029190910101516040516001600160e01b031960e086901b1681526001600160a01b0393841660048201529290911660248301526044820152606401600060405180830381600087803b158015611fbd57600080fd5b505af1158015611fd1573d6000803e3d6000fd5b505050508080611fe090614b71565b915050611f29565b50505b6040516001600160a01b038416907fc0c6efb1c6f315e6721ba44dc1a435e4ca9a730d45f3caf4a67c43b22ca008a290600090a2505050565b60006120363389898989898989613d1a565b9050612043346000613a2d565b3481600301600082825461205791906148ed565b909155505080546040805160008082526020820192839052926001600160a01b031691600080516020614fe98339815191529161209691349190614bbc565b60405180910390a36007810154600d8201546040516001600160a01b039283169233927f1ab9d0508879cf64270650fc89b30617972d694fd1053946f028860daf125c7c926120f69290911690600c870190600b8801908b908a90614c87565b60405180910390a35050505050505050565b6001600160a01b03818116600090815260036020818152604080842081516102008101835281548088168252600160a01b900460ff16151581850152600182015481840152600282015460608201529381015460808501526004810154861660a0850152600581015490951660c084015260068501805482518185028101850190935280835294958695909360e08601939291908301828280156121cb57602002820191906000526020600020905b8154815260200190600101908083116121b7575b505050918352505060078201546001600160a01b031660208201526008820180546040909201916121fb906149b9565b80601f0160208091040260200160405190810160405280929190818152602001828054612227906149b9565b80156122745780601f1061224957610100808354040283529160200191612274565b820191906000526020600020905b81548152906001019060200180831161225757829003601f168201915b5050505050815260200160098201805461228d906149b9565b80601f01602080910402602001604051908101604052809291908181526020018280546122b9906149b9565b80156123065780601f106122db57610100808354040283529160200191612306565b820191906000526020600020905b8154815290600101906020018083116122e957829003601f168201915b50505050508152602001600a8201548152602001600b82018054612329906149b9565b80601f0160208091040260200160405190810160405280929190818152602001828054612355906149b9565b80156123a25780601f10612377576101008083540402835291602001916123a2565b820191906000526020600020905b81548152906001019060200180831161238557829003601f168201915b50505050508152602001600c820180546123bb906149b9565b80601f01602080910402602001604051908101604052809291908181526020018280546123e7906149b9565b80156124345780601f1061240957610100808354040283529160200191612434565b820191906000526020600020905b81548152906001019060200180831161241757829003601f168201915b5050509183525050600d8201546001600160a01b039081166020830152600e909201546040909101528151919250166124705750600092915050565b6060810151156124835750600092915050565b61248c81613e3b565b1561249a5750600092915050565b50600192915050565b6124ab6134eb565b6001600160a01b0381166124e957604080518082018252600281526105a360f41b6020820152905162461bcd60e51b815261079991906004016148c4565b600180546001600160a01b038381166001600160a01b0319831681179093556040519116919082907fab9636faa03b42a52a353eb86f070f1ac15b69f0bc419fba63d07b5d996edad790600090a35050565b7ff0c57e16840df040f15088dc2f81fe391c3923bec73e23a9662efc9c229c6a008054600160401b810460ff1615906001600160401b03166000811580156125805750825b90506000826001600160401b0316600114801561259c5750303b155b9050811580156125aa575080155b156125c85760405163f92ee8a960e01b815260040160405180910390fd5b845467ffffffffffffffff1916600117855583156125f257845460ff60401b1916600160401b1785555b6125fa613f5c565b61260333613f6c565b6001600160a01b038816158061262057506001600160a01b038716155b8061263257506001600160a01b038616155b1561266757604080518082018252600281526105a360f41b6020820152905162461bcd60e51b815261079991906004016148c4565b600080546001600160a01b03808b166001600160a01b031992831617909255600180548a8416908316179055600280549289169290911691909117905583156126ea57845460ff60401b19168555604051600181527fc7f505b2f371ae2175ee4913f4499e1f2633a7b5936321eed1cdaeb6115181d29060200160405180910390a15b5050505050505050565b6004546001600160a01b031633146127365760408051808201825260028152614e3160f01b6020820152905162461bcd60e51b815261079991906004016148c4565b600554600160a01b900460ff166127775760408051808201825260028152614e3560f01b6020820152905162461bcd60e51b815261079991906004016148c4565b6001600160a01b0382166000908152600360205260409020600281015482146127ca5760408051808201825260028152612a1b60f11b6020820152905162461bcd60e51b815261079991906004016148c4565b60006002820181905560405183916001600160a01b038616917fec0516e78db51665510a6ab319cb07cbb5b1e66d1de10f9abd1994eaaa555b309190a3505050565b6128146134eb565b600554600160a01b900460ff1615612856576040805180820182526002815261041360f41b6020820152905162461bcd60e51b815261079991906004016148c4565b6001600160a01b038216158061287357506001600160a01b038116155b156128a857604080518082018252600281526105a360f41b6020820152905162461bcd60e51b815261079991906004016148c4565b600480546001600160a01b038085166001600160a01b03199092168217909255600580546001600160a81b03191684841617600160a01b17908190556040519216917f255c9edca3ea4cd6ff3c64c4cd7a5f812c6ae0ca0ae939f85e9e3eb49cdb416f90600090a35050565b6004546001600160a01b031633146129565760408051808201825260028152614e3160f01b6020820152905162461bcd60e51b815261079991906004016148c4565b600554600160a01b900460ff166129975760408051808201825260028152614e3560f01b6020820152905162461bcd60e51b815261079991906004016148c4565b6001600160a01b03808216600090815260036020526040902080549091166129e9576040805180820182526002815261209960f11b6020820152905162461bcd60e51b815261079991906004016148c4565b6002810154612a22576040805180820182526002815261413560f01b6020820152905162461bcd60e51b815261079991906004016148c4565b42600e8201556040516001600160a01b038316907fb5c433aa54e775c63ae22f75b359af0e25c57eddd9bb55eb71445b74b523bfa890600090a25050565b33600090815260036020526040902080546001600160a01b0316612aae576040805180820182526002815261209960f11b6020820152905162461bcd60e51b815261079991906004016148c4565b612ab733612108565b612aeb576040805180820182526002815261043360f41b6020820152905162461bcd60e51b815261079991906004016148c4565b6000612af633612b64565b90506000348360030154612b0a91906148ed565b600384018190559050612b1d8183613a2d565b82546040805160008082526020820192839052926001600160a01b031691600080516020614fe983398151915291612b5791349190614bbc565b60405180910390a3505050565b6001600160a01b038116600090815260036020526040812081805b6006830154811015612ccb576002546006840180546000926001600160a01b03169163d5ec2d839185908110612bb757612bb7614b5b565b90600052602060002001546040518263ffffffff1660e01b8152600401612be091815260200190565b600060405180830381865afa158015612bfd573d6000803e3d6000fd5b505050506040513d6000823e601f3d908101601f19168201604052612c259190810190614d7c565b91505060005b816060015151811015612cb657600080612c7484606001518481518110612c5457612c54614b5b565b6020026020010151602001516001600160401b03166402540be400613f7d565b9150915081612c955760405162461bcd60e51b815260040161079990614f58565b612c9f81876148ed565b955050508080612cae90614b71565b915050612c2b565b50508080612cc390614b71565b915050612b7f565b509392505050565b6001600160a01b0381166000908152600360205260408120600a81015415801590612d0257504281600a015411155b15612d105750600092915050565b8054600090612d27906001600160a01b03166107f4565b600054604080516332c70ad760e21b815290519293506001600160a01b0390911691636dd5b69d91839163cb1c2b5c916004808201926020929091908290030181865afa158015612d7c573d6000803e3d6000fd5b505050506040513d601f19601f82011682018060405250810190612da09190614f7a565b6040518263ffffffff1660e01b8152600401612dbe91815260200190565b602060405180830381865afa158015612ddb573d6000803e3d6000fd5b505050506040513d601f19601f82011682018060405250810190612dff9190614f7a565b811015612e10575060009392505050565b604080516102008101825283546001600160a01b038082168352600160a01b90910460ff16151560208084019190915260018601548385015260028601546060840152600386015460808401526004860154821660a0840152600586015490911660c083015260068501805484518184028101840190955280855261315d94879360e0860193919290830182828015612ec857602002820191906000526020600020905b815481526020019060010190808311612eb4575b505050918352505060078201546001600160a01b03166020820152600882018054604090920191612ef8906149b9565b80601f0160208091040260200160405190810160405280929190818152602001828054612f24906149b9565b8015612f715780601f10612f4657610100808354040283529160200191612f71565b820191906000526020600020905b815481529060010190602001808311612f5457829003601f168201915b50505050508152602001600982018054612f8a906149b9565b80601f0160208091040260200160405190810160405280929190818152602001828054612fb6906149b9565b80156130035780601f10612fd857610100808354040283529160200191613003565b820191906000526020600020905b815481529060010190602001808311612fe657829003601f168201915b50505050508152602001600a8201548152602001600b82018054613026906149b9565b80601f0160208091040260200160405190810160405280929190818152602001828054613052906149b9565b801561309f5780601f106130745761010080835404028352916020019161309f565b820191906000526020600020905b81548152906001019060200180831161308257829003601f168201915b50505050508152602001600c820180546130b8906149b9565b80601f01602080910402602001604051908101604052809291908181526020018280546130e4906149b9565b80156131315780601f1061310657610100808354040283529160200191613131565b820191906000526020600020905b81548152906001019060200180831161311457829003601f168201915b5050509183525050600d8201546001600160a01b03166020820152600e90910154604090910152613e3b565b1561316c575060009392505050565b600282015415613180575060009392505050565b8154600160a01b900460ff161561319b575060009392505050565b5060019392505050565b6131ad6134eb565b6001600160a01b0381166131d757604051631e4fbdf760e01b815260006004820152602401610799565b6131e081613eeb565b50565b600054604080516325ba6ce560e11b815290516001600160a01b0390921691636dd5b69d918391634b74d9ca916004808201926020929091908290030181865afa158015613235573d6000803e3d6000fd5b505050506040513d601f19601f820116820180604052508101906132599190614f7a565b6040518263ffffffff1660e01b815260040161327791815260200190565b602060405180830381865afa158015613294573d6000803e3d6000fd5b505050506040513d601f19601f820116820180604052508101906132b89190614f7a565b8210156132f35760405162461bcd60e51b8152602060048201526009602482015268466565546f6f4c6f7760b81b6044820152606401610799565b6000546040805163c1df30e760e01b815290516001600160a01b0390921691636dd5b69d91839163c1df30e7916004808201926020929091908290030181865afa158015613345573d6000803e3d6000fd5b505050506040513d601f19601f820116820180604052508101906133699190614f7a565b6040518263ffffffff1660e01b815260040161338791815260200190565b602060405180830381865afa1580156133a4573d6000803e3d6000fd5b505050506040513d601f19601f820116820180604052508101906133c89190614f7a565b81101560405180604001604052806002815260200161231960f11b815250906134045760405162461bcd60e51b815260040161079991906148c4565b5033600090815260036020526040902080546001600160a01b0316613453576040805180820182526002815261209960f11b6020820152905162461bcd60e51b815261079991906004016148c4565b61345c33612108565b613490576040805180820182526002815261043360f41b6020820152905162461bcd60e51b815261079991906004016148c4565b6001810183905533600081815260066020908152604091829020858155825187815291820186905292917f3deb80fb64bacb0d572a957b16a7420b1799df648df6a6370c8cc197ad0446a4910160405180910390a250505050565b3361351d7f9016d09d72d40fdae2fd8ceac6b6234c7706214fd39c1cd1e609a0528c199300546001600160a01b031690565b6001600160a01b0316146114175760405163118cdaa760e01b8152336004820152602401610799565b600080806402540be400815b8581101561368e576002546000906001600160a01b031663d5ec2d8389898581811061358057613580614b5b565b905060200201356040518263ffffffff1660e01b81526004016135a591815260200190565b600060405180830381865afa1580156135c2573d6000803e3d6000fd5b505050506040513d6000823e601f3d908101601f191682016040526135ea9190810190614d7c565b91505060005b816060015151811015613679578160600151818151811061361357613613614b5b565b6020026020010151602001516001600160401b031694506000806136378787613f7d565b91509150816136585760405162461bcd60e51b815260040161079990614f58565b61366281896148ed565b97505050808061367190614b71565b9150506135f0565b5050808061368690614b71565b915050613552565b50336000908152600360205260408120905b60068201548110156137ea576002546006830180546000926001600160a01b03169163d5ec2d8391859081106136d8576136d8614b5b565b90600052602060002001546040518263ffffffff1660e01b815260040161370191815260200190565b600060405180830381865afa15801561371e573d6000803e3d6000fd5b505050506040513d6000823e601f3d908101601f191682016040526137469190810190614d7c565b91505060005b8160600151518110156137d5578160600151818151811061376f5761376f614b5b565b6020026020010151602001516001600160401b031695506000806137938888613f7d565b91509150816137b45760405162461bcd60e51b815260040161079990614f58565b6137be818a6148ed565b9850505080806137cd90614b71565b91505061374c565b505080806137e290614b71565b9150506136a0565b50929695505050505050565b60015460405163e985e9c560e01b81523360048201523060248201526000916001600160a01b03169063e985e9c590604401602060405180830381865afa158015613845573d6000803e3d6000fd5b505050506040513d601f19601f820116820180604052508101906138699190614f93565b905060005b82811015613a2657816139485760015430906001600160a01b031663081812fc8686858181106138a0576138a0614b5b565b905060200201356040518263ffffffff1660e01b81526004016138c591815260200190565b602060405180830381865afa1580156138e2573d6000803e3d6000fd5b505050506040513d601f19601f820116820180604052508101906139069190614fb5565b6001600160a01b0316146139485760405162461bcd60e51b81526020600482015260096024820152684e6f417070726f766560b81b6044820152606401610799565b6001546001600160a01b03166323b872dd333087878681811061396d5761396d614b5b565b6040516001600160e01b031960e088901b1681526001600160a01b03958616600482015294909316602485015250602090910201356044820152606401600060405180830381600087803b1580156139c457600080fd5b505af11580156139d8573d6000803e3d6000fd5b50505050846006018484838181106139f2576139f2614b5b565b8354600181018555600094855260209485902091909402929092013591909201555080613a1e81614b71565b91505061386e565b5050505050565b6000613a3982846148ed565b60008054604080516332c70ad760e21b8152905193945091926001600160a01b0390911691636dd5b69d91839163cb1c2b5c9160048083019260209291908290030181865afa158015613a90573d6000803e3d6000fd5b505050506040513d601f19601f82011682018060405250810190613ab49190614f7a565b6040518263ffffffff1660e01b8152600401613ad291815260200190565b602060405180830381865afa158015613aef573d6000803e3d6000fd5b505050506040513d601f19601f82011682018060405250810190613b139190614f7a565b600080546040805163c98517c560e01b8152905193945091926001600160a01b0390911691636dd5b69d91839163c98517c59160048083019260209291908290030181865afa158015613b6a573d6000803e3d6000fd5b505050506040513d601f19601f82011682018060405250810190613b8e9190614f7a565b6040518263ffffffff1660e01b8152600401613bac91815260200190565b602060405180830381865afa158015613bc9573d6000803e3d6000fd5b505050506040513d601f19601f82011682018060405250810190613bed9190614f7a565b905081831015613c27576040805180820182526002815261299960f11b6020820152905162461bcd60e51b815261079991906004016148c4565b80831115613a26576040805180820182526002815261533360f01b6020820152905162461bcd60e51b815261079991906004016148c4565b60058101546001600160a01b0316613c98576001546005820180546001600160a01b0319166001600160a01b0390921691909117905550565b60015460058201546001600160a01b039081169116146131e0576040805180820182526002815261249b60f11b6020820152905162461bcd60e51b815261079991906004016148c4565b600080516020615009833981519152805460011901613d1457604051633ee5aeb560e01b815260040160405180910390fd5b60029055565b6001600160a01b0380891660009081526003602052604081208054919290911615613d6f576040805180820182526002815261413160f01b6020820152905162461bcd60e51b815261079991906004016148c4565b613d7e89898989898989613fc8565b80546001600160a01b038b166001600160a01b031991821681178355600783018054831682179055600d83018054909216179055600c8101613dc1898b83614a58565b50600b8101613dd1878983614a58565b5060098101613de1898b83614a58565b5060088101613df1878983614a58565b50600181019490945550600a8301556001600160a01b039690961660009081526006602052604090209590955550929392505050565b600160008051602061500983398151915255565b6000805460408051632f672f1960e11b8152905183926001600160a01b031691635ece5e329160048083019260209291908290030181865afa158015613e85573d6000803e3d6000fd5b505050506040513d601f19601f82011682018060405250810190613ea99190614f7a565b9050826101e00151600003613ec15750600092915050565b4281846101e00151613ed391906148ed565b1115613ee25750600192915050565b50600092915050565b7f9016d09d72d40fdae2fd8ceac6b6234c7706214fd39c1cd1e609a0528c19930080546001600160a01b031981166001600160a01b03848116918217845560405192169182907f8be0079c531659141344cd1fd0a4f28419497f9722a3daafe3b4186f6b6457e090600090a3505050565b613f6461426c565b6114176142b5565b613f7461426c565b6131e0816142bd565b60008083600003613f945750600190506000613fc1565b83830283858281613fa757613fa7614fd2565b0414613fba576000809250925050613fc1565b6001925090505b9250929050565b851580613fd3575083155b15614008576040805180820182526002815261049360f41b6020820152905162461bcd60e51b815261079991906004016148c4565b60008054604080516325ba6ce560e11b815290516001600160a01b0390921691636dd5b69d918391634b74d9ca916004808201926020929091908290030181865afa15801561405b573d6000803e3d6000fd5b505050506040513d601f19601f8201168201806040525081019061407f9190614f7a565b6040518263ffffffff1660e01b815260040161409d91815260200190565b602060405180830381865afa1580156140ba573d6000803e3d6000fd5b505050506040513d601f19601f820116820180604052508101906140de9190614f7a565b905080841015614118576040805180820182526002815261046360f41b6020820152905162461bcd60e51b815261079991906004016148c4565b600080546040805163c1df30e760e01b815290516001600160a01b0390921691636dd5b69d91839163c1df30e7916004808201926020929091908290030181865afa15801561416b573d6000803e3d6000fd5b505050506040513d601f19601f8201168201806040525081019061418f9190614f7a565b6040518263ffffffff1660e01b81526004016141ad91815260200190565b602060405180830381865afa1580156141ca573d6000803e3d6000fd5b505050506040513d601f19601f820116820180604052508101906141ee9190614f7a565b905080841015614228576040805180820182526002815261231960f11b6020820152905162461bcd60e51b815261079991906004016148c4565b82158015906142375750428311155b15610ab3576040805180820182526002815261543360f01b6020820152905162461bcd60e51b815261079991906004016148c4565b7ff0c57e16840df040f15088dc2f81fe391c3923bec73e23a9662efc9c229c6a0054600160401b900460ff1661141757604051631afcd79f60e31b815260040160405180910390fd5b613e2761426c565b6131ad61426c565b828054828255906000526020600020908101928215614300579160200282015b828111156143005782518255916020019190600101906142e5565b5061430c929150614310565b5090565b5b8082111561430c5760008155600101614311565b6001600160a01b03811681146131e057600080fd5b60006020828403121561434c57600080fd5b8135610e5681614325565b60008083601f84011261436957600080fd5b5081356001600160401b0381111561438057600080fd5b6020830191508360208260051b8501011115613fc157600080fd5b600080602083850312156143ae57600080fd5b82356001600160401b038111156143c457600080fd5b6143d085828601614357565b90969095509350505050565b60008083601f8401126143ee57600080fd5b5081356001600160401b0381111561440557600080fd5b602083019150836020828501011115613fc157600080fd5b600080600080600080600080600060c08a8c03121561443b57600080fd5b89356001600160401b038082111561445257600080fd5b61445e8d838e01614357565b909b50995060208c013591508082111561447757600080fd5b6144838d838e016143dc565b909950975060408c013591508082111561449c57600080fd5b506144a98c828d016143dc565b9a9d999c50979a969997986060880135976080810135975060a0013595509350505050565b6000806000806000606086880312156144e657600080fd5b85356144f181614325565b945060208601356001600160401b038082111561450d57600080fd5b61451989838a016143dc565b9096509450604088013591508082111561453257600080fd5b5061453f888289016143dc565b969995985093965092949392505050565b6000806040838503121561456357600080fd5b823561456e81614325565b946020939093013593505050565b6000806040838503121561458f57600080fd5b823561459a81614325565b915060208301356145aa81614325565b809150509250929050565b6000602082840312156145c757600080fd5b5035919050565b600081518084526020808501945080840160005b838110156145fe578151875295820195908201906001016145e2565b509495945050505050565b60005b8381101561462457818101518382015260200161460c565b50506000910152565b60008151808452614645816020860160208601614609565b601f01601f19169290920160200192915050565b602081526146736020820183516001600160a01b03169052565b60006020830151614688604084018215159052565b506040830151606083015260608301516080830152608083015160a083015260a08301516146c160c08401826001600160a01b03169052565b5060c08301516001600160a01b03811660e08401525060e083015161020061010081818601526146f56102208601846145ce565b90860151909250610120614713868201836001600160a01b03169052565b80870151915050601f19610140818786030181880152614733858461462d565b945080880151925050610160818786030181880152614752858461462d565b9450808801519250506101808281880152808801519250506101a0818786030181880152614780858461462d565b9450808801519250506101c081878603018188015261479f858461462d565b945080880151925050506101e06147c0818701836001600160a01b03169052565b959095015193019290925250919050565b600080600080600080600060a0888a0312156147ec57600080fd5b87356001600160401b038082111561480357600080fd5b61480f8b838c016143dc565b909950975060208a013591508082111561482857600080fd5b506148358a828b016143dc565b989b979a50986040810135976060820135975060809091013595509350505050565b60008060006060848603121561486c57600080fd5b833561487781614325565b9250602084013561488781614325565b9150604084013561489781614325565b809150509250925092565b600080604083850312156148b557600080fd5b50508035926020909101359150565b602081526000610e56602083018461462d565b634e487b7160e01b600052601160045260246000fd5b8082018082111561143d5761143d6148d7565b838152604060208201819052810182905260006001600160fb1b0383111561492757600080fd5b8260051b8085606085013791909101606001949350505050565b81835281816020850137506000828201602090810191909152601f909101601f19169091010190565b6001600160a01b038816815260a06020820181905260009061498f908301888a614941565b82810360408401526149a2818789614941565b606084019590955250506080015295945050505050565b600181811c908216806149cd57607f821691505b6020821081036149ed57634e487b7160e01b600052602260045260246000fd5b50919050565b634e487b7160e01b600052604160045260246000fd5b601f821115614a5357600081815260208120601f850160051c81016020861015614a305750805b601f850160051c820191505b81811015614a4f57828155600101614a3c565b5050505b505050565b6001600160401b03831115614a6f57614a6f6149f3565b614a8383614a7d83546149b9565b83614a09565b6000601f841160018114614ab75760008515614a9f5750838201355b600019600387901b1c1916600186901b178355613a26565b600083815260209020601f19861690835b82811015614ae85786850135825560209485019460019092019101614ac8565b5086821015614b055760001960f88860031b161c19848701351681555b505060018560011b0183555050505050565b6001600160a01b0386168152606060208201819052600090614b3c9083018688614941565b8281036040840152614b4f818587614941565b98975050505050505050565b634e487b7160e01b600052603260045260246000fd5b600060018201614b8357614b836148d7565b5060010190565b604081526000614b9e604083018688614941565b8281036020840152614bb1818587614941565b979650505050505050565b6000604082018483526020604081850152818551808452606086019150828701935060005b81811015614bfd57845183529383019391830191600101614be1565b5090979650505050505050565b60008154614c17816149b9565b808552602060018381168015614c345760018114614c4e57614c7c565b60ff1985168884015283151560051b880183019550614c7c565b866000528260002060005b85811015614c745781548a8201860152908301908401614c59565b890184019650505b505050505092915050565b6001600160a01b038616815260a060208201819052600090614cab90830187614c0a565b8281036040840152614cbd8187614c0a565b60608401959095525050608001529392505050565b604051608081016001600160401b0381118282101715614cf457614cf46149f3565b60405290565b604051606081016001600160401b0381118282101715614cf457614cf46149f3565b604051601f8201601f191681016001600160401b0381118282101715614d4457614d446149f3565b604052919050565b805163ffffffff81168114614d6057600080fd5b919050565b80516001600160401b0381168114614d6057600080fd5b60008060408385031215614d8f57600080fd5b8251915060208301516001600160401b0380821115614dad57600080fd5b9084019060808287031215614dc157600080fd5b614dc9614cd2565b82518152614dd960208401614d4c565b6020820152604083015160ff81168114614df257600080fd5b6040820152606083015182811115614e0957600080fd5b80840193505086601f840112614e1e57600080fd5b825182811115614e3057614e306149f3565b614e3f60208260051b01614d1c565b8082825260208201915060208360051b870101925089831115614e6157600080fd5b602086015b83811015614f4457805186811115614e7d57600080fd5b8701601f196060828e0382011215614e9457600080fd5b614e9c614cfa565b602083015189811115614eae57600080fd5b8301603f81018f13614ebf57600080fd5b60208101518a811115614ed457614ed46149f3565b614ee5602085601f84011601614d1c565b93508084528f6040828401011115614efc57600080fd5b614f0d816020860160408501614609565b5050818152614f1e60408401614d65565b6020820152614f2f60608401614d4c565b60408201528552505060209283019201614e66565b506060840152509497909650945050505050565b6020808252600890820152674f766572666c6f7760c01b604082015260600190565b600060208284031215614f8c57600080fd5b5051919050565b600060208284031215614fa557600080fd5b81518015158114610e5657600080fd5b600060208284031215614fc757600080fd5b8151610e5681614325565b634e487b7160e01b600052601260045260246000fdfe03666b063f075e29b3926eb82a4d1f7746231db3395483f453e477b56531038e9b779b17422d0df92223018b32b4d1fa46e071723d6817e2486d003becc55f00a2646970667358221220c36992a5e8eec336c7645ae1944d6bb3ebaba21599ab77da4d6db77afc80361664736f6c63430008140033",
  "linkReferences": {},
  "deployedLinkReferences": {}
}