{
  "_format": "hh-sol-artifact-1",
  "contractName": "ArbitratorManager",
  "sourceName": "contracts/core/ArbitratorManager.sol",
  "abi": [
    {
      "inputs": [],
      "stateMutability": "nonpayable",
      "type": "constructor"
    },
    {
      "inputs": [],
      "name": "InvalidInitialization",
      "type": "error"
    },
    {
      "inputs": [],
      "name": "NotInitializing",
      "type": "error"
    },
    {
      "inputs": [
        {
          "internalType": "address",
          "name": "owner",
          "type": "address"
        }
      ],
      "name": "OwnableInvalidOwner",
      "type": "error"
    },
    {
      "inputs": [
        {
          "internalType": "address",
          "name": "account",
          "type": "address"
        }
      ],
      "name": "OwnableUnauthorizedAccount",
      "type": "error"
    },
    {
      "inputs": [],
      "name": "ReentrancyGuardReentrantCall",
      "type": "error"
    },
    {
      "anonymous": false,
      "inputs": [
        {
          "indexed": true,
          "internalType": "address",
          "name": "arbitrator",
          "type": "address"
        },
        {
          "indexed": false,
          "internalType": "uint256",
          "name": "deadline",
          "type": "uint256"
        }
      ],
      "name": "ArbitratorDeadlineUpdated",
      "type": "event"
    },
    {
      "anonymous": false,
      "inputs": [
        {
          "indexed": true,
          "internalType": "address",
          "name": "arbitrator",
          "type": "address"
        },
        {
          "indexed": false,
          "internalType": "uint256",
          "name": "ethFeeRate",
          "type": "uint256"
        },
        {
          "indexed": false,
          "internalType": "uint256",
          "name": "btcFeeRate",
          "type": "uint256"
        }
      ],
      "name": "ArbitratorFeeRateUpdated",
      "type": "event"
    },
    {
      "anonymous": false,
      "inputs": [
        {
          "indexed": true,
          "internalType": "address",
          "name": "arbitrator",
          "type": "address"
        }
      ],
      "name": "ArbitratorFrozen",
      "type": "event"
    },
    {
      "anonymous": false,
      "inputs": [
        {
          "indexed": true,
          "internalType": "address",
          "name": "arbitrator",
          "type": "address"
        }
      ],
      "name": "ArbitratorPaused",
      "type": "event"
    },
    {
      "anonymous": false,
      "inputs": [
        {
          "indexed": true,
          "internalType": "address",
          "name": "arbitrator",
          "type": "address"
        },
        {
          "indexed": true,
          "internalType": "address",
          "name": "operator",
          "type": "address"
        },
        {
          "indexed": false,
          "internalType": "address",
          "name": "revenueAddress",
          "type": "address"
        },
        {
          "indexed": false,
          "internalType": "string",
          "name": "btcAddress",
          "type": "string"
        },
        {
          "indexed": false,
          "internalType": "bytes",
          "name": "btcPubKey",
          "type": "bytes"
        },
        {
          "indexed": false,
          "internalType": "uint256",
          "name": "feeRate",
          "type": "uint256"
        },
        {
          "indexed": false,
          "internalType": "uint256",
          "name": "deadline",
          "type": "uint256"
        }
      ],
      "name": "ArbitratorRegistered",
      "type": "event"
    },
    {
      "anonymous": false,
      "inputs": [
        {
          "indexed": true,
          "internalType": "address",
          "name": "arbitrator",
          "type": "address"
        },
        {
          "indexed": true,
          "internalType": "bytes32",
          "name": "transactionId",
          "type": "bytes32"
        }
      ],
      "name": "ArbitratorReleased",
      "type": "event"
    },
    {
      "anonymous": false,
      "inputs": [
        {
          "indexed": true,
          "internalType": "address",
          "name": "arbitrator",
          "type": "address"
        }
      ],
      "name": "ArbitratorTerminatedWithSlash",
      "type": "event"
    },
    {
      "anonymous": false,
      "inputs": [
        {
          "indexed": true,
          "internalType": "address",
          "name": "arbitrator",
          "type": "address"
        }
      ],
      "name": "ArbitratorUnpaused",
      "type": "event"
    },
    {
      "anonymous": false,
      "inputs": [
        {
          "indexed": true,
          "internalType": "address",
          "name": "arbitrator",
          "type": "address"
        },
        {
          "indexed": true,
          "internalType": "bytes32",
          "name": "transactionId",
          "type": "bytes32"
        }
      ],
      "name": "ArbitratorWorking",
      "type": "event"
    },
    {
      "anonymous": false,
      "inputs": [
        {
          "indexed": true,
          "internalType": "address",
          "name": "assetOracle",
          "type": "address"
        }
      ],
      "name": "AssetOracleUpdated",
      "type": "event"
    },
    {
      "anonymous": false,
      "inputs": [
        {
          "indexed": true,
          "internalType": "address",
          "name": "oldManager",
          "type": "address"
        },
        {
          "indexed": true,
          "internalType": "address",
          "name": "newManager",
          "type": "address"
        }
      ],
      "name": "CompensationManagerUpdated",
      "type": "event"
    },
    {
      "anonymous": false,
      "inputs": [
        {
          "indexed": false,
          "internalType": "uint64",
          "name": "version",
          "type": "uint64"
        }
      ],
      "name": "Initialized",
      "type": "event"
    },
    {
      "anonymous": false,
      "inputs": [
        {
          "indexed": true,
          "internalType": "address",
          "name": "transactionManager",
          "type": "address"
        },
        {
          "indexed": true,
          "internalType": "address",
          "name": "compensationManager",
          "type": "address"
        }
      ],
      "name": "InitializedManager",
      "type": "event"
    },
    {
      "anonymous": false,
      "inputs": [
        {
          "indexed": true,
          "internalType": "address",
          "name": "oldNFTContract",
          "type": "address"
        },
        {
          "indexed": true,
          "internalType": "address",
          "name": "newNFTContract",
          "type": "address"
        }
      ],
      "name": "NFTContractUpdated",
      "type": "event"
    },
    {
      "anonymous": false,
      "inputs": [
        {
          "indexed": true,
          "internalType": "address",
          "name": "arbitrator",
          "type": "address"
        },
        {
          "indexed": true,
          "internalType": "address",
          "name": "operator",
          "type": "address"
        },
        {
          "indexed": false,
          "internalType": "bytes",
          "name": "btcPubKey",
          "type": "bytes"
        },
        {
          "indexed": false,
          "internalType": "string",
          "name": "btcAddress",
          "type": "string"
        }
      ],
      "name": "OperatorSet",
      "type": "event"
    },
    {
      "anonymous": false,
      "inputs": [
        {
          "indexed": true,
          "internalType": "address",
          "name": "previousOwner",
          "type": "address"
        },
        {
          "indexed": true,
          "internalType": "address",
          "name": "newOwner",
          "type": "address"
        }
      ],
      "name": "OwnershipTransferred",
      "type": "event"
    },
    {
      "anonymous": false,
      "inputs": [
        {
          "indexed": true,
          "internalType": "address",
          "name": "arbitrator",
          "type": "address"
        },
        {
          "indexed": false,
          "internalType": "address",
          "name": "ethAddress",
          "type": "address"
        },
        {
          "indexed": false,
          "internalType": "bytes",
          "name": "btcPubKey",
          "type": "bytes"
        },
        {
          "indexed": false,
          "internalType": "string",
          "name": "btcAddress",
          "type": "string"
        }
      ],
      "name": "RevenueAddressesSet",
      "type": "event"
    },
    {
      "anonymous": false,
      "inputs": [
        {
          "indexed": true,
          "internalType": "address",
          "name": "arbitrator",
          "type": "address"
        },
        {
          "indexed": true,
          "internalType": "address",
          "name": "assetAddress",
          "type": "address"
        },
        {
          "indexed": false,
          "internalType": "uint256",
          "name": "amount",
          "type": "uint256"
        },
        {
          "indexed": false,
          "internalType": "uint256[]",
          "name": "nftTokenIds",
          "type": "uint256[]"
        }
      ],
      "name": "StakeAdded",
      "type": "event"
    },
    {
      "anonymous": false,
      "inputs": [
        {
          "indexed": true,
          "internalType": "address",
          "name": "arbitrator",
          "type": "address"
        },
        {
          "indexed": true,
          "internalType": "address",
          "name": "assetAddress",
          "type": "address"
        },
        {
          "indexed": false,
          "internalType": "uint256",
          "name": "amount",
          "type": "uint256"
        }
      ],
      "name": "StakeWithdrawn",
      "type": "event"
    },
    {
      "anonymous": false,
      "inputs": [
        {
          "indexed": true,
          "internalType": "address",
          "name": "oldManager",
          "type": "address"
        },
        {
          "indexed": true,
          "internalType": "address",
          "name": "newManager",
          "type": "address"
        }
      ],
      "name": "TransactionManagerUpdated",
      "type": "event"
    },
    {
      "inputs": [],
      "name": "assetOracle",
      "outputs": [
        {
          "internalType": "contract IAssetOracle",
          "name": "",
          "type": "address"
        }
      ],
      "stateMutability": "view",
      "type": "function"
    },
    {
      "inputs": [],
      "name": "compensationManager",
      "outputs": [
        {
          "internalType": "address",
          "name": "",
          "type": "address"
        }
      ],
      "stateMutability": "view",
      "type": "function"
    },
    {
      "inputs": [],
      "name": "configManager",
      "outputs": [
        {
          "internalType": "contract ConfigManager",
          "name": "",
          "type": "address"
        }
      ],
      "stateMutability": "view",
      "type": "function"
    },
    {
      "inputs": [
        {
          "internalType": "address",
          "name": "arbitrator",
          "type": "address"
        }
      ],
      "name": "frozenArbitrator",
      "outputs": [],
      "stateMutability": "nonpayable",
      "type": "function"
    },
    {
      "inputs": [
        {
          "internalType": "address",
          "name": "arbitratorAddress",
          "type": "address"
        }
      ],
      "name": "getArbitratorInfo",
      "outputs": [
        {
          "components": [
            {
              "internalType": "address",
              "name": "arbitrator",
              "type": "address"
            },
            {
              "internalType": "bool",
              "name": "paused",
              "type": "bool"
            },
            {
              "internalType": "uint256",
              "name": "currentFeeRate",
              "type": "uint256"
            },
            {
              "internalType": "bytes32",
              "name": "activeTransactionId",
              "type": "bytes32"
            },
            {
              "internalType": "uint256",
              "name": "ethAmount",
              "type": "uint256"
            },
            {
              "internalType": "address",
              "name": "erc20Token",
              "type": "address"
            },
            {
              "internalType": "address",
              "name": "nftContract",
              "type": "address"
            },
            {
              "internalType": "uint256[]",
              "name": "nftTokenIds",
              "type": "uint256[]"
            },
            {
              "internalType": "address",
              "name": "operator",
              "type": "address"
            },
            {
              "internalType": "bytes",
              "name": "operatorBtcPubKey",
              "type": "bytes"
            },
            {
              "internalType": "string",
              "name": "operatorBtcAddress",
              "type": "string"
            },
            {
              "internalType": "uint256",
              "name": "deadLine",
              "type": "uint256"
            },
            {
              "internalType": "bytes",
              "name": "revenueBtcPubKey",
              "type": "bytes"
            },
            {
              "internalType": "string",
              "name": "revenueBtcAddress",
              "type": "string"
            },
            {
              "internalType": "address",
              "name": "revenueETHAddress",
              "type": "address"
            },
            {
              "internalType": "uint256",
              "name": "lastSubmittedWorkTime",
              "type": "uint256"
            }
          ],
          "internalType": "struct DataTypes.ArbitratorInfo",
          "name": "",
          "type": "tuple"
        }
      ],
      "stateMutability": "view",
      "type": "function"
    },
    {
      "inputs": [
        {
          "internalType": "address",
          "name": "arbitrator",
          "type": "address"
        }
      ],
      "name": "getArbitratorInfoExt",
      "outputs": [
        {
          "components": [
            {
              "internalType": "uint256",
              "name": "currentBTCFeeRate",
              "type": "uint256"
            }
          ],
          "internalType": "struct DataTypes.ArbitratorInfoExt",
          "name": "",
          "type": "tuple"
        }
      ],
      "stateMutability": "view",
      "type": "function"
    },
    {
      "inputs": [
        {
          "internalType": "address",
          "name": "arbitrator",
          "type": "address"
        }
      ],
      "name": "getAvailableStake",
      "outputs": [
        {
          "internalType": "uint256",
          "name": "",
          "type": "uint256"
        }
      ],
      "stateMutability": "view",
      "type": "function"
    },
    {
      "inputs": [
        {
          "internalType": "uint256",
          "name": "duration",
          "type": "uint256"
        },
        {
          "internalType": "address",
          "name": "arbitrator",
          "type": "address"
        }
      ],
      "name": "getBtcFee",
      "outputs": [
        {
          "internalType": "uint256",
          "name": "fee",
          "type": "uint256"
        }
      ],
      "stateMutability": "view",
      "type": "function"
    },
    {
      "inputs": [
        {
          "internalType": "uint256",
          "name": "duration",
          "type": "uint256"
        },
        {
          "internalType": "address",
          "name": "arbitrator",
          "type": "address"
        }
      ],
      "name": "getFee",
      "outputs": [
        {
          "internalType": "uint256",
          "name": "fee",
          "type": "uint256"
        }
      ],
      "stateMutability": "view",
      "type": "function"
    },
    {
      "inputs": [
        {
          "internalType": "address",
          "name": "arbitrator",
          "type": "address"
        }
      ],
      "name": "getTotalNFTStakeValue",
      "outputs": [
        {
          "internalType": "uint256",
          "name": "",
          "type": "uint256"
        }
      ],
      "stateMutability": "view",
      "type": "function"
    },
    {
      "inputs": [
        {
          "internalType": "address",
          "name": "_transactionManager",
          "type": "address"
        },
        {
          "internalType": "address",
          "name": "_compensationManager",
          "type": "address"
        }
      ],
      "name": "initTransactionAndCompensationManager",
      "outputs": [],
      "stateMutability": "nonpayable",
      "type": "function"
    },
    {
      "inputs": [
        {
          "internalType": "address",
          "name": "_configManager",
          "type": "address"
        },
        {
          "internalType": "address",
          "name": "_nftContract",
          "type": "address"
        },
        {
          "internalType": "address",
          "name": "_nftInfo",
          "type": "address"
        },
        {
          "internalType": "address",
          "name": "_assetOracle",
          "type": "address"
        }
      ],
      "name": "initialize",
      "outputs": [],
      "stateMutability": "nonpayable",
      "type": "function"
    },
    {
      "inputs": [
        {
          "internalType": "address",
          "name": "arbitratorAddress",
          "type": "address"
        }
      ],
      "name": "isActiveArbitrator",
      "outputs": [
        {
          "internalType": "bool",
          "name": "",
          "type": "bool"
        }
      ],
      "stateMutability": "view",
      "type": "function"
    },
    {
      "inputs": [
        {
          "internalType": "address",
          "name": "arbitrator",
          "type": "address"
        }
      ],
      "name": "isConfigModifiable",
      "outputs": [
        {
          "internalType": "bool",
          "name": "",
          "type": "bool"
        }
      ],
      "stateMutability": "view",
      "type": "function"
    },
    {
      "inputs": [
        {
          "internalType": "address",
          "name": "arbitrator",
          "type": "address"
        }
      ],
      "name": "isFrozenStatus",
      "outputs": [
        {
          "internalType": "bool",
          "name": "",
          "type": "bool"
        }
      ],
      "stateMutability": "view",
      "type": "function"
    },
    {
      "inputs": [
        {
          "internalType": "address",
          "name": "arbitrator",
          "type": "address"
        },
        {
          "internalType": "address",
          "name": "operator",
          "type": "address"
        }
      ],
      "name": "isOperatorOf",
      "outputs": [
        {
          "internalType": "bool",
          "name": "",
          "type": "bool"
        }
      ],
      "stateMutability": "view",
      "type": "function"
    },
    {
      "inputs": [
        {
          "internalType": "address",
          "name": "arbitrator",
          "type": "address"
        }
      ],
      "name": "isPaused",
      "outputs": [
        {
          "internalType": "bool",
          "name": "",
          "type": "bool"
        }
      ],
      "stateMutability": "view",
      "type": "function"
    },
    {
      "inputs": [],
      "name": "nftContract",
      "outputs": [
        {
          "internalType": "contract IERC721",
          "name": "",
          "type": "address"
        }
      ],
      "stateMutability": "view",
      "type": "function"
    },
    {
      "inputs": [],
      "name": "nftInfo",
      "outputs": [
        {
          "internalType": "contract IBNFTInfo",
          "name": "",
          "type": "address"
        }
      ],
      "stateMutability": "view",
      "type": "function"
    },
    {
      "inputs": [],
      "name": "owner",
      "outputs": [
        {
          "internalType": "address",
          "name": "",
          "type": "address"
        }
      ],
      "stateMutability": "view",
      "type": "function"
    },
    {
      "inputs": [],
      "name": "pause",
      "outputs": [],
      "stateMutability": "nonpayable",
      "type": "function"
    },
    {
      "inputs": [
        {
          "internalType": "string",
          "name": "defaultBtcAddress",
          "type": "string"
        },
        {
          "internalType": "bytes",
          "name": "defaultBtcPubKey",
          "type": "bytes"
        },
        {
          "internalType": "uint256",
          "name": "feeRate",
          "type": "uint256"
        },
        {
          "internalType": "uint256",
          "name": "btcFeeRate",
          "type": "uint256"
        },
        {
          "internalType": "uint256",
          "name": "deadline",
          "type": "uint256"
        }
      ],
      "name": "registerArbitratorByStakeETH",
      "outputs": [],
      "stateMutability": "payable",
      "type": "function"
    },
    {
      "inputs": [
        {
          "internalType": "uint256[]",
          "name": "tokenIds",
          "type": "uint256[]"
        },
        {
          "internalType": "string",
          "name": "defaultBtcAddress",
          "type": "string"
        },
        {
          "internalType": "bytes",
          "name": "defaultBtcPubKey",
          "type": "bytes"
        },
        {
          "internalType": "uint256",
          "name": "feeRate",
          "type": "uint256"
        },
        {
          "internalType": "uint256",
          "name": "btcFeeRate",
          "type": "uint256"
        },
        {
          "internalType": "uint256",
          "name": "deadline",
          "type": "uint256"
        }
      ],
      "name": "registerArbitratorByStakeNFT",
      "outputs": [],
      "stateMutability": "nonpayable",
      "type": "function"
    },
    {
      "inputs": [
        {
          "internalType": "address",
          "name": "arbitrator",
          "type": "address"
        },
        {
          "internalType": "bytes32",
          "name": "transactionId",
          "type": "bytes32"
        }
      ],
      "name": "releaseArbitrator",
      "outputs": [],
      "stateMutability": "nonpayable",
      "type": "function"
    },
    {
      "inputs": [],
      "name": "renounceOwnership",
      "outputs": [],
      "stateMutability": "nonpayable",
      "type": "function"
    },
    {
      "inputs": [
        {
          "internalType": "uint256",
          "name": "deadline",
          "type": "uint256"
        }
      ],
      "name": "setArbitratorDeadline",
      "outputs": [],
      "stateMutability": "nonpayable",
      "type": "function"
    },
    {
      "inputs": [
        {
          "internalType": "address",
          "name": "arbitrator",
          "type": "address"
        },
        {
          "internalType": "bytes32",
          "name": "transactionId",
          "type": "bytes32"
        }
      ],
      "name": "setArbitratorWorking",
      "outputs": [],
      "stateMutability": "nonpayable",
      "type": "function"
    },
    {
      "inputs": [
        {
          "internalType": "address",
          "name": "_assetOracle",
          "type": "address"
        }
      ],
      "name": "setAssetOracle",
      "outputs": [],
      "stateMutability": "nonpayable",
      "type": "function"
    },
    {
      "inputs": [
        {
          "internalType": "address",
          "name": "_compensationManager",
          "type": "address"
        }
      ],
      "name": "setCompensationManager",
      "outputs": [],
      "stateMutability": "nonpayable",
      "type": "function"
    },
    {
      "inputs": [
        {
          "internalType": "uint256",
          "name": "ethFeeRate",
          "type": "uint256"
        },
        {
          "internalType": "uint256",
          "name": "btcFeeRate",
          "type": "uint256"
        }
      ],
      "name": "setFeeRates",
      "outputs": [],
      "stateMutability": "nonpayable",
      "type": "function"
    },
    {
      "inputs": [
        {
          "internalType": "address",
          "name": "_nftContract",
          "type": "address"
        }
      ],
      "name": "setNFTContract",
      "outputs": [],
      "stateMutability": "nonpayable",
      "type": "function"
    },
    {
      "inputs": [
        {
          "internalType": "address",
          "name": "operator",
          "type": "address"
        },
        {
          "internalType": "bytes",
          "name": "btcPubKey",
          "type": "bytes"
        },
        {
          "internalType": "string",
          "name": "btcAddress",
          "type": "string"
        }
      ],
      "name": "setOperator",
      "outputs": [],
      "stateMutability": "nonpayable",
      "type": "function"
    },
    {
      "inputs": [
        {
          "internalType": "address",
          "name": "ethAddress",
          "type": "address"
        },
        {
          "internalType": "bytes",
          "name": "btcPubKey",
          "type": "bytes"
        },
        {
          "internalType": "string",
          "name": "btcAddress",
          "type": "string"
        }
      ],
      "name": "setRevenueAddresses",
      "outputs": [],
      "stateMutability": "nonpayable",
      "type": "function"
    },
    {
      "inputs": [
        {
          "internalType": "address",
          "name": "_transactionManager",
          "type": "address"
        }
      ],
      "name": "setTransactionManager",
      "outputs": [],
      "stateMutability": "nonpayable",
      "type": "function"
    },
    {
      "inputs": [],
      "name": "stakeETH",
      "outputs": [],
      "stateMutability": "payable",
      "type": "function"
    },
    {
      "inputs": [
        {
          "internalType": "uint256[]",
          "name": "tokenIds",
          "type": "uint256[]"
        }
      ],
      "name": "stakeNFT",
      "outputs": [],
      "stateMutability": "nonpayable",
      "type": "function"
    },
    {
      "inputs": [
        {
          "internalType": "address",
          "name": "arbitrator",
          "type": "address"
        }
      ],
      "name": "terminateArbitratorWithSlash",
      "outputs": [],
      "stateMutability": "nonpayable",
      "type": "function"
    },
    {
      "inputs": [],
      "name": "transactionManager",
      "outputs": [
        {
          "internalType": "address",
          "name": "",
          "type": "address"
        }
      ],
      "stateMutability": "view",
      "type": "function"
    },
    {
      "inputs": [
        {
          "internalType": "address",
          "name": "newOwner",
          "type": "address"
        }
      ],
      "name": "transferOwnership",
      "outputs": [],
      "stateMutability": "nonpayable",
      "type": "function"
    },
    {
      "inputs": [],
      "name": "unpause",
      "outputs": [],
      "stateMutability": "nonpayable",
      "type": "function"
    },
    {
      "inputs": [],
      "name": "unstake",
      "outputs": [],
      "stateMutability": "nonpayable",
      "type": "function"
    },
    {
      "inputs": [],
      "name": "zeroAddress",
      "outputs": [
        {
          "internalType": "address",
          "name": "",
          "type": "address"
        }
      ],
      "stateMutability": "view",
      "type": "function"
    }
  ],
  "bytecode": "0x60806040523480156200001157600080fd5b506200001c62000022565b620000d6565b7ff0c57e16840df040f15088dc2f81fe391c3923bec73e23a9662efc9c229c6a00805468010000000000000000900460ff1615620000735760405163f92ee8a960e01b815260040160405180910390fd5b80546001600160401b0390811614620000d35780546001600160401b0319166001600160401b0390811782556040519081527fc7f505b2f371ae2175ee4913f4499e1f2633a7b5936321eed1cdaeb6115181d29060200160405180910390a15b50565b615ab580620000e66000396000f3fe6080604052600436106102515760003560e01c80638da5cb5b11610139578063cedb588b116100b6578063dfcf048d1161007a578063dfcf048d1461073f578063e25268d21461075f578063e2b4efb81461077f578063f2fde38b1461079f578063f8c8765e146107bf578063feaca583146107df57600080fd5b8063cedb588b146106b7578063d2b6f74b146106d7578063d3f414e0146106f7578063d56d229d14610717578063dceb986d1461073757600080fd5b8063a7ccabdf116100fd578063a7ccabdf146105d9578063b1130fd9146105f9578063b553fe1e14610657578063b6ca3e0714610677578063ca0ab0751461069757600080fd5b80638da5cb5b1461051c57806399056c3c14610559578063998b2fd8146105865780639b8b780f146105a65780639f7ca8dd146105b957600080fd5b80632ce4e8f5116101d257806344019f7e1161019657806344019f7e146104525780634476a660146104725780635b14f18314610492578063654b4e83146104d2578063715018a6146104f25780638456cb591461050757600080fd5b80632ce4e8f5146103c85780632def6620146103e857806339c25e2c146103fd5780633b7164521461041d5780633f4ba83a1461043d57600080fd5b80631d4d3a5d116102195780631d4d3a5d146103185780631e57b87514610338578063291112511461035857806329a3f203146103885780632b2d37da146103a857600080fd5b80630559b877146102565780630930907b146102935780630b1fa61c146102a857806314f6b190146102ca578063182c5744146102f8575b600080fd5b34801561026257600080fd5b50600554610276906001600160a01b031681565b6040516001600160a01b0390911681526020015b60405180910390f35b34801561029f57600080fd5b50610276600081565b3480156102b457600080fd5b506102c86102c3366004614d22565b6107ff565b005b3480156102d657600080fd5b506102ea6102e5366004614d22565b6108a0565b60405190815260200161028a565b34801561030457600080fd5b506102c8610313366004614d83565b610c1a565b34801561032457600080fd5b50600754610276906001600160a01b031681565b34801561034457600080fd5b506102c8610353366004614e05565b610d4f565b34801561036457600080fd5b50610378610373366004614d22565b610ea8565b604051901515815260200161028a565b34801561039457600080fd5b506102c86103a3366004614eb6565b611247565b3480156103b457600080fd5b506102c86103c3366004614f38565b611360565b3480156103d457600080fd5b506102c86103e3366004614d22565b61147a565b3480156103f457600080fd5b506102c861150a565b34801561040957600080fd5b50610378610418366004614f64565b611893565b34801561042957600080fd5b50600454610276906001600160a01b031681565b34801561044957600080fd5b506102c86118bd565b34801561045e57600080fd5b506102c861046d366004614f9d565b611989565b34801561047e57600080fd5b506102c861048d366004614d22565b611a9b565b34801561049e57600080fd5b506103786104ad366004614d22565b6001600160a01b0316600090815260036020526040902054600160a01b900460ff1690565b3480156104de57600080fd5b506102c86104ed366004614eb6565b611b33565b3480156104fe57600080fd5b506102c8611c9c565b34801561051357600080fd5b506102c8611cae565b34801561052857600080fd5b507f9016d09d72d40fdae2fd8ceac6b6234c7706214fd39c1cd1e609a0528c199300546001600160a01b0316610276565b34801561056557600080fd5b50610579610574366004614d22565b611d7d565b60405161028a9190615041565b34801561059257600080fd5b506102c86105a1366004614d22565b612153565b6102c86105b43660046151b9565b61249e565b3480156105c557600080fd5b506103786105d4366004614d22565b612582565b3480156105e557600080fd5b506102c86105f4366004614d22565b61291d565b34801561060557600080fd5b50610648610614366004614d22565b60408051602080820183526000918290526001600160a01b0393909316815260068352819020815192830190915254815290565b6040519051815260200161028a565b34801561066357600080fd5b50600254610276906001600160a01b031681565b34801561068357600080fd5b506102ea61069236600461523f565b6129b5565b3480156106a357600080fd5b50600054610276906001600160a01b031681565b3480156106c357600080fd5b506102c86106d2366004614f38565b6129ff565b3480156106e357600080fd5b506102c86106f2366004614f64565b612b17565b34801561070357600080fd5b506102c8610712366004614d22565b612c1f565b34801561072357600080fd5b50600154610276906001600160a01b031681565b6102c8612d6b565b34801561074b57600080fd5b506102ea61075a36600461523f565b612e6f565b34801561076b57600080fd5b506102ea61077a366004614d22565b612e96565b34801561078b57600080fd5b5061037861079a366004614d22565b613342565b3480156107ab57600080fd5b506102c86107ba366004614d22565b613814565b3480156107cb57600080fd5b506102c86107da366004615264565b613852565b3480156107eb57600080fd5b506102c86107fa3660046152c0565b613a2a565b610807613d32565b6001600160a01b03811661084e57604080518082018252600281526105a360f41b6020820152905162461bcd60e51b815261084591906004016152e2565b60405180910390fd5b600480546001600160a01b038381166001600160a01b0319831681179093556040519116919082907f960d9803c7ca631d3232d16e9971c7fd8e82d5f7ff7c2824c7b29dcab8a37d2e90600090a35050565b6001600160a01b03818116600090815260036020818152604080842081516102008101835281548088168252600160a01b900460ff16151581850152600182015481840152600282015460608201529381015460808501526004810154861660a0850152600581015490951660c084015260068501805482518185028101850190935280835294958695909360e086019392919083018282801561096357602002820191906000526020600020905b81548152602001906001019080831161094f575b505050918352505060078201546001600160a01b03166020820152600882018054604090920191610993906152f5565b80601f01602080910402602001604051908101604052809291908181526020018280546109bf906152f5565b8015610a0c5780601f106109e157610100808354040283529160200191610a0c565b820191906000526020600020905b8154815290600101906020018083116109ef57829003601f168201915b50505050508152602001600982018054610a25906152f5565b80601f0160208091040260200160405190810160405280929190818152602001828054610a51906152f5565b8015610a9e5780601f10610a7357610100808354040283529160200191610a9e565b820191906000526020600020905b815481529060010190602001808311610a8157829003601f168201915b50505050508152602001600a8201548152602001600b82018054610ac1906152f5565b80601f0160208091040260200160405190810160405280929190818152602001828054610aed906152f5565b8015610b3a5780601f10610b0f57610100808354040283529160200191610b3a565b820191906000526020600020905b815481529060010190602001808311610b1d57829003601f168201915b50505050508152602001600c82018054610b53906152f5565b80601f0160208091040260200160405190810160405280929190818152602001828054610b7f906152f5565b8015610bcc5780601f10610ba157610100808354040283529160200191610bcc565b820191906000526020600020905b815481529060010190602001808311610baf57829003601f168201915b5050509183525050600d8201546001600160a01b03166020820152600e9091015460409091015290506000610c0084612e96565b9050808260800151610c129190615345565b949350505050565b6000819003610c53576040805180820182526002815261453560f01b6020820152905162461bcd60e51b815261084591906004016152e2565b33600090815260036020526040902080546001600160a01b0316610ca1576040805180820182526002815261209960f11b6020820152905162461bcd60e51b815261084591906004016152e2565b610caa33612582565b610cde576040805180820182526002815261043360f41b6020820152905162461bcd60e51b815261084591906004016152e2565b6000610cea8484613d8d565b9050610cf782858561403d565b610d05826003015482614274565b610d0e826144a6565b6001546040516001600160a01b03909116903390600080516020615a4083398151915290610d4190859089908990615358565b60405180910390a350505050565b610d57614529565b6000889003610d90576040805180820182526002815261453560f01b6020820152905162461bcd60e51b815261084591906004016152e2565b6000610da23389898989898989614561565b90506000610db08b8b613d8d565b9050610dbd828c8c61403d565b610dcb826003015482614274565b610dd4826144a6565b600160009054906101000a90046001600160a01b03166001600160a01b0316336001600160a01b0316600080516020615a40833981519152838e8e604051610e1e93929190615358565b60405180910390a36007820154600d8301546040516001600160a01b039283169233927f1ab9d0508879cf64270650fc89b30617972d694fd1053946f028860daf125c7c92610e7c92909116908e908e908e908e908e908d906153c2565b60405180910390a35050610e9d6001600080516020615a6083398151915255565b505050505050505050565b6001600160a01b03818116600090815260036020818152604080842081516102008101835281548088168252600160a01b900460ff16151581850152600182015481840152600282015460608201529381015460808501526004810154861660a0850152600581015490951660c084015260068501805482518185028101850190935280835294958695909360e0860193929190830182828015610f6b57602002820191906000526020600020905b815481526020019060010190808311610f57575b505050918352505060078201546001600160a01b03166020820152600882018054604090920191610f9b906152f5565b80601f0160208091040260200160405190810160405280929190818152602001828054610fc7906152f5565b80156110145780601f10610fe957610100808354040283529160200191611014565b820191906000526020600020905b815481529060010190602001808311610ff757829003601f168201915b5050505050815260200160098201805461102d906152f5565b80601f0160208091040260200160405190810160405280929190818152602001828054611059906152f5565b80156110a65780601f1061107b576101008083540402835291602001916110a6565b820191906000526020600020905b81548152906001019060200180831161108957829003601f168201915b50505050508152602001600a8201548152602001600b820180546110c9906152f5565b80601f01602080910402602001604051908101604052809291908181526020018280546110f5906152f5565b80156111425780601f1061111757610100808354040283529160200191611142565b820191906000526020600020905b81548152906001019060200180831161112557829003601f168201915b50505050508152602001600c8201805461115b906152f5565b80601f0160208091040260200160405190810160405280929190818152602001828054611187906152f5565b80156111d45780601f106111a9576101008083540402835291602001916111d4565b820191906000526020600020905b8154815290600101906020018083116111b757829003601f168201915b5050509183525050600d8201546001600160a01b039081166020830152600e90920154604090910152815191925016611237576040805180820182526002815261209960f11b6020820152905162461bcd60e51b815261084591906004016152e2565b61124081614682565b9392505050565b33600090815260036020526040902080546001600160a01b0316611295576040805180820182526002815261209960f11b6020820152905162461bcd60e51b815261084591906004016152e2565b61129e33612582565b6112d2576040805180820182526002815261043360f41b6020820152905162461bcd60e51b815261084591906004016152e2565b600d810180546001600160a01b0319166001600160a01b038816179055600b81016112fe858783615476565b50600c810161130e838583615476565b50336001600160a01b03167f8e68353cf53df77c6b6993341bb1d784fab04f2f38b2c51654b51de6ce32274e8787878787604051611350959493929190615535565b60405180910390a2505050505050565b6004546001600160a01b031633146113a25760408051808201825260028152614e3160f01b6020820152905162461bcd60e51b815261084591906004016152e2565b600554600160a01b900460ff166113e35760408051808201825260028152614e3560f01b6020820152905162461bcd60e51b815261084591906004016152e2565b6001600160a01b038216600090815260036020526040902061140483613342565b611438576040805180820182526002815261413360f01b6020820152905162461bcd60e51b815261084591906004016152e2565b6002810182905560405182906001600160a01b038516907f43b9442ba3328a37dad0041120b36563dafcdbdb7b200665d8cbb0c44982720c90600090a3505050565b611482613d32565b6001600160a01b0381166114c057604080518082018252600281526105a360f41b6020820152905162461bcd60e51b815261084591906004016152e2565b600780546001600160a01b0319166001600160a01b0383169081179091556040517f045dafc7c4ca3d05de630e8253620f7b16675301ba6b6040a6590090bb28037790600090a250565b611512614529565b3360009081526003602052604090206002810154156115675760405162461bcd60e51b815260206004820152601160248201527041726269747261746f72576f726b696e6760781b6044820152606401610845565b336000908152600360205260409020805461158a906001600160a01b0316612582565b6115be576040805180820182526002815261533160f01b6020820152905162461bcd60e51b815261084591906004016152e2565b6000816003015411806115d45750600681015415155b61160a5760405162461bcd60e51b81526020600482015260076024820152664e6f5374616b6560c81b6044820152606401610845565b600381018054600090915560058201546001600160a01b0316158015906116345750600682015415155b156117ae5760008260060180548060200260200160405190810160405280929190818152602001828054801561168957602002820191906000526020600020905b815481526020019060010190808311611675575b509394506000935061169a92505050565b6040519080825280602002602001820160405280156116c3578160200160208202803683370190505b5080516116da916006860191602090910190614cad565b506005830180546001600160a01b031916905560005b81518110156117ab5760015482516001600160a01b03909116906323b872dd903090339086908690811061172657611726615579565b60209081029190910101516040516001600160e01b031960e086901b1681526001600160a01b0393841660048201529290911660248301526044820152606401600060405180830381600087803b15801561178057600080fd5b505af1158015611794573d6000803e3d6000fd5b5050505080806117a39061558f565b9150506116f0565b50505b801561183f57604051600090339083908381818185875af1925050503d80600081146117f6576040519150601f19603f3d011682016040523d82523d6000602084013e6117fb565b606091505b505090508061183d5760405162461bcd60e51b815260206004820152600e60248201526d151c985b9cd9995c91985a5b195960921b6044820152606401610845565b505b60405181815260009033907fb7c918e0e249f999e965cafeb6c664271b3f4317d296461500e71da39f0cbda39060200160405180910390a35050506118916001600080516020615a6083398151915255565b565b6001600160a01b038281166000908152600360205260409020600701548116908216145b92915050565b33600090815260036020526040902080546001600160a01b031661190b576040805180820182526002815261209960f11b6020820152905162461bcd60e51b815261084591906004016152e2565b8054600160a01b900460ff166119505760405162461bcd60e51b815260206004820152600a6024820152691b9bdd081c185d5cd95960b21b6044820152606401610845565b805460ff60a01b1916815560405133907f9f71f687820b75e4208e6fdd2091be151d94465fe4bafd2506bed2b9a430437d90600090a250565b4281116119c0576040805180820182526002815261543360f01b6020820152905162461bcd60e51b815261084591906004016152e2565b33600090815260036020526040902080546001600160a01b0316611a0e576040805180820182526002815261209960f11b6020820152905162461bcd60e51b815261084591906004016152e2565b600081600a0154118015611a26575080600a01548211155b15611a5b576040805180820182526002815261543360f01b6020820152905162461bcd60e51b815261084591906004016152e2565b600a810182905560405182815233907fff191d17033fc90a7dae896652cf93df6f261bc4176c000d0e5e21345b139ccb9060200160405180910390a25050565b611aa3613d32565b6001600160a01b038116611ae157604080518082018252600281526105a360f41b6020820152905162461bcd60e51b815261084591906004016152e2565b600580546001600160a01b038381166001600160a01b0319831681179093556040519116919082907fb2de57cf284062a9a3402f8683281c49d5a6747b1f369d0eec883b83503f3c8d90600090a35050565b6001600160a01b038516611b7b5760405162461bcd60e51b815260206004820152600f60248201526e24b73b30b634b227b832b930ba37b960891b6044820152606401610845565b611b8433612582565b611bb8576040805180820182526002815261043360f41b6020820152905162461bcd60e51b815261084591906004016152e2565b33600090815260036020526040902080546001600160a01b0316611c06576040805180820182526002815261209960f11b6020820152905162461bcd60e51b815261084591906004016152e2565b6007810180546001600160a01b0319166001600160a01b03881617905560088101611c32858783615476565b5060098101611c42838583615476565b50856001600160a01b0316336001600160a01b03167ff920b7832d3774e2ac2efb86fccb411bc92e19a8ea66687764dea93140bdad4a87878787604051611c8c94939291906155a8565b60405180910390a3505050505050565b611ca4613d32565b6118916000614732565b33600090815260036020526040902080546001600160a01b0316611cfc576040805180820182526002815261209960f11b6020820152905162461bcd60e51b815261084591906004016152e2565b611d0533613342565b611d3e5760405162461bcd60e51b815260206004820152600a6024820152694e6f742061637469766560b01b6044820152606401610845565b805460ff60a01b1916600160a01b17815560405133907ff8f74f9bb1ed360c36a0bd59e0d8aa5cbdd15bb6e8e86af871f343daf432be2290600090a250565b604080516102008101825260008082526020820181905291810182905260608082018390526080820183905260a0820183905260c0820183905260e08201819052610100820183905261012082018190526101408201819052610160820183905261018082018190526101a08201526101c081018290526101e08101919091526001600160a01b0382811660009081526003602081815260409283902083516102008101855281548087168252600160a01b900460ff16151581840152600182015481860152600282015460608201529281015460808401526004810154851660a0840152600581015490941660c083015260068401805484518184028101840190955280855292949360e08601939092830182828015611ebd57602002820191906000526020600020905b815481526020019060010190808311611ea9575b505050918352505060078201546001600160a01b03166020820152600882018054604090920191611eed906152f5565b80601f0160208091040260200160405190810160405280929190818152602001828054611f19906152f5565b8015611f665780601f10611f3b57610100808354040283529160200191611f66565b820191906000526020600020905b815481529060010190602001808311611f4957829003601f168201915b50505050508152602001600982018054611f7f906152f5565b80601f0160208091040260200160405190810160405280929190818152602001828054611fab906152f5565b8015611ff85780601f10611fcd57610100808354040283529160200191611ff8565b820191906000526020600020905b815481529060010190602001808311611fdb57829003601f168201915b50505050508152602001600a8201548152602001600b8201805461201b906152f5565b80601f0160208091040260200160405190810160405280929190818152602001828054612047906152f5565b80156120945780601f1061206957610100808354040283529160200191612094565b820191906000526020600020905b81548152906001019060200180831161207757829003601f168201915b50505050508152602001600c820180546120ad906152f5565b80601f01602080910402602001604051908101604052809291908181526020018280546120d9906152f5565b80156121265780601f106120fb57610100808354040283529160200191612126565b820191906000526020600020905b81548152906001019060200180831161210957829003601f168201915b5050509183525050600d8201546001600160a01b03166020820152600e9091015460409091015292915050565b6005546001600160a01b031633146121955760408051808201825260028152614e3760f01b6020820152905162461bcd60e51b815261084591906004016152e2565b600554600160a01b900460ff166121d65760408051808201825260028152614e3560f01b6020820152905162461bcd60e51b815261084591906004016152e2565b6001600160a01b0380821660009081526003602052604090208054909116612228576040805180820182526002815261209960f11b6020820152905162461bcd60e51b815261084591906004016152e2565b600381015480156122c8576000600383018190556005546040516001600160a01b039091169083908381818185875af1925050503d8060008114612288576040519150601f19603f3d011682016040523d82523d6000602084013e61228d565b606091505b50509050806122c6576040805180820182526002815261463160f01b6020820152905162461bcd60e51b815261084591906004016152e2565b505b60058201546001600160a01b0316158015906122e75750600682015415155b156124655760008260060180548060200260200160405190810160405280929190818152602001828054801561233c57602002820191906000526020600020905b815481526020019060010190808311612328575b509394506000935061234d92505050565b604051908082528060200260200182016040528015612376578160200160208202803683370190505b50805161238d916006860191602090910190614cad565b506005830180546001600160a01b031916905560005b81518110156124625760015460055483516001600160a01b03928316926323b872dd9230929116908690869081106123dd576123dd615579565b60209081029190910101516040516001600160e01b031960e086901b1681526001600160a01b0393841660048201529290911660248301526044820152606401600060405180830381600087803b15801561243757600080fd5b505af115801561244b573d6000803e3d6000fd5b50505050808061245a9061558f565b9150506123a3565b50505b6040516001600160a01b038416907fc0c6efb1c6f315e6721ba44dc1a435e4ca9a730d45f3caf4a67c43b22ca008a290600090a2505050565b60006124b03389898989898989614561565b90506124bd346000614274565b348160030160008282546124d19190615345565b909155505080546040805160008082526020820192839052926001600160a01b031691600080516020615a4083398151915291612510913491906155da565b60405180910390a36007810154600d8201546040516001600160a01b039283169233927f1ab9d0508879cf64270650fc89b30617972d694fd1053946f028860daf125c7c926125709290911690600c870190600b8801908b908a906156a5565b60405180910390a35050505050505050565b6001600160a01b03818116600090815260036020818152604080842081516102008101835281548088168252600160a01b900460ff16151581850152600182015481840152600282015460608201529381015460808501526004810154861660a0850152600581015490951660c084015260068501805482518185028101850190935280835294958695909360e086019392919083018282801561264557602002820191906000526020600020905b815481526020019060010190808311612631575b505050918352505060078201546001600160a01b03166020820152600882018054604090920191612675906152f5565b80601f01602080910402602001604051908101604052809291908181526020018280546126a1906152f5565b80156126ee5780601f106126c3576101008083540402835291602001916126ee565b820191906000526020600020905b8154815290600101906020018083116126d157829003601f168201915b50505050508152602001600982018054612707906152f5565b80601f0160208091040260200160405190810160405280929190818152602001828054612733906152f5565b80156127805780601f1061275557610100808354040283529160200191612780565b820191906000526020600020905b81548152906001019060200180831161276357829003601f168201915b50505050508152602001600a8201548152602001600b820180546127a3906152f5565b80601f01602080910402602001604051908101604052809291908181526020018280546127cf906152f5565b801561281c5780601f106127f15761010080835404028352916020019161281c565b820191906000526020600020905b8154815290600101906020018083116127ff57829003601f168201915b50505050508152602001600c82018054612835906152f5565b80601f0160208091040260200160405190810160405280929190818152602001828054612861906152f5565b80156128ae5780601f10612883576101008083540402835291602001916128ae565b820191906000526020600020905b81548152906001019060200180831161289157829003601f168201915b5050509183525050600d8201546001600160a01b039081166020830152600e909201546040909101528151919250166128ea5750600092915050565b6060810151156128fd5750600092915050565b61290681614682565b156129145750600092915050565b50600192915050565b612925613d32565b6001600160a01b03811661296357604080518082018252600281526105a360f41b6020820152905162461bcd60e51b815261084591906004016152e2565b600180546001600160a01b038381166001600160a01b0319831681179093556040519116919082907fab9636faa03b42a52a353eb86f070f1ac15b69f0bc419fba63d07b5d996edad790600090a35050565b6001600160a01b03811660009081526006602052604081205480156129f55760006129e18483876147a3565b90506129ec816147e9565b925050506118b7565b5060009392505050565b6004546001600160a01b03163314612a415760408051808201825260028152614e3160f01b6020820152905162461bcd60e51b815261084591906004016152e2565b600554600160a01b900460ff16612a825760408051808201825260028152614e3560f01b6020820152905162461bcd60e51b815261084591906004016152e2565b6001600160a01b038216600090815260036020526040902060028101548214612ad55760408051808201825260028152612a1b60f11b6020820152905162461bcd60e51b815261084591906004016152e2565b60006002820181905560405183916001600160a01b038616917fec0516e78db51665510a6ab319cb07cbb5b1e66d1de10f9abd1994eaaa555b309190a3505050565b612b1f613d32565b600554600160a01b900460ff1615612b61576040805180820182526002815261041360f41b6020820152905162461bcd60e51b815261084591906004016152e2565b6001600160a01b0382161580612b7e57506001600160a01b038116155b15612bb357604080518082018252600281526105a360f41b6020820152905162461bcd60e51b815261084591906004016152e2565b600480546001600160a01b038085166001600160a01b03199092168217909255600580546001600160a81b03191684841617600160a01b17908190556040519216917f255c9edca3ea4cd6ff3c64c4cd7a5f812c6ae0ca0ae939f85e9e3eb49cdb416f90600090a35050565b6004546001600160a01b03163314612c615760408051808201825260028152614e3160f01b6020820152905162461bcd60e51b815261084591906004016152e2565b600554600160a01b900460ff16612ca25760408051808201825260028152614e3560f01b6020820152905162461bcd60e51b815261084591906004016152e2565b6001600160a01b0380821660009081526003602052604090208054909116612cf4576040805180820182526002815261209960f11b6020820152905162461bcd60e51b815261084591906004016152e2565b6002810154612d2d576040805180820182526002815261413560f01b6020820152905162461bcd60e51b815261084591906004016152e2565b42600e8201556040516001600160a01b038316907fb5c433aa54e775c63ae22f75b359af0e25c57eddd9bb55eb71445b74b523bfa890600090a25050565b33600090815260036020526040902080546001600160a01b0316612db9576040805180820182526002815261209960f11b6020820152905162461bcd60e51b815261084591906004016152e2565b612dc233612582565b612df6576040805180820182526002815261043360f41b6020820152905162461bcd60e51b815261084591906004016152e2565b6000612e0133612e96565b90506000348360030154612e159190615345565b600384018190559050612e288183614274565b82546040805160008082526020820192839052926001600160a01b031691600080516020615a4083398151915291612e62913491906155da565b60405180910390a3505050565b6001600160a01b038116600090815260036020526040812060010154610c128382866147a3565b6001600160a01b03818116600090815260036020818152604080842081516102008101835281548088168252600160a01b900460ff16151581850152600182015481840152600282015460608201529381015460808501526004810154861660a0850152600581015490951660c084015260068501805482518185028101850190935280835294958695909360e0860193929190830182828015612f5957602002820191906000526020600020905b815481526020019060010190808311612f45575b505050918352505060078201546001600160a01b03166020820152600882018054604090920191612f89906152f5565b80601f0160208091040260200160405190810160405280929190818152602001828054612fb5906152f5565b80156130025780601f10612fd757610100808354040283529160200191613002565b820191906000526020600020905b815481529060010190602001808311612fe557829003601f168201915b5050505050815260200160098201805461301b906152f5565b80601f0160208091040260200160405190810160405280929190818152602001828054613047906152f5565b80156130945780601f1061306957610100808354040283529160200191613094565b820191906000526020600020905b81548152906001019060200180831161307757829003601f168201915b50505050508152602001600a8201548152602001600b820180546130b7906152f5565b80601f01602080910402602001604051908101604052809291908181526020018280546130e3906152f5565b80156131305780601f1061310557610100808354040283529160200191613130565b820191906000526020600020905b81548152906001019060200180831161311357829003601f168201915b50505050508152602001600c82018054613149906152f5565b80601f0160208091040260200160405190810160405280929190818152602001828054613175906152f5565b80156131c25780601f10613197576101008083540402835291602001916131c2565b820191906000526020600020905b8154815290600101906020018083116131a557829003601f168201915b5050509183525050600d8201546001600160a01b03166020820152600e9091015460409091015290506000805b8260e001515181101561333a5760025460e084015180516000926001600160a01b03169163d5ec2d83918590811061322957613229615579565b60200260200101516040518263ffffffff1660e01b815260040161324f91815260200190565b600060405180830381865afa15801561326c573d6000803e3d6000fd5b505050506040513d6000823e601f3d908101601f19168201604052613294919081019061579a565b91505060005b816060015151811015613325576000806132e3846060015184815181106132c3576132c3615579565b6020026020010151602001516001600160401b03166402540be400614944565b91509150816133045760405162461bcd60e51b815260040161084590615976565b61330e8187615345565b95505050808061331d9061558f565b91505061329a565b505080806133329061558f565b9150506131ef565b509392505050565b6001600160a01b0381166000908152600360205260408120600a8101541580159061337157504281600a015411155b1561337f5750600092915050565b8054600090613396906001600160a01b03166108a0565b600054604080516332c70ad760e21b815290519293506001600160a01b0390911691636dd5b69d91839163cb1c2b5c916004808201926020929091908290030181865afa1580156133eb573d6000803e3d6000fd5b505050506040513d601f19601f8201168201806040525081019061340f9190615998565b6040518263ffffffff1660e01b815260040161342d91815260200190565b602060405180830381865afa15801561344a573d6000803e3d6000fd5b505050506040513d601f19601f8201168201806040525081019061346e9190615998565b81101561347f575060009392505050565b604080516102008101825283546001600160a01b038082168352600160a01b90910460ff16151560208084019190915260018601548385015260028601546060840152600386015460808401526004860154821660a0840152600586015490911660c08301526006850180548451818402810184019095528085526137cc94879360e086019391929083018282801561353757602002820191906000526020600020905b815481526020019060010190808311613523575b505050918352505060078201546001600160a01b03166020820152600882018054604090920191613567906152f5565b80601f0160208091040260200160405190810160405280929190818152602001828054613593906152f5565b80156135e05780601f106135b5576101008083540402835291602001916135e0565b820191906000526020600020905b8154815290600101906020018083116135c357829003601f168201915b505050505081526020016009820180546135f9906152f5565b80601f0160208091040260200160405190810160405280929190818152602001828054613625906152f5565b80156136725780601f1061364757610100808354040283529160200191613672565b820191906000526020600020905b81548152906001019060200180831161365557829003601f168201915b50505050508152602001600a8201548152602001600b82018054613695906152f5565b80601f01602080910402602001604051908101604052809291908181526020018280546136c1906152f5565b801561370e5780601f106136e35761010080835404028352916020019161370e565b820191906000526020600020905b8154815290600101906020018083116136f157829003601f168201915b50505050508152602001600c82018054613727906152f5565b80601f0160208091040260200160405190810160405280929190818152602001828054613753906152f5565b80156137a05780601f10613775576101008083540402835291602001916137a0565b820191906000526020600020905b81548152906001019060200180831161378357829003601f168201915b5050509183525050600d8201546001600160a01b03166020820152600e90910154604090910152614682565b156137db575060009392505050565b6002820154156137ef575060009392505050565b8154600160a01b900460ff161561380a575060009392505050565b5060019392505050565b61381c613d32565b6001600160a01b03811661384657604051631e4fbdf760e01b815260006004820152602401610845565b61384f81614732565b50565b7ff0c57e16840df040f15088dc2f81fe391c3923bec73e23a9662efc9c229c6a008054600160401b810460ff1615906001600160401b03166000811580156138975750825b90506000826001600160401b031660011480156138b35750303b155b9050811580156138c1575080155b156138df5760405163f92ee8a960e01b815260040160405180910390fd5b845467ffffffffffffffff19166001178555831561390957845460ff60401b1916600160401b1785555b61391161498f565b61391a3361499f565b6001600160a01b038916158061393757506001600160a01b038816155b8061394957506001600160a01b038716155b8061395b57506001600160a01b038616155b1561399057604080518082018252600281526105a360f41b6020820152905162461bcd60e51b815261084591906004016152e2565b600080546001600160a01b03808c166001600160a01b031992831617909255600180548b8416908316179055600280548a841690831617905560078054928916929091169190911790558315610e9d57845460ff60401b19168555604051600181527fc7f505b2f371ae2175ee4913f4499e1f2633a7b5936321eed1cdaeb6115181d29060200160405180910390a1505050505050505050565b600054604080516325ba6ce560e11b815290516001600160a01b0390921691636dd5b69d918391634b74d9ca916004808201926020929091908290030181865afa158015613a7c573d6000803e3d6000fd5b505050506040513d601f19601f82011682018060405250810190613aa09190615998565b6040518263ffffffff1660e01b8152600401613abe91815260200190565b602060405180830381865afa158015613adb573d6000803e3d6000fd5b505050506040513d601f19601f82011682018060405250810190613aff9190615998565b821015613b3a5760405162461bcd60e51b8152602060048201526009602482015268466565546f6f4c6f7760b81b6044820152606401610845565b6000546040805163c1df30e760e01b815290516001600160a01b0390921691636dd5b69d91839163c1df30e7916004808201926020929091908290030181865afa158015613b8c573d6000803e3d6000fd5b505050506040513d601f19601f82011682018060405250810190613bb09190615998565b6040518263ffffffff1660e01b8152600401613bce91815260200190565b602060405180830381865afa158015613beb573d6000803e3d6000fd5b505050506040513d601f19601f82011682018060405250810190613c0f9190615998565b81101560405180604001604052806002815260200161231960f11b81525090613c4b5760405162461bcd60e51b815260040161084591906152e2565b5033600090815260036020526040902080546001600160a01b0316613c9a576040805180820182526002815261209960f11b6020820152905162461bcd60e51b815261084591906004016152e2565b613ca333612582565b613cd7576040805180820182526002815261043360f41b6020820152905162461bcd60e51b815261084591906004016152e2565b6001810183905533600081815260066020908152604091829020858155825187815291820186905292917f3deb80fb64bacb0d572a957b16a7420b1799df648df6a6370c8cc197ad0446a4910160405180910390a250505050565b33613d647f9016d09d72d40fdae2fd8ceac6b6234c7706214fd39c1cd1e609a0528c199300546001600160a01b031690565b6001600160a01b0316146118915760405163118cdaa760e01b8152336004820152602401610845565b600080806402540be400815b85811015613ed5576002546000906001600160a01b031663d5ec2d83898985818110613dc757613dc7615579565b905060200201356040518263ffffffff1660e01b8152600401613dec91815260200190565b600060405180830381865afa158015613e09573d6000803e3d6000fd5b505050506040513d6000823e601f3d908101601f19168201604052613e31919081019061579a565b91505060005b816060015151811015613ec05781606001518181518110613e5a57613e5a615579565b6020026020010151602001516001600160401b03169450600080613e7e8787614944565b9150915081613e9f5760405162461bcd60e51b815260040161084590615976565b613ea98189615345565b975050508080613eb89061558f565b915050613e37565b50508080613ecd9061558f565b915050613d99565b50336000908152600360205260408120905b6006820154811015614031576002546006830180546000926001600160a01b03169163d5ec2d839185908110613f1f57613f1f615579565b90600052602060002001546040518263ffffffff1660e01b8152600401613f4891815260200190565b600060405180830381865afa158015613f65573d6000803e3d6000fd5b505050506040513d6000823e601f3d908101601f19168201604052613f8d919081019061579a565b91505060005b81606001515181101561401c5781606001518181518110613fb657613fb6615579565b6020026020010151602001516001600160401b03169550600080613fda8888614944565b9150915081613ffb5760405162461bcd60e51b815260040161084590615976565b614005818a615345565b9850505080806140149061558f565b915050613f93565b505080806140299061558f565b915050613ee7565b50929695505050505050565b60015460405163e985e9c560e01b81523360048201523060248201526000916001600160a01b03169063e985e9c590604401602060405180830381865afa15801561408c573d6000803e3d6000fd5b505050506040513d601f19601f820116820180604052508101906140b091906159b1565b905060005b8281101561426d578161418f5760015430906001600160a01b031663081812fc8686858181106140e7576140e7615579565b905060200201356040518263ffffffff1660e01b815260040161410c91815260200190565b602060405180830381865afa158015614129573d6000803e3d6000fd5b505050506040513d601f19601f8201168201806040525081019061414d91906159d3565b6001600160a01b03161461418f5760405162461bcd60e51b81526020600482015260096024820152684e6f417070726f766560b81b6044820152606401610845565b6001546001600160a01b03166323b872dd33308787868181106141b4576141b4615579565b6040516001600160e01b031960e088901b1681526001600160a01b03958616600482015294909316602485015250602090910201356044820152606401600060405180830381600087803b15801561420b57600080fd5b505af115801561421f573d6000803e3d6000fd5b505050508460060184848381811061423957614239615579565b83546001810185556000948552602094859020919094029290920135919092015550806142658161558f565b9150506140b5565b5050505050565b60006142808284615345565b60008054604080516332c70ad760e21b8152905193945091926001600160a01b0390911691636dd5b69d91839163cb1c2b5c9160048083019260209291908290030181865afa1580156142d7573d6000803e3d6000fd5b505050506040513d601f19601f820116820180604052508101906142fb9190615998565b6040518263ffffffff1660e01b815260040161431991815260200190565b602060405180830381865afa158015614336573d6000803e3d6000fd5b505050506040513d601f19601f8201168201806040525081019061435a9190615998565b600080546040805163c98517c560e01b8152905193945091926001600160a01b0390911691636dd5b69d91839163c98517c59160048083019260209291908290030181865afa1580156143b1573d6000803e3d6000fd5b505050506040513d601f19601f820116820180604052508101906143d59190615998565b6040518263ffffffff1660e01b81526004016143f391815260200190565b602060405180830381865afa158015614410573d6000803e3d6000fd5b505050506040513d601f19601f820116820180604052508101906144349190615998565b90508183101561446e576040805180820182526002815261299960f11b6020820152905162461bcd60e51b815261084591906004016152e2565b8083111561426d576040805180820182526002815261533360f01b6020820152905162461bcd60e51b815261084591906004016152e2565b60058101546001600160a01b03166144df576001546005820180546001600160a01b0319166001600160a01b0390921691909117905550565b60015460058201546001600160a01b0390811691161461384f576040805180820182526002815261249b60f11b6020820152905162461bcd60e51b815261084591906004016152e2565b600080516020615a6083398151915280546001190161455b57604051633ee5aeb560e01b815260040160405180910390fd5b60029055565b6001600160a01b03808916600090815260036020526040812080549192909116156145b6576040805180820182526002815261413160f01b6020820152905162461bcd60e51b815261084591906004016152e2565b6145c5898989898989896149b0565b80546001600160a01b038b166001600160a01b031991821681178355600783018054831682179055600d83018054909216179055600c8101614608898b83615476565b50600b8101614618878983615476565b5060098101614628898b83615476565b5060088101614638878983615476565b50600181019490945550600a8301556001600160a01b039690961660009081526006602052604090209590955550929392505050565b6001600080516020615a6083398151915255565b6000805460408051632f672f1960e11b8152905183926001600160a01b031691635ece5e329160048083019260209291908290030181865afa1580156146cc573d6000803e3d6000fd5b505050506040513d601f19601f820116820180604052508101906146f09190615998565b9050826101e001516000036147085750600092915050565b4281846101e0015161471a9190615345565b11156147295750600192915050565b50600092915050565b7f9016d09d72d40fdae2fd8ceac6b6234c7706214fd39c1cd1e609a0528c19930080546001600160a01b031981166001600160a01b03848116918217845560405192169182907f8be0079c531659141344cd1fd0a4f28419497f9722a3daafe3b4186f6b6457e090600090a3505050565b6000806147af856108a0565b90506147c16127106301e133806159f0565b846147cc85846159f0565b6147d691906159f0565b6147e09190615a1d565b95945050505050565b6007546040516317a6948f60e21b815273517e9e5d46c1ea8ab6f78677d6114ef47f71f6c4600482015260009182916001600160a01b0390911690635e9a523c90602401602060405180830381865afa15801561484a573d6000803e3d6000fd5b505050506040513d601f19601f8201168201806040525081019061486e9190615998565b6007546040516317a6948f60e21b815273df4191bfe8fae019fd6af9433e8ed6bfc4b90ca160048201529192506000916001600160a01b0390911690635e9a523c90602401602060405180830381865afa1580156148d0573d6000803e3d6000fd5b505050506040513d601f19601f820116820180604052508101906148f49190615998565b9050600061490a82670de0b6b3a76400006159f0565b61491484876159f0565b614922906305f5e1006159f0565b61492c9190615a1d565b90506103e8811015610c1257506103e8949350505050565b6000808360000361495b5750600190506000614988565b8383028385828161496e5761496e615a07565b0414614981576000809250925050614988565b6001925090505b9250929050565b614997614c54565b611891614c9d565b6149a7614c54565b61384f81614ca5565b8515806149bb575083155b156149f0576040805180820182526002815261049360f41b6020820152905162461bcd60e51b815261084591906004016152e2565b60008054604080516325ba6ce560e11b815290516001600160a01b0390921691636dd5b69d918391634b74d9ca916004808201926020929091908290030181865afa158015614a43573d6000803e3d6000fd5b505050506040513d601f19601f82011682018060405250810190614a679190615998565b6040518263ffffffff1660e01b8152600401614a8591815260200190565b602060405180830381865afa158015614aa2573d6000803e3d6000fd5b505050506040513d601f19601f82011682018060405250810190614ac69190615998565b905080841015614b00576040805180820182526002815261046360f41b6020820152905162461bcd60e51b815261084591906004016152e2565b600080546040805163c1df30e760e01b815290516001600160a01b0390921691636dd5b69d91839163c1df30e7916004808201926020929091908290030181865afa158015614b53573d6000803e3d6000fd5b505050506040513d601f19601f82011682018060405250810190614b779190615998565b6040518263ffffffff1660e01b8152600401614b9591815260200190565b602060405180830381865afa158015614bb2573d6000803e3d6000fd5b505050506040513d601f19601f82011682018060405250810190614bd69190615998565b905080841015614c10576040805180820182526002815261231960f11b6020820152905162461bcd60e51b815261084591906004016152e2565b8215801590614c1f5750428311155b15610e9d576040805180820182526002815261543360f01b6020820152905162461bcd60e51b815261084591906004016152e2565b7ff0c57e16840df040f15088dc2f81fe391c3923bec73e23a9662efc9c229c6a0054600160401b900460ff1661189157604051631afcd79f60e31b815260040160405180910390fd5b61466e614c54565b61381c614c54565b828054828255906000526020600020908101928215614ce8579160200282015b82811115614ce8578251825591602001919060010190614ccd565b50614cf4929150614cf8565b5090565b5b80821115614cf45760008155600101614cf9565b6001600160a01b038116811461384f57600080fd5b600060208284031215614d3457600080fd5b813561124081614d0d565b60008083601f840112614d5157600080fd5b5081356001600160401b03811115614d6857600080fd5b6020830191508360208260051b850101111561498857600080fd5b60008060208385031215614d9657600080fd5b82356001600160401b03811115614dac57600080fd5b614db885828601614d3f565b90969095509350505050565b60008083601f840112614dd657600080fd5b5081356001600160401b03811115614ded57600080fd5b60208301915083602082850101111561498857600080fd5b600080600080600080600080600060c08a8c031215614e2357600080fd5b89356001600160401b0380821115614e3a57600080fd5b614e468d838e01614d3f565b909b50995060208c0135915080821115614e5f57600080fd5b614e6b8d838e01614dc4565b909950975060408c0135915080821115614e8457600080fd5b50614e918c828d01614dc4565b9a9d999c50979a969997986060880135976080810135975060a0013595509350505050565b600080600080600060608688031215614ece57600080fd5b8535614ed981614d0d565b945060208601356001600160401b0380821115614ef557600080fd5b614f0189838a01614dc4565b90965094506040880135915080821115614f1a57600080fd5b50614f2788828901614dc4565b969995985093965092949392505050565b60008060408385031215614f4b57600080fd5b8235614f5681614d0d565b946020939093013593505050565b60008060408385031215614f7757600080fd5b8235614f8281614d0d565b91506020830135614f9281614d0d565b809150509250929050565b600060208284031215614faf57600080fd5b5035919050565b600081518084526020808501945080840160005b83811015614fe657815187529582019590820190600101614fca565b509495945050505050565b60005b8381101561500c578181015183820152602001614ff4565b50506000910152565b6000815180845261502d816020860160208601614ff1565b601f01601f19169290920160200192915050565b6020815261505b6020820183516001600160a01b03169052565b60006020830151615070604084018215159052565b506040830151606083015260608301516080830152608083015160a083015260a08301516150a960c08401826001600160a01b03169052565b5060c08301516001600160a01b03811660e08401525060e083015161020061010081818601526150dd610220860184614fb6565b908601519092506101206150fb868201836001600160a01b03169052565b80870151915050601f1961014081878603018188015261511b8584615015565b94508088015192505061016081878603018188015261513a8584615015565b9450808801519250506101808281880152808801519250506101a08187860301818801526151688584615015565b9450808801519250506101c08187860301818801526151878584615015565b945080880151925050506101e06151a8818701836001600160a01b03169052565b959095015193019290925250919050565b600080600080600080600060a0888a0312156151d457600080fd5b87356001600160401b03808211156151eb57600080fd5b6151f78b838c01614dc4565b909950975060208a013591508082111561521057600080fd5b5061521d8a828b01614dc4565b989b979a50986040810135976060820135975060809091013595509350505050565b6000806040838503121561525257600080fd5b823591506020830135614f9281614d0d565b6000806000806080858703121561527a57600080fd5b843561528581614d0d565b9350602085013561529581614d0d565b925060408501356152a581614d0d565b915060608501356152b581614d0d565b939692955090935050565b600080604083850312156152d357600080fd5b50508035926020909101359150565b6020815260006112406020830184615015565b600181811c9082168061530957607f821691505b60208210810361532957634e487b7160e01b600052602260045260246000fd5b50919050565b634e487b7160e01b600052601160045260246000fd5b808201808211156118b7576118b761532f565b838152604060208201819052810182905260006001600160fb1b0383111561537f57600080fd5b8260051b8085606085013791909101606001949350505050565b81835281816020850137506000828201602090810191909152601f909101601f19169091010190565b6001600160a01b038816815260a0602082018190526000906153e7908301888a615399565b82810360408401526153fa818789615399565b606084019590955250506080015295945050505050565b634e487b7160e01b600052604160045260246000fd5b601f82111561547157600081815260208120601f850160051c8101602086101561544e5750805b601f850160051c820191505b8181101561546d5782815560010161545a565b5050505b505050565b6001600160401b0383111561548d5761548d615411565b6154a18361549b83546152f5565b83615427565b6000601f8411600181146154d557600085156154bd5750838201355b600019600387901b1c1916600186901b17835561426d565b600083815260209020601f19861690835b8281101561550657868501358255602094850194600190920191016154e6565b50868210156155235760001960f88860031b161c19848701351681555b505060018560011b0183555050505050565b6001600160a01b038616815260606020820181905260009061555a9083018688615399565b828103604084015261556d818587615399565b98975050505050505050565b634e487b7160e01b600052603260045260246000fd5b6000600182016155a1576155a161532f565b5060010190565b6040815260006155bc604083018688615399565b82810360208401526155cf818587615399565b979650505050505050565b6000604082018483526020604081850152818551808452606086019150828701935060005b8181101561561b578451835293830193918301916001016155ff565b5090979650505050505050565b60008154615635816152f5565b808552602060018381168015615652576001811461566c5761569a565b60ff1985168884015283151560051b88018301955061569a565b866000528260002060005b858110156156925781548a8201860152908301908401615677565b890184019650505b505050505092915050565b6001600160a01b038616815260a0602082018190526000906156c990830187615628565b82810360408401526156db8187615628565b60608401959095525050608001529392505050565b604051608081016001600160401b038111828210171561571257615712615411565b60405290565b604051606081016001600160401b038111828210171561571257615712615411565b604051601f8201601f191681016001600160401b038111828210171561576257615762615411565b604052919050565b805163ffffffff8116811461577e57600080fd5b919050565b80516001600160401b038116811461577e57600080fd5b600080604083850312156157ad57600080fd5b8251915060208301516001600160401b03808211156157cb57600080fd5b90840190608082870312156157df57600080fd5b6157e76156f0565b825181526157f76020840161576a565b6020820152604083015160ff8116811461581057600080fd5b604082015260608301518281111561582757600080fd5b80840193505086601f84011261583c57600080fd5b82518281111561584e5761584e615411565b61585d60208260051b0161573a565b8082825260208201915060208360051b87010192508983111561587f57600080fd5b602086015b838110156159625780518681111561589b57600080fd5b8701601f196060828e03820112156158b257600080fd5b6158ba615718565b6020830151898111156158cc57600080fd5b8301603f81018f136158dd57600080fd5b60208101518a8111156158f2576158f2615411565b615903602085601f8401160161573a565b93508084528f604082840101111561591a57600080fd5b61592b816020860160408501614ff1565b505081815261593c60408401615783565b602082015261594d6060840161576a565b60408201528552505060209283019201615884565b506060840152509497909650945050505050565b6020808252600890820152674f766572666c6f7760c01b604082015260600190565b6000602082840312156159aa57600080fd5b5051919050565b6000602082840312156159c357600080fd5b8151801515811461124057600080fd5b6000602082840312156159e557600080fd5b815161124081614d0d565b80820281158282048414176118b7576118b761532f565b634e487b7160e01b600052601260045260246000fd5b600082615a3a57634e487b7160e01b600052601260045260246000fd5b50049056fe03666b063f075e29b3926eb82a4d1f7746231db3395483f453e477b56531038e9b779b17422d0df92223018b32b4d1fa46e071723d6817e2486d003becc55f00a2646970667358221220d2ba1f5a2ed0b56e3d206336def2b51376c9f1b213db13f73683d26fbd66e0c564736f6c63430008140033",
  "linkReferences": {},
  "deployedLinkReferences": {}
}