{
  "_format": "hh-sol-artifact-1",
  "contractName": "ArbitratorManager",
  "sourceName": "contracts/core/ArbitratorManager.sol",
  "abi": [
    {
      "inputs": [],
      "stateMutability": "nonpayable",
      "type": "constructor"
    },
    {
      "inputs": [],
      "name": "InvalidInitialization",
      "type": "error"
    },
    {
      "inputs": [],
      "name": "NotInitializing",
      "type": "error"
    },
    {
      "inputs": [
        {
          "internalType": "address",
          "name": "owner",
          "type": "address"
        }
      ],
      "name": "OwnableInvalidOwner",
      "type": "error"
    },
    {
      "inputs": [
        {
          "internalType": "address",
          "name": "account",
          "type": "address"
        }
      ],
      "name": "OwnableUnauthorizedAccount",
      "type": "error"
    },
    {
      "inputs": [],
      "name": "ReentrancyGuardReentrantCall",
      "type": "error"
    },
    {
      "anonymous": false,
      "inputs": [
        {
          "indexed": true,
          "internalType": "address",
          "name": "arbitrator",
          "type": "address"
        },
        {
          "indexed": false,
          "internalType": "uint256",
          "name": "feeRate",
          "type": "uint256"
        }
      ],
      "name": "ArbitratorBtcFeeRateUpdated",
      "type": "event"
    },
    {
      "anonymous": false,
      "inputs": [
        {
          "indexed": true,
          "internalType": "address",
          "name": "arbitrator",
          "type": "address"
        },
        {
          "indexed": false,
          "internalType": "uint256",
          "name": "deadline",
          "type": "uint256"
        }
      ],
      "name": "ArbitratorDeadlineUpdated",
      "type": "event"
    },
    {
      "anonymous": false,
      "inputs": [
        {
          "indexed": true,
          "internalType": "address",
          "name": "arbitrator",
          "type": "address"
        },
        {
          "indexed": false,
          "internalType": "uint256",
          "name": "feeRate",
          "type": "uint256"
        }
      ],
      "name": "ArbitratorFeeRateUpdated",
      "type": "event"
    },
    {
      "anonymous": false,
      "inputs": [
        {
          "indexed": true,
          "internalType": "address",
          "name": "arbitrator",
          "type": "address"
        }
      ],
      "name": "ArbitratorFrozen",
      "type": "event"
    },
    {
      "anonymous": false,
      "inputs": [
        {
          "indexed": true,
          "internalType": "address",
          "name": "arbitrator",
          "type": "address"
        }
      ],
      "name": "ArbitratorPaused",
      "type": "event"
    },
    {
      "anonymous": false,
      "inputs": [
        {
          "indexed": true,
          "internalType": "address",
          "name": "arbitrator",
          "type": "address"
        },
        {
          "indexed": true,
          "internalType": "address",
          "name": "operator",
          "type": "address"
        },
        {
          "indexed": false,
          "internalType": "address",
          "name": "revenueAddress",
          "type": "address"
        },
        {
          "indexed": false,
          "internalType": "string",
          "name": "btcAddress",
          "type": "string"
        },
        {
          "indexed": false,
          "internalType": "bytes",
          "name": "btcPubKey",
          "type": "bytes"
        },
        {
          "indexed": false,
          "internalType": "uint256",
          "name": "feeRate",
          "type": "uint256"
        },
        {
          "indexed": false,
          "internalType": "uint256",
          "name": "deadline",
          "type": "uint256"
        }
      ],
      "name": "ArbitratorRegistered",
      "type": "event"
    },
    {
      "anonymous": false,
      "inputs": [
        {
          "indexed": true,
          "internalType": "address",
          "name": "arbitrator",
          "type": "address"
        },
        {
          "indexed": true,
          "internalType": "bytes32",
          "name": "transactionId",
          "type": "bytes32"
        }
      ],
      "name": "ArbitratorReleased",
      "type": "event"
    },
    {
      "anonymous": false,
      "inputs": [
        {
          "indexed": true,
          "internalType": "address",
          "name": "arbitrator",
          "type": "address"
        }
      ],
      "name": "ArbitratorTerminatedWithSlash",
      "type": "event"
    },
    {
      "anonymous": false,
      "inputs": [
        {
          "indexed": true,
          "internalType": "address",
          "name": "arbitrator",
          "type": "address"
        }
      ],
      "name": "ArbitratorUnpaused",
      "type": "event"
    },
    {
      "anonymous": false,
      "inputs": [
        {
          "indexed": true,
          "internalType": "address",
          "name": "arbitrator",
          "type": "address"
        },
        {
          "indexed": true,
          "internalType": "bytes32",
          "name": "transactionId",
          "type": "bytes32"
        }
      ],
      "name": "ArbitratorWorking",
      "type": "event"
    },
    {
      "anonymous": false,
      "inputs": [
        {
          "indexed": true,
          "internalType": "address",
          "name": "oldManager",
          "type": "address"
        },
        {
          "indexed": true,
          "internalType": "address",
          "name": "newManager",
          "type": "address"
        }
      ],
      "name": "CompensationManagerUpdated",
      "type": "event"
    },
    {
      "anonymous": false,
      "inputs": [
        {
          "indexed": false,
          "internalType": "uint64",
          "name": "version",
          "type": "uint64"
        }
      ],
      "name": "Initialized",
      "type": "event"
    },
    {
      "anonymous": false,
      "inputs": [
        {
          "indexed": true,
          "internalType": "address",
          "name": "transactionManager",
          "type": "address"
        },
        {
          "indexed": true,
          "internalType": "address",
          "name": "compensationManager",
          "type": "address"
        }
      ],
      "name": "InitializedManager",
      "type": "event"
    },
    {
      "anonymous": false,
      "inputs": [
        {
          "indexed": true,
          "internalType": "address",
          "name": "oldNFTContract",
          "type": "address"
        },
        {
          "indexed": true,
          "internalType": "address",
          "name": "newNFTContract",
          "type": "address"
        }
      ],
      "name": "NFTContractUpdated",
      "type": "event"
    },
    {
      "anonymous": false,
      "inputs": [
        {
          "indexed": true,
          "internalType": "address",
          "name": "arbitrator",
          "type": "address"
        },
        {
          "indexed": true,
          "internalType": "address",
          "name": "operator",
          "type": "address"
        },
        {
          "indexed": false,
          "internalType": "bytes",
          "name": "btcPubKey",
          "type": "bytes"
        },
        {
          "indexed": false,
          "internalType": "string",
          "name": "btcAddress",
          "type": "string"
        }
      ],
      "name": "OperatorSet",
      "type": "event"
    },
    {
      "anonymous": false,
      "inputs": [
        {
          "indexed": true,
          "internalType": "address",
          "name": "previousOwner",
          "type": "address"
        },
        {
          "indexed": true,
          "internalType": "address",
          "name": "newOwner",
          "type": "address"
        }
      ],
      "name": "OwnershipTransferred",
      "type": "event"
    },
    {
      "anonymous": false,
      "inputs": [
        {
          "indexed": true,
          "internalType": "address",
          "name": "arbitrator",
          "type": "address"
        },
        {
          "indexed": false,
          "internalType": "address",
          "name": "ethAddress",
          "type": "address"
        },
        {
          "indexed": false,
          "internalType": "bytes",
          "name": "btcPubKey",
          "type": "bytes"
        },
        {
          "indexed": false,
          "internalType": "string",
          "name": "btcAddress",
          "type": "string"
        }
      ],
      "name": "RevenueAddressesSet",
      "type": "event"
    },
    {
      "anonymous": false,
      "inputs": [
        {
          "indexed": true,
          "internalType": "address",
          "name": "arbitrator",
          "type": "address"
        },
        {
          "indexed": true,
          "internalType": "address",
          "name": "assetAddress",
          "type": "address"
        },
        {
          "indexed": false,
          "internalType": "uint256",
          "name": "amount",
          "type": "uint256"
        },
        {
          "indexed": false,
          "internalType": "uint256[]",
          "name": "nftTokenIds",
          "type": "uint256[]"
        }
      ],
      "name": "StakeAdded",
      "type": "event"
    },
    {
      "anonymous": false,
      "inputs": [
        {
          "indexed": true,
          "internalType": "address",
          "name": "arbitrator",
          "type": "address"
        },
        {
          "indexed": true,
          "internalType": "address",
          "name": "assetAddress",
          "type": "address"
        },
        {
          "indexed": false,
          "internalType": "uint256",
          "name": "amount",
          "type": "uint256"
        }
      ],
      "name": "StakeWithdrawn",
      "type": "event"
    },
    {
      "anonymous": false,
      "inputs": [
        {
          "indexed": true,
          "internalType": "address",
          "name": "oldManager",
          "type": "address"
        },
        {
          "indexed": true,
          "internalType": "address",
          "name": "newManager",
          "type": "address"
        }
      ],
      "name": "TransactionManagerUpdated",
      "type": "event"
    },
    {
      "inputs": [],
      "name": "compensationManager",
      "outputs": [
        {
          "internalType": "address",
          "name": "",
          "type": "address"
        }
      ],
      "stateMutability": "view",
      "type": "function"
    },
    {
      "inputs": [],
      "name": "configManager",
      "outputs": [
        {
          "internalType": "contract ConfigManager",
          "name": "",
          "type": "address"
        }
      ],
      "stateMutability": "view",
      "type": "function"
    },
    {
      "inputs": [
        {
          "internalType": "address",
          "name": "arbitrator",
          "type": "address"
        }
      ],
      "name": "frozenArbitrator",
      "outputs": [],
      "stateMutability": "nonpayable",
      "type": "function"
    },
    {
      "inputs": [
        {
          "internalType": "address",
          "name": "arbitratorAddress",
          "type": "address"
        }
      ],
      "name": "getArbitratorInfo",
      "outputs": [
        {
          "components": [
            {
              "internalType": "address",
              "name": "arbitrator",
              "type": "address"
            },
            {
              "internalType": "bool",
              "name": "paused",
              "type": "bool"
            },
            {
              "internalType": "uint256",
              "name": "currentFeeRate",
              "type": "uint256"
            },
            {
              "internalType": "bytes32",
              "name": "activeTransactionId",
              "type": "bytes32"
            },
            {
              "internalType": "uint256",
              "name": "ethAmount",
              "type": "uint256"
            },
            {
              "internalType": "address",
              "name": "erc20Token",
              "type": "address"
            },
            {
              "internalType": "address",
              "name": "nftContract",
              "type": "address"
            },
            {
              "internalType": "uint256[]",
              "name": "nftTokenIds",
              "type": "uint256[]"
            },
            {
              "internalType": "address",
              "name": "operator",
              "type": "address"
            },
            {
              "internalType": "bytes",
              "name": "operatorBtcPubKey",
              "type": "bytes"
            },
            {
              "internalType": "string",
              "name": "operatorBtcAddress",
              "type": "string"
            },
            {
              "internalType": "uint256",
              "name": "deadLine",
              "type": "uint256"
            },
            {
              "internalType": "bytes",
              "name": "revenueBtcPubKey",
              "type": "bytes"
            },
            {
              "internalType": "string",
              "name": "revenueBtcAddress",
              "type": "string"
            },
            {
              "internalType": "address",
              "name": "revenueETHAddress",
              "type": "address"
            },
            {
              "internalType": "uint256",
              "name": "lastSubmittedWorkTime",
              "type": "uint256"
            }
          ],
          "internalType": "struct DataTypes.ArbitratorInfo",
          "name": "",
          "type": "tuple"
        }
      ],
      "stateMutability": "view",
      "type": "function"
    },
    {
      "inputs": [
        {
          "internalType": "address",
          "name": "arbitrator",
          "type": "address"
        }
      ],
      "name": "getArbitratorInfoExt",
      "outputs": [
        {
          "components": [
            {
              "internalType": "uint256",
              "name": "currentBTCFeeRate",
              "type": "uint256"
            }
          ],
          "internalType": "struct DataTypes.ArbitratorInfoExt",
          "name": "",
          "type": "tuple"
        }
      ],
      "stateMutability": "view",
      "type": "function"
    },
    {
      "inputs": [
        {
          "internalType": "address",
          "name": "arbitrator",
          "type": "address"
        }
      ],
      "name": "getAvailableStake",
      "outputs": [
        {
          "internalType": "uint256",
          "name": "",
          "type": "uint256"
        }
      ],
      "stateMutability": "view",
      "type": "function"
    },
    {
      "inputs": [
        {
          "internalType": "address",
          "name": "arbitrator",
          "type": "address"
        }
      ],
      "name": "getTotalNFTStakeValue",
      "outputs": [
        {
          "internalType": "uint256",
          "name": "",
          "type": "uint256"
        }
      ],
      "stateMutability": "view",
      "type": "function"
    },
    {
      "inputs": [
        {
          "internalType": "address",
          "name": "_transactionManager",
          "type": "address"
        },
        {
          "internalType": "address",
          "name": "_compensationManager",
          "type": "address"
        }
      ],
      "name": "initTransactionAndCompensationManager",
      "outputs": [],
      "stateMutability": "nonpayable",
      "type": "function"
    },
    {
      "inputs": [
        {
          "internalType": "address",
          "name": "_configManager",
          "type": "address"
        },
        {
          "internalType": "address",
          "name": "_nftContract",
          "type": "address"
        },
        {
          "internalType": "address",
          "name": "_nftInfo",
          "type": "address"
        }
      ],
      "name": "initialize",
      "outputs": [],
      "stateMutability": "nonpayable",
      "type": "function"
    },
    {
      "inputs": [
        {
          "internalType": "address",
          "name": "arbitratorAddress",
          "type": "address"
        }
      ],
      "name": "isActiveArbitrator",
      "outputs": [
        {
          "internalType": "bool",
          "name": "",
          "type": "bool"
        }
      ],
      "stateMutability": "view",
      "type": "function"
    },
    {
      "inputs": [
        {
          "internalType": "address",
          "name": "arbitrator",
          "type": "address"
        }
      ],
      "name": "isConfigModifiable",
      "outputs": [
        {
          "internalType": "bool",
          "name": "",
          "type": "bool"
        }
      ],
      "stateMutability": "view",
      "type": "function"
    },
    {
      "inputs": [
        {
          "internalType": "address",
          "name": "arbitrator",
          "type": "address"
        }
      ],
      "name": "isFrozenStatus",
      "outputs": [
        {
          "internalType": "bool",
          "name": "",
          "type": "bool"
        }
      ],
      "stateMutability": "view",
      "type": "function"
    },
    {
      "inputs": [
        {
          "internalType": "address",
          "name": "arbitrator",
          "type": "address"
        },
        {
          "internalType": "address",
          "name": "operator",
          "type": "address"
        }
      ],
      "name": "isOperatorOf",
      "outputs": [
        {
          "internalType": "bool",
          "name": "",
          "type": "bool"
        }
      ],
      "stateMutability": "view",
      "type": "function"
    },
    {
      "inputs": [
        {
          "internalType": "address",
          "name": "arbitrator",
          "type": "address"
        }
      ],
      "name": "isPaused",
      "outputs": [
        {
          "internalType": "bool",
          "name": "",
          "type": "bool"
        }
      ],
      "stateMutability": "view",
      "type": "function"
    },
    {
      "inputs": [],
      "name": "nftContract",
      "outputs": [
        {
          "internalType": "contract IERC721",
          "name": "",
          "type": "address"
        }
      ],
      "stateMutability": "view",
      "type": "function"
    },
    {
      "inputs": [],
      "name": "nftInfo",
      "outputs": [
        {
          "internalType": "contract IBNFTInfo",
          "name": "",
          "type": "address"
        }
      ],
      "stateMutability": "view",
      "type": "function"
    },
    {
      "inputs": [],
      "name": "owner",
      "outputs": [
        {
          "internalType": "address",
          "name": "",
          "type": "address"
        }
      ],
      "stateMutability": "view",
      "type": "function"
    },
    {
      "inputs": [],
      "name": "pause",
      "outputs": [],
      "stateMutability": "nonpayable",
      "type": "function"
    },
    {
      "inputs": [
        {
          "internalType": "string",
          "name": "defaultBtcAddress",
          "type": "string"
        },
        {
          "internalType": "bytes",
          "name": "defaultBtcPubKey",
          "type": "bytes"
        },
        {
          "internalType": "uint256",
          "name": "feeRate",
          "type": "uint256"
        },
        {
          "internalType": "uint256",
          "name": "btcFeeRate",
          "type": "uint256"
        },
        {
          "internalType": "uint256",
          "name": "deadline",
          "type": "uint256"
        }
      ],
      "name": "registerArbitratorByStakeETH",
      "outputs": [],
      "stateMutability": "payable",
      "type": "function"
    },
    {
      "inputs": [
        {
          "internalType": "uint256[]",
          "name": "tokenIds",
          "type": "uint256[]"
        },
        {
          "internalType": "string",
          "name": "defaultBtcAddress",
          "type": "string"
        },
        {
          "internalType": "bytes",
          "name": "defaultBtcPubKey",
          "type": "bytes"
        },
        {
          "internalType": "uint256",
          "name": "feeRate",
          "type": "uint256"
        },
        {
          "internalType": "uint256",
          "name": "btcFeeRate",
          "type": "uint256"
        },
        {
          "internalType": "uint256",
          "name": "deadline",
          "type": "uint256"
        }
      ],
      "name": "registerArbitratorByStakeNFT",
      "outputs": [],
      "stateMutability": "nonpayable",
      "type": "function"
    },
    {
      "inputs": [
        {
          "internalType": "address",
          "name": "arbitrator",
          "type": "address"
        },
        {
          "internalType": "bytes32",
          "name": "transactionId",
          "type": "bytes32"
        }
      ],
      "name": "releaseArbitrator",
      "outputs": [],
      "stateMutability": "nonpayable",
      "type": "function"
    },
    {
      "inputs": [],
      "name": "renounceOwnership",
      "outputs": [],
      "stateMutability": "nonpayable",
      "type": "function"
    },
    {
      "inputs": [
        {
          "internalType": "uint256",
          "name": "btcFeeRate",
          "type": "uint256"
        }
      ],
      "name": "setArbitratorBtcFeeRate",
      "outputs": [],
      "stateMutability": "nonpayable",
      "type": "function"
    },
    {
      "inputs": [
        {
          "internalType": "uint256",
          "name": "deadline",
          "type": "uint256"
        }
      ],
      "name": "setArbitratorDeadline",
      "outputs": [],
      "stateMutability": "nonpayable",
      "type": "function"
    },
    {
      "inputs": [
        {
          "internalType": "uint256",
          "name": "feeRate",
          "type": "uint256"
        }
      ],
      "name": "setArbitratorFeeRate",
      "outputs": [],
      "stateMutability": "nonpayable",
      "type": "function"
    },
    {
      "inputs": [
        {
          "internalType": "address",
          "name": "arbitrator",
          "type": "address"
        },
        {
          "internalType": "bytes32",
          "name": "transactionId",
          "type": "bytes32"
        }
      ],
      "name": "setArbitratorWorking",
      "outputs": [],
      "stateMutability": "nonpayable",
      "type": "function"
    },
    {
      "inputs": [
        {
          "internalType": "address",
          "name": "_compensationManager",
          "type": "address"
        }
      ],
      "name": "setCompensationManager",
      "outputs": [],
      "stateMutability": "nonpayable",
      "type": "function"
    },
    {
      "inputs": [
        {
          "internalType": "address",
          "name": "_nftContract",
          "type": "address"
        }
      ],
      "name": "setNFTContract",
      "outputs": [],
      "stateMutability": "nonpayable",
      "type": "function"
    },
    {
      "inputs": [
        {
          "internalType": "address",
          "name": "operator",
          "type": "address"
        },
        {
          "internalType": "bytes",
          "name": "btcPubKey",
          "type": "bytes"
        },
        {
          "internalType": "string",
          "name": "btcAddress",
          "type": "string"
        }
      ],
      "name": "setOperator",
      "outputs": [],
      "stateMutability": "nonpayable",
      "type": "function"
    },
    {
      "inputs": [
        {
          "internalType": "address",
          "name": "ethAddress",
          "type": "address"
        },
        {
          "internalType": "bytes",
          "name": "btcPubKey",
          "type": "bytes"
        },
        {
          "internalType": "string",
          "name": "btcAddress",
          "type": "string"
        }
      ],
      "name": "setRevenueAddresses",
      "outputs": [],
      "stateMutability": "nonpayable",
      "type": "function"
    },
    {
      "inputs": [
        {
          "internalType": "address",
          "name": "_transactionManager",
          "type": "address"
        }
      ],
      "name": "setTransactionManager",
      "outputs": [],
      "stateMutability": "nonpayable",
      "type": "function"
    },
    {
      "inputs": [],
      "name": "stakeETH",
      "outputs": [],
      "stateMutability": "payable",
      "type": "function"
    },
    {
      "inputs": [
        {
          "internalType": "uint256[]",
          "name": "tokenIds",
          "type": "uint256[]"
        }
      ],
      "name": "stakeNFT",
      "outputs": [],
      "stateMutability": "nonpayable",
      "type": "function"
    },
    {
      "inputs": [
        {
          "internalType": "address",
          "name": "arbitrator",
          "type": "address"
        }
      ],
      "name": "terminateArbitratorWithSlash",
      "outputs": [],
      "stateMutability": "nonpayable",
      "type": "function"
    },
    {
      "inputs": [],
      "name": "transactionManager",
      "outputs": [
        {
          "internalType": "address",
          "name": "",
          "type": "address"
        }
      ],
      "stateMutability": "view",
      "type": "function"
    },
    {
      "inputs": [
        {
          "internalType": "address",
          "name": "newOwner",
          "type": "address"
        }
      ],
      "name": "transferOwnership",
      "outputs": [],
      "stateMutability": "nonpayable",
      "type": "function"
    },
    {
      "inputs": [],
      "name": "unpause",
      "outputs": [],
      "stateMutability": "nonpayable",
      "type": "function"
    },
    {
      "inputs": [],
      "name": "unstake",
      "outputs": [],
      "stateMutability": "nonpayable",
      "type": "function"
    },
    {
      "inputs": [],
      "name": "zeroAddress",
      "outputs": [
        {
          "internalType": "address",
          "name": "",
          "type": "address"
        }
      ],
      "stateMutability": "view",
      "type": "function"
    }
  ],
  "bytecode": "0x60806040523480156200001157600080fd5b506200001c62000022565b620000d6565b7ff0c57e16840df040f15088dc2f81fe391c3923bec73e23a9662efc9c229c6a00805468010000000000000000900460ff1615620000735760405163f92ee8a960e01b815260040160405180910390fd5b80546001600160401b0390811614620000d35780546001600160401b0319166001600160401b0390811782556040519081527fc7f505b2f371ae2175ee4913f4499e1f2633a7b5936321eed1cdaeb6115181d29060200160405180910390a15b50565b61512080620000e66000396000f3fe6080604052600436106102305760003560e01c80638456cb591161012e578063ca0ab075116100ab578063dceb986d1161006f578063dceb986d146106f6578063e25268d2146106fe578063e2b4efb81461071e578063e759b6801461073e578063f2fde38b1461075e57600080fd5b8063ca0ab07514610656578063cedb588b14610676578063d2b6f74b14610696578063d3f414e0146106b6578063d56d229d146106d657600080fd5b80639f7ca8dd116100f25780639f7ca8dd14610578578063a7ccabdf14610598578063b1130fd9146105b8578063b553fe1e14610616578063c0c53b8b1461063657600080fd5b80638456cb59146104c65780638da5cb5b146104db57806399056c3c14610518578063998b2fd8146105455780639b8b780f1461056557600080fd5b80632b2d37da116101bc57806344019f7e1161018057806344019f7e146104115780634476a660146104315780635b14f18314610451578063654b4e8314610491578063715018a6146104b157600080fd5b80632b2d37da146103875780632def6620146103a757806339c25e2c146103bc5780633b716452146103dc5780633f4ba83a146103fc57600080fd5b806314f6b1901161020357806314f6b190146102c9578063182c5744146102f75780631e57b87514610317578063291112511461033757806329a3f2031461036757600080fd5b8063044a291a146102355780630559b877146102575780630930907b146102945780630b1fa61c146102a9575b600080fd5b34801561024157600080fd5b50610255610250366004614409565b61077e565b005b34801561026357600080fd5b50600554610277906001600160a01b031681565b6040516001600160a01b0390911681526020015b60405180910390f35b3480156102a057600080fd5b50610277600081565b3480156102b557600080fd5b506102556102c4366004614437565b61095f565b3480156102d557600080fd5b506102e96102e4366004614437565b6109f7565b60405190815260200161028b565b34801561030357600080fd5b50610255610312366004614498565b610a33565b34801561032357600080fd5b5061025561033236600461451a565b610b68565b34801561034357600080fd5b50610357610352366004614437565b610cc1565b604051901515815260200161028b565b34801561037357600080fd5b506102556103823660046145cb565b611060565b34801561039357600080fd5b506102556103a236600461464d565b611179565b3480156103b357600080fd5b50610255611293565b3480156103c857600080fd5b506103576103d7366004614679565b61161c565b3480156103e857600080fd5b50600454610277906001600160a01b031681565b34801561040857600080fd5b50610255611646565b34801561041d57600080fd5b5061025561042c366004614409565b611712565b34801561043d57600080fd5b5061025561044c366004614437565b61181d565b34801561045d57600080fd5b5061035761046c366004614437565b6001600160a01b0316600090815260036020526040902054600160a01b900460ff1690565b34801561049d57600080fd5b506102556104ac3660046145cb565b6118b5565b3480156104bd57600080fd5b50610255611a1e565b3480156104d257600080fd5b50610255611a30565b3480156104e757600080fd5b507f9016d09d72d40fdae2fd8ceac6b6234c7706214fd39c1cd1e609a0528c199300546001600160a01b0316610277565b34801561052457600080fd5b50610538610533366004614437565b611aff565b60405161028b919061473d565b34801561055157600080fd5b50610255610560366004614437565b611ed5565b6102556105733660046148b5565b612220565b34801561058457600080fd5b50610357610593366004614437565b612304565b3480156105a457600080fd5b506102556105b3366004614437565b61269f565b3480156105c457600080fd5b506106076105d3366004614437565b60408051602080820183526000918290526001600160a01b0393909316815260068352819020815192830190915254815290565b6040519051815260200161028b565b34801561062257600080fd5b50600254610277906001600160a01b031681565b34801561064257600080fd5b5061025561065136600461493b565b612737565b34801561066257600080fd5b50600054610277906001600160a01b031681565b34801561068257600080fd5b5061025561069136600461464d565b6128f0565b3480156106a257600080fd5b506102556106b1366004614679565b612a08565b3480156106c257600080fd5b506102556106d1366004614437565b612b10565b3480156106e257600080fd5b50600154610277906001600160a01b031681565b610255612c5c565b34801561070a57600080fd5b506102e9610719366004614437565b612d60565b34801561072a57600080fd5b50610357610739366004614437565b612ecf565b34801561074a57600080fd5b50610255610759366004614409565b6133a1565b34801561076a57600080fd5b50610255610779366004614437565b613591565b600054604080516325ba6ce560e11b815290516001600160a01b0390921691636dd5b69d918391634b74d9ca916004808201926020929091908290030181865afa1580156107d0573d6000803e3d6000fd5b505050506040513d601f19601f820116820180604052508101906107f49190614986565b6040518263ffffffff1660e01b815260040161081291815260200190565b602060405180830381865afa15801561082f573d6000803e3d6000fd5b505050506040513d601f19601f820116820180604052508101906108539190614986565b8110156108935760405162461bcd60e51b8152602060048201526009602482015268466565546f6f4c6f7760b81b60448201526064015b60405180910390fd5b33600090815260036020526040902080546001600160a01b03166108e1576040805180820182526002815261209960f11b6020820152905162461bcd60e51b815261088a919060040161499f565b6108ea33612304565b61091e576040805180820182526002815261043360f41b6020820152905162461bcd60e51b815261088a919060040161499f565b6001810182905560405182815233907fc073301ddf8865aa8a0ac12d7b49f92e150867ffd6de12ce421d1ee62653dfc7906020015b60405180910390a25050565b6109676135cf565b6001600160a01b0381166109a557604080518082018252600281526105a360f41b6020820152905162461bcd60e51b815261088a919060040161499f565b600480546001600160a01b038381166001600160a01b0319831681179093556040519116919082907f960d9803c7ca631d3232d16e9971c7fd8e82d5f7ff7c2824c7b29dcab8a37d2e90600090a35050565b6001600160a01b038116600090815260036020526040812081610a1984612d60565b9050808260030154610a2b91906149c8565b949350505050565b6000819003610a6c576040805180820182526002815261453560f01b6020820152905162461bcd60e51b815261088a919060040161499f565b33600090815260036020526040902080546001600160a01b0316610aba576040805180820182526002815261209960f11b6020820152905162461bcd60e51b815261088a919060040161499f565b610ac333612304565b610af7576040805180820182526002815261043360f41b6020820152905162461bcd60e51b815261088a919060040161499f565b6000610b03848461362a565b9050610b108285856138da565b610b1e826003015482613b11565b610b2782613d43565b6001546040516001600160a01b039091169033906000805160206150ab83398151915290610b5a908590899089906149db565b60405180910390a350505050565b610b70613dc6565b6000889003610ba9576040805180820182526002815261453560f01b6020820152905162461bcd60e51b815261088a919060040161499f565b6000610bbb3389898989898989613dfe565b90506000610bc98b8b61362a565b9050610bd6828c8c6138da565b610be4826003015482613b11565b610bed82613d43565b600160009054906101000a90046001600160a01b03166001600160a01b0316336001600160a01b03166000805160206150ab833981519152838e8e604051610c37939291906149db565b60405180910390a36007820154600d8301546040516001600160a01b039283169233927f1ab9d0508879cf64270650fc89b30617972d694fd1053946f028860daf125c7c92610c9592909116908e908e908e908e908e908d90614a45565b60405180910390a35050610cb660016000805160206150cb83398151915255565b505050505050505050565b6001600160a01b03818116600090815260036020818152604080842081516102008101835281548088168252600160a01b900460ff16151581850152600182015481840152600282015460608201529381015460808501526004810154861660a0850152600581015490951660c084015260068501805482518185028101850190935280835294958695909360e0860193929190830182828015610d8457602002820191906000526020600020905b815481526020019060010190808311610d70575b505050918352505060078201546001600160a01b03166020820152600882018054604090920191610db490614a94565b80601f0160208091040260200160405190810160405280929190818152602001828054610de090614a94565b8015610e2d5780601f10610e0257610100808354040283529160200191610e2d565b820191906000526020600020905b815481529060010190602001808311610e1057829003601f168201915b50505050508152602001600982018054610e4690614a94565b80601f0160208091040260200160405190810160405280929190818152602001828054610e7290614a94565b8015610ebf5780601f10610e9457610100808354040283529160200191610ebf565b820191906000526020600020905b815481529060010190602001808311610ea257829003601f168201915b50505050508152602001600a8201548152602001600b82018054610ee290614a94565b80601f0160208091040260200160405190810160405280929190818152602001828054610f0e90614a94565b8015610f5b5780601f10610f3057610100808354040283529160200191610f5b565b820191906000526020600020905b815481529060010190602001808311610f3e57829003601f168201915b50505050508152602001600c82018054610f7490614a94565b80601f0160208091040260200160405190810160405280929190818152602001828054610fa090614a94565b8015610fed5780601f10610fc257610100808354040283529160200191610fed565b820191906000526020600020905b815481529060010190602001808311610fd057829003601f168201915b5050509183525050600d8201546001600160a01b039081166020830152600e90920154604090910152815191925016611050576040805180820182526002815261209960f11b6020820152905162461bcd60e51b815261088a919060040161499f565b61105981613f1f565b9392505050565b33600090815260036020526040902080546001600160a01b03166110ae576040805180820182526002815261209960f11b6020820152905162461bcd60e51b815261088a919060040161499f565b6110b733612304565b6110eb576040805180820182526002815261043360f41b6020820152905162461bcd60e51b815261088a919060040161499f565b600d810180546001600160a01b0319166001600160a01b038816179055600b8101611117858783614b33565b50600c8101611127838583614b33565b50336001600160a01b03167f8e68353cf53df77c6b6993341bb1d784fab04f2f38b2c51654b51de6ce32274e8787878787604051611169959493929190614bf2565b60405180910390a2505050505050565b6004546001600160a01b031633146111bb5760408051808201825260028152614e3160f01b6020820152905162461bcd60e51b815261088a919060040161499f565b600554600160a01b900460ff166111fc5760408051808201825260028152614e3560f01b6020820152905162461bcd60e51b815261088a919060040161499f565b6001600160a01b038216600090815260036020526040902061121d83612ecf565b611251576040805180820182526002815261413360f01b6020820152905162461bcd60e51b815261088a919060040161499f565b6002810182905560405182906001600160a01b038516907f43b9442ba3328a37dad0041120b36563dafcdbdb7b200665d8cbb0c44982720c90600090a3505050565b61129b613dc6565b3360009081526003602052604090206002810154156112f05760405162461bcd60e51b815260206004820152601160248201527041726269747261746f72576f726b696e6760781b604482015260640161088a565b3360009081526003602052604090208054611313906001600160a01b0316612304565b611347576040805180820182526002815261533160f01b6020820152905162461bcd60e51b815261088a919060040161499f565b60008160030154118061135d5750600681015415155b6113935760405162461bcd60e51b81526020600482015260076024820152664e6f5374616b6560c81b604482015260640161088a565b600381018054600090915560058201546001600160a01b0316158015906113bd5750600682015415155b156115375760008260060180548060200260200160405190810160405280929190818152602001828054801561141257602002820191906000526020600020905b8154815260200190600101908083116113fe575b509394506000935061142392505050565b60405190808252806020026020018201604052801561144c578160200160208202803683370190505b5080516114639160068601916020909101906143a9565b506005830180546001600160a01b031916905560005b81518110156115345760015482516001600160a01b03909116906323b872dd90309033908690869081106114af576114af614c36565b60209081029190910101516040516001600160e01b031960e086901b1681526001600160a01b0393841660048201529290911660248301526044820152606401600060405180830381600087803b15801561150957600080fd5b505af115801561151d573d6000803e3d6000fd5b50505050808061152c90614c4c565b915050611479565b50505b80156115c857604051600090339083908381818185875af1925050503d806000811461157f576040519150601f19603f3d011682016040523d82523d6000602084013e611584565b606091505b50509050806115c65760405162461bcd60e51b815260206004820152600e60248201526d151c985b9cd9995c91985a5b195960921b604482015260640161088a565b505b60405181815260009033907fb7c918e0e249f999e965cafeb6c664271b3f4317d296461500e71da39f0cbda39060200160405180910390a350505061161a60016000805160206150cb83398151915255565b565b6001600160a01b038281166000908152600360205260409020600701548116908216145b92915050565b33600090815260036020526040902080546001600160a01b0316611694576040805180820182526002815261209960f11b6020820152905162461bcd60e51b815261088a919060040161499f565b8054600160a01b900460ff166116d95760405162461bcd60e51b815260206004820152600a6024820152691b9bdd081c185d5cd95960b21b604482015260640161088a565b805460ff60a01b1916815560405133907f9f71f687820b75e4208e6fdd2091be151d94465fe4bafd2506bed2b9a430437d90600090a250565b428111611749576040805180820182526002815261543360f01b6020820152905162461bcd60e51b815261088a919060040161499f565b33600090815260036020526040902080546001600160a01b0316611797576040805180820182526002815261209960f11b6020820152905162461bcd60e51b815261088a919060040161499f565b600081600a01541180156117af575080600a01548211155b156117e4576040805180820182526002815261543360f01b6020820152905162461bcd60e51b815261088a919060040161499f565b600a810182905560405182815233907fff191d17033fc90a7dae896652cf93df6f261bc4176c000d0e5e21345b139ccb90602001610953565b6118256135cf565b6001600160a01b03811661186357604080518082018252600281526105a360f41b6020820152905162461bcd60e51b815261088a919060040161499f565b600580546001600160a01b038381166001600160a01b0319831681179093556040519116919082907fb2de57cf284062a9a3402f8683281c49d5a6747b1f369d0eec883b83503f3c8d90600090a35050565b6001600160a01b0385166118fd5760405162461bcd60e51b815260206004820152600f60248201526e24b73b30b634b227b832b930ba37b960891b604482015260640161088a565b61190633612304565b61193a576040805180820182526002815261043360f41b6020820152905162461bcd60e51b815261088a919060040161499f565b33600090815260036020526040902080546001600160a01b0316611988576040805180820182526002815261209960f11b6020820152905162461bcd60e51b815261088a919060040161499f565b6007810180546001600160a01b0319166001600160a01b038816179055600881016119b4858783614b33565b50600981016119c4838583614b33565b50856001600160a01b0316336001600160a01b03167ff920b7832d3774e2ac2efb86fccb411bc92e19a8ea66687764dea93140bdad4a87878787604051611a0e9493929190614c65565b60405180910390a3505050505050565b611a266135cf565b61161a6000613fcf565b33600090815260036020526040902080546001600160a01b0316611a7e576040805180820182526002815261209960f11b6020820152905162461bcd60e51b815261088a919060040161499f565b611a8733612ecf565b611ac05760405162461bcd60e51b815260206004820152600a6024820152694e6f742061637469766560b01b604482015260640161088a565b805460ff60a01b1916600160a01b17815560405133907ff8f74f9bb1ed360c36a0bd59e0d8aa5cbdd15bb6e8e86af871f343daf432be2290600090a250565b604080516102008101825260008082526020820181905291810182905260608082018390526080820183905260a0820183905260c0820183905260e08201819052610100820183905261012082018190526101408201819052610160820183905261018082018190526101a08201526101c081018290526101e08101919091526001600160a01b0382811660009081526003602081815260409283902083516102008101855281548087168252600160a01b900460ff16151581840152600182015481860152600282015460608201529281015460808401526004810154851660a0840152600581015490941660c083015260068401805484518184028101840190955280855292949360e08601939092830182828015611c3f57602002820191906000526020600020905b815481526020019060010190808311611c2b575b505050918352505060078201546001600160a01b03166020820152600882018054604090920191611c6f90614a94565b80601f0160208091040260200160405190810160405280929190818152602001828054611c9b90614a94565b8015611ce85780601f10611cbd57610100808354040283529160200191611ce8565b820191906000526020600020905b815481529060010190602001808311611ccb57829003601f168201915b50505050508152602001600982018054611d0190614a94565b80601f0160208091040260200160405190810160405280929190818152602001828054611d2d90614a94565b8015611d7a5780601f10611d4f57610100808354040283529160200191611d7a565b820191906000526020600020905b815481529060010190602001808311611d5d57829003601f168201915b50505050508152602001600a8201548152602001600b82018054611d9d90614a94565b80601f0160208091040260200160405190810160405280929190818152602001828054611dc990614a94565b8015611e165780601f10611deb57610100808354040283529160200191611e16565b820191906000526020600020905b815481529060010190602001808311611df957829003601f168201915b50505050508152602001600c82018054611e2f90614a94565b80601f0160208091040260200160405190810160405280929190818152602001828054611e5b90614a94565b8015611ea85780601f10611e7d57610100808354040283529160200191611ea8565b820191906000526020600020905b815481529060010190602001808311611e8b57829003601f168201915b5050509183525050600d8201546001600160a01b03166020820152600e9091015460409091015292915050565b6005546001600160a01b03163314611f175760408051808201825260028152614e3760f01b6020820152905162461bcd60e51b815261088a919060040161499f565b600554600160a01b900460ff16611f585760408051808201825260028152614e3560f01b6020820152905162461bcd60e51b815261088a919060040161499f565b6001600160a01b0380821660009081526003602052604090208054909116611faa576040805180820182526002815261209960f11b6020820152905162461bcd60e51b815261088a919060040161499f565b6003810154801561204a576000600383018190556005546040516001600160a01b039091169083908381818185875af1925050503d806000811461200a576040519150601f19603f3d011682016040523d82523d6000602084013e61200f565b606091505b5050905080612048576040805180820182526002815261463160f01b6020820152905162461bcd60e51b815261088a919060040161499f565b505b60058201546001600160a01b0316158015906120695750600682015415155b156121e7576000826006018054806020026020016040519081016040528092919081815260200182805480156120be57602002820191906000526020600020905b8154815260200190600101908083116120aa575b50939450600093506120cf92505050565b6040519080825280602002602001820160405280156120f8578160200160208202803683370190505b50805161210f9160068601916020909101906143a9565b506005830180546001600160a01b031916905560005b81518110156121e45760015460055483516001600160a01b03928316926323b872dd92309291169086908690811061215f5761215f614c36565b60209081029190910101516040516001600160e01b031960e086901b1681526001600160a01b0393841660048201529290911660248301526044820152606401600060405180830381600087803b1580156121b957600080fd5b505af11580156121cd573d6000803e3d6000fd5b5050505080806121dc90614c4c565b915050612125565b50505b6040516001600160a01b038416907fc0c6efb1c6f315e6721ba44dc1a435e4ca9a730d45f3caf4a67c43b22ca008a290600090a2505050565b60006122323389898989898989613dfe565b905061223f346000613b11565b3481600301600082825461225391906149c8565b909155505080546040805160008082526020820192839052926001600160a01b0316916000805160206150ab8339815191529161229291349190614c97565b60405180910390a36007810154600d8201546040516001600160a01b039283169233927f1ab9d0508879cf64270650fc89b30617972d694fd1053946f028860daf125c7c926122f29290911690600c870190600b8801908b908a90614d62565b60405180910390a35050505050505050565b6001600160a01b03818116600090815260036020818152604080842081516102008101835281548088168252600160a01b900460ff16151581850152600182015481840152600282015460608201529381015460808501526004810154861660a0850152600581015490951660c084015260068501805482518185028101850190935280835294958695909360e08601939291908301828280156123c757602002820191906000526020600020905b8154815260200190600101908083116123b3575b505050918352505060078201546001600160a01b031660208201526008820180546040909201916123f790614a94565b80601f016020809104026020016040519081016040528092919081815260200182805461242390614a94565b80156124705780601f1061244557610100808354040283529160200191612470565b820191906000526020600020905b81548152906001019060200180831161245357829003601f168201915b5050505050815260200160098201805461248990614a94565b80601f01602080910402602001604051908101604052809291908181526020018280546124b590614a94565b80156125025780601f106124d757610100808354040283529160200191612502565b820191906000526020600020905b8154815290600101906020018083116124e557829003601f168201915b50505050508152602001600a8201548152602001600b8201805461252590614a94565b80601f016020809104026020016040519081016040528092919081815260200182805461255190614a94565b801561259e5780601f106125735761010080835404028352916020019161259e565b820191906000526020600020905b81548152906001019060200180831161258157829003601f168201915b50505050508152602001600c820180546125b790614a94565b80601f01602080910402602001604051908101604052809291908181526020018280546125e390614a94565b80156126305780601f1061260557610100808354040283529160200191612630565b820191906000526020600020905b81548152906001019060200180831161261357829003601f168201915b5050509183525050600d8201546001600160a01b039081166020830152600e9092015460409091015281519192501661266c5750600092915050565b60608101511561267f5750600092915050565b61268881613f1f565b156126965750600092915050565b50600192915050565b6126a76135cf565b6001600160a01b0381166126e557604080518082018252600281526105a360f41b6020820152905162461bcd60e51b815261088a919060040161499f565b600180546001600160a01b038381166001600160a01b0319831681179093556040519116919082907fab9636faa03b42a52a353eb86f070f1ac15b69f0bc419fba63d07b5d996edad790600090a35050565b7ff0c57e16840df040f15088dc2f81fe391c3923bec73e23a9662efc9c229c6a008054600160401b810460ff1615906001600160401b031660008115801561277c5750825b90506000826001600160401b031660011480156127985750303b155b9050811580156127a6575080155b156127c45760405163f92ee8a960e01b815260040160405180910390fd5b845467ffffffffffffffff1916600117855583156127ee57845460ff60401b1916600160401b1785555b6127f6614040565b6127ff33614050565b6001600160a01b038816158061281c57506001600160a01b038716155b8061282e57506001600160a01b038616155b1561286357604080518082018252600281526105a360f41b6020820152905162461bcd60e51b815261088a919060040161499f565b600080546001600160a01b03808b166001600160a01b031992831617909255600180548a8416908316179055600280549289169290911691909117905583156128e657845460ff60401b19168555604051600181527fc7f505b2f371ae2175ee4913f4499e1f2633a7b5936321eed1cdaeb6115181d29060200160405180910390a15b5050505050505050565b6004546001600160a01b031633146129325760408051808201825260028152614e3160f01b6020820152905162461bcd60e51b815261088a919060040161499f565b600554600160a01b900460ff166129735760408051808201825260028152614e3560f01b6020820152905162461bcd60e51b815261088a919060040161499f565b6001600160a01b0382166000908152600360205260409020600281015482146129c65760408051808201825260028152612a1b60f11b6020820152905162461bcd60e51b815261088a919060040161499f565b60006002820181905560405183916001600160a01b038616917fec0516e78db51665510a6ab319cb07cbb5b1e66d1de10f9abd1994eaaa555b309190a3505050565b612a106135cf565b600554600160a01b900460ff1615612a52576040805180820182526002815261041360f41b6020820152905162461bcd60e51b815261088a919060040161499f565b6001600160a01b0382161580612a6f57506001600160a01b038116155b15612aa457604080518082018252600281526105a360f41b6020820152905162461bcd60e51b815261088a919060040161499f565b600480546001600160a01b038085166001600160a01b03199092168217909255600580546001600160a81b03191684841617600160a01b17908190556040519216917f255c9edca3ea4cd6ff3c64c4cd7a5f812c6ae0ca0ae939f85e9e3eb49cdb416f90600090a35050565b6004546001600160a01b03163314612b525760408051808201825260028152614e3160f01b6020820152905162461bcd60e51b815261088a919060040161499f565b600554600160a01b900460ff16612b935760408051808201825260028152614e3560f01b6020820152905162461bcd60e51b815261088a919060040161499f565b6001600160a01b0380821660009081526003602052604090208054909116612be5576040805180820182526002815261209960f11b6020820152905162461bcd60e51b815261088a919060040161499f565b6002810154612c1e576040805180820182526002815261413560f01b6020820152905162461bcd60e51b815261088a919060040161499f565b42600e8201556040516001600160a01b038316907fb5c433aa54e775c63ae22f75b359af0e25c57eddd9bb55eb71445b74b523bfa890600090a25050565b33600090815260036020526040902080546001600160a01b0316612caa576040805180820182526002815261209960f11b6020820152905162461bcd60e51b815261088a919060040161499f565b612cb333612304565b612ce7576040805180820182526002815261043360f41b6020820152905162461bcd60e51b815261088a919060040161499f565b6000612cf233612d60565b90506000348360030154612d0691906149c8565b600384018190559050612d198183613b11565b82546040805160008082526020820192839052926001600160a01b0316916000805160206150ab83398151915291612d5391349190614c97565b60405180910390a3505050565b6001600160a01b038116600090815260036020526040812081805b6006830154811015612ec7576002546006840180546000926001600160a01b03169163d5ec2d839185908110612db357612db3614c36565b90600052602060002001546040518263ffffffff1660e01b8152600401612ddc91815260200190565b600060405180830381865afa158015612df9573d6000803e3d6000fd5b505050506040513d6000823e601f3d908101601f19168201604052612e219190810190614e57565b91505060005b816060015151811015612eb257600080612e7084606001518481518110612e5057612e50614c36565b6020026020010151602001516001600160401b03166402540be400614061565b9150915081612e915760405162461bcd60e51b815260040161088a90615033565b612e9b81876149c8565b955050508080612eaa90614c4c565b915050612e27565b50508080612ebf90614c4c565b915050612d7b565b509392505050565b6001600160a01b0381166000908152600360205260408120600a81015415801590612efe57504281600a015411155b15612f0c5750600092915050565b8054600090612f23906001600160a01b03166109f7565b600054604080516332c70ad760e21b815290519293506001600160a01b0390911691636dd5b69d91839163cb1c2b5c916004808201926020929091908290030181865afa158015612f78573d6000803e3d6000fd5b505050506040513d601f19601f82011682018060405250810190612f9c9190614986565b6040518263ffffffff1660e01b8152600401612fba91815260200190565b602060405180830381865afa158015612fd7573d6000803e3d6000fd5b505050506040513d601f19601f82011682018060405250810190612ffb9190614986565b81101561300c575060009392505050565b604080516102008101825283546001600160a01b038082168352600160a01b90910460ff16151560208084019190915260018601548385015260028601546060840152600386015460808401526004860154821660a0840152600586015490911660c083015260068501805484518184028101840190955280855261335994879360e08601939192908301828280156130c457602002820191906000526020600020905b8154815260200190600101908083116130b0575b505050918352505060078201546001600160a01b031660208201526008820180546040909201916130f490614a94565b80601f016020809104026020016040519081016040528092919081815260200182805461312090614a94565b801561316d5780601f106131425761010080835404028352916020019161316d565b820191906000526020600020905b81548152906001019060200180831161315057829003601f168201915b5050505050815260200160098201805461318690614a94565b80601f01602080910402602001604051908101604052809291908181526020018280546131b290614a94565b80156131ff5780601f106131d4576101008083540402835291602001916131ff565b820191906000526020600020905b8154815290600101906020018083116131e257829003601f168201915b50505050508152602001600a8201548152602001600b8201805461322290614a94565b80601f016020809104026020016040519081016040528092919081815260200182805461324e90614a94565b801561329b5780601f106132705761010080835404028352916020019161329b565b820191906000526020600020905b81548152906001019060200180831161327e57829003601f168201915b50505050508152602001600c820180546132b490614a94565b80601f01602080910402602001604051908101604052809291908181526020018280546132e090614a94565b801561332d5780601f106133025761010080835404028352916020019161332d565b820191906000526020600020905b81548152906001019060200180831161331057829003601f168201915b5050509183525050600d8201546001600160a01b03166020820152600e90910154604090910152613f1f565b15613368575060009392505050565b60028201541561337c575060009392505050565b8154600160a01b900460ff1615613397575060009392505050565b5060019392505050565b600080546040805163c1df30e760e01b815290516001600160a01b0390921691636dd5b69d91839163c1df30e7916004808201926020929091908290030181865afa1580156133f4573d6000803e3d6000fd5b505050506040513d601f19601f820116820180604052508101906134189190614986565b6040518263ffffffff1660e01b815260040161343691815260200190565b602060405180830381865afa158015613453573d6000803e3d6000fd5b505050506040513d601f19601f820116820180604052508101906134779190614986565b90508082101560405180604001604052806002815260200161231960f11b815250906134b65760405162461bcd60e51b815260040161088a919061499f565b5033600090815260036020526040902080546001600160a01b0316613505576040805180820182526002815261209960f11b6020820152905162461bcd60e51b815261088a919060040161499f565b61350e33612304565b613542576040805180820182526002815261043360f41b6020820152905162461bcd60e51b815261088a919060040161499f565b3360008181526006602090815260409182902086815591518681529192917fbcd8d0abb132b9a9534aa067f584e08ce64ce660c76341289b7cb067267c7710910160405180910390a250505050565b6135996135cf565b6001600160a01b0381166135c357604051631e4fbdf760e01b81526000600482015260240161088a565b6135cc81613fcf565b50565b336136017f9016d09d72d40fdae2fd8ceac6b6234c7706214fd39c1cd1e609a0528c199300546001600160a01b031690565b6001600160a01b03161461161a5760405163118cdaa760e01b815233600482015260240161088a565b600080806402540be400815b85811015613772576002546000906001600160a01b031663d5ec2d8389898581811061366457613664614c36565b905060200201356040518263ffffffff1660e01b815260040161368991815260200190565b600060405180830381865afa1580156136a6573d6000803e3d6000fd5b505050506040513d6000823e601f3d908101601f191682016040526136ce9190810190614e57565b91505060005b81606001515181101561375d57816060015181815181106136f7576136f7614c36565b6020026020010151602001516001600160401b0316945060008061371b8787614061565b915091508161373c5760405162461bcd60e51b815260040161088a90615033565b61374681896149c8565b97505050808061375590614c4c565b9150506136d4565b5050808061376a90614c4c565b915050613636565b50336000908152600360205260408120905b60068201548110156138ce576002546006830180546000926001600160a01b03169163d5ec2d8391859081106137bc576137bc614c36565b90600052602060002001546040518263ffffffff1660e01b81526004016137e591815260200190565b600060405180830381865afa158015613802573d6000803e3d6000fd5b505050506040513d6000823e601f3d908101601f1916820160405261382a9190810190614e57565b91505060005b8160600151518110156138b9578160600151818151811061385357613853614c36565b6020026020010151602001516001600160401b031695506000806138778888614061565b91509150816138985760405162461bcd60e51b815260040161088a90615033565b6138a2818a6149c8565b9850505080806138b190614c4c565b915050613830565b505080806138c690614c4c565b915050613784565b50929695505050505050565b60015460405163e985e9c560e01b81523360048201523060248201526000916001600160a01b03169063e985e9c590604401602060405180830381865afa158015613929573d6000803e3d6000fd5b505050506040513d601f19601f8201168201806040525081019061394d9190615055565b905060005b82811015613b0a5781613a2c5760015430906001600160a01b031663081812fc86868581811061398457613984614c36565b905060200201356040518263ffffffff1660e01b81526004016139a991815260200190565b602060405180830381865afa1580156139c6573d6000803e3d6000fd5b505050506040513d601f19601f820116820180604052508101906139ea9190615077565b6001600160a01b031614613a2c5760405162461bcd60e51b81526020600482015260096024820152684e6f417070726f766560b81b604482015260640161088a565b6001546001600160a01b03166323b872dd3330878786818110613a5157613a51614c36565b6040516001600160e01b031960e088901b1681526001600160a01b03958616600482015294909316602485015250602090910201356044820152606401600060405180830381600087803b158015613aa857600080fd5b505af1158015613abc573d6000803e3d6000fd5b5050505084600601848483818110613ad657613ad6614c36565b8354600181018555600094855260209485902091909402929092013591909201555080613b0281614c4c565b915050613952565b5050505050565b6000613b1d82846149c8565b60008054604080516332c70ad760e21b8152905193945091926001600160a01b0390911691636dd5b69d91839163cb1c2b5c9160048083019260209291908290030181865afa158015613b74573d6000803e3d6000fd5b505050506040513d601f19601f82011682018060405250810190613b989190614986565b6040518263ffffffff1660e01b8152600401613bb691815260200190565b602060405180830381865afa158015613bd3573d6000803e3d6000fd5b505050506040513d601f19601f82011682018060405250810190613bf79190614986565b600080546040805163c98517c560e01b8152905193945091926001600160a01b0390911691636dd5b69d91839163c98517c59160048083019260209291908290030181865afa158015613c4e573d6000803e3d6000fd5b505050506040513d601f19601f82011682018060405250810190613c729190614986565b6040518263ffffffff1660e01b8152600401613c9091815260200190565b602060405180830381865afa158015613cad573d6000803e3d6000fd5b505050506040513d601f19601f82011682018060405250810190613cd19190614986565b905081831015613d0b576040805180820182526002815261299960f11b6020820152905162461bcd60e51b815261088a919060040161499f565b80831115613b0a576040805180820182526002815261533360f01b6020820152905162461bcd60e51b815261088a919060040161499f565b60058101546001600160a01b0316613d7c576001546005820180546001600160a01b0319166001600160a01b0390921691909117905550565b60015460058201546001600160a01b039081169116146135cc576040805180820182526002815261249b60f11b6020820152905162461bcd60e51b815261088a919060040161499f565b6000805160206150cb833981519152805460011901613df857604051633ee5aeb560e01b815260040160405180910390fd5b60029055565b6001600160a01b0380891660009081526003602052604081208054919290911615613e53576040805180820182526002815261413160f01b6020820152905162461bcd60e51b815261088a919060040161499f565b613e62898989898989896140ac565b80546001600160a01b038b166001600160a01b031991821681178355600783018054831682179055600d83018054909216179055600c8101613ea5898b83614b33565b50600b8101613eb5878983614b33565b5060098101613ec5898b83614b33565b5060088101613ed5878983614b33565b50600181019490945550600a8301556001600160a01b039690961660009081526006602052604090209590955550929392505050565b60016000805160206150cb83398151915255565b6000805460408051632f672f1960e11b8152905183926001600160a01b031691635ece5e329160048083019260209291908290030181865afa158015613f69573d6000803e3d6000fd5b505050506040513d601f19601f82011682018060405250810190613f8d9190614986565b9050826101e00151600003613fa55750600092915050565b4281846101e00151613fb791906149c8565b1115613fc65750600192915050565b50600092915050565b7f9016d09d72d40fdae2fd8ceac6b6234c7706214fd39c1cd1e609a0528c19930080546001600160a01b031981166001600160a01b03848116918217845560405192169182907f8be0079c531659141344cd1fd0a4f28419497f9722a3daafe3b4186f6b6457e090600090a3505050565b614048614350565b61161a614399565b614058614350565b6135cc816143a1565b6000808360000361407857506001905060006140a5565b8383028385828161408b5761408b615094565b041461409e5760008092509250506140a5565b6001925090505b9250929050565b8515806140b7575083155b156140ec576040805180820182526002815261049360f41b6020820152905162461bcd60e51b815261088a919060040161499f565b60008054604080516325ba6ce560e11b815290516001600160a01b0390921691636dd5b69d918391634b74d9ca916004808201926020929091908290030181865afa15801561413f573d6000803e3d6000fd5b505050506040513d601f19601f820116820180604052508101906141639190614986565b6040518263ffffffff1660e01b815260040161418191815260200190565b602060405180830381865afa15801561419e573d6000803e3d6000fd5b505050506040513d601f19601f820116820180604052508101906141c29190614986565b9050808410156141fc576040805180820182526002815261046360f41b6020820152905162461bcd60e51b815261088a919060040161499f565b600080546040805163c1df30e760e01b815290516001600160a01b0390921691636dd5b69d91839163c1df30e7916004808201926020929091908290030181865afa15801561424f573d6000803e3d6000fd5b505050506040513d601f19601f820116820180604052508101906142739190614986565b6040518263ffffffff1660e01b815260040161429191815260200190565b602060405180830381865afa1580156142ae573d6000803e3d6000fd5b505050506040513d601f19601f820116820180604052508101906142d29190614986565b90508084101561430c576040805180820182526002815261231960f11b6020820152905162461bcd60e51b815261088a919060040161499f565b821580159061431b5750428311155b15610cb6576040805180820182526002815261543360f01b6020820152905162461bcd60e51b815261088a919060040161499f565b7ff0c57e16840df040f15088dc2f81fe391c3923bec73e23a9662efc9c229c6a0054600160401b900460ff1661161a57604051631afcd79f60e31b815260040160405180910390fd5b613f0b614350565b613599614350565b8280548282559060005260206000209081019282156143e4579160200282015b828111156143e45782518255916020019190600101906143c9565b506143f09291506143f4565b5090565b5b808211156143f057600081556001016143f5565b60006020828403121561441b57600080fd5b5035919050565b6001600160a01b03811681146135cc57600080fd5b60006020828403121561444957600080fd5b813561105981614422565b60008083601f84011261446657600080fd5b5081356001600160401b0381111561447d57600080fd5b6020830191508360208260051b85010111156140a557600080fd5b600080602083850312156144ab57600080fd5b82356001600160401b038111156144c157600080fd5b6144cd85828601614454565b90969095509350505050565b60008083601f8401126144eb57600080fd5b5081356001600160401b0381111561450257600080fd5b6020830191508360208285010111156140a557600080fd5b600080600080600080600080600060c08a8c03121561453857600080fd5b89356001600160401b038082111561454f57600080fd5b61455b8d838e01614454565b909b50995060208c013591508082111561457457600080fd5b6145808d838e016144d9565b909950975060408c013591508082111561459957600080fd5b506145a68c828d016144d9565b9a9d999c50979a969997986060880135976080810135975060a0013595509350505050565b6000806000806000606086880312156145e357600080fd5b85356145ee81614422565b945060208601356001600160401b038082111561460a57600080fd5b61461689838a016144d9565b9096509450604088013591508082111561462f57600080fd5b5061463c888289016144d9565b969995985093965092949392505050565b6000806040838503121561466057600080fd5b823561466b81614422565b946020939093013593505050565b6000806040838503121561468c57600080fd5b823561469781614422565b915060208301356146a781614422565b809150509250929050565b600081518084526020808501945080840160005b838110156146e2578151875295820195908201906001016146c6565b509495945050505050565b60005b838110156147085781810151838201526020016146f0565b50506000910152565b600081518084526147298160208601602086016146ed565b601f01601f19169290920160200192915050565b602081526147576020820183516001600160a01b03169052565b6000602083015161476c604084018215159052565b506040830151606083015260608301516080830152608083015160a083015260a08301516147a560c08401826001600160a01b03169052565b5060c08301516001600160a01b03811660e08401525060e083015161020061010081818601526147d96102208601846146b2565b908601519092506101206147f7868201836001600160a01b03169052565b80870151915050601f196101408187860301818801526148178584614711565b9450808801519250506101608187860301818801526148368584614711565b9450808801519250506101808281880152808801519250506101a08187860301818801526148648584614711565b9450808801519250506101c08187860301818801526148838584614711565b945080880151925050506101e06148a4818701836001600160a01b03169052565b959095015193019290925250919050565b600080600080600080600060a0888a0312156148d057600080fd5b87356001600160401b03808211156148e757600080fd5b6148f38b838c016144d9565b909950975060208a013591508082111561490c57600080fd5b506149198a828b016144d9565b989b979a50986040810135976060820135975060809091013595509350505050565b60008060006060848603121561495057600080fd5b833561495b81614422565b9250602084013561496b81614422565b9150604084013561497b81614422565b809150509250925092565b60006020828403121561499857600080fd5b5051919050565b6020815260006110596020830184614711565b634e487b7160e01b600052601160045260246000fd5b80820180821115611640576116406149b2565b838152604060208201819052810182905260006001600160fb1b03831115614a0257600080fd5b8260051b8085606085013791909101606001949350505050565b81835281816020850137506000828201602090810191909152601f909101601f19169091010190565b6001600160a01b038816815260a060208201819052600090614a6a908301888a614a1c565b8281036040840152614a7d818789614a1c565b606084019590955250506080015295945050505050565b600181811c90821680614aa857607f821691505b602082108103614ac857634e487b7160e01b600052602260045260246000fd5b50919050565b634e487b7160e01b600052604160045260246000fd5b601f821115614b2e57600081815260208120601f850160051c81016020861015614b0b5750805b601f850160051c820191505b81811015614b2a57828155600101614b17565b5050505b505050565b6001600160401b03831115614b4a57614b4a614ace565b614b5e83614b588354614a94565b83614ae4565b6000601f841160018114614b925760008515614b7a5750838201355b600019600387901b1c1916600186901b178355613b0a565b600083815260209020601f19861690835b82811015614bc35786850135825560209485019460019092019101614ba3565b5086821015614be05760001960f88860031b161c19848701351681555b505060018560011b0183555050505050565b6001600160a01b0386168152606060208201819052600090614c179083018688614a1c565b8281036040840152614c2a818587614a1c565b98975050505050505050565b634e487b7160e01b600052603260045260246000fd5b600060018201614c5e57614c5e6149b2565b5060010190565b604081526000614c79604083018688614a1c565b8281036020840152614c8c818587614a1c565b979650505050505050565b6000604082018483526020604081850152818551808452606086019150828701935060005b81811015614cd857845183529383019391830191600101614cbc565b5090979650505050505050565b60008154614cf281614a94565b808552602060018381168015614d0f5760018114614d2957614d57565b60ff1985168884015283151560051b880183019550614d57565b866000528260002060005b85811015614d4f5781548a8201860152908301908401614d34565b890184019650505b505050505092915050565b6001600160a01b038616815260a060208201819052600090614d8690830187614ce5565b8281036040840152614d988187614ce5565b60608401959095525050608001529392505050565b604051608081016001600160401b0381118282101715614dcf57614dcf614ace565b60405290565b604051606081016001600160401b0381118282101715614dcf57614dcf614ace565b604051601f8201601f191681016001600160401b0381118282101715614e1f57614e1f614ace565b604052919050565b805163ffffffff81168114614e3b57600080fd5b919050565b80516001600160401b0381168114614e3b57600080fd5b60008060408385031215614e6a57600080fd5b8251915060208301516001600160401b0380821115614e8857600080fd5b9084019060808287031215614e9c57600080fd5b614ea4614dad565b82518152614eb460208401614e27565b6020820152604083015160ff81168114614ecd57600080fd5b6040820152606083015182811115614ee457600080fd5b80840193505086601f840112614ef957600080fd5b825182811115614f0b57614f0b614ace565b614f1a60208260051b01614df7565b8082825260208201915060208360051b870101925089831115614f3c57600080fd5b602086015b8381101561501f57805186811115614f5857600080fd5b8701601f196060828e0382011215614f6f57600080fd5b614f77614dd5565b602083015189811115614f8957600080fd5b8301603f81018f13614f9a57600080fd5b60208101518a811115614faf57614faf614ace565b614fc0602085601f84011601614df7565b93508084528f6040828401011115614fd757600080fd5b614fe88160208601604085016146ed565b5050818152614ff960408401614e40565b602082015261500a60608401614e27565b60408201528552505060209283019201614f41565b506060840152509497909650945050505050565b6020808252600890820152674f766572666c6f7760c01b604082015260600190565b60006020828403121561506757600080fd5b8151801515811461105957600080fd5b60006020828403121561508957600080fd5b815161105981614422565b634e487b7160e01b600052601260045260246000fdfe03666b063f075e29b3926eb82a4d1f7746231db3395483f453e477b56531038e9b779b17422d0df92223018b32b4d1fa46e071723d6817e2486d003becc55f00a26469706673582212206300b44713739bcb902a03f2849d394956b233b914ff4922c579cbe7f9bf231564736f6c63430008140033",
  "linkReferences": {},
  "deployedLinkReferences": {}
}