{
  "_format": "hh-sol-artifact-1",
  "contractName": "ConfigManagerKeys",
  "sourceName": "contracts/libraries/ConfigManagerKeys.sol",
  "abi": [
    {
      "inputs": [],
      "name": "ARBITRATION_BTC_FEE_RATE",
      "outputs": [
        {
          "internalType": "bytes32",
          "name": "",
          "type": "bytes32"
        }
      ],
      "stateMutability": "view",
      "type": "function"
    },
    {
      "inputs": [],
      "name": "ARBITRATION_FROZEN_PERIOD",
      "outputs": [
        {
          "internalType": "bytes32",
          "name": "",
          "type": "bytes32"
        }
      ],
      "stateMutability": "view",
      "type": "function"
    },
    {
      "inputs": [],
      "name": "ARBITRATION_TIMEOUT",
      "outputs": [
        {
          "internalType": "bytes32",
          "name": "",
          "type": "bytes32"
        }
      ],
      "stateMutability": "view",
      "type": "function"
    },
    {
      "inputs": [],
      "name": "MAX_STAKE",
      "outputs": [
        {
          "internalType": "bytes32",
          "name": "",
          "type": "bytes32"
        }
      ],
      "stateMutability": "view",
      "type": "function"
    },
    {
      "inputs": [],
      "name": "MAX_TRANSACTION_DURATION",
      "outputs": [
        {
          "internalType": "bytes32",
          "name": "",
          "type": "bytes32"
        }
      ],
      "stateMutability": "view",
      "type": "function"
    },
    {
      "inputs": [],
      "name": "MIN_STAKE",
      "outputs": [
        {
          "internalType": "bytes32",
          "name": "",
          "type": "bytes32"
        }
      ],
      "stateMutability": "view",
      "type": "function"
    },
    {
      "inputs": [],
      "name": "MIN_STAKE_LOCKED_TIME",
      "outputs": [
        {
          "internalType": "bytes32",
          "name": "",
          "type": "bytes32"
        }
      ],
      "stateMutability": "view",
      "type": "function"
    },
    {
      "inputs": [],
      "name": "MIN_TRANSACTION_DURATION",
      "outputs": [
        {
          "internalType": "bytes32",
          "name": "",
          "type": "bytes32"
        }
      ],
      "stateMutability": "view",
      "type": "function"
    },
    {
      "inputs": [],
      "name": "SYSTEM_COMPENSATION_FEE_RATE",
      "outputs": [
        {
          "internalType": "bytes32",
          "name": "",
          "type": "bytes32"
        }
      ],
      "stateMutability": "view",
      "type": "function"
    },
    {
      "inputs": [],
      "name": "SYSTEM_FEE_COLLECTOR",
      "outputs": [
        {
          "internalType": "bytes32",
          "name": "",
          "type": "bytes32"
        }
      ],
      "stateMutability": "view",
      "type": "function"
    },
    {
      "inputs": [],
      "name": "SYSTEM_FEE_RATE",
      "outputs": [
        {
          "internalType": "bytes32",
          "name": "",
          "type": "bytes32"
        }
      ],
      "stateMutability": "view",
      "type": "function"
    },
    {
      "inputs": [],
      "name": "TRANSACTION_MIN_BTC_FEE_RATE",
      "outputs": [
        {
          "internalType": "bytes32",
          "name": "",
          "type": "bytes32"
        }
      ],
      "stateMutability": "view",
      "type": "function"
    },
    {
      "inputs": [],
      "name": "TRANSACTION_MIN_FEE_RATE",
      "outputs": [
        {
          "internalType": "bytes32",
          "name": "",
          "type": "bytes32"
        }
      ],
      "stateMutability": "view",
      "type": "function"
    }
  ],
  "bytecode": "0x61032161003a600b82828239805160001a60731461002d57634e487b7160e01b600052600060045260246000fd5b30600052607381538281f3fe73000000000000000000000000000000000000000030146080604052600436106100d95760003560e01c8063a1ba734411610096578063c1df30e711610070578063c1df30e71461024f578063c98517c514610276578063cb1c2b5c1461029d578063e6feb4f3146102c457600080fd5b8063a1ba7344146101da578063b466844d14610201578063b46d9ff71461022857600080fd5b806309c71c03146100de57806310460065146101175780633918a8461461013e5780634a700a9d146101655780634b74d9ca1461018c57806358d0b147146101b3575b600080fd5b6101057ff67cbfc49efbe49cfda2049f4fae02cff32ce41383dd9cd151875b60a92f872b81565b60405190815260200160405180910390f35b6101057f8f589203cf1469152b6891bfec4d1037191a00847decb605045205b8d2c419f081565b6101057f251496a2e9229b930e5943f3c3e4da6cb786017948b856c9d455ed9cf0fc156c81565b6101057f0e223b97d7f941cfc1eaa79302686d0fb0d9628e1d7a65633e700791f0beecce81565b6101057fc919595274e5e6882421c3b30662e7d18eb2b09181b22c8f941f70ad25c9668581565b6101057fd31f84da73b6cb3a8c2e853a7c46b1c95600fc6ab5acdbeb4f7f16e875c25ab881565b6101057fd91f20541e9312a0f4d27f0f0ba02500035307ac99ea67c86c8342ab3fd71bc581565b6101057f2c9eb164fc8de1173f171678f1197986f0b3f15d9a3d955f91b9bb812394135d81565b6101057fab24f8bdba3ac1714795343236c2c4f2f4ec1dc7852ad6c62c7d11680c9f1a5881565b6101057f416347a82a7870c23c5cd09c49fc248e755e19923ecbe26856416974e646f45e81565b6101057f6ce6c3872790fbf28e7fa6102c9021f882ca7c1af8a947c293f9d8c6a5537a5f81565b6101057fa2cacd4c4a17915c9b22ff024458e28713037852123218861ef99f8b37b2342481565b6101057f4d71e6d712d945d50e1827c705441b1e232ecaaeb195788524f5523b0785b0a28156fea2646970667358221220397ad2522dfb07f56137f70e03b2a69c0681fbb95fe39e2d4d2485de4b9441c064736f6c63430008140033",
  "linkReferences": {},
  "deployedLinkReferences": {}
}