{
  "_format": "hh-sol-artifact-1",
  "contractName": "AssetManager",
  "sourceName": "contracts/core/AssetManager.sol",
  "abi": [
    {
      "inputs": [],
      "stateMutability": "nonpayable",
      "type": "constructor"
    },
    {
      "inputs": [],
      "name": "InvalidInitialization",
      "type": "error"
    },
    {
      "inputs": [],
      "name": "NotInitializing",
      "type": "error"
    },
    {
      "inputs": [
        {
          "internalType": "address",
          "name": "owner",
          "type": "address"
        }
      ],
      "name": "OwnableInvalidOwner",
      "type": "error"
    },
    {
      "inputs": [
        {
          "internalType": "address",
          "name": "account",
          "type": "address"
        }
      ],
      "name": "OwnableUnauthorizedAccount",
      "type": "error"
    },
    {
      "inputs": [],
      "name": "ReentrancyGuardReentrantCall",
      "type": "error"
    },
    {
      "inputs": [
        {
          "internalType": "address",
          "name": "token",
          "type": "address"
        }
      ],
      "name": "SafeERC20FailedOperation",
      "type": "error"
    },
    {
      "anonymous": false,
      "inputs": [
        {
          "indexed": true,
          "internalType": "address",
          "name": "assetOracle",
          "type": "address"
        }
      ],
      "name": "AssetOracleUpdated",
      "type": "event"
    },
    {
      "anonymous": false,
      "inputs": [
        {
          "indexed": true,
          "internalType": "address",
          "name": "arbitrator",
          "type": "address"
        },
        {
          "indexed": true,
          "internalType": "address",
          "name": "token",
          "type": "address"
        },
        {
          "indexed": false,
          "internalType": "uint256",
          "name": "amount",
          "type": "uint256"
        }
      ],
      "name": "ERC20Deposited",
      "type": "event"
    },
    {
      "anonymous": false,
      "inputs": [
        {
          "indexed": true,
          "internalType": "address",
          "name": "arbitrator",
          "type": "address"
        },
        {
          "indexed": true,
          "internalType": "address",
          "name": "token",
          "type": "address"
        },
        {
          "indexed": true,
          "internalType": "address",
          "name": "recipient",
          "type": "address"
        },
        {
          "indexed": false,
          "internalType": "uint256",
          "name": "amount",
          "type": "uint256"
        }
      ],
      "name": "ERC20Withdrawn",
      "type": "event"
    },
    {
      "anonymous": false,
      "inputs": [
        {
          "indexed": true,
          "internalType": "address",
          "name": "arbitrator",
          "type": "address"
        },
        {
          "indexed": false,
          "internalType": "uint256",
          "name": "amount",
          "type": "uint256"
        }
      ],
      "name": "ETHDeposited",
      "type": "event"
    },
    {
      "anonymous": false,
      "inputs": [
        {
          "indexed": true,
          "internalType": "address",
          "name": "arbitrator",
          "type": "address"
        },
        {
          "indexed": true,
          "internalType": "address",
          "name": "recipient",
          "type": "address"
        },
        {
          "indexed": false,
          "internalType": "uint256",
          "name": "amount",
          "type": "uint256"
        }
      ],
      "name": "ETHWithdrawn",
      "type": "event"
    },
    {
      "anonymous": false,
      "inputs": [
        {
          "indexed": false,
          "internalType": "uint64",
          "name": "version",
          "type": "uint64"
        }
      ],
      "name": "Initialized",
      "type": "event"
    },
    {
      "anonymous": false,
      "inputs": [
        {
          "indexed": true,
          "internalType": "address",
          "name": "nftContract",
          "type": "address"
        }
      ],
      "name": "NFTContractUpdated",
      "type": "event"
    },
    {
      "anonymous": false,
      "inputs": [
        {
          "indexed": true,
          "internalType": "address",
          "name": "arbitrator",
          "type": "address"
        },
        {
          "indexed": false,
          "internalType": "uint256[]",
          "name": "tokenIds",
          "type": "uint256[]"
        }
      ],
      "name": "NFTDeposited",
      "type": "event"
    },
    {
      "anonymous": false,
      "inputs": [
        {
          "indexed": true,
          "internalType": "address",
          "name": "arbitrator",
          "type": "address"
        },
        {
          "indexed": true,
          "internalType": "address",
          "name": "recipient",
          "type": "address"
        },
        {
          "indexed": false,
          "internalType": "uint256[]",
          "name": "tokenIds",
          "type": "uint256[]"
        }
      ],
      "name": "NFTWithdrawn",
      "type": "event"
    },
    {
      "anonymous": false,
      "inputs": [
        {
          "indexed": true,
          "internalType": "address",
          "name": "previousOwner",
          "type": "address"
        },
        {
          "indexed": true,
          "internalType": "address",
          "name": "newOwner",
          "type": "address"
        }
      ],
      "name": "OwnershipTransferred",
      "type": "event"
    },
    {
      "inputs": [],
      "name": "arbitratorManager",
      "outputs": [
        {
          "internalType": "address",
          "name": "",
          "type": "address"
        }
      ],
      "stateMutability": "view",
      "type": "function"
    },
    {
      "inputs": [],
      "name": "assetOracle",
      "outputs": [
        {
          "internalType": "contract IAssetOracle",
          "name": "",
          "type": "address"
        }
      ],
      "stateMutability": "view",
      "type": "function"
    },
    {
      "inputs": [
        {
          "internalType": "address",
          "name": "token",
          "type": "address"
        },
        {
          "internalType": "uint256",
          "name": "amount",
          "type": "uint256"
        }
      ],
      "name": "calculateAssetValueInETH",
      "outputs": [
        {
          "internalType": "uint256",
          "name": "",
          "type": "uint256"
        }
      ],
      "stateMutability": "view",
      "type": "function"
    },
    {
      "inputs": [
        {
          "internalType": "address",
          "name": "arbitrator",
          "type": "address"
        },
        {
          "internalType": "address",
          "name": "token",
          "type": "address"
        },
        {
          "internalType": "uint256",
          "name": "amount",
          "type": "uint256"
        }
      ],
      "name": "depositERC20",
      "outputs": [],
      "stateMutability": "nonpayable",
      "type": "function"
    },
    {
      "inputs": [
        {
          "internalType": "address",
          "name": "arbitrator",
          "type": "address"
        }
      ],
      "name": "depositETH",
      "outputs": [],
      "stateMutability": "payable",
      "type": "function"
    },
    {
      "inputs": [
        {
          "internalType": "address",
          "name": "arbitrator",
          "type": "address"
        },
        {
          "internalType": "uint256[]",
          "name": "tokenIds",
          "type": "uint256[]"
        }
      ],
      "name": "depositNFTs",
      "outputs": [],
      "stateMutability": "nonpayable",
      "type": "function"
    },
    {
      "inputs": [
        {
          "internalType": "address",
          "name": "",
          "type": "address"
        }
      ],
      "name": "erc20Balances",
      "outputs": [
        {
          "internalType": "uint256",
          "name": "",
          "type": "uint256"
        }
      ],
      "stateMutability": "view",
      "type": "function"
    },
    {
      "inputs": [
        {
          "internalType": "address",
          "name": "",
          "type": "address"
        }
      ],
      "name": "erc20Tokens",
      "outputs": [
        {
          "internalType": "address",
          "name": "",
          "type": "address"
        }
      ],
      "stateMutability": "view",
      "type": "function"
    },
    {
      "inputs": [
        {
          "internalType": "address",
          "name": "",
          "type": "address"
        }
      ],
      "name": "ethBalances",
      "outputs": [
        {
          "internalType": "uint256",
          "name": "",
          "type": "uint256"
        }
      ],
      "stateMutability": "view",
      "type": "function"
    },
    {
      "inputs": [
        {
          "internalType": "uint256",
          "name": "amount",
          "type": "uint256"
        }
      ],
      "name": "ethToBTC",
      "outputs": [
        {
          "internalType": "uint256",
          "name": "",
          "type": "uint256"
        }
      ],
      "stateMutability": "view",
      "type": "function"
    },
    {
      "inputs": [
        {
          "internalType": "address",
          "name": "arbitrator",
          "type": "address"
        }
      ],
      "name": "getArbitratorAssets",
      "outputs": [
        {
          "components": [
            {
              "internalType": "uint256",
              "name": "ethAmount",
              "type": "uint256"
            },
            {
              "internalType": "address",
              "name": "erc20Token",
              "type": "address"
            },
            {
              "internalType": "uint256",
              "name": "erc20Amount",
              "type": "uint256"
            },
            {
              "internalType": "address",
              "name": "nftContract",
              "type": "address"
            },
            {
              "internalType": "uint256[]",
              "name": "nftTokenIds",
              "type": "uint256[]"
            }
          ],
          "internalType": "struct DataTypes.ArbitratorAssets",
          "name": "",
          "type": "tuple"
        }
      ],
      "stateMutability": "view",
      "type": "function"
    },
    {
      "inputs": [
        {
          "internalType": "address",
          "name": "arbitrator",
          "type": "address"
        }
      ],
      "name": "getArbitratorStakeValue",
      "outputs": [
        {
          "internalType": "uint256",
          "name": "",
          "type": "uint256"
        }
      ],
      "stateMutability": "view",
      "type": "function"
    },
    {
      "inputs": [
        {
          "internalType": "uint256[]",
          "name": "tokenIds",
          "type": "uint256[]"
        }
      ],
      "name": "getNftValue",
      "outputs": [
        {
          "internalType": "uint256",
          "name": "",
          "type": "uint256"
        }
      ],
      "stateMutability": "view",
      "type": "function"
    },
    {
      "inputs": [
        {
          "internalType": "address",
          "name": "_arbitratorManager",
          "type": "address"
        },
        {
          "internalType": "address",
          "name": "_nftContract",
          "type": "address"
        },
        {
          "internalType": "address",
          "name": "_nftInfo",
          "type": "address"
        },
        {
          "internalType": "address",
          "name": "_assetOracle",
          "type": "address"
        },
        {
          "internalType": "address",
          "name": "_tokenWhitelist",
          "type": "address"
        }
      ],
      "name": "initialize",
      "outputs": [],
      "stateMutability": "nonpayable",
      "type": "function"
    },
    {
      "inputs": [
        {
          "internalType": "address",
          "name": "token",
          "type": "address"
        }
      ],
      "name": "isSupportToken",
      "outputs": [
        {
          "internalType": "bool",
          "name": "",
          "type": "bool"
        }
      ],
      "stateMutability": "view",
      "type": "function"
    },
    {
      "inputs": [],
      "name": "nftContract",
      "outputs": [
        {
          "internalType": "contract IERC721",
          "name": "",
          "type": "address"
        }
      ],
      "stateMutability": "view",
      "type": "function"
    },
    {
      "inputs": [],
      "name": "nftInfo",
      "outputs": [
        {
          "internalType": "contract IBNFTInfo",
          "name": "",
          "type": "address"
        }
      ],
      "stateMutability": "view",
      "type": "function"
    },
    {
      "inputs": [
        {
          "internalType": "address",
          "name": "",
          "type": "address"
        },
        {
          "internalType": "uint256",
          "name": "",
          "type": "uint256"
        }
      ],
      "name": "nftTokenIds",
      "outputs": [
        {
          "internalType": "uint256",
          "name": "",
          "type": "uint256"
        }
      ],
      "stateMutability": "view",
      "type": "function"
    },
    {
      "inputs": [],
      "name": "owner",
      "outputs": [
        {
          "internalType": "address",
          "name": "",
          "type": "address"
        }
      ],
      "stateMutability": "view",
      "type": "function"
    },
    {
      "inputs": [],
      "name": "renounceOwnership",
      "outputs": [],
      "stateMutability": "nonpayable",
      "type": "function"
    },
    {
      "inputs": [
        {
          "internalType": "address",
          "name": "_assetOracle",
          "type": "address"
        }
      ],
      "name": "setAssetOracle",
      "outputs": [],
      "stateMutability": "nonpayable",
      "type": "function"
    },
    {
      "inputs": [
        {
          "internalType": "address",
          "name": "_nftContract",
          "type": "address"
        }
      ],
      "name": "setNFTContract",
      "outputs": [],
      "stateMutability": "nonpayable",
      "type": "function"
    },
    {
      "inputs": [],
      "name": "tokenWhitelist",
      "outputs": [
        {
          "internalType": "contract ITokenWhitelist",
          "name": "",
          "type": "address"
        }
      ],
      "stateMutability": "view",
      "type": "function"
    },
    {
      "inputs": [
        {
          "internalType": "address",
          "name": "newOwner",
          "type": "address"
        }
      ],
      "name": "transferOwnership",
      "outputs": [],
      "stateMutability": "nonpayable",
      "type": "function"
    },
    {
      "inputs": [
        {
          "internalType": "address",
          "name": "arbitrator",
          "type": "address"
        },
        {
          "internalType": "address",
          "name": "token",
          "type": "address"
        },
        {
          "internalType": "address",
          "name": "recipient",
          "type": "address"
        },
        {
          "internalType": "uint256",
          "name": "amount",
          "type": "uint256"
        }
      ],
      "name": "withdrawERC20",
      "outputs": [],
      "stateMutability": "nonpayable",
      "type": "function"
    },
    {
      "inputs": [
        {
          "internalType": "address",
          "name": "arbitrator",
          "type": "address"
        },
        {
          "internalType": "address",
          "name": "recipient",
          "type": "address"
        },
        {
          "internalType": "uint256",
          "name": "amount",
          "type": "uint256"
        }
      ],
      "name": "withdrawETH",
      "outputs": [],
      "stateMutability": "nonpayable",
      "type": "function"
    },
    {
      "inputs": [
        {
          "internalType": "address",
          "name": "arbitrator",
          "type": "address"
        },
        {
          "internalType": "address",
          "name": "recipient",
          "type": "address"
        }
      ],
      "name": "withdrawNFTs",
      "outputs": [],
      "stateMutability": "nonpayable",
      "type": "function"
    }
  ],
  "bytecode": "0x60806040523480156200001157600080fd5b506200001c62000022565b620000d6565b7ff0c57e16840df040f15088dc2f81fe391c3923bec73e23a9662efc9c229c6a00805468010000000000000000900460ff1615620000735760405163f92ee8a960e01b815260040160405180910390fd5b80546001600160401b0390811614620000d35780546001600160401b0319166001600160401b0390811782556040519081527fc7f505b2f371ae2175ee4913f4499e1f2633a7b5936321eed1cdaeb6115181d29060200160405180910390a15b50565b6126b280620000e66000396000f3fe60806040526004361061019c5760003560e01c8063715018a6116100ec578063ca735cc11161008a578063d56d229d11610064578063d56d229d14610500578063e157d91d14610520578063e7137dbf14610540578063f2fde38b1461056057600080fd5b8063ca735cc1146104a0578063d23061db146104c0578063d49eb32d146104e057600080fd5b80638da5cb5b116100c65780638da5cb5b14610403578063a7ccabdf14610440578063b553fe1e14610460578063b7f1ff1d1461048057600080fd5b8063715018a6146103ae578063759787c4146103c3578063817e1120146103e357600080fd5b806324727dc8116101595780633cfba0e3116101335780633cfba0e3146102fb57806348d58d221461032857806359c296321461035857806368aa42f71461038e57600080fd5b806324727dc8146102a85780632ce4e8f5146102c85780632d2da806146102e857600080fd5b806301c72764146101a15780631459457a146101d45780631cad5a40146101f65780631d4d3a5d1461021657806321ab889d1461024e578063226f953b1461027b575b600080fd5b3480156101ad57600080fd5b506101c16101bc366004611d98565b610580565b6040519081526020015b60405180910390f35b3480156101e057600080fd5b506101f46101ef366004611dcd565b6106dc565b005b34801561020257600080fd5b506101f4610211366004611e32565b6108cb565b34801561022257600080fd5b50600354610236906001600160a01b031681565b6040516001600160a01b0390911681526020016101cb565b34801561025a57600080fd5b506101c1610269366004611e6e565b60076020526000908152604090205481565b34801561028757600080fd5b5061029b610296366004611e6e565b610b0d565b6040516101cb9190611e89565b3480156102b457600080fd5b506101c16102c3366004611f11565b610c05565b3480156102d457600080fd5b506101f46102e3366004611e6e565b610c36565b6101f46102f6366004611e6e565b610cc6565b34801561030757600080fd5b506101c1610316366004611e6e565b60056020526000908152604090205481565b34801561033457600080fd5b50610348610343366004611e6e565b610da7565b60405190151581526020016101cb565b34801561036457600080fd5b50610236610373366004611e6e565b6006602052600090815260409020546001600160a01b031681565b34801561039a57600080fd5b506101c16103a9366004611e6e565b610e21565b3480156103ba57600080fd5b506101f4610ef8565b3480156103cf57600080fd5b50600054610236906001600160a01b031681565b3480156103ef57600080fd5b506101c16103fe366004611ff2565b610f0c565b34801561040f57600080fd5b507f9016d09d72d40fdae2fd8ceac6b6234c7706214fd39c1cd1e609a0528c199300546001600160a01b0316610236565b34801561044c57600080fd5b506101f461045b366004611e6e565b611040565b34801561046c57600080fd5b50600254610236906001600160a01b031681565b34801561048c57600080fd5b506101c161049b366004611f11565b6110d0565b3480156104ac57600080fd5b50600454610236906001600160a01b031681565b3480156104cc57600080fd5b506101f46104db366004612088565b611295565b3480156104ec57600080fd5b506101f46104fb3660046120d3565b6114b4565b34801561050c57600080fd5b50600154610236906001600160a01b031681565b34801561052c57600080fd5b506101f461053b366004612106565b611700565b34801561054c57600080fd5b506101f461055b366004611e32565b6118b9565b34801561056c57600080fd5b506101f461057b366004611e6e565b611a89565b6003546040516317a6948f60e21b815273517e9e5d46c1ea8ab6f78677d6114ef47f71f6c4600482015260009182916001600160a01b0390911690635e9a523c90602401602060405180830381865afa1580156105e1573d6000803e3d6000fd5b505050506040513d601f19601f82011682018060405250810190610605919061218c565b6003546040516317a6948f60e21b815273df4191bfe8fae019fd6af9433e8ed6bfc4b90ca160048201529192506000916001600160a01b0390911690635e9a523c90602401602060405180830381865afa158015610667573d6000803e3d6000fd5b505050506040513d601f19601f8201168201806040525081019061068b919061218c565b905060006106a182670de0b6b3a76400006121bb565b6106ab84876121bb565b6106b9906305f5e1006121bb565b6106c391906121d2565b90506103e88110156106d457506103e85b949350505050565b60006106e6611ac7565b805490915060ff600160401b820416159067ffffffffffffffff1660008115801561070e5750825b905060008267ffffffffffffffff16600114801561072b5750303b155b905081158015610739575080155b156107575760405163f92ee8a960e01b815260040160405180910390fd5b845467ffffffffffffffff19166001178555831561078157845460ff60401b1916600160401b1785555b610789611af0565b61079233611b00565b6001600160a01b038a1615806107af57506001600160a01b038916155b806107c157506001600160a01b038816155b806107d357506001600160a01b038716155b806107e557506001600160a01b038616155b1561082357604080518082018252600281526105a360f41b6020820152905162461bcd60e51b815261081a9190600401612218565b60405180910390fd5b600080546001600160a01b03199081166001600160a01b038d8116919091179092556001805482168c84161790556002805482168b84161790556003805482168a84161790556004805490911691881691909117905583156108bf57845460ff60401b19168555604051600181527fc7f505b2f371ae2175ee4913f4499e1f2633a7b5936321eed1cdaeb6115181d29060200160405180910390a15b50505050505050505050565b6000546001600160a01b031633146108f55760405162461bcd60e51b815260040161081a9061224b565b6001600160a01b0383161580610909575080155b8061091b57506001600160a01b038216155b80610993575060048054604051633af32abf60e01b81526001600160a01b0385811693820193909352911690633af32abf90602401602060405180830381865afa15801561096d573d6000803e3d6000fd5b505050506040513d601f19601f82011682018060405250810190610991919061227b565b155b156109c8576040805180820182526002815261049360f41b6020820152905162461bcd60e51b815261081a9190600401612218565b6001600160a01b03808416600090815260066020526040902054168015801590610a045750826001600160a01b0316816001600160a01b031614155b15610a39576040805180820182526002815261057360f41b6020820152905162461bcd60e51b815261081a9190600401612218565b6001600160a01b038116610a76576001600160a01b03848116600090815260066020526040902080546001600160a01b0319169185169190911790555b610a8b6001600160a01b038416853085611b11565b6001600160a01b03841660009081526007602052604081208054849290610ab390849061229d565b92505081905550826001600160a01b0316846001600160a01b03167fe33e9822e3317b004d587136bab2627ea1ecfbba4eb79abddd0a56cfdd09c0e184604051610aff91815260200190565b60405180910390a350505050565b610b516040518060a001604052806000815260200160006001600160a01b031681526020016000815260200160006001600160a01b03168152602001606081525090565b6040805160a0810182526001600160a01b0380851660008181526005602090815285822054855282825260068152858220548416818601528282526007815285822054858701526001549093166060850152908152600882528390208054845181840281018401909552808552929360808501939092830182828015610bf657602002820191906000526020600020905b815481526020019060010190808311610be2575b50505050508152509050919050565b60086020528160005260406000208181548110610c2157600080fd5b90600052602060002001600091509150505481565b610c3e611b7e565b6001600160a01b038116610c7c57604080518082018252600281526105a360f41b6020820152905162461bcd60e51b815261081a9190600401612218565b600380546001600160a01b0319166001600160a01b0383169081179091556040517f045dafc7c4ca3d05de630e8253620f7b16675301ba6b6040a6590090bb28037790600090a250565b6000546001600160a01b03163314610cf05760405162461bcd60e51b815260040161081a9061224b565b6001600160a01b0381161580610d04575034155b15610d39576040805180820182526002815261049360f41b6020820152905162461bcd60e51b815261081a9190600401612218565b6001600160a01b03811660009081526005602052604081208054349290610d6190849061229d565b90915550506040513481526001600160a01b038216907f6c703791f399558807424f489ccd811c72b4ff0b74af547264fad7c646776df09060200160405180910390a250565b60048054604051633af32abf60e01b81526001600160a01b038481169382019390935260009290911690633af32abf90602401602060405180830381865afa158015610df7573d6000803e3d6000fd5b505050506040513d601f19601f82011682018060405250810190610e1b919061227b565b92915050565b6001600160a01b038116600090815260086020908152604080832080548251818502810185019093528083528493610e8f93929190830182828015610e8557602002820191906000526020600020905b815481526020019060010190808311610e71575b5050505050610f0c565b6001600160a01b038416600090815260056020526040902054610eb2919061229d565b6001600160a01b03808516600090815260066020908152604080832054600790925290912054929350610ee7929116906110d0565b610ef1908261229d565b9392505050565b610f00611b7e565b610f0a6000611bd9565b565b60008060005b83518110156110395760025484516000916001600160a01b03169063d5ec2d8390879085908110610f4557610f456122b0565b60200260200101516040518263ffffffff1660e01b8152600401610f6b91815260200190565b600060405180830381865afa158015610f88573d6000803e3d6000fd5b505050506040513d6000823e601f3d908101601f19168201604052610fb09190810190612303565b91505060005b81606001515181101561102457600082606001518281518110610fdb57610fdb6122b0565b60200260200101516020015167ffffffffffffffff169050806402540be40061100491906121bb565b61100e908661229d565b945050808061101c906124c5565b915050610fb6565b50508080611031906124c5565b915050610f12565b5092915050565b611048611b7e565b6001600160a01b03811661108657604080518082018252600281526105a360f41b6020820152905162461bcd60e51b815261081a9190600401612218565b600180546001600160a01b0319166001600160a01b0383169081179091556040517ff2610996d245d9b77e4ff84c2174eea0b76fb44c422218404f66e28816d78fb990600090a250565b60008115806110e657506001600160a01b038316155b156110f357506000610e1b565b6003546040516317a6948f60e21b81526001600160a01b0385811660048301526000921690635e9a523c90602401602060405180830381865afa15801561113e573d6000803e3d6000fd5b505050506040513d601f19601f82011682018060405250810190611162919061218c565b6003546040516317a6948f60e21b815273517e9e5d46c1ea8ab6f78677d6114ef47f71f6c460048201529192506000916001600160a01b0390911690635e9a523c90602401602060405180830381865afa1580156111c4573d6000803e3d6000fd5b505050506040513d601f19601f820116820180604052508101906111e8919061218c565b90506000856001600160a01b031663313ce5676040518163ffffffff1660e01b8152600401602060405180830381865afa15801561122a573d6000803e3d6000fd5b505050506040513d601f19601f8201168201806040525081019061124e91906124de565b905061125b81600a6125dd565b61126590836121bb565b61126f84876121bb565b61128190670de0b6b3a76400006121bb565b61128b91906121d2565b9695505050505050565b6000546001600160a01b031633146112bf5760405162461bcd60e51b815260040161081a9061224b565b6001600160a01b03841615806112d3575080155b806112e557506001600160a01b038316155b806112f757506001600160a01b038216155b1561132c576040805180820182526002815261049360f41b6020820152905162461bcd60e51b815261081a9190600401612218565b6001600160a01b03848116600090815260066020526040902054811690841614611380576040805180820182526002815261057360f41b6020820152905162461bcd60e51b815261081a9190600401612218565b6001600160a01b0384166000908152600760205260409020548111156113d0576040805180820182526002815261042360f41b6020820152905162461bcd60e51b815261081a9190600401612218565b6001600160a01b038416600090815260076020526040812080548392906113f89084906125ec565b90915550506001600160a01b0384166000908152600760205260408120549003611443576001600160a01b038416600090815260066020526040902080546001600160a01b03191690555b6114576001600160a01b0384168383611c4a565b816001600160a01b0316836001600160a01b0316856001600160a01b03167fb1ac6add0eec74b0d17d963174f2bcb70ecf3a0ebe76e11e2466692debc0e7d5846040516114a691815260200190565b60405180910390a450505050565b6000546001600160a01b031633146114de5760405162461bcd60e51b815260040161081a9061224b565b6001600160a01b03821615806114fb57506001600160a01b038116155b15611530576040805180820182526002815261049360f41b6020820152905162461bcd60e51b815261081a9190600401612218565b6001600160a01b03821660009081526008602090815260408083208054825181850281018501909352808352919290919083018282801561159057602002820191906000526020600020905b81548152602001906001019080831161157c575b5050505050905080516000036115d0576040805180820182526002815261453560f01b6020820152905162461bcd60e51b815261081a9190600401612218565b6001600160a01b03831660009081526008602052604081206115f191611d66565b60005b81518110156116af5760015482516001600160a01b03909116906323b872dd903090869086908690811061162a5761162a6122b0565b60209081029190910101516040516001600160e01b031960e086901b1681526001600160a01b0393841660048201529290911660248301526044820152606401600060405180830381600087803b15801561168457600080fd5b505af1158015611698573d6000803e3d6000fd5b5050505080806116a7906124c5565b9150506115f4565b50816001600160a01b0316836001600160a01b03167fde13c6401ecb1b7260739b3e1a20953cd7b9e17bb129f36b33ad4cb07ecbe1d3836040516116f391906125ff565b60405180910390a3505050565b6000546001600160a01b0316331461172a5760405162461bcd60e51b815260040161081a9061224b565b6001600160a01b038316158061173e575080155b15611773576040805180820182526002815261049360f41b6020820152905162461bcd60e51b815261081a9190600401612218565b60005b81811015611870576001546001600160a01b03166323b872dd85308686868181106117a3576117a36122b0565b6040516001600160e01b031960e088901b1681526001600160a01b03958616600482015294909316602485015250602090910201356044820152606401600060405180830381600087803b1580156117fa57600080fd5b505af115801561180e573d6000803e3d6000fd5b505050506001600160a01b038416600090815260086020526040902083838381811061183c5761183c6122b0565b8354600181018555600094855260209485902091909402929092013591909201555080611868816124c5565b915050611776565b50826001600160a01b03167f8817481bd656234a287138f22e58cf7377aa06e2bfb68e5d352dc69b0d09fbc583836040516118ac929190612643565b60405180910390a2505050565b6000546001600160a01b031633146118e35760405162461bcd60e51b815260040161081a9061224b565b6001600160a01b03831615806118f7575080155b8061190957506001600160a01b038216155b1561193e576040805180820182526002815261049360f41b6020820152905162461bcd60e51b815261081a9190600401612218565b6001600160a01b03831660009081526005602052604090205481111561198e576040805180820182526002815261042360f41b6020820152905162461bcd60e51b815261081a9190600401612218565b6001600160a01b038316600090815260056020526040812080548392906119b69084906125ec565b90915550506040516000906001600160a01b0384169083908381818185875af1925050503d8060008114611a06576040519150601f19603f3d011682016040523d82523d6000602084013e611a0b565b606091505b5050905080611a44576040805180820182526002815261463160f01b6020820152905162461bcd60e51b815261081a9190600401612218565b826001600160a01b0316846001600160a01b03167fc81b1761d304f16ef2aeae3a8611d9bd1d618adfff67d5157365cfb12513953284604051610aff91815260200190565b611a91611b7e565b6001600160a01b038116611abb57604051631e4fbdf760e01b81526000600482015260240161081a565b611ac481611bd9565b50565b6000807ff0c57e16840df040f15088dc2f81fe391c3923bec73e23a9662efc9c229c6a00610e1b565b611af8611c80565b610f0a611ca5565b611b08611c80565b611ac481611cd3565b6040516001600160a01b038481166024830152838116604483015260648201839052611b789186918216906323b872dd906084015b604051602081830303815290604052915060e01b6020820180516001600160e01b038381831617835250505050611cdb565b50505050565b33611bb07f9016d09d72d40fdae2fd8ceac6b6234c7706214fd39c1cd1e609a0528c199300546001600160a01b031690565b6001600160a01b031614610f0a5760405163118cdaa760e01b815233600482015260240161081a565b7f9016d09d72d40fdae2fd8ceac6b6234c7706214fd39c1cd1e609a0528c19930080546001600160a01b031981166001600160a01b03848116918217845560405192169182907f8be0079c531659141344cd1fd0a4f28419497f9722a3daafe3b4186f6b6457e090600090a3505050565b6040516001600160a01b03838116602483015260448201839052611c7b91859182169063a9059cbb90606401611b46565b505050565b611c88611d4c565b610f0a57604051631afcd79f60e31b815260040160405180910390fd5b611cad611c80565b60017f9b779b17422d0df92223018b32b4d1fa46e071723d6817e2486d003becc55f0055565b611a91611c80565b600080602060008451602086016000885af180611cfe576040513d6000823e3d81fd5b50506000513d91508115611d16578060011415611d23565b6001600160a01b0384163b155b15611b7857604051635274afe760e01b81526001600160a01b038516600482015260240161081a565b6000611d56611ac7565b54600160401b900460ff16919050565b5080546000825590600052602060002090810190611ac491905b80821115611d945760008155600101611d80565b5090565b600060208284031215611daa57600080fd5b5035919050565b80356001600160a01b0381168114611dc857600080fd5b919050565b600080600080600060a08688031215611de557600080fd5b611dee86611db1565b9450611dfc60208701611db1565b9350611e0a60408701611db1565b9250611e1860608701611db1565b9150611e2660808701611db1565b90509295509295909350565b600080600060608486031215611e4757600080fd5b611e5084611db1565b9250611e5e60208501611db1565b9150604084013590509250925092565b600060208284031215611e8057600080fd5b610ef182611db1565b6020808252825182820152828101516001600160a01b039081166040808501919091528401516060808501919091528401511660808084019190915283015160a080840152805160c0840181905260009291820190839060e08601905b80831015611f065783518252928401926001929092019190840190611ee6565b509695505050505050565b60008060408385031215611f2457600080fd5b611f2d83611db1565b946020939093013593505050565b634e487b7160e01b600052604160045260246000fd5b6040516080810167ffffffffffffffff81118282101715611f7457611f74611f3b565b60405290565b6040516060810167ffffffffffffffff81118282101715611f7457611f74611f3b565b604051601f8201601f1916810167ffffffffffffffff81118282101715611fc657611fc6611f3b565b604052919050565b600067ffffffffffffffff821115611fe857611fe8611f3b565b5060051b60200190565b6000602080838503121561200557600080fd5b823567ffffffffffffffff81111561201c57600080fd5b8301601f8101851361202d57600080fd5b803561204061203b82611fce565b611f9d565b81815260059190911b8201830190838101908783111561205f57600080fd5b928401925b8284101561207d57833582529284019290840190612064565b979650505050505050565b6000806000806080858703121561209e57600080fd5b6120a785611db1565b93506120b560208601611db1565b92506120c360408601611db1565b9396929550929360600135925050565b600080604083850312156120e657600080fd5b6120ef83611db1565b91506120fd60208401611db1565b90509250929050565b60008060006040848603121561211b57600080fd5b61212484611db1565b9250602084013567ffffffffffffffff8082111561214157600080fd5b818601915086601f83011261215557600080fd5b81358181111561216457600080fd5b8760208260051b850101111561217957600080fd5b6020830194508093505050509250925092565b60006020828403121561219e57600080fd5b5051919050565b634e487b7160e01b600052601160045260246000fd5b8082028115828204841417610e1b57610e1b6121a5565b6000826121ef57634e487b7160e01b600052601260045260246000fd5b500490565b60005b8381101561220f5781810151838201526020016121f7565b50506000910152565b60208152600082518060208401526122378160408501602087016121f4565b601f01601f19169190910160400192915050565b6020808252601690820152753737ba1030b93134ba3930ba37b91036b0b730b3b2b960511b604082015260600190565b60006020828403121561228d57600080fd5b81518015158114610ef157600080fd5b80820180821115610e1b57610e1b6121a5565b634e487b7160e01b600052603260045260246000fd5b805163ffffffff81168114611dc857600080fd5b805160ff81168114611dc857600080fd5b805167ffffffffffffffff81168114611dc857600080fd5b6000806040838503121561231657600080fd5b82519150602083015167ffffffffffffffff8082111561233557600080fd5b908401906080828703121561234957600080fd5b612351611f51565b82518152612361602084016122c6565b6020820152612372604084016122da565b604082015260608301518281111561238957600080fd5b80840193505086601f84011261239e57600080fd5b82516123ac61203b82611fce565b8082825260208201915060208360051b8701019250898311156123ce57600080fd5b602086015b838110156124b1578051868111156123ea57600080fd5b8701601f196060828e038201121561240157600080fd5b612409611f7a565b60208301518981111561241b57600080fd5b8301603f81018f1361242c57600080fd5b60208101518a81111561244157612441611f3b565b612452602085601f84011601611f9d565b93508084528f604082840101111561246957600080fd5b61247a8160208601604085016121f4565b505081815261248b604084016122eb565b602082015261249c606084016122c6565b604082015285525050602092830192016123d3565b506060840152509497909650945050505050565b6000600182016124d7576124d76121a5565b5060010190565b6000602082840312156124f057600080fd5b610ef1826122da565b600181815b8085111561253457816000190482111561251a5761251a6121a5565b8085161561252757918102915b93841c93908002906124fe565b509250929050565b60008261254b57506001610e1b565b8161255857506000610e1b565b816001811461256e576002811461257857612594565b6001915050610e1b565b60ff841115612589576125896121a5565b50506001821b610e1b565b5060208310610133831016604e8410600b84101617156125b7575081810a610e1b565b6125c183836124f9565b80600019048211156125d5576125d56121a5565b029392505050565b6000610ef160ff84168361253c565b81810381811115610e1b57610e1b6121a5565b6020808252825182820181905260009190848201906040850190845b818110156126375783518352928401929184019160010161261b565b50909695505050505050565b6020808252810182905260006001600160fb1b0383111561266357600080fd5b8260051b8085604085013791909101604001939250505056fea264697066735822122031dd01171235d505b8171c7ed716aa53c0e06c6540c0770e8e14de59359060c864736f6c63430008140033",
  "linkReferences": {},
  "deployedLinkReferences": {}
}