{
  "_format": "hh-sol-artifact-1",
  "contractName": "TokenWhitelist",
  "sourceName": "contracts/core/TokenWhitelist.sol",
  "abi": [
    {
      "inputs": [],
      "stateMutability": "nonpayable",
      "type": "constructor"
    },
    {
      "inputs": [
        {
          "internalType": "address",
          "name": "owner",
          "type": "address"
        }
      ],
      "name": "OwnableInvalidOwner",
      "type": "error"
    },
    {
      "inputs": [
        {
          "internalType": "address",
          "name": "account",
          "type": "address"
        }
      ],
      "name": "OwnableUnauthorizedAccount",
      "type": "error"
    },
    {
      "anonymous": false,
      "inputs": [
        {
          "indexed": true,
          "internalType": "address",
          "name": "previousOwner",
          "type": "address"
        },
        {
          "indexed": true,
          "internalType": "address",
          "name": "newOwner",
          "type": "address"
        }
      ],
      "name": "OwnershipTransferred",
      "type": "event"
    },
    {
      "anonymous": false,
      "inputs": [
        {
          "indexed": true,
          "internalType": "address",
          "name": "token",
          "type": "address"
        }
      ],
      "name": "TokenAdded",
      "type": "event"
    },
    {
      "anonymous": false,
      "inputs": [
        {
          "indexed": true,
          "internalType": "address",
          "name": "token",
          "type": "address"
        }
      ],
      "name": "TokenRemoved",
      "type": "event"
    },
    {
      "inputs": [
        {
          "internalType": "address",
          "name": "token",
          "type": "address"
        }
      ],
      "name": "addToken",
      "outputs": [],
      "stateMutability": "nonpayable",
      "type": "function"
    },
    {
      "inputs": [
        {
          "internalType": "address[]",
          "name": "tokens",
          "type": "address[]"
        }
      ],
      "name": "addTokens",
      "outputs": [],
      "stateMutability": "nonpayable",
      "type": "function"
    },
    {
      "inputs": [
        {
          "internalType": "address",
          "name": "token",
          "type": "address"
        }
      ],
      "name": "isWhitelisted",
      "outputs": [
        {
          "internalType": "bool",
          "name": "",
          "type": "bool"
        }
      ],
      "stateMutability": "view",
      "type": "function"
    },
    {
      "inputs": [],
      "name": "owner",
      "outputs": [
        {
          "internalType": "address",
          "name": "",
          "type": "address"
        }
      ],
      "stateMutability": "view",
      "type": "function"
    },
    {
      "inputs": [
        {
          "internalType": "address",
          "name": "token",
          "type": "address"
        }
      ],
      "name": "removeToken",
      "outputs": [],
      "stateMutability": "nonpayable",
      "type": "function"
    },
    {
      "inputs": [],
      "name": "renounceOwnership",
      "outputs": [],
      "stateMutability": "nonpayable",
      "type": "function"
    },
    {
      "inputs": [
        {
          "internalType": "address",
          "name": "newOwner",
          "type": "address"
        }
      ],
      "name": "transferOwnership",
      "outputs": [],
      "stateMutability": "nonpayable",
      "type": "function"
    }
  ],
  "bytecode": "0x608060405234801561001057600080fd5b50338061003757604051631e4fbdf760e01b81526000600482015260240160405180910390fd5b61004081610046565b50610096565b600080546001600160a01b038381166001600160a01b0319831681178455604051919092169283917f8be0079c531659141344cd1fd0a4f28419497f9722a3daafe3b4186f6b6457e09190a35050565b61069e806100a56000396000f3fe608060405234801561001057600080fd5b506004361061007d5760003560e01c8063715018a61161005b578063715018a6146100eb5780638da5cb5b146100f3578063d48bfca71461010e578063f2fde38b1461012157600080fd5b80633af32abf146100825780634ae05c7d146100c35780635fa7b584146100d8575b600080fd5b6100ae610090366004610541565b6001600160a01b031660009081526001602052604090205460ff1690565b60405190151581526020015b60405180910390f35b6100d66100d1366004610571565b610134565b005b6100d66100e6366004610541565b6102b3565b6100d661037a565b6000546040516001600160a01b0390911681526020016100ba565b6100d661011c366004610541565b61038e565b6100d661012f366004610541565b610486565b61013c6104c4565b60005b818110156102ae57600083838381811061015b5761015b6105e6565b90506020020160208101906101709190610541565b6001600160a01b03160361019f5760405162461bcd60e51b8152600401610196906105fc565b60405180910390fd5b600160008484848181106101b5576101b56105e6565b90506020020160208101906101ca9190610541565b6001600160a01b0316815260208101919091526040016000205460ff1661029c576001806000858585818110610202576102026105e6565b90506020020160208101906102179190610541565b6001600160a01b031681526020810191909152604001600020805460ff1916911515919091179055828282818110610251576102516105e6565b90506020020160208101906102669190610541565b6001600160a01b03167f784c8f4dbf0ffedd6e72c76501c545a70f8b203b30a26ce542bf92ba87c248a460405160405180910390a25b806102a681610641565b91505061013f565b505050565b6102bb6104c4565b6001600160a01b03811660009081526001602052604090205460ff166103315760405162461bcd60e51b815260206004820152602560248201527f546f6b656e57686974656c6973743a20546f6b656e206e6f742077686974656c6044820152641a5cdd195960da1b6064820152608401610196565b6001600160a01b038116600081815260016020526040808220805460ff19169055517f4c910b69fe65a61f7531b9c5042b2329ca7179c77290aa7e2eb3afa3c8511fd39190a250565b6103826104c4565b61038c60006104f1565b565b6103966104c4565b6001600160a01b0381166103bc5760405162461bcd60e51b8152600401610196906105fc565b6001600160a01b03811660009081526001602052604090205460ff16156104375760405162461bcd60e51b815260206004820152602960248201527f546f6b656e57686974656c6973743a20546f6b656e20616c72656164792077686044820152681a5d195b1a5cdd195960ba1b6064820152608401610196565b6001600160a01b0381166000818152600160208190526040808320805460ff1916909217909155517f784c8f4dbf0ffedd6e72c76501c545a70f8b203b30a26ce542bf92ba87c248a49190a250565b61048e6104c4565b6001600160a01b0381166104b857604051631e4fbdf760e01b815260006004820152602401610196565b6104c1816104f1565b50565b6000546001600160a01b0316331461038c5760405163118cdaa760e01b8152336004820152602401610196565b600080546001600160a01b038381166001600160a01b0319831681178455604051919092169283917f8be0079c531659141344cd1fd0a4f28419497f9722a3daafe3b4186f6b6457e09190a35050565b60006020828403121561055357600080fd5b81356001600160a01b038116811461056a57600080fd5b9392505050565b6000806020838503121561058457600080fd5b823567ffffffffffffffff8082111561059c57600080fd5b818501915085601f8301126105b057600080fd5b8135818111156105bf57600080fd5b8660208260051b85010111156105d457600080fd5b60209290920196919550909350505050565b634e487b7160e01b600052603260045260246000fd5b60208082526025908201527f546f6b656e57686974656c6973743a20496e76616c696420746f6b656e206164604082015264647265737360d81b606082015260800190565b60006001820161066157634e487b7160e01b600052601160045260246000fd5b506001019056fea264697066735822122099fc0892c5e386a8ab55ba93b95c367e17c6681190e0c3315c543026d5e0426f64736f6c63430008140033",
  "linkReferences": {},
  "deployedLinkReferences": {}
}