{
  "_format": "hh-sol-artifact-1",
  "contractName": "ArbitratorManager",
  "sourceName": "contracts/core/ArbitratorManager.sol",
  "abi": [
    {
      "inputs": [],
      "stateMutability": "nonpayable",
      "type": "constructor"
    },
    {
      "inputs": [],
      "name": "InvalidInitialization",
      "type": "error"
    },
    {
      "inputs": [],
      "name": "NotInitializing",
      "type": "error"
    },
    {
      "inputs": [
        {
          "internalType": "address",
          "name": "owner",
          "type": "address"
        }
      ],
      "name": "OwnableInvalidOwner",
      "type": "error"
    },
    {
      "inputs": [
        {
          "internalType": "address",
          "name": "account",
          "type": "address"
        }
      ],
      "name": "OwnableUnauthorizedAccount",
      "type": "error"
    },
    {
      "inputs": [],
      "name": "ReentrancyGuardReentrantCall",
      "type": "error"
    },
    {
      "anonymous": false,
      "inputs": [
        {
          "indexed": true,
          "internalType": "address",
          "name": "arbitrator",
          "type": "address"
        },
        {
          "indexed": false,
          "internalType": "uint256",
          "name": "deadline",
          "type": "uint256"
        }
      ],
      "name": "ArbitratorDeadlineUpdated",
      "type": "event"
    },
    {
      "anonymous": false,
      "inputs": [
        {
          "indexed": true,
          "internalType": "address",
          "name": "arbitrator",
          "type": "address"
        },
        {
          "indexed": false,
          "internalType": "uint256",
          "name": "ethFeeRate",
          "type": "uint256"
        },
        {
          "indexed": false,
          "internalType": "uint256",
          "name": "btcFeeRate",
          "type": "uint256"
        }
      ],
      "name": "ArbitratorFeeRateUpdated",
      "type": "event"
    },
    {
      "anonymous": false,
      "inputs": [
        {
          "indexed": true,
          "internalType": "address",
          "name": "arbitrator",
          "type": "address"
        }
      ],
      "name": "ArbitratorFrozen",
      "type": "event"
    },
    {
      "anonymous": false,
      "inputs": [
        {
          "indexed": true,
          "internalType": "address",
          "name": "arbitrator",
          "type": "address"
        }
      ],
      "name": "ArbitratorPaused",
      "type": "event"
    },
    {
      "anonymous": false,
      "inputs": [
        {
          "indexed": true,
          "internalType": "address",
          "name": "arbitrator",
          "type": "address"
        },
        {
          "indexed": true,
          "internalType": "address",
          "name": "operator",
          "type": "address"
        },
        {
          "indexed": false,
          "internalType": "address",
          "name": "revenueAddress",
          "type": "address"
        },
        {
          "indexed": false,
          "internalType": "string",
          "name": "btcAddress",
          "type": "string"
        },
        {
          "indexed": false,
          "internalType": "bytes",
          "name": "btcPubKey",
          "type": "bytes"
        },
        {
          "indexed": false,
          "internalType": "uint256",
          "name": "feeRate",
          "type": "uint256"
        },
        {
          "indexed": false,
          "internalType": "uint256",
          "name": "btcFeeRate",
          "type": "uint256"
        },
        {
          "indexed": false,
          "internalType": "uint256",
          "name": "deadline",
          "type": "uint256"
        }
      ],
      "name": "ArbitratorRegistered",
      "type": "event"
    },
    {
      "anonymous": false,
      "inputs": [
        {
          "indexed": true,
          "internalType": "address",
          "name": "arbitrator",
          "type": "address"
        },
        {
          "indexed": true,
          "internalType": "bytes32",
          "name": "transactionId",
          "type": "bytes32"
        }
      ],
      "name": "ArbitratorReleased",
      "type": "event"
    },
    {
      "anonymous": false,
      "inputs": [
        {
          "indexed": true,
          "internalType": "address",
          "name": "arbitrator",
          "type": "address"
        }
      ],
      "name": "ArbitratorTerminatedWithSlash",
      "type": "event"
    },
    {
      "anonymous": false,
      "inputs": [
        {
          "indexed": true,
          "internalType": "address",
          "name": "arbitrator",
          "type": "address"
        }
      ],
      "name": "ArbitratorUnpaused",
      "type": "event"
    },
    {
      "anonymous": false,
      "inputs": [
        {
          "indexed": true,
          "internalType": "address",
          "name": "arbitrator",
          "type": "address"
        },
        {
          "indexed": true,
          "internalType": "bytes32",
          "name": "transactionId",
          "type": "bytes32"
        }
      ],
      "name": "ArbitratorWorking",
      "type": "event"
    },
    {
      "anonymous": false,
      "inputs": [
        {
          "indexed": true,
          "internalType": "address",
          "name": "assetManager",
          "type": "address"
        }
      ],
      "name": "AssetManagerUpdated",
      "type": "event"
    },
    {
      "anonymous": false,
      "inputs": [
        {
          "indexed": true,
          "internalType": "address",
          "name": "oldManager",
          "type": "address"
        },
        {
          "indexed": true,
          "internalType": "address",
          "name": "newManager",
          "type": "address"
        }
      ],
      "name": "CompensationManagerUpdated",
      "type": "event"
    },
    {
      "anonymous": false,
      "inputs": [
        {
          "indexed": true,
          "internalType": "address",
          "name": "newConfigManager",
          "type": "address"
        }
      ],
      "name": "ConfigManagerUpdated",
      "type": "event"
    },
    {
      "anonymous": false,
      "inputs": [
        {
          "indexed": false,
          "internalType": "uint64",
          "name": "version",
          "type": "uint64"
        }
      ],
      "name": "Initialized",
      "type": "event"
    },
    {
      "anonymous": false,
      "inputs": [
        {
          "indexed": true,
          "internalType": "address",
          "name": "arbitrator",
          "type": "address"
        },
        {
          "indexed": true,
          "internalType": "address",
          "name": "operator",
          "type": "address"
        },
        {
          "indexed": false,
          "internalType": "bytes",
          "name": "btcPubKey",
          "type": "bytes"
        },
        {
          "indexed": false,
          "internalType": "string",
          "name": "btcAddress",
          "type": "string"
        }
      ],
      "name": "OperatorSet",
      "type": "event"
    },
    {
      "anonymous": false,
      "inputs": [
        {
          "indexed": true,
          "internalType": "address",
          "name": "previousOwner",
          "type": "address"
        },
        {
          "indexed": true,
          "internalType": "address",
          "name": "newOwner",
          "type": "address"
        }
      ],
      "name": "OwnershipTransferred",
      "type": "event"
    },
    {
      "anonymous": false,
      "inputs": [
        {
          "indexed": true,
          "internalType": "address",
          "name": "arbitrator",
          "type": "address"
        },
        {
          "indexed": false,
          "internalType": "address",
          "name": "ethAddress",
          "type": "address"
        },
        {
          "indexed": false,
          "internalType": "bytes",
          "name": "btcPubKey",
          "type": "bytes"
        },
        {
          "indexed": false,
          "internalType": "string",
          "name": "btcAddress",
          "type": "string"
        }
      ],
      "name": "RevenueAddressesSet",
      "type": "event"
    },
    {
      "anonymous": false,
      "inputs": [
        {
          "indexed": true,
          "internalType": "address",
          "name": "arbitrator",
          "type": "address"
        },
        {
          "indexed": true,
          "internalType": "address",
          "name": "assetAddress",
          "type": "address"
        },
        {
          "indexed": false,
          "internalType": "uint256",
          "name": "amount",
          "type": "uint256"
        },
        {
          "indexed": false,
          "internalType": "uint256[]",
          "name": "nftTokenIds",
          "type": "uint256[]"
        }
      ],
      "name": "StakeAdded",
      "type": "event"
    },
    {
      "anonymous": false,
      "inputs": [
        {
          "indexed": true,
          "internalType": "address",
          "name": "arbitrator",
          "type": "address"
        },
        {
          "indexed": false,
          "internalType": "uint256",
          "name": "ethAmount",
          "type": "uint256"
        },
        {
          "indexed": true,
          "internalType": "address",
          "name": "erc20Address",
          "type": "address"
        },
        {
          "indexed": false,
          "internalType": "uint256",
          "name": "erc20Amount",
          "type": "uint256"
        },
        {
          "indexed": true,
          "internalType": "address",
          "name": "nftAddress",
          "type": "address"
        },
        {
          "indexed": false,
          "internalType": "uint256[]",
          "name": "nftTokenIds",
          "type": "uint256[]"
        }
      ],
      "name": "StakeWithdrawn",
      "type": "event"
    },
    {
      "anonymous": false,
      "inputs": [
        {
          "indexed": true,
          "internalType": "address",
          "name": "oldManager",
          "type": "address"
        },
        {
          "indexed": true,
          "internalType": "address",
          "name": "newManager",
          "type": "address"
        }
      ],
      "name": "TransactionManagerUpdated",
      "type": "event"
    },
    {
      "inputs": [],
      "name": "assetManager",
      "outputs": [
        {
          "internalType": "contract AssetManager",
          "name": "",
          "type": "address"
        }
      ],
      "stateMutability": "view",
      "type": "function"
    },
    {
      "inputs": [],
      "name": "compensationManager",
      "outputs": [
        {
          "internalType": "address",
          "name": "",
          "type": "address"
        }
      ],
      "stateMutability": "view",
      "type": "function"
    },
    {
      "inputs": [],
      "name": "configManager",
      "outputs": [
        {
          "internalType": "contract ConfigManager",
          "name": "",
          "type": "address"
        }
      ],
      "stateMutability": "view",
      "type": "function"
    },
    {
      "inputs": [
        {
          "internalType": "address",
          "name": "arbitrator",
          "type": "address"
        }
      ],
      "name": "frozenArbitrator",
      "outputs": [],
      "stateMutability": "nonpayable",
      "type": "function"
    },
    {
      "inputs": [
        {
          "internalType": "address",
          "name": "arbitrator",
          "type": "address"
        }
      ],
      "name": "getArbitratorAssets",
      "outputs": [
        {
          "components": [
            {
              "internalType": "uint256",
              "name": "ethAmount",
              "type": "uint256"
            },
            {
              "internalType": "address",
              "name": "erc20Token",
              "type": "address"
            },
            {
              "internalType": "uint256",
              "name": "erc20Amount",
              "type": "uint256"
            },
            {
              "internalType": "address",
              "name": "nftContract",
              "type": "address"
            },
            {
              "internalType": "uint256[]",
              "name": "nftTokenIds",
              "type": "uint256[]"
            }
          ],
          "internalType": "struct DataTypes.ArbitratorAssets",
          "name": "",
          "type": "tuple"
        }
      ],
      "stateMutability": "view",
      "type": "function"
    },
    {
      "inputs": [
        {
          "internalType": "address",
          "name": "arbitrator",
          "type": "address"
        }
      ],
      "name": "getArbitratorBasicInfo",
      "outputs": [
        {
          "components": [
            {
              "internalType": "address",
              "name": "arbitrator",
              "type": "address"
            },
            {
              "internalType": "bool",
              "name": "paused",
              "type": "bool"
            },
            {
              "internalType": "uint256",
              "name": "registerTime",
              "type": "uint256"
            },
            {
              "internalType": "uint256",
              "name": "deadline",
              "type": "uint256"
            }
          ],
          "internalType": "struct DataTypes.ArbitratorBasicInfo",
          "name": "",
          "type": "tuple"
        }
      ],
      "stateMutability": "view",
      "type": "function"
    },
    {
      "inputs": [
        {
          "internalType": "address",
          "name": "arbitrator",
          "type": "address"
        }
      ],
      "name": "getArbitratorOperationInfo",
      "outputs": [
        {
          "components": [
            {
              "internalType": "address",
              "name": "operator",
              "type": "address"
            },
            {
              "internalType": "bytes",
              "name": "operatorBtcPubKey",
              "type": "bytes"
            },
            {
              "internalType": "string",
              "name": "operatorBtcAddress",
              "type": "string"
            },
            {
              "internalType": "bytes32",
              "name": "activeTransactionId",
              "type": "bytes32"
            },
            {
              "internalType": "uint256",
              "name": "lastSubmittedWorkTime",
              "type": "uint256"
            }
          ],
          "internalType": "struct DataTypes.ArbitratorOperationInfo",
          "name": "",
          "type": "tuple"
        }
      ],
      "stateMutability": "view",
      "type": "function"
    },
    {
      "inputs": [
        {
          "internalType": "address",
          "name": "arbitrator",
          "type": "address"
        }
      ],
      "name": "getArbitratorRevenueInfo",
      "outputs": [
        {
          "components": [
            {
              "internalType": "uint256",
              "name": "currentFeeRate",
              "type": "uint256"
            },
            {
              "internalType": "uint256",
              "name": "currentBTCFeeRate",
              "type": "uint256"
            },
            {
              "internalType": "bytes",
              "name": "revenueBtcPubKey",
              "type": "bytes"
            },
            {
              "internalType": "string",
              "name": "revenueBtcAddress",
              "type": "string"
            },
            {
              "internalType": "address",
              "name": "revenueETHAddress",
              "type": "address"
            }
          ],
          "internalType": "struct DataTypes.ArbitratorRevenueInfo",
          "name": "",
          "type": "tuple"
        }
      ],
      "stateMutability": "view",
      "type": "function"
    },
    {
      "inputs": [
        {
          "internalType": "address",
          "name": "arbitrator",
          "type": "address"
        }
      ],
      "name": "getAvailableStake",
      "outputs": [
        {
          "internalType": "uint256",
          "name": "",
          "type": "uint256"
        }
      ],
      "stateMutability": "view",
      "type": "function"
    },
    {
      "inputs": [
        {
          "internalType": "uint256",
          "name": "duration",
          "type": "uint256"
        },
        {
          "internalType": "address",
          "name": "arbitrator",
          "type": "address"
        }
      ],
      "name": "getBtcFee",
      "outputs": [
        {
          "internalType": "uint256",
          "name": "fee",
          "type": "uint256"
        }
      ],
      "stateMutability": "view",
      "type": "function"
    },
    {
      "inputs": [
        {
          "internalType": "uint256",
          "name": "duration",
          "type": "uint256"
        },
        {
          "internalType": "address",
          "name": "arbitrator",
          "type": "address"
        }
      ],
      "name": "getFee",
      "outputs": [
        {
          "internalType": "uint256",
          "name": "fee",
          "type": "uint256"
        }
      ],
      "stateMutability": "view",
      "type": "function"
    },
    {
      "inputs": [
        {
          "internalType": "address",
          "name": "_configManager",
          "type": "address"
        }
      ],
      "name": "initialize",
      "outputs": [],
      "stateMutability": "nonpayable",
      "type": "function"
    },
    {
      "inputs": [
        {
          "internalType": "address",
          "name": "arbitratorAddress",
          "type": "address"
        }
      ],
      "name": "isActiveArbitrator",
      "outputs": [
        {
          "internalType": "bool",
          "name": "",
          "type": "bool"
        }
      ],
      "stateMutability": "view",
      "type": "function"
    },
    {
      "inputs": [
        {
          "internalType": "address",
          "name": "arbitrator",
          "type": "address"
        }
      ],
      "name": "isConfigModifiable",
      "outputs": [
        {
          "internalType": "bool",
          "name": "",
          "type": "bool"
        }
      ],
      "stateMutability": "view",
      "type": "function"
    },
    {
      "inputs": [
        {
          "internalType": "address",
          "name": "arbitrator",
          "type": "address"
        }
      ],
      "name": "isFrozenStatus",
      "outputs": [
        {
          "internalType": "bool",
          "name": "",
          "type": "bool"
        }
      ],
      "stateMutability": "view",
      "type": "function"
    },
    {
      "inputs": [
        {
          "internalType": "address",
          "name": "arbitrator",
          "type": "address"
        },
        {
          "internalType": "address",
          "name": "operator",
          "type": "address"
        }
      ],
      "name": "isOperatorOf",
      "outputs": [
        {
          "internalType": "bool",
          "name": "",
          "type": "bool"
        }
      ],
      "stateMutability": "view",
      "type": "function"
    },
    {
      "inputs": [
        {
          "internalType": "address",
          "name": "arbitrator",
          "type": "address"
        }
      ],
      "name": "isPaused",
      "outputs": [
        {
          "internalType": "bool",
          "name": "",
          "type": "bool"
        }
      ],
      "stateMutability": "view",
      "type": "function"
    },
    {
      "inputs": [],
      "name": "owner",
      "outputs": [
        {
          "internalType": "address",
          "name": "",
          "type": "address"
        }
      ],
      "stateMutability": "view",
      "type": "function"
    },
    {
      "inputs": [],
      "name": "pause",
      "outputs": [],
      "stateMutability": "nonpayable",
      "type": "function"
    },
    {
      "inputs": [
        {
          "internalType": "address",
          "name": "token",
          "type": "address"
        },
        {
          "internalType": "uint256",
          "name": "amount",
          "type": "uint256"
        },
        {
          "internalType": "string",
          "name": "defaultBtcAddress",
          "type": "string"
        },
        {
          "internalType": "bytes",
          "name": "defaultBtcPubKey",
          "type": "bytes"
        },
        {
          "internalType": "uint256",
          "name": "feeRate",
          "type": "uint256"
        },
        {
          "internalType": "uint256",
          "name": "btcFeeRate",
          "type": "uint256"
        },
        {
          "internalType": "uint256",
          "name": "deadline",
          "type": "uint256"
        }
      ],
      "name": "registerArbitratorByStakeERC20",
      "outputs": [],
      "stateMutability": "nonpayable",
      "type": "function"
    },
    {
      "inputs": [
        {
          "internalType": "string",
          "name": "defaultBtcAddress",
          "type": "string"
        },
        {
          "internalType": "bytes",
          "name": "defaultBtcPubKey",
          "type": "bytes"
        },
        {
          "internalType": "uint256",
          "name": "feeRate",
          "type": "uint256"
        },
        {
          "internalType": "uint256",
          "name": "btcFeeRate",
          "type": "uint256"
        },
        {
          "internalType": "uint256",
          "name": "deadline",
          "type": "uint256"
        }
      ],
      "name": "registerArbitratorByStakeETH",
      "outputs": [],
      "stateMutability": "payable",
      "type": "function"
    },
    {
      "inputs": [
        {
          "internalType": "uint256[]",
          "name": "tokenIds",
          "type": "uint256[]"
        },
        {
          "internalType": "string",
          "name": "defaultBtcAddress",
          "type": "string"
        },
        {
          "internalType": "bytes",
          "name": "defaultBtcPubKey",
          "type": "bytes"
        },
        {
          "internalType": "uint256",
          "name": "feeRate",
          "type": "uint256"
        },
        {
          "internalType": "uint256",
          "name": "btcFeeRate",
          "type": "uint256"
        },
        {
          "internalType": "uint256",
          "name": "deadline",
          "type": "uint256"
        }
      ],
      "name": "registerArbitratorByStakeNFT",
      "outputs": [],
      "stateMutability": "nonpayable",
      "type": "function"
    },
    {
      "inputs": [
        {
          "internalType": "address",
          "name": "arbitrator",
          "type": "address"
        },
        {
          "internalType": "bytes32",
          "name": "transactionId",
          "type": "bytes32"
        }
      ],
      "name": "releaseArbitrator",
      "outputs": [],
      "stateMutability": "nonpayable",
      "type": "function"
    },
    {
      "inputs": [],
      "name": "renounceOwnership",
      "outputs": [],
      "stateMutability": "nonpayable",
      "type": "function"
    },
    {
      "inputs": [
        {
          "internalType": "uint256",
          "name": "deadline",
          "type": "uint256"
        }
      ],
      "name": "setArbitratorDeadline",
      "outputs": [],
      "stateMutability": "nonpayable",
      "type": "function"
    },
    {
      "inputs": [
        {
          "internalType": "address",
          "name": "arbitrator",
          "type": "address"
        },
        {
          "internalType": "bytes32",
          "name": "transactionId",
          "type": "bytes32"
        }
      ],
      "name": "setArbitratorWorking",
      "outputs": [],
      "stateMutability": "nonpayable",
      "type": "function"
    },
    {
      "inputs": [
        {
          "internalType": "address",
          "name": "_assetManager",
          "type": "address"
        }
      ],
      "name": "setAssetManager",
      "outputs": [],
      "stateMutability": "nonpayable",
      "type": "function"
    },
    {
      "inputs": [
        {
          "internalType": "address",
          "name": "_compensationManager",
          "type": "address"
        }
      ],
      "name": "setCompensationManager",
      "outputs": [],
      "stateMutability": "nonpayable",
      "type": "function"
    },
    {
      "inputs": [
        {
          "internalType": "address",
          "name": "_configManager",
          "type": "address"
        }
      ],
      "name": "setConfigManager",
      "outputs": [],
      "stateMutability": "nonpayable",
      "type": "function"
    },
    {
      "inputs": [
        {
          "internalType": "uint256",
          "name": "ethFeeRate",
          "type": "uint256"
        },
        {
          "internalType": "uint256",
          "name": "btcFeeRate",
          "type": "uint256"
        }
      ],
      "name": "setFeeRates",
      "outputs": [],
      "stateMutability": "nonpayable",
      "type": "function"
    },
    {
      "inputs": [
        {
          "internalType": "address",
          "name": "operator",
          "type": "address"
        },
        {
          "internalType": "bytes",
          "name": "btcPubKey",
          "type": "bytes"
        },
        {
          "internalType": "string",
          "name": "btcAddress",
          "type": "string"
        }
      ],
      "name": "setOperator",
      "outputs": [],
      "stateMutability": "nonpayable",
      "type": "function"
    },
    {
      "inputs": [
        {
          "internalType": "address",
          "name": "ethAddress",
          "type": "address"
        },
        {
          "internalType": "bytes",
          "name": "btcPubKey",
          "type": "bytes"
        },
        {
          "internalType": "string",
          "name": "btcAddress",
          "type": "string"
        }
      ],
      "name": "setRevenueAddresses",
      "outputs": [],
      "stateMutability": "nonpayable",
      "type": "function"
    },
    {
      "inputs": [
        {
          "internalType": "address",
          "name": "_transactionManager",
          "type": "address"
        }
      ],
      "name": "setTransactionManager",
      "outputs": [],
      "stateMutability": "nonpayable",
      "type": "function"
    },
    {
      "inputs": [
        {
          "internalType": "address",
          "name": "token",
          "type": "address"
        },
        {
          "internalType": "uint256",
          "name": "amount",
          "type": "uint256"
        }
      ],
      "name": "stakeERC20",
      "outputs": [],
      "stateMutability": "nonpayable",
      "type": "function"
    },
    {
      "inputs": [],
      "name": "stakeETH",
      "outputs": [],
      "stateMutability": "payable",
      "type": "function"
    },
    {
      "inputs": [
        {
          "internalType": "uint256[]",
          "name": "tokenIds",
          "type": "uint256[]"
        }
      ],
      "name": "stakeNFT",
      "outputs": [],
      "stateMutability": "nonpayable",
      "type": "function"
    },
    {
      "inputs": [
        {
          "internalType": "address",
          "name": "arbitrator",
          "type": "address"
        }
      ],
      "name": "terminateArbitratorWithSlash",
      "outputs": [],
      "stateMutability": "nonpayable",
      "type": "function"
    },
    {
      "inputs": [],
      "name": "transactionManager",
      "outputs": [
        {
          "internalType": "address",
          "name": "",
          "type": "address"
        }
      ],
      "stateMutability": "view",
      "type": "function"
    },
    {
      "inputs": [
        {
          "internalType": "address",
          "name": "newOwner",
          "type": "address"
        }
      ],
      "name": "transferOwnership",
      "outputs": [],
      "stateMutability": "nonpayable",
      "type": "function"
    },
    {
      "inputs": [],
      "name": "unpause",
      "outputs": [],
      "stateMutability": "nonpayable",
      "type": "function"
    },
    {
      "inputs": [],
      "name": "unstake",
      "outputs": [],
      "stateMutability": "nonpayable",
      "type": "function"
    }
  ],
  "bytecode": "0x60806040523480156200001157600080fd5b506200001c62000022565b620000d6565b7ff0c57e16840df040f15088dc2f81fe391c3923bec73e23a9662efc9c229c6a00805468010000000000000000900460ff1615620000735760405163f92ee8a960e01b815260040160405180910390fd5b80546001600160401b0390811614620000d35780546001600160401b0319166001600160401b0390811782556040519081527fc7f505b2f371ae2175ee4913f4499e1f2633a7b5936321eed1cdaeb6115181d29060200160405180910390a15b50565b6145d380620000e66000396000f3fe6080604052600436106102465760003560e01c806378c96d7311610139578063ca0ab075116100b6578063dfcf048d1161007a578063dfcf048d146107c1578063e2b4efb8146107e1578063e46f4ead14610801578063f2fde38b14610821578063feaca58314610841578063fef2a6f01461086157600080fd5b8063ca0ab0751461072c578063cea57af61461074c578063cedb588b14610779578063d3f414e014610799578063dceb986d146107b957600080fd5b80639b8b780f116100fd5780639b8b780f146106995780639f7ca8dd146106ac578063b4e25e80146106cc578063b6ca3e07146106ec578063c4d66de81461070c57600080fd5b806378c96d73146105e75780638456cb59146106075780638da5cb5b1461061c57806394217ad114610659578063998b2fd81461067957600080fd5b806339c25e2c116101c75780634476a6601161018b5780634476a6601461047c5780634c5eece41461049c5780635b14f18314610572578063654b4e83146105b2578063715018a6146105d257600080fd5b806339c25e2c146103ca5780633b716452146104075780633f4ba83a14610427578063430602371461043c57806344019f7e1461045c57600080fd5b8063226f953b1161020e578063226f953b14610318578063291112511461034557806329a3f203146103755780632b2d37da146103955780632def6620146103b557600080fd5b80630559b8771461024b5780630b1fa61c1461028857806314f6b190146102aa578063182c5744146102d85780631e57b875146102f8575b600080fd5b34801561025757600080fd5b5060025461026b906001600160a01b031681565b6040516001600160a01b0390911681526020015b60405180910390f35b34801561029457600080fd5b506102a86102a3366004613a32565b61088e565b005b3480156102b657600080fd5b506102ca6102c5366004613a32565b61092f565b60405190815260200161027f565b3480156102e457600080fd5b506102a86102f3366004613a9a565b6109a4565b34801561030457600080fd5b506102a8610313366004613b1c565b610b9c565b34801561032457600080fd5b50610338610333366004613a32565b610d8c565b60405161027f9190613bcd565b34801561035157600080fd5b50610365610360366004613a32565b610e42565b604051901515815260200161027f565b34801561038157600080fd5b506102a8610390366004613c55565b610fc4565b3480156103a157600080fd5b506102a86103b0366004613cd7565b61109e565b3480156103c157600080fd5b506102a8611177565b3480156103d657600080fd5b506103656103e5366004613d03565b6001600160a01b03918216600090815260056020526040902054821691161490565b34801561041357600080fd5b5060015461026b906001600160a01b031681565b34801561043357600080fd5b506102a8611317565b34801561044857600080fd5b506102a8610457366004613a32565b6113de565b34801561046857600080fd5b506102a8610477366004613d3c565b61146e565b34801561048857600080fd5b506102a8610497366004613a32565b611580565b3480156104a857600080fd5b506105346104b7366004613a32565b604080516080810182526000808252602082018190529181018290526060810191909152506001600160a01b03908116600090815260046020908152604091829020825160808101845281549485168152600160a01b90940460ff1615159184019190915260018101549183019190915260020154606082015290565b60405161027f919081516001600160a01b03168152602080830151151590820152604080830151908201526060918201519181019190915260800190565b34801561057e57600080fd5b5061036561058d366004613a32565b6001600160a01b0316600090815260046020526040902054600160a01b900460ff1690565b3480156105be57600080fd5b506102a86105cd366004613c55565b611618565b3480156105de57600080fd5b506102a8611734565b3480156105f357600080fd5b506102a8610602366004613d55565b611746565b34801561061357600080fd5b506102a86119d1565b34801561062857600080fd5b507f9016d09d72d40fdae2fd8ceac6b6234c7706214fd39c1cd1e609a0528c199300546001600160a01b031661026b565b34801561066557600080fd5b5060035461026b906001600160a01b031681565b34801561068557600080fd5b506102a8610694366004613a32565b611a9f565b6102a86106a7366004613df8565b611c2e565b3480156106b857600080fd5b506103656106c7366004613a32565b611d31565b3480156106d857600080fd5b506102a86106e7366004613a32565b611f23565b3480156106f857600080fd5b506102ca610707366004613e7e565b611fb1565b34801561071857600080fd5b506102a8610727366004613a32565b612060565b34801561073857600080fd5b5060005461026b906001600160a01b031681565b34801561075857600080fd5b5061076c610767366004613a32565b6121bb565b60405161027f9190613ee9565b34801561078557600080fd5b506102a8610794366004613cd7565b61236b565b3480156107a557600080fd5b506102a86107b4366004613a32565b612442565b6102a8612557565b3480156107cd57600080fd5b506102ca6107dc366004613e7e565b612665565b3480156107ed57600080fd5b506103656107fc366004613a32565b612691565b34801561080d57600080fd5b506102a861081c366004613cd7565b6129b7565b34801561082d57600080fd5b506102a861083c366004613a32565b612b81565b34801561084d57600080fd5b506102a861085c366004613f55565b612bbf565b34801561086d57600080fd5b5061088161087c366004613a32565b612e40565b60405161027f9190613f77565b610896612ffe565b6001600160a01b0381166108dd57604080518082018252600281526105a360f41b6020820152905162461bcd60e51b81526108d49190600401613fe6565b60405180910390fd5b600180546001600160a01b038381166001600160a01b0319831681179093556040519116919082907f960d9803c7ca631d3232d16e9971c7fd8e82d5f7ff7c2824c7b29dcab8a37d2e90600090a35050565b6003546040516368aa42f760e01b81526001600160a01b03838116600483015260009216906368aa42f790602401602060405180830381865afa15801561097a573d6000803e3d6000fd5b505050506040513d601f19601f8201168201806040525081019061099e9190613ff9565b92915050565b60008190036109dd576040805180820182526002815261453560f01b6020820152905162461bcd60e51b81526108d49190600401613fe6565b6109e633611d31565b610a1a576040805180820182526002815261043360f41b6020820152905162461bcd60e51b81526108d49190600401613fe6565b60035460405163e157d91d60e01b81526001600160a01b039091169063e157d91d90610a4e90339086908690600401614044565b600060405180830381600087803b158015610a6857600080fd5b505af1158015610a7c573d6000803e3d6000fd5b50505050600360009054906101000a90046001600160a01b03166001600160a01b031663d56d229d6040518163ffffffff1660e01b8152600401602060405180830381865afa158015610ad3573d6000803e3d6000fd5b505050506040513d601f19601f82011682018060405250810190610af79190614069565b60035460405163040bf08960e51b81526001600160a01b0392831692339260008051602061455e8339815191529291169063817e112090610b3e9088908890600401614086565b602060405180830381865afa158015610b5b573d6000803e3d6000fd5b505050506040513d601f19601f82011682018060405250810190610b7f9190613ff9565b8585604051610b909392919061409a565b60405180910390a35050565b610ba4613059565b6000889003610bdd576040805180820182526002815261453560f01b6020820152905162461bcd60e51b81526108d49190600401613fe6565b610bed3388888888888888613091565b60035460405163040bf08960e51b81526000916001600160a01b03169063817e112090610c20908d908d90600401614086565b602060405180830381865afa158015610c3d573d6000803e3d6000fd5b505050506040513d601f19601f82011682018060405250810190610c619190613ff9565b9050610c6c8161344f565b600360009054906101000a90046001600160a01b03166001600160a01b031663d56d229d6040518163ffffffff1660e01b8152600401602060405180830381865afa158015610cbf573d6000803e3d6000fd5b505050506040513d601f19601f82011682018060405250810190610ce39190614069565b6001600160a01b0316336001600160a01b031660008051602061455e833981519152838d8d604051610d179392919061409a565b60405180910390a3604051339081907fb777acd33e9d270e9f2aaa3d16747edaa24e855e497eaf95f981f2dfff4c9d8290610d619083908d908d908d908d908d908d908d906140dd565b60405180910390a350610d81600160008051602061457e83398151915255565b505050505050505050565b610dd06040518060a001604052806000815260200160006001600160a01b031681526020016000815260200160006001600160a01b03168152602001606081525090565b60035460405163226f953b60e01b81526001600160a01b0384811660048301529091169063226f953b90602401600060405180830381865afa158015610e1a573d6000803e3d6000fd5b505050506040513d6000823e601f3d908101601f1916820160405261099e91908101906141a4565b6001600160a01b038082166000908152600560209081526040808320815160a081019092528054909416815260018401805493948594929390929084019190610e8a906142b0565b80601f0160208091040260200160405190810160405280929190818152602001828054610eb6906142b0565b8015610f035780601f10610ed857610100808354040283529160200191610f03565b820191906000526020600020905b815481529060010190602001808311610ee657829003601f168201915b50505050508152602001600282018054610f1c906142b0565b80601f0160208091040260200160405190810160405280929190818152602001828054610f48906142b0565b8015610f955780601f10610f6a57610100808354040283529160200191610f95565b820191906000526020600020905b815481529060010190602001808311610f7857829003601f168201915b50505050508152602001600382015481526020016004820154815250509050610fbd8161368a565b9392505050565b610fcd33611d31565b611001576040805180820182526002815261043360f41b6020820152905162461bcd60e51b81526108d49190600401613fe6565b3360009081526006602052604090206004810180546001600160a01b0319166001600160a01b0388161790556002810161103c858783614330565b506003810161104c838583614330565b50336001600160a01b03167f8e68353cf53df77c6b6993341bb1d784fab04f2f38b2c51654b51de6ce32274e878787878760405161108e9594939291906143f0565b60405180910390a2505050505050565b6001546001600160a01b031633146110e05760408051808201825260028152614e3160f01b6020820152905162461bcd60e51b81526108d49190600401613fe6565b6001600160a01b038216600090815260056020526040902061110183612691565b611135576040805180820182526002815261413360f01b6020820152905162461bcd60e51b81526108d49190600401613fe6565b6003810182905560405182906001600160a01b038516907f43b9442ba3328a37dad0041120b36563dafcdbdb7b200665d8cbb0c44982720c90600090a3505050565b61117f613059565b61118833611d31565b6111bc576040805180820182526002815261533160f01b6020820152905162461bcd60e51b81526108d49190600401613fe6565b60035460405163226f953b60e01b81523360048201526000916001600160a01b03169063226f953b90602401600060405180830381865afa158015611205573d6000803e3d6000fd5b505050506040513d6000823e601f3d908101601f1916820160405261122d91908101906141a4565b80519091501580156112425750608081015151155b801561125057506040810151155b1561128557604080518082018252600281526109c760f31b6020820152905162461bcd60e51b81526108d49190600401613fe6565b611290338233613738565b80606001516001600160a01b031681602001516001600160a01b0316336001600160a01b03167f4259143be553e0a755ce2bb5960655df41897d99053167c515521b56d0b71ff48460000151856040015186608001516040516112f59392919061446f565b60405180910390a450611315600160008051602061457e83398151915255565b565b33600090815260046020526040902080546001600160a01b0316611365576040805180820182526002815261209960f11b6020820152905162461bcd60e51b81526108d49190600401613fe6565b8054600160a01b900460ff166113a5576040805180820182526002815261082760f31b6020820152905162461bcd60e51b81526108d49190600401613fe6565b805460ff60a01b1916815560405133907f9f71f687820b75e4208e6fdd2091be151d94465fe4bafd2506bed2b9a430437d90600090a250565b6113e6612ffe565b6001600160a01b03811661142457604080518082018252600281526105a360f41b6020820152905162461bcd60e51b81526108d49190600401613fe6565b600380546001600160a01b0319166001600160a01b0383169081179091556040517f7b80a79e47a0a35fd39fdba918041e2277cbc226b6e77e71839d84615a8bb3b290600090a250565b4281116114a5576040805180820182526002815261543360f01b6020820152905162461bcd60e51b81526108d49190600401613fe6565b33600090815260046020526040902080546001600160a01b03166114f3576040805180820182526002815261209960f11b6020820152905162461bcd60e51b81526108d49190600401613fe6565b6000816002015411801561150b575080600201548211155b15611540576040805180820182526002815261543360f01b6020820152905162461bcd60e51b81526108d49190600401613fe6565b6002810182905560405182815233907fff191d17033fc90a7dae896652cf93df6f261bc4176c000d0e5e21345b139ccb9060200160405180910390a25050565b611588612ffe565b6001600160a01b0381166115c657604080518082018252600281526105a360f41b6020820152905162461bcd60e51b81526108d49190600401613fe6565b600280546001600160a01b038381166001600160a01b0319831681179093556040519116919082907fb2de57cf284062a9a3402f8683281c49d5a6747b1f369d0eec883b83503f3c8d90600090a35050565b6001600160a01b038516611656576040805180820182526002815261124d60f21b6020820152905162461bcd60e51b81526108d49190600401613fe6565b61165f33611d31565b611693576040805180820182526002815261043360f41b6020820152905162461bcd60e51b81526108d49190600401613fe6565b33600090815260056020526040902080546001600160a01b0319166001600160a01b038716178155600181016116ca858783614330565b50600281016116da838583614330565b50856001600160a01b0316336001600160a01b03167ff920b7832d3774e2ac2efb86fccb411bc92e19a8ea66687764dea93140bdad4a87878787604051611724949392919061448e565b60405180910390a3505050505050565b61173c612ffe565b61131560006138cd565b61174e613059565b6001600160a01b0389161580611762575087155b15611797576040805180820182526002815261049360f41b6020820152905162461bcd60e51b81526108d49190600401613fe6565b60035460405163246ac69160e11b81526001600160a01b038b81166004830152909116906348d58d2290602401602060405180830381865afa1580156117e1573d6000803e3d6000fd5b505050506040513d601f19601f8201168201806040525081019061180591906144c0565b611839576040805180820182526002815261057360f41b6020820152905162461bcd60e51b81526108d49190600401613fe6565b6118493388888888888888613091565b60035460405163b7f1ff1d60e01b81526001600160a01b038b81166004830152602482018b90526118c592169063b7f1ff1d90604401602060405180830381865afa15801561189c573d6000803e3d6000fd5b505050506040513d601f19601f820116820180604052508101906118c09190613ff9565b61344f565b6003546040516272b56960e61b81523360048201526001600160a01b038b81166024830152604482018b905290911690631cad5a4090606401600060405180830381600087803b15801561191857600080fd5b505af115801561192c573d6000803e3d6000fd5b5050604080516000815260208101918290526001600160a01b038d16935033925060008051602061455e83398151915291611968918d916144e2565b60405180910390a3604051339081907fb777acd33e9d270e9f2aaa3d16747edaa24e855e497eaf95f981f2dfff4c9d82906119b29083908c908c908c908c908c908c908c906140dd565b60405180910390a3610d81600160008051602061457e83398151915255565b33600090815260046020526040902080546001600160a01b0316611a1f576040805180820182526002815261209960f11b6020820152905162461bcd60e51b81526108d49190600401613fe6565b8054600160a01b900460ff1615611a60576040805180820182526002815261413760f01b6020820152905162461bcd60e51b81526108d49190600401613fe6565b805460ff60a01b1916600160a01b17815560405133907ff8f74f9bb1ed360c36a0bd59e0d8aa5cbdd15bb6e8e86af871f343daf432be2290600090a250565b6002546001600160a01b03163314611ae15760408051808201825260028152614e3760f01b6020820152905162461bcd60e51b81526108d49190600401613fe6565b6001600160a01b0381811660009081526004602090815260409182902082516080810184528154948516808252600160a01b90950460ff16151592810192909252600181015492820192909252600290910154606082015290611b6e576040805180820182526002815261209960f11b6020820152905162461bcd60e51b81526108d49190600401613fe6565b60035460405163226f953b60e01b81526001600160a01b038085166004830152611bf692859291169063226f953b90602401600060405180830381865afa158015611bbd573d6000803e3d6000fd5b505050506040513d6000823e601f3d908101601f19168201604052611be591908101906141a4565b6002546001600160a01b0316613738565b6040516001600160a01b038316907fc0c6efb1c6f315e6721ba44dc1a435e4ca9a730d45f3caf4a67c43b22ca008a290600090a25050565b611c3e3388888888888888613091565b611c473461344f565b600354604051631696d40360e11b81523360048201526001600160a01b0390911690632d2da8069034906024016000604051808303818588803b158015611c8d57600080fd5b505af1158015611ca1573d6000803e3d6000fd5b50506040805160008082526020820192839052945033935060008051602061455e8339815191529250611cd6913491906144e2565b60405180910390a3604051339081907fb777acd33e9d270e9f2aaa3d16747edaa24e855e497eaf95f981f2dfff4c9d8290611d209083908c908c908c908c908c908c908c906140dd565b60405180910390a350505050505050565b6001600160a01b038181166000818152600460209081526040808320815160808101835281548088168252600160a01b900460ff1615158185015260018083015482850152600290920154606082015294845260058352818420825160a08101909352805490961682528501805493958694929390929084019190611db5906142b0565b80601f0160208091040260200160405190810160405280929190818152602001828054611de1906142b0565b8015611e2e5780601f10611e0357610100808354040283529160200191611e2e565b820191906000526020600020905b815481529060010190602001808311611e1157829003601f168201915b50505050508152602001600282018054611e47906142b0565b80601f0160208091040260200160405190810160405280929190818152602001828054611e73906142b0565b8015611ec05780601f10611e9557610100808354040283529160200191611ec0565b820191906000526020600020905b815481529060010190602001808311611ea357829003601f168201915b50505091835250506003820154602082015260049091015460409091015282519091506001600160a01b03161580611efb5750606081015115155b80611f0a5750611f0a8161368a565b15611f19575060009392505050565b5060019392505050565b611f2b612ffe565b6001600160a01b038116611f69576040805180820182526002815261049360f41b6020820152905162461bcd60e51b81526108d49190600401613fe6565b600080546001600160a01b0319166001600160a01b038316908117825560405190917f6a801685c5950e3d8ece256f75ca0ff31ed0ae02aeae73f8180ff32e978a2f6b91a250565b6001600160a01b0381166000908152600660205260408120600101548015612056576000611fe084838761393e565b6003546040516271c9d960e21b8152600481018390529192506001600160a01b0316906301c7276490602401602060405180830381865afa158015612029573d6000803e3d6000fd5b505050506040513d601f19601f8201168201806040525081019061204d9190613ff9565b9250505061099e565b5060009392505050565b600061206a613984565b805490915060ff600160401b82041615906001600160401b03166000811580156120915750825b90506000826001600160401b031660011480156120ad5750303b155b9050811580156120bb575080155b156120d95760405163f92ee8a960e01b815260040160405180910390fd5b845467ffffffffffffffff19166001178555831561210357845460ff60401b1916600160401b1785555b61210b6139ad565b612114336139bd565b6001600160a01b03861661215257604080518082018252600281526105a360f41b6020820152905162461bcd60e51b81526108d49190600401613fe6565b600080546001600160a01b0319166001600160a01b03881617905583156121b357845460ff60401b19168555604051600181527fc7f505b2f371ae2175ee4913f4499e1f2633a7b5936321eed1cdaeb6115181d29060200160405180910390a15b505050505050565b6121f96040518060a0016040528060006001600160a01b03168152602001606081526020016060815260200160008019168152602001600081525090565b6001600160a01b03808316600090815260056020908152604091829020825160a08101909352805490931682526001830180549293929184019161223c906142b0565b80601f0160208091040260200160405190810160405280929190818152602001828054612268906142b0565b80156122b55780601f1061228a576101008083540402835291602001916122b5565b820191906000526020600020905b81548152906001019060200180831161229857829003601f168201915b505050505081526020016002820180546122ce906142b0565b80601f01602080910402602001604051908101604052809291908181526020018280546122fa906142b0565b80156123475780601f1061231c57610100808354040283529160200191612347565b820191906000526020600020905b81548152906001019060200180831161232a57829003601f168201915b50505050508152602001600382015481526020016004820154815250509050919050565b6001546001600160a01b031633146123ad5760408051808201825260028152614e3160f01b6020820152905162461bcd60e51b81526108d49190600401613fe6565b6001600160a01b0382166000908152600560205260409020600381015482146124005760408051808201825260028152612a1b60f11b6020820152905162461bcd60e51b81526108d49190600401613fe6565b60006003820181905560405183916001600160a01b038616917fec0516e78db51665510a6ab319cb07cbb5b1e66d1de10f9abd1994eaaa555b309190a3505050565b6001546001600160a01b031633146124845760408051808201825260028152614e3160f01b6020820152905162461bcd60e51b81526108d49190600401613fe6565b6001600160a01b0380821660009081526005602090815260408083206004909252909120549091166124e0576040805180820182526002815261209960f11b6020820152905162461bcd60e51b81526108d49190600401613fe6565b6003810154612519576040805180820182526002815261413560f01b6020820152905162461bcd60e51b81526108d49190600401613fe6565b4260048201556040516001600160a01b038316907fb5c433aa54e775c63ae22f75b359af0e25c57eddd9bb55eb71445b74b523bfa890600090a25050565b3460000361258f576040805180820182526002815261049360f41b6020820152905162461bcd60e51b81526108d49190600401613fe6565b61259833611d31565b6125cc576040805180820182526002815261043360f41b6020820152905162461bcd60e51b81526108d49190600401613fe6565b600354604051631696d40360e11b81523360048201526001600160a01b0390911690632d2da8069034906024016000604051808303818588803b15801561261257600080fd5b505af1158015612626573d6000803e3d6000fd5b50506040805160008082526020820192839052945033935060008051602061455e833981519152925061265b913491906144e2565b60405180910390a3565b6001600160a01b03811660009081526006602052604081205461268983828661393e565b949350505050565b6001600160a01b038181166000908152600460209081526040808320815160808101835281549586168152600160a01b90950460ff161515928501929092526001820154908401526002015460608301819052909190158015906126f9575042816060015111155b156127075750600092915050565b60006127128461092f565b600054604080516332c70ad760e21b815290519293506001600160a01b0390911691636dd5b69d91839163cb1c2b5c916004808201926020929091908290030181865afa158015612767573d6000803e3d6000fd5b505050506040513d601f19601f8201168201806040525081019061278b9190613ff9565b6040518263ffffffff1660e01b81526004016127a991815260200190565b602060405180830381865afa1580156127c6573d6000803e3d6000fd5b505050506040513d601f19601f820116820180604052508101906127ea9190613ff9565b8110156127fb575060009392505050565b6001600160a01b038085166000908152600560209081526040808320815160a081019092528054909416815260018401805493949193919284019161283f906142b0565b80601f016020809104026020016040519081016040528092919081815260200182805461286b906142b0565b80156128b85780601f1061288d576101008083540402835291602001916128b8565b820191906000526020600020905b81548152906001019060200180831161289b57829003601f168201915b505050505081526020016002820180546128d1906142b0565b80601f01602080910402602001604051908101604052809291908181526020018280546128fd906142b0565b801561294a5780601f1061291f5761010080835404028352916020019161294a565b820191906000526020600020905b81548152906001019060200180831161292d57829003601f168201915b505050505081526020016003820154815260200160048201548152505090506129728161368a565b1561298257506000949350505050565b60608101511561299757506000949350505050565b8260200151156129ac57506000949350505050565b506001949350505050565b6129bf613059565b8015806129d357506001600160a01b038216155b80612a49575060035460405163246ac69160e11b81526001600160a01b038481166004830152909116906348d58d2290602401602060405180830381865afa158015612a23573d6000803e3d6000fd5b505050506040513d601f19601f82011682018060405250810190612a4791906144c0565b155b15612a7e576040805180820182526002815261049360f41b6020820152905162461bcd60e51b81526108d49190600401613fe6565b612a8733611d31565b612abb576040805180820182526002815261043360f41b6020820152905162461bcd60e51b81526108d49190600401613fe6565b6003546040516272b56960e61b81523360048201526001600160a01b0384811660248301526044820184905290911690631cad5a4090606401600060405180830381600087803b158015612b0e57600080fd5b505af1158015612b22573d6000803e3d6000fd5b5050604080516000815260208101918290526001600160a01b038616935033925060008051602061455e83398151915291612b5e9186916144e2565b60405180910390a3612b7d600160008051602061457e83398151915255565b5050565b612b89612ffe565b6001600160a01b038116612bb357604051631e4fbdf760e01b8152600060048201526024016108d4565b612bbc816138cd565b50565b600054604080516325ba6ce560e11b815290516001600160a01b0390921691636dd5b69d918391634b74d9ca916004808201926020929091908290030181865afa158015612c11573d6000803e3d6000fd5b505050506040513d601f19601f82011682018060405250810190612c359190613ff9565b6040518263ffffffff1660e01b8152600401612c5391815260200190565b602060405180830381865afa158015612c70573d6000803e3d6000fd5b505050506040513d601f19601f82011682018060405250810190612c949190613ff9565b821080612d7457506000546040805163c1df30e760e01b815290516001600160a01b0390921691636dd5b69d91839163c1df30e7916004808201926020929091908290030181865afa158015612cee573d6000803e3d6000fd5b505050506040513d601f19601f82011682018060405250810190612d129190613ff9565b6040518263ffffffff1660e01b8152600401612d3091815260200190565b602060405180830381865afa158015612d4d573d6000803e3d6000fd5b505050506040513d601f19601f82011682018060405250810190612d719190613ff9565b81105b15612da9576040805180820182526002815261046360f41b6020820152905162461bcd60e51b81526108d49190600401613fe6565b612db233611d31565b612de6576040805180820182526002815261043360f41b6020820152905162461bcd60e51b81526108d49190600401613fe6565b3360008181526006602090815260409182902085815560018101859055825186815291820185905292917f3deb80fb64bacb0d572a957b16a7420b1799df648df6a6370c8cc197ad0446a4910160405180910390a2505050565b612e7b6040518060a001604052806000815260200160008152602001606081526020016060815260200160006001600160a01b031681525090565b60066000836001600160a01b03166001600160a01b031681526020019081526020016000206040518060a00160405290816000820154815260200160018201548152602001600282018054612ecf906142b0565b80601f0160208091040260200160405190810160405280929190818152602001828054612efb906142b0565b8015612f485780601f10612f1d57610100808354040283529160200191612f48565b820191906000526020600020905b815481529060010190602001808311612f2b57829003601f168201915b50505050508152602001600382018054612f61906142b0565b80601f0160208091040260200160405190810160405280929190818152602001828054612f8d906142b0565b8015612fda5780601f10612faf57610100808354040283529160200191612fda565b820191906000526020600020905b815481529060010190602001808311612fbd57829003601f168201915b5050509183525050600491909101546001600160a01b031660209091015292915050565b336130307f9016d09d72d40fdae2fd8ceac6b6234c7706214fd39c1cd1e609a0528c199300546001600160a01b031690565b6001600160a01b0316146113155760405163118cdaa760e01b81523360048201526024016108d4565b60008051602061457e83398151915280546001190161308b57604051633ee5aeb560e01b815260040160405180910390fd5b60029055565b85158061309c575083155b156130d1576040805180820182526002815261049360f41b6020820152905162461bcd60e51b81526108d49190600401613fe6565b60008054604080516325ba6ce560e11b815290516001600160a01b0390921691636dd5b69d918391634b74d9ca916004808201926020929091908290030181865afa158015613124573d6000803e3d6000fd5b505050506040513d601f19601f820116820180604052508101906131489190613ff9565b6040518263ffffffff1660e01b815260040161316691815260200190565b602060405180830381865afa158015613183573d6000803e3d6000fd5b505050506040513d601f19601f820116820180604052508101906131a79190613ff9565b9050808410156131e1576040805180820182526002815261046360f41b6020820152905162461bcd60e51b81526108d49190600401613fe6565b600080546040805163c1df30e760e01b815290516001600160a01b0390921691636dd5b69d91839163c1df30e7916004808201926020929091908290030181865afa158015613234573d6000803e3d6000fd5b505050506040513d601f19601f820116820180604052508101906132589190613ff9565b6040518263ffffffff1660e01b815260040161327691815260200190565b602060405180830381865afa158015613293573d6000803e3d6000fd5b505050506040513d601f19601f820116820180604052508101906132b79190613ff9565b9050808410156132f1576040805180820182526002815261231960f11b6020820152905162461bcd60e51b81526108d49190600401613fe6565b82158015906133005750428311155b15613335576040805180820182526002815261543360f01b6020820152905162461bcd60e51b81526108d49190600401613fe6565b6001600160a01b03808b166000908152600460205260409020805490911615613388576040805180820182526002815261413160f01b6020820152905162461bcd60e51b81526108d49190600401613fe6565b80546001600160a01b038c166001600160a01b031991821681178355426001840155600280840187905560008281526005602052604090208054909316909117825581016133d78b8d83614330565b50600181016133e7898b83614330565b506001600160a01b038c166000818152600660205260409020888155600181018890556004810180546001600160a01b0319169092179091556003810161342f8c8e83614330565b506002810161343f8a8c83614330565b5050505050505050505050505050565b60008054604080516332c70ad760e21b815290516001600160a01b0390921691636dd5b69d91839163cb1c2b5c916004808201926020929091908290030181865afa1580156134a2573d6000803e3d6000fd5b505050506040513d601f19601f820116820180604052508101906134c69190613ff9565b6040518263ffffffff1660e01b81526004016134e491815260200190565b602060405180830381865afa158015613501573d6000803e3d6000fd5b505050506040513d601f19601f820116820180604052508101906135259190613ff9565b600080546040805163c98517c560e01b8152905193945091926001600160a01b0390911691636dd5b69d91839163c98517c59160048083019260209291908290030181865afa15801561357c573d6000803e3d6000fd5b505050506040513d601f19601f820116820180604052508101906135a09190613ff9565b6040518263ffffffff1660e01b81526004016135be91815260200190565b602060405180830381865afa1580156135db573d6000803e3d6000fd5b505050506040513d601f19601f820116820180604052508101906135ff9190613ff9565b905081831015613639576040805180820182526002815261299960f11b6020820152905162461bcd60e51b81526108d49190600401613fe6565b80831115613671576040805180820182526002815261533360f01b6020820152905162461bcd60e51b81526108d49190600401613fe6565b505050565b600160008051602061457e83398151915255565b6000805460408051632f672f1960e11b8152905183926001600160a01b031691635ece5e329160048083019260209291908290030181865afa1580156136d4573d6000803e3d6000fd5b505050506040513d601f19601f820116820180604052508101906136f89190613ff9565b9050826080015160000361370f5750600092915050565b428184608001516137209190614511565b111561372f5750600192915050565b50600092915050565b8151156137b057600354825160405163e7137dbf60e01b81526001600160a01b0386811660048301528481166024830152604482019290925291169063e7137dbf90606401600060405180830381600087803b15801561379757600080fd5b505af11580156137ab573d6000803e3d6000fd5b505050505b60208201516001600160a01b0316158015906137d0575060008260400151115b15613856576003546020830151604080850151905163d23061db60e01b81526001600160a01b03878116600483015292831660248201528483166044820152606481019190915291169063d23061db90608401600060405180830381600087803b15801561383d57600080fd5b505af1158015613851573d6000803e3d6000fd5b505050505b608082015151156136715760035460405163d49eb32d60e01b81526001600160a01b03858116600483015283811660248301529091169063d49eb32d90604401600060405180830381600087803b1580156138b057600080fd5b505af11580156138c4573d6000803e3d6000fd5b50505050505050565b7f9016d09d72d40fdae2fd8ceac6b6234c7706214fd39c1cd1e609a0528c19930080546001600160a01b031981166001600160a01b03848116918217845560405192169182907f8be0079c531659141344cd1fd0a4f28419497f9722a3daafe3b4186f6b6457e090600090a3505050565b60008061394a8561092f565b905061395c6127106301e13380614524565b846139678584614524565b6139719190614524565b61397b919061453b565b95945050505050565b6000807ff0c57e16840df040f15088dc2f81fe391c3923bec73e23a9662efc9c229c6a0061099e565b6139b56139ce565b6113156139f3565b6139c56139ce565b612bbc816139fb565b6139d6613a03565b61131557604051631afcd79f60e31b815260040160405180910390fd5b6136766139ce565b612b896139ce565b6000613a0d613984565b54600160401b900460ff16919050565b6001600160a01b0381168114612bbc57600080fd5b600060208284031215613a4457600080fd5b8135610fbd81613a1d565b60008083601f840112613a6157600080fd5b5081356001600160401b03811115613a7857600080fd5b6020830191508360208260051b8501011115613a9357600080fd5b9250929050565b60008060208385031215613aad57600080fd5b82356001600160401b03811115613ac357600080fd5b613acf85828601613a4f565b90969095509350505050565b60008083601f840112613aed57600080fd5b5081356001600160401b03811115613b0457600080fd5b602083019150836020828501011115613a9357600080fd5b600080600080600080600080600060c08a8c031215613b3a57600080fd5b89356001600160401b0380821115613b5157600080fd5b613b5d8d838e01613a4f565b909b50995060208c0135915080821115613b7657600080fd5b613b828d838e01613adb565b909950975060408c0135915080821115613b9b57600080fd5b50613ba88c828d01613adb565b9a9d999c50979a969997986060880135976080810135975060a0013595509350505050565b6020808252825182820152828101516001600160a01b039081166040808501919091528401516060808501919091528401511660808084019190915283015160a080840152805160c0840181905260009291820190839060e08601905b80831015613c4a5783518252928401926001929092019190840190613c2a565b509695505050505050565b600080600080600060608688031215613c6d57600080fd5b8535613c7881613a1d565b945060208601356001600160401b0380821115613c9457600080fd5b613ca089838a01613adb565b90965094506040880135915080821115613cb957600080fd5b50613cc688828901613adb565b969995985093965092949392505050565b60008060408385031215613cea57600080fd5b8235613cf581613a1d565b946020939093013593505050565b60008060408385031215613d1657600080fd5b8235613d2181613a1d565b91506020830135613d3181613a1d565b809150509250929050565b600060208284031215613d4e57600080fd5b5035919050565b600080600080600080600080600060e08a8c031215613d7357600080fd5b8935613d7e81613a1d565b985060208a0135975060408a01356001600160401b0380821115613da157600080fd5b613dad8d838e01613adb565b909950975060608c0135915080821115613dc657600080fd5b50613dd38c828d01613adb565b9a9d999c50979a9699979860808801359760a0810135975060c0013595509350505050565b600080600080600080600060a0888a031215613e1357600080fd5b87356001600160401b0380821115613e2a57600080fd5b613e368b838c01613adb565b909950975060208a0135915080821115613e4f57600080fd5b50613e5c8a828b01613adb565b989b979a50986040810135976060820135975060809091013595509350505050565b60008060408385031215613e9157600080fd5b823591506020830135613d3181613a1d565b6000815180845260005b81811015613ec957602081850181015186830182015201613ead565b506000602082860101526020601f19601f83011685010191505092915050565b602080825282516001600160a01b03168282015282015160a06040830152600090613f1760c0840182613ea3565b90506040840151601f19848303016060850152613f348282613ea3565b91505060608401516080840152608084015160a08401528091505092915050565b60008060408385031215613f6857600080fd5b50508035926020909101359150565b6020815281516020820152602082015160408201526000604083015160a06060840152613fa760c0840182613ea3565b90506060840151601f19848303016080850152613fc48282613ea3565b608095909501516001600160a01b031660a09490940193909352509192915050565b602081526000610fbd6020830184613ea3565b60006020828403121561400b57600080fd5b5051919050565b81835260006001600160fb1b0383111561402b57600080fd5b8260051b80836020870137939093016020019392505050565b6001600160a01b038416815260406020820181905260009061397b9083018486614012565b60006020828403121561407b57600080fd5b8151610fbd81613a1d565b602081526000612689602083018486614012565b83815260406020820152600061397b604083018486614012565b81835281816020850137506000828201602090810191909152601f909101601f19169091010190565b6001600160a01b038916815260c060208201819052600090614102908301898b6140b4565b828103604084015261411581888a6140b4565b60608401969096525050608081019290925260a09091015295945050505050565b634e487b7160e01b600052604160045260246000fd5b60405160a081016001600160401b038111828210171561416e5761416e614136565b60405290565b604051601f8201601f191681016001600160401b038111828210171561419c5761419c614136565b604052919050565b600060208083850312156141b757600080fd5b82516001600160401b03808211156141ce57600080fd5b9084019060a082870312156141e257600080fd5b6141ea61414c565b82518152838301516141fb81613a1d565b8185015260408381015190820152606083015161421781613a1d565b606082015260808301518281111561422e57600080fd5b80840193505086601f84011261424357600080fd5b82518281111561425557614255614136565b8060051b9250614266858401614174565b818152928401850192858101908985111561428057600080fd5b948601945b8486101561429e57855182529486019490860190614285565b60808401525090979650505050505050565b600181811c908216806142c457607f821691505b6020821081036142e457634e487b7160e01b600052602260045260246000fd5b50919050565b601f82111561367157600081815260208120601f850160051c810160208610156143115750805b601f850160051c820191505b818110156121b35782815560010161431d565b6001600160401b0383111561434757614347614136565b61435b8361435583546142b0565b836142ea565b6000601f84116001811461438f57600085156143775750838201355b600019600387901b1c1916600186901b1783556143e9565b600083815260209020601f19861690835b828110156143c057868501358255602094850194600190920191016143a0565b50868210156143dd5760001960f88860031b161c19848701351681555b505060018560011b0183555b5050505050565b6001600160a01b038616815260606020820181905260009061441590830186886140b4565b82810360408401526144288185876140b4565b98975050505050505050565b600081518084526020808501945080840160005b8381101561446457815187529582019590820190600101614448565b509495945050505050565b83815282602082015260606040820152600061397b6060830184614434565b6040815260006144a26040830186886140b4565b82810360208401526144b58185876140b4565b979650505050505050565b6000602082840312156144d257600080fd5b81518015158114610fbd57600080fd5b8281526040602082015260006126896040830184614434565b634e487b7160e01b600052601160045260246000fd5b8082018082111561099e5761099e6144fb565b808202811582820484141761099e5761099e6144fb565b60008261455857634e487b7160e01b600052601260045260246000fd5b50049056fe03666b063f075e29b3926eb82a4d1f7746231db3395483f453e477b56531038e9b779b17422d0df92223018b32b4d1fa46e071723d6817e2486d003becc55f00a26469706673582212207d9890f604917b7fe341cb6757f6f901db7c7e3638fd5232733f7fc89f3f0dc064736f6c63430008140033",
  "linkReferences": {},
  "deployedLinkReferences": {}
}