{
  "_format": "hh-sol-artifact-1",
  "contractName": "ArbitratorManager",
  "sourceName": "contracts/core/ArbitratorManager.sol",
  "abi": [
    {
      "inputs": [],
      "stateMutability": "nonpayable",
      "type": "constructor"
    },
    {
      "inputs": [],
      "name": "InvalidInitialization",
      "type": "error"
    },
    {
      "inputs": [],
      "name": "NotInitializing",
      "type": "error"
    },
    {
      "inputs": [
        {
          "internalType": "address",
          "name": "owner",
          "type": "address"
        }
      ],
      "name": "OwnableInvalidOwner",
      "type": "error"
    },
    {
      "inputs": [
        {
          "internalType": "address",
          "name": "account",
          "type": "address"
        }
      ],
      "name": "OwnableUnauthorizedAccount",
      "type": "error"
    },
    {
      "inputs": [],
      "name": "ReentrancyGuardReentrantCall",
      "type": "error"
    },
    {
      "anonymous": false,
      "inputs": [
        {
          "indexed": true,
          "internalType": "address",
          "name": "arbitrator",
          "type": "address"
        },
        {
          "indexed": false,
          "internalType": "uint256",
          "name": "deadline",
          "type": "uint256"
        }
      ],
      "name": "ArbitratorDeadlineUpdated",
      "type": "event"
    },
    {
      "anonymous": false,
      "inputs": [
        {
          "indexed": true,
          "internalType": "address",
          "name": "arbitrator",
          "type": "address"
        },
        {
          "indexed": false,
          "internalType": "uint256",
          "name": "ethFeeRate",
          "type": "uint256"
        },
        {
          "indexed": false,
          "internalType": "uint256",
          "name": "btcFeeRate",
          "type": "uint256"
        }
      ],
      "name": "ArbitratorFeeRateUpdated",
      "type": "event"
    },
    {
      "anonymous": false,
      "inputs": [
        {
          "indexed": true,
          "internalType": "address",
          "name": "arbitrator",
          "type": "address"
        }
      ],
      "name": "ArbitratorFrozen",
      "type": "event"
    },
    {
      "anonymous": false,
      "inputs": [
        {
          "indexed": true,
          "internalType": "address",
          "name": "arbitrator",
          "type": "address"
        }
      ],
      "name": "ArbitratorPaused",
      "type": "event"
    },
    {
      "anonymous": false,
      "inputs": [
        {
          "indexed": true,
          "internalType": "address",
          "name": "arbitrator",
          "type": "address"
        },
        {
          "indexed": true,
          "internalType": "address",
          "name": "operator",
          "type": "address"
        },
        {
          "indexed": false,
          "internalType": "address",
          "name": "revenueAddress",
          "type": "address"
        },
        {
          "indexed": false,
          "internalType": "string",
          "name": "btcAddress",
          "type": "string"
        },
        {
          "indexed": false,
          "internalType": "bytes",
          "name": "btcPubKey",
          "type": "bytes"
        },
        {
          "indexed": false,
          "internalType": "uint256",
          "name": "feeRate",
          "type": "uint256"
        },
        {
          "indexed": false,
          "internalType": "uint256",
          "name": "btcFeeRate",
          "type": "uint256"
        },
        {
          "indexed": false,
          "internalType": "uint256",
          "name": "deadline",
          "type": "uint256"
        }
      ],
      "name": "ArbitratorRegistered",
      "type": "event"
    },
    {
      "anonymous": false,
      "inputs": [
        {
          "indexed": true,
          "internalType": "address",
          "name": "arbitrator",
          "type": "address"
        },
        {
          "indexed": true,
          "internalType": "bytes32",
          "name": "transactionId",
          "type": "bytes32"
        }
      ],
      "name": "ArbitratorReleased",
      "type": "event"
    },
    {
      "anonymous": false,
      "inputs": [
        {
          "indexed": true,
          "internalType": "address",
          "name": "arbitrator",
          "type": "address"
        }
      ],
      "name": "ArbitratorTerminatedWithSlash",
      "type": "event"
    },
    {
      "anonymous": false,
      "inputs": [
        {
          "indexed": true,
          "internalType": "address",
          "name": "arbitrator",
          "type": "address"
        }
      ],
      "name": "ArbitratorUnpaused",
      "type": "event"
    },
    {
      "anonymous": false,
      "inputs": [
        {
          "indexed": true,
          "internalType": "address",
          "name": "arbitrator",
          "type": "address"
        },
        {
          "indexed": true,
          "internalType": "bytes32",
          "name": "transactionId",
          "type": "bytes32"
        }
      ],
      "name": "ArbitratorWorking",
      "type": "event"
    },
    {
      "anonymous": false,
      "inputs": [
        {
          "indexed": true,
          "internalType": "address",
          "name": "assetOracle",
          "type": "address"
        }
      ],
      "name": "AssetOracleUpdated",
      "type": "event"
    },
    {
      "anonymous": false,
      "inputs": [
        {
          "indexed": true,
          "internalType": "address",
          "name": "oldManager",
          "type": "address"
        },
        {
          "indexed": true,
          "internalType": "address",
          "name": "newManager",
          "type": "address"
        }
      ],
      "name": "CompensationManagerUpdated",
      "type": "event"
    },
    {
      "anonymous": false,
      "inputs": [
        {
          "indexed": true,
          "internalType": "address",
          "name": "newConfigManager",
          "type": "address"
        }
      ],
      "name": "ConfigManagerUpdated",
      "type": "event"
    },
    {
      "anonymous": false,
      "inputs": [
        {
          "indexed": false,
          "internalType": "uint64",
          "name": "version",
          "type": "uint64"
        }
      ],
      "name": "Initialized",
      "type": "event"
    },
    {
      "anonymous": false,
      "inputs": [
        {
          "indexed": true,
          "internalType": "address",
          "name": "transactionManager",
          "type": "address"
        },
        {
          "indexed": true,
          "internalType": "address",
          "name": "compensationManager",
          "type": "address"
        }
      ],
      "name": "InitializedManager",
      "type": "event"
    },
    {
      "anonymous": false,
      "inputs": [
        {
          "indexed": true,
          "internalType": "address",
          "name": "oldNFTContract",
          "type": "address"
        },
        {
          "indexed": true,
          "internalType": "address",
          "name": "newNFTContract",
          "type": "address"
        }
      ],
      "name": "NFTContractUpdated",
      "type": "event"
    },
    {
      "anonymous": false,
      "inputs": [
        {
          "indexed": true,
          "internalType": "address",
          "name": "arbitrator",
          "type": "address"
        },
        {
          "indexed": true,
          "internalType": "address",
          "name": "operator",
          "type": "address"
        },
        {
          "indexed": false,
          "internalType": "bytes",
          "name": "btcPubKey",
          "type": "bytes"
        },
        {
          "indexed": false,
          "internalType": "string",
          "name": "btcAddress",
          "type": "string"
        }
      ],
      "name": "OperatorSet",
      "type": "event"
    },
    {
      "anonymous": false,
      "inputs": [
        {
          "indexed": true,
          "internalType": "address",
          "name": "previousOwner",
          "type": "address"
        },
        {
          "indexed": true,
          "internalType": "address",
          "name": "newOwner",
          "type": "address"
        }
      ],
      "name": "OwnershipTransferred",
      "type": "event"
    },
    {
      "anonymous": false,
      "inputs": [
        {
          "indexed": true,
          "internalType": "address",
          "name": "arbitrator",
          "type": "address"
        },
        {
          "indexed": false,
          "internalType": "address",
          "name": "ethAddress",
          "type": "address"
        },
        {
          "indexed": false,
          "internalType": "bytes",
          "name": "btcPubKey",
          "type": "bytes"
        },
        {
          "indexed": false,
          "internalType": "string",
          "name": "btcAddress",
          "type": "string"
        }
      ],
      "name": "RevenueAddressesSet",
      "type": "event"
    },
    {
      "anonymous": false,
      "inputs": [
        {
          "indexed": true,
          "internalType": "address",
          "name": "arbitrator",
          "type": "address"
        },
        {
          "indexed": true,
          "internalType": "address",
          "name": "assetAddress",
          "type": "address"
        },
        {
          "indexed": false,
          "internalType": "uint256",
          "name": "amount",
          "type": "uint256"
        },
        {
          "indexed": false,
          "internalType": "uint256[]",
          "name": "nftTokenIds",
          "type": "uint256[]"
        }
      ],
      "name": "StakeAdded",
      "type": "event"
    },
    {
      "anonymous": false,
      "inputs": [
        {
          "indexed": true,
          "internalType": "address",
          "name": "arbitrator",
          "type": "address"
        },
        {
          "indexed": true,
          "internalType": "address",
          "name": "assetAddress",
          "type": "address"
        },
        {
          "indexed": false,
          "internalType": "uint256",
          "name": "amount",
          "type": "uint256"
        }
      ],
      "name": "StakeWithdrawn",
      "type": "event"
    },
    {
      "anonymous": false,
      "inputs": [
        {
          "indexed": true,
          "internalType": "address",
          "name": "oldManager",
          "type": "address"
        },
        {
          "indexed": true,
          "internalType": "address",
          "name": "newManager",
          "type": "address"
        }
      ],
      "name": "TransactionManagerUpdated",
      "type": "event"
    },
    {
      "inputs": [],
      "name": "assetOracle",
      "outputs": [
        {
          "internalType": "contract IAssetOracle",
          "name": "",
          "type": "address"
        }
      ],
      "stateMutability": "view",
      "type": "function"
    },
    {
      "inputs": [],
      "name": "compensationManager",
      "outputs": [
        {
          "internalType": "address",
          "name": "",
          "type": "address"
        }
      ],
      "stateMutability": "view",
      "type": "function"
    },
    {
      "inputs": [],
      "name": "configManager",
      "outputs": [
        {
          "internalType": "contract ConfigManager",
          "name": "",
          "type": "address"
        }
      ],
      "stateMutability": "view",
      "type": "function"
    },
    {
      "inputs": [
        {
          "internalType": "address",
          "name": "arbitrator",
          "type": "address"
        }
      ],
      "name": "frozenArbitrator",
      "outputs": [],
      "stateMutability": "nonpayable",
      "type": "function"
    },
    {
      "inputs": [
        {
          "internalType": "address",
          "name": "arbitratorAddress",
          "type": "address"
        }
      ],
      "name": "getArbitratorInfo",
      "outputs": [
        {
          "components": [
            {
              "internalType": "address",
              "name": "arbitrator",
              "type": "address"
            },
            {
              "internalType": "bool",
              "name": "paused",
              "type": "bool"
            },
            {
              "internalType": "uint256",
              "name": "currentFeeRate",
              "type": "uint256"
            },
            {
              "internalType": "bytes32",
              "name": "activeTransactionId",
              "type": "bytes32"
            },
            {
              "internalType": "uint256",
              "name": "ethAmount",
              "type": "uint256"
            },
            {
              "internalType": "address",
              "name": "erc20Token",
              "type": "address"
            },
            {
              "internalType": "address",
              "name": "nftContract",
              "type": "address"
            },
            {
              "internalType": "uint256[]",
              "name": "nftTokenIds",
              "type": "uint256[]"
            },
            {
              "internalType": "address",
              "name": "operator",
              "type": "address"
            },
            {
              "internalType": "bytes",
              "name": "operatorBtcPubKey",
              "type": "bytes"
            },
            {
              "internalType": "string",
              "name": "operatorBtcAddress",
              "type": "string"
            },
            {
              "internalType": "uint256",
              "name": "deadLine",
              "type": "uint256"
            },
            {
              "internalType": "bytes",
              "name": "revenueBtcPubKey",
              "type": "bytes"
            },
            {
              "internalType": "string",
              "name": "revenueBtcAddress",
              "type": "string"
            },
            {
              "internalType": "address",
              "name": "revenueETHAddress",
              "type": "address"
            },
            {
              "internalType": "uint256",
              "name": "lastSubmittedWorkTime",
              "type": "uint256"
            }
          ],
          "internalType": "struct DataTypes.ArbitratorInfo",
          "name": "",
          "type": "tuple"
        }
      ],
      "stateMutability": "view",
      "type": "function"
    },
    {
      "inputs": [
        {
          "internalType": "address",
          "name": "arbitrator",
          "type": "address"
        }
      ],
      "name": "getArbitratorInfoExt",
      "outputs": [
        {
          "components": [
            {
              "internalType": "uint256",
              "name": "currentBTCFeeRate",
              "type": "uint256"
            }
          ],
          "internalType": "struct DataTypes.ArbitratorInfoExt",
          "name": "",
          "type": "tuple"
        }
      ],
      "stateMutability": "view",
      "type": "function"
    },
    {
      "inputs": [
        {
          "internalType": "address",
          "name": "arbitrator",
          "type": "address"
        }
      ],
      "name": "getAvailableStake",
      "outputs": [
        {
          "internalType": "uint256",
          "name": "",
          "type": "uint256"
        }
      ],
      "stateMutability": "view",
      "type": "function"
    },
    {
      "inputs": [
        {
          "internalType": "uint256",
          "name": "duration",
          "type": "uint256"
        },
        {
          "internalType": "address",
          "name": "arbitrator",
          "type": "address"
        }
      ],
      "name": "getBtcFee",
      "outputs": [
        {
          "internalType": "uint256",
          "name": "fee",
          "type": "uint256"
        }
      ],
      "stateMutability": "view",
      "type": "function"
    },
    {
      "inputs": [
        {
          "internalType": "uint256",
          "name": "duration",
          "type": "uint256"
        },
        {
          "internalType": "address",
          "name": "arbitrator",
          "type": "address"
        }
      ],
      "name": "getFee",
      "outputs": [
        {
          "internalType": "uint256",
          "name": "fee",
          "type": "uint256"
        }
      ],
      "stateMutability": "view",
      "type": "function"
    },
    {
      "inputs": [
        {
          "internalType": "address",
          "name": "arbitrator",
          "type": "address"
        }
      ],
      "name": "getTotalNFTStakeValue",
      "outputs": [
        {
          "internalType": "uint256",
          "name": "",
          "type": "uint256"
        }
      ],
      "stateMutability": "view",
      "type": "function"
    },
    {
      "inputs": [
        {
          "internalType": "address",
          "name": "_transactionManager",
          "type": "address"
        },
        {
          "internalType": "address",
          "name": "_compensationManager",
          "type": "address"
        }
      ],
      "name": "initTransactionAndCompensationManager",
      "outputs": [],
      "stateMutability": "nonpayable",
      "type": "function"
    },
    {
      "inputs": [
        {
          "internalType": "address",
          "name": "_configManager",
          "type": "address"
        },
        {
          "internalType": "address",
          "name": "_nftContract",
          "type": "address"
        },
        {
          "internalType": "address",
          "name": "_nftInfo",
          "type": "address"
        },
        {
          "internalType": "address",
          "name": "_assetOracle",
          "type": "address"
        }
      ],
      "name": "initialize",
      "outputs": [],
      "stateMutability": "nonpayable",
      "type": "function"
    },
    {
      "inputs": [
        {
          "internalType": "address",
          "name": "arbitratorAddress",
          "type": "address"
        }
      ],
      "name": "isActiveArbitrator",
      "outputs": [
        {
          "internalType": "bool",
          "name": "",
          "type": "bool"
        }
      ],
      "stateMutability": "view",
      "type": "function"
    },
    {
      "inputs": [
        {
          "internalType": "address",
          "name": "arbitrator",
          "type": "address"
        }
      ],
      "name": "isConfigModifiable",
      "outputs": [
        {
          "internalType": "bool",
          "name": "",
          "type": "bool"
        }
      ],
      "stateMutability": "view",
      "type": "function"
    },
    {
      "inputs": [
        {
          "internalType": "address",
          "name": "arbitrator",
          "type": "address"
        }
      ],
      "name": "isFrozenStatus",
      "outputs": [
        {
          "internalType": "bool",
          "name": "",
          "type": "bool"
        }
      ],
      "stateMutability": "view",
      "type": "function"
    },
    {
      "inputs": [
        {
          "internalType": "address",
          "name": "arbitrator",
          "type": "address"
        },
        {
          "internalType": "address",
          "name": "operator",
          "type": "address"
        }
      ],
      "name": "isOperatorOf",
      "outputs": [
        {
          "internalType": "bool",
          "name": "",
          "type": "bool"
        }
      ],
      "stateMutability": "view",
      "type": "function"
    },
    {
      "inputs": [
        {
          "internalType": "address",
          "name": "arbitrator",
          "type": "address"
        }
      ],
      "name": "isPaused",
      "outputs": [
        {
          "internalType": "bool",
          "name": "",
          "type": "bool"
        }
      ],
      "stateMutability": "view",
      "type": "function"
    },
    {
      "inputs": [],
      "name": "nftContract",
      "outputs": [
        {
          "internalType": "contract IERC721",
          "name": "",
          "type": "address"
        }
      ],
      "stateMutability": "view",
      "type": "function"
    },
    {
      "inputs": [],
      "name": "nftInfo",
      "outputs": [
        {
          "internalType": "contract IBNFTInfo",
          "name": "",
          "type": "address"
        }
      ],
      "stateMutability": "view",
      "type": "function"
    },
    {
      "inputs": [],
      "name": "owner",
      "outputs": [
        {
          "internalType": "address",
          "name": "",
          "type": "address"
        }
      ],
      "stateMutability": "view",
      "type": "function"
    },
    {
      "inputs": [],
      "name": "pause",
      "outputs": [],
      "stateMutability": "nonpayable",
      "type": "function"
    },
    {
      "inputs": [
        {
          "internalType": "string",
          "name": "defaultBtcAddress",
          "type": "string"
        },
        {
          "internalType": "bytes",
          "name": "defaultBtcPubKey",
          "type": "bytes"
        },
        {
          "internalType": "uint256",
          "name": "feeRate",
          "type": "uint256"
        },
        {
          "internalType": "uint256",
          "name": "btcFeeRate",
          "type": "uint256"
        },
        {
          "internalType": "uint256",
          "name": "deadline",
          "type": "uint256"
        }
      ],
      "name": "registerArbitratorByStakeETH",
      "outputs": [],
      "stateMutability": "payable",
      "type": "function"
    },
    {
      "inputs": [
        {
          "internalType": "uint256[]",
          "name": "tokenIds",
          "type": "uint256[]"
        },
        {
          "internalType": "string",
          "name": "defaultBtcAddress",
          "type": "string"
        },
        {
          "internalType": "bytes",
          "name": "defaultBtcPubKey",
          "type": "bytes"
        },
        {
          "internalType": "uint256",
          "name": "feeRate",
          "type": "uint256"
        },
        {
          "internalType": "uint256",
          "name": "btcFeeRate",
          "type": "uint256"
        },
        {
          "internalType": "uint256",
          "name": "deadline",
          "type": "uint256"
        }
      ],
      "name": "registerArbitratorByStakeNFT",
      "outputs": [],
      "stateMutability": "nonpayable",
      "type": "function"
    },
    {
      "inputs": [
        {
          "internalType": "address",
          "name": "arbitrator",
          "type": "address"
        },
        {
          "internalType": "bytes32",
          "name": "transactionId",
          "type": "bytes32"
        }
      ],
      "name": "releaseArbitrator",
      "outputs": [],
      "stateMutability": "nonpayable",
      "type": "function"
    },
    {
      "inputs": [],
      "name": "renounceOwnership",
      "outputs": [],
      "stateMutability": "nonpayable",
      "type": "function"
    },
    {
      "inputs": [
        {
          "internalType": "uint256",
          "name": "deadline",
          "type": "uint256"
        }
      ],
      "name": "setArbitratorDeadline",
      "outputs": [],
      "stateMutability": "nonpayable",
      "type": "function"
    },
    {
      "inputs": [
        {
          "internalType": "address",
          "name": "arbitrator",
          "type": "address"
        },
        {
          "internalType": "bytes32",
          "name": "transactionId",
          "type": "bytes32"
        }
      ],
      "name": "setArbitratorWorking",
      "outputs": [],
      "stateMutability": "nonpayable",
      "type": "function"
    },
    {
      "inputs": [
        {
          "internalType": "address",
          "name": "_assetOracle",
          "type": "address"
        }
      ],
      "name": "setAssetOracle",
      "outputs": [],
      "stateMutability": "nonpayable",
      "type": "function"
    },
    {
      "inputs": [
        {
          "internalType": "address",
          "name": "_compensationManager",
          "type": "address"
        }
      ],
      "name": "setCompensationManager",
      "outputs": [],
      "stateMutability": "nonpayable",
      "type": "function"
    },
    {
      "inputs": [
        {
          "internalType": "address",
          "name": "_configManager",
          "type": "address"
        }
      ],
      "name": "setConfigManager",
      "outputs": [],
      "stateMutability": "nonpayable",
      "type": "function"
    },
    {
      "inputs": [
        {
          "internalType": "uint256",
          "name": "ethFeeRate",
          "type": "uint256"
        },
        {
          "internalType": "uint256",
          "name": "btcFeeRate",
          "type": "uint256"
        }
      ],
      "name": "setFeeRates",
      "outputs": [],
      "stateMutability": "nonpayable",
      "type": "function"
    },
    {
      "inputs": [
        {
          "internalType": "address",
          "name": "_nftContract",
          "type": "address"
        }
      ],
      "name": "setNFTContract",
      "outputs": [],
      "stateMutability": "nonpayable",
      "type": "function"
    },
    {
      "inputs": [
        {
          "internalType": "address",
          "name": "operator",
          "type": "address"
        },
        {
          "internalType": "bytes",
          "name": "btcPubKey",
          "type": "bytes"
        },
        {
          "internalType": "string",
          "name": "btcAddress",
          "type": "string"
        }
      ],
      "name": "setOperator",
      "outputs": [],
      "stateMutability": "nonpayable",
      "type": "function"
    },
    {
      "inputs": [
        {
          "internalType": "address",
          "name": "ethAddress",
          "type": "address"
        },
        {
          "internalType": "bytes",
          "name": "btcPubKey",
          "type": "bytes"
        },
        {
          "internalType": "string",
          "name": "btcAddress",
          "type": "string"
        }
      ],
      "name": "setRevenueAddresses",
      "outputs": [],
      "stateMutability": "nonpayable",
      "type": "function"
    },
    {
      "inputs": [
        {
          "internalType": "address",
          "name": "_transactionManager",
          "type": "address"
        }
      ],
      "name": "setTransactionManager",
      "outputs": [],
      "stateMutability": "nonpayable",
      "type": "function"
    },
    {
      "inputs": [],
      "name": "stakeETH",
      "outputs": [],
      "stateMutability": "payable",
      "type": "function"
    },
    {
      "inputs": [
        {
          "internalType": "uint256[]",
          "name": "tokenIds",
          "type": "uint256[]"
        }
      ],
      "name": "stakeNFT",
      "outputs": [],
      "stateMutability": "nonpayable",
      "type": "function"
    },
    {
      "inputs": [
        {
          "internalType": "address",
          "name": "arbitrator",
          "type": "address"
        }
      ],
      "name": "terminateArbitratorWithSlash",
      "outputs": [],
      "stateMutability": "nonpayable",
      "type": "function"
    },
    {
      "inputs": [],
      "name": "transactionManager",
      "outputs": [
        {
          "internalType": "address",
          "name": "",
          "type": "address"
        }
      ],
      "stateMutability": "view",
      "type": "function"
    },
    {
      "inputs": [
        {
          "internalType": "address",
          "name": "newOwner",
          "type": "address"
        }
      ],
      "name": "transferOwnership",
      "outputs": [],
      "stateMutability": "nonpayable",
      "type": "function"
    },
    {
      "inputs": [],
      "name": "unpause",
      "outputs": [],
      "stateMutability": "nonpayable",
      "type": "function"
    },
    {
      "inputs": [],
      "name": "unstake",
      "outputs": [],
      "stateMutability": "nonpayable",
      "type": "function"
    },
    {
      "inputs": [],
      "name": "zeroAddress",
      "outputs": [
        {
          "internalType": "address",
          "name": "",
          "type": "address"
        }
      ],
      "stateMutability": "view",
      "type": "function"
    }
  ],
  "bytecode": "0x60806040523480156200001157600080fd5b506200001c62000022565b620000d6565b7ff0c57e16840df040f15088dc2f81fe391c3923bec73e23a9662efc9c229c6a00805468010000000000000000900460ff1615620000735760405163f92ee8a960e01b815260040160405180910390fd5b80546001600160401b0390811614620000d35780546001600160401b0319166001600160401b0390811782556040519081527fc7f505b2f371ae2175ee4913f4499e1f2633a7b5936321eed1cdaeb6115181d29060200160405180910390a15b50565b615b9e80620000e66000396000f3fe60806040526004361061025c5760003560e01c80638da5cb5b11610144578063cedb588b116100b6578063dfcf048d1161007a578063dfcf048d1461076a578063e25268d21461078a578063e2b4efb8146107aa578063f2fde38b146107ca578063f8c8765e146107ea578063feaca5831461080a57600080fd5b8063cedb588b146106e2578063d2b6f74b14610702578063d3f414e014610722578063d56d229d14610742578063dceb986d1461076257600080fd5b8063a7ccabdf11610108578063a7ccabdf146105e4578063b1130fd914610604578063b4e25e8014610662578063b553fe1e14610682578063b6ca3e07146106a2578063ca0ab075146106c257600080fd5b80638da5cb5b1461052757806399056c3c14610564578063998b2fd8146105915780639b8b780f146105b15780639f7ca8dd146105c457600080fd5b80632ce4e8f5116101dd57806344019f7e116101a157806344019f7e1461045d5780634476a6601461047d5780635b14f1831461049d578063654b4e83146104dd578063715018a6146104fd5780638456cb591461051257600080fd5b80632ce4e8f5146103d35780632def6620146103f357806339c25e2c146104085780633b716452146104285780633f4ba83a1461044857600080fd5b80631d4d3a5d116102245780631d4d3a5d146103235780631e57b87514610343578063291112511461036357806329a3f203146103935780632b2d37da146103b357600080fd5b80630559b877146102615780630930907b1461029e5780630b1fa61c146102b357806314f6b190146102d5578063182c574414610303575b600080fd5b34801561026d57600080fd5b50600554610281906001600160a01b031681565b6040516001600160a01b0390911681526020015b60405180910390f35b3480156102aa57600080fd5b50610281600081565b3480156102bf57600080fd5b506102d36102ce366004614df7565b61082a565b005b3480156102e157600080fd5b506102f56102f0366004614df7565b6108cb565b604051908152602001610295565b34801561030f57600080fd5b506102d361031e366004614e58565b610c45565b34801561032f57600080fd5b50600754610281906001600160a01b031681565b34801561034f57600080fd5b506102d361035e366004614eda565b610d7a565b34801561036f57600080fd5b5061038361037e366004614df7565b610ed5565b6040519015158152602001610295565b34801561039f57600080fd5b506102d36103ae366004614f8b565b611274565b3480156103bf57600080fd5b506102d36103ce36600461500d565b61138d565b3480156103df57600080fd5b506102d36103ee366004614df7565b6114a7565b3480156103ff57600080fd5b506102d3611537565b34801561041457600080fd5b50610383610423366004615039565b6118c0565b34801561043457600080fd5b50600454610281906001600160a01b031681565b34801561045457600080fd5b506102d36118ea565b34801561046957600080fd5b506102d3610478366004615072565b6119b6565b34801561048957600080fd5b506102d3610498366004614df7565b611ac8565b3480156104a957600080fd5b506103836104b8366004614df7565b6001600160a01b0316600090815260036020526040902054600160a01b900460ff1690565b3480156104e957600080fd5b506102d36104f8366004614f8b565b611b60565b34801561050957600080fd5b506102d3611cc9565b34801561051e57600080fd5b506102d3611cdb565b34801561053357600080fd5b507f9016d09d72d40fdae2fd8ceac6b6234c7706214fd39c1cd1e609a0528c199300546001600160a01b0316610281565b34801561057057600080fd5b5061058461057f366004614df7565b611daa565b6040516102959190615116565b34801561059d57600080fd5b506102d36105ac366004614df7565b612180565b6102d36105bf36600461528e565b6124cb565b3480156105d057600080fd5b506103836105df366004614df7565b6125b1565b3480156105f057600080fd5b506102d36105ff366004614df7565b61294c565b34801561061057600080fd5b5061065361061f366004614df7565b60408051602080820183526000918290526001600160a01b0393909316815260068352819020815192830190915254815290565b60405190518152602001610295565b34801561066e57600080fd5b506102d361067d366004614df7565b6129e4565b34801561068e57600080fd5b50600254610281906001600160a01b031681565b3480156106ae57600080fd5b506102f56106bd366004615314565b612a8a565b3480156106ce57600080fd5b50600054610281906001600160a01b031681565b3480156106ee57600080fd5b506102d36106fd36600461500d565b612ad4565b34801561070e57600080fd5b506102d361071d366004615039565b612bec565b34801561072e57600080fd5b506102d361073d366004614df7565b612cf4565b34801561074e57600080fd5b50600154610281906001600160a01b031681565b6102d3612e40565b34801561077657600080fd5b506102f5610785366004615314565b612f44565b34801561079657600080fd5b506102f56107a5366004614df7565b612f6b565b3480156107b657600080fd5b506103836107c5366004614df7565b613417565b3480156107d657600080fd5b506102d36107e5366004614df7565b6138e9565b3480156107f657600080fd5b506102d3610805366004615339565b613927565b34801561081657600080fd5b506102d3610825366004615395565b613aff565b610832613e07565b6001600160a01b03811661087957604080518082018252600281526105a360f41b6020820152905162461bcd60e51b815261087091906004016153b7565b60405180910390fd5b600480546001600160a01b038381166001600160a01b0319831681179093556040519116919082907f960d9803c7ca631d3232d16e9971c7fd8e82d5f7ff7c2824c7b29dcab8a37d2e90600090a35050565b6001600160a01b03818116600090815260036020818152604080842081516102008101835281548088168252600160a01b900460ff16151581850152600182015481840152600282015460608201529381015460808501526004810154861660a0850152600581015490951660c084015260068501805482518185028101850190935280835294958695909360e086019392919083018282801561098e57602002820191906000526020600020905b81548152602001906001019080831161097a575b505050918352505060078201546001600160a01b031660208201526008820180546040909201916109be906153ca565b80601f01602080910402602001604051908101604052809291908181526020018280546109ea906153ca565b8015610a375780601f10610a0c57610100808354040283529160200191610a37565b820191906000526020600020905b815481529060010190602001808311610a1a57829003601f168201915b50505050508152602001600982018054610a50906153ca565b80601f0160208091040260200160405190810160405280929190818152602001828054610a7c906153ca565b8015610ac95780601f10610a9e57610100808354040283529160200191610ac9565b820191906000526020600020905b815481529060010190602001808311610aac57829003601f168201915b50505050508152602001600a8201548152602001600b82018054610aec906153ca565b80601f0160208091040260200160405190810160405280929190818152602001828054610b18906153ca565b8015610b655780601f10610b3a57610100808354040283529160200191610b65565b820191906000526020600020905b815481529060010190602001808311610b4857829003601f168201915b50505050508152602001600c82018054610b7e906153ca565b80601f0160208091040260200160405190810160405280929190818152602001828054610baa906153ca565b8015610bf75780601f10610bcc57610100808354040283529160200191610bf7565b820191906000526020600020905b815481529060010190602001808311610bda57829003601f168201915b5050509183525050600d8201546001600160a01b03166020820152600e9091015460409091015290506000610c2b84612f6b565b9050808260800151610c3d919061541a565b949350505050565b6000819003610c7e576040805180820182526002815261453560f01b6020820152905162461bcd60e51b815261087091906004016153b7565b33600090815260036020526040902080546001600160a01b0316610ccc576040805180820182526002815261209960f11b6020820152905162461bcd60e51b815261087091906004016153b7565b610cd5336125b1565b610d09576040805180820182526002815261043360f41b6020820152905162461bcd60e51b815261087091906004016153b7565b6000610d158484613e62565b9050610d22828585614112565b610d30826003015482614349565b610d398261457b565b6001546040516001600160a01b03909116903390600080516020615b2983398151915290610d6c9085908990899061542d565b60405180910390a350505050565b610d826145fe565b6000889003610dbb576040805180820182526002815261453560f01b6020820152905162461bcd60e51b815261087091906004016153b7565b6000610dcd3389898989898989614636565b90506000610ddb8b8b613e62565b9050610de8828c8c614112565b610df6826003015482614349565b610dff8261457b565b600160009054906101000a90046001600160a01b03166001600160a01b0316336001600160a01b0316600080516020615b29833981519152838e8e604051610e499392919061542d565b60405180910390a36007820154600d8301546040516001600160a01b039283169233927fb777acd33e9d270e9f2aaa3d16747edaa24e855e497eaf95f981f2dfff4c9d8292610ea992909116908e908e908e908e908e908e908e90615497565b60405180910390a35050610eca6001600080516020615b4983398151915255565b505050505050505050565b6001600160a01b03818116600090815260036020818152604080842081516102008101835281548088168252600160a01b900460ff16151581850152600182015481840152600282015460608201529381015460808501526004810154861660a0850152600581015490951660c084015260068501805482518185028101850190935280835294958695909360e0860193929190830182828015610f9857602002820191906000526020600020905b815481526020019060010190808311610f84575b505050918352505060078201546001600160a01b03166020820152600882018054604090920191610fc8906153ca565b80601f0160208091040260200160405190810160405280929190818152602001828054610ff4906153ca565b80156110415780601f1061101657610100808354040283529160200191611041565b820191906000526020600020905b81548152906001019060200180831161102457829003601f168201915b5050505050815260200160098201805461105a906153ca565b80601f0160208091040260200160405190810160405280929190818152602001828054611086906153ca565b80156110d35780601f106110a8576101008083540402835291602001916110d3565b820191906000526020600020905b8154815290600101906020018083116110b657829003601f168201915b50505050508152602001600a8201548152602001600b820180546110f6906153ca565b80601f0160208091040260200160405190810160405280929190818152602001828054611122906153ca565b801561116f5780601f106111445761010080835404028352916020019161116f565b820191906000526020600020905b81548152906001019060200180831161115257829003601f168201915b50505050508152602001600c82018054611188906153ca565b80601f01602080910402602001604051908101604052809291908181526020018280546111b4906153ca565b80156112015780601f106111d657610100808354040283529160200191611201565b820191906000526020600020905b8154815290600101906020018083116111e457829003601f168201915b5050509183525050600d8201546001600160a01b039081166020830152600e90920154604090910152815191925016611264576040805180820182526002815261209960f11b6020820152905162461bcd60e51b815261087091906004016153b7565b61126d81614757565b9392505050565b33600090815260036020526040902080546001600160a01b03166112c2576040805180820182526002815261209960f11b6020820152905162461bcd60e51b815261087091906004016153b7565b6112cb336125b1565b6112ff576040805180820182526002815261043360f41b6020820152905162461bcd60e51b815261087091906004016153b7565b600d810180546001600160a01b0319166001600160a01b038816179055600b810161132b858783615555565b50600c810161133b838583615555565b50336001600160a01b03167f8e68353cf53df77c6b6993341bb1d784fab04f2f38b2c51654b51de6ce32274e878787878760405161137d959493929190615614565b60405180910390a2505050505050565b6004546001600160a01b031633146113cf5760408051808201825260028152614e3160f01b6020820152905162461bcd60e51b815261087091906004016153b7565b600554600160a01b900460ff166114105760408051808201825260028152614e3560f01b6020820152905162461bcd60e51b815261087091906004016153b7565b6001600160a01b038216600090815260036020526040902061143183613417565b611465576040805180820182526002815261413360f01b6020820152905162461bcd60e51b815261087091906004016153b7565b6002810182905560405182906001600160a01b038516907f43b9442ba3328a37dad0041120b36563dafcdbdb7b200665d8cbb0c44982720c90600090a3505050565b6114af613e07565b6001600160a01b0381166114ed57604080518082018252600281526105a360f41b6020820152905162461bcd60e51b815261087091906004016153b7565b600780546001600160a01b0319166001600160a01b0383169081179091556040517f045dafc7c4ca3d05de630e8253620f7b16675301ba6b6040a6590090bb28037790600090a250565b61153f6145fe565b3360009081526003602052604090206002810154156115945760405162461bcd60e51b815260206004820152601160248201527041726269747261746f72576f726b696e6760781b6044820152606401610870565b33600090815260036020526040902080546115b7906001600160a01b03166125b1565b6115eb576040805180820182526002815261533160f01b6020820152905162461bcd60e51b815261087091906004016153b7565b6000816003015411806116015750600681015415155b6116375760405162461bcd60e51b81526020600482015260076024820152664e6f5374616b6560c81b6044820152606401610870565b600381018054600090915560058201546001600160a01b0316158015906116615750600682015415155b156117db576000826006018054806020026020016040519081016040528092919081815260200182805480156116b657602002820191906000526020600020905b8154815260200190600101908083116116a2575b50939450600093506116c792505050565b6040519080825280602002602001820160405280156116f0578160200160208202803683370190505b508051611707916006860191602090910190614d82565b506005830180546001600160a01b031916905560005b81518110156117d85760015482516001600160a01b03909116906323b872dd903090339086908690811061175357611753615658565b60209081029190910101516040516001600160e01b031960e086901b1681526001600160a01b0393841660048201529290911660248301526044820152606401600060405180830381600087803b1580156117ad57600080fd5b505af11580156117c1573d6000803e3d6000fd5b5050505080806117d09061566e565b91505061171d565b50505b801561186c57604051600090339083908381818185875af1925050503d8060008114611823576040519150601f19603f3d011682016040523d82523d6000602084013e611828565b606091505b505090508061186a5760405162461bcd60e51b815260206004820152600e60248201526d151c985b9cd9995c91985a5b195960921b6044820152606401610870565b505b60405181815260009033907fb7c918e0e249f999e965cafeb6c664271b3f4317d296461500e71da39f0cbda39060200160405180910390a35050506118be6001600080516020615b4983398151915255565b565b6001600160a01b038281166000908152600360205260409020600701548116908216145b92915050565b33600090815260036020526040902080546001600160a01b0316611938576040805180820182526002815261209960f11b6020820152905162461bcd60e51b815261087091906004016153b7565b8054600160a01b900460ff1661197d5760405162461bcd60e51b815260206004820152600a6024820152691b9bdd081c185d5cd95960b21b6044820152606401610870565b805460ff60a01b1916815560405133907f9f71f687820b75e4208e6fdd2091be151d94465fe4bafd2506bed2b9a430437d90600090a250565b4281116119ed576040805180820182526002815261543360f01b6020820152905162461bcd60e51b815261087091906004016153b7565b33600090815260036020526040902080546001600160a01b0316611a3b576040805180820182526002815261209960f11b6020820152905162461bcd60e51b815261087091906004016153b7565b600081600a0154118015611a53575080600a01548211155b15611a88576040805180820182526002815261543360f01b6020820152905162461bcd60e51b815261087091906004016153b7565b600a810182905560405182815233907fff191d17033fc90a7dae896652cf93df6f261bc4176c000d0e5e21345b139ccb9060200160405180910390a25050565b611ad0613e07565b6001600160a01b038116611b0e57604080518082018252600281526105a360f41b6020820152905162461bcd60e51b815261087091906004016153b7565b600580546001600160a01b038381166001600160a01b0319831681179093556040519116919082907fb2de57cf284062a9a3402f8683281c49d5a6747b1f369d0eec883b83503f3c8d90600090a35050565b6001600160a01b038516611ba85760405162461bcd60e51b815260206004820152600f60248201526e24b73b30b634b227b832b930ba37b960891b6044820152606401610870565b611bb1336125b1565b611be5576040805180820182526002815261043360f41b6020820152905162461bcd60e51b815261087091906004016153b7565b33600090815260036020526040902080546001600160a01b0316611c33576040805180820182526002815261209960f11b6020820152905162461bcd60e51b815261087091906004016153b7565b6007810180546001600160a01b0319166001600160a01b03881617905560088101611c5f858783615555565b5060098101611c6f838583615555565b50856001600160a01b0316336001600160a01b03167ff920b7832d3774e2ac2efb86fccb411bc92e19a8ea66687764dea93140bdad4a87878787604051611cb99493929190615687565b60405180910390a3505050505050565b611cd1613e07565b6118be6000614807565b33600090815260036020526040902080546001600160a01b0316611d29576040805180820182526002815261209960f11b6020820152905162461bcd60e51b815261087091906004016153b7565b611d3233613417565b611d6b5760405162461bcd60e51b815260206004820152600a6024820152694e6f742061637469766560b01b6044820152606401610870565b805460ff60a01b1916600160a01b17815560405133907ff8f74f9bb1ed360c36a0bd59e0d8aa5cbdd15bb6e8e86af871f343daf432be2290600090a250565b604080516102008101825260008082526020820181905291810182905260608082018390526080820183905260a0820183905260c0820183905260e08201819052610100820183905261012082018190526101408201819052610160820183905261018082018190526101a08201526101c081018290526101e08101919091526001600160a01b0382811660009081526003602081815260409283902083516102008101855281548087168252600160a01b900460ff16151581840152600182015481860152600282015460608201529281015460808401526004810154851660a0840152600581015490941660c083015260068401805484518184028101840190955280855292949360e08601939092830182828015611eea57602002820191906000526020600020905b815481526020019060010190808311611ed6575b505050918352505060078201546001600160a01b03166020820152600882018054604090920191611f1a906153ca565b80601f0160208091040260200160405190810160405280929190818152602001828054611f46906153ca565b8015611f935780601f10611f6857610100808354040283529160200191611f93565b820191906000526020600020905b815481529060010190602001808311611f7657829003601f168201915b50505050508152602001600982018054611fac906153ca565b80601f0160208091040260200160405190810160405280929190818152602001828054611fd8906153ca565b80156120255780601f10611ffa57610100808354040283529160200191612025565b820191906000526020600020905b81548152906001019060200180831161200857829003601f168201915b50505050508152602001600a8201548152602001600b82018054612048906153ca565b80601f0160208091040260200160405190810160405280929190818152602001828054612074906153ca565b80156120c15780601f10612096576101008083540402835291602001916120c1565b820191906000526020600020905b8154815290600101906020018083116120a457829003601f168201915b50505050508152602001600c820180546120da906153ca565b80601f0160208091040260200160405190810160405280929190818152602001828054612106906153ca565b80156121535780601f1061212857610100808354040283529160200191612153565b820191906000526020600020905b81548152906001019060200180831161213657829003601f168201915b5050509183525050600d8201546001600160a01b03166020820152600e9091015460409091015292915050565b6005546001600160a01b031633146121c25760408051808201825260028152614e3760f01b6020820152905162461bcd60e51b815261087091906004016153b7565b600554600160a01b900460ff166122035760408051808201825260028152614e3560f01b6020820152905162461bcd60e51b815261087091906004016153b7565b6001600160a01b0380821660009081526003602052604090208054909116612255576040805180820182526002815261209960f11b6020820152905162461bcd60e51b815261087091906004016153b7565b600381015480156122f5576000600383018190556005546040516001600160a01b039091169083908381818185875af1925050503d80600081146122b5576040519150601f19603f3d011682016040523d82523d6000602084013e6122ba565b606091505b50509050806122f3576040805180820182526002815261463160f01b6020820152905162461bcd60e51b815261087091906004016153b7565b505b60058201546001600160a01b0316158015906123145750600682015415155b156124925760008260060180548060200260200160405190810160405280929190818152602001828054801561236957602002820191906000526020600020905b815481526020019060010190808311612355575b509394506000935061237a92505050565b6040519080825280602002602001820160405280156123a3578160200160208202803683370190505b5080516123ba916006860191602090910190614d82565b506005830180546001600160a01b031916905560005b815181101561248f5760015460055483516001600160a01b03928316926323b872dd92309291169086908690811061240a5761240a615658565b60209081029190910101516040516001600160e01b031960e086901b1681526001600160a01b0393841660048201529290911660248301526044820152606401600060405180830381600087803b15801561246457600080fd5b505af1158015612478573d6000803e3d6000fd5b5050505080806124879061566e565b9150506123d0565b50505b6040516001600160a01b038416907fc0c6efb1c6f315e6721ba44dc1a435e4ca9a730d45f3caf4a67c43b22ca008a290600090a2505050565b60006124dd3389898989898989614636565b90506124ea346000614349565b348160030160008282546124fe919061541a565b909155505080546040805160008082526020820192839052926001600160a01b031691600080516020615b298339815191529161253d913491906156b9565b60405180910390a36007810154600d8201546040516001600160a01b039283169233927fb777acd33e9d270e9f2aaa3d16747edaa24e855e497eaf95f981f2dfff4c9d829261259f9290911690600c870190600b8801908b908b908b90615784565b60405180910390a35050505050505050565b6001600160a01b03818116600090815260036020818152604080842081516102008101835281548088168252600160a01b900460ff16151581850152600182015481840152600282015460608201529381015460808501526004810154861660a0850152600581015490951660c084015260068501805482518185028101850190935280835294958695909360e086019392919083018282801561267457602002820191906000526020600020905b815481526020019060010190808311612660575b505050918352505060078201546001600160a01b031660208201526008820180546040909201916126a4906153ca565b80601f01602080910402602001604051908101604052809291908181526020018280546126d0906153ca565b801561271d5780601f106126f25761010080835404028352916020019161271d565b820191906000526020600020905b81548152906001019060200180831161270057829003601f168201915b50505050508152602001600982018054612736906153ca565b80601f0160208091040260200160405190810160405280929190818152602001828054612762906153ca565b80156127af5780601f10612784576101008083540402835291602001916127af565b820191906000526020600020905b81548152906001019060200180831161279257829003601f168201915b50505050508152602001600a8201548152602001600b820180546127d2906153ca565b80601f01602080910402602001604051908101604052809291908181526020018280546127fe906153ca565b801561284b5780601f106128205761010080835404028352916020019161284b565b820191906000526020600020905b81548152906001019060200180831161282e57829003601f168201915b50505050508152602001600c82018054612864906153ca565b80601f0160208091040260200160405190810160405280929190818152602001828054612890906153ca565b80156128dd5780601f106128b2576101008083540402835291602001916128dd565b820191906000526020600020905b8154815290600101906020018083116128c057829003601f168201915b5050509183525050600d8201546001600160a01b039081166020830152600e909201546040909101528151919250166129195750600092915050565b60608101511561292c5750600092915050565b61293581614757565b156129435750600092915050565b50600192915050565b612954613e07565b6001600160a01b03811661299257604080518082018252600281526105a360f41b6020820152905162461bcd60e51b815261087091906004016153b7565b600180546001600160a01b038381166001600160a01b0319831681179093556040519116919082907fab9636faa03b42a52a353eb86f070f1ac15b69f0bc419fba63d07b5d996edad790600090a35050565b6129ec613e07565b6001600160a01b038116612a425760405162461bcd60e51b815260206004820152601d60248201527f496e76616c696420436f6e6669674d616e6167657220616464726573730000006044820152606401610870565b600080546001600160a01b0319166001600160a01b038316908117825560405190917f6a801685c5950e3d8ece256f75ca0ff31ed0ae02aeae73f8180ff32e978a2f6b91a250565b6001600160a01b0381166000908152600660205260408120548015612aca576000612ab6848387614878565b9050612ac1816148be565b925050506118e4565b5060009392505050565b6004546001600160a01b03163314612b165760408051808201825260028152614e3160f01b6020820152905162461bcd60e51b815261087091906004016153b7565b600554600160a01b900460ff16612b575760408051808201825260028152614e3560f01b6020820152905162461bcd60e51b815261087091906004016153b7565b6001600160a01b038216600090815260036020526040902060028101548214612baa5760408051808201825260028152612a1b60f11b6020820152905162461bcd60e51b815261087091906004016153b7565b60006002820181905560405183916001600160a01b038616917fec0516e78db51665510a6ab319cb07cbb5b1e66d1de10f9abd1994eaaa555b309190a3505050565b612bf4613e07565b600554600160a01b900460ff1615612c36576040805180820182526002815261041360f41b6020820152905162461bcd60e51b815261087091906004016153b7565b6001600160a01b0382161580612c5357506001600160a01b038116155b15612c8857604080518082018252600281526105a360f41b6020820152905162461bcd60e51b815261087091906004016153b7565b600480546001600160a01b038085166001600160a01b03199092168217909255600580546001600160a81b03191684841617600160a01b17908190556040519216917f255c9edca3ea4cd6ff3c64c4cd7a5f812c6ae0ca0ae939f85e9e3eb49cdb416f90600090a35050565b6004546001600160a01b03163314612d365760408051808201825260028152614e3160f01b6020820152905162461bcd60e51b815261087091906004016153b7565b600554600160a01b900460ff16612d775760408051808201825260028152614e3560f01b6020820152905162461bcd60e51b815261087091906004016153b7565b6001600160a01b0380821660009081526003602052604090208054909116612dc9576040805180820182526002815261209960f11b6020820152905162461bcd60e51b815261087091906004016153b7565b6002810154612e02576040805180820182526002815261413560f01b6020820152905162461bcd60e51b815261087091906004016153b7565b42600e8201556040516001600160a01b038316907fb5c433aa54e775c63ae22f75b359af0e25c57eddd9bb55eb71445b74b523bfa890600090a25050565b33600090815260036020526040902080546001600160a01b0316612e8e576040805180820182526002815261209960f11b6020820152905162461bcd60e51b815261087091906004016153b7565b612e97336125b1565b612ecb576040805180820182526002815261043360f41b6020820152905162461bcd60e51b815261087091906004016153b7565b6000612ed633612f6b565b90506000348360030154612eea919061541a565b600384018190559050612efd8183614349565b82546040805160008082526020820192839052926001600160a01b031691600080516020615b2983398151915291612f37913491906156b9565b60405180910390a3505050565b6001600160a01b038116600090815260036020526040812060010154610c3d838286614878565b6001600160a01b03818116600090815260036020818152604080842081516102008101835281548088168252600160a01b900460ff16151581850152600182015481840152600282015460608201529381015460808501526004810154861660a0850152600581015490951660c084015260068501805482518185028101850190935280835294958695909360e086019392919083018282801561302e57602002820191906000526020600020905b81548152602001906001019080831161301a575b505050918352505060078201546001600160a01b0316602082015260088201805460409092019161305e906153ca565b80601f016020809104026020016040519081016040528092919081815260200182805461308a906153ca565b80156130d75780601f106130ac576101008083540402835291602001916130d7565b820191906000526020600020905b8154815290600101906020018083116130ba57829003601f168201915b505050505081526020016009820180546130f0906153ca565b80601f016020809104026020016040519081016040528092919081815260200182805461311c906153ca565b80156131695780601f1061313e57610100808354040283529160200191613169565b820191906000526020600020905b81548152906001019060200180831161314c57829003601f168201915b50505050508152602001600a8201548152602001600b8201805461318c906153ca565b80601f01602080910402602001604051908101604052809291908181526020018280546131b8906153ca565b80156132055780601f106131da57610100808354040283529160200191613205565b820191906000526020600020905b8154815290600101906020018083116131e857829003601f168201915b50505050508152602001600c8201805461321e906153ca565b80601f016020809104026020016040519081016040528092919081815260200182805461324a906153ca565b80156132975780601f1061326c57610100808354040283529160200191613297565b820191906000526020600020905b81548152906001019060200180831161327a57829003601f168201915b5050509183525050600d8201546001600160a01b03166020820152600e9091015460409091015290506000805b8260e001515181101561340f5760025460e084015180516000926001600160a01b03169163d5ec2d8391859081106132fe576132fe615658565b60200260200101516040518263ffffffff1660e01b815260040161332491815260200190565b600060405180830381865afa158015613341573d6000803e3d6000fd5b505050506040513d6000823e601f3d908101601f191682016040526133699190810190615883565b91505060005b8160600151518110156133fa576000806133b88460600151848151811061339857613398615658565b6020026020010151602001516001600160401b03166402540be400614a19565b91509150816133d95760405162461bcd60e51b815260040161087090615a5f565b6133e3818761541a565b9550505080806133f29061566e565b91505061336f565b505080806134079061566e565b9150506132c4565b509392505050565b6001600160a01b0381166000908152600360205260408120600a8101541580159061344657504281600a015411155b156134545750600092915050565b805460009061346b906001600160a01b03166108cb565b600054604080516332c70ad760e21b815290519293506001600160a01b0390911691636dd5b69d91839163cb1c2b5c916004808201926020929091908290030181865afa1580156134c0573d6000803e3d6000fd5b505050506040513d601f19601f820116820180604052508101906134e49190615a81565b6040518263ffffffff1660e01b815260040161350291815260200190565b602060405180830381865afa15801561351f573d6000803e3d6000fd5b505050506040513d601f19601f820116820180604052508101906135439190615a81565b811015613554575060009392505050565b604080516102008101825283546001600160a01b038082168352600160a01b90910460ff16151560208084019190915260018601548385015260028601546060840152600386015460808401526004860154821660a0840152600586015490911660c08301526006850180548451818402810184019095528085526138a194879360e086019391929083018282801561360c57602002820191906000526020600020905b8154815260200190600101908083116135f8575b505050918352505060078201546001600160a01b0316602082015260088201805460409092019161363c906153ca565b80601f0160208091040260200160405190810160405280929190818152602001828054613668906153ca565b80156136b55780601f1061368a576101008083540402835291602001916136b5565b820191906000526020600020905b81548152906001019060200180831161369857829003601f168201915b505050505081526020016009820180546136ce906153ca565b80601f01602080910402602001604051908101604052809291908181526020018280546136fa906153ca565b80156137475780601f1061371c57610100808354040283529160200191613747565b820191906000526020600020905b81548152906001019060200180831161372a57829003601f168201915b50505050508152602001600a8201548152602001600b8201805461376a906153ca565b80601f0160208091040260200160405190810160405280929190818152602001828054613796906153ca565b80156137e35780601f106137b8576101008083540402835291602001916137e3565b820191906000526020600020905b8154815290600101906020018083116137c657829003601f168201915b50505050508152602001600c820180546137fc906153ca565b80601f0160208091040260200160405190810160405280929190818152602001828054613828906153ca565b80156138755780601f1061384a57610100808354040283529160200191613875565b820191906000526020600020905b81548152906001019060200180831161385857829003601f168201915b5050509183525050600d8201546001600160a01b03166020820152600e90910154604090910152614757565b156138b0575060009392505050565b6002820154156138c4575060009392505050565b8154600160a01b900460ff16156138df575060009392505050565b5060019392505050565b6138f1613e07565b6001600160a01b03811661391b57604051631e4fbdf760e01b815260006004820152602401610870565b61392481614807565b50565b7ff0c57e16840df040f15088dc2f81fe391c3923bec73e23a9662efc9c229c6a008054600160401b810460ff1615906001600160401b031660008115801561396c5750825b90506000826001600160401b031660011480156139885750303b155b905081158015613996575080155b156139b45760405163f92ee8a960e01b815260040160405180910390fd5b845467ffffffffffffffff1916600117855583156139de57845460ff60401b1916600160401b1785555b6139e6614a64565b6139ef33614a74565b6001600160a01b0389161580613a0c57506001600160a01b038816155b80613a1e57506001600160a01b038716155b80613a3057506001600160a01b038616155b15613a6557604080518082018252600281526105a360f41b6020820152905162461bcd60e51b815261087091906004016153b7565b600080546001600160a01b03808c166001600160a01b031992831617909255600180548b8416908316179055600280548a841690831617905560078054928916929091169190911790558315610eca57845460ff60401b19168555604051600181527fc7f505b2f371ae2175ee4913f4499e1f2633a7b5936321eed1cdaeb6115181d29060200160405180910390a1505050505050505050565b600054604080516325ba6ce560e11b815290516001600160a01b0390921691636dd5b69d918391634b74d9ca916004808201926020929091908290030181865afa158015613b51573d6000803e3d6000fd5b505050506040513d601f19601f82011682018060405250810190613b759190615a81565b6040518263ffffffff1660e01b8152600401613b9391815260200190565b602060405180830381865afa158015613bb0573d6000803e3d6000fd5b505050506040513d601f19601f82011682018060405250810190613bd49190615a81565b821015613c0f5760405162461bcd60e51b8152602060048201526009602482015268466565546f6f4c6f7760b81b6044820152606401610870565b6000546040805163c1df30e760e01b815290516001600160a01b0390921691636dd5b69d91839163c1df30e7916004808201926020929091908290030181865afa158015613c61573d6000803e3d6000fd5b505050506040513d601f19601f82011682018060405250810190613c859190615a81565b6040518263ffffffff1660e01b8152600401613ca391815260200190565b602060405180830381865afa158015613cc0573d6000803e3d6000fd5b505050506040513d601f19601f82011682018060405250810190613ce49190615a81565b81101560405180604001604052806002815260200161231960f11b81525090613d205760405162461bcd60e51b815260040161087091906153b7565b5033600090815260036020526040902080546001600160a01b0316613d6f576040805180820182526002815261209960f11b6020820152905162461bcd60e51b815261087091906004016153b7565b613d78336125b1565b613dac576040805180820182526002815261043360f41b6020820152905162461bcd60e51b815261087091906004016153b7565b6001810183905533600081815260066020908152604091829020858155825187815291820186905292917f3deb80fb64bacb0d572a957b16a7420b1799df648df6a6370c8cc197ad0446a4910160405180910390a250505050565b33613e397f9016d09d72d40fdae2fd8ceac6b6234c7706214fd39c1cd1e609a0528c199300546001600160a01b031690565b6001600160a01b0316146118be5760405163118cdaa760e01b8152336004820152602401610870565b600080806402540be400815b85811015613faa576002546000906001600160a01b031663d5ec2d83898985818110613e9c57613e9c615658565b905060200201356040518263ffffffff1660e01b8152600401613ec191815260200190565b600060405180830381865afa158015613ede573d6000803e3d6000fd5b505050506040513d6000823e601f3d908101601f19168201604052613f069190810190615883565b91505060005b816060015151811015613f955781606001518181518110613f2f57613f2f615658565b6020026020010151602001516001600160401b03169450600080613f538787614a19565b9150915081613f745760405162461bcd60e51b815260040161087090615a5f565b613f7e818961541a565b975050508080613f8d9061566e565b915050613f0c565b50508080613fa29061566e565b915050613e6e565b50336000908152600360205260408120905b6006820154811015614106576002546006830180546000926001600160a01b03169163d5ec2d839185908110613ff457613ff4615658565b90600052602060002001546040518263ffffffff1660e01b815260040161401d91815260200190565b600060405180830381865afa15801561403a573d6000803e3d6000fd5b505050506040513d6000823e601f3d908101601f191682016040526140629190810190615883565b91505060005b8160600151518110156140f1578160600151818151811061408b5761408b615658565b6020026020010151602001516001600160401b031695506000806140af8888614a19565b91509150816140d05760405162461bcd60e51b815260040161087090615a5f565b6140da818a61541a565b9850505080806140e99061566e565b915050614068565b505080806140fe9061566e565b915050613fbc565b50929695505050505050565b60015460405163e985e9c560e01b81523360048201523060248201526000916001600160a01b03169063e985e9c590604401602060405180830381865afa158015614161573d6000803e3d6000fd5b505050506040513d601f19601f820116820180604052508101906141859190615a9a565b905060005b8281101561434257816142645760015430906001600160a01b031663081812fc8686858181106141bc576141bc615658565b905060200201356040518263ffffffff1660e01b81526004016141e191815260200190565b602060405180830381865afa1580156141fe573d6000803e3d6000fd5b505050506040513d601f19601f820116820180604052508101906142229190615abc565b6001600160a01b0316146142645760405162461bcd60e51b81526020600482015260096024820152684e6f417070726f766560b81b6044820152606401610870565b6001546001600160a01b03166323b872dd333087878681811061428957614289615658565b6040516001600160e01b031960e088901b1681526001600160a01b03958616600482015294909316602485015250602090910201356044820152606401600060405180830381600087803b1580156142e057600080fd5b505af11580156142f4573d6000803e3d6000fd5b505050508460060184848381811061430e5761430e615658565b835460018101855560009485526020948590209190940292909201359190920155508061433a8161566e565b91505061418a565b5050505050565b6000614355828461541a565b60008054604080516332c70ad760e21b8152905193945091926001600160a01b0390911691636dd5b69d91839163cb1c2b5c9160048083019260209291908290030181865afa1580156143ac573d6000803e3d6000fd5b505050506040513d601f19601f820116820180604052508101906143d09190615a81565b6040518263ffffffff1660e01b81526004016143ee91815260200190565b602060405180830381865afa15801561440b573d6000803e3d6000fd5b505050506040513d601f19601f8201168201806040525081019061442f9190615a81565b600080546040805163c98517c560e01b8152905193945091926001600160a01b0390911691636dd5b69d91839163c98517c59160048083019260209291908290030181865afa158015614486573d6000803e3d6000fd5b505050506040513d601f19601f820116820180604052508101906144aa9190615a81565b6040518263ffffffff1660e01b81526004016144c891815260200190565b602060405180830381865afa1580156144e5573d6000803e3d6000fd5b505050506040513d601f19601f820116820180604052508101906145099190615a81565b905081831015614543576040805180820182526002815261299960f11b6020820152905162461bcd60e51b815261087091906004016153b7565b80831115614342576040805180820182526002815261533360f01b6020820152905162461bcd60e51b815261087091906004016153b7565b60058101546001600160a01b03166145b4576001546005820180546001600160a01b0319166001600160a01b0390921691909117905550565b60015460058201546001600160a01b03908116911614613924576040805180820182526002815261249b60f11b6020820152905162461bcd60e51b815261087091906004016153b7565b600080516020615b4983398151915280546001190161463057604051633ee5aeb560e01b815260040160405180910390fd5b60029055565b6001600160a01b038089166000908152600360205260408120805491929091161561468b576040805180820182526002815261413160f01b6020820152905162461bcd60e51b815261087091906004016153b7565b61469a89898989898989614a85565b80546001600160a01b038b166001600160a01b031991821681178355600783018054831682179055600d83018054909216179055600c81016146dd898b83615555565b50600b81016146ed878983615555565b50600981016146fd898b83615555565b506008810161470d878983615555565b50600181019490945550600a8301556001600160a01b039690961660009081526006602052604090209590955550929392505050565b6001600080516020615b4983398151915255565b6000805460408051632f672f1960e11b8152905183926001600160a01b031691635ece5e329160048083019260209291908290030181865afa1580156147a1573d6000803e3d6000fd5b505050506040513d601f19601f820116820180604052508101906147c59190615a81565b9050826101e001516000036147dd5750600092915050565b4281846101e001516147ef919061541a565b11156147fe5750600192915050565b50600092915050565b7f9016d09d72d40fdae2fd8ceac6b6234c7706214fd39c1cd1e609a0528c19930080546001600160a01b031981166001600160a01b03848116918217845560405192169182907f8be0079c531659141344cd1fd0a4f28419497f9722a3daafe3b4186f6b6457e090600090a3505050565b600080614884856108cb565b90506148966127106301e13380615ad9565b846148a18584615ad9565b6148ab9190615ad9565b6148b59190615b06565b95945050505050565b6007546040516317a6948f60e21b815273517e9e5d46c1ea8ab6f78677d6114ef47f71f6c4600482015260009182916001600160a01b0390911690635e9a523c90602401602060405180830381865afa15801561491f573d6000803e3d6000fd5b505050506040513d601f19601f820116820180604052508101906149439190615a81565b6007546040516317a6948f60e21b815273df4191bfe8fae019fd6af9433e8ed6bfc4b90ca160048201529192506000916001600160a01b0390911690635e9a523c90602401602060405180830381865afa1580156149a5573d6000803e3d6000fd5b505050506040513d601f19601f820116820180604052508101906149c99190615a81565b905060006149df82670de0b6b3a7640000615ad9565b6149e98487615ad9565b6149f7906305f5e100615ad9565b614a019190615b06565b90506103e8811015610c3d57506103e8949350505050565b60008083600003614a305750600190506000614a5d565b83830283858281614a4357614a43615af0565b0414614a56576000809250925050614a5d565b6001925090505b9250929050565b614a6c614d29565b6118be614d72565b614a7c614d29565b61392481614d7a565b851580614a90575083155b15614ac5576040805180820182526002815261049360f41b6020820152905162461bcd60e51b815261087091906004016153b7565b60008054604080516325ba6ce560e11b815290516001600160a01b0390921691636dd5b69d918391634b74d9ca916004808201926020929091908290030181865afa158015614b18573d6000803e3d6000fd5b505050506040513d601f19601f82011682018060405250810190614b3c9190615a81565b6040518263ffffffff1660e01b8152600401614b5a91815260200190565b602060405180830381865afa158015614b77573d6000803e3d6000fd5b505050506040513d601f19601f82011682018060405250810190614b9b9190615a81565b905080841015614bd5576040805180820182526002815261046360f41b6020820152905162461bcd60e51b815261087091906004016153b7565b600080546040805163c1df30e760e01b815290516001600160a01b0390921691636dd5b69d91839163c1df30e7916004808201926020929091908290030181865afa158015614c28573d6000803e3d6000fd5b505050506040513d601f19601f82011682018060405250810190614c4c9190615a81565b6040518263ffffffff1660e01b8152600401614c6a91815260200190565b602060405180830381865afa158015614c87573d6000803e3d6000fd5b505050506040513d601f19601f82011682018060405250810190614cab9190615a81565b905080841015614ce5576040805180820182526002815261231960f11b6020820152905162461bcd60e51b815261087091906004016153b7565b8215801590614cf45750428311155b15610eca576040805180820182526002815261543360f01b6020820152905162461bcd60e51b815261087091906004016153b7565b7ff0c57e16840df040f15088dc2f81fe391c3923bec73e23a9662efc9c229c6a0054600160401b900460ff166118be57604051631afcd79f60e31b815260040160405180910390fd5b614743614d29565b6138f1614d29565b828054828255906000526020600020908101928215614dbd579160200282015b82811115614dbd578251825591602001919060010190614da2565b50614dc9929150614dcd565b5090565b5b80821115614dc95760008155600101614dce565b6001600160a01b038116811461392457600080fd5b600060208284031215614e0957600080fd5b813561126d81614de2565b60008083601f840112614e2657600080fd5b5081356001600160401b03811115614e3d57600080fd5b6020830191508360208260051b8501011115614a5d57600080fd5b60008060208385031215614e6b57600080fd5b82356001600160401b03811115614e8157600080fd5b614e8d85828601614e14565b90969095509350505050565b60008083601f840112614eab57600080fd5b5081356001600160401b03811115614ec257600080fd5b602083019150836020828501011115614a5d57600080fd5b600080600080600080600080600060c08a8c031215614ef857600080fd5b89356001600160401b0380821115614f0f57600080fd5b614f1b8d838e01614e14565b909b50995060208c0135915080821115614f3457600080fd5b614f408d838e01614e99565b909950975060408c0135915080821115614f5957600080fd5b50614f668c828d01614e99565b9a9d999c50979a969997986060880135976080810135975060a0013595509350505050565b600080600080600060608688031215614fa357600080fd5b8535614fae81614de2565b945060208601356001600160401b0380821115614fca57600080fd5b614fd689838a01614e99565b90965094506040880135915080821115614fef57600080fd5b50614ffc88828901614e99565b969995985093965092949392505050565b6000806040838503121561502057600080fd5b823561502b81614de2565b946020939093013593505050565b6000806040838503121561504c57600080fd5b823561505781614de2565b9150602083013561506781614de2565b809150509250929050565b60006020828403121561508457600080fd5b5035919050565b600081518084526020808501945080840160005b838110156150bb5781518752958201959082019060010161509f565b509495945050505050565b60005b838110156150e15781810151838201526020016150c9565b50506000910152565b600081518084526151028160208601602086016150c6565b601f01601f19169290920160200192915050565b602081526151306020820183516001600160a01b03169052565b60006020830151615145604084018215159052565b506040830151606083015260608301516080830152608083015160a083015260a083015161517e60c08401826001600160a01b03169052565b5060c08301516001600160a01b03811660e08401525060e083015161020061010081818601526151b261022086018461508b565b908601519092506101206151d0868201836001600160a01b03169052565b80870151915050601f196101408187860301818801526151f085846150ea565b94508088015192505061016081878603018188015261520f85846150ea565b9450808801519250506101808281880152808801519250506101a081878603018188015261523d85846150ea565b9450808801519250506101c081878603018188015261525c85846150ea565b945080880151925050506101e061527d818701836001600160a01b03169052565b959095015193019290925250919050565b600080600080600080600060a0888a0312156152a957600080fd5b87356001600160401b03808211156152c057600080fd5b6152cc8b838c01614e99565b909950975060208a01359150808211156152e557600080fd5b506152f28a828b01614e99565b989b979a50986040810135976060820135975060809091013595509350505050565b6000806040838503121561532757600080fd5b82359150602083013561506781614de2565b6000806000806080858703121561534f57600080fd5b843561535a81614de2565b9350602085013561536a81614de2565b9250604085013561537a81614de2565b9150606085013561538a81614de2565b939692955090935050565b600080604083850312156153a857600080fd5b50508035926020909101359150565b60208152600061126d60208301846150ea565b600181811c908216806153de57607f821691505b6020821081036153fe57634e487b7160e01b600052602260045260246000fd5b50919050565b634e487b7160e01b600052601160045260246000fd5b808201808211156118e4576118e4615404565b838152604060208201819052810182905260006001600160fb1b0383111561545457600080fd5b8260051b8085606085013791909101606001949350505050565b81835281816020850137506000828201602090810191909152601f909101601f19169091010190565b6001600160a01b038916815260c0602082018190526000906154bc908301898b61546e565b82810360408401526154cf81888a61546e565b60608401969096525050608081019290925260a09091015295945050505050565b634e487b7160e01b600052604160045260246000fd5b601f82111561555057600081815260208120601f850160051c8101602086101561552d5750805b601f850160051c820191505b8181101561554c57828155600101615539565b5050505b505050565b6001600160401b0383111561556c5761556c6154f0565b6155808361557a83546153ca565b83615506565b6000601f8411600181146155b4576000851561559c5750838201355b600019600387901b1c1916600186901b178355614342565b600083815260209020601f19861690835b828110156155e557868501358255602094850194600190920191016155c5565b50868210156156025760001960f88860031b161c19848701351681555b505060018560011b0183555050505050565b6001600160a01b0386168152606060208201819052600090615639908301868861546e565b828103604084015261564c81858761546e565b98975050505050505050565b634e487b7160e01b600052603260045260246000fd5b60006001820161568057615680615404565b5060010190565b60408152600061569b60408301868861546e565b82810360208401526156ae81858761546e565b979650505050505050565b6000604082018483526020604081850152818551808452606086019150828701935060005b818110156156fa578451835293830193918301916001016156de565b5090979650505050505050565b60008154615714816153ca565b808552602060018381168015615731576001811461574b57615779565b60ff1985168884015283151560051b880183019550615779565b866000528260002060005b858110156157715781548a8201860152908301908401615756565b890184019650505b505050505092915050565b6001600160a01b038716815260c0602082018190526000906157a890830188615707565b82810360408401526157ba8188615707565b60608401969096525050608081019290925260a0909101529392505050565b604051608081016001600160401b03811182821017156157fb576157fb6154f0565b60405290565b604051606081016001600160401b03811182821017156157fb576157fb6154f0565b604051601f8201601f191681016001600160401b038111828210171561584b5761584b6154f0565b604052919050565b805163ffffffff8116811461586757600080fd5b919050565b80516001600160401b038116811461586757600080fd5b6000806040838503121561589657600080fd5b8251915060208301516001600160401b03808211156158b457600080fd5b90840190608082870312156158c857600080fd5b6158d06157d9565b825181526158e060208401615853565b6020820152604083015160ff811681146158f957600080fd5b604082015260608301518281111561591057600080fd5b80840193505086601f84011261592557600080fd5b825182811115615937576159376154f0565b61594660208260051b01615823565b8082825260208201915060208360051b87010192508983111561596857600080fd5b602086015b83811015615a4b5780518681111561598457600080fd5b8701601f196060828e038201121561599b57600080fd5b6159a3615801565b6020830151898111156159b557600080fd5b8301603f81018f136159c657600080fd5b60208101518a8111156159db576159db6154f0565b6159ec602085601f84011601615823565b93508084528f6040828401011115615a0357600080fd5b615a148160208601604085016150c6565b5050818152615a256040840161586c565b6020820152615a3660608401615853565b6040820152855250506020928301920161596d565b506060840152509497909650945050505050565b6020808252600890820152674f766572666c6f7760c01b604082015260600190565b600060208284031215615a9357600080fd5b5051919050565b600060208284031215615aac57600080fd5b8151801515811461126d57600080fd5b600060208284031215615ace57600080fd5b815161126d81614de2565b80820281158282048414176118e4576118e4615404565b634e487b7160e01b600052601260045260246000fd5b600082615b2357634e487b7160e01b600052601260045260246000fd5b50049056fe03666b063f075e29b3926eb82a4d1f7746231db3395483f453e477b56531038e9b779b17422d0df92223018b32b4d1fa46e071723d6817e2486d003becc55f00a26469706673582212201fe0768939f2d59f13ba2f3b037df58e2676ecaa0b6b44d82aff86ffb8867ef764736f6c63430008140033",
  "linkReferences": {},
  "deployedLinkReferences": {}
}