{
  "_format": "hh-sol-artifact-1",
  "contractName": "CompensationManager",
  "sourceName": "contracts/core/CompensationManager.sol",
  "abi": [
    {
      "inputs": [],
      "stateMutability": "nonpayable",
      "type": "constructor"
    },
    {
      "inputs": [],
      "name": "EnforcedPause",
      "type": "error"
    },
    {
      "inputs": [],
      "name": "ExpectedPause",
      "type": "error"
    },
    {
      "inputs": [],
      "name": "InvalidInitialization",
      "type": "error"
    },
    {
      "inputs": [],
      "name": "NotInitializing",
      "type": "error"
    },
    {
      "inputs": [
        {
          "internalType": "address",
          "name": "owner",
          "type": "address"
        }
      ],
      "name": "OwnableInvalidOwner",
      "type": "error"
    },
    {
      "inputs": [
        {
          "internalType": "address",
          "name": "account",
          "type": "address"
        }
      ],
      "name": "OwnableUnauthorizedAccount",
      "type": "error"
    },
    {
      "inputs": [
        {
          "internalType": "address",
          "name": "token",
          "type": "address"
        }
      ],
      "name": "SafeERC20FailedOperation",
      "type": "error"
    },
    {
      "anonymous": false,
      "inputs": [
        {
          "indexed": true,
          "internalType": "address",
          "name": "newArbitratorManager",
          "type": "address"
        }
      ],
      "name": "ArbitratorManagerUpdated",
      "type": "event"
    },
    {
      "anonymous": false,
      "inputs": [
        {
          "indexed": true,
          "internalType": "bytes32",
          "name": "claimId",
          "type": "bytes32"
        },
        {
          "indexed": true,
          "internalType": "address",
          "name": "claimer",
          "type": "address"
        },
        {
          "indexed": true,
          "internalType": "address",
          "name": "arbitrator",
          "type": "address"
        },
        {
          "indexed": false,
          "internalType": "uint256",
          "name": "ethAmount",
          "type": "uint256"
        },
        {
          "indexed": false,
          "internalType": "address",
          "name": "erc20Token",
          "type": "address"
        },
        {
          "indexed": false,
          "internalType": "uint256",
          "name": "erc20Amount",
          "type": "uint256"
        },
        {
          "indexed": false,
          "internalType": "uint256[]",
          "name": "nftTokenIds",
          "type": "uint256[]"
        },
        {
          "indexed": false,
          "internalType": "uint256",
          "name": "totalAmount",
          "type": "uint256"
        },
        {
          "indexed": false,
          "internalType": "address",
          "name": "receivedCompensationAddress",
          "type": "address"
        },
        {
          "indexed": false,
          "internalType": "uint8",
          "name": "claimType",
          "type": "uint8"
        }
      ],
      "name": "CompensationClaimed",
      "type": "event"
    },
    {
      "anonymous": false,
      "inputs": [
        {
          "indexed": true,
          "internalType": "bytes32",
          "name": "claimId",
          "type": "bytes32"
        },
        {
          "indexed": true,
          "internalType": "address",
          "name": "claimer",
          "type": "address"
        },
        {
          "indexed": true,
          "internalType": "address",
          "name": "receivedCompensationAddress",
          "type": "address"
        },
        {
          "indexed": false,
          "internalType": "uint256",
          "name": "ethAmount",
          "type": "uint256"
        },
        {
          "indexed": false,
          "internalType": "address",
          "name": "erc20Token",
          "type": "address"
        },
        {
          "indexed": false,
          "internalType": "uint256",
          "name": "erc20Amount",
          "type": "uint256"
        },
        {
          "indexed": false,
          "internalType": "uint256[]",
          "name": "nftTokenIds",
          "type": "uint256[]"
        },
        {
          "indexed": false,
          "internalType": "uint256",
          "name": "systemFee",
          "type": "uint256"
        },
        {
          "indexed": false,
          "internalType": "uint256",
          "name": "excessPaymenttoClaimer",
          "type": "uint256"
        }
      ],
      "name": "CompensationWithdrawn",
      "type": "event"
    },
    {
      "anonymous": false,
      "inputs": [
        {
          "indexed": true,
          "internalType": "address",
          "name": "newConfigManager",
          "type": "address"
        }
      ],
      "name": "ConfigManagerUpdated",
      "type": "event"
    },
    {
      "anonymous": false,
      "inputs": [
        {
          "indexed": false,
          "internalType": "uint64",
          "name": "version",
          "type": "uint64"
        }
      ],
      "name": "Initialized",
      "type": "event"
    },
    {
      "anonymous": false,
      "inputs": [
        {
          "indexed": true,
          "internalType": "address",
          "name": "previousOwner",
          "type": "address"
        },
        {
          "indexed": true,
          "internalType": "address",
          "name": "newOwner",
          "type": "address"
        }
      ],
      "name": "OwnershipTransferred",
      "type": "event"
    },
    {
      "anonymous": false,
      "inputs": [
        {
          "indexed": false,
          "internalType": "address",
          "name": "account",
          "type": "address"
        }
      ],
      "name": "Paused",
      "type": "event"
    },
    {
      "anonymous": false,
      "inputs": [
        {
          "indexed": true,
          "internalType": "address",
          "name": "newSignatureValidationService",
          "type": "address"
        }
      ],
      "name": "SignatureValidationServiceUpdated",
      "type": "event"
    },
    {
      "anonymous": false,
      "inputs": [
        {
          "indexed": true,
          "internalType": "address",
          "name": "newTransactionManager",
          "type": "address"
        }
      ],
      "name": "TransactionManagerUpdated",
      "type": "event"
    },
    {
      "anonymous": false,
      "inputs": [
        {
          "indexed": false,
          "internalType": "address",
          "name": "account",
          "type": "address"
        }
      ],
      "name": "Unpaused",
      "type": "event"
    },
    {
      "anonymous": false,
      "inputs": [
        {
          "indexed": true,
          "internalType": "address",
          "name": "newZkService",
          "type": "address"
        }
      ],
      "name": "ZkServiceUpdated",
      "type": "event"
    },
    {
      "inputs": [],
      "name": "arbitratorManager",
      "outputs": [
        {
          "internalType": "contract IArbitratorManager",
          "name": "",
          "type": "address"
        }
      ],
      "stateMutability": "view",
      "type": "function"
    },
    {
      "inputs": [
        {
          "internalType": "bytes32",
          "name": "txId",
          "type": "bytes32"
        }
      ],
      "name": "claimArbitratorFee",
      "outputs": [
        {
          "internalType": "bytes32",
          "name": "",
          "type": "bytes32"
        }
      ],
      "stateMutability": "nonpayable",
      "type": "function"
    },
    {
      "inputs": [
        {
          "internalType": "bytes32",
          "name": "evidence",
          "type": "bytes32"
        }
      ],
      "name": "claimFailedArbitrationCompensation",
      "outputs": [
        {
          "internalType": "bytes32",
          "name": "claimId",
          "type": "bytes32"
        }
      ],
      "stateMutability": "nonpayable",
      "type": "function"
    },
    {
      "inputs": [
        {
          "internalType": "address",
          "name": "arbitrator",
          "type": "address"
        },
        {
          "internalType": "bytes32",
          "name": "evidence",
          "type": "bytes32"
        }
      ],
      "name": "claimIllegalSignatureCompensation",
      "outputs": [
        {
          "internalType": "bytes32",
          "name": "claimId",
          "type": "bytes32"
        }
      ],
      "stateMutability": "nonpayable",
      "type": "function"
    },
    {
      "inputs": [
        {
          "internalType": "bytes32",
          "name": "id",
          "type": "bytes32"
        }
      ],
      "name": "claimTimeoutCompensation",
      "outputs": [
        {
          "internalType": "bytes32",
          "name": "claimId",
          "type": "bytes32"
        }
      ],
      "stateMutability": "nonpayable",
      "type": "function"
    },
    {
      "inputs": [
        {
          "internalType": "bytes32",
          "name": "",
          "type": "bytes32"
        }
      ],
      "name": "claims",
      "outputs": [
        {
          "internalType": "address",
          "name": "claimer",
          "type": "address"
        },
        {
          "internalType": "address",
          "name": "arbitrator",
          "type": "address"
        },
        {
          "internalType": "uint256",
          "name": "ethAmount",
          "type": "uint256"
        },
        {
          "internalType": "address",
          "name": "erc20Token",
          "type": "address"
        },
        {
          "internalType": "uint256",
          "name": "erc20Amount",
          "type": "uint256"
        },
        {
          "internalType": "address",
          "name": "nftContract",
          "type": "address"
        },
        {
          "internalType": "uint256",
          "name": "totalAmount",
          "type": "uint256"
        },
        {
          "internalType": "bool",
          "name": "withdrawn",
          "type": "bool"
        },
        {
          "internalType": "enum CompensationManager.CompensationType",
          "name": "claimType",
          "type": "uint8"
        },
        {
          "internalType": "address",
          "name": "receivedCompensationAddress",
          "type": "address"
        }
      ],
      "stateMutability": "view",
      "type": "function"
    },
    {
      "inputs": [],
      "name": "configManager",
      "outputs": [
        {
          "internalType": "contract IConfigManager",
          "name": "",
          "type": "address"
        }
      ],
      "stateMutability": "view",
      "type": "function"
    },
    {
      "inputs": [
        {
          "internalType": "bytes32",
          "name": "claimId",
          "type": "bytes32"
        }
      ],
      "name": "getClaimableAmount",
      "outputs": [
        {
          "internalType": "uint256",
          "name": "",
          "type": "uint256"
        }
      ],
      "stateMutability": "view",
      "type": "function"
    },
    {
      "inputs": [
        {
          "internalType": "bytes32",
          "name": "claimId",
          "type": "bytes32"
        }
      ],
      "name": "getWithdrawCompensationFee",
      "outputs": [
        {
          "internalType": "uint256",
          "name": "",
          "type": "uint256"
        }
      ],
      "stateMutability": "view",
      "type": "function"
    },
    {
      "inputs": [
        {
          "internalType": "address",
          "name": "_zkService",
          "type": "address"
        },
        {
          "internalType": "address",
          "name": "_configManager",
          "type": "address"
        },
        {
          "internalType": "address",
          "name": "_arbitratorManager",
          "type": "address"
        },
        {
          "internalType": "address",
          "name": "_signatureValidationService",
          "type": "address"
        }
      ],
      "name": "initialize",
      "outputs": [],
      "stateMutability": "nonpayable",
      "type": "function"
    },
    {
      "inputs": [],
      "name": "owner",
      "outputs": [
        {
          "internalType": "address",
          "name": "",
          "type": "address"
        }
      ],
      "stateMutability": "view",
      "type": "function"
    },
    {
      "inputs": [],
      "name": "pause",
      "outputs": [],
      "stateMutability": "nonpayable",
      "type": "function"
    },
    {
      "inputs": [],
      "name": "paused",
      "outputs": [
        {
          "internalType": "bool",
          "name": "",
          "type": "bool"
        }
      ],
      "stateMutability": "view",
      "type": "function"
    },
    {
      "inputs": [],
      "name": "renounceOwnership",
      "outputs": [],
      "stateMutability": "nonpayable",
      "type": "function"
    },
    {
      "inputs": [
        {
          "internalType": "address",
          "name": "_arbitratorManager",
          "type": "address"
        }
      ],
      "name": "setArbitratorManager",
      "outputs": [],
      "stateMutability": "nonpayable",
      "type": "function"
    },
    {
      "inputs": [
        {
          "internalType": "address",
          "name": "_configManager",
          "type": "address"
        }
      ],
      "name": "setConfigManager",
      "outputs": [],
      "stateMutability": "nonpayable",
      "type": "function"
    },
    {
      "inputs": [
        {
          "internalType": "address",
          "name": "_signatureValidationService",
          "type": "address"
        }
      ],
      "name": "setSignatureValidationService",
      "outputs": [],
      "stateMutability": "nonpayable",
      "type": "function"
    },
    {
      "inputs": [
        {
          "internalType": "address",
          "name": "_transactionManager",
          "type": "address"
        }
      ],
      "name": "setTransactionManager",
      "outputs": [],
      "stateMutability": "nonpayable",
      "type": "function"
    },
    {
      "inputs": [
        {
          "internalType": "address",
          "name": "_zkService",
          "type": "address"
        }
      ],
      "name": "setZkService",
      "outputs": [],
      "stateMutability": "nonpayable",
      "type": "function"
    },
    {
      "inputs": [],
      "name": "signatureValidationService",
      "outputs": [
        {
          "internalType": "contract ISignatureValidationService",
          "name": "",
          "type": "address"
        }
      ],
      "stateMutability": "view",
      "type": "function"
    },
    {
      "inputs": [],
      "name": "transactionManager",
      "outputs": [
        {
          "internalType": "contract ITransactionManager",
          "name": "",
          "type": "address"
        }
      ],
      "stateMutability": "view",
      "type": "function"
    },
    {
      "inputs": [
        {
          "internalType": "address",
          "name": "newOwner",
          "type": "address"
        }
      ],
      "name": "transferOwnership",
      "outputs": [],
      "stateMutability": "nonpayable",
      "type": "function"
    },
    {
      "inputs": [],
      "name": "unpause",
      "outputs": [],
      "stateMutability": "nonpayable",
      "type": "function"
    },
    {
      "inputs": [
        {
          "internalType": "bytes32",
          "name": "claimId",
          "type": "bytes32"
        }
      ],
      "name": "withdrawCompensation",
      "outputs": [],
      "stateMutability": "payable",
      "type": "function"
    },
    {
      "inputs": [],
      "name": "zkService",
      "outputs": [
        {
          "internalType": "contract IZkService",
          "name": "",
          "type": "address"
        }
      ],
      "stateMutability": "view",
      "type": "function"
    },
    {
      "stateMutability": "payable",
      "type": "receive"
    }
  ],
  "bytecode": "0x60806040523480156200001157600080fd5b506200001c62000022565b620000d6565b7ff0c57e16840df040f15088dc2f81fe391c3923bec73e23a9662efc9c229c6a00805468010000000000000000900460ff1615620000735760405163f92ee8a960e01b815260040160405180910390fd5b80546001600160401b0390811614620000d35780546001600160401b0319166001600160401b0390811782556040519081527fc7f505b2f371ae2175ee4913f4499e1f2633a7b5936321eed1cdaeb6115181d29060200160405180910390a15b50565b613f9080620000e66000396000f3fe60806040526004361061016a5760003560e01c8063759787c4116100d1578063b4e25e801161008a578063e2a0a69c11610064578063e2a0a69c14610442578063eff0f59214610462578063f2fde38b146104ff578063f8c8765e1461051f57600080fd5b8063b4e25e80146103e2578063bb64fd4414610402578063ca0ab0751461042257600080fd5b8063759787c41461031d5780638456cb591461033d5780638cc5d008146103525780638da5cb5b1461036557806399b29871146103a25780639a46c8cf146103c257600080fd5b80635a91e24f116101235780635a91e24f146102585780635b33b1df146102785780635c975abb146102985780635cd5f637146102c8578063614b5d8c146102e8578063715018a61461030857600080fd5b806301db96cf146101765780630b1fa61c146101a95780632c7e8ca3146101cb5780633b716452146101eb5780633e5d7588146102235780633f4ba83a1461024357600080fd5b3661017157005b600080fd5b34801561018257600080fd5b50610196610191366004613305565b61053f565b6040519081526020015b60405180910390f35b3480156101b557600080fd5b506101c96101c4366004613331565b610e5b565b005b3480156101d757600080fd5b506101c96101e6366004613331565b610f0e565b3480156101f757600080fd5b5060015461020b906001600160a01b031681565b6040516001600160a01b0390911681526020016101a0565b34801561022f57600080fd5b506101c961023e366004613331565b610fc0565b34801561024f57600080fd5b506101c9611066565b34801561026457600080fd5b50610196610273366004613355565b611078565b34801561028457600080fd5b50610196610293366004613355565b611129565b3480156102a457600080fd5b50600080516020613f3b8339815191525460ff1660405190151581526020016101a0565b3480156102d457600080fd5b5060005461020b906001600160a01b031681565b3480156102f457600080fd5b506101c9610303366004613331565b611988565b34801561031457600080fd5b506101c9611a43565b34801561032957600080fd5b5060035461020b906001600160a01b031681565b34801561034957600080fd5b506101c9611a55565b6101c9610360366004613355565b611a65565b34801561037157600080fd5b507f9016d09d72d40fdae2fd8ceac6b6234c7706214fd39c1cd1e609a0528c199300546001600160a01b031661020b565b3480156103ae57600080fd5b506101966103bd366004613355565b611f7e565b3480156103ce57600080fd5b506101966103dd366004613355565b6126b2565b3480156103ee57600080fd5b506101c96103fd366004613331565b612ad2565b34801561040e57600080fd5b5061019661041d366004613355565b612b7a565b34801561042e57600080fd5b5060025461020b906001600160a01b031681565b34801561044e57600080fd5b5060055461020b906001600160a01b031681565b34801561046e57600080fd5b506104e961047d366004613355565b6004602081905260009182526040909120805460018201546002830154600384015494840154600585015460078601546008909601546001600160a01b03958616979486169693959485169492939183169260ff8083169261010081049091169162010000909104168a565b6040516101a09a99989796959493929190613384565b34801561050b57600080fd5b506101c961051a366004613331565b612ba8565b34801561052b57600080fd5b506101c961053a366004613414565b612be6565b6000610549612dab565b600354604051636752bd7b60e11b81526001600160a01b038581166004830152600092169063cea57af690602401600060405180830381865afa158015610594573d6000803e3d6000fd5b505050506040513d6000823e601f3d908101601f191682016040526105bc91908101906135cc565b606081015190915060000361060457604080518082018252600281526109a760f31b6020820152905162461bcd60e51b81526105fb9190600401613686565b60405180910390fd5b6001546060820151604051630814936760e41b815260048101919091526000916001600160a01b031690638149367090602401600060405180830381865afa158015610654573d6000803e3d6000fd5b505050506040513d6000823e601f3d908101601f1916820160405261067c91908101906136cd565b90506000816080015160068111156106965761069661336e565b146106cb57604080518082018252600281526109a760f31b6020820152905162461bcd60e51b81526105fb9190600401613686565b60015460608301516040516313b86fa160e31b815260048101919091526000916001600160a01b031690639dc37d089060240160c060405180830381865afa15801561071b573d6000803e3d6000fd5b505050506040513d601f19601f8201168201806040525081019061073f919061378a565b905084868260400151600060405160200161075d9493929190613817565b60408051601f198184030181529181528151602092830120600081815260049093529120549094506001600160a01b0316156107c35760408051808201825260028152614d3960f01b6020820152905162461bcd60e51b81526105fb9190600401613686565b6040805160c08101825260008082526060602083018190528284018290528083018190526080830182905260a083015254915163ddb8ec8b60e01b81526004810188905290916001600160a01b03169063ddb8ec8b90602401600060405180830381865afa158015610839573d6000803e3d6000fd5b505050506040513d6000823e601f3d908101601f1916820160405261086191908101906139a5565b80519091501561089b576040805180820182526002815261269b60f11b6020820152905162461bcd60e51b81526105fb9190600401613686565b60208101515115806108af57506040810151155b156108e4576040805180820182526002815261493760f01b6020820152905162461bcd60e51b81526105fb9190600401613686565b806080015161091d576040805180820182526002815261299b60f11b6020820152905162461bcd60e51b81526105fb9190600401613686565b83602001515160000361095a576040805180820182526002815261493760f01b6020820152905162461bcd60e51b81526105fb9190600401613686565b836020015180519060200120816020015180519060200120146109a75760408051808201825260028152614d3760f01b6020820152905162461bcd60e51b81526105fb9190600401613686565b60015460608501516040516388727e6b60e01b815260048101919091526000916001600160a01b0316906388727e6b90602401600060405180830381865afa1580156109f7573d6000803e3d6000fd5b505050506040513d6000823e601f3d908101601f19168201604052610a1f9190810190613a7e565b9050610a2f8260a0015182612ddc565b60035460405163014f6b1960e41b81526001600160a01b038a8116600483015260009216906314f6b19090602401602060405180830381865afa158015610a7a573d6000803e3d6000fd5b505050506040513d601f19601f82011682018060405250810190610a9e9190613ab2565b905080600003610ad857604080518082018252600281526109c760f31b6020820152905162461bcd60e51b81526105fb9190600401613686565b60035460405163226f953b60e01b81526001600160a01b038b81166004830152600092169063226f953b90602401600060405180830381865afa158015610b23573d6000803e3d6000fd5b505050506040513d6000823e601f3d908101601f19168201604052610b4b9190810190613acb565b9050604051806101600160405280336001600160a01b031681526020018b6001600160a01b031681526020018260000151815260200182602001516001600160a01b031681526020018260400151815260200182606001516001600160a01b031681526020018260800151815260200183815260200160001515815260200160006003811115610bdd57610bdd61336e565b81526040808801516001600160a01b0390811660209384015260008c8152600480855290839020855181549084166001600160a01b031991821617825586860151600183018054918616918316919091179055938601516002820155606086015160038201805491851691861691909117905560808601519181019190915560a085015160058201805491909316931692909217905560c083015180519192610c8e92600685019290910190613290565b5060e082015160078201556101008083015160088301805491151560ff1983168117825561012086015193919261ff001990911661ffff199091161790836003811115610cdd57610cdd61336e565b021790555061014091909101516008909101805462010000600160b01b031916620100006001600160a01b039384160217905560035460405163133165fb60e31b81528c8316600482015291169063998b2fd890602401600060405180830381600087803b158015610d4e57600080fd5b505af1158015610d62573d6000803e3d6000fd5b505060015460608a01516040808a0151905163d09d03a360e01b81526001600160a01b03909316945063d09d03a39350610db0926004019182526001600160a01b0316602082015260400190565b600060405180830381600087803b158015610dca57600080fd5b505af1158015610dde573d6000803e3d6000fd5b50505050896001600160a01b0316336001600160a01b031689600080516020613f1b8339815191528460000151856020015186604001518760800151898d6040015160006003811115610e3357610e3361336e565b604051610e469796959493929190613c02565b60405180910390a45050505050505092915050565b610e63612f97565b6001600160a01b038116610ec45760405162461bcd60e51b815260206004820152602260248201527f496e76616c6964205472616e73616374696f6e4d616e61676572206164647265604482015261737360f01b60648201526084016105fb565b600180546001600160a01b0319166001600160a01b0383169081179091556040517f3bc3af46ee56a7b5246248b8e24bb285f23d745c278db873d49f66c027a19f2b90600090a250565b610f16612f97565b6001600160a01b038116610f765760405162461bcd60e51b815260206004820152602160248201527f496e76616c69642041726269747261746f724d616e61676572206164647265736044820152607360f81b60648201526084016105fb565b600380546001600160a01b0319166001600160a01b0383169081179091556040517f5501b7dfdd6860a14bdbc85c3ca16cf46242ad8c30ffecaaf2dbc192ef761bfc90600090a250565b610fc8612f97565b6001600160a01b03811661101e5760405162461bcd60e51b815260206004820152601960248201527f496e76616c6964205a6b5365727669636520616464726573730000000000000060448201526064016105fb565b600080546001600160a01b0319166001600160a01b038316908117825560405190917f89f8f878479acf261604346b8864312704f9de61c236e83a48afc4d87d93b19a91a250565b61106e612f97565b611076612ff2565b565b600080600260009054906101000a90046001600160a01b03166001600160a01b0316633c8865ae6040518163ffffffff1660e01b8152600401602060405180830381865afa1580156110ce573d6000803e3d6000fd5b505050506040513d601f19601f820116820180604052508101906110f29190613ab2565b6000848152600460205260408120600701549192509061271090611117908490613c6c565b6111219190613c83565b949350505050565b6000611133612dab565b600554604051632b7531e160e21b8152600481018490526000918291829182916001600160a01b039091169063add4c78490602401600060405180830381865afa158015611185573d6000803e3d6000fd5b505050506040513d6000823e601f3d908101601f191682016040526111ad9190810190613ca5565b929650909450925090508215806111c357508151155b806111cd57508051155b15611202576040805180820182526002815261269b60f11b6020820152905162461bcd60e51b81526105fb9190600401613686565b8315611238576040805180820182526002815261533760f01b6020820152905162461bcd60e51b81526105fb9190600401613686565b600154604051632800dfab60e21b8152600481018590526000916001600160a01b03169063a0037eac9060240160c060405180830381865afa158015611282573d6000803e3d6000fd5b505050506040513d601f19601f820116820180604052508101906112a6919061378a565b80519091506001600160a01b031615806112cb575060208101516001600160a01b0316155b1561130057604080518082018252600281526109a760f31b6020820152905162461bcd60e51b81526105fb9190600401613686565b868160200151826060015160026040516020016113209493929190613817565b60408051601f198184030181529181528151602092830120600081815260049093529120549096506001600160a01b0316156113865760408051808201825260028152614d3960f01b6020820152905162461bcd60e51b81526105fb9190600401613686565b60015460405163537bcc5560e01b8152600481018690526000916001600160a01b03169063537bcc5590602401600060405180830381865afa1580156113d0573d6000803e3d6000fd5b505050506040513d6000823e601f3d908101601f191682016040526113f89190810190613d22565b90508051600003611433576040805180820182526002815261533560f01b6020820152905162461bcd60e51b81526105fb9190600401613686565b8380519060200120818051906020012014611478576040805180820182526002815261299b60f11b6020820152905162461bcd60e51b81526105fb9190600401613686565b6003546020830151604051636752bd7b60e11b81526001600160a01b039182166004820152600092919091169063cea57af690602401600060405180830381865afa1580156114cb573d6000803e3d6000fd5b505050506040513d6000823e601f3d908101601f191682016040526114f391908101906135cc565b905080602001518051906020012084805190602001201461153e5760408051808201825260028152614d3760f01b6020820152905162461bcd60e51b81526105fb9190600401613686565b600354602084015160405163014f6b1960e41b81526001600160a01b03918216600482015260009291909116906314f6b19090602401602060405180830381865afa158015611591573d6000803e3d6000fd5b505050506040513d601f19601f820116820180604052508101906115b59190613ab2565b9050806000036115ef57604080518082018252600281526109c760f31b6020820152905162461bcd60e51b81526105fb9190600401613686565b600354602085015160405163226f953b60e01b81526001600160a01b039182166004820152600092919091169063226f953b90602401600060405180830381865afa158015611642573d6000803e3d6000fd5b505050506040513d6000823e601f3d908101601f1916820160405261166a9190810190613acb565b9050604051806101600160405280336001600160a01b0316815260200186602001516001600160a01b031681526020018260000151815260200182602001516001600160a01b031681526020018260400151815260200182606001516001600160a01b0316815260200182608001518152602001838152602001600015158152602001600260038111156117005761170061336e565b81526040808801516001600160a01b0390811660209384015260008e8152600480855290839020855181549084166001600160a01b031991821617825586860151600183018054918616918316919091179055938601516002820155606086015160038201805491851691861691909117905560808601519181019190915560a085015160058201805491909316931692909217905560c0830151805191926117b192600685019290910190613290565b5060e082015160078201556101008083015160088301805491151560ff1983168117825561012086015193919261ff001990911661ffff1990911617908360038111156118005761180061336e565b021790555061014091909101516008909101805462010000600160b01b031916620100006001600160a01b0393841602179055600354602087015160405163133165fb60e31b8152908316600482015291169063998b2fd890602401600060405180830381600087803b15801561187657600080fd5b505af115801561188a573d6000803e3d6000fd5b505060015460608601516040808a0151905163d09d03a360e01b81526001600160a01b03909316945063d09d03a393506118d8926004019182526001600160a01b0316602082015260400190565b600060405180830381600087803b1580156118f257600080fd5b505af1158015611906573d6000803e3d6000fd5b5050505084602001516001600160a01b0316336001600160a01b03168b600080516020613f1b8339815191528460000151856020015186604001518760800151898d604001516002600381111561195f5761195f61336e565b6040516119729796959493929190613c02565b60405180910390a4505050505050505050919050565b611990612f97565b6001600160a01b0381166119f95760405162461bcd60e51b815260206004820152602a60248201527f496e76616c6964205369676e617475726556616c69646174696f6e53657276696044820152696365206164647265737360b01b60648201526084016105fb565b600580546001600160a01b0319166001600160a01b0383169081179091556040517f477f891f776a7f2e5d05a03ba599cad3b3715530049fc949bf6dc5d7e825c77790600090a250565b611a4b612f97565b6110766000613052565b611a5d612f97565b6110766130c3565b611a6d612dab565b6000818152600460205260409020600881015460ff1615611ab8576040805180820182526002815261134d60f21b6020820152905162461bcd60e51b81526105fb9190600401613686565b6002810154158015611acc57506004810154155b8015611ada57506006810154155b15611b0f5760408051808201825260028152614d3560f01b6020820152905162461bcd60e51b81526105fb9190600401613686565b60088101546201000090046001600160a01b0316611b5757604080518082018252600281526105a360f41b6020820152905162461bcd60e51b81526105fb9190600401613686565b604051635a91e24f60e01b8152600481018390526000903090635a91e24f90602401602060405180830381865afa158015611b96573d6000803e3d6000fd5b505050506040513d601f19601f82011682018060405250810190611bba9190613ab2565b905080341015611bf4576040805180820182526002815261543560f01b6020820152905162461bcd60e51b81526105fb9190600401613686565b60088201805460ff19166001179055600282015415611caf57600882015460028301546040516000926201000090046001600160a01b031691908381818185875af1925050503d8060008114611c66576040519150601f19603f3d011682016040523d82523d6000602084013e611c6b565b606091505b5050905080611cad5760405162461bcd60e51b815260206004820152600e60248201526d151c985b9cd9995c91985a5b195960921b60448201526064016105fb565b505b600482015415611ce857600882015460048301546003840154611ce8926001600160a01b0391821692620100009091049091169061310c565b60005b6006830154811015611dbc57600583015460088401546006850180546001600160a01b03938416936323b872dd933093620100009091049091169186908110611d3657611d36613d56565b6000918252602090912001546040516001600160e01b031960e086901b1681526001600160a01b0393841660048201529290911660248301526044820152606401600060405180830381600087803b158015611d9157600080fd5b505af1158015611da5573d6000803e3d6000fd5b505050508080611db490613d6c565b915050611ceb565b506002546040805163045b2b8560e51b815290516000926001600160a01b031691638b6570a09160048083019260209291908290030181865afa158015611e07573d6000803e3d6000fd5b505050506040513d601f19601f82011682018060405250810190611e2b9190613d85565b6040519091506001600160a01b0382169083156108fc029084906000818181858888f19350505050158015611e64573d6000803e3d6000fd5b50600082341115611f0757611e798334613da2565b604051909150600090339083908381818185875af1925050503d8060008114611ebe576040519150601f19603f3d011682016040523d82523d6000602084013e611ec3565b606091505b5050905080611f055760405162461bcd60e51b815260206004820152600e60248201526d151c985b9cd9995c91985a5b195960921b60448201526064016105fb565b505b60088401546002850154600386015460048701546040516001600160a01b036201000090950485169433948b947fff18c2c534fc0027604499c8ed048035b1dd973da49323a48bb919e1914189ff94611f6f949293919091169160068d01908c908b90613db5565b60405180910390a45050505050565b6000611f88612dab565b6001546040516313b86fa160e31b8152600481018490526000916001600160a01b031690639dc37d089060240160c060405180830381865afa158015611fd2573d6000803e3d6000fd5b505050506040513d601f19601f82011682018060405250810190611ff6919061378a565b602080820151606083015160405193945061201693879360019101613817565b60408051601f198184030181529181528151602092830120600081815260049093529120549092506001600160a01b03161561207c5760408051808201825260028152614d3960f01b6020820152905162461bcd60e51b81526105fb9190600401613686565b600154604051630814936760e41b8152600481018590526000916001600160a01b031690638149367090602401600060405180830381865afa1580156120c6573d6000803e3d6000fd5b505050506040513d6000823e601f3d908101601f191682016040526120ee91908101906136cd565b90506002816080015160068111156121085761210861336e565b1461213d576040805180820182526002815261269960f11b6020820152905162461bcd60e51b81526105fb9190600401613686565b60025460408051632b6f600d60e01b815290516000926001600160a01b031691632b6f600d9160048083019260209291908290030181865afa158015612187573d6000803e3d6000fd5b505050506040513d601f19601f820116820180604052508101906121ab9190613ab2565b9050428183604001516121be9190613e28565b11156121f45760408051808201825260028152614d3360f01b6020820152905162461bcd60e51b81526105fb9190600401613686565b600354602084015160405163014f6b1960e41b81526001600160a01b03918216600482015260009291909116906314f6b19090602401602060405180830381865afa158015612247573d6000803e3d6000fd5b505050506040513d601f19601f8201168201806040525081019061226b9190613ab2565b9050806000036122a557604080518082018252600281526109c760f31b6020820152905162461bcd60e51b81526105fb9190600401613686565b6003546020850151604051636752bd7b60e11b81526001600160a01b039182166004820152600092919091169063cea57af690602401600060405180830381865afa1580156122f8573d6000803e3d6000fd5b505050506040513d6000823e601f3d908101601f1916820160405261232091908101906135cc565b600354602087015160405163226f953b60e01b81526001600160a01b03918216600482015292935060009291169063226f953b90602401600060405180830381865afa158015612374573d6000803e3d6000fd5b505050506040513d6000823e601f3d908101601f1916820160405261239c9190810190613acb565b9050604051806101600160405280336001600160a01b0316815260200187602001516001600160a01b031681526020018260000151815260200182602001516001600160a01b031681526020018260400151815260200182606001516001600160a01b0316815260200182608001518152602001848152602001600015158152602001600160038111156124325761243261336e565b81526060808901516001600160a01b0390811660209384015260008b81526004808552604091829020865181549085166001600160a01b0319918216178255878701516001830180549187169183169190911790559287015160028201559386015160038501805491851691841691909117905560808601519084015560a085015160058401805491909316911617905560c0830151805191926124de92600685019290910190613290565b5060e082015160078201556101008083015160088301805491151560ff1983168117825561012086015193919261ff001990911661ffff19909116179083600381111561252d5761252d61336e565b021790555061014091909101516008909101805462010000600160b01b031916620100006001600160a01b0393841602179055600354602088015160405163133165fb60e31b8152908316600482015291169063998b2fd890602401600060405180830381600087803b1580156125a357600080fd5b505af11580156125b7573d6000803e3d6000fd5b5050600154606080860151908a015160405163d09d03a360e01b81526001600160a01b03909316945063d09d03a39350612605926004019182526001600160a01b0316602082015260400190565b600060405180830381600087803b15801561261f57600080fd5b505af1158015612633573d6000803e3d6000fd5b5050505085602001516001600160a01b0316336001600160a01b031688600080516020613f1b83398151915284600001518560200151866040015187608001518a8e606001516001600381111561268c5761268c61336e565b60405161269f9796959493929190613c02565b60405180910390a4505050505050919050565b6001546040516313b86fa160e31b81526004810183905260009182916001600160a01b0390911690639dc37d089060240160c060405180830381865afa158015612700573d6000803e3d6000fd5b505050506040513d601f19601f82011682018060405250810190612724919061378a565b60208101519091506001600160a01b0316331461276b5760408051808201825260028152614d3160f01b6020820152905162461bcd60e51b81526105fb9190600401613686565b600154604051637577b6df60e01b8152600481018590526000916001600160a01b031690637577b6df9060240160408051808303816000875af11580156127b6573d6000803e3d6000fd5b505050506040513d601f19601f820116820180604052508101906127da9190613e3b565b506003546020840151604051630fef2a6f60e41b81526001600160a01b03918216600482015292935060009291169063fef2a6f090602401600060405180830381865afa15801561282f573d6000803e3d6000fd5b505050506040513d6000823e601f3d908101601f191682016040526128579190810190613e5f565b905060008584602001518360800151600360405160200161287b9493929190613817565b60408051601f198184030181529181528151602092830120600081815260049093529120549091506001600160a01b0316156128e15760408051808201825260028152614d3960f01b6020820152905162461bcd60e51b81526105fb9190600401613686565b60408051610160810182523381526020868101516001600160a01b03908116828401908152838501888152600060608601818152608080880183815260a089018481528a51858152808a018c5260c08b0190815260e08b018f905260016101008c0181905260036101208d01819052948f01518a166101408d01528d87526004808c529c9096208b5181546001600160a01b0319908116918c16919091178255985196810180548a16978b169790971790965595516002860155925191840180548716928816929092179091555197820197909755955160058701805490931693169290921790555180519293926129df9260068501920190613290565b5060e082015160078201556101008083015160088301805491151560ff1983168117825561012086015193919261ff001990911661ffff199091161790836003811115612a2e57612a2e61336e565b021790555061014091909101516008909101805462010000600160b01b031916620100006001600160a01b03938416021790556020850151163382600080516020613f1b8339815191528660008080604051908082528060200260200182016040528015612aa6578160200160208202803683370190505b5060808a0151604051612ac195949392918d91600390613c02565b60405180910390a495945050505050565b612ada612f97565b6001600160a01b038116612b305760405162461bcd60e51b815260206004820152601d60248201527f496e76616c696420436f6e6669674d616e61676572206164647265737300000060448201526064016105fb565b600280546001600160a01b0319166001600160a01b0383169081179091556040517f6a801685c5950e3d8ece256f75ca0ff31ed0ae02aeae73f8180ff32e978a2f6b90600090a250565b6000818152600460205260408120600881015460ff1615612b9e5750600092915050565b6007015492915050565b612bb0612f97565b6001600160a01b038116612bda57604051631e4fbdf760e01b8152600060048201526024016105fb565b612be381613052565b50565b6000612bf061315e565b805490915060ff600160401b82041615906001600160401b0316600081158015612c175750825b90506000826001600160401b03166001148015612c335750303b155b905081158015612c41575080155b15612c5f5760405163f92ee8a960e01b815260040160405180910390fd5b845467ffffffffffffffff191660011785558315612c8957845460ff60401b1916600160401b1785555b612c9233613189565b612c9a61319a565b6001600160a01b0389161580612cb757506001600160a01b038816155b80612cc957506001600160a01b038716155b80612cdb57506001600160a01b038616155b15612d1057604080518082018252600281526105a360f41b6020820152905162461bcd60e51b81526105fb9190600401613686565b600080546001600160a01b03808c166001600160a01b031992831617909255600280548b8416908316179055600380548a841690831617905560058054928916929091169190911790558315612da057845460ff60401b19168555604051600181527fc7f505b2f371ae2175ee4913f4499e1f2633a7b5936321eed1cdaeb6115181d29060200160405180910390a15b505050505050505050565b600080516020613f3b8339815191525460ff16156110765760405163d93c066560e01b815260040160405180910390fd5b8051825114612e15576040805180820182526002815261055360f41b6020820152905162461bcd60e51b81526105fb9190600401613686565b60005b8251811015612f9257818181518110612e3357612e33613d56565b602002602001015160000151838281518110612e5157612e51613d56565b60200260200101516000015114612e92576040805180820182526002815261055360f41b6020820152905162461bcd60e51b81526105fb9190600401613686565b818181518110612ea457612ea4613d56565b60200260200101516020015163ffffffff16838281518110612ec857612ec8613d56565b60200260200101516020015163ffffffff1614612f0f576040805180820182526002815261055360f41b6020820152905162461bcd60e51b81526105fb9190600401613686565b818181518110612f2157612f21613d56565b602002602001015160600151838281518110612f3f57612f3f613d56565b60200260200101516060015114612f80576040805180820182526002815261055360f41b6020820152905162461bcd60e51b81526105fb9190600401613686565b80612f8a81613d6c565b915050612e18565b505050565b33612fc97f9016d09d72d40fdae2fd8ceac6b6234c7706214fd39c1cd1e609a0528c199300546001600160a01b031690565b6001600160a01b0316146110765760405163118cdaa760e01b81523360048201526024016105fb565b612ffa6131a2565b600080516020613f3b833981519152805460ff191681557f5db9ee0a495bf2e6ff9c91a7834c1ba4fdd244a5e8aa4e537bd38aeae4b073aa335b6040516001600160a01b03909116815260200160405180910390a150565b7f9016d09d72d40fdae2fd8ceac6b6234c7706214fd39c1cd1e609a0528c19930080546001600160a01b031981166001600160a01b03848116918217845560405192169182907f8be0079c531659141344cd1fd0a4f28419497f9722a3daafe3b4186f6b6457e090600090a3505050565b6130cb612dab565b600080516020613f3b833981519152805460ff191660011781557f62e78cea01bee320cd4e420270b5ea74000d11b0c9f74754ebdbfc544b05a25833613034565b604080516001600160a01b038416602482015260448082018490528251808303909101815260649091019091526020810180516001600160e01b031663a9059cbb60e01b179052612f929084906131d2565b6000807ff0c57e16840df040f15088dc2f81fe391c3923bec73e23a9662efc9c229c6a005b92915050565b613191613249565b612be38161326e565b611076613249565b600080516020613f3b8339815191525460ff1661107657604051638dfc202b60e01b815260040160405180910390fd5b600080602060008451602086016000885af1806131f5576040513d6000823e3d81fd5b50506000513d9150811561320d57806001141561321a565b6001600160a01b0384163b155b1561324357604051635274afe760e01b81526001600160a01b03851660048201526024016105fb565b50505050565b613251613276565b61107657604051631afcd79f60e31b815260040160405180910390fd5b612bb0613249565b600061328061315e565b54600160401b900460ff16919050565b8280548282559060005260206000209081019282156132cb579160200282015b828111156132cb5782518255916020019190600101906132b0565b506132d79291506132db565b5090565b5b808211156132d757600081556001016132dc565b6001600160a01b0381168114612be357600080fd5b6000806040838503121561331857600080fd5b8235613323816132f0565b946020939093013593505050565b60006020828403121561334357600080fd5b813561334e816132f0565b9392505050565b60006020828403121561336757600080fd5b5035919050565b634e487b7160e01b600052602160045260246000fd5b6001600160a01b038b811682528a81166020830152604082018a9052888116606083015260808201889052861660a082015260c0810185905283151560e08201526101408101600484106133e857634e487b7160e01b600052602160045260246000fd5b836101008301526134056101208301846001600160a01b03169052565b9b9a5050505050505050505050565b6000806000806080858703121561342a57600080fd5b8435613435816132f0565b93506020850135613445816132f0565b92506040850135613455816132f0565b91506060850135613465816132f0565b939692955090935050565b634e487b7160e01b600052604160045260246000fd5b60405160a081016001600160401b03811182821017156134a8576134a8613470565b60405290565b60405161010081016001600160401b03811182821017156134a8576134a8613470565b60405160c081016001600160401b03811182821017156134a8576134a8613470565b604051608081016001600160401b03811182821017156134a8576134a8613470565b604051601f8201601f191681016001600160401b038111828210171561353d5761353d613470565b604052919050565b60005b83811015613560578181015183820152602001613548565b50506000910152565b600082601f83011261357a57600080fd5b81516001600160401b0381111561359357613593613470565b6135a6601f8201601f1916602001613515565b8181528460208386010111156135bb57600080fd5b611121826020830160208701613545565b6000602082840312156135de57600080fd5b81516001600160401b03808211156135f557600080fd5b9083019060a0828603121561360957600080fd5b613611613486565b825161361c816132f0565b815260208301518281111561363057600080fd5b61363c87828601613569565b60208301525060408301518281111561365457600080fd5b61366087828601613569565b604083015250606083015160608201526080830151608082015280935050505092915050565b60208152600082518060208401526136a5816040850160208701613545565b601f01601f19169190910160400192915050565b8051600781106136c857600080fd5b919050565b6000602082840312156136df57600080fd5b81516001600160401b03808211156136f657600080fd5b90830190610100828603121561370b57600080fd5b6137136134ae565b82518152602083015160208201526040830151604082015260608301516060820152613741608084016136b9565b608082015260a083015160a082015260c08301518281111561376257600080fd5b61376e87828601613569565b60c08301525060e083015160e082015280935050505092915050565b600060c0828403121561379c57600080fd5b6137a46134d1565b82516137af816132f0565b815260208301516137bf816132f0565b602082015260408301516137d2816132f0565b604082015260608301516137e5816132f0565b606082015260808301516137f8816132f0565b608082015260a083015161380b816132f0565b60a08201529392505050565b84815260006bffffffffffffffffffffffff19808660601b166020840152808560601b166034840152506004831061385f57634e487b7160e01b600052602160045260246000fd5b5060f89190911b60488201526049019392505050565b805180151581146136c857600080fd5b60006001600160401b0382111561389e5761389e613470565b5060051b60200190565b600082601f8301126138b957600080fd5b815160206138ce6138c983613885565b613515565b82815260059290921b840181019181810190868411156138ed57600080fd5b8286015b8481101561399a5780516001600160401b03808211156139115760008081fd5b908801906080828b03601f190181131561392b5760008081fd5b6139336134f3565b87840151815260408085015163ffffffff811681146139525760008081fd5b828a01526060858101518581111561396a5760008081fd5b6139788f8c838a0101613569565b92840192909252949092015193810193909352505083529183019183016138f1565b509695505050505050565b6000602082840312156139b757600080fd5b81516001600160401b03808211156139ce57600080fd5b9083019060c082860312156139e257600080fd5b6139ea6134d1565b82518152602083015182811115613a0057600080fd5b613a0c87828601613569565b60208301525060408301516040820152606083015182811115613a2e57600080fd5b613a3a87828601613569565b606083015250613a4c60808401613875565b608082015260a083015182811115613a6357600080fd5b613a6f878286016138a8565b60a08301525095945050505050565b600060208284031215613a9057600080fd5b81516001600160401b03811115613aa657600080fd5b611121848285016138a8565b600060208284031215613ac457600080fd5b5051919050565b60006020808385031215613ade57600080fd5b82516001600160401b0380821115613af557600080fd5b9084019060a08287031215613b0957600080fd5b613b11613486565b8251815283830151613b22816132f0565b81850152604083810151908201526060830151613b3e816132f0565b6060820152608083015182811115613b5557600080fd5b80840193505086601f840112613b6a57600080fd5b82519150613b7a6138c983613885565b82815260059290921b83018401918481019088841115613b9957600080fd5b938501935b83851015613bb757845182529385019390850190613b9e565b6080830152509695505050505050565b600081518084526020808501945080840160005b83811015613bf757815187529582019590820190600101613bdb565b509495945050505050565b878152600060018060a01b03808916602084015287604084015260e06060840152613c3060e0840188613bc7565b915085608084015280851660a08401525060ff831660c083015298975050505050505050565b634e487b7160e01b600052601160045260246000fd5b808202811582820484141761318357613183613c56565b600082613ca057634e487b7160e01b600052601260045260246000fd5b500490565b60008060008060808587031215613cbb57600080fd5b613cc485613875565b93506020850151925060408501516001600160401b0380821115613ce757600080fd5b613cf388838901613569565b93506060870151915080821115613d0957600080fd5b50613d1687828801613569565b91505092959194509250565b600060208284031215613d3457600080fd5b81516001600160401b03811115613d4a57600080fd5b61112184828501613569565b634e487b7160e01b600052603260045260246000fd5b600060018201613d7e57613d7e613c56565b5060010190565b600060208284031215613d9757600080fd5b815161334e816132f0565b8181038181111561318357613183613c56565b600060c08201888352602060018060a01b0389168185015287604085015260c0606085015281875480845260e0860191508860005282600020935060005b81811015613e0f57845483526001948501949284019201613df3565b5050608085019690965250505060a00152949350505050565b8082018082111561318357613183613c56565b60008060408385031215613e4e57600080fd5b505080516020909101519092909150565b600060208284031215613e7157600080fd5b81516001600160401b0380821115613e8857600080fd5b9083019060a08286031215613e9c57600080fd5b613ea4613486565b8251815260208301516020820152604083015182811115613ec457600080fd5b613ed087828601613569565b604083015250606083015182811115613ee857600080fd5b613ef487828601613569565b60608301525060808301519250613f0a836132f0565b608081019290925250939250505056fe1771c2bb4600c250bb06edea826038c70da31d63c7856531664f3e97b8d93d59cd5ed15c6e187e77e9aee88184c21f4f2182ab5827cb3b7e07fbedcd63f03300a2646970667358221220cbd0aeda9034b5e53ff5e1144500d7b83c9e01ff3b35a130031e4879122f69a964736f6c63430008140033",
  "linkReferences": {},
  "deployedLinkReferences": {}
}