{
  "_format": "hh-sol-artifact-1",
  "contractName": "CompensationManager",
  "sourceName": "contracts/core/CompensationManager.sol",
  "abi": [
    {
      "inputs": [],
      "stateMutability": "nonpayable",
      "type": "constructor"
    },
    {
      "inputs": [],
      "name": "InvalidInitialization",
      "type": "error"
    },
    {
      "inputs": [],
      "name": "NotInitializing",
      "type": "error"
    },
    {
      "inputs": [
        {
          "internalType": "address",
          "name": "owner",
          "type": "address"
        }
      ],
      "name": "OwnableInvalidOwner",
      "type": "error"
    },
    {
      "inputs": [
        {
          "internalType": "address",
          "name": "account",
          "type": "address"
        }
      ],
      "name": "OwnableUnauthorizedAccount",
      "type": "error"
    },
    {
      "anonymous": false,
      "inputs": [
        {
          "indexed": true,
          "internalType": "address",
          "name": "newArbitratorManager",
          "type": "address"
        }
      ],
      "name": "ArbitratorManagerUpdated",
      "type": "event"
    },
    {
      "anonymous": false,
      "inputs": [
        {
          "indexed": true,
          "internalType": "bytes32",
          "name": "claimId",
          "type": "bytes32"
        },
        {
          "indexed": true,
          "internalType": "address",
          "name": "claimer",
          "type": "address"
        },
        {
          "indexed": true,
          "internalType": "address",
          "name": "arbitrator",
          "type": "address"
        },
        {
          "indexed": false,
          "internalType": "uint256",
          "name": "ethAmount",
          "type": "uint256"
        },
        {
          "indexed": false,
          "internalType": "uint256[]",
          "name": "nftTokenIds",
          "type": "uint256[]"
        },
        {
          "indexed": false,
          "internalType": "uint256",
          "name": "totalAmount",
          "type": "uint256"
        },
        {
          "indexed": false,
          "internalType": "address",
          "name": "receivedCompensationAddress",
          "type": "address"
        },
        {
          "indexed": false,
          "internalType": "uint8",
          "name": "claimType",
          "type": "uint8"
        }
      ],
      "name": "CompensationClaimed",
      "type": "event"
    },
    {
      "anonymous": false,
      "inputs": [
        {
          "indexed": true,
          "internalType": "bytes32",
          "name": "claimId",
          "type": "bytes32"
        },
        {
          "indexed": true,
          "internalType": "address",
          "name": "claimer",
          "type": "address"
        },
        {
          "indexed": true,
          "internalType": "address",
          "name": "receivedCompensationAddress",
          "type": "address"
        },
        {
          "indexed": false,
          "internalType": "uint256",
          "name": "ethAmount",
          "type": "uint256"
        },
        {
          "indexed": false,
          "internalType": "uint256[]",
          "name": "nftTokenIds",
          "type": "uint256[]"
        },
        {
          "indexed": false,
          "internalType": "uint256",
          "name": "systemFee",
          "type": "uint256"
        },
        {
          "indexed": false,
          "internalType": "uint256",
          "name": "excessPaymenttoClaimer",
          "type": "uint256"
        }
      ],
      "name": "CompensationWithdrawn",
      "type": "event"
    },
    {
      "anonymous": false,
      "inputs": [
        {
          "indexed": true,
          "internalType": "address",
          "name": "newConfigManager",
          "type": "address"
        }
      ],
      "name": "ConfigManagerUpdated",
      "type": "event"
    },
    {
      "anonymous": false,
      "inputs": [
        {
          "indexed": false,
          "internalType": "uint64",
          "name": "version",
          "type": "uint64"
        }
      ],
      "name": "Initialized",
      "type": "event"
    },
    {
      "anonymous": false,
      "inputs": [
        {
          "indexed": true,
          "internalType": "address",
          "name": "previousOwner",
          "type": "address"
        },
        {
          "indexed": true,
          "internalType": "address",
          "name": "newOwner",
          "type": "address"
        }
      ],
      "name": "OwnershipTransferred",
      "type": "event"
    },
    {
      "anonymous": false,
      "inputs": [
        {
          "indexed": true,
          "internalType": "address",
          "name": "newSignatureValidationService",
          "type": "address"
        }
      ],
      "name": "SignatureValidationServiceUpdated",
      "type": "event"
    },
    {
      "anonymous": false,
      "inputs": [
        {
          "indexed": true,
          "internalType": "address",
          "name": "newTransactionManager",
          "type": "address"
        }
      ],
      "name": "TransactionManagerUpdated",
      "type": "event"
    },
    {
      "anonymous": false,
      "inputs": [
        {
          "indexed": true,
          "internalType": "address",
          "name": "newZkService",
          "type": "address"
        }
      ],
      "name": "ZkServiceUpdated",
      "type": "event"
    },
    {
      "inputs": [],
      "name": "arbitratorManager",
      "outputs": [
        {
          "internalType": "contract IArbitratorManager",
          "name": "",
          "type": "address"
        }
      ],
      "stateMutability": "view",
      "type": "function"
    },
    {
      "inputs": [
        {
          "internalType": "bytes32",
          "name": "txId",
          "type": "bytes32"
        }
      ],
      "name": "claimArbitratorFee",
      "outputs": [
        {
          "internalType": "bytes32",
          "name": "",
          "type": "bytes32"
        }
      ],
      "stateMutability": "nonpayable",
      "type": "function"
    },
    {
      "inputs": [
        {
          "internalType": "bytes32",
          "name": "evidence",
          "type": "bytes32"
        }
      ],
      "name": "claimFailedArbitrationCompensation",
      "outputs": [
        {
          "internalType": "bytes32",
          "name": "claimId",
          "type": "bytes32"
        }
      ],
      "stateMutability": "nonpayable",
      "type": "function"
    },
    {
      "inputs": [
        {
          "internalType": "address",
          "name": "arbitrator",
          "type": "address"
        },
        {
          "internalType": "bytes32",
          "name": "evidence",
          "type": "bytes32"
        }
      ],
      "name": "claimIllegalSignatureCompensation",
      "outputs": [
        {
          "internalType": "bytes32",
          "name": "claimId",
          "type": "bytes32"
        }
      ],
      "stateMutability": "nonpayable",
      "type": "function"
    },
    {
      "inputs": [
        {
          "internalType": "bytes32",
          "name": "id",
          "type": "bytes32"
        }
      ],
      "name": "claimTimeoutCompensation",
      "outputs": [
        {
          "internalType": "bytes32",
          "name": "claimId",
          "type": "bytes32"
        }
      ],
      "stateMutability": "nonpayable",
      "type": "function"
    },
    {
      "inputs": [
        {
          "internalType": "bytes32",
          "name": "",
          "type": "bytes32"
        }
      ],
      "name": "claims",
      "outputs": [
        {
          "internalType": "address",
          "name": "claimer",
          "type": "address"
        },
        {
          "internalType": "address",
          "name": "arbitrator",
          "type": "address"
        },
        {
          "internalType": "uint256",
          "name": "ethAmount",
          "type": "uint256"
        },
        {
          "internalType": "address",
          "name": "nftContract",
          "type": "address"
        },
        {
          "internalType": "uint256",
          "name": "totalAmount",
          "type": "uint256"
        },
        {
          "internalType": "bool",
          "name": "withdrawn",
          "type": "bool"
        },
        {
          "internalType": "enum CompensationManager.CompensationType",
          "name": "claimType",
          "type": "uint8"
        },
        {
          "internalType": "address",
          "name": "receivedCompensationAddress",
          "type": "address"
        }
      ],
      "stateMutability": "view",
      "type": "function"
    },
    {
      "inputs": [],
      "name": "configManager",
      "outputs": [
        {
          "internalType": "contract IConfigManager",
          "name": "",
          "type": "address"
        }
      ],
      "stateMutability": "view",
      "type": "function"
    },
    {
      "inputs": [
        {
          "internalType": "bytes32",
          "name": "claimId",
          "type": "bytes32"
        }
      ],
      "name": "getClaimableAmount",
      "outputs": [
        {
          "internalType": "uint256",
          "name": "",
          "type": "uint256"
        }
      ],
      "stateMutability": "view",
      "type": "function"
    },
    {
      "inputs": [
        {
          "internalType": "bytes32",
          "name": "claimId",
          "type": "bytes32"
        }
      ],
      "name": "getWithdrawCompensationFee",
      "outputs": [
        {
          "internalType": "uint256",
          "name": "",
          "type": "uint256"
        }
      ],
      "stateMutability": "view",
      "type": "function"
    },
    {
      "inputs": [
        {
          "internalType": "address",
          "name": "_zkService",
          "type": "address"
        },
        {
          "internalType": "address",
          "name": "_configManager",
          "type": "address"
        },
        {
          "internalType": "address",
          "name": "_arbitratorManager",
          "type": "address"
        },
        {
          "internalType": "address",
          "name": "_signatureValidationService",
          "type": "address"
        }
      ],
      "name": "initialize",
      "outputs": [],
      "stateMutability": "nonpayable",
      "type": "function"
    },
    {
      "inputs": [],
      "name": "owner",
      "outputs": [
        {
          "internalType": "address",
          "name": "",
          "type": "address"
        }
      ],
      "stateMutability": "view",
      "type": "function"
    },
    {
      "inputs": [],
      "name": "renounceOwnership",
      "outputs": [],
      "stateMutability": "nonpayable",
      "type": "function"
    },
    {
      "inputs": [
        {
          "internalType": "address",
          "name": "_arbitratorManager",
          "type": "address"
        }
      ],
      "name": "setArbitratorManager",
      "outputs": [],
      "stateMutability": "nonpayable",
      "type": "function"
    },
    {
      "inputs": [
        {
          "internalType": "address",
          "name": "_configManager",
          "type": "address"
        }
      ],
      "name": "setConfigManager",
      "outputs": [],
      "stateMutability": "nonpayable",
      "type": "function"
    },
    {
      "inputs": [
        {
          "internalType": "address",
          "name": "_signatureValidationService",
          "type": "address"
        }
      ],
      "name": "setSignatureValidationService",
      "outputs": [],
      "stateMutability": "nonpayable",
      "type": "function"
    },
    {
      "inputs": [
        {
          "internalType": "address",
          "name": "_transactionManager",
          "type": "address"
        }
      ],
      "name": "setTransactionManager",
      "outputs": [],
      "stateMutability": "nonpayable",
      "type": "function"
    },
    {
      "inputs": [
        {
          "internalType": "address",
          "name": "_zkService",
          "type": "address"
        }
      ],
      "name": "setZkService",
      "outputs": [],
      "stateMutability": "nonpayable",
      "type": "function"
    },
    {
      "inputs": [],
      "name": "signatureValidationService",
      "outputs": [
        {
          "internalType": "contract ISignatureValidationService",
          "name": "",
          "type": "address"
        }
      ],
      "stateMutability": "view",
      "type": "function"
    },
    {
      "inputs": [],
      "name": "transactionManager",
      "outputs": [
        {
          "internalType": "contract ITransactionManager",
          "name": "",
          "type": "address"
        }
      ],
      "stateMutability": "view",
      "type": "function"
    },
    {
      "inputs": [
        {
          "internalType": "address",
          "name": "newOwner",
          "type": "address"
        }
      ],
      "name": "transferOwnership",
      "outputs": [],
      "stateMutability": "nonpayable",
      "type": "function"
    },
    {
      "inputs": [
        {
          "internalType": "bytes32",
          "name": "claimId",
          "type": "bytes32"
        }
      ],
      "name": "withdrawCompensation",
      "outputs": [],
      "stateMutability": "payable",
      "type": "function"
    },
    {
      "inputs": [],
      "name": "zkService",
      "outputs": [
        {
          "internalType": "contract IZkService",
          "name": "",
          "type": "address"
        }
      ],
      "stateMutability": "view",
      "type": "function"
    },
    {
      "stateMutability": "payable",
      "type": "receive"
    }
  ],
  "bytecode": "0x60806040523480156200001157600080fd5b506200001c62000022565b620000d6565b7ff0c57e16840df040f15088dc2f81fe391c3923bec73e23a9662efc9c229c6a00805468010000000000000000900460ff1615620000735760405163f92ee8a960e01b815260040160405180910390fd5b80546001600160401b0390811614620000d35780546001600160401b0319166001600160401b0390811782556040519081527fc7f505b2f371ae2175ee4913f4499e1f2633a7b5936321eed1cdaeb6115181d29060200160405180910390a15b50565b61387a80620000e66000396000f3fe6080604052600436106101395760003560e01c80638cc5d008116100ab578063bb64fd441161006f578063bb64fd4414610377578063ca0ab07514610397578063e2a0a69c146103b7578063eff0f592146103d7578063f2fde38b14610460578063f8c8765e1461048057600080fd5b80638cc5d008146102c75780638da5cb5b146102da57806399b29871146103175780639a46c8cf14610337578063b4e25e801461035757600080fd5b80635a91e24f116100fd5780635a91e24f146102125780635b33b1df146102325780635cd5f63714610252578063614b5d8c14610272578063715018a614610292578063759787c4146102a757600080fd5b806301db96cf146101455780630b1fa61c146101785780632c7e8ca31461019a5780633b716452146101ba5780633e5d7588146101f257600080fd5b3661014057005b600080fd5b34801561015157600080fd5b50610165610160366004612d2d565b6104a0565b6040519081526020015b60405180910390f35b34801561018457600080fd5b50610198610193366004612d59565b610cd6565b005b3480156101a657600080fd5b506101986101b5366004612d59565b610d89565b3480156101c657600080fd5b506001546101da906001600160a01b031681565b6040516001600160a01b03909116815260200161016f565b3480156101fe57600080fd5b5061019861020d366004612d59565b610e3b565b34801561021e57600080fd5b5061016561022d366004612d7d565b610ee1565b34801561023e57600080fd5b5061016561024d366004612d7d565b610f87565b34801561025e57600080fd5b506000546101da906001600160a01b031681565b34801561027e57600080fd5b5061019861028d366004612d59565b61170f565b34801561029e57600080fd5b506101986117ca565b3480156102b357600080fd5b506003546101da906001600160a01b031681565b6101986102d5366004612d7d565b6117de565b3480156102e657600080fd5b507f9016d09d72d40fdae2fd8ceac6b6234c7706214fd39c1cd1e609a0528c199300546001600160a01b03166101da565b34801561032357600080fd5b50610165610332366004612d7d565b611c96565b34801561034357600080fd5b50610165610352366004612d7d565b6122f8565b34801561036357600080fd5b50610198610372366004612d59565b6126ea565b34801561038357600080fd5b50610165610392366004612d7d565b612792565b3480156103a357600080fd5b506002546101da906001600160a01b031681565b3480156103c357600080fd5b506005546101da906001600160a01b031681565b3480156103e357600080fd5b5061044c6103f2366004612d7d565b6004602052600090815260409020805460018201546002830154600384015460058501546006909501546001600160a01b03948516959385169492939183169260ff80831692610100810490911691620100009091041688565b60405161016f989796959493929190612dac565b34801561046c57600080fd5b5061019861047b366004612d59565b6127c0565b34801561048c57600080fd5b5061019861049b366004612e1f565b6127fe565b6003546040516326415b0f60e21b81526001600160a01b03848116600483015260009283929116906399056c3c90602401600060405180830381865afa1580156104ee573d6000803e3d6000fd5b505050506040513d6000823e601f3d908101601f19168201604052610516919081019061306b565b606081015190915060000361055e57604080518082018252600281526109a760f31b6020820152905162461bcd60e51b81526105559190600401613213565b60405180910390fd5b6001546060820151604051630814936760e41b815260048101919091526000916001600160a01b03169063814936709060240160a060405180830381865afa1580156105ae573d6000803e3d6000fd5b505050506040513d601f19601f820116820180604052508101906105d29190613246565b90506000816080015160058111156105ec576105ec612d96565b1461062157604080518082018252600281526109a760f31b6020820152905162461bcd60e51b81526105559190600401613213565b60015460608301516040516313b86fa160e31b815260048101919091526000916001600160a01b031690639dc37d089060240160c060405180830381865afa158015610671573d6000803e3d6000fd5b505050506040513d601f19601f8201168201806040525081019061069591906132bf565b90508486826040015160006040516020016106b3949392919061334c565b60408051601f198184030181529181528151602092830120600081815260049093529120549094506001600160a01b0316156107195760408051808201825260028152614d3960f01b6020820152905162461bcd60e51b81526105559190600401613213565b6040805160c08101825260008082526060602083018190528284018290528083018190526080830182905260a083015254915163ddb8ec8b60e01b81526004810188905290916001600160a01b03169063ddb8ec8b90602401600060405180830381865afa15801561078f573d6000803e3d6000fd5b505050506040513d6000823e601f3d908101601f191682016040526107b79190810190613497565b8051909150156107f1576040805180820182526002815261269b60f11b6020820152905162461bcd60e51b81526105559190600401613213565b602081015151158061080557506040810151155b1561083a576040805180820182526002815261493760f01b6020820152905162461bcd60e51b81526105559190600401613213565b8060800151610873576040805180820182526002815261299b60f11b6020820152905162461bcd60e51b81526105559190600401613213565b836101200151516000036108b1576040805180820182526002815261493760f01b6020820152905162461bcd60e51b81526105559190600401613213565b83610120015180519060200120816020015180519060200120146108ff5760408051808201825260028152614d3760f01b6020820152905162461bcd60e51b81526105559190600401613213565b60015460608501516040516388727e6b60e01b815260048101919091526000916001600160a01b0316906388727e6b90602401600060405180830381865afa15801561094f573d6000803e3d6000fd5b505050506040513d6000823e601f3d908101601f191682016040526109779190810190613570565b90506109878260a00151826129cf565b60035460405163014f6b1960e41b81526001600160a01b038a8116600483015260009216906314f6b19090602401602060405180830381865afa1580156109d2573d6000803e3d6000fd5b505050506040513d601f19601f820116820180604052508101906109f691906135a4565b905080600003610a3057604080518082018252600281526109c760f31b6020820152905162461bcd60e51b81526105559190600401613213565b604051806101200160405280336001600160a01b031681526020018a6001600160a01b03168152602001876080015181526020018760c001516001600160a01b031681526020018760e00151815260200182815260200160001515815260200160006003811115610aa357610aa3612d96565b81526040808701516001600160a01b0390811660209384015260008b8152600480855290839020855181549084166001600160a01b031991821617825586860151600183018054918616918316919091179055938601516002820155606086015160038201805491909416941693909317909155608084015180519293610b309392850192910190612cb8565b5060a0820151600582015560c082015160068201805491151560ff1983168117825560e08501519261ff001990911661ffff1990911617610100836003811115610b7c57610b7c612d96565b021790555061010091909101516006909101805462010000600160b01b031916620100006001600160a01b039384160217905560035460405163133165fb60e31b81528b8316600482015291169063998b2fd890602401600060405180830381600087803b158015610bed57600080fd5b505af1158015610c01573d6000803e3d6000fd5b50506001546060890151604080890151905163d09d03a360e01b81526001600160a01b03909316945063d09d03a39350610c4f926004019182526001600160a01b0316602082015260400190565b600060405180830381600087803b158015610c6957600080fd5b505af1158015610c7d573d6000803e3d6000fd5b50505050608086015160e087015160408681015190516001600160a01b038d169333938c9360008051602061382583398151915293610cc293929189916000906135bd565b60405180910390a450505050505092915050565b610cde612b8a565b6001600160a01b038116610d3f5760405162461bcd60e51b815260206004820152602260248201527f496e76616c6964205472616e73616374696f6e4d616e61676572206164647265604482015261737360f01b6064820152608401610555565b600180546001600160a01b0319166001600160a01b0383169081179091556040517f3bc3af46ee56a7b5246248b8e24bb285f23d745c278db873d49f66c027a19f2b90600090a250565b610d91612b8a565b6001600160a01b038116610df15760405162461bcd60e51b815260206004820152602160248201527f496e76616c69642041726269747261746f724d616e61676572206164647265736044820152607360f81b6064820152608401610555565b600380546001600160a01b0319166001600160a01b0383169081179091556040517f5501b7dfdd6860a14bdbc85c3ca16cf46242ad8c30ffecaaf2dbc192ef761bfc90600090a250565b610e43612b8a565b6001600160a01b038116610e995760405162461bcd60e51b815260206004820152601960248201527f496e76616c6964205a6b536572766963652061646472657373000000000000006044820152606401610555565b600080546001600160a01b0319166001600160a01b038316908117825560405190917f89f8f878479acf261604346b8864312704f9de61c236e83a48afc4d87d93b19a91a250565b60008181526004602081815260408084206002548251631e4432d760e11b81529251919486946001600160a01b0390921693633c8865ae93818301939290918290030181865afa158015610f39573d6000803e3d6000fd5b505050506040513d601f19601f82011682018060405250810190610f5d91906135a4565b90506000612710828460050154610f749190613641565b610f7e919061365e565b95945050505050565b600554604051632b7531e160e21b81526004810183905260009182918291829182916001600160a01b03169063add4c78490602401600060405180830381865afa158015610fd9573d6000803e3d6000fd5b505050506040513d6000823e601f3d908101601f191682016040526110019190810190613680565b9296509094509250905082158061101757508151155b8061102157508051155b15611056576040805180820182526002815261269b60f11b6020820152905162461bcd60e51b81526105559190600401613213565b831561108c576040805180820182526002815261533760f01b6020820152905162461bcd60e51b81526105559190600401613213565b600154604051632800dfab60e21b8152600481018590526000916001600160a01b03169063a0037eac9060240160c060405180830381865afa1580156110d6573d6000803e3d6000fd5b505050506040513d601f19601f820116820180604052508101906110fa91906132bf565b80519091506001600160a01b0316158061111f575060208101516001600160a01b0316155b1561115457604080518082018252600281526109a760f31b6020820152905162461bcd60e51b81526105559190600401613213565b86816020015182606001516002604051602001611174949392919061334c565b60408051601f198184030181529181528151602092830120600081815260049093529120549096506001600160a01b0316156111da5760408051808201825260028152614d3960f01b6020820152905162461bcd60e51b81526105559190600401613213565b60015460405163537bcc5560e01b8152600481018690526000916001600160a01b03169063537bcc5590602401600060405180830381865afa158015611224573d6000803e3d6000fd5b505050506040513d6000823e601f3d908101601f1916820160405261124c91908101906136fd565b90508051600003611287576040805180820182526002815261533560f01b6020820152905162461bcd60e51b81526105559190600401613213565b83805190602001208180519060200120146112cc576040805180820182526002815261299b60f11b6020820152905162461bcd60e51b81526105559190600401613213565b60035460208301516040516326415b0f60e21b81526001600160a01b03918216600482015260009291909116906399056c3c90602401600060405180830381865afa15801561131f573d6000803e3d6000fd5b505050506040513d6000823e601f3d908101601f19168201604052611347919081019061306b565b9050806101200151805190602001208480519060200120146113935760408051808201825260028152614d3760f01b6020820152905162461bcd60e51b81526105559190600401613213565b600354602084015160405163014f6b1960e41b81526001600160a01b03918216600482015260009291909116906314f6b19090602401602060405180830381865afa1580156113e6573d6000803e3d6000fd5b505050506040513d601f19601f8201168201806040525081019061140a91906135a4565b90508060000361144457604080518082018252600281526109c760f31b6020820152905162461bcd60e51b81526105559190600401613213565b604051806101200160405280336001600160a01b0316815260200185602001516001600160a01b03168152602001836080015181526020018360c001516001600160a01b031681526020018360e001518152602001828152602001600015158152602001600260038111156114bb576114bb612d96565b81526040808701516001600160a01b0390811660209384015260008d8152600480855290839020855181549084166001600160a01b0319918216178255868601516001830180549186169183169190911790559386015160028201556060860151600382018054919094169416939093179091556080840151805192936115489392850192910190612cb8565b5060a0820151600582015560c082015160068201805491151560ff1983168117825560e08501519261ff001990911661ffff199091161761010083600381111561159457611594612d96565b021790555061010091909101516006909101805462010000600160b01b031916620100006001600160a01b0393841602179055600354602086015160405163133165fb60e31b8152908316600482015291169063998b2fd890602401600060405180830381600087803b15801561160a57600080fd5b505af115801561161e573d6000803e3d6000fd5b50506001546060850151604080890151905163d09d03a360e01b81526001600160a01b03909316945063d09d03a3935061166c926004019182526001600160a01b0316602082015260400190565b600060405180830381600087803b15801561168657600080fd5b505af115801561169a573d6000803e3d6000fd5b5050505083602001516001600160a01b0316336001600160a01b03168a60008051602061382583398151915285608001518660e00151868a60400151600260038111156116e9576116e9612d96565b6040516116fa9594939291906135bd565b60405180910390a45050505050505050919050565b611717612b8a565b6001600160a01b0381166117805760405162461bcd60e51b815260206004820152602a60248201527f496e76616c6964205369676e617475726556616c69646174696f6e53657276696044820152696365206164647265737360b01b6064820152608401610555565b600580546001600160a01b0319166001600160a01b0383169081179091556040517f477f891f776a7f2e5d05a03ba599cad3b3715530049fc949bf6dc5d7e825c77790600090a250565b6117d2612b8a565b6117dc6000612be5565b565b6000818152600460205260409020600681015460ff1615611829576040805180820182526002815261134d60f21b6020820152905162461bcd60e51b81526105559190600401613213565b600281015415801561183d57506004810154155b156118725760408051808201825260028152614d3560f01b6020820152905162461bcd60e51b81526105559190600401613213565b60068101546201000090046001600160a01b03166118ba57604080518082018252600281526105a360f41b6020820152905162461bcd60e51b81526105559190600401613213565b604051635a91e24f60e01b8152600481018390526000903090635a91e24f90602401602060405180830381865afa1580156118f9573d6000803e3d6000fd5b505050506040513d601f19601f8201168201806040525081019061191d91906135a4565b905080341015611957576040805180820182526002815261543560f01b6020820152905162461bcd60e51b81526105559190600401613213565b60068201805460ff19166001179055600282015415611a1257600682015460028301546040516000926201000090046001600160a01b031691908381818185875af1925050503d80600081146119c9576040519150601f19603f3d011682016040523d82523d6000602084013e6119ce565b606091505b5050905080611a105760405162461bcd60e51b815260206004820152600e60248201526d151c985b9cd9995c91985a5b195960921b6044820152606401610555565b505b60005b6004830154811015611ae657600383015460068401546004850180546001600160a01b03938416936323b872dd933093620100009091049091169186908110611a6057611a60613731565b6000918252602090912001546040516001600160e01b031960e086901b1681526001600160a01b0393841660048201529290911660248301526044820152606401600060405180830381600087803b158015611abb57600080fd5b505af1158015611acf573d6000803e3d6000fd5b505050508080611ade90613747565b915050611a15565b506002546040805163045b2b8560e51b815290516000926001600160a01b031691638b6570a09160048083019260209291908290030181865afa158015611b31573d6000803e3d6000fd5b505050506040513d601f19601f82011682018060405250810190611b559190613760565b6040519091506001600160a01b0382169083156108fc029084906000818181858888f19350505050158015611b8e573d6000803e3d6000fd5b50600082341115611c3157611ba3833461377d565b604051909150600090339083908381818185875af1925050503d8060008114611be8576040519150601f19603f3d011682016040523d82523d6000602084013e611bed565b606091505b5050905080611c2f5760405162461bcd60e51b815260206004820152600e60248201526d151c985b9cd9995c91985a5b195960921b6044820152606401610555565b505b60068401546002850154604051620100009092046001600160a01b031691339188917fa6a4bd55cab187f1d44eb0f7fde59c599b88b1f8db6e4f916348d93ef1ad695091611c879160048b01908a908990613790565b60405180910390a45050505050565b6001546040516313b86fa160e31b81526004810183905260009182916001600160a01b0390911690639dc37d089060240160c060405180830381865afa158015611ce4573d6000803e3d6000fd5b505050506040513d601f19601f82011682018060405250810190611d0891906132bf565b6020808201516060830151604051939450611d289387936001910161334c565b60408051601f198184030181529181528151602092830120600081815260049093529120549092506001600160a01b031615611d8e5760408051808201825260028152614d3960f01b6020820152905162461bcd60e51b81526105559190600401613213565b600154604051630814936760e41b8152600481018590526000916001600160a01b03169063814936709060240160a060405180830381865afa158015611dd8573d6000803e3d6000fd5b505050506040513d601f19601f82011682018060405250810190611dfc9190613246565b9050600281608001516005811115611e1657611e16612d96565b14611e4b576040805180820182526002815261269960f11b6020820152905162461bcd60e51b81526105559190600401613213565b60025460408051632b6f600d60e01b815290516000926001600160a01b031691632b6f600d9160048083019260209291908290030181865afa158015611e95573d6000803e3d6000fd5b505050506040513d601f19601f82011682018060405250810190611eb991906135a4565b905042818360400151611ecc91906137ed565b1115611f025760408051808201825260028152614d3360f01b6020820152905162461bcd60e51b81526105559190600401613213565b60035460208401516040516326415b0f60e21b81526001600160a01b03918216600482015260009291909116906399056c3c90602401600060405180830381865afa158015611f55573d6000803e3d6000fd5b505050506040513d6000823e601f3d908101601f19168201604052611f7d919081019061306b565b600354602086015160405163014f6b1960e41b81526001600160a01b0391821660048201529293506000929116906314f6b19090602401602060405180830381865afa158015611fd1573d6000803e3d6000fd5b505050506040513d601f19601f82011682018060405250810190611ff591906135a4565b90508060000361202f57604080518082018252600281526109c760f31b6020820152905162461bcd60e51b81526105559190600401613213565b604051806101200160405280336001600160a01b0316815260200186602001516001600160a01b03168152602001836080015181526020018360c001516001600160a01b031681526020018360e001518152602001828152602001600015158152602001600160038111156120a6576120a6612d96565b81526060808801516001600160a01b0390811660209384015260008a81526004808552604091829020865181549085166001600160a01b03199182161782558787015160018301805491871691831691909117905592870151600282015593860151600385018054919094169216919091179091556080840151805192936121349392850192910190612cb8565b5060a0820151600582015560c082015160068201805491151560ff1983168117825560e08501519261ff001990911661ffff199091161761010083600381111561218057612180612d96565b021790555061010091909101516006909101805462010000600160b01b031916620100006001600160a01b0393841602179055600354602087015160405163133165fb60e31b8152908316600482015291169063998b2fd890602401600060405180830381600087803b1580156121f657600080fd5b505af115801561220a573d6000803e3d6000fd5b50506001546060808601519089015160405163d09d03a360e01b81526001600160a01b03909316945063d09d03a39350612258926004019182526001600160a01b0316602082015260400190565b600060405180830381600087803b15801561227257600080fd5b505af1158015612286573d6000803e3d6000fd5b5050505084602001516001600160a01b0316336001600160a01b03168760008051602061382583398151915285608001518660e00151868b60600151600160038111156122d5576122d5612d96565b6040516122e69594939291906135bd565b60405180910390a45050505050919050565b6001546040516313b86fa160e31b81526004810183905260009182916001600160a01b0390911690639dc37d089060240160c060405180830381865afa158015612346573d6000803e3d6000fd5b505050506040513d601f19601f8201168201806040525081019061236a91906132bf565b60208101519091506001600160a01b031633146123b15760408051808201825260028152614d3160f01b6020820152905162461bcd60e51b81526105559190600401613213565b600154604051637577b6df60e01b8152600481018590526000916001600160a01b031690637577b6df9060240160408051808303816000875af11580156123fc573d6000803e3d6000fd5b505050506040513d601f19601f820116820180604052508101906124209190613800565b5060035460208401516040516326415b0f60e21b81526001600160a01b0391821660048201529293506000929116906399056c3c90602401600060405180830381865afa158015612475573d6000803e3d6000fd5b505050506040513d6000823e601f3d908101601f1916820160405261249d919081019061306b565b90506000858460200151836101c0015160036040516020016124c2949392919061334c565b60408051601f198184030181529181528151602092830120600081815260049093529120549091506001600160a01b0316156125285760408051808201825260028152614d3960f01b6020820152905162461bcd60e51b81526105559190600401613213565b60408051610120810182523381526020868101516001600160a01b03908116828401908152838501888152600060608601818152875182815280870189526080880190815260a088018c9052600160c08901819052600360e08a018190526101c08d015188166101008b01528b85526004808a529a909420895181549089166001600160a01b031991821617825596519181018054928916928816929092179091559351600285015590519183018054929095169190931617909255518051939491936125fd93928501929190910190612cb8565b5060a0820151600582015560c082015160068201805491151560ff1983168117825560e08501519261ff001990911661ffff199091161761010083600381111561264957612649612d96565b021790555061010091909101516006909101805462010000600160b01b031916620100006001600160a01b039384160217905560208501511633826000805160206138258339815191528660006040519080825280602002602001820160405280156126bf578160200160208202803683370190505b506101c08801516040516126d99392918b916003906135bd565b60405180910390a495945050505050565b6126f2612b8a565b6001600160a01b0381166127485760405162461bcd60e51b815260206004820152601d60248201527f496e76616c696420436f6e6669674d616e6167657220616464726573730000006044820152606401610555565b600280546001600160a01b0319166001600160a01b0383169081179091556040517f6a801685c5950e3d8ece256f75ca0ff31ed0ae02aeae73f8180ff32e978a2f6b90600090a250565b6000818152600460205260408120600681015460ff16156127b65750600092915050565b6005015492915050565b6127c8612b8a565b6001600160a01b0381166127f257604051631e4fbdf760e01b815260006004820152602401610555565b6127fb81612be5565b50565b7ff0c57e16840df040f15088dc2f81fe391c3923bec73e23a9662efc9c229c6a008054600160401b810460ff1615906001600160401b03166000811580156128435750825b90506000826001600160401b0316600114801561285f5750303b155b90508115801561286d575080155b1561288b5760405163f92ee8a960e01b815260040160405180910390fd5b845467ffffffffffffffff1916600117855583156128b557845460ff60401b1916600160401b1785555b6128be33612c56565b6001600160a01b03891615806128db57506001600160a01b038816155b806128ed57506001600160a01b038716155b806128ff57506001600160a01b038616155b1561293457604080518082018252600281526105a360f41b6020820152905162461bcd60e51b81526105559190600401613213565b600080546001600160a01b03808c166001600160a01b031992831617909255600280548b8416908316179055600380548a8416908316179055600580549289169290911691909117905583156129c457845460ff60401b19168555604051600181527fc7f505b2f371ae2175ee4913f4499e1f2633a7b5936321eed1cdaeb6115181d29060200160405180910390a15b505050505050505050565b8051825114612a08576040805180820182526002815261055360f41b6020820152905162461bcd60e51b81526105559190600401613213565b60005b8251811015612b8557818181518110612a2657612a26613731565b602002602001015160000151838281518110612a4457612a44613731565b60200260200101516000015114612a85576040805180820182526002815261055360f41b6020820152905162461bcd60e51b81526105559190600401613213565b818181518110612a9757612a97613731565b60200260200101516020015163ffffffff16838281518110612abb57612abb613731565b60200260200101516020015163ffffffff1614612b02576040805180820182526002815261055360f41b6020820152905162461bcd60e51b81526105559190600401613213565b818181518110612b1457612b14613731565b602002602001015160600151838281518110612b3257612b32613731565b60200260200101516060015114612b73576040805180820182526002815261055360f41b6020820152905162461bcd60e51b81526105559190600401613213565b80612b7d81613747565b915050612a0b565b505050565b33612bbc7f9016d09d72d40fdae2fd8ceac6b6234c7706214fd39c1cd1e609a0528c199300546001600160a01b031690565b6001600160a01b0316146117dc5760405163118cdaa760e01b8152336004820152602401610555565b7f9016d09d72d40fdae2fd8ceac6b6234c7706214fd39c1cd1e609a0528c19930080546001600160a01b031981166001600160a01b03848116918217845560405192169182907f8be0079c531659141344cd1fd0a4f28419497f9722a3daafe3b4186f6b6457e090600090a3505050565b612c5e612c67565b6127fb81612cb0565b7ff0c57e16840df040f15088dc2f81fe391c3923bec73e23a9662efc9c229c6a0054600160401b900460ff166117dc57604051631afcd79f60e31b815260040160405180910390fd5b6127c8612c67565b828054828255906000526020600020908101928215612cf3579160200282015b82811115612cf3578251825591602001919060010190612cd8565b50612cff929150612d03565b5090565b5b80821115612cff5760008155600101612d04565b6001600160a01b03811681146127fb57600080fd5b60008060408385031215612d4057600080fd5b8235612d4b81612d18565b946020939093013593505050565b600060208284031215612d6b57600080fd5b8135612d7681612d18565b9392505050565b600060208284031215612d8f57600080fd5b5035919050565b634e487b7160e01b600052602160045260246000fd5b6001600160a01b03898116825288811660208301526040820188905286811660608301526080820186905284151560a083015261010082019060048510612e0357634e487b7160e01b600052602160045260246000fd5b8460c084015280841660e0840152509998505050505050505050565b60008060008060808587031215612e3557600080fd5b8435612e4081612d18565b93506020850135612e5081612d18565b92506040850135612e6081612d18565b91506060850135612e7081612d18565b939692955090935050565b634e487b7160e01b600052604160045260246000fd5b60405161020081016001600160401b0381118282101715612eb457612eb4612e7b565b60405290565b60405160c081016001600160401b0381118282101715612eb457612eb4612e7b565b604051608081016001600160401b0381118282101715612eb457612eb4612e7b565b604051601f8201601f191681016001600160401b0381118282101715612f2657612f26612e7b565b604052919050565b8051612f3981612d18565b919050565b80518015158114612f3957600080fd5b60006001600160401b03821115612f6757612f67612e7b565b5060051b60200190565b600082601f830112612f8257600080fd5b81516020612f97612f9283612f4e565b612efe565b82815260059290921b84018101918181019086841115612fb657600080fd5b8286015b84811015612fd15780518352918301918301612fba565b509695505050505050565b60005b83811015612ff7578181015183820152602001612fdf565b50506000910152565b600082601f83011261301157600080fd5b81516001600160401b0381111561302a5761302a612e7b565b61303d601f8201601f1916602001612efe565b81815284602083860101111561305257600080fd5b613063826020830160208701612fdc565b949350505050565b60006020828403121561307d57600080fd5b81516001600160401b038082111561309457600080fd5b9083019061020082860312156130a957600080fd5b6130b1612e91565b6130ba83612f2e565b81526130c860208401612f3e565b60208201526040830151604082015260608301516060820152608083015160808201526130f760a08401612f2e565b60a082015261310860c08401612f2e565b60c082015260e08301518281111561311f57600080fd5b61312b87828601612f71565b60e08301525061010061313f818501612f2e565b90820152610120838101518381111561315757600080fd5b61316388828701613000565b828401525050610140808401518381111561317d57600080fd5b61318988828701613000565b82840152505061016080840151818301525061018080840151838111156131af57600080fd5b6131bb88828701613000565b8284015250506101a080840151838111156131d557600080fd5b6131e188828701613000565b8284015250506101c091506131f7828401612f2e565b918101919091526101e091820151918101919091529392505050565b6020815260008251806020840152613232816040850160208701612fdc565b601f01601f19169190910160400192915050565b600060a0828403121561325857600080fd5b60405160a081018181106001600160401b038211171561327a5761327a612e7b565b8060405250825181526020830151602082015260408301516040820152606083015160608201526080830151600681106132b357600080fd5b60808201529392505050565b600060c082840312156132d157600080fd5b6132d9612eba565b82516132e481612d18565b815260208301516132f481612d18565b6020820152604083015161330781612d18565b6040820152606083015161331a81612d18565b6060820152608083015161332d81612d18565b608082015260a083015161334081612d18565b60a08201529392505050565b84815260006bffffffffffffffffffffffff19808660601b166020840152808560601b166034840152506004831061339457634e487b7160e01b600052602160045260246000fd5b5060f89190911b60488201526049019392505050565b600082601f8301126133bb57600080fd5b815160206133cb612f9283612f4e565b82815260059290921b840181019181810190868411156133ea57600080fd5b8286015b84811015612fd15780516001600160401b038082111561340e5760008081fd5b908801906080828b03601f19018113156134285760008081fd5b613430612edc565b87840151815260408085015163ffffffff8116811461344f5760008081fd5b828a0152606085810151858111156134675760008081fd5b6134758f8c838a0101613000565b92840192909252949092015193810193909352505083529183019183016133ee565b6000602082840312156134a957600080fd5b81516001600160401b03808211156134c057600080fd5b9083019060c082860312156134d457600080fd5b6134dc612eba565b825181526020830151828111156134f257600080fd5b6134fe87828601613000565b6020830152506040830151604082015260608301518281111561352057600080fd5b61352c87828601613000565b60608301525061353e60808401612f3e565b608082015260a08301518281111561355557600080fd5b613561878286016133aa565b60a08301525095945050505050565b60006020828403121561358257600080fd5b81516001600160401b0381111561359857600080fd5b613063848285016133aa565b6000602082840312156135b657600080fd5b5051919050565b600060a08201878352602060a08185015281885180845260c086019150828a01935060005b818110156135fe578451835293830193918301916001016135e2565b505060408501979097525050506001600160a01b0392909216606083015260ff1660809091015292915050565b634e487b7160e01b600052601160045260246000fd5b80820281158282048414176136585761365861362b565b92915050565b60008261367b57634e487b7160e01b600052601260045260246000fd5b500490565b6000806000806080858703121561369657600080fd5b61369f85612f3e565b93506020850151925060408501516001600160401b03808211156136c257600080fd5b6136ce88838901613000565b935060608701519150808211156136e457600080fd5b506136f187828801613000565b91505092959194509250565b60006020828403121561370f57600080fd5b81516001600160401b0381111561372557600080fd5b61306384828501613000565b634e487b7160e01b600052603260045260246000fd5b6000600182016137595761375961362b565b5060010190565b60006020828403121561377257600080fd5b8151612d7681612d18565b818103818111156136585761365861362b565b600060808201868352602060808185015281875480845260a0860191508860005282600020935060005b818110156137d6578454835260019485019492840192016137ba565b505060408501969096525050506060015292915050565b808201808211156136585761365861362b565b6000806040838503121561381357600080fd5b50508051602090910151909290915056feb9e0ad71af9252e1922aa65a5543f63b7ef69d1cbe0b60793ec8adaff1991817a26469706673582212209853d5a8811115c3f16c3b7c415d8e8b14a12696e2a166dfbfae15d37801275264736f6c63430008140033",
  "linkReferences": {},
  "deployedLinkReferences": {}
}