{
  "_format": "hh-sol-artifact-1",
  "contractName": "CompensationManager",
  "sourceName": "contracts/core/CompensationManager.sol",
  "abi": [
    {
      "inputs": [],
      "stateMutability": "nonpayable",
      "type": "constructor"
    },
    {
      "inputs": [],
      "name": "InvalidInitialization",
      "type": "error"
    },
    {
      "inputs": [],
      "name": "NotInitializing",
      "type": "error"
    },
    {
      "inputs": [
        {
          "internalType": "address",
          "name": "owner",
          "type": "address"
        }
      ],
      "name": "OwnableInvalidOwner",
      "type": "error"
    },
    {
      "inputs": [
        {
          "internalType": "address",
          "name": "account",
          "type": "address"
        }
      ],
      "name": "OwnableUnauthorizedAccount",
      "type": "error"
    },
    {
      "anonymous": false,
      "inputs": [
        {
          "indexed": true,
          "internalType": "address",
          "name": "newArbitratorManager",
          "type": "address"
        }
      ],
      "name": "ArbitratorManagerUpdated",
      "type": "event"
    },
    {
      "anonymous": false,
      "inputs": [
        {
          "indexed": true,
          "internalType": "bytes32",
          "name": "claimId",
          "type": "bytes32"
        },
        {
          "indexed": true,
          "internalType": "address",
          "name": "claimer",
          "type": "address"
        },
        {
          "indexed": true,
          "internalType": "address",
          "name": "arbitrator",
          "type": "address"
        },
        {
          "indexed": false,
          "internalType": "uint256",
          "name": "ethAmount",
          "type": "uint256"
        },
        {
          "indexed": false,
          "internalType": "uint256[]",
          "name": "nftTokenIds",
          "type": "uint256[]"
        },
        {
          "indexed": false,
          "internalType": "uint256",
          "name": "totalAmount",
          "type": "uint256"
        },
        {
          "indexed": false,
          "internalType": "address",
          "name": "receivedCompensationAddress",
          "type": "address"
        },
        {
          "indexed": false,
          "internalType": "uint8",
          "name": "claimType",
          "type": "uint8"
        }
      ],
      "name": "CompensationClaimed",
      "type": "event"
    },
    {
      "anonymous": false,
      "inputs": [
        {
          "indexed": true,
          "internalType": "bytes32",
          "name": "claimId",
          "type": "bytes32"
        },
        {
          "indexed": true,
          "internalType": "address",
          "name": "claimer",
          "type": "address"
        },
        {
          "indexed": true,
          "internalType": "address",
          "name": "receivedCompensationAddress",
          "type": "address"
        },
        {
          "indexed": false,
          "internalType": "uint256",
          "name": "ethAmount",
          "type": "uint256"
        },
        {
          "indexed": false,
          "internalType": "uint256[]",
          "name": "nftTokenIds",
          "type": "uint256[]"
        },
        {
          "indexed": false,
          "internalType": "uint256",
          "name": "systemFee",
          "type": "uint256"
        },
        {
          "indexed": false,
          "internalType": "uint256",
          "name": "excessPaymenttoClaimer",
          "type": "uint256"
        }
      ],
      "name": "CompensationWithdrawn",
      "type": "event"
    },
    {
      "anonymous": false,
      "inputs": [
        {
          "indexed": true,
          "internalType": "address",
          "name": "newConfigManager",
          "type": "address"
        }
      ],
      "name": "ConfigManagerUpdated",
      "type": "event"
    },
    {
      "anonymous": false,
      "inputs": [
        {
          "indexed": false,
          "internalType": "uint64",
          "name": "version",
          "type": "uint64"
        }
      ],
      "name": "Initialized",
      "type": "event"
    },
    {
      "anonymous": false,
      "inputs": [
        {
          "indexed": true,
          "internalType": "address",
          "name": "previousOwner",
          "type": "address"
        },
        {
          "indexed": true,
          "internalType": "address",
          "name": "newOwner",
          "type": "address"
        }
      ],
      "name": "OwnershipTransferred",
      "type": "event"
    },
    {
      "anonymous": false,
      "inputs": [
        {
          "indexed": true,
          "internalType": "address",
          "name": "newSignatureValidationService",
          "type": "address"
        }
      ],
      "name": "SignatureValidationServiceUpdated",
      "type": "event"
    },
    {
      "anonymous": false,
      "inputs": [
        {
          "indexed": true,
          "internalType": "address",
          "name": "newTransactionManager",
          "type": "address"
        }
      ],
      "name": "TransactionManagerUpdated",
      "type": "event"
    },
    {
      "anonymous": false,
      "inputs": [
        {
          "indexed": true,
          "internalType": "address",
          "name": "newZkService",
          "type": "address"
        }
      ],
      "name": "ZkServiceUpdated",
      "type": "event"
    },
    {
      "inputs": [],
      "name": "arbitratorManager",
      "outputs": [
        {
          "internalType": "contract IArbitratorManager",
          "name": "",
          "type": "address"
        }
      ],
      "stateMutability": "view",
      "type": "function"
    },
    {
      "inputs": [
        {
          "internalType": "bytes32",
          "name": "txId",
          "type": "bytes32"
        }
      ],
      "name": "claimArbitratorFee",
      "outputs": [
        {
          "internalType": "bytes32",
          "name": "",
          "type": "bytes32"
        }
      ],
      "stateMutability": "nonpayable",
      "type": "function"
    },
    {
      "inputs": [
        {
          "internalType": "bytes32",
          "name": "evidence",
          "type": "bytes32"
        }
      ],
      "name": "claimFailedArbitrationCompensation",
      "outputs": [
        {
          "internalType": "bytes32",
          "name": "claimId",
          "type": "bytes32"
        }
      ],
      "stateMutability": "nonpayable",
      "type": "function"
    },
    {
      "inputs": [
        {
          "internalType": "address",
          "name": "arbitrator",
          "type": "address"
        },
        {
          "internalType": "bytes32",
          "name": "evidence",
          "type": "bytes32"
        }
      ],
      "name": "claimIllegalSignatureCompensation",
      "outputs": [
        {
          "internalType": "bytes32",
          "name": "claimId",
          "type": "bytes32"
        }
      ],
      "stateMutability": "nonpayable",
      "type": "function"
    },
    {
      "inputs": [
        {
          "internalType": "bytes32",
          "name": "id",
          "type": "bytes32"
        }
      ],
      "name": "claimTimeoutCompensation",
      "outputs": [
        {
          "internalType": "bytes32",
          "name": "claimId",
          "type": "bytes32"
        }
      ],
      "stateMutability": "nonpayable",
      "type": "function"
    },
    {
      "inputs": [
        {
          "internalType": "bytes32",
          "name": "",
          "type": "bytes32"
        }
      ],
      "name": "claims",
      "outputs": [
        {
          "internalType": "address",
          "name": "claimer",
          "type": "address"
        },
        {
          "internalType": "address",
          "name": "arbitrator",
          "type": "address"
        },
        {
          "internalType": "uint256",
          "name": "ethAmount",
          "type": "uint256"
        },
        {
          "internalType": "address",
          "name": "nftContract",
          "type": "address"
        },
        {
          "internalType": "uint256",
          "name": "totalAmount",
          "type": "uint256"
        },
        {
          "internalType": "bool",
          "name": "withdrawn",
          "type": "bool"
        },
        {
          "internalType": "enum CompensationManager.CompensationType",
          "name": "claimType",
          "type": "uint8"
        },
        {
          "internalType": "address",
          "name": "receivedCompensationAddress",
          "type": "address"
        }
      ],
      "stateMutability": "view",
      "type": "function"
    },
    {
      "inputs": [],
      "name": "configManager",
      "outputs": [
        {
          "internalType": "contract IConfigManager",
          "name": "",
          "type": "address"
        }
      ],
      "stateMutability": "view",
      "type": "function"
    },
    {
      "inputs": [
        {
          "internalType": "bytes32",
          "name": "claimId",
          "type": "bytes32"
        }
      ],
      "name": "getClaimableAmount",
      "outputs": [
        {
          "internalType": "uint256",
          "name": "",
          "type": "uint256"
        }
      ],
      "stateMutability": "view",
      "type": "function"
    },
    {
      "inputs": [
        {
          "internalType": "bytes32",
          "name": "claimId",
          "type": "bytes32"
        }
      ],
      "name": "getWithdrawCompensationFee",
      "outputs": [
        {
          "internalType": "uint256",
          "name": "",
          "type": "uint256"
        }
      ],
      "stateMutability": "view",
      "type": "function"
    },
    {
      "inputs": [
        {
          "internalType": "address",
          "name": "_zkService",
          "type": "address"
        },
        {
          "internalType": "address",
          "name": "_configManager",
          "type": "address"
        },
        {
          "internalType": "address",
          "name": "_arbitratorManager",
          "type": "address"
        },
        {
          "internalType": "address",
          "name": "_signatureValidationService",
          "type": "address"
        }
      ],
      "name": "initialize",
      "outputs": [],
      "stateMutability": "nonpayable",
      "type": "function"
    },
    {
      "inputs": [],
      "name": "owner",
      "outputs": [
        {
          "internalType": "address",
          "name": "",
          "type": "address"
        }
      ],
      "stateMutability": "view",
      "type": "function"
    },
    {
      "inputs": [],
      "name": "renounceOwnership",
      "outputs": [],
      "stateMutability": "nonpayable",
      "type": "function"
    },
    {
      "inputs": [
        {
          "internalType": "address",
          "name": "_arbitratorManager",
          "type": "address"
        }
      ],
      "name": "setArbitratorManager",
      "outputs": [],
      "stateMutability": "nonpayable",
      "type": "function"
    },
    {
      "inputs": [
        {
          "internalType": "address",
          "name": "_configManager",
          "type": "address"
        }
      ],
      "name": "setConfigManager",
      "outputs": [],
      "stateMutability": "nonpayable",
      "type": "function"
    },
    {
      "inputs": [
        {
          "internalType": "address",
          "name": "_signatureValidationService",
          "type": "address"
        }
      ],
      "name": "setSignatureValidationService",
      "outputs": [],
      "stateMutability": "nonpayable",
      "type": "function"
    },
    {
      "inputs": [
        {
          "internalType": "address",
          "name": "_transactionManager",
          "type": "address"
        }
      ],
      "name": "setTransactionManager",
      "outputs": [],
      "stateMutability": "nonpayable",
      "type": "function"
    },
    {
      "inputs": [
        {
          "internalType": "address",
          "name": "_zkService",
          "type": "address"
        }
      ],
      "name": "setZkService",
      "outputs": [],
      "stateMutability": "nonpayable",
      "type": "function"
    },
    {
      "inputs": [],
      "name": "signatureValidationService",
      "outputs": [
        {
          "internalType": "contract ISignatureValidationService",
          "name": "",
          "type": "address"
        }
      ],
      "stateMutability": "view",
      "type": "function"
    },
    {
      "inputs": [],
      "name": "transactionManager",
      "outputs": [
        {
          "internalType": "contract ITransactionManager",
          "name": "",
          "type": "address"
        }
      ],
      "stateMutability": "view",
      "type": "function"
    },
    {
      "inputs": [
        {
          "internalType": "address",
          "name": "newOwner",
          "type": "address"
        }
      ],
      "name": "transferOwnership",
      "outputs": [],
      "stateMutability": "nonpayable",
      "type": "function"
    },
    {
      "inputs": [
        {
          "internalType": "bytes32",
          "name": "claimId",
          "type": "bytes32"
        }
      ],
      "name": "withdrawCompensation",
      "outputs": [],
      "stateMutability": "payable",
      "type": "function"
    },
    {
      "inputs": [],
      "name": "zkService",
      "outputs": [
        {
          "internalType": "contract IZkService",
          "name": "",
          "type": "address"
        }
      ],
      "stateMutability": "view",
      "type": "function"
    },
    {
      "stateMutability": "payable",
      "type": "receive"
    }
  ],
  "bytecode": "0x60806040523480156200001157600080fd5b506200001c62000022565b620000d6565b7ff0c57e16840df040f15088dc2f81fe391c3923bec73e23a9662efc9c229c6a00805468010000000000000000900460ff1615620000735760405163f92ee8a960e01b815260040160405180910390fd5b80546001600160401b0390811614620000d35780546001600160401b0319166001600160401b0390811782556040519081527fc7f505b2f371ae2175ee4913f4499e1f2633a7b5936321eed1cdaeb6115181d29060200160405180910390a15b50565b6138f880620000e66000396000f3fe6080604052600436106101395760003560e01c80638cc5d008116100ab578063bb64fd441161006f578063bb64fd4414610377578063ca0ab07514610397578063e2a0a69c146103b7578063eff0f592146103d7578063f2fde38b14610460578063f8c8765e1461048057600080fd5b80638cc5d008146102c75780638da5cb5b146102da57806399b29871146103175780639a46c8cf14610337578063b4e25e801461035757600080fd5b80635a91e24f116100fd5780635a91e24f146102125780635b33b1df146102325780635cd5f63714610252578063614b5d8c14610272578063715018a614610292578063759787c4146102a757600080fd5b806301db96cf146101455780630b1fa61c146101785780632c7e8ca31461019a5780633b716452146101ba5780633e5d7588146101f257600080fd5b3661014057005b600080fd5b34801561015157600080fd5b50610165610160366004612d35565b6104a0565b6040519081526020015b60405180910390f35b34801561018457600080fd5b50610198610193366004612d61565b610cda565b005b3480156101a657600080fd5b506101986101b5366004612d61565b610d8d565b3480156101c657600080fd5b506001546101da906001600160a01b031681565b6040516001600160a01b03909116815260200161016f565b3480156101fe57600080fd5b5061019861020d366004612d61565b610e3f565b34801561021e57600080fd5b5061016561022d366004612d85565b610ee5565b34801561023e57600080fd5b5061016561024d366004612d85565b610f8b565b34801561025e57600080fd5b506000546101da906001600160a01b031681565b34801561027e57600080fd5b5061019861028d366004612d61565b611713565b34801561029e57600080fd5b506101986117ce565b3480156102b357600080fd5b506003546101da906001600160a01b031681565b6101986102d5366004612d85565b6117e2565b3480156102e657600080fd5b507f9016d09d72d40fdae2fd8ceac6b6234c7706214fd39c1cd1e609a0528c199300546001600160a01b03166101da565b34801561032357600080fd5b50610165610332366004612d85565b611c9a565b34801561034357600080fd5b50610165610352366004612d85565b612300565b34801561036357600080fd5b50610198610372366004612d61565b6126f2565b34801561038357600080fd5b50610165610392366004612d85565b61279a565b3480156103a357600080fd5b506002546101da906001600160a01b031681565b3480156103c357600080fd5b506005546101da906001600160a01b031681565b3480156103e357600080fd5b5061044c6103f2366004612d85565b6004602052600090815260409020805460018201546002830154600384015460058501546006909501546001600160a01b03948516959385169492939183169260ff80831692610100810490911691620100009091041688565b60405161016f989796959493929190612db4565b34801561046c57600080fd5b5061019861047b366004612d61565b6127c8565b34801561048c57600080fd5b5061019861049b366004612e27565b612806565b6003546040516326415b0f60e21b81526001600160a01b03848116600483015260009283929116906399056c3c90602401600060405180830381865afa1580156104ee573d6000803e3d6000fd5b505050506040513d6000823e601f3d908101601f191682016040526105169190810190613096565b606081015190915060000361055e57604080518082018252600281526109a760f31b6020820152905162461bcd60e51b8152610555919060040161323e565b60405180910390fd5b6001546060820151604051630814936760e41b815260048101919091526000916001600160a01b031690638149367090602401600060405180830381865afa1580156105ae573d6000803e3d6000fd5b505050506040513d6000823e601f3d908101601f191682016040526105d69190810190613280565b90506000816080015160068111156105f0576105f0612d9e565b1461062557604080518082018252600281526109a760f31b6020820152905162461bcd60e51b8152610555919060040161323e565b60015460608301516040516313b86fa160e31b815260048101919091526000916001600160a01b031690639dc37d089060240160c060405180830381865afa158015610675573d6000803e3d6000fd5b505050506040513d601f19601f82011682018060405250810190610699919061333d565b90508486826040015160006040516020016106b794939291906133ca565b60408051601f198184030181529181528151602092830120600081815260049093529120549094506001600160a01b03161561071d5760408051808201825260028152614d3960f01b6020820152905162461bcd60e51b8152610555919060040161323e565b6040805160c08101825260008082526060602083018190528284018290528083018190526080830182905260a083015254915163ddb8ec8b60e01b81526004810188905290916001600160a01b03169063ddb8ec8b90602401600060405180830381865afa158015610793573d6000803e3d6000fd5b505050506040513d6000823e601f3d908101601f191682016040526107bb9190810190613515565b8051909150156107f5576040805180820182526002815261269b60f11b6020820152905162461bcd60e51b8152610555919060040161323e565b602081015151158061080957506040810151155b1561083e576040805180820182526002815261493760f01b6020820152905162461bcd60e51b8152610555919060040161323e565b8060800151610877576040805180820182526002815261299b60f11b6020820152905162461bcd60e51b8152610555919060040161323e565b836101200151516000036108b5576040805180820182526002815261493760f01b6020820152905162461bcd60e51b8152610555919060040161323e565b83610120015180519060200120816020015180519060200120146109035760408051808201825260028152614d3760f01b6020820152905162461bcd60e51b8152610555919060040161323e565b60015460608501516040516388727e6b60e01b815260048101919091526000916001600160a01b0316906388727e6b90602401600060405180830381865afa158015610953573d6000803e3d6000fd5b505050506040513d6000823e601f3d908101601f1916820160405261097b91908101906135ee565b905061098b8260a00151826129d7565b60035460405163014f6b1960e41b81526001600160a01b038a8116600483015260009216906314f6b19090602401602060405180830381865afa1580156109d6573d6000803e3d6000fd5b505050506040513d601f19601f820116820180604052508101906109fa9190613622565b905080600003610a3457604080518082018252600281526109c760f31b6020820152905162461bcd60e51b8152610555919060040161323e565b604051806101200160405280336001600160a01b031681526020018a6001600160a01b03168152602001876080015181526020018760c001516001600160a01b031681526020018760e00151815260200182815260200160001515815260200160006003811115610aa757610aa7612d9e565b81526040808701516001600160a01b0390811660209384015260008b8152600480855290839020855181549084166001600160a01b031991821617825586860151600183018054918616918316919091179055938601516002820155606086015160038201805491909416941693909317909155608084015180519293610b349392850192910190612cc0565b5060a0820151600582015560c082015160068201805491151560ff1983168117825560e08501519261ff001990911661ffff1990911617610100836003811115610b8057610b80612d9e565b021790555061010091909101516006909101805462010000600160b01b031916620100006001600160a01b039384160217905560035460405163133165fb60e31b81528b8316600482015291169063998b2fd890602401600060405180830381600087803b158015610bf157600080fd5b505af1158015610c05573d6000803e3d6000fd5b50506001546060890151604080890151905163d09d03a360e01b81526001600160a01b03909316945063d09d03a39350610c53926004019182526001600160a01b0316602082015260400190565b600060405180830381600087803b158015610c6d57600080fd5b505af1158015610c81573d6000803e3d6000fd5b50505050608086015160e087015160408681015190516001600160a01b038d169333938c936000805160206138a383398151915293610cc6939291899160009061363b565b60405180910390a450505050505092915050565b610ce2612b92565b6001600160a01b038116610d435760405162461bcd60e51b815260206004820152602260248201527f496e76616c6964205472616e73616374696f6e4d616e61676572206164647265604482015261737360f01b6064820152608401610555565b600180546001600160a01b0319166001600160a01b0383169081179091556040517f3bc3af46ee56a7b5246248b8e24bb285f23d745c278db873d49f66c027a19f2b90600090a250565b610d95612b92565b6001600160a01b038116610df55760405162461bcd60e51b815260206004820152602160248201527f496e76616c69642041726269747261746f724d616e61676572206164647265736044820152607360f81b6064820152608401610555565b600380546001600160a01b0319166001600160a01b0383169081179091556040517f5501b7dfdd6860a14bdbc85c3ca16cf46242ad8c30ffecaaf2dbc192ef761bfc90600090a250565b610e47612b92565b6001600160a01b038116610e9d5760405162461bcd60e51b815260206004820152601960248201527f496e76616c6964205a6b536572766963652061646472657373000000000000006044820152606401610555565b600080546001600160a01b0319166001600160a01b038316908117825560405190917f89f8f878479acf261604346b8864312704f9de61c236e83a48afc4d87d93b19a91a250565b60008181526004602081815260408084206002548251631e4432d760e11b81529251919486946001600160a01b0390921693633c8865ae93818301939290918290030181865afa158015610f3d573d6000803e3d6000fd5b505050506040513d601f19601f82011682018060405250810190610f619190613622565b90506000612710828460050154610f7891906136bf565b610f8291906136dc565b95945050505050565b600554604051632b7531e160e21b81526004810183905260009182918291829182916001600160a01b03169063add4c78490602401600060405180830381865afa158015610fdd573d6000803e3d6000fd5b505050506040513d6000823e601f3d908101601f1916820160405261100591908101906136fe565b9296509094509250905082158061101b57508151155b8061102557508051155b1561105a576040805180820182526002815261269b60f11b6020820152905162461bcd60e51b8152610555919060040161323e565b8315611090576040805180820182526002815261533760f01b6020820152905162461bcd60e51b8152610555919060040161323e565b600154604051632800dfab60e21b8152600481018590526000916001600160a01b03169063a0037eac9060240160c060405180830381865afa1580156110da573d6000803e3d6000fd5b505050506040513d601f19601f820116820180604052508101906110fe919061333d565b80519091506001600160a01b03161580611123575060208101516001600160a01b0316155b1561115857604080518082018252600281526109a760f31b6020820152905162461bcd60e51b8152610555919060040161323e565b8681602001518260600151600260405160200161117894939291906133ca565b60408051601f198184030181529181528151602092830120600081815260049093529120549096506001600160a01b0316156111de5760408051808201825260028152614d3960f01b6020820152905162461bcd60e51b8152610555919060040161323e565b60015460405163537bcc5560e01b8152600481018690526000916001600160a01b03169063537bcc5590602401600060405180830381865afa158015611228573d6000803e3d6000fd5b505050506040513d6000823e601f3d908101601f19168201604052611250919081019061377b565b9050805160000361128b576040805180820182526002815261533560f01b6020820152905162461bcd60e51b8152610555919060040161323e565b83805190602001208180519060200120146112d0576040805180820182526002815261299b60f11b6020820152905162461bcd60e51b8152610555919060040161323e565b60035460208301516040516326415b0f60e21b81526001600160a01b03918216600482015260009291909116906399056c3c90602401600060405180830381865afa158015611323573d6000803e3d6000fd5b505050506040513d6000823e601f3d908101601f1916820160405261134b9190810190613096565b9050806101200151805190602001208480519060200120146113975760408051808201825260028152614d3760f01b6020820152905162461bcd60e51b8152610555919060040161323e565b600354602084015160405163014f6b1960e41b81526001600160a01b03918216600482015260009291909116906314f6b19090602401602060405180830381865afa1580156113ea573d6000803e3d6000fd5b505050506040513d601f19601f8201168201806040525081019061140e9190613622565b90508060000361144857604080518082018252600281526109c760f31b6020820152905162461bcd60e51b8152610555919060040161323e565b604051806101200160405280336001600160a01b0316815260200185602001516001600160a01b03168152602001836080015181526020018360c001516001600160a01b031681526020018360e001518152602001828152602001600015158152602001600260038111156114bf576114bf612d9e565b81526040808701516001600160a01b0390811660209384015260008d8152600480855290839020855181549084166001600160a01b03199182161782558686015160018301805491861691831691909117905593860151600282015560608601516003820180549190941694169390931790915560808401518051929361154c9392850192910190612cc0565b5060a0820151600582015560c082015160068201805491151560ff1983168117825560e08501519261ff001990911661ffff199091161761010083600381111561159857611598612d9e565b021790555061010091909101516006909101805462010000600160b01b031916620100006001600160a01b0393841602179055600354602086015160405163133165fb60e31b8152908316600482015291169063998b2fd890602401600060405180830381600087803b15801561160e57600080fd5b505af1158015611622573d6000803e3d6000fd5b50506001546060850151604080890151905163d09d03a360e01b81526001600160a01b03909316945063d09d03a39350611670926004019182526001600160a01b0316602082015260400190565b600060405180830381600087803b15801561168a57600080fd5b505af115801561169e573d6000803e3d6000fd5b5050505083602001516001600160a01b0316336001600160a01b03168a6000805160206138a383398151915285608001518660e00151868a60400151600260038111156116ed576116ed612d9e565b6040516116fe95949392919061363b565b60405180910390a45050505050505050919050565b61171b612b92565b6001600160a01b0381166117845760405162461bcd60e51b815260206004820152602a60248201527f496e76616c6964205369676e617475726556616c69646174696f6e53657276696044820152696365206164647265737360b01b6064820152608401610555565b600580546001600160a01b0319166001600160a01b0383169081179091556040517f477f891f776a7f2e5d05a03ba599cad3b3715530049fc949bf6dc5d7e825c77790600090a250565b6117d6612b92565b6117e06000612bed565b565b6000818152600460205260409020600681015460ff161561182d576040805180820182526002815261134d60f21b6020820152905162461bcd60e51b8152610555919060040161323e565b600281015415801561184157506004810154155b156118765760408051808201825260028152614d3560f01b6020820152905162461bcd60e51b8152610555919060040161323e565b60068101546201000090046001600160a01b03166118be57604080518082018252600281526105a360f41b6020820152905162461bcd60e51b8152610555919060040161323e565b604051635a91e24f60e01b8152600481018390526000903090635a91e24f90602401602060405180830381865afa1580156118fd573d6000803e3d6000fd5b505050506040513d601f19601f820116820180604052508101906119219190613622565b90508034101561195b576040805180820182526002815261543560f01b6020820152905162461bcd60e51b8152610555919060040161323e565b60068201805460ff19166001179055600282015415611a1657600682015460028301546040516000926201000090046001600160a01b031691908381818185875af1925050503d80600081146119cd576040519150601f19603f3d011682016040523d82523d6000602084013e6119d2565b606091505b5050905080611a145760405162461bcd60e51b815260206004820152600e60248201526d151c985b9cd9995c91985a5b195960921b6044820152606401610555565b505b60005b6004830154811015611aea57600383015460068401546004850180546001600160a01b03938416936323b872dd933093620100009091049091169186908110611a6457611a646137af565b6000918252602090912001546040516001600160e01b031960e086901b1681526001600160a01b0393841660048201529290911660248301526044820152606401600060405180830381600087803b158015611abf57600080fd5b505af1158015611ad3573d6000803e3d6000fd5b505050508080611ae2906137c5565b915050611a19565b506002546040805163045b2b8560e51b815290516000926001600160a01b031691638b6570a09160048083019260209291908290030181865afa158015611b35573d6000803e3d6000fd5b505050506040513d601f19601f82011682018060405250810190611b5991906137de565b6040519091506001600160a01b0382169083156108fc029084906000818181858888f19350505050158015611b92573d6000803e3d6000fd5b50600082341115611c3557611ba783346137fb565b604051909150600090339083908381818185875af1925050503d8060008114611bec576040519150601f19603f3d011682016040523d82523d6000602084013e611bf1565b606091505b5050905080611c335760405162461bcd60e51b815260206004820152600e60248201526d151c985b9cd9995c91985a5b195960921b6044820152606401610555565b505b60068401546002850154604051620100009092046001600160a01b031691339188917fa6a4bd55cab187f1d44eb0f7fde59c599b88b1f8db6e4f916348d93ef1ad695091611c8b9160048b01908a90899061380e565b60405180910390a45050505050565b6001546040516313b86fa160e31b81526004810183905260009182916001600160a01b0390911690639dc37d089060240160c060405180830381865afa158015611ce8573d6000803e3d6000fd5b505050506040513d601f19601f82011682018060405250810190611d0c919061333d565b6020808201516060830151604051939450611d2c938793600191016133ca565b60408051601f198184030181529181528151602092830120600081815260049093529120549092506001600160a01b031615611d925760408051808201825260028152614d3960f01b6020820152905162461bcd60e51b8152610555919060040161323e565b600154604051630814936760e41b8152600481018590526000916001600160a01b031690638149367090602401600060405180830381865afa158015611ddc573d6000803e3d6000fd5b505050506040513d6000823e601f3d908101601f19168201604052611e049190810190613280565b9050600281608001516006811115611e1e57611e1e612d9e565b14611e53576040805180820182526002815261269960f11b6020820152905162461bcd60e51b8152610555919060040161323e565b60025460408051632b6f600d60e01b815290516000926001600160a01b031691632b6f600d9160048083019260209291908290030181865afa158015611e9d573d6000803e3d6000fd5b505050506040513d601f19601f82011682018060405250810190611ec19190613622565b905042818360400151611ed4919061386b565b1115611f0a5760408051808201825260028152614d3360f01b6020820152905162461bcd60e51b8152610555919060040161323e565b60035460208401516040516326415b0f60e21b81526001600160a01b03918216600482015260009291909116906399056c3c90602401600060405180830381865afa158015611f5d573d6000803e3d6000fd5b505050506040513d6000823e601f3d908101601f19168201604052611f859190810190613096565b600354602086015160405163014f6b1960e41b81526001600160a01b0391821660048201529293506000929116906314f6b19090602401602060405180830381865afa158015611fd9573d6000803e3d6000fd5b505050506040513d601f19601f82011682018060405250810190611ffd9190613622565b90508060000361203757604080518082018252600281526109c760f31b6020820152905162461bcd60e51b8152610555919060040161323e565b604051806101200160405280336001600160a01b0316815260200186602001516001600160a01b03168152602001836080015181526020018360c001516001600160a01b031681526020018360e001518152602001828152602001600015158152602001600160038111156120ae576120ae612d9e565b81526060808801516001600160a01b0390811660209384015260008a81526004808552604091829020865181549085166001600160a01b031991821617825587870151600183018054918716918316919091179055928701516002820155938601516003850180549190941692169190911790915560808401518051929361213c9392850192910190612cc0565b5060a0820151600582015560c082015160068201805491151560ff1983168117825560e08501519261ff001990911661ffff199091161761010083600381111561218857612188612d9e565b021790555061010091909101516006909101805462010000600160b01b031916620100006001600160a01b0393841602179055600354602087015160405163133165fb60e31b8152908316600482015291169063998b2fd890602401600060405180830381600087803b1580156121fe57600080fd5b505af1158015612212573d6000803e3d6000fd5b50506001546060808601519089015160405163d09d03a360e01b81526001600160a01b03909316945063d09d03a39350612260926004019182526001600160a01b0316602082015260400190565b600060405180830381600087803b15801561227a57600080fd5b505af115801561228e573d6000803e3d6000fd5b5050505084602001516001600160a01b0316336001600160a01b0316876000805160206138a383398151915285608001518660e00151868b60600151600160038111156122dd576122dd612d9e565b6040516122ee95949392919061363b565b60405180910390a45050505050919050565b6001546040516313b86fa160e31b81526004810183905260009182916001600160a01b0390911690639dc37d089060240160c060405180830381865afa15801561234e573d6000803e3d6000fd5b505050506040513d601f19601f82011682018060405250810190612372919061333d565b60208101519091506001600160a01b031633146123b95760408051808201825260028152614d3160f01b6020820152905162461bcd60e51b8152610555919060040161323e565b600154604051637577b6df60e01b8152600481018590526000916001600160a01b031690637577b6df9060240160408051808303816000875af1158015612404573d6000803e3d6000fd5b505050506040513d601f19601f82011682018060405250810190612428919061387e565b5060035460208401516040516326415b0f60e21b81526001600160a01b0391821660048201529293506000929116906399056c3c90602401600060405180830381865afa15801561247d573d6000803e3d6000fd5b505050506040513d6000823e601f3d908101601f191682016040526124a59190810190613096565b90506000858460200151836101c0015160036040516020016124ca94939291906133ca565b60408051601f198184030181529181528151602092830120600081815260049093529120549091506001600160a01b0316156125305760408051808201825260028152614d3960f01b6020820152905162461bcd60e51b8152610555919060040161323e565b60408051610120810182523381526020868101516001600160a01b03908116828401908152838501888152600060608601818152875182815280870189526080880190815260a088018c9052600160c08901819052600360e08a018190526101c08d015188166101008b01528b85526004808a529a909420895181549089166001600160a01b0319918216178255965191810180549289169288169290921790915593516002850155905191830180549290951691909316179092555180519394919361260593928501929190910190612cc0565b5060a0820151600582015560c082015160068201805491151560ff1983168117825560e08501519261ff001990911661ffff199091161761010083600381111561265157612651612d9e565b021790555061010091909101516006909101805462010000600160b01b031916620100006001600160a01b039384160217905560208501511633826000805160206138a38339815191528660006040519080825280602002602001820160405280156126c7578160200160208202803683370190505b506101c08801516040516126e19392918b9160039061363b565b60405180910390a495945050505050565b6126fa612b92565b6001600160a01b0381166127505760405162461bcd60e51b815260206004820152601d60248201527f496e76616c696420436f6e6669674d616e6167657220616464726573730000006044820152606401610555565b600280546001600160a01b0319166001600160a01b0383169081179091556040517f6a801685c5950e3d8ece256f75ca0ff31ed0ae02aeae73f8180ff32e978a2f6b90600090a250565b6000818152600460205260408120600681015460ff16156127be5750600092915050565b6005015492915050565b6127d0612b92565b6001600160a01b0381166127fa57604051631e4fbdf760e01b815260006004820152602401610555565b61280381612bed565b50565b7ff0c57e16840df040f15088dc2f81fe391c3923bec73e23a9662efc9c229c6a008054600160401b810460ff1615906001600160401b031660008115801561284b5750825b90506000826001600160401b031660011480156128675750303b155b905081158015612875575080155b156128935760405163f92ee8a960e01b815260040160405180910390fd5b845467ffffffffffffffff1916600117855583156128bd57845460ff60401b1916600160401b1785555b6128c633612c5e565b6001600160a01b03891615806128e357506001600160a01b038816155b806128f557506001600160a01b038716155b8061290757506001600160a01b038616155b1561293c57604080518082018252600281526105a360f41b6020820152905162461bcd60e51b8152610555919060040161323e565b600080546001600160a01b03808c166001600160a01b031992831617909255600280548b8416908316179055600380548a8416908316179055600580549289169290911691909117905583156129cc57845460ff60401b19168555604051600181527fc7f505b2f371ae2175ee4913f4499e1f2633a7b5936321eed1cdaeb6115181d29060200160405180910390a15b505050505050505050565b8051825114612a10576040805180820182526002815261055360f41b6020820152905162461bcd60e51b8152610555919060040161323e565b60005b8251811015612b8d57818181518110612a2e57612a2e6137af565b602002602001015160000151838281518110612a4c57612a4c6137af565b60200260200101516000015114612a8d576040805180820182526002815261055360f41b6020820152905162461bcd60e51b8152610555919060040161323e565b818181518110612a9f57612a9f6137af565b60200260200101516020015163ffffffff16838281518110612ac357612ac36137af565b60200260200101516020015163ffffffff1614612b0a576040805180820182526002815261055360f41b6020820152905162461bcd60e51b8152610555919060040161323e565b818181518110612b1c57612b1c6137af565b602002602001015160600151838281518110612b3a57612b3a6137af565b60200260200101516060015114612b7b576040805180820182526002815261055360f41b6020820152905162461bcd60e51b8152610555919060040161323e565b80612b85816137c5565b915050612a13565b505050565b33612bc47f9016d09d72d40fdae2fd8ceac6b6234c7706214fd39c1cd1e609a0528c199300546001600160a01b031690565b6001600160a01b0316146117e05760405163118cdaa760e01b8152336004820152602401610555565b7f9016d09d72d40fdae2fd8ceac6b6234c7706214fd39c1cd1e609a0528c19930080546001600160a01b031981166001600160a01b03848116918217845560405192169182907f8be0079c531659141344cd1fd0a4f28419497f9722a3daafe3b4186f6b6457e090600090a3505050565b612c66612c6f565b61280381612cb8565b7ff0c57e16840df040f15088dc2f81fe391c3923bec73e23a9662efc9c229c6a0054600160401b900460ff166117e057604051631afcd79f60e31b815260040160405180910390fd5b6127d0612c6f565b828054828255906000526020600020908101928215612cfb579160200282015b82811115612cfb578251825591602001919060010190612ce0565b50612d07929150612d0b565b5090565b5b80821115612d075760008155600101612d0c565b6001600160a01b038116811461280357600080fd5b60008060408385031215612d4857600080fd5b8235612d5381612d20565b946020939093013593505050565b600060208284031215612d7357600080fd5b8135612d7e81612d20565b9392505050565b600060208284031215612d9757600080fd5b5035919050565b634e487b7160e01b600052602160045260246000fd5b6001600160a01b03898116825288811660208301526040820188905286811660608301526080820186905284151560a083015261010082019060048510612e0b57634e487b7160e01b600052602160045260246000fd5b8460c084015280841660e0840152509998505050505050505050565b60008060008060808587031215612e3d57600080fd5b8435612e4881612d20565b93506020850135612e5881612d20565b92506040850135612e6881612d20565b91506060850135612e7881612d20565b939692955090935050565b634e487b7160e01b600052604160045260246000fd5b60405161020081016001600160401b0381118282101715612ebc57612ebc612e83565b60405290565b60405161010081016001600160401b0381118282101715612ebc57612ebc612e83565b60405160c081016001600160401b0381118282101715612ebc57612ebc612e83565b604051608081016001600160401b0381118282101715612ebc57612ebc612e83565b604051601f8201601f191681016001600160401b0381118282101715612f5157612f51612e83565b604052919050565b8051612f6481612d20565b919050565b80518015158114612f6457600080fd5b60006001600160401b03821115612f9257612f92612e83565b5060051b60200190565b600082601f830112612fad57600080fd5b81516020612fc2612fbd83612f79565b612f29565b82815260059290921b84018101918181019086841115612fe157600080fd5b8286015b84811015612ffc5780518352918301918301612fe5565b509695505050505050565b60005b8381101561302257818101518382015260200161300a565b50506000910152565b600082601f83011261303c57600080fd5b81516001600160401b0381111561305557613055612e83565b613068601f8201601f1916602001612f29565b81815284602083860101111561307d57600080fd5b61308e826020830160208701613007565b949350505050565b6000602082840312156130a857600080fd5b81516001600160401b03808211156130bf57600080fd5b9083019061020082860312156130d457600080fd5b6130dc612e99565b6130e583612f59565b81526130f360208401612f69565b602082015260408301516040820152606083015160608201526080830151608082015261312260a08401612f59565b60a082015261313360c08401612f59565b60c082015260e08301518281111561314a57600080fd5b61315687828601612f9c565b60e08301525061010061316a818501612f59565b90820152610120838101518381111561318257600080fd5b61318e8882870161302b565b82840152505061014080840151838111156131a857600080fd5b6131b48882870161302b565b82840152505061016080840151818301525061018080840151838111156131da57600080fd5b6131e68882870161302b565b8284015250506101a0808401518381111561320057600080fd5b61320c8882870161302b565b8284015250506101c09150613222828401612f59565b918101919091526101e091820151918101919091529392505050565b602081526000825180602084015261325d816040850160208701613007565b601f01601f19169190910160400192915050565b805160078110612f6457600080fd5b60006020828403121561329257600080fd5b81516001600160401b03808211156132a957600080fd5b9083019061010082860312156132be57600080fd5b6132c6612ec2565b825181526020830151602082015260408301516040820152606083015160608201526132f460808401613271565b608082015260a083015160a082015260c08301518281111561331557600080fd5b6133218782860161302b565b60c08301525060e083015160e082015280935050505092915050565b600060c0828403121561334f57600080fd5b613357612ee5565b825161336281612d20565b8152602083015161337281612d20565b6020820152604083015161338581612d20565b6040820152606083015161339881612d20565b606082015260808301516133ab81612d20565b608082015260a08301516133be81612d20565b60a08201529392505050565b84815260006bffffffffffffffffffffffff19808660601b166020840152808560601b166034840152506004831061341257634e487b7160e01b600052602160045260246000fd5b5060f89190911b60488201526049019392505050565b600082601f83011261343957600080fd5b81516020613449612fbd83612f79565b82815260059290921b8401810191818101908684111561346857600080fd5b8286015b84811015612ffc5780516001600160401b038082111561348c5760008081fd5b908801906080828b03601f19018113156134a65760008081fd5b6134ae612f07565b87840151815260408085015163ffffffff811681146134cd5760008081fd5b828a0152606085810151858111156134e55760008081fd5b6134f38f8c838a010161302b565b928401929092529490920151938101939093525050835291830191830161346c565b60006020828403121561352757600080fd5b81516001600160401b038082111561353e57600080fd5b9083019060c0828603121561355257600080fd5b61355a612ee5565b8251815260208301518281111561357057600080fd5b61357c8782860161302b565b6020830152506040830151604082015260608301518281111561359e57600080fd5b6135aa8782860161302b565b6060830152506135bc60808401612f69565b608082015260a0830151828111156135d357600080fd5b6135df87828601613428565b60a08301525095945050505050565b60006020828403121561360057600080fd5b81516001600160401b0381111561361657600080fd5b61308e84828501613428565b60006020828403121561363457600080fd5b5051919050565b600060a08201878352602060a08185015281885180845260c086019150828a01935060005b8181101561367c57845183529383019391830191600101613660565b505060408501979097525050506001600160a01b0392909216606083015260ff1660809091015292915050565b634e487b7160e01b600052601160045260246000fd5b80820281158282048414176136d6576136d66136a9565b92915050565b6000826136f957634e487b7160e01b600052601260045260246000fd5b500490565b6000806000806080858703121561371457600080fd5b61371d85612f69565b93506020850151925060408501516001600160401b038082111561374057600080fd5b61374c8883890161302b565b9350606087015191508082111561376257600080fd5b5061376f8782880161302b565b91505092959194509250565b60006020828403121561378d57600080fd5b81516001600160401b038111156137a357600080fd5b61308e8482850161302b565b634e487b7160e01b600052603260045260246000fd5b6000600182016137d7576137d76136a9565b5060010190565b6000602082840312156137f057600080fd5b8151612d7e81612d20565b818103818111156136d6576136d66136a9565b600060808201868352602060808185015281875480845260a0860191508860005282600020935060005b8181101561385457845483526001948501949284019201613838565b505060408501969096525050506060015292915050565b808201808211156136d6576136d66136a9565b6000806040838503121561389157600080fd5b50508051602090910151909290915056feb9e0ad71af9252e1922aa65a5543f63b7ef69d1cbe0b60793ec8adaff1991817a2646970667358221220339175982577b23af65d236ae7dc131f2b4de10ed3e951ac0c97c370f3841b8b64736f6c63430008140033",
  "linkReferences": {},
  "deployedLinkReferences": {}
}