{
  "_format": "hh-sol-artifact-1",
  "contractName": "ConfigManager",
  "sourceName": "contracts/core/ConfigManager.sol",
  "abi": [
    {
      "inputs": [],
      "stateMutability": "nonpayable",
      "type": "constructor"
    },
    {
      "inputs": [],
      "name": "InvalidInitialization",
      "type": "error"
    },
    {
      "inputs": [],
      "name": "NotInitializing",
      "type": "error"
    },
    {
      "inputs": [
        {
          "internalType": "address",
          "name": "owner",
          "type": "address"
        }
      ],
      "name": "OwnableInvalidOwner",
      "type": "error"
    },
    {
      "inputs": [
        {
          "internalType": "address",
          "name": "account",
          "type": "address"
        }
      ],
      "name": "OwnableUnauthorizedAccount",
      "type": "error"
    },
    {
      "anonymous": false,
      "inputs": [
        {
          "indexed": true,
          "internalType": "bytes32",
          "name": "key",
          "type": "bytes32"
        },
        {
          "indexed": false,
          "internalType": "uint256",
          "name": "oldValue",
          "type": "uint256"
        },
        {
          "indexed": false,
          "internalType": "uint256",
          "name": "newValue",
          "type": "uint256"
        }
      ],
      "name": "ConfigUpdated",
      "type": "event"
    },
    {
      "anonymous": false,
      "inputs": [
        {
          "indexed": false,
          "internalType": "uint64",
          "name": "version",
          "type": "uint64"
        }
      ],
      "name": "Initialized",
      "type": "event"
    },
    {
      "anonymous": false,
      "inputs": [
        {
          "indexed": true,
          "internalType": "address",
          "name": "previousOwner",
          "type": "address"
        },
        {
          "indexed": true,
          "internalType": "address",
          "name": "newOwner",
          "type": "address"
        }
      ],
      "name": "OwnershipTransferred",
      "type": "event"
    },
    {
      "inputs": [],
      "name": "ARBITRATION_BTC_FEE_RATE",
      "outputs": [
        {
          "internalType": "bytes32",
          "name": "",
          "type": "bytes32"
        }
      ],
      "stateMutability": "view",
      "type": "function"
    },
    {
      "inputs": [],
      "name": "ARBITRATION_FROZEN_PERIOD",
      "outputs": [
        {
          "internalType": "bytes32",
          "name": "",
          "type": "bytes32"
        }
      ],
      "stateMutability": "view",
      "type": "function"
    },
    {
      "inputs": [],
      "name": "ARBITRATION_TIMEOUT",
      "outputs": [
        {
          "internalType": "bytes32",
          "name": "",
          "type": "bytes32"
        }
      ],
      "stateMutability": "view",
      "type": "function"
    },
    {
      "inputs": [],
      "name": "MAX_STAKE",
      "outputs": [
        {
          "internalType": "bytes32",
          "name": "",
          "type": "bytes32"
        }
      ],
      "stateMutability": "view",
      "type": "function"
    },
    {
      "inputs": [],
      "name": "MAX_TRANSACTION_DURATION",
      "outputs": [
        {
          "internalType": "bytes32",
          "name": "",
          "type": "bytes32"
        }
      ],
      "stateMutability": "view",
      "type": "function"
    },
    {
      "inputs": [],
      "name": "MIN_STAKE",
      "outputs": [
        {
          "internalType": "bytes32",
          "name": "",
          "type": "bytes32"
        }
      ],
      "stateMutability": "view",
      "type": "function"
    },
    {
      "inputs": [],
      "name": "MIN_STAKE_LOCKED_TIME",
      "outputs": [
        {
          "internalType": "bytes32",
          "name": "",
          "type": "bytes32"
        }
      ],
      "stateMutability": "view",
      "type": "function"
    },
    {
      "inputs": [],
      "name": "MIN_TRANSACTION_DURATION",
      "outputs": [
        {
          "internalType": "bytes32",
          "name": "",
          "type": "bytes32"
        }
      ],
      "stateMutability": "view",
      "type": "function"
    },
    {
      "inputs": [],
      "name": "SYSTEM_COMPENSATION_FEE_RATE",
      "outputs": [
        {
          "internalType": "bytes32",
          "name": "",
          "type": "bytes32"
        }
      ],
      "stateMutability": "view",
      "type": "function"
    },
    {
      "inputs": [],
      "name": "SYSTEM_FEE_COLLECTOR",
      "outputs": [
        {
          "internalType": "bytes32",
          "name": "",
          "type": "bytes32"
        }
      ],
      "stateMutability": "view",
      "type": "function"
    },
    {
      "inputs": [],
      "name": "SYSTEM_FEE_RATE",
      "outputs": [
        {
          "internalType": "bytes32",
          "name": "",
          "type": "bytes32"
        }
      ],
      "stateMutability": "view",
      "type": "function"
    },
    {
      "inputs": [],
      "name": "TRANSACTION_MIN_FEE_RATE",
      "outputs": [
        {
          "internalType": "bytes32",
          "name": "",
          "type": "bytes32"
        }
      ],
      "stateMutability": "view",
      "type": "function"
    },
    {
      "inputs": [],
      "name": "getAllConfigs",
      "outputs": [
        {
          "internalType": "bytes32[]",
          "name": "keys",
          "type": "bytes32[]"
        },
        {
          "internalType": "uint256[]",
          "name": "values",
          "type": "uint256[]"
        }
      ],
      "stateMutability": "view",
      "type": "function"
    },
    {
      "inputs": [],
      "name": "getArbitrationBTCFeeRate",
      "outputs": [
        {
          "internalType": "uint256",
          "name": "",
          "type": "uint256"
        }
      ],
      "stateMutability": "view",
      "type": "function"
    },
    {
      "inputs": [],
      "name": "getArbitrationFrozenPeriod",
      "outputs": [
        {
          "internalType": "uint256",
          "name": "",
          "type": "uint256"
        }
      ],
      "stateMutability": "view",
      "type": "function"
    },
    {
      "inputs": [],
      "name": "getArbitrationTimeout",
      "outputs": [
        {
          "internalType": "uint256",
          "name": "",
          "type": "uint256"
        }
      ],
      "stateMutability": "view",
      "type": "function"
    },
    {
      "inputs": [
        {
          "internalType": "bytes32",
          "name": "key",
          "type": "bytes32"
        }
      ],
      "name": "getConfig",
      "outputs": [
        {
          "internalType": "uint256",
          "name": "",
          "type": "uint256"
        }
      ],
      "stateMutability": "view",
      "type": "function"
    },
    {
      "inputs": [],
      "name": "getSystemCompensationFeeRate",
      "outputs": [
        {
          "internalType": "uint256",
          "name": "",
          "type": "uint256"
        }
      ],
      "stateMutability": "view",
      "type": "function"
    },
    {
      "inputs": [],
      "name": "getSystemFeeCollector",
      "outputs": [
        {
          "internalType": "address",
          "name": "",
          "type": "address"
        }
      ],
      "stateMutability": "view",
      "type": "function"
    },
    {
      "inputs": [],
      "name": "getSystemFeeRate",
      "outputs": [
        {
          "internalType": "uint256",
          "name": "",
          "type": "uint256"
        }
      ],
      "stateMutability": "view",
      "type": "function"
    },
    {
      "inputs": [],
      "name": "initialize",
      "outputs": [],
      "stateMutability": "nonpayable",
      "type": "function"
    },
    {
      "inputs": [],
      "name": "owner",
      "outputs": [
        {
          "internalType": "address",
          "name": "",
          "type": "address"
        }
      ],
      "stateMutability": "view",
      "type": "function"
    },
    {
      "inputs": [],
      "name": "renounceOwnership",
      "outputs": [],
      "stateMutability": "nonpayable",
      "type": "function"
    },
    {
      "inputs": [
        {
          "internalType": "uint256",
          "name": "feeRate",
          "type": "uint256"
        }
      ],
      "name": "setArbitrationBTCFeeRate",
      "outputs": [],
      "stateMutability": "nonpayable",
      "type": "function"
    },
    {
      "inputs": [
        {
          "internalType": "uint256",
          "name": "period",
          "type": "uint256"
        }
      ],
      "name": "setArbitrationFrozenPeriod",
      "outputs": [],
      "stateMutability": "nonpayable",
      "type": "function"
    },
    {
      "inputs": [
        {
          "internalType": "uint256",
          "name": "timeout",
          "type": "uint256"
        }
      ],
      "name": "setArbitrationTimeout",
      "outputs": [],
      "stateMutability": "nonpayable",
      "type": "function"
    },
    {
      "inputs": [
        {
          "internalType": "bytes32[]",
          "name": "keys",
          "type": "bytes32[]"
        },
        {
          "internalType": "uint256[]",
          "name": "values",
          "type": "uint256[]"
        }
      ],
      "name": "setConfigs",
      "outputs": [],
      "stateMutability": "nonpayable",
      "type": "function"
    },
    {
      "inputs": [
        {
          "internalType": "uint256",
          "name": "amount",
          "type": "uint256"
        }
      ],
      "name": "setMaxStake",
      "outputs": [],
      "stateMutability": "nonpayable",
      "type": "function"
    },
    {
      "inputs": [
        {
          "internalType": "uint256",
          "name": "duration",
          "type": "uint256"
        }
      ],
      "name": "setMaxTransactionDuration",
      "outputs": [],
      "stateMutability": "nonpayable",
      "type": "function"
    },
    {
      "inputs": [
        {
          "internalType": "uint256",
          "name": "amount",
          "type": "uint256"
        }
      ],
      "name": "setMinStake",
      "outputs": [],
      "stateMutability": "nonpayable",
      "type": "function"
    },
    {
      "inputs": [
        {
          "internalType": "uint256",
          "name": "time",
          "type": "uint256"
        }
      ],
      "name": "setMinStakeLockedTime",
      "outputs": [],
      "stateMutability": "nonpayable",
      "type": "function"
    },
    {
      "inputs": [
        {
          "internalType": "uint256",
          "name": "duration",
          "type": "uint256"
        }
      ],
      "name": "setMinTransactionDuration",
      "outputs": [],
      "stateMutability": "nonpayable",
      "type": "function"
    },
    {
      "inputs": [
        {
          "internalType": "uint256",
          "name": "rate",
          "type": "uint256"
        }
      ],
      "name": "setSystemCompensationFeeRate",
      "outputs": [],
      "stateMutability": "nonpayable",
      "type": "function"
    },
    {
      "inputs": [
        {
          "internalType": "address",
          "name": "collector",
          "type": "address"
        }
      ],
      "name": "setSystemFeeCollector",
      "outputs": [],
      "stateMutability": "nonpayable",
      "type": "function"
    },
    {
      "inputs": [
        {
          "internalType": "uint256",
          "name": "rate",
          "type": "uint256"
        }
      ],
      "name": "setSystemFeeRate",
      "outputs": [],
      "stateMutability": "nonpayable",
      "type": "function"
    },
    {
      "inputs": [
        {
          "internalType": "uint256",
          "name": "rate",
          "type": "uint256"
        }
      ],
      "name": "setTransactionMinFeeRate",
      "outputs": [],
      "stateMutability": "nonpayable",
      "type": "function"
    },
    {
      "inputs": [
        {
          "internalType": "address",
          "name": "newOwner",
          "type": "address"
        }
      ],
      "name": "transferOwnership",
      "outputs": [],
      "stateMutability": "nonpayable",
      "type": "function"
    }
  ],
  "bytecode": "0x608060405234801561001057600080fd5b5061001961001e565b6100d0565b7ff0c57e16840df040f15088dc2f81fe391c3923bec73e23a9662efc9c229c6a00805468010000000000000000900460ff161561006e5760405163f92ee8a960e01b815260040160405180910390fd5b80546001600160401b03908116146100cd5780546001600160401b0319166001600160401b0390811782556040519081527fc7f505b2f371ae2175ee4913f4499e1f2633a7b5936321eed1cdaeb6115181d29060200160405180910390a15b50565b611a36806100df6000396000f3fe608060405234801561001057600080fd5b50600436106102275760003560e01c80636fc1483711610130578063a53f844f116100b8578063cc9157b71161007c578063cc9157b7146105ae578063cd4abbcb146105c1578063e6feb4f3146105d4578063e78c9363146105e9578063f2fde38b146105fc57600080fd5b8063a53f844f14610547578063b466844d1461055a578063b46d9ff71461056f578063c98517c514610584578063cb1c2b5c1461059957600080fd5b80638129fc1c116100ff5780638129fc1c146104ef5780638b6570a0146104f75780638c80fd90146105175780638da5cb5b1461052a578063a1ba73441461053257600080fd5b80636fc14837146104ae578063715018a6146104c15780637869bdd9146104c95780637c16f1bc146104dc57600080fd5b806350e610b4116101b357806358d0b1471161018257806358d0b147146104125780635c97b6e1146104275780635ece5e321461043a57806363507956146104785780636dd5b69d1461048e57600080fd5b806350e610b414610370578063552efc82146103ae57806355f50acc146103c15780635670ef72146103ff57600080fd5b80633918a846116101fa5780633918a846146102ce5780633c8865ae146102e3578063400bec77146103215780634a700a9d146103345780634b74d9ca1461034957600080fd5b80630868b0421461022c57806309c71c031461024157806310460065146102695780632b6f600d14610290575b600080fd5b61023f61023a366004611699565b61060f565b005b6102566000805160206118c183398151915281565b6040519081526020015b60405180910390f35b6102567f8f589203cf1469152b6891bfec4d1037191a00847decb605045205b8d2c419f081565b6000805160206118c183398151915260009081526020527f9180475faa5598bd671d18c2e73a090c51d6e4c22382770d80ff4f5359ffb66954610256565b61025660008051602061192183398151915281565b60008051602061194183398151915260009081526020527f1273dc24968734fd6716e4443b1b490a1d2263bc285c9f2109e7b8972350fafa54610256565b61023f61032f366004611699565b610697565b6102566000805160206119a183398151915281565b6102567fc919595274e5e6882421c3b30662e7d18eb2b09181b22c8f941f70ad25c9668581565b6000805160206118a183398151915260009081526020527fb4ebefe1c2bb30334c2647c39d91c3bc2b86bc444dc7ed06c1d3ab50c8052f3454610256565b61023f6103bc3660046116b2565b610705565b6000805160206119e183398151915260009081526020527ff6c7527c8b4831b709f7aa1c373f61283e9fe8790d1d66c1366e553f3b73f77a54610256565b61023f61040d36600461172e565b6107c4565b61025660008051602061198183398151915281565b61023f610435366004611699565b6108ff565b6000805160206119a183398151915260009081526020527f207fb48e2de38b1702af3ecad91ef3dcd50020cef182ed6f6531e9ea41972ecb54610256565b61048061096d565b60405161026092919061179a565b61025661049c366004611699565b60009081526020819052604090205490565b61023f6104bc366004611699565b610c70565b61023f610d5b565b61023f6104d7366004611699565b610d6f565b61023f6104ea366004611699565b610ddd565b61023f610e5d565b6104ff611127565b6040516001600160a01b039091168152602001610260565b61023f610525366004611699565b61117c565b6104ff611269565b6102566000805160206118a183398151915281565b61023f610555366004611699565b611297565b6102566000805160206119e183398151915281565b6102566000805160206118e183398151915281565b6102566000805160206119c183398151915281565b61025660008051602061190183398151915281565b61023f6105bc366004611699565b611305565b61023f6105cf366004611699565b6113fa565b61025660008051602061194183398151915281565b61023f6105f7366004611699565b611468565b61023f61060a3660046116b2565b611556565b610617611594565b7f8f589203cf1469152b6891bfec4d1037191a00847decb605045205b8d2c419f0600081815260209081527fd4dc9d022ea66284bf3759878e1770176314bb36aaa222128064ad39ef2e78408054908490556040805182815292830185905290929160008051602061196183398151915291015b60405180910390a25050565b61069f611594565b6000805160206118c1833981519152600081815260209081527f9180475faa5598bd671d18c2e73a090c51d6e4c22382770d80ff4f5359ffb66980549084905560408051828152928301859052909291600080516020611961833981519152910161068b565b61070d611594565b6001600160a01b03811661075457604080518082018252600281526105a360f41b6020820152905162461bcd60e51b815261074b9190600401611815565b60405180910390fd5b6000805160206118e183398151915260008181526020527f3adec799e625fbcf9a9e6abd7129347c0d136e03b8c2b85a7bc847978c47995d80546001600160a01b038416918290556040519092916000805160206119618339815191529161068b91858252602082015260400190565b6107cc611594565b82811461080357604080518082018252600281526104c360f41b6020820152905162461bcd60e51b815261074b9190600401611815565b60005b838110156108f857600080600087878581811061082557610825611863565b90506020020135815260200190815260200160002054905083838381811061084f5761084f611863565b9050602002013560008088888681811061086b5761086b611863565b9050602002013581526020019081526020016000208190555085858381811061089657610896611863565b90506020020135600080516020611961833981519152828686868181106108bf576108bf611863565b905060200201356040516108dd929190918252602082015260400190565b60405180910390a250806108f081611879565b915050610806565b5050505050565b610907611594565b6000805160206118a1833981519152600081815260209081527fb4ebefe1c2bb30334c2647c39d91c3bc2b86bc444dc7ed06c1d3ab50c8052f3480549084905560408051828152928301859052909291600080516020611961833981519152910161068b565b60408051600c8082526101a082019092526060918291906020820161018080368337505060408051600c8082526101a0820190925292945090506020820161018080368337019050509050600080516020611901833981519152826000815181106109da576109da611863565b6020026020010181815250506000805160206119c183398151915282600181518110610a0857610a08611863565b6020026020010181815250507f8f589203cf1469152b6891bfec4d1037191a00847decb605045205b8d2c419f082600281518110610a4857610a48611863565b60200260200101818152505060008051602061192183398151915282600381518110610a7657610a76611863565b60200260200101818152505060008051602061198183398151915282600481518110610aa457610aa4611863565b6020026020010181815250507fc919595274e5e6882421c3b30662e7d18eb2b09181b22c8f941f70ad25c9668582600581518110610ae457610ae4611863565b6020026020010181815250506000805160206118c183398151915282600681518110610b1257610b12611863565b6020026020010181815250506000805160206119a183398151915282600781518110610b4057610b40611863565b6020026020010181815250506000805160206118a183398151915282600881518110610b6e57610b6e611863565b60200260200101818152505060008051602061194183398151915282600981518110610b9c57610b9c611863565b6020026020010181815250506000805160206118e183398151915282600a81518110610bca57610bca611863565b6020026020010181815250506000805160206119e183398151915282600b81518110610bf857610bf8611863565b60200260200101818152505060005b8251811015610c6b57600080848381518110610c2557610c25611863565b6020026020010151815260200190815260200160002054828281518110610c4e57610c4e611863565b602090810291909101015280610c6381611879565b915050610c07565b509091565b610c78611594565b60008051602061190183398151915260009081526020527f8bafc881ab8770d3aa3c40a001af1a259c4daead43125889a41a0df74b95df7b548111610cf55760405162461bcd60e51b815260206004820152601360248201527226a0ac2fa9aa20a5a2afa122a627abafa6a4a760691b604482015260640161074b565b6000805160206119c1833981519152600081815260209081527f51ac12cdf0151e6aa80713607543060d53398bb18ee7490680ae53a7f3b7a5d580549084905560408051828152928301859052909291600080516020611961833981519152910161068b565b610d63611594565b610d6d60006115c6565b565b610d77611594565b600080516020611941833981519152600081815260209081527f1273dc24968734fd6716e4443b1b490a1d2263bc285c9f2109e7b8972350fafa80549084905560408051828152928301859052909291600080516020611961833981519152910161068b565b610de5611594565b7fc919595274e5e6882421c3b30662e7d18eb2b09181b22c8f941f70ad25c96685600081815260209081527f93e2898a7ee2cc0245ce84b51d23cf640698dbafe7113348e9ffbd937319eb7580549084905560408051828152928301859052909291600080516020611961833981519152910161068b565b7ff0c57e16840df040f15088dc2f81fe391c3923bec73e23a9662efc9c229c6a008054600160401b810460ff16159067ffffffffffffffff16600081158015610ea35750825b905060008267ffffffffffffffff166001148015610ec05750303b155b905081158015610ece575080155b15610eec5760405163f92ee8a960e01b815260040160405180910390fd5b845467ffffffffffffffff191660011785558315610f1657845460ff60401b1916600160401b1785555b610f1f33611637565b60006020819052670de0b6b3a76400007f8bafc881ab8770d3aa3c40a001af1a259c4daead43125889a41a0df74b95df7b5568056bc75e2d631000007f51ac12cdf0151e6aa80713607543060d53398bb18ee7490680ae53a7f3b7a5d55562093a807fd4dc9d022ea66284bf3759878e1770176314bb36aaa222128064ad39ef2e784055620151807feb2d9762322eda69d1229fed9cd144289eed5219d3d6c156e84fe513b33e612d81905562278d007f0606a183f408ed27cd9d043212a6d33aa8f4b829614c8aacaaea09b483cbb1c55560647f93e2898a7ee2cc0245ce84b51d23cf640698dbafe7113348e9ffbd937319eb75557f9180475faa5598bd671d18c2e73a090c51d6e4c22382770d80ff4f5359ffb669556107087f207fb48e2de38b1702af3ecad91ef3dcd50020cef182ed6f6531e9ea41972ecb556101f47fb4ebefe1c2bb30334c2647c39d91c3bc2b86bc444dc7ed06c1d3ab50c8052f345560c87f1273dc24968734fd6716e4443b1b490a1d2263bc285c9f2109e7b8972350fafa556000805160206119e183398151915290526103e87ff6c7527c8b4831b709f7aa1c373f61283e9fe8790d1d66c1366e553f3b73f77a5583156108f857845460ff60401b19168555604051600181527fc7f505b2f371ae2175ee4913f4499e1f2633a7b5936321eed1cdaeb6115181d29060200160405180910390a15050505050565b6000805160206118e1833981519152600090815260208190527f3adec799e625fbcf9a9e6abd7129347c0d136e03b8c2b85a7bc847978c47995d5480820361117757611171611269565b91505090565b919050565b611184611594565b6000805160206119c183398151915260009081526020527f51ac12cdf0151e6aa80713607543060d53398bb18ee7490680ae53a7f3b7a5d55481106112035760405162461bcd60e51b815260206004820152601560248201527409a929cbea6a882968abe8ab0868a8a88a6be9a82b605b1b604482015260640161074b565b600080516020611901833981519152600081815260209081527f8bafc881ab8770d3aa3c40a001af1a259c4daead43125889a41a0df74b95df7b80549084905560408051828152928301859052909291600080516020611961833981519152910161068b565b7f9016d09d72d40fdae2fd8ceac6b6234c7706214fd39c1cd1e609a0528c199300546001600160a01b031690565b61129f611594565b6000805160206119e1833981519152600081815260209081527ff6c7527c8b4831b709f7aa1c373f61283e9fe8790d1d66c1366e553f3b73f77a80549084905560408051828152928301859052909291600080516020611961833981519152910161068b565b61130d611594565b60008051602061198183398151915260009081526020527f0606a183f408ed27cd9d043212a6d33aa8f4b829614c8aacaaea09b483cbb1c55481106113945760405162461bcd60e51b815260206004820152601860248201527f4d494e5f4455524154494f4e5f455843454544535f4d41580000000000000000604482015260640161074b565b600080516020611921833981519152600081815260209081527feb2d9762322eda69d1229fed9cd144289eed5219d3d6c156e84fe513b33e612d80549084905560408051828152928301859052909291600080516020611961833981519152910161068b565b611402611594565b6000805160206119a1833981519152600081815260209081527f207fb48e2de38b1702af3ecad91ef3dcd50020cef182ed6f6531e9ea41972ecb80549084905560408051828152928301859052909291600080516020611961833981519152910161068b565b611470611594565b60008051602061192183398151915260009081526020527feb2d9762322eda69d1229fed9cd144289eed5219d3d6c156e84fe513b33e612d5481116114f05760405162461bcd60e51b815260206004820152601660248201527526a0ac2fa22aa920aa24a7a72fa122a627abafa6a4a760511b604482015260640161074b565b600080516020611981833981519152600081815260209081527f0606a183f408ed27cd9d043212a6d33aa8f4b829614c8aacaaea09b483cbb1c580549084905560408051828152928301859052909291600080516020611961833981519152910161068b565b61155e611594565b6001600160a01b03811661158857604051631e4fbdf760e01b81526000600482015260240161074b565b611591816115c6565b50565b3361159d611269565b6001600160a01b031614610d6d5760405163118cdaa760e01b815233600482015260240161074b565b7f9016d09d72d40fdae2fd8ceac6b6234c7706214fd39c1cd1e609a0528c19930080546001600160a01b031981166001600160a01b03848116918217845560405192169182907f8be0079c531659141344cd1fd0a4f28419497f9722a3daafe3b4186f6b6457e090600090a3505050565b61163f611648565b61159181611691565b7ff0c57e16840df040f15088dc2f81fe391c3923bec73e23a9662efc9c229c6a0054600160401b900460ff16610d6d57604051631afcd79f60e31b815260040160405180910390fd5b61155e611648565b6000602082840312156116ab57600080fd5b5035919050565b6000602082840312156116c457600080fd5b81356001600160a01b03811681146116db57600080fd5b9392505050565b60008083601f8401126116f457600080fd5b50813567ffffffffffffffff81111561170c57600080fd5b6020830191508360208260051b850101111561172757600080fd5b9250929050565b6000806000806040858703121561174457600080fd5b843567ffffffffffffffff8082111561175c57600080fd5b611768888389016116e2565b9096509450602087013591508082111561178157600080fd5b5061178e878288016116e2565b95989497509550505050565b604080825283519082018190526000906020906060840190828701845b828110156117d3578151845292840192908401906001016117b7565b5050508381038285015284518082528583019183019060005b81811015611808578351835292840192918401916001016117ec565b5090979650505050505050565b600060208083528351808285015260005b8181101561184257858101830151858201604001528201611826565b506000604082860101526040601f19601f8301168501019250505092915050565b634e487b7160e01b600052603260045260246000fd5b60006001820161189957634e487b7160e01b600052601160045260246000fd5b506001019056fed91f20541e9312a0f4d27f0f0ba02500035307ac99ea67c86c8342ab3fd71bc5f67cbfc49efbe49cfda2049f4fae02cff32ce41383dd9cd151875b60a92f872bab24f8bdba3ac1714795343236c2c4f2f4ec1dc7852ad6c62c7d11680c9f1a58a2cacd4c4a17915c9b22ff024458e28713037852123218861ef99f8b37b23424251496a2e9229b930e5943f3c3e4da6cb786017948b856c9d455ed9cf0fc156c4d71e6d712d945d50e1827c705441b1e232ecaaeb195788524f5523b0785b0a2ac2ccce3de9c0816ae772598f7f65fe69f9893b637f7c490497378cbb3ea043ed31f84da73b6cb3a8c2e853a7c46b1c95600fc6ab5acdbeb4f7f16e875c25ab80e223b97d7f941cfc1eaa79302686d0fb0d9628e1d7a65633e700791f0beecce6ce6c3872790fbf28e7fa6102c9021f882ca7c1af8a947c293f9d8c6a5537a5f2c9eb164fc8de1173f171678f1197986f0b3f15d9a3d955f91b9bb812394135da2646970667358221220b6533bcf966479347ef3df74597a95e57602a3d5948b30738d14d2647d150c8d64736f6c63430008140033",
  "linkReferences": {},
  "deployedLinkReferences": {}
}