{
  "_format": "hh-sol-artifact-1",
  "contractName": "TransactionManager",
  "sourceName": "contracts/core/TransactionManager.sol",
  "abi": [
    {
      "inputs": [],
      "stateMutability": "nonpayable",
      "type": "constructor"
    },
    {
      "inputs": [],
      "name": "InvalidInitialization",
      "type": "error"
    },
    {
      "inputs": [],
      "name": "NotInitializing",
      "type": "error"
    },
    {
      "inputs": [
        {
          "internalType": "address",
          "name": "owner",
          "type": "address"
        }
      ],
      "name": "OwnableInvalidOwner",
      "type": "error"
    },
    {
      "inputs": [
        {
          "internalType": "address",
          "name": "account",
          "type": "address"
        }
      ],
      "name": "OwnableUnauthorizedAccount",
      "type": "error"
    },
    {
      "inputs": [],
      "name": "ReentrancyGuardReentrantCall",
      "type": "error"
    },
    {
      "anonymous": false,
      "inputs": [
        {
          "indexed": true,
          "internalType": "bytes32",
          "name": "txId",
          "type": "bytes32"
        },
        {
          "indexed": true,
          "internalType": "address",
          "name": "dapp",
          "type": "address"
        },
        {
          "indexed": false,
          "internalType": "address",
          "name": "arbitrator",
          "type": "address"
        },
        {
          "indexed": false,
          "internalType": "bytes",
          "name": "rawData",
          "type": "bytes"
        },
        {
          "indexed": false,
          "internalType": "bytes",
          "name": "script",
          "type": "bytes"
        },
        {
          "indexed": false,
          "internalType": "address",
          "name": "timeoutCompensationReceiver",
          "type": "address"
        }
      ],
      "name": "ArbitrationRequested",
      "type": "event"
    },
    {
      "anonymous": false,
      "inputs": [
        {
          "indexed": true,
          "internalType": "bytes32",
          "name": "txId",
          "type": "bytes32"
        },
        {
          "indexed": true,
          "internalType": "address",
          "name": "dapp",
          "type": "address"
        },
        {
          "indexed": true,
          "internalType": "address",
          "name": "arbitrator",
          "type": "address"
        },
        {
          "indexed": false,
          "internalType": "bytes",
          "name": "btcTxSignature",
          "type": "bytes"
        }
      ],
      "name": "ArbitrationSubmitted",
      "type": "event"
    },
    {
      "anonymous": false,
      "inputs": [
        {
          "indexed": true,
          "internalType": "address",
          "name": "newParser",
          "type": "address"
        }
      ],
      "name": "BTCAddressParserChanged",
      "type": "event"
    },
    {
      "anonymous": false,
      "inputs": [
        {
          "indexed": true,
          "internalType": "address",
          "name": "newBtcBlockHeaders",
          "type": "address"
        }
      ],
      "name": "BtcBlockHeadersChanged",
      "type": "event"
    },
    {
      "anonymous": false,
      "inputs": [
        {
          "indexed": true,
          "internalType": "address",
          "name": "newBtcUtils",
          "type": "address"
        }
      ],
      "name": "BtcUtilsChanged",
      "type": "event"
    },
    {
      "anonymous": false,
      "inputs": [
        {
          "indexed": true,
          "internalType": "address",
          "name": "newConfigManager",
          "type": "address"
        }
      ],
      "name": "ConfigManagerUpdated",
      "type": "event"
    },
    {
      "anonymous": false,
      "inputs": [
        {
          "indexed": true,
          "internalType": "bytes32",
          "name": "id",
          "type": "bytes32"
        },
        {
          "indexed": true,
          "internalType": "bytes32",
          "name": "txHash",
          "type": "bytes32"
        },
        {
          "indexed": false,
          "internalType": "uint256",
          "name": "blockHeight",
          "type": "uint256"
        }
      ],
      "name": "DAppFeeTransactionSet",
      "type": "event"
    },
    {
      "anonymous": false,
      "inputs": [
        {
          "indexed": true,
          "internalType": "bytes32",
          "name": "txId",
          "type": "bytes32"
        },
        {
          "indexed": true,
          "internalType": "address",
          "name": "revenueETHAddress",
          "type": "address"
        },
        {
          "indexed": false,
          "internalType": "uint256",
          "name": "arbitratorFee",
          "type": "uint256"
        },
        {
          "indexed": false,
          "internalType": "uint256",
          "name": "systemFee",
          "type": "uint256"
        },
        {
          "indexed": false,
          "internalType": "uint256",
          "name": "refundedFee",
          "type": "uint256"
        }
      ],
      "name": "DepositFeeTransfer",
      "type": "event"
    },
    {
      "anonymous": false,
      "inputs": [
        {
          "indexed": false,
          "internalType": "uint64",
          "name": "version",
          "type": "uint64"
        }
      ],
      "name": "Initialized",
      "type": "event"
    },
    {
      "anonymous": false,
      "inputs": [
        {
          "indexed": true,
          "internalType": "address",
          "name": "previousOwner",
          "type": "address"
        },
        {
          "indexed": true,
          "internalType": "address",
          "name": "newOwner",
          "type": "address"
        }
      ],
      "name": "OwnershipTransferred",
      "type": "event"
    },
    {
      "anonymous": false,
      "inputs": [
        {
          "indexed": true,
          "internalType": "address",
          "name": "arbitratorManager",
          "type": "address"
        }
      ],
      "name": "SetArbitratorManager",
      "type": "event"
    },
    {
      "anonymous": false,
      "inputs": [
        {
          "indexed": true,
          "internalType": "bytes32",
          "name": "txId",
          "type": "bytes32"
        },
        {
          "indexed": true,
          "internalType": "address",
          "name": "dapp",
          "type": "address"
        },
        {
          "indexed": true,
          "internalType": "address",
          "name": "arbitrator",
          "type": "address"
        },
        {
          "indexed": false,
          "internalType": "uint256",
          "name": "timestamp",
          "type": "uint256"
        }
      ],
      "name": "TransactionClosedUnpaid",
      "type": "event"
    },
    {
      "anonymous": false,
      "inputs": [
        {
          "indexed": true,
          "internalType": "bytes32",
          "name": "txId",
          "type": "bytes32"
        },
        {
          "indexed": true,
          "internalType": "address",
          "name": "dapp",
          "type": "address"
        }
      ],
      "name": "TransactionCompleted",
      "type": "event"
    },
    {
      "anonymous": false,
      "inputs": [
        {
          "indexed": true,
          "internalType": "bytes32",
          "name": "id",
          "type": "bytes32"
        },
        {
          "indexed": true,
          "internalType": "address",
          "name": "dapp",
          "type": "address"
        },
        {
          "indexed": true,
          "internalType": "address",
          "name": "arbitrator",
          "type": "address"
        },
        {
          "indexed": false,
          "internalType": "uint256",
          "name": "deadline",
          "type": "uint256"
        },
        {
          "indexed": false,
          "internalType": "uint256",
          "name": "depositFee",
          "type": "uint256"
        },
        {
          "indexed": false,
          "internalType": "uint256",
          "name": "btcFee",
          "type": "uint256"
        },
        {
          "indexed": false,
          "internalType": "address",
          "name": "compensationReceiver",
          "type": "address"
        },
        {
          "indexed": false,
          "internalType": "uint256",
          "name": "timestamp",
          "type": "uint256"
        },
        {
          "indexed": false,
          "internalType": "string",
          "name": "btcFeeAddress",
          "type": "string"
        }
      ],
      "name": "TransactionRegistered",
      "type": "event"
    },
    {
      "anonymous": false,
      "inputs": [
        {
          "indexed": true,
          "internalType": "bytes32",
          "name": "txId",
          "type": "bytes32"
        },
        {
          "indexed": true,
          "internalType": "address",
          "name": "dapp",
          "type": "address"
        }
      ],
      "name": "UTXOsUploaded",
      "type": "event"
    },
    {
      "inputs": [],
      "name": "arbitratorManager",
      "outputs": [
        {
          "internalType": "contract IArbitratorManager",
          "name": "",
          "type": "address"
        }
      ],
      "stateMutability": "view",
      "type": "function"
    },
    {
      "inputs": [],
      "name": "assetOracle",
      "outputs": [
        {
          "internalType": "contract IAssetOracle",
          "name": "",
          "type": "address"
        }
      ],
      "stateMutability": "view",
      "type": "function"
    },
    {
      "inputs": [],
      "name": "btcAddressParser",
      "outputs": [
        {
          "internalType": "contract IBtcAddress",
          "name": "",
          "type": "address"
        }
      ],
      "stateMutability": "view",
      "type": "function"
    },
    {
      "inputs": [],
      "name": "btcBlockHeaders",
      "outputs": [
        {
          "internalType": "contract IBtcBlockHeaders",
          "name": "",
          "type": "address"
        }
      ],
      "stateMutability": "view",
      "type": "function"
    },
    {
      "inputs": [],
      "name": "btcUtils",
      "outputs": [
        {
          "internalType": "contract IBTCUtils",
          "name": "",
          "type": "address"
        }
      ],
      "stateMutability": "view",
      "type": "function"
    },
    {
      "inputs": [
        {
          "internalType": "bytes32",
          "name": "id",
          "type": "bytes32"
        }
      ],
      "name": "closeUnpaidTransaction",
      "outputs": [],
      "stateMutability": "nonpayable",
      "type": "function"
    },
    {
      "inputs": [],
      "name": "compensationManager",
      "outputs": [
        {
          "internalType": "address",
          "name": "",
          "type": "address"
        }
      ],
      "stateMutability": "view",
      "type": "function"
    },
    {
      "inputs": [
        {
          "internalType": "bytes32",
          "name": "id",
          "type": "bytes32"
        }
      ],
      "name": "completeTransaction",
      "outputs": [],
      "stateMutability": "nonpayable",
      "type": "function"
    },
    {
      "inputs": [
        {
          "internalType": "bytes32",
          "name": "id",
          "type": "bytes32"
        },
        {
          "internalType": "address",
          "name": "receivedCompensationAddress",
          "type": "address"
        }
      ],
      "name": "completeTransactionWithSlash",
      "outputs": [],
      "stateMutability": "nonpayable",
      "type": "function"
    },
    {
      "inputs": [],
      "name": "configManager",
      "outputs": [
        {
          "internalType": "contract IConfigManager",
          "name": "",
          "type": "address"
        }
      ],
      "stateMutability": "view",
      "type": "function"
    },
    {
      "inputs": [],
      "name": "dappRegistry",
      "outputs": [
        {
          "internalType": "contract IDAppRegistry",
          "name": "",
          "type": "address"
        }
      ],
      "stateMutability": "view",
      "type": "function"
    },
    {
      "inputs": [
        {
          "internalType": "bytes32",
          "name": "id",
          "type": "bytes32"
        }
      ],
      "name": "getTransactionBtcRawDataById",
      "outputs": [
        {
          "internalType": "bytes",
          "name": "",
          "type": "bytes"
        }
      ],
      "stateMutability": "view",
      "type": "function"
    },
    {
      "inputs": [
        {
          "internalType": "bytes32",
          "name": "id",
          "type": "bytes32"
        }
      ],
      "name": "getTransactionDataById",
      "outputs": [
        {
          "components": [
            {
              "internalType": "uint256",
              "name": "startTime",
              "type": "uint256"
            },
            {
              "internalType": "uint256",
              "name": "deadline",
              "type": "uint256"
            },
            {
              "internalType": "uint256",
              "name": "requestArbitrationTime",
              "type": "uint256"
            },
            {
              "internalType": "uint256",
              "name": "depositedFee",
              "type": "uint256"
            },
            {
              "internalType": "enum DataTypes.TransactionStatus",
              "name": "status",
              "type": "uint8"
            },
            {
              "internalType": "uint256",
              "name": "arbitratorBtcFee",
              "type": "uint256"
            },
            {
              "internalType": "string",
              "name": "btcFeeAddress",
              "type": "string"
            },
            {
              "internalType": "bytes32",
              "name": "btcFeeTxHash",
              "type": "bytes32"
            }
          ],
          "internalType": "struct DataTypes.TransactionData",
          "name": "",
          "type": "tuple"
        }
      ],
      "stateMutability": "view",
      "type": "function"
    },
    {
      "inputs": [
        {
          "internalType": "bytes32",
          "name": "txHash",
          "type": "bytes32"
        }
      ],
      "name": "getTransactionDataByTxHash",
      "outputs": [
        {
          "components": [
            {
              "internalType": "uint256",
              "name": "startTime",
              "type": "uint256"
            },
            {
              "internalType": "uint256",
              "name": "deadline",
              "type": "uint256"
            },
            {
              "internalType": "uint256",
              "name": "requestArbitrationTime",
              "type": "uint256"
            },
            {
              "internalType": "uint256",
              "name": "depositedFee",
              "type": "uint256"
            },
            {
              "internalType": "enum DataTypes.TransactionStatus",
              "name": "status",
              "type": "uint8"
            },
            {
              "internalType": "uint256",
              "name": "arbitratorBtcFee",
              "type": "uint256"
            },
            {
              "internalType": "string",
              "name": "btcFeeAddress",
              "type": "string"
            },
            {
              "internalType": "bytes32",
              "name": "btcFeeTxHash",
              "type": "bytes32"
            }
          ],
          "internalType": "struct DataTypes.TransactionData",
          "name": "",
          "type": "tuple"
        }
      ],
      "stateMutability": "view",
      "type": "function"
    },
    {
      "inputs": [
        {
          "internalType": "bytes32",
          "name": "id",
          "type": "bytes32"
        }
      ],
      "name": "getTransactionPartiesById",
      "outputs": [
        {
          "components": [
            {
              "internalType": "address",
              "name": "dapp",
              "type": "address"
            },
            {
              "internalType": "address",
              "name": "arbitrator",
              "type": "address"
            },
            {
              "internalType": "address",
              "name": "compensationReceiver",
              "type": "address"
            },
            {
              "internalType": "address",
              "name": "timeoutCompensationReceiver",
              "type": "address"
            },
            {
              "internalType": "address",
              "name": "refundAddress",
              "type": "address"
            },
            {
              "internalType": "address",
              "name": "depositedFeeRefundAddress",
              "type": "address"
            }
          ],
          "internalType": "struct DataTypes.TransactionParties",
          "name": "",
          "type": "tuple"
        }
      ],
      "stateMutability": "view",
      "type": "function"
    },
    {
      "inputs": [
        {
          "internalType": "bytes32",
          "name": "txHash",
          "type": "bytes32"
        }
      ],
      "name": "getTransactionPartiesByTxHash",
      "outputs": [
        {
          "components": [
            {
              "internalType": "address",
              "name": "dapp",
              "type": "address"
            },
            {
              "internalType": "address",
              "name": "arbitrator",
              "type": "address"
            },
            {
              "internalType": "address",
              "name": "compensationReceiver",
              "type": "address"
            },
            {
              "internalType": "address",
              "name": "timeoutCompensationReceiver",
              "type": "address"
            },
            {
              "internalType": "address",
              "name": "refundAddress",
              "type": "address"
            },
            {
              "internalType": "address",
              "name": "depositedFeeRefundAddress",
              "type": "address"
            }
          ],
          "internalType": "struct DataTypes.TransactionParties",
          "name": "",
          "type": "tuple"
        }
      ],
      "stateMutability": "view",
      "type": "function"
    },
    {
      "inputs": [
        {
          "internalType": "bytes32",
          "name": "id",
          "type": "bytes32"
        }
      ],
      "name": "getTransactionSignHashById",
      "outputs": [
        {
          "internalType": "bytes32",
          "name": "",
          "type": "bytes32"
        }
      ],
      "stateMutability": "view",
      "type": "function"
    },
    {
      "inputs": [
        {
          "internalType": "bytes32",
          "name": "id",
          "type": "bytes32"
        }
      ],
      "name": "getTransactionSignatureById",
      "outputs": [
        {
          "internalType": "bytes",
          "name": "",
          "type": "bytes"
        }
      ],
      "stateMutability": "view",
      "type": "function"
    },
    {
      "inputs": [
        {
          "internalType": "bytes32",
          "name": "txHash",
          "type": "bytes32"
        }
      ],
      "name": "getTransactionSignatureByTxHash",
      "outputs": [
        {
          "internalType": "bytes",
          "name": "",
          "type": "bytes"
        }
      ],
      "stateMutability": "view",
      "type": "function"
    },
    {
      "inputs": [
        {
          "internalType": "bytes32",
          "name": "id",
          "type": "bytes32"
        }
      ],
      "name": "getTransactionStatus",
      "outputs": [
        {
          "internalType": "enum DataTypes.TransactionStatus",
          "name": "status",
          "type": "uint8"
        }
      ],
      "stateMutability": "view",
      "type": "function"
    },
    {
      "inputs": [
        {
          "internalType": "bytes32",
          "name": "id",
          "type": "bytes32"
        }
      ],
      "name": "getTransactionUTXOsById",
      "outputs": [
        {
          "components": [
            {
              "internalType": "bytes32",
              "name": "txHash",
              "type": "bytes32"
            },
            {
              "internalType": "uint32",
              "name": "index",
              "type": "uint32"
            },
            {
              "internalType": "bytes",
              "name": "script",
              "type": "bytes"
            },
            {
              "internalType": "uint256",
              "name": "amount",
              "type": "uint256"
            }
          ],
          "internalType": "struct DataTypes.UTXO[]",
          "name": "",
          "type": "tuple[]"
        }
      ],
      "stateMutability": "view",
      "type": "function"
    },
    {
      "inputs": [
        {
          "internalType": "address",
          "name": "_arbitratorManager",
          "type": "address"
        },
        {
          "internalType": "address",
          "name": "_dappRegistry",
          "type": "address"
        },
        {
          "internalType": "address",
          "name": "_configManager",
          "type": "address"
        },
        {
          "internalType": "address",
          "name": "_compensationManager",
          "type": "address"
        },
        {
          "internalType": "address",
          "name": "_btcUtils",
          "type": "address"
        },
        {
          "internalType": "address",
          "name": "_btcAddressParser",
          "type": "address"
        }
      ],
      "name": "initialize",
      "outputs": [],
      "stateMutability": "nonpayable",
      "type": "function"
    },
    {
      "inputs": [
        {
          "internalType": "bytes32",
          "name": "id",
          "type": "bytes32"
        }
      ],
      "name": "isAbleCompletedTransaction",
      "outputs": [
        {
          "internalType": "bool",
          "name": "",
          "type": "bool"
        }
      ],
      "stateMutability": "view",
      "type": "function"
    },
    {
      "inputs": [],
      "name": "owner",
      "outputs": [
        {
          "internalType": "address",
          "name": "",
          "type": "address"
        }
      ],
      "stateMutability": "view",
      "type": "function"
    },
    {
      "inputs": [
        {
          "components": [
            {
              "internalType": "address",
              "name": "arbitrator",
              "type": "address"
            },
            {
              "internalType": "uint256",
              "name": "deadline",
              "type": "uint256"
            },
            {
              "internalType": "address",
              "name": "compensationReceiver",
              "type": "address"
            },
            {
              "internalType": "address",
              "name": "refundAddress",
              "type": "address"
            }
          ],
          "internalType": "struct ITransactionManager.RegisterData",
          "name": "data",
          "type": "tuple"
        }
      ],
      "name": "registerTransaction",
      "outputs": [
        {
          "internalType": "bytes32",
          "name": "",
          "type": "bytes32"
        },
        {
          "internalType": "string",
          "name": "",
          "type": "string"
        }
      ],
      "stateMutability": "payable",
      "type": "function"
    },
    {
      "inputs": [],
      "name": "renounceOwnership",
      "outputs": [],
      "stateMutability": "nonpayable",
      "type": "function"
    },
    {
      "inputs": [
        {
          "components": [
            {
              "internalType": "bytes32",
              "name": "id",
              "type": "bytes32"
            },
            {
              "internalType": "bytes",
              "name": "rawData",
              "type": "bytes"
            },
            {
              "internalType": "enum DataTypes.SignDataType",
              "name": "signDataType",
              "type": "uint8"
            },
            {
              "internalType": "uint8",
              "name": "signHashFlag",
              "type": "uint8"
            },
            {
              "internalType": "bytes",
              "name": "script",
              "type": "bytes"
            },
            {
              "internalType": "address",
              "name": "timeoutCompensationReceiver",
              "type": "address"
            }
          ],
          "internalType": "struct DataTypes.ArbitrationData",
          "name": "data",
          "type": "tuple"
        }
      ],
      "name": "requestArbitration",
      "outputs": [],
      "stateMutability": "nonpayable",
      "type": "function"
    },
    {
      "inputs": [
        {
          "internalType": "address",
          "name": "_arbitratorManager",
          "type": "address"
        }
      ],
      "name": "setArbitratorManager",
      "outputs": [],
      "stateMutability": "nonpayable",
      "type": "function"
    },
    {
      "inputs": [
        {
          "internalType": "address",
          "name": "_btcAddressParser",
          "type": "address"
        }
      ],
      "name": "setBTCAddressParser",
      "outputs": [],
      "stateMutability": "nonpayable",
      "type": "function"
    },
    {
      "inputs": [
        {
          "internalType": "address",
          "name": "_btcBlockHeaders",
          "type": "address"
        }
      ],
      "name": "setBtcBlockHeaders",
      "outputs": [],
      "stateMutability": "nonpayable",
      "type": "function"
    },
    {
      "inputs": [
        {
          "internalType": "address",
          "name": "_btcUtils",
          "type": "address"
        }
      ],
      "name": "setBtcUtils",
      "outputs": [],
      "stateMutability": "nonpayable",
      "type": "function"
    },
    {
      "inputs": [
        {
          "internalType": "address",
          "name": "_configManager",
          "type": "address"
        }
      ],
      "name": "setConfigManager",
      "outputs": [],
      "stateMutability": "nonpayable",
      "type": "function"
    },
    {
      "inputs": [
        {
          "internalType": "bytes32",
          "name": "id",
          "type": "bytes32"
        },
        {
          "internalType": "bytes",
          "name": "rawData",
          "type": "bytes"
        },
        {
          "internalType": "bytes32[]",
          "name": "merkleProof",
          "type": "bytes32[]"
        },
        {
          "internalType": "uint256",
          "name": "index",
          "type": "uint256"
        },
        {
          "internalType": "uint32",
          "name": "blockHeight",
          "type": "uint32"
        }
      ],
      "name": "setDAppBtcFeeTransaction",
      "outputs": [],
      "stateMutability": "nonpayable",
      "type": "function"
    },
    {
      "inputs": [
        {
          "internalType": "bytes32",
          "name": "id",
          "type": "bytes32"
        },
        {
          "internalType": "bytes",
          "name": "btcTxSignature",
          "type": "bytes"
        }
      ],
      "name": "submitArbitration",
      "outputs": [],
      "stateMutability": "nonpayable",
      "type": "function"
    },
    {
      "inputs": [
        {
          "internalType": "bytes32",
          "name": "",
          "type": "bytes32"
        }
      ],
      "name": "transactionSignData",
      "outputs": [
        {
          "internalType": "bytes",
          "name": "",
          "type": "bytes"
        }
      ],
      "stateMutability": "view",
      "type": "function"
    },
    {
      "inputs": [
        {
          "internalType": "bytes32",
          "name": "id",
          "type": "bytes32"
        }
      ],
      "name": "transferArbitrationFee",
      "outputs": [
        {
          "internalType": "uint256",
          "name": "arbitratorFee",
          "type": "uint256"
        },
        {
          "internalType": "uint256",
          "name": "systemFee",
          "type": "uint256"
        }
      ],
      "stateMutability": "nonpayable",
      "type": "function"
    },
    {
      "inputs": [
        {
          "internalType": "address",
          "name": "newOwner",
          "type": "address"
        }
      ],
      "name": "transferOwnership",
      "outputs": [],
      "stateMutability": "nonpayable",
      "type": "function"
    },
    {
      "inputs": [
        {
          "internalType": "bytes32",
          "name": "",
          "type": "bytes32"
        }
      ],
      "name": "txHashToId",
      "outputs": [
        {
          "internalType": "bytes32",
          "name": "",
          "type": "bytes32"
        }
      ],
      "stateMutability": "view",
      "type": "function"
    },
    {
      "inputs": [
        {
          "internalType": "bytes32",
          "name": "id",
          "type": "bytes32"
        },
        {
          "components": [
            {
              "internalType": "bytes32",
              "name": "txHash",
              "type": "bytes32"
            },
            {
              "internalType": "uint32",
              "name": "index",
              "type": "uint32"
            },
            {
              "internalType": "bytes",
              "name": "script",
              "type": "bytes"
            },
            {
              "internalType": "uint256",
              "name": "amount",
              "type": "uint256"
            }
          ],
          "internalType": "struct DataTypes.UTXO[]",
          "name": "utxos",
          "type": "tuple[]"
        }
      ],
      "name": "uploadUTXOs",
      "outputs": [],
      "stateMutability": "nonpayable",
      "type": "function"
    }
  ],
  "bytecode": "0x60806040523480156200001157600080fd5b506200001c62000022565b620000d6565b7ff0c57e16840df040f15088dc2f81fe391c3923bec73e23a9662efc9c229c6a00805468010000000000000000900460ff1615620000735760405163f92ee8a960e01b815260040160405180910390fd5b80546001600160401b0390811614620000d35780546001600160401b0319166001600160401b0390811782556040519081527fc7f505b2f371ae2175ee4913f4499e1f2633a7b5936321eed1cdaeb6115181d29060200160405180910390a15b50565b615cfc80620000e66000396000f3fe6080604052600436106102305760003560e01c80638da5cb5b1161012e578063c258d4fc116100ab578063e1d139b21161006f578063e1d139b2146108bc578063ea97137a146108dc578063eb44c0f2146108fd578063ec9bd0c51461091d578063f2fde38b1461093d57600080fd5b8063c258d4fc1461081c578063ca0ab0751461083c578063cc2a9a5b1461085c578063d09d03a31461087c578063de0ca1661461089c57600080fd5b8063a130312a116100f2578063a130312a1461076f578063a8a0e8821461078f578063ae2db1cc146107af578063b4e25e80146107cf578063c1ce47d2146107ef57600080fd5b80638da5cb5b146104f5578063944074651461053257806397315e441461055f5780639dc37d081461059a578063a0037eac146106ad57600080fd5b80635f8b411d116101bc578063759787c411610180578063759787c414610448578063814936701461046857806384b46d6a1461048857806388727e6b146104a85780638b0ae217146104d557600080fd5b80635f8b411d1461039e57806363e877b6146103be57806366347a63146103de578063715018a6146103fe5780637577b6df1461041357600080fd5b80632c7e8ca3116102035780632c7e8ca3146102e15780634308dc8e146103015780634e4f0ec41461032e578063520936b51461034e578063537bcc551461037e57600080fd5b80630559b877146102355780630f6f9a1e146102725780631d4d3a5d1461029457806327226068146102b4575b600080fd5b34801561024157600080fd5b50600454610255906001600160a01b031681565b6040516001600160a01b0390911681526020015b60405180910390f35b34801561027e57600080fd5b5061029261028d366004614948565b61095d565b005b3480156102a057600080fd5b50601054610255906001600160a01b031681565b3480156102c057600080fd5b506102d46102cf366004614993565b610b58565b6040516102699190614a34565b3480156102ed57600080fd5b506102926102fc366004614ac1565b610c91565b34801561030d57600080fd5b5061032161031c366004614993565b610ce1565b6040516102699190614ade565b34801561033a57600080fd5b50610292610349366004614b32565b610d83565b34801561035a57600080fd5b5061036e610369366004614993565b611167565b6040519015158152602001610269565b34801561038a57600080fd5b50610321610399366004614993565b611339565b3480156103aa57600080fd5b506102926103b9366004614ac1565b611363565b3480156103ca57600080fd5b50600554610255906001600160a01b031681565b3480156103ea57600080fd5b506102926103f9366004614b70565b6113f3565b34801561040a57600080fd5b50610292611db7565b34801561041f57600080fd5b5061043361042e366004614993565b611dcb565b60408051928352602083019190915201610269565b34801561045457600080fd5b50600054610255906001600160a01b031681565b34801561047457600080fd5b506102d4610483366004614993565b6120ab565b34801561049457600080fd5b50600354610255906001600160a01b031681565b3480156104b457600080fd5b506104c86104c3366004614993565b61211e565b6040516102699190614baa565b3480156104e157600080fd5b506102926104f0366004614ac1565b612249565b34801561050157600080fd5b507f9016d09d72d40fdae2fd8ceac6b6234c7706214fd39c1cd1e609a0528c199300546001600160a01b0316610255565b34801561053e57600080fd5b5061055261054d366004614993565b6122d9565b6040516102699190614c3c565b34801561056b57600080fd5b5061058c61057a366004614993565b6000908152600c602052604090205490565b604051908152602001610269565b3480156105a657600080fd5b506106526105b5366004614993565b6040805160c081018252600080825260208201819052918101829052606081018290526080810182905260a081019190915250600090815260076020908152604091829020825160c08101845281546001600160a01b03908116825260018301548116938201939093526002820154831693810193909352600381015482166060840152600481015482166080840152600501541660a082015290565b604051610269919081516001600160a01b03908116825260208084015182169083015260408084015182169083015260608084015182169083015260808084015182169083015260a092830151169181019190915260c00190565b3480156106b957600080fd5b506106526106c8366004614993565b6040805160c081018252600080825260208201819052918101829052606081018290526080810182905260a0810191909152506000908152600e602090815260408083205483526007825291829020825160c08101845281546001600160a01b03908116825260018301548116938201939093526002820154831693810193909352600381015482166060840152600481015482166080840152600501541660a082015290565b34801561077b57600080fd5b5061029261078a366004614993565b612465565b34801561079b57600080fd5b506103216107aa366004614993565b6125b2565b3480156107bb57600080fd5b506103216107ca366004614993565b61264c565b3480156107db57600080fd5b506102926107ea366004614ac1565b612669565b3480156107fb57600080fd5b5061058c61080a366004614993565b600e6020526000908152604090205481565b34801561082857600080fd5b50610292610837366004614993565b612711565b34801561084857600080fd5b50600254610255906001600160a01b031681565b34801561086857600080fd5b50610292610877366004614c4a565b612a33565b34801561088857600080fd5b50610292610897366004614ccc565b612c4a565b3480156108a857600080fd5b50600154610255906001600160a01b031681565b3480156108c857600080fd5b50601154610255906001600160a01b031681565b6108ef6108ea366004614cfc565b612e78565b604051610269929190614d0e565b34801561090957600080fd5b50610292610918366004614ac1565b6131af565b34801561092957600080fd5b50610292610938366004614d39565b61323f565b34801561094957600080fd5b50610292610958366004614ac1565b61365a565b6001811461099e576040805180820182526002815261055360f41b6020820152905162461bcd60e51b81526109959190600401614ade565b60405180910390fd5b600083815260076020908152604080832060069283905292206004015460ff16818111156109ce576109ce6149ac565b14158015610a015750600084815260066020819052604082206004015460ff16908111156109fe576109fe6149ac565b14155b15610a365760408051808201825260028152612a1960f11b6020820152905162461bcd60e51b81526109959190600401614ade565b80546001600160a01b03163314610a7757604080518082018252600281526104e360f41b6020820152905162461bcd60e51b81526109959190600401614ade565b6000848152600b60205260409020805415610abc5760408051808201825260028152612a9960f11b6020820152905162461bcd60e51b81526109959190600401614ade565b60005b83811015610b235781858583818110610ada57610ada614dcf565b9050602002810190610aec9190614de5565b815460018101835560009283526020909220909160040201610b0e8282614fa4565b50508080610b1b90615048565b915050610abf565b50604051339086907fbe870ee46d1946169135a006725f4beb7bf05701d38e45b8d0e55892fabff1d990600090a35050505050565b610b606148ae565b6000828152600e602090815260408083205483526006808352928190208151610100810183528154815260018201549381019390935260028101549183019190915260038101546060830152600481015491929091608084019160ff90911690811115610bcf57610bcf6149ac565b6006811115610be057610be06149ac565b815260200160058201548152602001600682018054610bfe90614e61565b80601f0160208091040260200160405190810160405280929190818152602001828054610c2a90614e61565b8015610c775780601f10610c4c57610100808354040283529160200191610c77565b820191906000526020600020905b815481529060010190602001808311610c5a57829003601f168201915b505050505081526020016007820154815250509050919050565b610c99613695565b600080546001600160a01b0319166001600160a01b038316908117825560405190917fa323f9f93bbee02edb5e1034969f6ef41fb674527d2ea7e9271ad206435b58f491a250565b6000818152600960205260409020805460609190610cfe90614e61565b80601f0160208091040260200160405190810160405280929190818152602001828054610d2a90614e61565b8015610d775780601f10610d4c57610100808354040283529160200191610d77565b820191906000526020600020905b815481529060010190602001808311610d5a57829003601f168201915b50505050509050919050565b600083815260066020908152604080832060079092529091206002600483015460ff166006811115610db757610db76149ac565b14610dec5760408051808201825260028152612a1960f11b6020820152905162461bcd60e51b81526109959190600401614ade565b60408051610100810182528354815260018401546020820152600284015491810191909152600383015460608201526004830154610f0091908490608083019060ff166006811115610e4057610e406149ac565b6006811115610e5157610e516149ac565b815260200160058201548152602001600682018054610e6f90614e61565b80601f0160208091040260200160405190810160405280929190818152602001828054610e9b90614e61565b8015610ee85780601f10610ebd57610100808354040283529160200191610ee8565b820191906000526020600020905b815481529060010190602001808311610ecb57829003601f168201915b505050505081526020016007820154815250506136f0565b15610f35576040805180820182526002815261543960f01b6020820152905162461bcd60e51b81526109959190600401614ade565b6000546001820154604051630e70978b60e21b81526001600160a01b0391821660048201523360248201529116906339c25e2c90604401602060405180830381865afa158015610f89573d6000803e3d6000fd5b505050506040513d601f19601f82011682018060405250810190610fad9190615076565b610fe157604080518082018252600281526104e360f41b6020820152905162461bcd60e51b81526109959190600401614ade565b600354604051630263f12b60e61b81526001600160a01b03909116906398fc4ac09061101390879087906004016150ba565b602060405180830381865afa158015611030573d6000803e3d6000fd5b505050506040513d601f19601f820116820180604052508101906110549190615076565b611088576040805180820182526002815261553960f01b6020820152905162461bcd60e51b81526109959190600401614ade565b60048201805460ff1916600517905560008581526009602052604090206110b0848683614ee4565b50600054600182015460405163069fa0a760e51b81526001600160a01b03918216600482015291169063d3f414e090602401600060405180830381600087803b1580156110fc57600080fd5b505af1158015611110573d6000803e3d6000fd5b505082546040513393506001600160a01b03909116915087907fc3087094b1ca79d1b0196cfe915c3153df5266eba37502790ddfc1e3532d35599061115890899089906150ba565b60405180910390a45050505050565b6000818152600660208181526040808420815161010081018352815481526001820154938101939093526002810154918301919091526003810154606083015260048101548493608084019160ff16908111156111c6576111c66149ac565b60068111156111d7576111d76149ac565b8152602001600582015481526020016006820180546111f590614e61565b80601f016020809104026020016040519081016040528092919081815260200182805461122190614e61565b801561126e5780601f106112435761010080835404028352916020019161126e565b820191906000526020600020905b81548152906001019060200180831161125157829003601f168201915b505050918352505060079190910154602090910152905060068160800151600681111561129d5761129d6149ac565b036112ab5750600192915050565b6000816080015160068111156112c3576112c36149ac565b036112d15750600192915050565b6002816080015160068111156112e9576112e96149ac565b0361130a576112f7816136f0565b156113055750600192915050565b611330565b600581608001516006811115611322576113226149ac565b036113305750600192915050565b50600092915050565b6000818152600e6020908152604080832054835260099091529020805460609190610cfe90614e61565b61136b613695565b6001600160a01b0381166113a957604080518082018252600281526105a360f41b6020820152905162461bcd60e51b81526109959190600401614ade565b601180546001600160a01b0319166001600160a01b0383169081179091556040517f8734e6b78958753959661626b83b989d8602b1a72fda0e0717390776175c220290600090a250565b6113fb61378f565b600061140d60c0830160a08401614ac1565b6001600160a01b03160361144b57604080518082018252600281526105a360f41b6020820152905162461bcd60e51b81526109959190600401614ade565b8035600090815260066020526040812090600482015460ff166006811115611475576114756149ac565b146114aa5760408051808201825260028152612a1960f11b6020820152905162461bcd60e51b81526109959190600401614ade565b8060010154600260009054906101000a90046001600160a01b03166001600160a01b0316632b6f600d6040518163ffffffff1660e01b8152600401602060405180830381865afa158015611502573d6000803e3d6000fd5b505050506040513d601f19601f8201168201806040525081019061152691906150ce565b61153090426150e7565b1115611566576040805180820182526002815261553760f01b6020820152905162461bcd60e51b81526109959190600401614ade565b600161157860608401604085016150fa565b6002811115611589576115896149ac565b146115be5760408051808201825260028152610aa760f31b6020820152905162461bcd60e51b81526109959190600401614ade565b8135600090815260076020526040902080546001600160a01b0316331461160f57604080518082018252600281526104e360f41b6020820152905162461bcd60e51b81526109959190600401614ade565b82356000908152600b602052604081208054909103611658576040805180820182526002815261553360f01b6020820152905162461bcd60e51b81526109959190600401614ade565b6003546000906001600160a01b031663f64af3d36116796020880188614e05565b6040518363ffffffff1660e01b81526004016116969291906150ba565b600060405180830381865afa1580156116b3573d6000803e3d6000fd5b505050506040513d6000823e601f3d908101601f191682016040526116db9190810190615340565b82546020820151519192501461171b576040805180820182526002815261553160f01b6020820152905162461bcd60e51b81526109959190600401614ade565b60005b81602001515181101561181b5782818154811061173d5761173d614dcf565b9060005260206000209060040201600001548260200151828151811061176557611765614dcf565b6020026020010151600001511415806117d4575082818154811061178b5761178b614dcf565b60009182526020918290206001600490920201015490830151805163ffffffff90921691839081106117bf576117bf614dcf565b60200260200101516020015163ffffffff1614155b15611809576040805180820182526002815261553160f01b6020820152905162461bcd60e51b81526109959190600401614ade565b8061181381615048565b91505061171e565b5060008260008154811061183157611831614dcf565b600091825260208220600360049092020181015490549092506001600160a01b031663aca6fee8848361186760808c018c614e05565b878d606001602081019061187b91906154da565b6040518763ffffffff1660e01b815260040161189c9695949392919061556f565b600060405180830381865afa1580156118b9573d6000803e3d6000fd5b505050506040513d6000823e601f3d908101601f191682016040526118e191908101906156ac565b90506000600280836040516118f691906156e0565b602060405180830381855afa158015611913573d6000803e3d6000fd5b5050506040513d601f19601f8201168201806040525081019061193691906150ce565b60405160200161194891815260200190565b60408051601f1981840301815290829052611962916156e0565b602060405180830381855afa15801561197f573d6000803e3d6000fd5b5050506040513d601f19601f820116820180604052508101906119a291906150ce565b6000805460018901546040516326415b0f60e21b81526001600160a01b03918216600482015293945091928392909116906399056c3c90602401600060405180830381865afa1580156119f9573d6000803e3d6000fd5b505050506040513d6000823e601f3d908101601f19168201604052611a219190810190615758565b6101a00151905060005b866040015151811015611bf857600554604051632e235f3960e01b81526000916001600160a01b031690632e235f3990611a69908690600401614ade565b600060405180830381865afa158015611a86573d6000803e3d6000fd5b505050506040513d6000823e601f3d908101601f19168201604052611aae91908101906156ac565b9050808051906020012088604001518381518110611ace57611ace614dcf565b602002602001015160200151805190602001201493508315611be5576000612710600260009054906101000a90046001600160a01b03166001600160a01b03166355f50acc6040518163ffffffff1660e01b8152600401602060405180830381865afa158015611b42573d6000803e3d6000fd5b505050506040513d601f19601f82011682018060405250810190611b6691906150ce565b611b70908a615900565b611b7a919061592d565b90508089604001518481518110611b9357611b93614dcf565b6020026020010151600001516001600160401b03161015611bde576040805180820182526002815261493560f01b6020820152905162461bcd60e51b81526109959190600401614ade565b5050611bf8565b5080611bf081615048565b915050611a2b565b5081611c2e576040805180820182526002815261493360f01b6020820152905162461bcd60e51b81526109959190600401614ade565b611c3e60c08b0160a08c01614ac1565b6003890180546001600160a01b0319166001600160a01b03929092169190911790554260028a81019190915560048a01805460ff1916600183021790555089356000908152600c60209081526040909120849055611c9e908b018b614e05565b8b35600090815260086020526040902091611cba919083614ee4565b50611cc860808b018b614e05565b8b356000908152600a6020526040902091611ce4919083614ee4565b506000838152600e602090815260408083208d359055600d9091529020611d0b8582615941565b50875460018901546001600160a01b03918216918c35917f81c89bbce5115bf315ea29f7001ebabb88f6d3e4d76132bf792f2085799ed0e49116611d5260208f018f614e05565b8f8060800190611d629190614e05565b8f60030160009054906101000a90046001600160a01b0316604051611d8c96959493929190615a00565b60405180910390a3505050505050505050611db46001600080516020615ca783398151915255565b50565b611dbf613695565b611dc960006137db565b565b60045460009081906001600160a01b03163314611e125760408051808201825260028152614e3760f01b6020820152905162461bcd60e51b81526109959190600401614ade565b6000838152600760209081526040808320815160c08101835281546001600160a01b0390811682526001808401548216838701526002808501548316848701526003808601548416606080870191909152600480880154861660808089019190915260059098015490951660a08701528c8a526006808a52888b20895161010081018b5281548152958101549a86019a909a52928901549784019790975287015495820195909552908501549195949093909284019160ff1690811115611edb57611edb6149ac565b6006811115611eec57611eec6149ac565b815260200160058201548152602001600682018054611f0a90614e61565b80601f0160208091040260200160405190810160405280929190818152602001828054611f3690614e61565b8015611f835780601f10611f5857610100808354040283529160200191611f83565b820191906000526020600020905b815481529060010190602001808311611f6657829003601f168201915b5050509183525050600791909101546020909101529050600081608001516006811115611fb257611fb26149ac565b148015611fc25750806020015142115b8061205c5750600581608001516006811115611fe057611fe06149ac565b14801561205c57506000546020830151604051632911125160e01b81526001600160a01b039182166004820152911690632911125190602401602060405180830381865afa158015612036573d6000803e3d6000fd5b505050506040513d601f19601f8201168201806040525081019061205a9190615076565b155b156120765761206b858361384c565b935093505050915091565b60408051808201825260028152612a1960f11b6020820152905162461bcd60e51b81526109959190600401614ade565b915091565b6120b36148ae565b6006600083815260200190815260200160002060405180610100016040529081600082015481526020016001820154815260200160028201548152602001600382015481526020016004820160009054906101000a900460ff166006811115610bcf57610bcf6149ac565b6060600b6000838152602001908152602001600020805480602002602001604051908101604052809291908181526020016000905b8282101561223e576000848152602090819020604080516080810182526004860290920180548352600181015463ffffffff1693830193909352600283018054929392918401916121a390614e61565b80601f01602080910402602001604051908101604052809291908181526020018280546121cf90614e61565b801561221c5780601f106121f15761010080835404028352916020019161221c565b820191906000526020600020905b8154815290600101906020018083116121ff57829003601f168201915b5050505050815260200160038201548152505081526020019060010190612153565b505050509050919050565b612251613695565b6001600160a01b03811661228f57604080518082018252600281526105a360f41b6020820152905162461bcd60e51b81526109959190600401614ade565b600580546001600160a01b0319166001600160a01b0383169081179091556040517f5d263627c90d0f6c9e5b56ab2a0952bc65431ee3225325ee7be26c5856d1446290600090a250565b6000818152600660208181526040808420815161010081018352815481526001820154938101939093526002810154918301919091526003810154606083015260048101548493608084019160ff1690811115612338576123386149ac565b6006811115612349576123496149ac565b81526020016005820154815260200160068201805461236790614e61565b80601f016020809104026020016040519081016040528092919081815260200182805461239390614e61565b80156123e05780601f106123b5576101008083540402835291602001916123e0565b820191906000526020600020905b8154815290600101906020018083116123c357829003601f168201915b5050509183525050600791909101546020909101526080810151925090506000826006811115612412576124126149ac565b1480156124225750428160200151105b1561242c57600391505b600281608001516006811115612444576124446149ac565b1480156124555750612455816136f0565b1561245f57600391505b50919050565b60008181526007602052604090819020905163520936b560e01b815260048101839052309063520936b590602401602060405180830381865afa1580156124b0573d6000803e3d6000fd5b505050506040513d601f19601f820116820180604052508101906124d49190615076565b6125085760408051808201825260028152610a8760f31b6020820152905162461bcd60e51b81526109959190600401614ade565b80546001600160a01b0316331461254957604080518082018252600281526104e360f41b6020820152905162461bcd60e51b81526109959190600401614ade565b6040805160c08101825282546001600160a01b0390811682526001840154811660208301526002840154811692820192909252600383015482166060820152600483015482166080820152600583015490911660a08201526125ac90839061384c565b50505050565b600d60205260009081526040902080546125cb90614e61565b80601f01602080910402602001604051908101604052809291908181526020018280546125f790614e61565b80156126445780601f1061261957610100808354040283529160200191612644565b820191906000526020600020905b81548152906001019060200180831161262757829003601f168201915b505050505081565b6000818152600860205260409020805460609190610cfe90614e61565b612671613695565b6001600160a01b0381166126c75760405162461bcd60e51b815260206004820152601d60248201527f496e76616c696420436f6e6669674d616e6167657220616464726573730000006044820152606401610995565b600280546001600160a01b0319166001600160a01b0383169081179091556040517f6a801685c5950e3d8ece256f75ca0ff31ed0ae02aeae73f8180ff32e978a2f6b90600090a250565b600081815260076020908152604091829020825160c08101845281546001600160a01b03908116825260018301548116938201849052600283015481169482019490945260038201548416606082015260048201548416608082015260059091015490921660a083015233146127b157604080518082018252600281526104e360f41b6020820152905162461bcd60e51b81526109959190600401614ade565b60006006600084815260200190815260200160002060405180610100016040529081600082015481526020016001820154815260200160028201548152602001600382015481526020016004820160009054906101000a900460ff16600681111561281e5761281e6149ac565b600681111561282f5761282f6149ac565b81526020016005820154815260200160068201805461284d90614e61565b80601f016020809104026020016040519081016040528092919081815260200182805461287990614e61565b80156128c65780601f1061289b576101008083540402835291602001916128c6565b820191906000526020600020905b8154815290600101906020018083116128a957829003601f168201915b5050505050815260200160078201548152505090508060a00151600003612917576040805180820182526002815261211960f11b6020820152905162461bcd60e51b81526109959190600401614ade565b600254604080516369e6c5a560e01b815290516000926001600160a01b0316916369e6c5a59160048083019260209291908290030181865afa158015612961573d6000803e3d6000fd5b505050506040513d601f19601f8201168201806040525081019061298591906150ce565b82519091506129959082906150e7565b42116129cb576040805180820182526002815261543160f01b6020820152905162461bcd60e51b81526109959190600401614ade565b6129d5848461384c565b505082602001516001600160a01b031683600001516001600160a01b0316857f539b8179d7bd023ac9f8ab39d08bd72917d41b88f4479eccb11c4c8b8e2931ef42604051612a2591815260200190565b60405180910390a450505050565b7ff0c57e16840df040f15088dc2f81fe391c3923bec73e23a9662efc9c229c6a008054600160401b810460ff1615906001600160401b0316600081158015612a785750825b90506000826001600160401b03166001148015612a945750303b155b905081158015612aa2575080155b15612ac05760405163f92ee8a960e01b815260040160405180910390fd5b845467ffffffffffffffff191660011785558315612aea57845460ff60401b1916600160401b1785555b612af261392a565b612afb3361393a565b6001600160a01b038b161580612b1857506001600160a01b038a16155b80612b2a57506001600160a01b038916155b80612b3c57506001600160a01b038816155b80612b4e57506001600160a01b038716155b80612b6057506001600160a01b038616155b15612b9557604080518082018252600281526105a360f41b6020820152905162461bcd60e51b81526109959190600401614ade565b600080546001600160a01b03199081166001600160a01b038e8116919091179092556001805482168d84161790556002805482168c84161790556004805482168b84161790556003805482168a8416179055600580549091169188169190911790558315612c3d57845460ff60401b19168555604051600181527fc7f505b2f371ae2175ee4913f4499e1f2633a7b5936321eed1cdaeb6115181d29060200160405180910390a15b5050505050505050505050565b6004546001600160a01b03163314612c8c5760408051808201825260028152614e3760f01b6020820152905162461bcd60e51b81526109959190600401614ade565b600082815260076020908152604080832060069092529091206001600482015460ff166006811115612cc057612cc06149ac565b03612cf55760408051808201825260028152612a1960f11b6020820152905162461bcd60e51b81526109959190600401614ade565b6001600160a01b038316612d3357604080518082018252600281526105a360f41b6020820152905162461bcd60e51b81526109959190600401614ade565b60048101805460ff1916600117905560038101546040516000916001600160a01b038616918381818185875af1925050503d8060008114612d90576040519150601f19603f3d011682016040523d82523d6000602084013e612d95565b606091505b5050905080612dce576040805180820182526002815261463160f01b6020820152905162461bcd60e51b81526109959190600401614ade565b600054600184015460405163cedb588b60e01b81526001600160a01b0391821660048201526024810188905291169063cedb588b90604401600060405180830381600087803b158015612e2057600080fd5b505af1158015612e34573d6000803e3d6000fd5b505084546040516001600160a01b0390911692508791507f15d1e788ed875e6f2294a51087aa5cd2e2c10c92e627eb0a6bbbfceceaa01b9890600090a35050505050565b60006060612e8461378f565b612e8d8361394b565b6000612e9d426020860135615a4d565b60008054919250906001600160a01b031663dfcf048d83612ec16020890189614ac1565b6040516001600160e01b031960e085901b16815260048101929092526001600160a01b03166024820152604401602060405180830381865afa158015612f0b573d6000803e3d6000fd5b505050506040513d601f19601f82011682018060405250810190612f2f91906150ce565b905080341015612f69576040805180820182526002815261543560f01b6020820152905162461bcd60e51b81526109959190600401614ade565b600080546001600160a01b031663b6ca3e0784612f8960208a018a614ac1565b6040516001600160e01b031960e085901b16815260048101929092526001600160a01b03166024820152604401602060405180830381865afa158015612fd3573d6000803e3d6000fd5b505050506040513d601f19601f82011682018060405250810190612ff791906150ce565b90506000423361300a60208a018a614ac1565b600f805490600061301a83615048565b909155506040805160208101959095526bffffffffffffffffffffffff19606094851b8116918601919091529190921b166054830152606882015260880160408051601f1981840301815291905280516020918201206000549092506001600160a01b031690632b2d37da90613092908a018a614ac1565b6040516001600160e01b031960e084901b1681526001600160a01b03909116600482015260248101849052604401600060405180830381600087803b1580156130da57600080fd5b505af11580156130ee573d6000803e3d6000fd5b505050506130fe81883485613ce1565b60006131168261311160208b018b614ac1565b613de5565b90506131256020890189614ac1565b6001600160a01b0316336001600160a01b0316837f1b4f5de17fe2b00e0f40c5911ca1a63050990bc6368270acc53e124917fa6e008b6020013534888e60400160208101906131749190614ac1565b428960405161318896959493929190615a60565b60405180910390a490955093505050506120a66001600080516020615ca783398151915255565b6131b7613695565b6001600160a01b0381166131f557604080518082018252600281526105a360f41b6020820152905162461bcd60e51b81526109959190600401614ade565b600380546001600160a01b0319166001600160a01b0383169081179091556040517fedfaa3bf5c2591af99a9a84e77e7d5b52a712ac2f7df014f60a6d9581e1fe4c890600090a250565b84158061324a575082155b1561327f576040805180820182526002815261049360f41b6020820152905162461bcd60e51b81526109959190600401614ade565b600087815260076020526040902080546001600160a01b031633146132ce57604080518082018252600281526104e360f41b6020820152905162461bcd60e51b81526109959190600401614ade565b600088815260066020526040812060058101549091036132ef575050613651565b600554604051632e235f3960e01b81526000916001600160a01b031690632e235f3990613323906006860190600401615aa5565b600060405180830381865afa158015613340573d6000803e3d6000fd5b505050506040513d6000823e601f3d908101601f1916820160405261336891908101906156ac565b60035460405163f64af3d360e01b81529192506000916001600160a01b039091169063f64af3d3906133a0908d908d906004016150ba565b600060405180830381865afa1580156133bd573d6000803e3d6000fd5b505050506040513d6000823e601f3d908101601f191682016040526133e59190810190615340565b90506000805b8260400151518110156134795760008360400151828151811061341057613410614dcf565b60200260200101516020015190506134288582613f78565b15613466578360400151828151811061344357613443614dcf565b6020026020010151600001516001600160401b03168361346391906150e7565b92505b508061347181615048565b9150506133eb565b5083600501548110156134b6576040805180820182526002815261493560f01b6020820152905162461bcd60e51b81526109959190600401614ade565b601154604051631831281f60e21b815263ffffffff881660048201526000916001600160a01b0316906360c4a07c9060240161010060405180830381865afa158015613506573d6000803e3d6000fd5b505050506040513d601f19601f8201168201806040525081019061352a9190615b30565b90506000600360009054906101000a90046001600160a01b03166001600160a01b0316636d78a10b8e8e6040518363ffffffff1660e01b81526004016135719291906150ba565b602060405180830381865afa15801561358e573d6000803e3d6000fd5b505050506040513d601f19601f820116820180604052508101906135b291906150ce565b90506135c58183604001518d8d8d613fdb565b6135f9576040805180820182526002815261092760f31b6020820152905162461bcd60e51b81526109959190600401614ade565b6007860181905560048601805460ff1916905560405163ffffffff8916815281908f907fa95a5e84942ed971fc1c23b67adb9b126bd5c349e645b490fcd60a72f516af609060200160405180910390a3505050505050505b50505050505050565b613662613695565b6001600160a01b03811661368c57604051631e4fbdf760e01b815260006004820152602401610995565b611db4816137db565b336136c77f9016d09d72d40fdae2fd8ceac6b6234c7706214fd39c1cd1e609a0528c199300546001600160a01b031690565b6001600160a01b031614611dc95760405163118cdaa760e01b8152336004820152602401610995565b6000816020015142111561370657506001919050565b60025460408051632b6f600d60e01b815290516000926001600160a01b031691632b6f600d9160048083019260209291908290030181865afa158015613750573d6000803e3d6000fd5b505050506040513d601f19601f8201168201806040525081019061377491906150ce565b905080836040015161378691906150e7565b42119392505050565b600080516020615ca78339815191528054600119016137c157604051633ee5aeb560e01b815260040160405180910390fd5b60029055565b6001600080516020615ca783398151915255565b7f9016d09d72d40fdae2fd8ceac6b6234c7706214fd39c1cd1e609a0528c19930080546001600160a01b031981166001600160a01b03848116918217845560405192169182907f8be0079c531659141344cd1fd0a4f28419497f9722a3daafe3b4186f6b6457e090600090a3505050565b60008060008061385c8686614067565b600054602088015160405163cedb588b60e01b81526001600160a01b039182166004820152602481018b9052939550919350169063cedb588b90604401600060405180830381600087803b1580156138b357600080fd5b505af11580156138c7573d6000803e3d6000fd5b505050600087815260066020526040808220600401805460ff19166001179055875190516001600160a01b03909116925088917f15d1e788ed875e6f2294a51087aa5cd2e2c10c92e627eb0a6bbbfceceaa01b9891a390925090505b9250929050565b613932614648565b611dc9614691565b613942614648565b611db481614699565b600061395a6020830183614ac1565b6001600160a01b031614806139875750600061397c6060830160408401614ac1565b6001600160a01b0316145b806139aa5750600061399f6080830160608401614ac1565b6001600160a01b0316145b156139df57604080518082018252600281526105a360f41b6020820152905162461bcd60e51b81526109959190600401614ade565b60015460405163682dc82b60e11b81523360048201526001600160a01b039091169063d05b905690602401602060405180830381865afa158015613a27573d6000803e3d6000fd5b505050506040513d601f19601f82011682018060405250810190613a4b9190615076565b613a7f576040805180820182526002815261221960f11b6020820152905162461bcd60e51b81526109959190600401614ade565b6000546001600160a01b031663e2b4efb8613a9d6020840184614ac1565b6040516001600160e01b031960e084901b1681526001600160a01b039091166004820152602401602060405180830381865afa158015613ae1573d6000803e3d6000fd5b505050506040513d601f19601f82011682018060405250810190613b059190615076565b613b39576040805180820182526002815261413360f01b6020820152905162461bcd60e51b81526109959190600401614ade565b42816020013511613b74576040805180820182526002815261543360f01b6020820152905162461bcd60e51b81526109959190600401614ade565b6000613b84426020840135615a4d565b600254604051636dd5b69d60e01b81527f251496a2e9229b930e5943f3c3e4da6cb786017948b856c9d455ed9cf0fc156c60048201529192506001600160a01b031690636dd5b69d90602401602060405180830381865afa158015613bed573d6000803e3d6000fd5b505050506040513d601f19601f82011682018060405250810190613c1191906150ce565b811080613ca85750600254604051636dd5b69d60e01b81527fd31f84da73b6cb3a8c2e853a7c46b1c95600fc6ab5acdbeb4f7f16e875c25ab860048201526001600160a01b0390911690636dd5b69d90602401602060405180830381865afa158015613c81573d6000803e3d6000fd5b505050506040513d601f19601f82011682018060405250810190613ca591906150ce565b81115b15613cdd576040805180820182526002815261493160f01b6020820152905162461bcd60e51b81526109959190600401614ade565b5050565b6000848152600660209081526040808320600783529220428355908501356001830155600382018490556005820183905582613d1e576000613d21565b60065b60048301805460ff19166001836006811115613d3f57613d3f6149ac565b0217905550613d516020860186614ac1565b6001820180546001600160a01b0319166001600160a01b0392909216919091179055613d836060860160408701614ac1565b6002820180546001600160a01b03929092166001600160a01b031992831617905581541633178155613dbb6080860160608701614ac1565b60059190910180546001600160a01b0319166001600160a01b039092169190911790555050505050565b600080546040516326415b0f60e21b81526001600160a01b0384811660048301526060939216906399056c3c90602401600060405180830381865afa158015613e32573d6000803e3d6000fd5b505050506040513d6000823e601f3d908101601f19168201604052613e5a9190810190615758565b6101800151604080514260208201526bffffffffffffffffffffffff193360601b169181019190915260548101869052909150600090607401604051602081830303815290604052805190602001209050600081835184604051602001613ec393929190615be4565b60408051601f198184030181529082905260055463064d1f4960e51b83529092506000916001600160a01b039091169063c9a3e92090613f07908590600401615c39565b600060405180830381865afa158015613f24573d6000803e3d6000fd5b505050506040513d6000823e601f3d908101601f19168201604052613f4c91908101906156ac565b600088815260066020819052604090912091925001613f6b8282615941565b5093505050505b92915050565b815181516000916001918114808314613f945760009250613fd1565b600160208701838101602088015b6002848385100103613fcc578051835114613fc05760009650600093505b60209283019201613fa2565b505050505b5090949350505050565b60008582825b85811015614059576000878783818110613ffd57613ffd614dcf565b9050602002013590506002836140139190615c75565b60000361402b5761402484826146a1565b9350614038565b61403581856146a1565b93505b61404360028461592d565b925050808061405190615048565b915050613fe1565b505090941495945050505050565b60008060006006600086815260200190815260200160002060405180610100016040529081600082015481526020016001820154815260200160028201548152602001600382015481526020016004820160009054906101000a900460ff1660068111156140d7576140d76149ac565b60068111156140e8576140e86149ac565b81526020016005820154815260200160068201805461410690614e61565b80601f016020809104026020016040519081016040528092919081815260200182805461413290614e61565b801561417f5780601f106141545761010080835404028352916020019161417f565b820191906000526020600020905b81548152906001019060200180831161416257829003601f168201915b5050505050815260200160078201548152505090506000816020015142116141b25781516141ad9042615a4d565b6141c3565b815160208301516141c39190615a4d565b60008054602088015160405163dfcf048d60e01b8152600481018590526001600160a01b039182166024820152939450919291169063dfcf048d90604401602060405180830381865afa15801561421e573d6000803e3d6000fd5b505050506040513d601f19601f8201168201806040525081019061424291906150ce565b90508060000361425b5760008094509450505050613923565b826060015181111561426e575060608201515b600254604051636dd5b69d60e01b81527fd91f20541e9312a0f4d27f0f0ba02500035307ac99ea67c86c8342ab3fd71bc56004820152600091612710916001600160a01b0390911690636dd5b69d90602401602060405180830381865afa1580156142dd573d6000803e3d6000fd5b505050506040513d601f19601f8201168201806040525081019061430191906150ce565b61430b9084615900565b614315919061592d565b905060006143238284615a4d565b90506000600260009054906101000a90046001600160a01b03166001600160a01b0316638b6570a06040518163ffffffff1660e01b8152600401602060405180830381865afa15801561437a573d6000803e3d6000fd5b505050506040513d601f19601f8201168201806040525081019061439e9190615c89565b90506000816001600160a01b03168460405160006040518083038185875af1925050503d80600081146143ed576040519150601f19603f3d011682016040523d82523d6000602084013e6143f2565b606091505b505090508061442b576040805180820182526002815261463160f01b6020820152905162461bcd60e51b81526109959190600401614ade565b6000805460208c01516040516326415b0f60e21b81526001600160a01b0391821660048201529116906399056c3c90602401600060405180830381865afa15801561447a573d6000803e3d6000fd5b505050506040513d6000823e601f3d908101601f191682016040526144a29190810190615758565b90506000816101c001516001600160a01b03168560405160006040518083038185875af1925050503d80600081146144f6576040519150601f19603f3d011682016040523d82523d6000602084013e6144fb565b606091505b5050905080614534576040805180820182526002815261463160f01b6020820152905162461bcd60e51b81526109959190600401614ade565b6000878a606001516145469190615a4d565b905080156145df5760008d60a001516001600160a01b03168260405160006040518083038185875af1925050503d806000811461459f576040519150601f19603f3d011682016040523d82523d6000602084013e6145a4565b606091505b50509050806145dd576040805180820182526002815261463160f01b6020820152905162461bcd60e51b81526109959190600401614ade565b505b6101c0830151604080518a8152602081018a90529081018390526001600160a01b03909116908f907f0e6f7005813080ec5f9df085ae1a9ee5221216f7746e432f210b6ce161e681659060600160405180910390a350939c949b50939950505050505050505050565b7ff0c57e16840df040f15088dc2f81fe391c3923bec73e23a9662efc9c229c6a0054600160401b900460ff16611dc957604051631afcd79f60e31b815260040160405180910390fd5b6137c7614648565b613662614648565b6040805181815260608101825260009182919060208201818036833701905050905060005b602081101561477d57846146db82601f615a4d565b602081106146eb576146eb614dcf565b1a60f81b82828151811061470157614701614dcf565b60200101906001600160f81b031916908160001a9053508361472482601f615a4d565b6020811061473457614734614dcf565b1a60f81b826147448360206150e7565b8151811061475457614754614dcf565b60200101906001600160f81b031916908160001a9053508061477581615048565b9150506146c6565b506147878161478f565b949350505050565b600080600280846040516147a391906156e0565b602060405180830381855afa1580156147c0573d6000803e3d6000fd5b5050506040513d601f19601f820116820180604052508101906147e391906150ce565b6040516020016147f591815260200190565b60408051601f198184030181529082905261480f916156e0565b602060405180830381855afa15801561482c573d6000803e3d6000fd5b5050506040513d601f19601f8201168201806040525081019061484f91906150ce565b905061485a81614861565b9392505050565b60008060005b60208110156148a75761487b816008615900565b84826020811061488d5761488d614dcf565b1a901b91909117908061489f81615048565b915050614867565b5092915050565b60405180610100016040528060008152602001600081526020016000815260200160008152602001600060068111156148e9576148e96149ac565b81526000602082018190526060604083018190529091015290565b60008083601f84011261491657600080fd5b5081356001600160401b0381111561492d57600080fd5b6020830191508360208260051b850101111561392357600080fd5b60008060006040848603121561495d57600080fd5b8335925060208401356001600160401b0381111561497a57600080fd5b61498686828701614904565b9497909650939450505050565b6000602082840312156149a557600080fd5b5035919050565b634e487b7160e01b600052602160045260246000fd5b600781106149e057634e487b7160e01b600052602160045260246000fd5b9052565b60005b838110156149ff5781810151838201526020016149e7565b50506000910152565b60008151808452614a208160208601602086016149e4565b601f01601f19169290920160200192915050565b602081528151602082015260208201516040820152604082015160608201526060820151608082015260006080830151614a7160a08401826149c2565b5060a083015160c083015260c08301516101008060e0850152614a98610120850183614a08565b60e095909501519301929092525090919050565b6001600160a01b0381168114611db457600080fd5b600060208284031215614ad357600080fd5b813561485a81614aac565b60208152600061485a6020830184614a08565b60008083601f840112614b0357600080fd5b5081356001600160401b03811115614b1a57600080fd5b60208301915083602082850101111561392357600080fd5b600080600060408486031215614b4757600080fd5b8335925060208401356001600160401b03811115614b6457600080fd5b61498686828701614af1565b600060208284031215614b8257600080fd5b81356001600160401b03811115614b9857600080fd5b820160c0818503121561485a57600080fd5b60006020808301818452808551808352604092508286019150828160051b87010184880160005b83811015614c2e57603f19898403018552815160808151855263ffffffff898301511689860152878201518189870152614c0d82870182614a08565b60609384015196909301959095525094870194925090860190600101614bd1565b509098975050505050505050565b60208101613f7282846149c2565b60008060008060008060c08789031215614c6357600080fd5b8635614c6e81614aac565b95506020870135614c7e81614aac565b94506040870135614c8e81614aac565b93506060870135614c9e81614aac565b92506080870135614cae81614aac565b915060a0870135614cbe81614aac565b809150509295509295509295565b60008060408385031215614cdf57600080fd5b823591506020830135614cf181614aac565b809150509250929050565b60006080828403121561245f57600080fd5b8281526040602082015260006147876040830184614a08565b63ffffffff81168114611db457600080fd5b600080600080600080600060a0888a031215614d5457600080fd5b8735965060208801356001600160401b0380821115614d7257600080fd5b614d7e8b838c01614af1565b909850965060408a0135915080821115614d9757600080fd5b50614da48a828b01614904565b909550935050606088013591506080880135614dbf81614d27565b8091505092959891949750929550565b634e487b7160e01b600052603260045260246000fd5b60008235607e19833603018112614dfb57600080fd5b9190910192915050565b6000808335601e19843603018112614e1c57600080fd5b8301803591506001600160401b03821115614e3657600080fd5b60200191503681900382131561392357600080fd5b634e487b7160e01b600052604160045260246000fd5b600181811c90821680614e7557607f821691505b60208210810361245f57634e487b7160e01b600052602260045260246000fd5b601f821115614edf57600081815260208120601f850160051c81016020861015614ebc5750805b601f850160051c820191505b81811015614edb57828155600101614ec8565b5050505b505050565b6001600160401b03831115614efb57614efb614e4b565b614f0f83614f098354614e61565b83614e95565b6000601f841160018114614f435760008515614f2b5750838201355b600019600387901b1c1916600186901b178355614f9d565b600083815260209020601f19861690835b82811015614f745786850135825560209485019460019092019101614f54565b5086821015614f915760001960f88860031b161c19848701351681555b505060018560011b0183555b5050505050565b81358155600181016020830135614fba81614d27565b815463ffffffff191663ffffffff91909116179055604082013536839003601e19018112614fe757600080fd5b820180356001600160401b03811115614fff57600080fd5b60208201915080360382131561501457600080fd5b615022818360028601614ee4565b5050606082013560038201555050565b634e487b7160e01b600052601160045260246000fd5b60006001820161505a5761505a615032565b5060010190565b8051801515811461507157600080fd5b919050565b60006020828403121561508857600080fd5b61485a82615061565b81835281816020850137506000828201602090810191909152601f909101601f19169091010190565b602081526000614787602083018486615091565b6000602082840312156150e057600080fd5b5051919050565b80820180821115613f7257613f72615032565b60006020828403121561510c57600080fd5b81356003811061485a57600080fd5b604080519081016001600160401b038111828210171561513d5761513d614e4b565b60405290565b60405160a081016001600160401b038111828210171561513d5761513d614e4b565b604051608081016001600160401b038111828210171561513d5761513d614e4b565b60405161020081016001600160401b038111828210171561513d5761513d614e4b565b604051601f8201601f191681016001600160401b03811182821017156151d2576151d2614e4b565b604052919050565b805161507181614d27565b60006001600160401b038211156151fe576151fe614e4b565b5060051b60200190565b600082601f83011261521957600080fd5b81516001600160401b0381111561523257615232614e4b565b615245601f8201601f19166020016151aa565b81815284602083860101111561525a57600080fd5b6147878260208301602087016149e4565b600082601f83011261527c57600080fd5b8151602061529161528c836151e5565b6151aa565b82815260059290921b840181019181810190868411156152b057600080fd5b8286015b84811015613f6b5780516001600160401b03808211156152d45760008081fd5b908801906040828b03601f19018113156152ee5760008081fd5b6152f661511b565b8784015183811681146153095760008081fd5b815290830151908282111561531e5760008081fd5b61532c8c8984870101615208565b8189015286525050509183019183016152b4565b6000602080838503121561535357600080fd5b82516001600160401b038082111561536a57600080fd5b9084019060a0828703121561537e57600080fd5b615386615143565b825161539181614d27565b815282840151828111156153a457600080fd5b8301601f810188136153b557600080fd5b80516153c361528c826151e5565b81815260059190911b8201860190868101908a8311156153e257600080fd5b8784015b8381101561547f578051878111156153fd57600080fd5b85016080818e03601f1901121561541357600080fd5b61541b615165565b8a8201518152604082015161542f81614d27565b818c01526060820151898111156154465760008081fd5b6154548f8d83860101615208565b6040830152506080820151915061546a82614d27565b606081019190915283529188019188016153e6565b50808886015250505050604083015193508184111561549d57600080fd5b6154a98785850161526b565b60408201526154ba606084016151da565b60608201526154cb60808401615061565b60808201529695505050505050565b6000602082840312156154ec57600080fd5b813560ff8116811461485a57600080fd5b600081518084526020808501808196508360051b8101915082860160005b85811015615562578284038952815180516001600160401b03168552850151604086860181905261554e81870183614a08565b9a87019a955050509084019060010161551b565b5091979650505050505050565b60a081526000610140820163ffffffff808a511660a08501526020808b015160a060c087015283815180865261016095508588019150858160051b8901019550838301925060005b818110156156175761015f198988030183528351608081518952878783015116878a015260408083015182828c01526155f2838c0182614a08565b6060948501518b169b9094019a909a52509097505092840192918401916001016155b7565b5050505060408b0151858403609f190160e0870152915061563883836154fd565b925060608b0151915061565461010086018363ffffffff169052565b60808b0151151561012086015263ffffffff8a1690850152508281036040840152615680818789615091565b91505061569860608301856001600160401b03169052565b60ff83166080830152979650505050505050565b6000602082840312156156be57600080fd5b81516001600160401b038111156156d457600080fd5b61478784828501615208565b60008251614dfb8184602087016149e4565b805161507181614aac565b600082601f83011261570e57600080fd5b8151602061571e61528c836151e5565b82815260059290921b8401810191818101908684111561573d57600080fd5b8286015b84811015613f6b5780518352918301918301615741565b60006020828403121561576a57600080fd5b81516001600160401b038082111561578157600080fd5b90830190610200828603121561579657600080fd5b61579e615187565b6157a7836156f2565b81526157b560208401615061565b60208201526040830151604082015260608301516060820152608083015160808201526157e460a084016156f2565b60a08201526157f560c084016156f2565b60c082015260e08301518281111561580c57600080fd5b615818878286016156fd565b60e08301525061010061582c8185016156f2565b90820152610120838101518381111561584457600080fd5b61585088828701615208565b828401525050610140808401518381111561586a57600080fd5b61587688828701615208565b828401525050610160808401518183015250610180808401518381111561589c57600080fd5b6158a888828701615208565b8284015250506101a080840151838111156158c257600080fd5b6158ce88828701615208565b8284015250506101c091506158e48284016156f2565b918101919091526101e091820151918101919091529392505050565b8082028115828204841417613f7257613f72615032565b634e487b7160e01b600052601260045260246000fd5b60008261593c5761593c615917565b500490565b81516001600160401b0381111561595a5761595a614e4b565b61596e816159688454614e61565b84614e95565b602080601f8311600181146159a3576000841561598b5750858301515b600019600386901b1c1916600185901b178555614edb565b600085815260208120601f198616915b828110156159d2578886015182559484019460019091019084016159b3565b50858210156159f05787850151600019600388901b60f8161c191681555b5050505050600190811b01905550565b600060018060a01b03808916835260806020840152615a2360808401888a615091565b8381036040850152615a36818789615091565b925050808416606084015250979650505050505050565b81810381811115613f7257613f72615032565b86815285602082015284604082015260018060a01b038416606082015282608082015260c060a08201526000615a9960c0830184614a08565b98975050505050505050565b6000602080835260008454615ab981614e61565b80848701526040600180841660008114615ada5760018114615af457615b22565b60ff1985168984015283151560051b890183019550615b22565b896000528660002060005b85811015615b1a5781548b8201860152908301908801615aff565b8a0184019650505b509398975050505050505050565b6000610100808385031215615b4457600080fd5b604051908101906001600160401b0382118183101715615b6657615b66614e4b565b8160405283519150615b7782614d27565b8181526020840151602082015260408401516040820152615b9a606085016151da565b6060820152615bab608085016151da565b6080820152615bbc60a085016151da565b60a082015260c084015160c0820152615bd760e085016151da565b60e0820152949350505050565b600160fd1b8152836001820152607560f81b602182015260ff60f81b8360f81b16602282015260008251615c1f8160238501602087016149e4565b602b60fa1b60239390910192830152506024019392505050565b604081526000615c4c6040830184614a08565b828103602084015260078152661b585a5b9b995d60ca1b60208201526040810191505092915050565b600082615c8457615c84615917565b500690565b600060208284031215615c9b57600080fd5b815161485a81614aac56fe9b779b17422d0df92223018b32b4d1fa46e071723d6817e2486d003becc55f00a2646970667358221220ecb2ffbe64fc9a9579278ddc753576213ad2127b045da15d9fb1aedda5eaa3ce64736f6c63430008140033",
  "linkReferences": {},
  "deployedLinkReferences": {}
}