{
  "_format": "hh-sol-artifact-1",
  "contractName": "TransactionManager",
  "sourceName": "contracts/core/TransactionManager.sol",
  "abi": [
    {
      "inputs": [],
      "stateMutability": "nonpayable",
      "type": "constructor"
    },
    {
      "inputs": [],
      "name": "InvalidInitialization",
      "type": "error"
    },
    {
      "inputs": [],
      "name": "NotInitializing",
      "type": "error"
    },
    {
      "inputs": [
        {
          "internalType": "address",
          "name": "owner",
          "type": "address"
        }
      ],
      "name": "OwnableInvalidOwner",
      "type": "error"
    },
    {
      "inputs": [
        {
          "internalType": "address",
          "name": "account",
          "type": "address"
        }
      ],
      "name": "OwnableUnauthorizedAccount",
      "type": "error"
    },
    {
      "inputs": [],
      "name": "ReentrancyGuardReentrantCall",
      "type": "error"
    },
    {
      "anonymous": false,
      "inputs": [
        {
          "indexed": true,
          "internalType": "bytes32",
          "name": "txId",
          "type": "bytes32"
        },
        {
          "indexed": true,
          "internalType": "address",
          "name": "dapp",
          "type": "address"
        },
        {
          "indexed": false,
          "internalType": "address",
          "name": "arbitrator",
          "type": "address"
        },
        {
          "indexed": false,
          "internalType": "bytes",
          "name": "rawData",
          "type": "bytes"
        },
        {
          "indexed": false,
          "internalType": "bytes",
          "name": "script",
          "type": "bytes"
        },
        {
          "indexed": false,
          "internalType": "address",
          "name": "timeoutCompensationReceiver",
          "type": "address"
        }
      ],
      "name": "ArbitrationRequested",
      "type": "event"
    },
    {
      "anonymous": false,
      "inputs": [
        {
          "indexed": true,
          "internalType": "bytes32",
          "name": "txId",
          "type": "bytes32"
        },
        {
          "indexed": true,
          "internalType": "address",
          "name": "dapp",
          "type": "address"
        },
        {
          "indexed": true,
          "internalType": "address",
          "name": "arbitrator",
          "type": "address"
        },
        {
          "indexed": false,
          "internalType": "bytes",
          "name": "btcTxSignature",
          "type": "bytes"
        }
      ],
      "name": "ArbitrationSubmitted",
      "type": "event"
    },
    {
      "anonymous": false,
      "inputs": [
        {
          "indexed": true,
          "internalType": "address",
          "name": "newParser",
          "type": "address"
        }
      ],
      "name": "BTCAddressParserChanged",
      "type": "event"
    },
    {
      "anonymous": false,
      "inputs": [
        {
          "indexed": true,
          "internalType": "address",
          "name": "newBtcBlockHeaders",
          "type": "address"
        }
      ],
      "name": "BtcBlockHeadersChanged",
      "type": "event"
    },
    {
      "anonymous": false,
      "inputs": [
        {
          "indexed": true,
          "internalType": "address",
          "name": "newBtcUtils",
          "type": "address"
        }
      ],
      "name": "BtcUtilsChanged",
      "type": "event"
    },
    {
      "anonymous": false,
      "inputs": [
        {
          "indexed": true,
          "internalType": "address",
          "name": "newConfigManager",
          "type": "address"
        }
      ],
      "name": "ConfigManagerUpdated",
      "type": "event"
    },
    {
      "anonymous": false,
      "inputs": [
        {
          "indexed": true,
          "internalType": "bytes32",
          "name": "id",
          "type": "bytes32"
        },
        {
          "indexed": true,
          "internalType": "bytes32",
          "name": "txHash",
          "type": "bytes32"
        },
        {
          "indexed": false,
          "internalType": "uint256",
          "name": "blockHeight",
          "type": "uint256"
        }
      ],
      "name": "DAppFeeTransactionSet",
      "type": "event"
    },
    {
      "anonymous": false,
      "inputs": [
        {
          "indexed": true,
          "internalType": "bytes32",
          "name": "txId",
          "type": "bytes32"
        },
        {
          "indexed": true,
          "internalType": "address",
          "name": "revenueETHAddress",
          "type": "address"
        },
        {
          "indexed": false,
          "internalType": "uint256",
          "name": "arbitratorFee",
          "type": "uint256"
        },
        {
          "indexed": false,
          "internalType": "uint256",
          "name": "systemFee",
          "type": "uint256"
        },
        {
          "indexed": false,
          "internalType": "uint256",
          "name": "refundedFee",
          "type": "uint256"
        }
      ],
      "name": "DepositFeeTransfer",
      "type": "event"
    },
    {
      "anonymous": false,
      "inputs": [
        {
          "indexed": false,
          "internalType": "uint64",
          "name": "version",
          "type": "uint64"
        }
      ],
      "name": "Initialized",
      "type": "event"
    },
    {
      "anonymous": false,
      "inputs": [
        {
          "indexed": true,
          "internalType": "address",
          "name": "previousOwner",
          "type": "address"
        },
        {
          "indexed": true,
          "internalType": "address",
          "name": "newOwner",
          "type": "address"
        }
      ],
      "name": "OwnershipTransferred",
      "type": "event"
    },
    {
      "anonymous": false,
      "inputs": [
        {
          "indexed": true,
          "internalType": "address",
          "name": "arbitratorManager",
          "type": "address"
        }
      ],
      "name": "SetArbitratorManager",
      "type": "event"
    },
    {
      "anonymous": false,
      "inputs": [
        {
          "indexed": true,
          "internalType": "bytes32",
          "name": "txId",
          "type": "bytes32"
        },
        {
          "indexed": true,
          "internalType": "address",
          "name": "dapp",
          "type": "address"
        },
        {
          "indexed": true,
          "internalType": "address",
          "name": "arbitrator",
          "type": "address"
        },
        {
          "indexed": false,
          "internalType": "uint256",
          "name": "timestamp",
          "type": "uint256"
        }
      ],
      "name": "TransactionClosedUnpaid",
      "type": "event"
    },
    {
      "anonymous": false,
      "inputs": [
        {
          "indexed": true,
          "internalType": "bytes32",
          "name": "txId",
          "type": "bytes32"
        },
        {
          "indexed": true,
          "internalType": "address",
          "name": "dapp",
          "type": "address"
        }
      ],
      "name": "TransactionCompleted",
      "type": "event"
    },
    {
      "anonymous": false,
      "inputs": [
        {
          "indexed": true,
          "internalType": "bytes32",
          "name": "id",
          "type": "bytes32"
        },
        {
          "indexed": true,
          "internalType": "address",
          "name": "dapp",
          "type": "address"
        },
        {
          "indexed": true,
          "internalType": "address",
          "name": "arbitrator",
          "type": "address"
        },
        {
          "indexed": false,
          "internalType": "uint256",
          "name": "deadline",
          "type": "uint256"
        },
        {
          "indexed": false,
          "internalType": "uint256",
          "name": "depositFee",
          "type": "uint256"
        },
        {
          "indexed": false,
          "internalType": "uint256",
          "name": "btcFee",
          "type": "uint256"
        },
        {
          "indexed": false,
          "internalType": "address",
          "name": "compensationReceiver",
          "type": "address"
        },
        {
          "indexed": false,
          "internalType": "uint256",
          "name": "timestamp",
          "type": "uint256"
        }
      ],
      "name": "TransactionRegistered",
      "type": "event"
    },
    {
      "anonymous": false,
      "inputs": [
        {
          "indexed": true,
          "internalType": "bytes32",
          "name": "txId",
          "type": "bytes32"
        },
        {
          "indexed": true,
          "internalType": "address",
          "name": "dapp",
          "type": "address"
        }
      ],
      "name": "UTXOsUploaded",
      "type": "event"
    },
    {
      "inputs": [],
      "name": "arbitratorManager",
      "outputs": [
        {
          "internalType": "contract IArbitratorManager",
          "name": "",
          "type": "address"
        }
      ],
      "stateMutability": "view",
      "type": "function"
    },
    {
      "inputs": [],
      "name": "assetOracle",
      "outputs": [
        {
          "internalType": "contract IAssetOracle",
          "name": "",
          "type": "address"
        }
      ],
      "stateMutability": "view",
      "type": "function"
    },
    {
      "inputs": [],
      "name": "btcAddressParser",
      "outputs": [
        {
          "internalType": "contract IBtcAddress",
          "name": "",
          "type": "address"
        }
      ],
      "stateMutability": "view",
      "type": "function"
    },
    {
      "inputs": [],
      "name": "btcBlockHeaders",
      "outputs": [
        {
          "internalType": "contract IBtcBlockHeaders",
          "name": "",
          "type": "address"
        }
      ],
      "stateMutability": "view",
      "type": "function"
    },
    {
      "inputs": [],
      "name": "btcUtils",
      "outputs": [
        {
          "internalType": "contract IBTCUtils",
          "name": "",
          "type": "address"
        }
      ],
      "stateMutability": "view",
      "type": "function"
    },
    {
      "inputs": [
        {
          "internalType": "bytes32",
          "name": "id",
          "type": "bytes32"
        }
      ],
      "name": "closeUnpaidTransaction",
      "outputs": [],
      "stateMutability": "nonpayable",
      "type": "function"
    },
    {
      "inputs": [],
      "name": "compensationManager",
      "outputs": [
        {
          "internalType": "address",
          "name": "",
          "type": "address"
        }
      ],
      "stateMutability": "view",
      "type": "function"
    },
    {
      "inputs": [
        {
          "internalType": "bytes32",
          "name": "id",
          "type": "bytes32"
        }
      ],
      "name": "completeTransaction",
      "outputs": [],
      "stateMutability": "nonpayable",
      "type": "function"
    },
    {
      "inputs": [
        {
          "internalType": "bytes32",
          "name": "id",
          "type": "bytes32"
        },
        {
          "internalType": "address",
          "name": "receivedCompensationAddress",
          "type": "address"
        }
      ],
      "name": "completeTransactionWithSlash",
      "outputs": [],
      "stateMutability": "nonpayable",
      "type": "function"
    },
    {
      "inputs": [],
      "name": "configManager",
      "outputs": [
        {
          "internalType": "contract IConfigManager",
          "name": "",
          "type": "address"
        }
      ],
      "stateMutability": "view",
      "type": "function"
    },
    {
      "inputs": [],
      "name": "dappRegistry",
      "outputs": [
        {
          "internalType": "contract IDAppRegistry",
          "name": "",
          "type": "address"
        }
      ],
      "stateMutability": "view",
      "type": "function"
    },
    {
      "inputs": [
        {
          "internalType": "bytes32",
          "name": "id",
          "type": "bytes32"
        }
      ],
      "name": "getTransactionBtcRawDataById",
      "outputs": [
        {
          "internalType": "bytes",
          "name": "",
          "type": "bytes"
        }
      ],
      "stateMutability": "view",
      "type": "function"
    },
    {
      "inputs": [
        {
          "internalType": "bytes32",
          "name": "id",
          "type": "bytes32"
        }
      ],
      "name": "getTransactionDataById",
      "outputs": [
        {
          "components": [
            {
              "internalType": "uint256",
              "name": "startTime",
              "type": "uint256"
            },
            {
              "internalType": "uint256",
              "name": "deadline",
              "type": "uint256"
            },
            {
              "internalType": "uint256",
              "name": "requestArbitrationTime",
              "type": "uint256"
            },
            {
              "internalType": "uint256",
              "name": "depositedFee",
              "type": "uint256"
            },
            {
              "internalType": "enum DataTypes.TransactionStatus",
              "name": "status",
              "type": "uint8"
            },
            {
              "internalType": "uint256",
              "name": "arbitratorBtcFee",
              "type": "uint256"
            },
            {
              "internalType": "string",
              "name": "btcFeeAddress",
              "type": "string"
            },
            {
              "internalType": "bytes32",
              "name": "btcFeeTxHash",
              "type": "bytes32"
            }
          ],
          "internalType": "struct DataTypes.TransactionData",
          "name": "",
          "type": "tuple"
        }
      ],
      "stateMutability": "view",
      "type": "function"
    },
    {
      "inputs": [
        {
          "internalType": "bytes32",
          "name": "txHash",
          "type": "bytes32"
        }
      ],
      "name": "getTransactionDataByTxHash",
      "outputs": [
        {
          "components": [
            {
              "internalType": "uint256",
              "name": "startTime",
              "type": "uint256"
            },
            {
              "internalType": "uint256",
              "name": "deadline",
              "type": "uint256"
            },
            {
              "internalType": "uint256",
              "name": "requestArbitrationTime",
              "type": "uint256"
            },
            {
              "internalType": "uint256",
              "name": "depositedFee",
              "type": "uint256"
            },
            {
              "internalType": "enum DataTypes.TransactionStatus",
              "name": "status",
              "type": "uint8"
            },
            {
              "internalType": "uint256",
              "name": "arbitratorBtcFee",
              "type": "uint256"
            },
            {
              "internalType": "string",
              "name": "btcFeeAddress",
              "type": "string"
            },
            {
              "internalType": "bytes32",
              "name": "btcFeeTxHash",
              "type": "bytes32"
            }
          ],
          "internalType": "struct DataTypes.TransactionData",
          "name": "",
          "type": "tuple"
        }
      ],
      "stateMutability": "view",
      "type": "function"
    },
    {
      "inputs": [
        {
          "internalType": "bytes32",
          "name": "id",
          "type": "bytes32"
        }
      ],
      "name": "getTransactionPartiesById",
      "outputs": [
        {
          "components": [
            {
              "internalType": "address",
              "name": "dapp",
              "type": "address"
            },
            {
              "internalType": "address",
              "name": "arbitrator",
              "type": "address"
            },
            {
              "internalType": "address",
              "name": "compensationReceiver",
              "type": "address"
            },
            {
              "internalType": "address",
              "name": "timeoutCompensationReceiver",
              "type": "address"
            },
            {
              "internalType": "address",
              "name": "refundAddress",
              "type": "address"
            },
            {
              "internalType": "address",
              "name": "depositedFeeRefundAddress",
              "type": "address"
            }
          ],
          "internalType": "struct DataTypes.TransactionParties",
          "name": "",
          "type": "tuple"
        }
      ],
      "stateMutability": "view",
      "type": "function"
    },
    {
      "inputs": [
        {
          "internalType": "bytes32",
          "name": "txHash",
          "type": "bytes32"
        }
      ],
      "name": "getTransactionPartiesByTxHash",
      "outputs": [
        {
          "components": [
            {
              "internalType": "address",
              "name": "dapp",
              "type": "address"
            },
            {
              "internalType": "address",
              "name": "arbitrator",
              "type": "address"
            },
            {
              "internalType": "address",
              "name": "compensationReceiver",
              "type": "address"
            },
            {
              "internalType": "address",
              "name": "timeoutCompensationReceiver",
              "type": "address"
            },
            {
              "internalType": "address",
              "name": "refundAddress",
              "type": "address"
            },
            {
              "internalType": "address",
              "name": "depositedFeeRefundAddress",
              "type": "address"
            }
          ],
          "internalType": "struct DataTypes.TransactionParties",
          "name": "",
          "type": "tuple"
        }
      ],
      "stateMutability": "view",
      "type": "function"
    },
    {
      "inputs": [
        {
          "internalType": "bytes32",
          "name": "id",
          "type": "bytes32"
        }
      ],
      "name": "getTransactionSignHashById",
      "outputs": [
        {
          "internalType": "bytes32",
          "name": "",
          "type": "bytes32"
        }
      ],
      "stateMutability": "view",
      "type": "function"
    },
    {
      "inputs": [
        {
          "internalType": "bytes32",
          "name": "id",
          "type": "bytes32"
        }
      ],
      "name": "getTransactionSignatureById",
      "outputs": [
        {
          "internalType": "bytes",
          "name": "",
          "type": "bytes"
        }
      ],
      "stateMutability": "view",
      "type": "function"
    },
    {
      "inputs": [
        {
          "internalType": "bytes32",
          "name": "txHash",
          "type": "bytes32"
        }
      ],
      "name": "getTransactionSignatureByTxHash",
      "outputs": [
        {
          "internalType": "bytes",
          "name": "",
          "type": "bytes"
        }
      ],
      "stateMutability": "view",
      "type": "function"
    },
    {
      "inputs": [
        {
          "internalType": "bytes32",
          "name": "id",
          "type": "bytes32"
        }
      ],
      "name": "getTransactionStatus",
      "outputs": [
        {
          "internalType": "enum DataTypes.TransactionStatus",
          "name": "status",
          "type": "uint8"
        }
      ],
      "stateMutability": "view",
      "type": "function"
    },
    {
      "inputs": [
        {
          "internalType": "bytes32",
          "name": "id",
          "type": "bytes32"
        }
      ],
      "name": "getTransactionUTXOsById",
      "outputs": [
        {
          "components": [
            {
              "internalType": "bytes32",
              "name": "txHash",
              "type": "bytes32"
            },
            {
              "internalType": "uint32",
              "name": "index",
              "type": "uint32"
            },
            {
              "internalType": "bytes",
              "name": "script",
              "type": "bytes"
            },
            {
              "internalType": "uint256",
              "name": "amount",
              "type": "uint256"
            }
          ],
          "internalType": "struct DataTypes.UTXO[]",
          "name": "",
          "type": "tuple[]"
        }
      ],
      "stateMutability": "view",
      "type": "function"
    },
    {
      "inputs": [
        {
          "internalType": "address",
          "name": "_arbitratorManager",
          "type": "address"
        },
        {
          "internalType": "address",
          "name": "_dappRegistry",
          "type": "address"
        },
        {
          "internalType": "address",
          "name": "_configManager",
          "type": "address"
        },
        {
          "internalType": "address",
          "name": "_compensationManager",
          "type": "address"
        },
        {
          "internalType": "address",
          "name": "_btcUtils",
          "type": "address"
        },
        {
          "internalType": "address",
          "name": "_btcAddressParser",
          "type": "address"
        }
      ],
      "name": "initialize",
      "outputs": [],
      "stateMutability": "nonpayable",
      "type": "function"
    },
    {
      "inputs": [
        {
          "internalType": "bytes32",
          "name": "id",
          "type": "bytes32"
        }
      ],
      "name": "isAbleCompletedTransaction",
      "outputs": [
        {
          "internalType": "bool",
          "name": "",
          "type": "bool"
        }
      ],
      "stateMutability": "view",
      "type": "function"
    },
    {
      "inputs": [],
      "name": "owner",
      "outputs": [
        {
          "internalType": "address",
          "name": "",
          "type": "address"
        }
      ],
      "stateMutability": "view",
      "type": "function"
    },
    {
      "inputs": [
        {
          "components": [
            {
              "internalType": "address",
              "name": "arbitrator",
              "type": "address"
            },
            {
              "internalType": "uint256",
              "name": "deadline",
              "type": "uint256"
            },
            {
              "internalType": "address",
              "name": "compensationReceiver",
              "type": "address"
            },
            {
              "internalType": "address",
              "name": "refundAddress",
              "type": "address"
            }
          ],
          "internalType": "struct ITransactionManager.RegisterData",
          "name": "data",
          "type": "tuple"
        }
      ],
      "name": "registerTransaction",
      "outputs": [
        {
          "internalType": "bytes32",
          "name": "",
          "type": "bytes32"
        },
        {
          "internalType": "string",
          "name": "",
          "type": "string"
        }
      ],
      "stateMutability": "payable",
      "type": "function"
    },
    {
      "inputs": [],
      "name": "renounceOwnership",
      "outputs": [],
      "stateMutability": "nonpayable",
      "type": "function"
    },
    {
      "inputs": [
        {
          "components": [
            {
              "internalType": "bytes32",
              "name": "id",
              "type": "bytes32"
            },
            {
              "internalType": "bytes",
              "name": "rawData",
              "type": "bytes"
            },
            {
              "internalType": "enum DataTypes.SignDataType",
              "name": "signDataType",
              "type": "uint8"
            },
            {
              "internalType": "uint8",
              "name": "signHashFlag",
              "type": "uint8"
            },
            {
              "internalType": "bytes",
              "name": "script",
              "type": "bytes"
            },
            {
              "internalType": "address",
              "name": "timeoutCompensationReceiver",
              "type": "address"
            }
          ],
          "internalType": "struct DataTypes.ArbitrationData",
          "name": "data",
          "type": "tuple"
        }
      ],
      "name": "requestArbitration",
      "outputs": [],
      "stateMutability": "nonpayable",
      "type": "function"
    },
    {
      "inputs": [
        {
          "internalType": "address",
          "name": "_arbitratorManager",
          "type": "address"
        }
      ],
      "name": "setArbitratorManager",
      "outputs": [],
      "stateMutability": "nonpayable",
      "type": "function"
    },
    {
      "inputs": [
        {
          "internalType": "address",
          "name": "_btcAddressParser",
          "type": "address"
        }
      ],
      "name": "setBTCAddressParser",
      "outputs": [],
      "stateMutability": "nonpayable",
      "type": "function"
    },
    {
      "inputs": [
        {
          "internalType": "address",
          "name": "_btcBlockHeaders",
          "type": "address"
        }
      ],
      "name": "setBtcBlockHeaders",
      "outputs": [],
      "stateMutability": "nonpayable",
      "type": "function"
    },
    {
      "inputs": [
        {
          "internalType": "address",
          "name": "_btcUtils",
          "type": "address"
        }
      ],
      "name": "setBtcUtils",
      "outputs": [],
      "stateMutability": "nonpayable",
      "type": "function"
    },
    {
      "inputs": [
        {
          "internalType": "address",
          "name": "_configManager",
          "type": "address"
        }
      ],
      "name": "setConfigManager",
      "outputs": [],
      "stateMutability": "nonpayable",
      "type": "function"
    },
    {
      "inputs": [
        {
          "internalType": "bytes32",
          "name": "id",
          "type": "bytes32"
        },
        {
          "internalType": "bytes",
          "name": "rawData",
          "type": "bytes"
        },
        {
          "internalType": "bytes32[]",
          "name": "merkleProof",
          "type": "bytes32[]"
        },
        {
          "internalType": "uint256",
          "name": "index",
          "type": "uint256"
        },
        {
          "internalType": "uint32",
          "name": "blockHeight",
          "type": "uint32"
        }
      ],
      "name": "setDAppBtcFeeTransaction",
      "outputs": [],
      "stateMutability": "nonpayable",
      "type": "function"
    },
    {
      "inputs": [
        {
          "internalType": "bytes32",
          "name": "id",
          "type": "bytes32"
        },
        {
          "internalType": "bytes",
          "name": "btcTxSignature",
          "type": "bytes"
        }
      ],
      "name": "submitArbitration",
      "outputs": [],
      "stateMutability": "nonpayable",
      "type": "function"
    },
    {
      "inputs": [
        {
          "internalType": "bytes32",
          "name": "",
          "type": "bytes32"
        }
      ],
      "name": "transactionSignData",
      "outputs": [
        {
          "internalType": "bytes",
          "name": "",
          "type": "bytes"
        }
      ],
      "stateMutability": "view",
      "type": "function"
    },
    {
      "inputs": [
        {
          "internalType": "bytes32",
          "name": "id",
          "type": "bytes32"
        }
      ],
      "name": "transferArbitrationFee",
      "outputs": [
        {
          "internalType": "uint256",
          "name": "arbitratorFee",
          "type": "uint256"
        },
        {
          "internalType": "uint256",
          "name": "systemFee",
          "type": "uint256"
        }
      ],
      "stateMutability": "nonpayable",
      "type": "function"
    },
    {
      "inputs": [
        {
          "internalType": "address",
          "name": "newOwner",
          "type": "address"
        }
      ],
      "name": "transferOwnership",
      "outputs": [],
      "stateMutability": "nonpayable",
      "type": "function"
    },
    {
      "inputs": [
        {
          "internalType": "bytes32",
          "name": "",
          "type": "bytes32"
        }
      ],
      "name": "txHashToId",
      "outputs": [
        {
          "internalType": "bytes32",
          "name": "",
          "type": "bytes32"
        }
      ],
      "stateMutability": "view",
      "type": "function"
    },
    {
      "inputs": [
        {
          "internalType": "bytes32",
          "name": "id",
          "type": "bytes32"
        },
        {
          "components": [
            {
              "internalType": "bytes32",
              "name": "txHash",
              "type": "bytes32"
            },
            {
              "internalType": "uint32",
              "name": "index",
              "type": "uint32"
            },
            {
              "internalType": "bytes",
              "name": "script",
              "type": "bytes"
            },
            {
              "internalType": "uint256",
              "name": "amount",
              "type": "uint256"
            }
          ],
          "internalType": "struct DataTypes.UTXO[]",
          "name": "utxos",
          "type": "tuple[]"
        }
      ],
      "name": "uploadUTXOs",
      "outputs": [],
      "stateMutability": "nonpayable",
      "type": "function"
    }
  ],
  "bytecode": "0x60806040523480156200001157600080fd5b506200001c62000022565b620000d6565b7ff0c57e16840df040f15088dc2f81fe391c3923bec73e23a9662efc9c229c6a00805468010000000000000000900460ff1615620000735760405163f92ee8a960e01b815260040160405180910390fd5b80546001600160401b0390811614620000d35780546001600160401b0319166001600160401b0390811782556040519081527fc7f505b2f371ae2175ee4913f4499e1f2633a7b5936321eed1cdaeb6115181d29060200160405180910390a15b50565b615c9080620000e66000396000f3fe6080604052600436106102305760003560e01c80638da5cb5b1161012e578063c258d4fc116100ab578063e1d139b21161006f578063e1d139b2146108bc578063ea97137a146108dc578063eb44c0f2146108fd578063ec9bd0c51461091d578063f2fde38b1461093d57600080fd5b8063c258d4fc1461081c578063ca0ab0751461083c578063cc2a9a5b1461085c578063d09d03a31461087c578063de0ca1661461089c57600080fd5b8063a130312a116100f2578063a130312a1461076f578063a8a0e8821461078f578063ae2db1cc146107af578063b4e25e80146107cf578063c1ce47d2146107ef57600080fd5b80638da5cb5b146104f5578063944074651461053257806397315e441461055f5780639dc37d081461059a578063a0037eac146106ad57600080fd5b80635f8b411d116101bc578063759787c411610180578063759787c414610448578063814936701461046857806384b46d6a1461048857806388727e6b146104a85780638b0ae217146104d557600080fd5b80635f8b411d1461039e57806363e877b6146103be57806366347a63146103de578063715018a6146103fe5780637577b6df1461041357600080fd5b80632c7e8ca3116102035780632c7e8ca3146102e15780634308dc8e146103015780634e4f0ec41461032e578063520936b51461034e578063537bcc551461037e57600080fd5b80630559b877146102355780630f6f9a1e146102725780631d4d3a5d1461029457806327226068146102b4575b600080fd5b34801561024157600080fd5b50600454610255906001600160a01b031681565b6040516001600160a01b0390911681526020015b60405180910390f35b34801561027e57600080fd5b5061029261028d36600461491e565b61095d565b005b3480156102a057600080fd5b50601054610255906001600160a01b031681565b3480156102c057600080fd5b506102d46102cf366004614969565b610b58565b6040516102699190614a0a565b3480156102ed57600080fd5b506102926102fc366004614a97565b610c91565b34801561030d57600080fd5b5061032161031c366004614969565b610ce1565b6040516102699190614ab4565b34801561033a57600080fd5b50610292610349366004614b08565b610d83565b34801561035a57600080fd5b5061036e610369366004614969565b611167565b6040519015158152602001610269565b34801561038a57600080fd5b50610321610399366004614969565b611339565b3480156103aa57600080fd5b506102926103b9366004614a97565b611363565b3480156103ca57600080fd5b50600554610255906001600160a01b031681565b3480156103ea57600080fd5b506102926103f9366004614b46565b6113f3565b34801561040a57600080fd5b50610292611db7565b34801561041f57600080fd5b5061043361042e366004614969565b611dcb565b60408051928352602083019190915201610269565b34801561045457600080fd5b50600054610255906001600160a01b031681565b34801561047457600080fd5b506102d4610483366004614969565b6120ab565b34801561049457600080fd5b50600354610255906001600160a01b031681565b3480156104b457600080fd5b506104c86104c3366004614969565b61211e565b6040516102699190614b80565b3480156104e157600080fd5b506102926104f0366004614a97565b612249565b34801561050157600080fd5b507f9016d09d72d40fdae2fd8ceac6b6234c7706214fd39c1cd1e609a0528c199300546001600160a01b0316610255565b34801561053e57600080fd5b5061055261054d366004614969565b6122d9565b6040516102699190614c12565b34801561056b57600080fd5b5061058c61057a366004614969565b6000908152600c602052604090205490565b604051908152602001610269565b3480156105a657600080fd5b506106526105b5366004614969565b6040805160c081018252600080825260208201819052918101829052606081018290526080810182905260a081019190915250600090815260076020908152604091829020825160c08101845281546001600160a01b03908116825260018301548116938201939093526002820154831693810193909352600381015482166060840152600481015482166080840152600501541660a082015290565b604051610269919081516001600160a01b03908116825260208084015182169083015260408084015182169083015260608084015182169083015260808084015182169083015260a092830151169181019190915260c00190565b3480156106b957600080fd5b506106526106c8366004614969565b6040805160c081018252600080825260208201819052918101829052606081018290526080810182905260a0810191909152506000908152600e602090815260408083205483526007825291829020825160c08101845281546001600160a01b03908116825260018301548116938201939093526002820154831693810193909352600381015482166060840152600481015482166080840152600501541660a082015290565b34801561077b57600080fd5b5061029261078a366004614969565b612465565b34801561079b57600080fd5b506103216107aa366004614969565b6125b2565b3480156107bb57600080fd5b506103216107ca366004614969565b61264c565b3480156107db57600080fd5b506102926107ea366004614a97565b612669565b3480156107fb57600080fd5b5061058c61080a366004614969565b600e6020526000908152604090205481565b34801561082857600080fd5b50610292610837366004614969565b612711565b34801561084857600080fd5b50600254610255906001600160a01b031681565b34801561086857600080fd5b50610292610877366004614c20565b612a33565b34801561088857600080fd5b50610292610897366004614ca2565b612c4a565b3480156108a857600080fd5b50600154610255906001600160a01b031681565b3480156108c857600080fd5b50601154610255906001600160a01b031681565b6108ef6108ea366004614cd2565b612e78565b604051610269929190614ce4565b34801561090957600080fd5b50610292610918366004614a97565b6131c5565b34801561092957600080fd5b50610292610938366004614d0f565b613255565b34801561094957600080fd5b50610292610958366004614a97565b613630565b6001811461099e576040805180820182526002815261055360f41b6020820152905162461bcd60e51b81526109959190600401614ab4565b60405180910390fd5b600083815260076020908152604080832060069283905292206004015460ff16818111156109ce576109ce614982565b14158015610a015750600084815260066020819052604082206004015460ff16908111156109fe576109fe614982565b14155b15610a365760408051808201825260028152612a1960f11b6020820152905162461bcd60e51b81526109959190600401614ab4565b80546001600160a01b03163314610a7757604080518082018252600281526104e360f41b6020820152905162461bcd60e51b81526109959190600401614ab4565b6000848152600b60205260409020805415610abc5760408051808201825260028152612a9960f11b6020820152905162461bcd60e51b81526109959190600401614ab4565b60005b83811015610b235781858583818110610ada57610ada614da5565b9050602002810190610aec9190614dbb565b815460018101835560009283526020909220909160040201610b0e8282614f7a565b50508080610b1b9061501e565b915050610abf565b50604051339086907fbe870ee46d1946169135a006725f4beb7bf05701d38e45b8d0e55892fabff1d990600090a35050505050565b610b60614884565b6000828152600e602090815260408083205483526006808352928190208151610100810183528154815260018201549381019390935260028101549183019190915260038101546060830152600481015491929091608084019160ff90911690811115610bcf57610bcf614982565b6006811115610be057610be0614982565b815260200160058201548152602001600682018054610bfe90614e37565b80601f0160208091040260200160405190810160405280929190818152602001828054610c2a90614e37565b8015610c775780601f10610c4c57610100808354040283529160200191610c77565b820191906000526020600020905b815481529060010190602001808311610c5a57829003601f168201915b505050505081526020016007820154815250509050919050565b610c9961366b565b600080546001600160a01b0319166001600160a01b038316908117825560405190917fa323f9f93bbee02edb5e1034969f6ef41fb674527d2ea7e9271ad206435b58f491a250565b6000818152600960205260409020805460609190610cfe90614e37565b80601f0160208091040260200160405190810160405280929190818152602001828054610d2a90614e37565b8015610d775780601f10610d4c57610100808354040283529160200191610d77565b820191906000526020600020905b815481529060010190602001808311610d5a57829003601f168201915b50505050509050919050565b600083815260066020908152604080832060079092529091206002600483015460ff166006811115610db757610db7614982565b14610dec5760408051808201825260028152612a1960f11b6020820152905162461bcd60e51b81526109959190600401614ab4565b60408051610100810182528354815260018401546020820152600284015491810191909152600383015460608201526004830154610f0091908490608083019060ff166006811115610e4057610e40614982565b6006811115610e5157610e51614982565b815260200160058201548152602001600682018054610e6f90614e37565b80601f0160208091040260200160405190810160405280929190818152602001828054610e9b90614e37565b8015610ee85780601f10610ebd57610100808354040283529160200191610ee8565b820191906000526020600020905b815481529060010190602001808311610ecb57829003601f168201915b505050505081526020016007820154815250506136c6565b15610f35576040805180820182526002815261543960f01b6020820152905162461bcd60e51b81526109959190600401614ab4565b6000546001820154604051630e70978b60e21b81526001600160a01b0391821660048201523360248201529116906339c25e2c90604401602060405180830381865afa158015610f89573d6000803e3d6000fd5b505050506040513d601f19601f82011682018060405250810190610fad919061504c565b610fe157604080518082018252600281526104e360f41b6020820152905162461bcd60e51b81526109959190600401614ab4565b600354604051630263f12b60e61b81526001600160a01b03909116906398fc4ac0906110139087908790600401615090565b602060405180830381865afa158015611030573d6000803e3d6000fd5b505050506040513d601f19601f82011682018060405250810190611054919061504c565b611088576040805180820182526002815261553960f01b6020820152905162461bcd60e51b81526109959190600401614ab4565b60048201805460ff1916600517905560008581526009602052604090206110b0848683614eba565b50600054600182015460405163069fa0a760e51b81526001600160a01b03918216600482015291169063d3f414e090602401600060405180830381600087803b1580156110fc57600080fd5b505af1158015611110573d6000803e3d6000fd5b505082546040513393506001600160a01b03909116915087907fc3087094b1ca79d1b0196cfe915c3153df5266eba37502790ddfc1e3532d3559906111589089908990615090565b60405180910390a45050505050565b6000818152600660208181526040808420815161010081018352815481526001820154938101939093526002810154918301919091526003810154606083015260048101548493608084019160ff16908111156111c6576111c6614982565b60068111156111d7576111d7614982565b8152602001600582015481526020016006820180546111f590614e37565b80601f016020809104026020016040519081016040528092919081815260200182805461122190614e37565b801561126e5780601f106112435761010080835404028352916020019161126e565b820191906000526020600020905b81548152906001019060200180831161125157829003601f168201915b505050918352505060079190910154602090910152905060068160800151600681111561129d5761129d614982565b036112ab5750600192915050565b6000816080015160068111156112c3576112c3614982565b036112d15750600192915050565b6002816080015160068111156112e9576112e9614982565b0361130a576112f7816136c6565b156113055750600192915050565b611330565b60058160800151600681111561132257611322614982565b036113305750600192915050565b50600092915050565b6000818152600e6020908152604080832054835260099091529020805460609190610cfe90614e37565b61136b61366b565b6001600160a01b0381166113a957604080518082018252600281526105a360f41b6020820152905162461bcd60e51b81526109959190600401614ab4565b601180546001600160a01b0319166001600160a01b0383169081179091556040517f8734e6b78958753959661626b83b989d8602b1a72fda0e0717390776175c220290600090a250565b6113fb613765565b600061140d60c0830160a08401614a97565b6001600160a01b03160361144b57604080518082018252600281526105a360f41b6020820152905162461bcd60e51b81526109959190600401614ab4565b8035600090815260066020526040812090600482015460ff16600681111561147557611475614982565b146114aa5760408051808201825260028152612a1960f11b6020820152905162461bcd60e51b81526109959190600401614ab4565b8060010154600260009054906101000a90046001600160a01b03166001600160a01b0316632b6f600d6040518163ffffffff1660e01b8152600401602060405180830381865afa158015611502573d6000803e3d6000fd5b505050506040513d601f19601f8201168201806040525081019061152691906150a4565b61153090426150bd565b1115611566576040805180820182526002815261553760f01b6020820152905162461bcd60e51b81526109959190600401614ab4565b600161157860608401604085016150d0565b600281111561158957611589614982565b146115be5760408051808201825260028152610aa760f31b6020820152905162461bcd60e51b81526109959190600401614ab4565b8135600090815260076020526040902080546001600160a01b0316331461160f57604080518082018252600281526104e360f41b6020820152905162461bcd60e51b81526109959190600401614ab4565b82356000908152600b602052604081208054909103611658576040805180820182526002815261553360f01b6020820152905162461bcd60e51b81526109959190600401614ab4565b6003546000906001600160a01b031663f64af3d36116796020880188614ddb565b6040518363ffffffff1660e01b8152600401611696929190615090565b600060405180830381865afa1580156116b3573d6000803e3d6000fd5b505050506040513d6000823e601f3d908101601f191682016040526116db9190810190615316565b82546020820151519192501461171b576040805180820182526002815261553160f01b6020820152905162461bcd60e51b81526109959190600401614ab4565b60005b81602001515181101561181b5782818154811061173d5761173d614da5565b9060005260206000209060040201600001548260200151828151811061176557611765614da5565b6020026020010151600001511415806117d4575082818154811061178b5761178b614da5565b60009182526020918290206001600490920201015490830151805163ffffffff90921691839081106117bf576117bf614da5565b60200260200101516020015163ffffffff1614155b15611809576040805180820182526002815261553160f01b6020820152905162461bcd60e51b81526109959190600401614ab4565b806118138161501e565b91505061171e565b5060008260008154811061183157611831614da5565b600091825260208220600360049092020181015490549092506001600160a01b031663aca6fee8848361186760808c018c614ddb565b878d606001602081019061187b91906154b0565b6040518763ffffffff1660e01b815260040161189c96959493929190615548565b600060405180830381865afa1580156118b9573d6000803e3d6000fd5b505050506040513d6000823e601f3d908101601f191682016040526118e19190810190615685565b90506000600280836040516118f691906156b9565b602060405180830381855afa158015611913573d6000803e3d6000fd5b5050506040513d601f19601f8201168201806040525081019061193691906150a4565b60405160200161194891815260200190565b60408051601f1981840301815290829052611962916156b9565b602060405180830381855afa15801561197f573d6000803e3d6000fd5b5050506040513d601f19601f820116820180604052508101906119a291906150a4565b6000805460018901546040516326415b0f60e21b81526001600160a01b03918216600482015293945091928392909116906399056c3c90602401600060405180830381865afa1580156119f9573d6000803e3d6000fd5b505050506040513d6000823e601f3d908101601f19168201604052611a219190810190615731565b6101a00151905060005b866040015151811015611bf857600554604051632e235f3960e01b81526000916001600160a01b031690632e235f3990611a69908690600401614ab4565b600060405180830381865afa158015611a86573d6000803e3d6000fd5b505050506040513d6000823e601f3d908101601f19168201604052611aae9190810190615685565b9050808051906020012088604001518381518110611ace57611ace614da5565b602002602001015160200151805190602001201493508315611be5576000612710600260009054906101000a90046001600160a01b03166001600160a01b03166355f50acc6040518163ffffffff1660e01b8152600401602060405180830381865afa158015611b42573d6000803e3d6000fd5b505050506040513d601f19601f82011682018060405250810190611b6691906150a4565b611b70908a6158d9565b611b7a9190615906565b90508089604001518481518110611b9357611b93614da5565b6020026020010151600001516001600160401b03161015611bde576040805180820182526002815261493560f01b6020820152905162461bcd60e51b81526109959190600401614ab4565b5050611bf8565b5080611bf08161501e565b915050611a2b565b5081611c2e576040805180820182526002815261493360f01b6020820152905162461bcd60e51b81526109959190600401614ab4565b611c3e60c08b0160a08c01614a97565b6003890180546001600160a01b0319166001600160a01b03929092169190911790554260028a81019190915560048a01805460ff1916600183021790555089356000908152600c60209081526040909120849055611c9e908b018b614ddb565b8b35600090815260086020526040902091611cba919083614eba565b50611cc860808b018b614ddb565b8b356000908152600a6020526040902091611ce4919083614eba565b506000838152600e602090815260408083208d359055600d9091529020611d0b858261591a565b50875460018901546001600160a01b03918216918c35917f81c89bbce5115bf315ea29f7001ebabb88f6d3e4d76132bf792f2085799ed0e49116611d5260208f018f614ddb565b8f8060800190611d629190614ddb565b8f60030160009054906101000a90046001600160a01b0316604051611d8c969594939291906159d9565b60405180910390a3505050505050505050611db46001600080516020615c3b83398151915255565b50565b611dbf61366b565b611dc960006137b1565b565b60045460009081906001600160a01b03163314611e125760408051808201825260028152614e3760f01b6020820152905162461bcd60e51b81526109959190600401614ab4565b6000838152600760209081526040808320815160c08101835281546001600160a01b0390811682526001808401548216838701526002808501548316848701526003808601548416606080870191909152600480880154861660808089019190915260059098015490951660a08701528c8a526006808a52888b20895161010081018b5281548152958101549a86019a909a52928901549784019790975287015495820195909552908501549195949093909284019160ff1690811115611edb57611edb614982565b6006811115611eec57611eec614982565b815260200160058201548152602001600682018054611f0a90614e37565b80601f0160208091040260200160405190810160405280929190818152602001828054611f3690614e37565b8015611f835780601f10611f5857610100808354040283529160200191611f83565b820191906000526020600020905b815481529060010190602001808311611f6657829003601f168201915b5050509183525050600791909101546020909101529050600081608001516006811115611fb257611fb2614982565b148015611fc25750806020015142115b8061205c5750600581608001516006811115611fe057611fe0614982565b14801561205c57506000546020830151604051632911125160e01b81526001600160a01b039182166004820152911690632911125190602401602060405180830381865afa158015612036573d6000803e3d6000fd5b505050506040513d601f19601f8201168201806040525081019061205a919061504c565b155b156120765761206b8583613822565b935093505050915091565b60408051808201825260028152612a1960f11b6020820152905162461bcd60e51b81526109959190600401614ab4565b915091565b6120b3614884565b6006600083815260200190815260200160002060405180610100016040529081600082015481526020016001820154815260200160028201548152602001600382015481526020016004820160009054906101000a900460ff166006811115610bcf57610bcf614982565b6060600b6000838152602001908152602001600020805480602002602001604051908101604052809291908181526020016000905b8282101561223e576000848152602090819020604080516080810182526004860290920180548352600181015463ffffffff1693830193909352600283018054929392918401916121a390614e37565b80601f01602080910402602001604051908101604052809291908181526020018280546121cf90614e37565b801561221c5780601f106121f15761010080835404028352916020019161221c565b820191906000526020600020905b8154815290600101906020018083116121ff57829003601f168201915b5050505050815260200160038201548152505081526020019060010190612153565b505050509050919050565b61225161366b565b6001600160a01b03811661228f57604080518082018252600281526105a360f41b6020820152905162461bcd60e51b81526109959190600401614ab4565b600580546001600160a01b0319166001600160a01b0383169081179091556040517f5d263627c90d0f6c9e5b56ab2a0952bc65431ee3225325ee7be26c5856d1446290600090a250565b6000818152600660208181526040808420815161010081018352815481526001820154938101939093526002810154918301919091526003810154606083015260048101548493608084019160ff169081111561233857612338614982565b600681111561234957612349614982565b81526020016005820154815260200160068201805461236790614e37565b80601f016020809104026020016040519081016040528092919081815260200182805461239390614e37565b80156123e05780601f106123b5576101008083540402835291602001916123e0565b820191906000526020600020905b8154815290600101906020018083116123c357829003601f168201915b505050918352505060079190910154602090910152608081015192509050600082600681111561241257612412614982565b1480156124225750428160200151105b1561242c57600391505b60028160800151600681111561244457612444614982565b1480156124555750612455816136c6565b1561245f57600391505b50919050565b60008181526007602052604090819020905163520936b560e01b815260048101839052309063520936b590602401602060405180830381865afa1580156124b0573d6000803e3d6000fd5b505050506040513d601f19601f820116820180604052508101906124d4919061504c565b6125085760408051808201825260028152610a8760f31b6020820152905162461bcd60e51b81526109959190600401614ab4565b80546001600160a01b0316331461254957604080518082018252600281526104e360f41b6020820152905162461bcd60e51b81526109959190600401614ab4565b6040805160c08101825282546001600160a01b0390811682526001840154811660208301526002840154811692820192909252600383015482166060820152600483015482166080820152600583015490911660a08201526125ac908390613822565b50505050565b600d60205260009081526040902080546125cb90614e37565b80601f01602080910402602001604051908101604052809291908181526020018280546125f790614e37565b80156126445780601f1061261957610100808354040283529160200191612644565b820191906000526020600020905b81548152906001019060200180831161262757829003601f168201915b505050505081565b6000818152600860205260409020805460609190610cfe90614e37565b61267161366b565b6001600160a01b0381166126c75760405162461bcd60e51b815260206004820152601d60248201527f496e76616c696420436f6e6669674d616e6167657220616464726573730000006044820152606401610995565b600280546001600160a01b0319166001600160a01b0383169081179091556040517f6a801685c5950e3d8ece256f75ca0ff31ed0ae02aeae73f8180ff32e978a2f6b90600090a250565b600081815260076020908152604091829020825160c08101845281546001600160a01b03908116825260018301548116938201849052600283015481169482019490945260038201548416606082015260048201548416608082015260059091015490921660a083015233146127b157604080518082018252600281526104e360f41b6020820152905162461bcd60e51b81526109959190600401614ab4565b60006006600084815260200190815260200160002060405180610100016040529081600082015481526020016001820154815260200160028201548152602001600382015481526020016004820160009054906101000a900460ff16600681111561281e5761281e614982565b600681111561282f5761282f614982565b81526020016005820154815260200160068201805461284d90614e37565b80601f016020809104026020016040519081016040528092919081815260200182805461287990614e37565b80156128c65780601f1061289b576101008083540402835291602001916128c6565b820191906000526020600020905b8154815290600101906020018083116128a957829003601f168201915b5050505050815260200160078201548152505090508060a00151600003612917576040805180820182526002815261211960f11b6020820152905162461bcd60e51b81526109959190600401614ab4565b600254604080516369e6c5a560e01b815290516000926001600160a01b0316916369e6c5a59160048083019260209291908290030181865afa158015612961573d6000803e3d6000fd5b505050506040513d601f19601f8201168201806040525081019061298591906150a4565b82519091506129959082906150bd565b42116129cb576040805180820182526002815261543160f01b6020820152905162461bcd60e51b81526109959190600401614ab4565b6129d58484613822565b505082602001516001600160a01b031683600001516001600160a01b0316857f539b8179d7bd023ac9f8ab39d08bd72917d41b88f4479eccb11c4c8b8e2931ef42604051612a2591815260200190565b60405180910390a450505050565b7ff0c57e16840df040f15088dc2f81fe391c3923bec73e23a9662efc9c229c6a008054600160401b810460ff1615906001600160401b0316600081158015612a785750825b90506000826001600160401b03166001148015612a945750303b155b905081158015612aa2575080155b15612ac05760405163f92ee8a960e01b815260040160405180910390fd5b845467ffffffffffffffff191660011785558315612aea57845460ff60401b1916600160401b1785555b612af2613900565b612afb33613910565b6001600160a01b038b161580612b1857506001600160a01b038a16155b80612b2a57506001600160a01b038916155b80612b3c57506001600160a01b038816155b80612b4e57506001600160a01b038716155b80612b6057506001600160a01b038616155b15612b9557604080518082018252600281526105a360f41b6020820152905162461bcd60e51b81526109959190600401614ab4565b600080546001600160a01b03199081166001600160a01b038e8116919091179092556001805482168d84161790556002805482168c84161790556004805482168b84161790556003805482168a8416179055600580549091169188169190911790558315612c3d57845460ff60401b19168555604051600181527fc7f505b2f371ae2175ee4913f4499e1f2633a7b5936321eed1cdaeb6115181d29060200160405180910390a15b5050505050505050505050565b6004546001600160a01b03163314612c8c5760408051808201825260028152614e3760f01b6020820152905162461bcd60e51b81526109959190600401614ab4565b600082815260076020908152604080832060069092529091206001600482015460ff166006811115612cc057612cc0614982565b03612cf55760408051808201825260028152612a1960f11b6020820152905162461bcd60e51b81526109959190600401614ab4565b6001600160a01b038316612d3357604080518082018252600281526105a360f41b6020820152905162461bcd60e51b81526109959190600401614ab4565b60048101805460ff1916600117905560038101546040516000916001600160a01b038616918381818185875af1925050503d8060008114612d90576040519150601f19603f3d011682016040523d82523d6000602084013e612d95565b606091505b5050905080612dce576040805180820182526002815261463160f01b6020820152905162461bcd60e51b81526109959190600401614ab4565b600054600184015460405163cedb588b60e01b81526001600160a01b0391821660048201526024810188905291169063cedb588b90604401600060405180830381600087803b158015612e2057600080fd5b505af1158015612e34573d6000803e3d6000fd5b505084546040516001600160a01b0390911692508791507f15d1e788ed875e6f2294a51087aa5cd2e2c10c92e627eb0a6bbbfceceaa01b9890600090a35050505050565b60006060612e84613765565b612e8d83613921565b6000612e9d426020860135615a26565b60008054919250906001600160a01b031663dfcf048d83612ec16020890189614a97565b6040516001600160e01b031960e085901b16815260048101929092526001600160a01b03166024820152604401602060405180830381865afa158015612f0b573d6000803e3d6000fd5b505050506040513d601f19601f82011682018060405250810190612f2f91906150a4565b905080341015612f69576040805180820182526002815261543560f01b6020820152905162461bcd60e51b81526109959190600401614ab4565b600080546001600160a01b031663b6ca3e0784612f8960208a018a614a97565b6040516001600160e01b031960e085901b16815260048101929092526001600160a01b03166024820152604401602060405180830381865afa158015612fd3573d6000803e3d6000fd5b505050506040513d601f19601f82011682018060405250810190612ff791906150a4565b90506000423361300a60208a018a614a97565b600f805490600061301a8361501e565b909155506040805160208101959095526bffffffffffffffffffffffff19606094851b8116918601919091529190921b166054830152606882015260880160408051601f1981840301815291905280516020918201206000549092506001600160a01b031690632b2d37da90613092908a018a614a97565b6040516001600160e01b031960e084901b1681526001600160a01b03909116600482015260248101849052604401600060405180830381600087803b1580156130da57600080fd5b505af11580156130ee573d6000803e3d6000fd5b505050506130fe81883485613cb7565b60006131168261311160208b018b614a97565b613dbb565b90506131256020890189614a97565b6001600160a01b0316336001600160a01b0316837f695226fd4507dabd71f2c5d9fec25694ac4b7284ac45ccf4e5fdbd670f36130e8b6020013534888e60400160208101906131749190614a97565b604080519485526020850193909352918301526001600160a01b0316606082015242608082015260a00160405180910390a490955093505050506120a66001600080516020615c3b83398151915255565b6131cd61366b565b6001600160a01b03811661320b57604080518082018252600281526105a360f41b6020820152905162461bcd60e51b81526109959190600401614ab4565b600380546001600160a01b0319166001600160a01b0383169081179091556040517fedfaa3bf5c2591af99a9a84e77e7d5b52a712ac2f7df014f60a6d9581e1fe4c890600090a250565b600087815260076020526040902080546001600160a01b031633146132a457604080518082018252600281526104e360f41b6020820152905162461bcd60e51b81526109959190600401614ab4565b600088815260066020526040812060058101549091036132c5575050613627565b600554604051632e235f3960e01b81526000916001600160a01b031690632e235f39906132f9906006860190600401615a39565b600060405180830381865afa158015613316573d6000803e3d6000fd5b505050506040513d6000823e601f3d908101601f1916820160405261333e9190810190615685565b60035460405163f64af3d360e01b81529192506000916001600160a01b039091169063f64af3d390613376908d908d90600401615090565b600060405180830381865afa158015613393573d6000803e3d6000fd5b505050506040513d6000823e601f3d908101601f191682016040526133bb9190810190615316565b90506000805b82604001515181101561344f576000836040015182815181106133e6576133e6614da5565b60200260200101516020015190506133fe8582613f4e565b1561343c578360400151828151811061341957613419614da5565b6020026020010151600001516001600160401b03168361343991906150bd565b92505b50806134478161501e565b9150506133c1565b50836005015481101561348c576040805180820182526002815261493560f01b6020820152905162461bcd60e51b81526109959190600401614ab4565b601154604051631831281f60e21b815263ffffffff881660048201526000916001600160a01b0316906360c4a07c9060240161010060405180830381865afa1580156134dc573d6000803e3d6000fd5b505050506040513d601f19601f820116820180604052508101906135009190615ac4565b90506000600360009054906101000a90046001600160a01b03166001600160a01b0316636d78a10b8e8e6040518363ffffffff1660e01b8152600401613547929190615090565b602060405180830381865afa158015613564573d6000803e3d6000fd5b505050506040513d601f19601f8201168201806040525081019061358891906150a4565b905061359b8183604001518d8d8d613fb1565b6135cf576040805180820182526002815261092760f31b6020820152905162461bcd60e51b81526109959190600401614ab4565b6007860181905560048601805460ff1916905560405163ffffffff8916815281908f907fa95a5e84942ed971fc1c23b67adb9b126bd5c349e645b490fcd60a72f516af609060200160405180910390a3505050505050505b50505050505050565b61363861366b565b6001600160a01b03811661366257604051631e4fbdf760e01b815260006004820152602401610995565b611db4816137b1565b3361369d7f9016d09d72d40fdae2fd8ceac6b6234c7706214fd39c1cd1e609a0528c199300546001600160a01b031690565b6001600160a01b031614611dc95760405163118cdaa760e01b8152336004820152602401610995565b600081602001514211156136dc57506001919050565b60025460408051632b6f600d60e01b815290516000926001600160a01b031691632b6f600d9160048083019260209291908290030181865afa158015613726573d6000803e3d6000fd5b505050506040513d601f19601f8201168201806040525081019061374a91906150a4565b905080836040015161375c91906150bd565b42119392505050565b600080516020615c3b83398151915280546001190161379757604051633ee5aeb560e01b815260040160405180910390fd5b60029055565b6001600080516020615c3b83398151915255565b7f9016d09d72d40fdae2fd8ceac6b6234c7706214fd39c1cd1e609a0528c19930080546001600160a01b031981166001600160a01b03848116918217845560405192169182907f8be0079c531659141344cd1fd0a4f28419497f9722a3daafe3b4186f6b6457e090600090a3505050565b600080600080613832868661403d565b600054602088015160405163cedb588b60e01b81526001600160a01b039182166004820152602481018b9052939550919350169063cedb588b90604401600060405180830381600087803b15801561388957600080fd5b505af115801561389d573d6000803e3d6000fd5b505050600087815260066020526040808220600401805460ff19166001179055875190516001600160a01b03909116925088917f15d1e788ed875e6f2294a51087aa5cd2e2c10c92e627eb0a6bbbfceceaa01b9891a390925090505b9250929050565b61390861461e565b611dc9614667565b61391861461e565b611db48161466f565b60006139306020830183614a97565b6001600160a01b0316148061395d575060006139526060830160408401614a97565b6001600160a01b0316145b80613980575060006139756080830160608401614a97565b6001600160a01b0316145b156139b557604080518082018252600281526105a360f41b6020820152905162461bcd60e51b81526109959190600401614ab4565b60015460405163682dc82b60e11b81523360048201526001600160a01b039091169063d05b905690602401602060405180830381865afa1580156139fd573d6000803e3d6000fd5b505050506040513d601f19601f82011682018060405250810190613a21919061504c565b613a55576040805180820182526002815261221960f11b6020820152905162461bcd60e51b81526109959190600401614ab4565b6000546001600160a01b031663e2b4efb8613a736020840184614a97565b6040516001600160e01b031960e084901b1681526001600160a01b039091166004820152602401602060405180830381865afa158015613ab7573d6000803e3d6000fd5b505050506040513d601f19601f82011682018060405250810190613adb919061504c565b613b0f576040805180820182526002815261413360f01b6020820152905162461bcd60e51b81526109959190600401614ab4565b42816020013511613b4a576040805180820182526002815261543360f01b6020820152905162461bcd60e51b81526109959190600401614ab4565b6000613b5a426020840135615a26565b600254604051636dd5b69d60e01b81527f251496a2e9229b930e5943f3c3e4da6cb786017948b856c9d455ed9cf0fc156c60048201529192506001600160a01b031690636dd5b69d90602401602060405180830381865afa158015613bc3573d6000803e3d6000fd5b505050506040513d601f19601f82011682018060405250810190613be791906150a4565b811080613c7e5750600254604051636dd5b69d60e01b81527fd31f84da73b6cb3a8c2e853a7c46b1c95600fc6ab5acdbeb4f7f16e875c25ab860048201526001600160a01b0390911690636dd5b69d90602401602060405180830381865afa158015613c57573d6000803e3d6000fd5b505050506040513d601f19601f82011682018060405250810190613c7b91906150a4565b81115b15613cb3576040805180820182526002815261493160f01b6020820152905162461bcd60e51b81526109959190600401614ab4565b5050565b6000848152600660209081526040808320600783529220428355908501356001830155600382018490556005820183905582613cf4576000613cf7565b60065b60048301805460ff19166001836006811115613d1557613d15614982565b0217905550613d276020860186614a97565b6001820180546001600160a01b0319166001600160a01b0392909216919091179055613d596060860160408701614a97565b6002820180546001600160a01b03929092166001600160a01b031992831617905581541633178155613d916080860160608701614a97565b60059190910180546001600160a01b0319166001600160a01b039092169190911790555050505050565b600080546040516326415b0f60e21b81526001600160a01b0384811660048301526060939216906399056c3c90602401600060405180830381865afa158015613e08573d6000803e3d6000fd5b505050506040513d6000823e601f3d908101601f19168201604052613e309190810190615731565b6101800151604080514260208201526bffffffffffffffffffffffff193360601b169181019190915260548101869052909150600090607401604051602081830303815290604052805190602001209050600081835184604051602001613e9993929190615b78565b60408051601f198184030181529082905260055463064d1f4960e51b83529092506000916001600160a01b039091169063c9a3e92090613edd908590600401615bcd565b600060405180830381865afa158015613efa573d6000803e3d6000fd5b505050506040513d6000823e601f3d908101601f19168201604052613f229190810190615685565b600088815260066020819052604090912091925001613f41828261591a565b5093505050505b92915050565b815181516000916001918114808314613f6a5760009250613fa7565b600160208701838101602088015b6002848385100103613fa2578051835114613f965760009650600093505b60209283019201613f78565b505050505b5090949350505050565b60008582825b8581101561402f576000878783818110613fd357613fd3614da5565b905060200201359050600283613fe99190615c09565b60000361400157613ffa8482614677565b935061400e565b61400b8185614677565b93505b614019600284615906565b92505080806140279061501e565b915050613fb7565b505090941495945050505050565b60008060006006600086815260200190815260200160002060405180610100016040529081600082015481526020016001820154815260200160028201548152602001600382015481526020016004820160009054906101000a900460ff1660068111156140ad576140ad614982565b60068111156140be576140be614982565b8152602001600582015481526020016006820180546140dc90614e37565b80601f016020809104026020016040519081016040528092919081815260200182805461410890614e37565b80156141555780601f1061412a57610100808354040283529160200191614155565b820191906000526020600020905b81548152906001019060200180831161413857829003601f168201915b5050505050815260200160078201548152505090506000816020015142116141885781516141839042615a26565b614199565b815160208301516141999190615a26565b60008054602088015160405163dfcf048d60e01b8152600481018590526001600160a01b039182166024820152939450919291169063dfcf048d90604401602060405180830381865afa1580156141f4573d6000803e3d6000fd5b505050506040513d601f19601f8201168201806040525081019061421891906150a4565b90508060000361423157600080945094505050506138f9565b8260600151811115614244575060608201515b600254604051636dd5b69d60e01b81527fd91f20541e9312a0f4d27f0f0ba02500035307ac99ea67c86c8342ab3fd71bc56004820152600091612710916001600160a01b0390911690636dd5b69d90602401602060405180830381865afa1580156142b3573d6000803e3d6000fd5b505050506040513d601f19601f820116820180604052508101906142d791906150a4565b6142e190846158d9565b6142eb9190615906565b905060006142f98284615a26565b90506000600260009054906101000a90046001600160a01b03166001600160a01b0316638b6570a06040518163ffffffff1660e01b8152600401602060405180830381865afa158015614350573d6000803e3d6000fd5b505050506040513d601f19601f820116820180604052508101906143749190615c1d565b90506000816001600160a01b03168460405160006040518083038185875af1925050503d80600081146143c3576040519150601f19603f3d011682016040523d82523d6000602084013e6143c8565b606091505b5050905080614401576040805180820182526002815261463160f01b6020820152905162461bcd60e51b81526109959190600401614ab4565b6000805460208c01516040516326415b0f60e21b81526001600160a01b0391821660048201529116906399056c3c90602401600060405180830381865afa158015614450573d6000803e3d6000fd5b505050506040513d6000823e601f3d908101601f191682016040526144789190810190615731565b90506000816101c001516001600160a01b03168560405160006040518083038185875af1925050503d80600081146144cc576040519150601f19603f3d011682016040523d82523d6000602084013e6144d1565b606091505b505090508061450a576040805180820182526002815261463160f01b6020820152905162461bcd60e51b81526109959190600401614ab4565b6000878a6060015161451c9190615a26565b905080156145b55760008d60a001516001600160a01b03168260405160006040518083038185875af1925050503d8060008114614575576040519150601f19603f3d011682016040523d82523d6000602084013e61457a565b606091505b50509050806145b3576040805180820182526002815261463160f01b6020820152905162461bcd60e51b81526109959190600401614ab4565b505b6101c0830151604080518a8152602081018a90529081018390526001600160a01b03909116908f907f0e6f7005813080ec5f9df085ae1a9ee5221216f7746e432f210b6ce161e681659060600160405180910390a350939c949b50939950505050505050505050565b7ff0c57e16840df040f15088dc2f81fe391c3923bec73e23a9662efc9c229c6a0054600160401b900460ff16611dc957604051631afcd79f60e31b815260040160405180910390fd5b61379d61461e565b61363861461e565b6040805181815260608101825260009182919060208201818036833701905050905060005b602081101561475357846146b182601f615a26565b602081106146c1576146c1614da5565b1a60f81b8282815181106146d7576146d7614da5565b60200101906001600160f81b031916908160001a905350836146fa82601f615a26565b6020811061470a5761470a614da5565b1a60f81b8261471a8360206150bd565b8151811061472a5761472a614da5565b60200101906001600160f81b031916908160001a9053508061474b8161501e565b91505061469c565b5061475d81614765565b949350505050565b6000806002808460405161477991906156b9565b602060405180830381855afa158015614796573d6000803e3d6000fd5b5050506040513d601f19601f820116820180604052508101906147b991906150a4565b6040516020016147cb91815260200190565b60408051601f19818403018152908290526147e5916156b9565b602060405180830381855afa158015614802573d6000803e3d6000fd5b5050506040513d601f19601f8201168201806040525081019061482591906150a4565b905061483081614837565b9392505050565b60008060005b602081101561487d576148518160086158d9565b84826020811061486357614863614da5565b1a901b9190911790806148758161501e565b91505061483d565b5092915050565b60405180610100016040528060008152602001600081526020016000815260200160008152602001600060068111156148bf576148bf614982565b81526000602082018190526060604083018190529091015290565b60008083601f8401126148ec57600080fd5b5081356001600160401b0381111561490357600080fd5b6020830191508360208260051b85010111156138f957600080fd5b60008060006040848603121561493357600080fd5b8335925060208401356001600160401b0381111561495057600080fd5b61495c868287016148da565b9497909650939450505050565b60006020828403121561497b57600080fd5b5035919050565b634e487b7160e01b600052602160045260246000fd5b600781106149b657634e487b7160e01b600052602160045260246000fd5b9052565b60005b838110156149d55781810151838201526020016149bd565b50506000910152565b600081518084526149f68160208601602086016149ba565b601f01601f19169290920160200192915050565b602081528151602082015260208201516040820152604082015160608201526060820151608082015260006080830151614a4760a0840182614998565b5060a083015160c083015260c08301516101008060e0850152614a6e6101208501836149de565b60e095909501519301929092525090919050565b6001600160a01b0381168114611db457600080fd5b600060208284031215614aa957600080fd5b813561483081614a82565b60208152600061483060208301846149de565b60008083601f840112614ad957600080fd5b5081356001600160401b03811115614af057600080fd5b6020830191508360208285010111156138f957600080fd5b600080600060408486031215614b1d57600080fd5b8335925060208401356001600160401b03811115614b3a57600080fd5b61495c86828701614ac7565b600060208284031215614b5857600080fd5b81356001600160401b03811115614b6e57600080fd5b820160c0818503121561483057600080fd5b60006020808301818452808551808352604092508286019150828160051b87010184880160005b83811015614c0457603f19898403018552815160808151855263ffffffff898301511689860152878201518189870152614be3828701826149de565b60609384015196909301959095525094870194925090860190600101614ba7565b509098975050505050505050565b60208101613f488284614998565b60008060008060008060c08789031215614c3957600080fd5b8635614c4481614a82565b95506020870135614c5481614a82565b94506040870135614c6481614a82565b93506060870135614c7481614a82565b92506080870135614c8481614a82565b915060a0870135614c9481614a82565b809150509295509295509295565b60008060408385031215614cb557600080fd5b823591506020830135614cc781614a82565b809150509250929050565b60006080828403121561245f57600080fd5b82815260406020820152600061475d60408301846149de565b63ffffffff81168114611db457600080fd5b600080600080600080600060a0888a031215614d2a57600080fd5b8735965060208801356001600160401b0380821115614d4857600080fd5b614d548b838c01614ac7565b909850965060408a0135915080821115614d6d57600080fd5b50614d7a8a828b016148da565b909550935050606088013591506080880135614d9581614cfd565b8091505092959891949750929550565b634e487b7160e01b600052603260045260246000fd5b60008235607e19833603018112614dd157600080fd5b9190910192915050565b6000808335601e19843603018112614df257600080fd5b8301803591506001600160401b03821115614e0c57600080fd5b6020019150368190038213156138f957600080fd5b634e487b7160e01b600052604160045260246000fd5b600181811c90821680614e4b57607f821691505b60208210810361245f57634e487b7160e01b600052602260045260246000fd5b601f821115614eb557600081815260208120601f850160051c81016020861015614e925750805b601f850160051c820191505b81811015614eb157828155600101614e9e565b5050505b505050565b6001600160401b03831115614ed157614ed1614e21565b614ee583614edf8354614e37565b83614e6b565b6000601f841160018114614f195760008515614f015750838201355b600019600387901b1c1916600186901b178355614f73565b600083815260209020601f19861690835b82811015614f4a5786850135825560209485019460019092019101614f2a565b5086821015614f675760001960f88860031b161c19848701351681555b505060018560011b0183555b5050505050565b81358155600181016020830135614f9081614cfd565b815463ffffffff191663ffffffff91909116179055604082013536839003601e19018112614fbd57600080fd5b820180356001600160401b03811115614fd557600080fd5b602082019150803603821315614fea57600080fd5b614ff8818360028601614eba565b5050606082013560038201555050565b634e487b7160e01b600052601160045260246000fd5b60006001820161503057615030615008565b5060010190565b8051801515811461504757600080fd5b919050565b60006020828403121561505e57600080fd5b61483082615037565b81835281816020850137506000828201602090810191909152601f909101601f19169091010190565b60208152600061475d602083018486615067565b6000602082840312156150b657600080fd5b5051919050565b80820180821115613f4857613f48615008565b6000602082840312156150e257600080fd5b81356003811061483057600080fd5b604080519081016001600160401b038111828210171561511357615113614e21565b60405290565b60405160a081016001600160401b038111828210171561511357615113614e21565b604051608081016001600160401b038111828210171561511357615113614e21565b60405161020081016001600160401b038111828210171561511357615113614e21565b604051601f8201601f191681016001600160401b03811182821017156151a8576151a8614e21565b604052919050565b805161504781614cfd565b60006001600160401b038211156151d4576151d4614e21565b5060051b60200190565b600082601f8301126151ef57600080fd5b81516001600160401b0381111561520857615208614e21565b61521b601f8201601f1916602001615180565b81815284602083860101111561523057600080fd5b61475d8260208301602087016149ba565b600082601f83011261525257600080fd5b81516020615267615262836151bb565b615180565b82815260059290921b8401810191818101908684111561528657600080fd5b8286015b84811015613f415780516001600160401b03808211156152aa5760008081fd5b908801906040828b03601f19018113156152c45760008081fd5b6152cc6150f1565b8784015183811681146152df5760008081fd5b81529083015190828211156152f45760008081fd5b6153028c89848701016151de565b81890152865250505091830191830161528a565b6000602080838503121561532957600080fd5b82516001600160401b038082111561534057600080fd5b9084019060a0828703121561535457600080fd5b61535c615119565b825161536781614cfd565b8152828401518281111561537a57600080fd5b8301601f8101881361538b57600080fd5b8051615399615262826151bb565b81815260059190911b8201860190868101908a8311156153b857600080fd5b8784015b83811015615455578051878111156153d357600080fd5b85016080818e03601f190112156153e957600080fd5b6153f161513b565b8a8201518152604082015161540581614cfd565b818c015260608201518981111561541c5760008081fd5b61542a8f8d838601016151de565b6040830152506080820151915061544082614cfd565b606081019190915283529188019188016153bc565b50808886015250505050604083015193508184111561547357600080fd5b61547f87858501615241565b6040820152615490606084016151b0565b60608201526154a160808401615037565b60808201529695505050505050565b6000602082840312156154c257600080fd5b813560ff8116811461483057600080fd5b600082825180855260208086019550808260051b84010181860160005b8481101561553b57858303601f19018952815180516001600160401b031684528401516040858501819052615527818601836149de565b9a86019a94505050908301906001016154f0565b5090979650505050505050565b60a081526000610140820163ffffffff808a511660a08501526020808b015160a060c087015283815180865261016095508588019150858160051b8901019550838301925060005b818110156155f05761015f198988030183528351608081518952878783015116878a015260408083015182828c01526155cb838c01826149de565b6060948501518b169b9094019a909a5250909750509284019291840191600101615590565b5050505060408b0151858403609f190160e0870152915061561183836154d3565b925060608b0151915061562d61010086018363ffffffff169052565b60808b0151151561012086015263ffffffff8a1690850152508281036040840152615659818789615067565b91505061567160608301856001600160401b03169052565b60ff83166080830152979650505050505050565b60006020828403121561569757600080fd5b81516001600160401b038111156156ad57600080fd5b61475d848285016151de565b60008251614dd18184602087016149ba565b805161504781614a82565b600082601f8301126156e757600080fd5b815160206156f7615262836151bb565b82815260059290921b8401810191818101908684111561571657600080fd5b8286015b84811015613f41578051835291830191830161571a565b60006020828403121561574357600080fd5b81516001600160401b038082111561575a57600080fd5b90830190610200828603121561576f57600080fd5b61577761515d565b615780836156cb565b815261578e60208401615037565b60208201526040830151604082015260608301516060820152608083015160808201526157bd60a084016156cb565b60a08201526157ce60c084016156cb565b60c082015260e0830151828111156157e557600080fd5b6157f1878286016156d6565b60e0830152506101006158058185016156cb565b90820152610120838101518381111561581d57600080fd5b615829888287016151de565b828401525050610140808401518381111561584357600080fd5b61584f888287016151de565b828401525050610160808401518183015250610180808401518381111561587557600080fd5b615881888287016151de565b8284015250506101a0808401518381111561589b57600080fd5b6158a7888287016151de565b8284015250506101c091506158bd8284016156cb565b918101919091526101e091820151918101919091529392505050565b8082028115828204841417613f4857613f48615008565b634e487b7160e01b600052601260045260246000fd5b600082615915576159156158f0565b500490565b81516001600160401b0381111561593357615933614e21565b615947816159418454614e37565b84614e6b565b602080601f83116001811461597c57600084156159645750858301515b600019600386901b1c1916600185901b178555614eb1565b600085815260208120601f198616915b828110156159ab5788860151825594840194600190910190840161598c565b50858210156159c95787850151600019600388901b60f8161c191681555b5050505050600190811b01905550565b600060018060a01b038089168352608060208401526159fc60808401888a615067565b8381036040850152615a0f818789615067565b925050808416606084015250979650505050505050565b81810381811115613f4857613f48615008565b6000602080835260008454615a4d81614e37565b80848701526040600180841660008114615a6e5760018114615a8857615ab6565b60ff1985168984015283151560051b890183019550615ab6565b896000528660002060005b85811015615aae5781548b8201860152908301908801615a93565b8a0184019650505b509398975050505050505050565b6000610100808385031215615ad857600080fd5b604051908101906001600160401b0382118183101715615afa57615afa614e21565b8160405283519150615b0b82614cfd565b8181526020840151602082015260408401516040820152615b2e606085016151b0565b6060820152615b3f608085016151b0565b6080820152615b5060a085016151b0565b60a082015260c084015160c0820152615b6b60e085016151b0565b60e0820152949350505050565b600160fd1b8152836001820152607560f81b602182015260ff60f81b8360f81b16602282015260008251615bb38160238501602087016149ba565b602b60fa1b60239390910192830152506024019392505050565b604081526000615be060408301846149de565b828103602084015260078152661b585a5b9b995d60ca1b60208201526040810191505092915050565b600082615c1857615c186158f0565b500690565b600060208284031215615c2f57600080fd5b815161483081614a8256fe9b779b17422d0df92223018b32b4d1fa46e071723d6817e2486d003becc55f00a26469706673582212202e7d901efc614b8d973d9181e62317c7c640818250e74ff8a50cb22e060602bd64736f6c63430008140033",
  "linkReferences": {},
  "deployedLinkReferences": {}
}