{
  "_format": "hh-sol-artifact-1",
  "contractName": "TransactionManager",
  "sourceName": "contracts/core/TransactionManager.sol",
  "abi": [
    {
      "inputs": [],
      "stateMutability": "nonpayable",
      "type": "constructor"
    },
    {
      "inputs": [],
      "name": "InvalidInitialization",
      "type": "error"
    },
    {
      "inputs": [],
      "name": "NotInitializing",
      "type": "error"
    },
    {
      "inputs": [
        {
          "internalType": "address",
          "name": "owner",
          "type": "address"
        }
      ],
      "name": "OwnableInvalidOwner",
      "type": "error"
    },
    {
      "inputs": [
        {
          "internalType": "address",
          "name": "account",
          "type": "address"
        }
      ],
      "name": "OwnableUnauthorizedAccount",
      "type": "error"
    },
    {
      "inputs": [],
      "name": "ReentrancyGuardReentrantCall",
      "type": "error"
    },
    {
      "anonymous": false,
      "inputs": [
        {
          "indexed": true,
          "internalType": "bytes32",
          "name": "txId",
          "type": "bytes32"
        },
        {
          "indexed": true,
          "internalType": "address",
          "name": "dapp",
          "type": "address"
        },
        {
          "indexed": false,
          "internalType": "address",
          "name": "arbitrator",
          "type": "address"
        },
        {
          "indexed": false,
          "internalType": "bytes",
          "name": "rawData",
          "type": "bytes"
        },
        {
          "indexed": false,
          "internalType": "bytes",
          "name": "script",
          "type": "bytes"
        },
        {
          "indexed": false,
          "internalType": "address",
          "name": "timeoutCompensationReceiver",
          "type": "address"
        }
      ],
      "name": "ArbitrationRequested",
      "type": "event"
    },
    {
      "anonymous": false,
      "inputs": [
        {
          "indexed": true,
          "internalType": "bytes32",
          "name": "txId",
          "type": "bytes32"
        },
        {
          "indexed": true,
          "internalType": "address",
          "name": "dapp",
          "type": "address"
        },
        {
          "indexed": true,
          "internalType": "address",
          "name": "arbitrator",
          "type": "address"
        },
        {
          "indexed": false,
          "internalType": "bytes",
          "name": "btcTxSignature",
          "type": "bytes"
        }
      ],
      "name": "ArbitrationSubmitted",
      "type": "event"
    },
    {
      "anonymous": false,
      "inputs": [
        {
          "indexed": true,
          "internalType": "address",
          "name": "newParser",
          "type": "address"
        }
      ],
      "name": "BTCAddressParserChanged",
      "type": "event"
    },
    {
      "anonymous": false,
      "inputs": [
        {
          "indexed": true,
          "internalType": "bytes32",
          "name": "txId",
          "type": "bytes32"
        },
        {
          "indexed": true,
          "internalType": "address",
          "name": "revenueETHAddress",
          "type": "address"
        },
        {
          "indexed": false,
          "internalType": "uint256",
          "name": "arbitratorFee",
          "type": "uint256"
        },
        {
          "indexed": false,
          "internalType": "uint256",
          "name": "systemFee",
          "type": "uint256"
        },
        {
          "indexed": false,
          "internalType": "uint256",
          "name": "refundedFee",
          "type": "uint256"
        }
      ],
      "name": "DepositFeeTransfer",
      "type": "event"
    },
    {
      "anonymous": false,
      "inputs": [
        {
          "indexed": false,
          "internalType": "uint64",
          "name": "version",
          "type": "uint64"
        }
      ],
      "name": "Initialized",
      "type": "event"
    },
    {
      "anonymous": false,
      "inputs": [
        {
          "indexed": true,
          "internalType": "address",
          "name": "previousOwner",
          "type": "address"
        },
        {
          "indexed": true,
          "internalType": "address",
          "name": "newOwner",
          "type": "address"
        }
      ],
      "name": "OwnershipTransferred",
      "type": "event"
    },
    {
      "anonymous": false,
      "inputs": [
        {
          "indexed": true,
          "internalType": "address",
          "name": "arbitratorManager",
          "type": "address"
        }
      ],
      "name": "SetArbitratorManager",
      "type": "event"
    },
    {
      "anonymous": false,
      "inputs": [
        {
          "indexed": true,
          "internalType": "bytes32",
          "name": "txId",
          "type": "bytes32"
        },
        {
          "indexed": true,
          "internalType": "address",
          "name": "dapp",
          "type": "address"
        }
      ],
      "name": "TransactionCompleted",
      "type": "event"
    },
    {
      "anonymous": false,
      "inputs": [
        {
          "indexed": true,
          "internalType": "bytes32",
          "name": "id",
          "type": "bytes32"
        },
        {
          "indexed": true,
          "internalType": "address",
          "name": "dapp",
          "type": "address"
        },
        {
          "indexed": true,
          "internalType": "address",
          "name": "arbitrator",
          "type": "address"
        },
        {
          "indexed": false,
          "internalType": "uint256",
          "name": "deadline",
          "type": "uint256"
        },
        {
          "indexed": false,
          "internalType": "uint256",
          "name": "depositFee",
          "type": "uint256"
        },
        {
          "indexed": false,
          "internalType": "address",
          "name": "compensationReceiver",
          "type": "address"
        }
      ],
      "name": "TransactionRegistered",
      "type": "event"
    },
    {
      "anonymous": false,
      "inputs": [
        {
          "indexed": true,
          "internalType": "bytes32",
          "name": "txId",
          "type": "bytes32"
        },
        {
          "indexed": true,
          "internalType": "address",
          "name": "dapp",
          "type": "address"
        }
      ],
      "name": "UTXOsUploaded",
      "type": "event"
    },
    {
      "inputs": [],
      "name": "arbitratorManager",
      "outputs": [
        {
          "internalType": "contract IArbitratorManager",
          "name": "",
          "type": "address"
        }
      ],
      "stateMutability": "view",
      "type": "function"
    },
    {
      "inputs": [],
      "name": "btcAddressParser",
      "outputs": [
        {
          "internalType": "contract IBtcAddress",
          "name": "",
          "type": "address"
        }
      ],
      "stateMutability": "view",
      "type": "function"
    },
    {
      "inputs": [],
      "name": "btcUtils",
      "outputs": [
        {
          "internalType": "contract IBTCUtils",
          "name": "",
          "type": "address"
        }
      ],
      "stateMutability": "view",
      "type": "function"
    },
    {
      "inputs": [],
      "name": "compensationManager",
      "outputs": [
        {
          "internalType": "address",
          "name": "",
          "type": "address"
        }
      ],
      "stateMutability": "view",
      "type": "function"
    },
    {
      "inputs": [
        {
          "internalType": "bytes32",
          "name": "id",
          "type": "bytes32"
        }
      ],
      "name": "completeTransaction",
      "outputs": [],
      "stateMutability": "nonpayable",
      "type": "function"
    },
    {
      "inputs": [
        {
          "internalType": "bytes32",
          "name": "id",
          "type": "bytes32"
        },
        {
          "internalType": "address",
          "name": "receivedCompensationAddress",
          "type": "address"
        }
      ],
      "name": "completeTransactionWithSlash",
      "outputs": [],
      "stateMutability": "nonpayable",
      "type": "function"
    },
    {
      "inputs": [],
      "name": "configManager",
      "outputs": [
        {
          "internalType": "contract IConfigManager",
          "name": "",
          "type": "address"
        }
      ],
      "stateMutability": "view",
      "type": "function"
    },
    {
      "inputs": [],
      "name": "dappRegistry",
      "outputs": [
        {
          "internalType": "contract IDAppRegistry",
          "name": "",
          "type": "address"
        }
      ],
      "stateMutability": "view",
      "type": "function"
    },
    {
      "inputs": [
        {
          "internalType": "uint256",
          "name": "deadline",
          "type": "uint256"
        },
        {
          "internalType": "address",
          "name": "arbitrator",
          "type": "address"
        }
      ],
      "name": "getRegisterTransactionFee",
      "outputs": [
        {
          "internalType": "uint256",
          "name": "fee",
          "type": "uint256"
        }
      ],
      "stateMutability": "view",
      "type": "function"
    },
    {
      "inputs": [
        {
          "internalType": "bytes32",
          "name": "id",
          "type": "bytes32"
        }
      ],
      "name": "getTransactionBtcRawDataById",
      "outputs": [
        {
          "internalType": "bytes",
          "name": "",
          "type": "bytes"
        }
      ],
      "stateMutability": "view",
      "type": "function"
    },
    {
      "inputs": [
        {
          "internalType": "bytes32",
          "name": "id",
          "type": "bytes32"
        }
      ],
      "name": "getTransactionDataById",
      "outputs": [
        {
          "components": [
            {
              "internalType": "uint256",
              "name": "startTime",
              "type": "uint256"
            },
            {
              "internalType": "uint256",
              "name": "deadline",
              "type": "uint256"
            },
            {
              "internalType": "uint256",
              "name": "requestArbitrationTime",
              "type": "uint256"
            },
            {
              "internalType": "uint256",
              "name": "depositedFee",
              "type": "uint256"
            },
            {
              "internalType": "enum DataTypes.TransactionStatus",
              "name": "status",
              "type": "uint8"
            }
          ],
          "internalType": "struct DataTypes.TransactionData",
          "name": "",
          "type": "tuple"
        }
      ],
      "stateMutability": "view",
      "type": "function"
    },
    {
      "inputs": [
        {
          "internalType": "bytes32",
          "name": "txHash",
          "type": "bytes32"
        }
      ],
      "name": "getTransactionDataByTxHash",
      "outputs": [
        {
          "components": [
            {
              "internalType": "uint256",
              "name": "startTime",
              "type": "uint256"
            },
            {
              "internalType": "uint256",
              "name": "deadline",
              "type": "uint256"
            },
            {
              "internalType": "uint256",
              "name": "requestArbitrationTime",
              "type": "uint256"
            },
            {
              "internalType": "uint256",
              "name": "depositedFee",
              "type": "uint256"
            },
            {
              "internalType": "enum DataTypes.TransactionStatus",
              "name": "status",
              "type": "uint8"
            }
          ],
          "internalType": "struct DataTypes.TransactionData",
          "name": "",
          "type": "tuple"
        }
      ],
      "stateMutability": "view",
      "type": "function"
    },
    {
      "inputs": [
        {
          "internalType": "bytes32",
          "name": "id",
          "type": "bytes32"
        }
      ],
      "name": "getTransactionPartiesById",
      "outputs": [
        {
          "components": [
            {
              "internalType": "address",
              "name": "dapp",
              "type": "address"
            },
            {
              "internalType": "address",
              "name": "arbitrator",
              "type": "address"
            },
            {
              "internalType": "address",
              "name": "compensationReceiver",
              "type": "address"
            },
            {
              "internalType": "address",
              "name": "timeoutCompensationReceiver",
              "type": "address"
            },
            {
              "internalType": "address",
              "name": "refundAddress",
              "type": "address"
            },
            {
              "internalType": "address",
              "name": "depositedFeeRefundAddress",
              "type": "address"
            }
          ],
          "internalType": "struct DataTypes.TransactionParties",
          "name": "",
          "type": "tuple"
        }
      ],
      "stateMutability": "view",
      "type": "function"
    },
    {
      "inputs": [
        {
          "internalType": "bytes32",
          "name": "txHash",
          "type": "bytes32"
        }
      ],
      "name": "getTransactionPartiesByTxHash",
      "outputs": [
        {
          "components": [
            {
              "internalType": "address",
              "name": "dapp",
              "type": "address"
            },
            {
              "internalType": "address",
              "name": "arbitrator",
              "type": "address"
            },
            {
              "internalType": "address",
              "name": "compensationReceiver",
              "type": "address"
            },
            {
              "internalType": "address",
              "name": "timeoutCompensationReceiver",
              "type": "address"
            },
            {
              "internalType": "address",
              "name": "refundAddress",
              "type": "address"
            },
            {
              "internalType": "address",
              "name": "depositedFeeRefundAddress",
              "type": "address"
            }
          ],
          "internalType": "struct DataTypes.TransactionParties",
          "name": "",
          "type": "tuple"
        }
      ],
      "stateMutability": "view",
      "type": "function"
    },
    {
      "inputs": [
        {
          "internalType": "bytes32",
          "name": "id",
          "type": "bytes32"
        }
      ],
      "name": "getTransactionSignHashById",
      "outputs": [
        {
          "internalType": "bytes32",
          "name": "",
          "type": "bytes32"
        }
      ],
      "stateMutability": "view",
      "type": "function"
    },
    {
      "inputs": [
        {
          "internalType": "bytes32",
          "name": "id",
          "type": "bytes32"
        }
      ],
      "name": "getTransactionSignatureById",
      "outputs": [
        {
          "internalType": "bytes",
          "name": "",
          "type": "bytes"
        }
      ],
      "stateMutability": "view",
      "type": "function"
    },
    {
      "inputs": [
        {
          "internalType": "bytes32",
          "name": "txHash",
          "type": "bytes32"
        }
      ],
      "name": "getTransactionSignatureByTxHash",
      "outputs": [
        {
          "internalType": "bytes",
          "name": "",
          "type": "bytes"
        }
      ],
      "stateMutability": "view",
      "type": "function"
    },
    {
      "inputs": [
        {
          "internalType": "bytes32",
          "name": "id",
          "type": "bytes32"
        }
      ],
      "name": "getTransactionStatus",
      "outputs": [
        {
          "internalType": "enum DataTypes.TransactionStatus",
          "name": "status",
          "type": "uint8"
        }
      ],
      "stateMutability": "view",
      "type": "function"
    },
    {
      "inputs": [
        {
          "internalType": "bytes32",
          "name": "id",
          "type": "bytes32"
        }
      ],
      "name": "getTransactionUTXOsById",
      "outputs": [
        {
          "components": [
            {
              "internalType": "bytes32",
              "name": "txHash",
              "type": "bytes32"
            },
            {
              "internalType": "uint32",
              "name": "index",
              "type": "uint32"
            },
            {
              "internalType": "bytes",
              "name": "script",
              "type": "bytes"
            },
            {
              "internalType": "uint256",
              "name": "amount",
              "type": "uint256"
            }
          ],
          "internalType": "struct DataTypes.UTXO[]",
          "name": "",
          "type": "tuple[]"
        }
      ],
      "stateMutability": "view",
      "type": "function"
    },
    {
      "inputs": [
        {
          "internalType": "address",
          "name": "_arbitratorManager",
          "type": "address"
        },
        {
          "internalType": "address",
          "name": "_dappRegistry",
          "type": "address"
        },
        {
          "internalType": "address",
          "name": "_configManager",
          "type": "address"
        },
        {
          "internalType": "address",
          "name": "_compensationManager",
          "type": "address"
        },
        {
          "internalType": "address",
          "name": "_btcUtils",
          "type": "address"
        },
        {
          "internalType": "address",
          "name": "_btcAddressParser",
          "type": "address"
        }
      ],
      "name": "initialize",
      "outputs": [],
      "stateMutability": "nonpayable",
      "type": "function"
    },
    {
      "inputs": [
        {
          "internalType": "bytes32",
          "name": "id",
          "type": "bytes32"
        }
      ],
      "name": "isAbleCompletedTransaction",
      "outputs": [
        {
          "internalType": "bool",
          "name": "",
          "type": "bool"
        }
      ],
      "stateMutability": "view",
      "type": "function"
    },
    {
      "inputs": [],
      "name": "owner",
      "outputs": [
        {
          "internalType": "address",
          "name": "",
          "type": "address"
        }
      ],
      "stateMutability": "view",
      "type": "function"
    },
    {
      "inputs": [
        {
          "internalType": "address",
          "name": "arbitrator",
          "type": "address"
        },
        {
          "internalType": "uint256",
          "name": "deadline",
          "type": "uint256"
        },
        {
          "internalType": "address",
          "name": "compensationReceiver",
          "type": "address"
        },
        {
          "internalType": "address",
          "name": "refundAddress",
          "type": "address"
        }
      ],
      "name": "registerTransaction",
      "outputs": [
        {
          "internalType": "bytes32",
          "name": "",
          "type": "bytes32"
        }
      ],
      "stateMutability": "payable",
      "type": "function"
    },
    {
      "inputs": [],
      "name": "renounceOwnership",
      "outputs": [],
      "stateMutability": "nonpayable",
      "type": "function"
    },
    {
      "inputs": [
        {
          "components": [
            {
              "internalType": "bytes32",
              "name": "id",
              "type": "bytes32"
            },
            {
              "internalType": "bytes",
              "name": "rawData",
              "type": "bytes"
            },
            {
              "internalType": "enum DataTypes.SignDataType",
              "name": "signDataType",
              "type": "uint8"
            },
            {
              "internalType": "uint8",
              "name": "signHashFlag",
              "type": "uint8"
            },
            {
              "internalType": "bytes",
              "name": "script",
              "type": "bytes"
            },
            {
              "internalType": "address",
              "name": "timeoutCompensationReceiver",
              "type": "address"
            }
          ],
          "internalType": "struct DataTypes.ArbitrationData",
          "name": "data",
          "type": "tuple"
        }
      ],
      "name": "requestArbitration",
      "outputs": [],
      "stateMutability": "nonpayable",
      "type": "function"
    },
    {
      "inputs": [
        {
          "internalType": "address",
          "name": "_arbitratorManager",
          "type": "address"
        }
      ],
      "name": "setArbitratorManager",
      "outputs": [],
      "stateMutability": "nonpayable",
      "type": "function"
    },
    {
      "inputs": [
        {
          "internalType": "address",
          "name": "_btcAddressParser",
          "type": "address"
        }
      ],
      "name": "setBTCAddressParser",
      "outputs": [],
      "stateMutability": "nonpayable",
      "type": "function"
    },
    {
      "inputs": [
        {
          "internalType": "bytes32",
          "name": "id",
          "type": "bytes32"
        },
        {
          "internalType": "bytes",
          "name": "btcTxSignature",
          "type": "bytes"
        }
      ],
      "name": "submitArbitration",
      "outputs": [],
      "stateMutability": "nonpayable",
      "type": "function"
    },
    {
      "inputs": [
        {
          "internalType": "bytes32",
          "name": "",
          "type": "bytes32"
        }
      ],
      "name": "transactionSignData",
      "outputs": [
        {
          "internalType": "bytes",
          "name": "",
          "type": "bytes"
        }
      ],
      "stateMutability": "view",
      "type": "function"
    },
    {
      "inputs": [
        {
          "internalType": "bytes32",
          "name": "id",
          "type": "bytes32"
        }
      ],
      "name": "transferArbitrationFee",
      "outputs": [
        {
          "internalType": "uint256",
          "name": "arbitratorFee",
          "type": "uint256"
        },
        {
          "internalType": "uint256",
          "name": "systemFee",
          "type": "uint256"
        }
      ],
      "stateMutability": "nonpayable",
      "type": "function"
    },
    {
      "inputs": [
        {
          "internalType": "address",
          "name": "newOwner",
          "type": "address"
        }
      ],
      "name": "transferOwnership",
      "outputs": [],
      "stateMutability": "nonpayable",
      "type": "function"
    },
    {
      "inputs": [
        {
          "internalType": "bytes32",
          "name": "",
          "type": "bytes32"
        }
      ],
      "name": "txHashToId",
      "outputs": [
        {
          "internalType": "bytes32",
          "name": "",
          "type": "bytes32"
        }
      ],
      "stateMutability": "view",
      "type": "function"
    },
    {
      "inputs": [
        {
          "internalType": "bytes32",
          "name": "id",
          "type": "bytes32"
        },
        {
          "components": [
            {
              "internalType": "bytes32",
              "name": "txHash",
              "type": "bytes32"
            },
            {
              "internalType": "uint32",
              "name": "index",
              "type": "uint32"
            },
            {
              "internalType": "bytes",
              "name": "script",
              "type": "bytes"
            },
            {
              "internalType": "uint256",
              "name": "amount",
              "type": "uint256"
            }
          ],
          "internalType": "struct DataTypes.UTXO[]",
          "name": "utxos",
          "type": "tuple[]"
        }
      ],
      "name": "uploadUTXOs",
      "outputs": [],
      "stateMutability": "nonpayable",
      "type": "function"
    }
  ],
  "bytecode": "0x60806040523480156200001157600080fd5b506200001c62000022565b620000d6565b7ff0c57e16840df040f15088dc2f81fe391c3923bec73e23a9662efc9c229c6a00805468010000000000000000900460ff1615620000735760405163f92ee8a960e01b815260040160405180910390fd5b80546001600160401b0390811614620000d35780546001600160401b0319166001600160401b0390811782556040519081527fc7f505b2f371ae2175ee4913f4499e1f2633a7b5936321eed1cdaeb6115181d29060200160405180910390a15b50565b61479e80620000e66000396000f3fe6080604052600436106101ee5760003560e01c80638b0ae2171161010d578063a8a0e882116100a0578063cc2a9a5b1161006f578063cc2a9a5b146107ba578063d09d03a3146107da578063de0ca166146107fa578063f2fde38b1461081a578063f9a9df191461083a57600080fd5b8063a8a0e8821461072d578063ae2db1cc1461074d578063c1ce47d21461076d578063ca0ab0751461079a57600080fd5b80639dc37d08116100dc5780639dc37d0814610518578063a0037eac1461062b578063a130312a146106ed578063a71571901461070d57600080fd5b80638b0ae217146104535780638da5cb5b1461047357806394407465146104b057806397315e44146104dd57600080fd5b806363e877b611610185578063759787c411610154578063759787c4146103c657806381493670146103e657806384b46d6a1461040657806388727e6b1461042657600080fd5b806363e877b61461033c57806366347a631461035c578063715018a61461037c5780637577b6df1461039157600080fd5b80634308dc8e116101c15780634308dc8e1461029f5780634e4f0ec4146102cc578063520936b5146102ec578063537bcc551461031c57600080fd5b80630559b877146101f35780630f6f9a1e1461023057806327226068146102525780632c7e8ca31461027f575b600080fd5b3480156101ff57600080fd5b50600454610213906001600160a01b031681565b6040516001600160a01b0390911681526020015b60405180910390f35b34801561023c57600080fd5b5061025061024b366004613690565b61084d565b005b34801561025e57600080fd5b5061027261026d36600461370e565b610a1a565b604051610227919061375f565b34801561028b57600080fd5b5061025061029a3660046137b7565b610aa7565b3480156102ab57600080fd5b506102bf6102ba36600461370e565b610af7565b604051610227919061382b565b3480156102d857600080fd5b506102506102e736600461383e565b610b99565b3480156102f857600080fd5b5061030c61030736600461370e565b610ed5565b6040519015158152602001610227565b34801561032857600080fd5b506102bf61033736600461370e565b610fda565b34801561034857600080fd5b50600554610213906001600160a01b031681565b34801561036857600080fd5b506102506103773660046138a6565b611004565b34801561038857600080fd5b506102506119c8565b34801561039d57600080fd5b506103b16103ac36600461370e565b6119dc565b60408051928352602083019190915201610227565b3480156103d257600080fd5b50600054610213906001600160a01b031681565b3480156103f257600080fd5b5061027261040136600461370e565b611c09565b34801561041257600080fd5b50600354610213906001600160a01b031681565b34801561043257600080fd5b5061044661044136600461370e565b611c7b565b60405161022791906138e0565b34801561045f57600080fd5b5061025061046e3660046137b7565b611da6565b34801561047f57600080fd5b507f9016d09d72d40fdae2fd8ceac6b6234c7706214fd39c1cd1e609a0528c199300546001600160a01b0316610213565b3480156104bc57600080fd5b506104d06104cb36600461370e565b611e36565b6040516102279190613972565b3480156104e957600080fd5b5061050a6104f836600461370e565b6000908152600c602052604090205490565b604051908152602001610227565b34801561052457600080fd5b506105d061053336600461370e565b6040805160c081018252600080825260208201819052918101829052606081018290526080810182905260a081019190915250600090815260076020908152604091829020825160c08101845281546001600160a01b03908116825260018301548116938201939093526002820154831693810193909352600381015482166060840152600481015482166080840152600501541660a082015290565b604051610227919081516001600160a01b03908116825260208084015182169083015260408084015182169083015260608084015182169083015260808084015182169083015260a092830151169181019190915260c00190565b34801561063757600080fd5b506105d061064636600461370e565b6040805160c081018252600080825260208201819052918101829052606081018290526080810182905260a0810191909152506000908152600e602090815260408083205483526007825291829020825160c08101845281546001600160a01b03908116825260018301548116938201939093526002820154831693810193909352600381015482166060840152600481015482166080840152600501541660a082015290565b3480156106f957600080fd5b5061025061070836600461370e565b611f1b565b34801561071957600080fd5b5061050a610728366004613980565b612068565b34801561073957600080fd5b506102bf61074836600461370e565b6122a9565b34801561075957600080fd5b506102bf61076836600461370e565b612343565b34801561077957600080fd5b5061050a61078836600461370e565b600e6020526000908152604090205481565b3480156107a657600080fd5b50600254610213906001600160a01b031681565b3480156107c657600080fd5b506102506107d53660046139b0565b612360565b3480156107e657600080fd5b506102506107f5366004613980565b612577565b34801561080657600080fd5b50600154610213906001600160a01b031681565b34801561082657600080fd5b506102506108353660046137b7565b6127a5565b61050a610848366004613a32565b6127e0565b6001811461088e576040805180820182526002815261055360f41b6020820152905162461bcd60e51b8152610885919060040161382b565b60405180910390fd5b60008381526007602052604081209060008581526006602052604090206004015460ff1660058111156108c3576108c3613727565b146108f85760408051808201825260028152612a1960f11b6020820152905162461bcd60e51b8152610885919060040161382b565b80546001600160a01b0316331461093957604080518082018252600281526104e360f41b6020820152905162461bcd60e51b8152610885919060040161382b565b6000848152600b6020526040902080541561097e5760408051808201825260028152612a9960f11b6020820152905162461bcd60e51b8152610885919060040161382b565b60005b838110156109e5578185858381811061099c5761099c613a85565b90506020028101906109ae9190613a9b565b8154600181018355600092835260209092209091600402016109d08282613c6c565b505080806109dd90613d10565b915050610981565b50604051339086907fbe870ee46d1946169135a006725f4beb7bf05701d38e45b8d0e55892fabff1d990600090a35050505050565b610a22613651565b6000828152600e602090815260408083205483526006825291829020825160a08101845281548152600182015492810192909252600281015492820192909252600382015460608201526004820154909190608083019060ff166005811115610a8d57610a8d613727565b6005811115610a9e57610a9e613727565b90525092915050565b610aaf612dde565b600080546001600160a01b0319166001600160a01b038316908117825560405190917fa323f9f93bbee02edb5e1034969f6ef41fb674527d2ea7e9271ad206435b58f491a250565b6000818152600960205260409020805460609190610b1490613b29565b80601f0160208091040260200160405190810160405280929190818152602001828054610b4090613b29565b8015610b8d5780601f10610b6257610100808354040283529160200191610b8d565b820191906000526020600020905b815481529060010190602001808311610b7057829003601f168201915b50505050509050919050565b600083815260066020908152604080832060079092529091206002600483015460ff166005811115610bcd57610bcd613727565b14610c025760408051808201825260028152612a1960f11b6020820152905162461bcd60e51b8152610885919060040161382b565b6040805160a0810182528354815260018401546020820152600284015491810191909152600383015460608201526004830154610c6e91908490608083019060ff166005811115610c5557610c55613727565b6005811115610c6657610c66613727565b905250612e39565b15610ca3576040805180820182526002815261543960f01b6020820152905162461bcd60e51b8152610885919060040161382b565b6000546001820154604051630e70978b60e21b81526001600160a01b0391821660048201523360248201529116906339c25e2c90604401602060405180830381865afa158015610cf7573d6000803e3d6000fd5b505050506040513d601f19601f82011682018060405250810190610d1b9190613d3e565b610d4f57604080518082018252600281526104e360f41b6020820152905162461bcd60e51b8152610885919060040161382b565b600354604051630263f12b60e61b81526001600160a01b03909116906398fc4ac090610d819087908790600401613d82565b602060405180830381865afa158015610d9e573d6000803e3d6000fd5b505050506040513d601f19601f82011682018060405250810190610dc29190613d3e565b610df6576040805180820182526002815261553960f01b6020820152905162461bcd60e51b8152610885919060040161382b565b60048201805460ff191660051790556000858152600960205260409020610e1e848683613bac565b50600054600182015460405163069fa0a760e51b81526001600160a01b03918216600482015291169063d3f414e090602401600060405180830381600087803b158015610e6a57600080fd5b505af1158015610e7e573d6000803e3d6000fd5b505082546040513393506001600160a01b03909116915087907fc3087094b1ca79d1b0196cfe915c3153df5266eba37502790ddfc1e3532d355990610ec69089908990613d82565b60405180910390a45050505050565b6000818152600660209081526040808320815160a0810183528154815260018201549381019390935260028101549183019190915260038101546060830152600481015483929190608083019060ff166005811115610f3657610f36613727565b6005811115610f4757610f47613727565b9052509050600081608001516005811115610f6457610f64613727565b03610f725750600192915050565b600281608001516005811115610f8a57610f8a613727565b03610fab57610f9881612e39565b15610fa65750600192915050565b610fd1565b600581608001516005811115610fc357610fc3613727565b03610fd15750600192915050565b50600092915050565b6000818152600e6020908152604080832054835260099091529020805460609190610b1490613b29565b61100c612ed8565b600061101e60c0830160a084016137b7565b6001600160a01b03160361105c57604080518082018252600281526105a360f41b6020820152905162461bcd60e51b8152610885919060040161382b565b8035600090815260066020526040812090600482015460ff16600581111561108657611086613727565b146110bb5760408051808201825260028152612a1960f11b6020820152905162461bcd60e51b8152610885919060040161382b565b8060010154600260009054906101000a90046001600160a01b03166001600160a01b0316632b6f600d6040518163ffffffff1660e01b8152600401602060405180830381865afa158015611113573d6000803e3d6000fd5b505050506040513d601f19601f820116820180604052508101906111379190613d96565b6111419042613daf565b1115611177576040805180820182526002815261553760f01b6020820152905162461bcd60e51b8152610885919060040161382b565b60016111896060840160408501613dc2565b600281111561119a5761119a613727565b146111cf5760408051808201825260028152610aa760f31b6020820152905162461bcd60e51b8152610885919060040161382b565b8135600090815260076020526040902080546001600160a01b0316331461122057604080518082018252600281526104e360f41b6020820152905162461bcd60e51b8152610885919060040161382b565b82356000908152600b602052604081208054909103611269576040805180820182526002815261553360f01b6020820152905162461bcd60e51b8152610885919060040161382b565b6003546000906001600160a01b031663f64af3d361128a6020880188613acd565b6040518363ffffffff1660e01b81526004016112a7929190613d82565b600060405180830381865afa1580156112c4573d6000803e3d6000fd5b505050506040513d6000823e601f3d908101601f191682016040526112ec9190810190614013565b82546020820151519192501461132c576040805180820182526002815261553160f01b6020820152905162461bcd60e51b8152610885919060040161382b565b60005b81602001515181101561142c5782818154811061134e5761134e613a85565b9060005260206000209060040201600001548260200151828151811061137657611376613a85565b6020026020010151600001511415806113e5575082818154811061139c5761139c613a85565b60009182526020918290206001600490920201015490830151805163ffffffff90921691839081106113d0576113d0613a85565b60200260200101516020015163ffffffff1614155b1561141a576040805180820182526002815261553160f01b6020820152905162461bcd60e51b8152610885919060040161382b565b8061142481613d10565b91505061132f565b5060008260008154811061144257611442613a85565b600091825260208220600360049092020181015490549092506001600160a01b031663aca6fee8848361147860808c018c613acd565b878d606001602081019061148c91906141ad565b6040518763ffffffff1660e01b81526004016114ad96959493929190614242565b600060405180830381865afa1580156114ca573d6000803e3d6000fd5b505050506040513d6000823e601f3d908101601f191682016040526114f2919081019061437f565b905060006002808360405161150791906143b3565b602060405180830381855afa158015611524573d6000803e3d6000fd5b5050506040513d601f19601f820116820180604052508101906115479190613d96565b60405160200161155991815260200190565b60408051601f1981840301815290829052611573916143b3565b602060405180830381855afa158015611590573d6000803e3d6000fd5b5050506040513d601f19601f820116820180604052508101906115b39190613d96565b6000805460018901546040516326415b0f60e21b81526001600160a01b03918216600482015293945091928392909116906399056c3c90602401600060405180830381865afa15801561160a573d6000803e3d6000fd5b505050506040513d6000823e601f3d908101601f19168201604052611632919081019061442b565b6101a00151905060005b86604001515181101561180957600554604051632e235f3960e01b81526000916001600160a01b031690632e235f399061167a90869060040161382b565b600060405180830381865afa158015611697573d6000803e3d6000fd5b505050506040513d6000823e601f3d908101601f191682016040526116bf919081019061437f565b90508080519060200120886040015183815181106116df576116df613a85565b6020026020010151602001518051906020012014935083156117f6576000612710600260009054906101000a90046001600160a01b03166001600160a01b03166355f50acc6040518163ffffffff1660e01b8152600401602060405180830381865afa158015611753573d6000803e3d6000fd5b505050506040513d601f19601f820116820180604052508101906117779190613d96565b611781908a6145d3565b61178b91906145ea565b905080896040015184815181106117a4576117a4613a85565b6020026020010151600001516001600160401b031610156117ef576040805180820182526002815261493560f01b6020820152905162461bcd60e51b8152610885919060040161382b565b5050611809565b508061180181613d10565b91505061163c565b508161183f576040805180820182526002815261493360f01b6020820152905162461bcd60e51b8152610885919060040161382b565b61184f60c08b0160a08c016137b7565b6003890180546001600160a01b0319166001600160a01b03929092169190911790554260028a81019190915560048a01805460ff1916600183021790555089356000908152600c602090815260409091208490556118af908b018b613acd565b8b356000908152600860205260409020916118cb919083613bac565b506118d960808b018b613acd565b8b356000908152600a60205260409020916118f5919083613bac565b506000838152600e602090815260408083208d359055600d909152902061191c858261460c565b50875460018901546001600160a01b03918216918c35917f81c89bbce5115bf315ea29f7001ebabb88f6d3e4d76132bf792f2085799ed0e4911661196360208f018f613acd565b8f80608001906119739190613acd565b8f60030160009054906101000a90046001600160a01b031660405161199d969594939291906146cb565b60405180910390a35050505050505050506119c5600160008051602061474983398151915255565b50565b6119d0612dde565b6119da6000612f24565b565b60045460009081906001600160a01b03163314611a235760408051808201825260028152614e3760f01b6020820152905162461bcd60e51b8152610885919060040161382b565b6000838152600660209081526040808320815160a08101835281548152600182015493810193909352600281015491830191909152600381015460608301526004810154608083019060ff166005811115611a8057611a80613727565b6005811115611a9157611a91613727565b9052506000858152600760209081526040808320815160c08101835281546001600160a01b039081168252600183015481169482019490945260028201548416928101929092526003810154831660608301526004810154831660808301526005015490911660a082015291925082608001516005811115611b1557611b15613727565b148015611b255750816020015142115b80611bbf5750600582608001516005811115611b4357611b43613727565b148015611bbf57506000546020820151604051632911125160e01b81526001600160a01b039182166004820152911690632911125190602401602060405180830381865afa158015611b99573d6000803e3d6000fd5b505050506040513d601f19601f82011682018060405250810190611bbd9190613d3e565b155b15611bd957611bce8582612f95565b935093505050915091565b60408051808201825260028152612a1960f11b6020820152905162461bcd60e51b8152610885919060040161382b565b611c11613651565b600660008381526020019081526020016000206040518060a0016040529081600082015481526020016001820154815260200160028201548152602001600382015481526020016004820160009054906101000a900460ff166005811115610a8d57610a8d613727565b6060600b6000838152602001908152602001600020805480602002602001604051908101604052809291908181526020016000905b82821015611d9b576000848152602090819020604080516080810182526004860290920180548352600181015463ffffffff169383019390935260028301805492939291840191611d0090613b29565b80601f0160208091040260200160405190810160405280929190818152602001828054611d2c90613b29565b8015611d795780601f10611d4e57610100808354040283529160200191611d79565b820191906000526020600020905b815481529060010190602001808311611d5c57829003601f168201915b5050505050815260200160038201548152505081526020019060010190611cb0565b505050509050919050565b611dae612dde565b6001600160a01b038116611dec57604080518082018252600281526105a360f41b6020820152905162461bcd60e51b8152610885919060040161382b565b600580546001600160a01b0319166001600160a01b0383169081179091556040517f5d263627c90d0f6c9e5b56ab2a0952bc65431ee3225325ee7be26c5856d1446290600090a250565b6000818152600660209081526040808320815160a0810183528154815260018201549381019390935260028101549183019190915260038101546060830152600481015483929190608083019060ff166005811115611e9757611e97613727565b6005811115611ea857611ea8613727565b9052506080810151925090506000826005811115611ec857611ec8613727565b148015611ed85750428160200151105b15611ee257600391505b600281608001516005811115611efa57611efa613727565b148015611f0b5750611f0b81612e39565b15611f1557600391505b50919050565b60008181526007602052604090819020905163520936b560e01b815260048101839052309063520936b590602401602060405180830381865afa158015611f66573d6000803e3d6000fd5b505050506040513d601f19601f82011682018060405250810190611f8a9190613d3e565b611fbe5760408051808201825260028152610a8760f31b6020820152905162461bcd60e51b8152610885919060040161382b565b80546001600160a01b03163314611fff57604080518082018252600281526104e360f41b6020820152905162461bcd60e51b8152610885919060040161382b565b6040805160c08101825282546001600160a01b0390811682526001840154811660208301526002840154811692820192909252600383015482166060820152600483015482166080820152600583015490911660a0820152612062908390612f95565b50505050565b600080428411612079576000612083565b6120834285614718565b600254604051636dd5b69d60e01b81527f251496a2e9229b930e5943f3c3e4da6cb786017948b856c9d455ed9cf0fc156c60048201529192506001600160a01b031690636dd5b69d90602401602060405180830381865afa1580156120ec573d6000803e3d6000fd5b505050506040513d601f19601f820116820180604052508101906121109190613d96565b8110806121a75750600254604051636dd5b69d60e01b81527fd31f84da73b6cb3a8c2e853a7c46b1c95600fc6ab5acdbeb4f7f16e875c25ab860048201526001600160a01b0390911690636dd5b69d90602401602060405180830381865afa158015612180573d6000803e3d6000fd5b505050506040513d601f19601f820116820180604052508101906121a49190613d96565b81115b156121dc576040805180820182526002815261493160f01b6020820152905162461bcd60e51b8152610885919060040161382b565b6001600160a01b03831661221a57604080518082018252600281526105a360f41b6020820152905162461bcd60e51b8152610885919060040161382b565b600080546040516326415b0f60e21b81526001600160a01b038681166004830152909116906399056c3c90602401600060405180830381865afa158015612265573d6000803e3d6000fd5b505050506040513d6000823e601f3d908101601f1916820160405261228d919081019061442b565b905061229e84826040015184613073565b925050505b92915050565b600d60205260009081526040902080546122c290613b29565b80601f01602080910402602001604051908101604052809291908181526020018280546122ee90613b29565b801561233b5780601f106123105761010080835404028352916020019161233b565b820191906000526020600020905b81548152906001019060200180831161231e57829003601f168201915b505050505081565b6000818152600860205260409020805460609190610b1490613b29565b7ff0c57e16840df040f15088dc2f81fe391c3923bec73e23a9662efc9c229c6a008054600160401b810460ff1615906001600160401b03166000811580156123a55750825b90506000826001600160401b031660011480156123c15750303b155b9050811580156123cf575080155b156123ed5760405163f92ee8a960e01b815260040160405180910390fd5b845467ffffffffffffffff19166001178555831561241757845460ff60401b1916600160401b1785555b61241f61311c565b6124283361312c565b6001600160a01b038b16158061244557506001600160a01b038a16155b8061245757506001600160a01b038916155b8061246957506001600160a01b038816155b8061247b57506001600160a01b038716155b8061248d57506001600160a01b038616155b156124c257604080518082018252600281526105a360f41b6020820152905162461bcd60e51b8152610885919060040161382b565b600080546001600160a01b03199081166001600160a01b038e8116919091179092556001805482168d84161790556002805482168c84161790556004805482168b84161790556003805482168a841617905560058054909116918816919091179055831561256a57845460ff60401b19168555604051600181527fc7f505b2f371ae2175ee4913f4499e1f2633a7b5936321eed1cdaeb6115181d29060200160405180910390a15b5050505050505050505050565b6004546001600160a01b031633146125b95760408051808201825260028152614e3760f01b6020820152905162461bcd60e51b8152610885919060040161382b565b600082815260076020908152604080832060069092529091206001600482015460ff1660058111156125ed576125ed613727565b036126225760408051808201825260028152612a1960f11b6020820152905162461bcd60e51b8152610885919060040161382b565b6001600160a01b03831661266057604080518082018252600281526105a360f41b6020820152905162461bcd60e51b8152610885919060040161382b565b60048101805460ff1916600117905560038101546040516000916001600160a01b038616918381818185875af1925050503d80600081146126bd576040519150601f19603f3d011682016040523d82523d6000602084013e6126c2565b606091505b50509050806126fb576040805180820182526002815261463160f01b6020820152905162461bcd60e51b8152610885919060040161382b565b600054600184015460405163cedb588b60e01b81526001600160a01b0391821660048201526024810188905291169063cedb588b90604401600060405180830381600087803b15801561274d57600080fd5b505af1158015612761573d6000803e3d6000fd5b505084546040516001600160a01b0390911692508791507f15d1e788ed875e6f2294a51087aa5cd2e2c10c92e627eb0a6bbbfceceaa01b9890600090a35050505050565b6127ad612dde565b6001600160a01b0381166127d757604051631e4fbdf760e01b815260006004820152602401610885565b6119c581612f24565b60006127ea612ed8565b6001600160a01b038516158061280757506001600160a01b038316155b8061281957506001600160a01b038216155b1561284e57604080518082018252600281526105a360f41b6020820152905162461bcd60e51b8152610885919060040161382b565b60015460405163682dc82b60e11b81523360048201526001600160a01b039091169063d05b905690602401602060405180830381865afa158015612896573d6000803e3d6000fd5b505050506040513d601f19601f820116820180604052508101906128ba9190613d3e565b6128ee576040805180820182526002815261221960f11b6020820152905162461bcd60e51b8152610885919060040161382b565b600054604051631c569df760e31b81526001600160a01b0387811660048301529091169063e2b4efb890602401602060405180830381865afa158015612938573d6000803e3d6000fd5b505050506040513d601f19601f8201168201806040525081019061295c9190613d3e565b612990576040805180820182526002815261413360f01b6020820152905162461bcd60e51b8152610885919060040161382b565b4284116129c7576040805180820182526002815261543360f01b6020820152905162461bcd60e51b8152610885919060040161382b565b60006129d34286614718565b600254604051636dd5b69d60e01b81527f251496a2e9229b930e5943f3c3e4da6cb786017948b856c9d455ed9cf0fc156c60048201529192506001600160a01b031690636dd5b69d90602401602060405180830381865afa158015612a3c573d6000803e3d6000fd5b505050506040513d601f19601f82011682018060405250810190612a609190613d96565b811080612af75750600254604051636dd5b69d60e01b81527fd31f84da73b6cb3a8c2e853a7c46b1c95600fc6ab5acdbeb4f7f16e875c25ab860048201526001600160a01b0390911690636dd5b69d90602401602060405180830381865afa158015612ad0573d6000803e3d6000fd5b505050506040513d601f19601f82011682018060405250810190612af49190613d96565b81115b15612b2c576040805180820182526002815261493160f01b6020820152905162461bcd60e51b8152610885919060040161382b565b604051630a71571960e41b8152600481018690526001600160a01b0387166024820152600090309063a715719090604401602060405180830381865afa158015612b7a573d6000803e3d6000fd5b505050506040513d601f19601f82011682018060405250810190612b9e9190613d96565b905080600003612bd8576040805180820182526002815261150d60f21b6020820152905162461bcd60e51b8152610885919060040161382b565b80341015612c10576040805180820182526002815261543560f01b6020820152905162461bcd60e51b8152610885919060040161382b565b6000423389600f6000815480929190612c2890613d10565b909155506040805160208101959095526bffffffffffffffffffffffff19606094851b8116918601919091529190921b166054830152606882015260880160408051808303601f190181529082905280516020909101206000546315969bed60e11b83526001600160a01b038b81166004850152602484018390529193501690632b2d37da90604401600060405180830381600087803b158015612ccb57600080fd5b505af1158015612cdf573d6000803e3d6000fd5b50505060008281526006602090815260408083206007909252822042825560018083018c905534600384015560048301805493955091939260ff1916908302179055506001810180546001600160a01b03199081166001600160a01b038d811691821790935560028401805483168c851690811790915584543390841681178655600586018054909416948c1694909417909255604080518d815234602082015290810192909252919085907feb31e9cc08e6aec1724c65bd618ab8709af006b0972f1a04bba0fe0b0192142e9060600160405180910390a450909350505050612dd6600160008051602061474983398151915255565b949350505050565b33612e107f9016d09d72d40fdae2fd8ceac6b6234c7706214fd39c1cd1e609a0528c199300546001600160a01b031690565b6001600160a01b0316146119da5760405163118cdaa760e01b8152336004820152602401610885565b60008160200151421115612e4f57506001919050565b60025460408051632b6f600d60e01b815290516000926001600160a01b031691632b6f600d9160048083019260209291908290030181865afa158015612e99573d6000803e3d6000fd5b505050506040513d601f19601f82011682018060405250810190612ebd9190613d96565b9050808360400151612ecf9190613daf565b42119392505050565b600080516020614749833981519152805460011901612f0a57604051633ee5aeb560e01b815260040160405180910390fd5b60029055565b600160008051602061474983398151915255565b7f9016d09d72d40fdae2fd8ceac6b6234c7706214fd39c1cd1e609a0528c19930080546001600160a01b031981166001600160a01b03848116918217845560405192169182907f8be0079c531659141344cd1fd0a4f28419497f9722a3daafe3b4186f6b6457e090600090a3505050565b600080600080612fa5868661313d565b600054602088015160405163cedb588b60e01b81526001600160a01b039182166004820152602481018b9052939550919350169063cedb588b90604401600060405180830381600087803b158015612ffc57600080fd5b505af1158015613010573d6000803e3d6000fd5b505050600087815260066020526040808220600401805460ff19166001179055875190516001600160a01b03909116925088917f15d1e788ed875e6f2294a51087aa5cd2e2c10c92e627eb0a6bbbfceceaa01b9891a390925090505b9250929050565b6000805460405163014f6b1960e41b81526001600160a01b038681166004830152839216906314f6b19090602401602060405180830381865afa1580156130be573d6000803e3d6000fd5b505050506040513d601f19601f820116820180604052508101906130e29190613d96565b90506130f46127106301e133806145d3565b846130ff85846145d3565b61310991906145d3565b61311391906145ea565b95945050505050565b6131246135f8565b6119da613641565b6131346135f8565b6119c581613649565b6000805460208301516040516326415b0f60e21b81526001600160a01b0391821660048201528392839216906399056c3c90602401600060405180830381865afa15801561318f573d6000803e3d6000fd5b505050506040513d6000823e601f3d908101601f191682016040526131b7919081019061442b565b90506000600660008781526020019081526020016000206040518060a0016040529081600082015481526020016001820154815260200160028201548152602001600382015481526020016004820160009054906101000a900460ff16600581111561322557613225613727565b600581111561323657613236613727565b81525050905060008160200151421161325a5781516132559042614718565b61326b565b8151602083015161326b9190614718565b905060006132828760200151856040015184613073565b90508260600151811115613297575060608201515b600254604051636dd5b69d60e01b81527fd91f20541e9312a0f4d27f0f0ba02500035307ac99ea67c86c8342ab3fd71bc56004820152600091612710916001600160a01b0390911690636dd5b69d90602401602060405180830381865afa158015613306573d6000803e3d6000fd5b505050506040513d601f19601f8201168201806040525081019061332a9190613d96565b61333490846145d3565b61333e91906145ea565b9050600061334c8284614718565b90506000600260009054906101000a90046001600160a01b03166001600160a01b0316638b6570a06040518163ffffffff1660e01b8152600401602060405180830381865afa1580156133a3573d6000803e3d6000fd5b505050506040513d601f19601f820116820180604052508101906133c7919061472b565b90506000816001600160a01b03168460405160006040518083038185875af1925050503d8060008114613416576040519150601f19603f3d011682016040523d82523d6000602084013e61341b565b606091505b5050905080613454576040805180820182526002815261463160f01b6020820152905162461bcd60e51b8152610885919060040161382b565b6000886101c001516001600160a01b03168460405160006040518083038185875af1925050503d80600081146134a6576040519150601f19603f3d011682016040523d82523d6000602084013e6134ab565b606091505b50509050806134e4576040805180820182526002815261463160f01b6020820152905162461bcd60e51b8152610885919060040161382b565b60008689606001516134f69190614718565b9050801561358f5760008d60a001516001600160a01b03168260405160006040518083038185875af1925050503d806000811461354f576040519150601f19603f3d011682016040523d82523d6000602084013e613554565b606091505b505090508061358d576040805180820182526002815261463160f01b6020820152905162461bcd60e51b8152610885919060040161382b565b505b6101c08a015160408051898152602081018990529081018390526001600160a01b03909116908f907f0e6f7005813080ec5f9df085ae1a9ee5221216f7746e432f210b6ce161e681659060600160405180910390a350929c939b50929950505050505050505050565b7ff0c57e16840df040f15088dc2f81fe391c3923bec73e23a9662efc9c229c6a0054600160401b900460ff166119da57604051631afcd79f60e31b815260040160405180910390fd5b612f106135f8565b6127ad6135f8565b6040518060a00160405280600081526020016000815260200160008152602001600081526020016000600581111561368b5761368b613727565b905290565b6000806000604084860312156136a557600080fd5b8335925060208401356001600160401b03808211156136c357600080fd5b818601915086601f8301126136d757600080fd5b8135818111156136e657600080fd5b8760208260051b85010111156136fb57600080fd5b6020830194508093505050509250925092565b60006020828403121561372057600080fd5b5035919050565b634e487b7160e01b600052602160045260246000fd5b6006811061375b57634e487b7160e01b600052602160045260246000fd5b9052565b600060a08201905082518252602083015160208301526040830151604083015260608301516060830152608083015161379b608084018261373d565b5092915050565b6001600160a01b03811681146119c557600080fd5b6000602082840312156137c957600080fd5b81356137d4816137a2565b9392505050565b60005b838110156137f65781810151838201526020016137de565b50506000910152565b600081518084526138178160208601602086016137db565b601f01601f19169290920160200192915050565b6020815260006137d460208301846137ff565b60008060006040848603121561385357600080fd5b8335925060208401356001600160401b038082111561387157600080fd5b818601915086601f83011261388557600080fd5b81358181111561389457600080fd5b8760208285010111156136fb57600080fd5b6000602082840312156138b857600080fd5b81356001600160401b038111156138ce57600080fd5b820160c081850312156137d457600080fd5b60006020808301818452808551808352604092508286019150828160051b87010184880160005b8381101561396457603f19898403018552815160808151855263ffffffff898301511689860152878201518189870152613943828701826137ff565b60609384015196909301959095525094870194925090860190600101613907565b509098975050505050505050565b602081016122a3828461373d565b6000806040838503121561399357600080fd5b8235915060208301356139a5816137a2565b809150509250929050565b60008060008060008060c087890312156139c957600080fd5b86356139d4816137a2565b955060208701356139e4816137a2565b945060408701356139f4816137a2565b93506060870135613a04816137a2565b92506080870135613a14816137a2565b915060a0870135613a24816137a2565b809150509295509295509295565b60008060008060808587031215613a4857600080fd5b8435613a53816137a2565b9350602085013592506040850135613a6a816137a2565b91506060850135613a7a816137a2565b939692955090935050565b634e487b7160e01b600052603260045260246000fd5b60008235607e19833603018112613ab157600080fd5b9190910192915050565b63ffffffff811681146119c557600080fd5b6000808335601e19843603018112613ae457600080fd5b8301803591506001600160401b03821115613afe57600080fd5b60200191503681900382131561306c57600080fd5b634e487b7160e01b600052604160045260246000fd5b600181811c90821680613b3d57607f821691505b602082108103611f1557634e487b7160e01b600052602260045260246000fd5b601f821115613ba757600081815260208120601f850160051c81016020861015613b845750805b601f850160051c820191505b81811015613ba357828155600101613b90565b5050505b505050565b6001600160401b03831115613bc357613bc3613b13565b613bd783613bd18354613b29565b83613b5d565b6000601f841160018114613c0b5760008515613bf35750838201355b600019600387901b1c1916600186901b178355613c65565b600083815260209020601f19861690835b82811015613c3c5786850135825560209485019460019092019101613c1c565b5086821015613c595760001960f88860031b161c19848701351681555b505060018560011b0183555b5050505050565b81358155600181016020830135613c8281613abb565b815463ffffffff191663ffffffff91909116179055604082013536839003601e19018112613caf57600080fd5b820180356001600160401b03811115613cc757600080fd5b602082019150803603821315613cdc57600080fd5b613cea818360028601613bac565b5050606082013560038201555050565b634e487b7160e01b600052601160045260246000fd5b600060018201613d2257613d22613cfa565b5060010190565b80518015158114613d3957600080fd5b919050565b600060208284031215613d5057600080fd5b6137d482613d29565b81835281816020850137506000828201602090810191909152601f909101601f19169091010190565b602081526000612dd6602083018486613d59565b600060208284031215613da857600080fd5b5051919050565b808201808211156122a3576122a3613cfa565b600060208284031215613dd457600080fd5b8135600381106137d457600080fd5b604080519081016001600160401b0381118282101715613e0557613e05613b13565b60405290565b60405160a081016001600160401b0381118282101715613e0557613e05613b13565b604051608081016001600160401b0381118282101715613e0557613e05613b13565b60405161020081016001600160401b0381118282101715613e0557613e05613b13565b604051601f8201601f191681016001600160401b0381118282101715613e9a57613e9a613b13565b604052919050565b8051613d3981613abb565b60006001600160401b03821115613ec657613ec6613b13565b5060051b60200190565b600082601f830112613ee157600080fd5b81516001600160401b03811115613efa57613efa613b13565b613f0d601f8201601f1916602001613e72565b818152846020838601011115613f2257600080fd5b612dd68260208301602087016137db565b600082601f830112613f4457600080fd5b81516020613f59613f5483613ead565b613e72565b82815260059290921b84018101918181019086841115613f7857600080fd5b8286015b848110156140085780516001600160401b0380821115613f9c5760008081fd5b908801906040828b03601f1901811315613fb65760008081fd5b613fbe613de3565b878401518381168114613fd15760008081fd5b8152908301519082821115613fe65760008081fd5b613ff48c8984870101613ed0565b818901528652505050918301918301613f7c565b509695505050505050565b6000602080838503121561402657600080fd5b82516001600160401b038082111561403d57600080fd5b9084019060a0828703121561405157600080fd5b614059613e0b565b825161406481613abb565b8152828401518281111561407757600080fd5b8301601f8101881361408857600080fd5b8051614096613f5482613ead565b81815260059190911b8201860190868101908a8311156140b557600080fd5b8784015b83811015614152578051878111156140d057600080fd5b85016080818e03601f190112156140e657600080fd5b6140ee613e2d565b8a8201518152604082015161410281613abb565b818c01526060820151898111156141195760008081fd5b6141278f8d83860101613ed0565b6040830152506080820151915061413d82613abb565b606081019190915283529188019188016140b9565b50808886015250505050604083015193508184111561417057600080fd5b61417c87858501613f33565b604082015261418d60608401613ea2565b606082015261419e60808401613d29565b60808201529695505050505050565b6000602082840312156141bf57600080fd5b813560ff811681146137d457600080fd5b600081518084526020808501808196508360051b8101915082860160005b85811015614235578284038952815180516001600160401b031685528501516040868601819052614221818701836137ff565b9a87019a95505050908401906001016141ee565b5091979650505050505050565b60a081526000610140820163ffffffff808a511660a08501526020808b015160a060c087015283815180865261016095508588019150858160051b8901019550838301925060005b818110156142ea5761015f198988030183528351608081518952878783015116878a015260408083015182828c01526142c5838c01826137ff565b6060948501518b169b9094019a909a525090975050928401929184019160010161428a565b5050505060408b0151858403609f190160e0870152915061430b83836141d0565b925060608b0151915061432761010086018363ffffffff169052565b60808b0151151561012086015263ffffffff8a1690850152508281036040840152614353818789613d59565b91505061436b60608301856001600160401b03169052565b60ff83166080830152979650505050505050565b60006020828403121561439157600080fd5b81516001600160401b038111156143a757600080fd5b612dd684828501613ed0565b60008251613ab18184602087016137db565b8051613d39816137a2565b600082601f8301126143e157600080fd5b815160206143f1613f5483613ead565b82815260059290921b8401810191818101908684111561441057600080fd5b8286015b848110156140085780518352918301918301614414565b60006020828403121561443d57600080fd5b81516001600160401b038082111561445457600080fd5b90830190610200828603121561446957600080fd5b614471613e4f565b61447a836143c5565b815261448860208401613d29565b60208201526040830151604082015260608301516060820152608083015160808201526144b760a084016143c5565b60a08201526144c860c084016143c5565b60c082015260e0830151828111156144df57600080fd5b6144eb878286016143d0565b60e0830152506101006144ff8185016143c5565b90820152610120838101518381111561451757600080fd5b61452388828701613ed0565b828401525050610140808401518381111561453d57600080fd5b61454988828701613ed0565b828401525050610160808401518183015250610180808401518381111561456f57600080fd5b61457b88828701613ed0565b8284015250506101a0808401518381111561459557600080fd5b6145a188828701613ed0565b8284015250506101c091506145b78284016143c5565b918101919091526101e091820151918101919091529392505050565b80820281158282048414176122a3576122a3613cfa565b60008261460757634e487b7160e01b600052601260045260246000fd5b500490565b81516001600160401b0381111561462557614625613b13565b614639816146338454613b29565b84613b5d565b602080601f83116001811461466e57600084156146565750858301515b600019600386901b1c1916600185901b178555613ba3565b600085815260208120601f198616915b8281101561469d5788860151825594840194600190910190840161467e565b50858210156146bb5787850151600019600388901b60f8161c191681555b5050505050600190811b01905550565b600060018060a01b038089168352608060208401526146ee60808401888a613d59565b8381036040850152614701818789613d59565b925050808416606084015250979650505050505050565b818103818111156122a3576122a3613cfa565b60006020828403121561473d57600080fd5b81516137d4816137a256fe9b779b17422d0df92223018b32b4d1fa46e071723d6817e2486d003becc55f00a264697066735822122026b4abe71f6e07bb3c46be9ed574f3fbfd313c04e7a48cc7fc61aab2d9242c8e64736f6c63430008140033",
  "linkReferences": {},
  "deployedLinkReferences": {}
}