{
  "_format": "hh-sol-artifact-1",
  "contractName": "MockBtcBlockHeaders",
  "sourceName": "contracts/mocks/MockBtcBlockHeaders.sol",
  "abi": [
    {
      "inputs": [
        {
          "internalType": "uint32",
          "name": "_height",
          "type": "uint32"
        }
      ],
      "name": "getBlockByHeight",
      "outputs": [
        {
          "components": [
            {
              "internalType": "uint32",
              "name": "version",
              "type": "uint32"
            },
            {
              "internalType": "bytes32",
              "name": "prevBlockHash",
              "type": "bytes32"
            },
            {
              "internalType": "bytes32",
              "name": "merkleRoot",
              "type": "bytes32"
            },
            {
              "internalType": "uint32",
              "name": "timestamp",
              "type": "uint32"
            },
            {
              "internalType": "uint32",
              "name": "bits",
              "type": "uint32"
            },
            {
              "internalType": "uint32",
              "name": "nonce",
              "type": "uint32"
            },
            {
              "internalType": "bytes32",
              "name": "blockHash",
              "type": "bytes32"
            },
            {
              "internalType": "uint32",
              "name": "height",
              "type": "uint32"
            }
          ],
          "internalType": "struct IBtcBlockHeaders.BlockHeader",
          "name": "",
          "type": "tuple"
        }
      ],
      "stateMutability": "view",
      "type": "function"
    },
    {
      "inputs": [],
      "name": "lastHeight",
      "outputs": [
        {
          "internalType": "uint32",
          "name": "",
          "type": "uint32"
        }
      ],
      "stateMutability": "view",
      "type": "function"
    },
    {
      "inputs": [
        {
          "internalType": "uint32",
          "name": "_height",
          "type": "uint32"
        },
        {
          "internalType": "uint32",
          "name": "_version",
          "type": "uint32"
        },
        {
          "internalType": "bytes32",
          "name": "_prevBlockHash",
          "type": "bytes32"
        },
        {
          "internalType": "bytes32",
          "name": "_merkleRoot",
          "type": "bytes32"
        },
        {
          "internalType": "uint32",
          "name": "_timestamp",
          "type": "uint32"
        },
        {
          "internalType": "uint32",
          "name": "_bits",
          "type": "uint32"
        },
        {
          "internalType": "uint32",
          "name": "_nonce",
          "type": "uint32"
        },
        {
          "internalType": "bytes32",
          "name": "_blockHash",
          "type": "bytes32"
        }
      ],
      "name": "setBlockHeader",
      "outputs": [],
      "stateMutability": "nonpayable",
      "type": "function"
    }
  ],
  "bytecode": "0x608060405234801561001057600080fd5b506104b0806100206000396000f3fe608060405234801561001057600080fd5b50600436106100415760003560e01c806325159aa91461004657806360c4a07c14610063578063f71eec02146100e7575b600080fd5b60015460405163ffffffff90911681526020015b60405180910390f35b6100766100713660046103d6565b6100fc565b60405161005a919060006101008201905063ffffffff80845116835260208401516020840152604084015160408401528060608501511660608401528060808501511660808401528060a08501511660a084015260c084015160c08401528060e08501511660e08401525092915050565b6100fa6100f53660046103f8565b61021d565b005b604080516101008101825260008082526020808301829052828401829052606083018290526080830182905260a0830182905260c0830182905260e0830182905263ffffffff8516825281905291909120600401546101935760405162461bcd60e51b815260206004820152600f60248201526e109b1bd8dac81b9bdd08199bdd5b99608a1b604482015260640160405180910390fd5b5063ffffffff9081166000908152602081815260409182902082516101008101845281548516815260018201549281019290925260028101549282019290925260038201548084166060830152640100000000810484166080830152680100000000000000009004831660a0820152600482015460c082015260059091015490911660e082015290565b6040518061010001604052808863ffffffff1681526020018781526020018681526020018563ffffffff1681526020018463ffffffff1681526020018363ffffffff1681526020018281526020018963ffffffff168152506000808a63ffffffff1663ffffffff16815260200190815260200160002060008201518160000160006101000a81548163ffffffff021916908363ffffffff160217905550602082015181600101556040820151816002015560608201518160030160006101000a81548163ffffffff021916908363ffffffff16021790555060808201518160030160046101000a81548163ffffffff021916908363ffffffff16021790555060a08201518160030160086101000a81548163ffffffff021916908363ffffffff16021790555060c0820151816004015560e08201518160050160006101000a81548163ffffffff021916908363ffffffff160217905550905050600160009054906101000a900463ffffffff1663ffffffff168863ffffffff1611156103b3576001805463ffffffff191663ffffffff8a161790555b5050505050505050565b803563ffffffff811681146103d157600080fd5b919050565b6000602082840312156103e857600080fd5b6103f1826103bd565b9392505050565b600080600080600080600080610100898b03121561041557600080fd5b61041e896103bd565b975061042c60208a016103bd565b9650604089013595506060890135945061044860808a016103bd565b935061045660a08a016103bd565b925061046460c08a016103bd565b915060e08901359050929598509295989093965056fea26469706673582212202af4b3fd18afceb9cebacfb835c6b7c6841d835e703a2a7434507776452b4c0e64736f6c63430008140033",
  "linkReferences": {},
  "deployedLinkReferences": {}
}