{
  "_format": "hh-sol-artifact-1",
  "contractName": "ConfigManager",
  "sourceName": "contracts/core/ConfigManager.sol",
  "abi": [
    {
      "inputs": [],
      "stateMutability": "nonpayable",
      "type": "constructor"
    },
    {
      "inputs": [],
      "name": "InvalidInitialization",
      "type": "error"
    },
    {
      "inputs": [],
      "name": "NotInitializing",
      "type": "error"
    },
    {
      "inputs": [
        {
          "internalType": "address",
          "name": "owner",
          "type": "address"
        }
      ],
      "name": "OwnableInvalidOwner",
      "type": "error"
    },
    {
      "inputs": [
        {
          "internalType": "address",
          "name": "account",
          "type": "address"
        }
      ],
      "name": "OwnableUnauthorizedAccount",
      "type": "error"
    },
    {
      "anonymous": false,
      "inputs": [
        {
          "indexed": true,
          "internalType": "bytes32",
          "name": "key",
          "type": "bytes32"
        },
        {
          "indexed": false,
          "internalType": "uint256",
          "name": "oldValue",
          "type": "uint256"
        },
        {
          "indexed": false,
          "internalType": "uint256",
          "name": "newValue",
          "type": "uint256"
        }
      ],
      "name": "ConfigUpdated",
      "type": "event"
    },
    {
      "anonymous": false,
      "inputs": [
        {
          "indexed": false,
          "internalType": "uint64",
          "name": "version",
          "type": "uint64"
        }
      ],
      "name": "Initialized",
      "type": "event"
    },
    {
      "anonymous": false,
      "inputs": [
        {
          "indexed": true,
          "internalType": "address",
          "name": "previousOwner",
          "type": "address"
        },
        {
          "indexed": true,
          "internalType": "address",
          "name": "newOwner",
          "type": "address"
        }
      ],
      "name": "OwnershipTransferred",
      "type": "event"
    },
    {
      "inputs": [],
      "name": "ARBITRATION_BTC_FEE_RATE",
      "outputs": [
        {
          "internalType": "bytes32",
          "name": "",
          "type": "bytes32"
        }
      ],
      "stateMutability": "view",
      "type": "function"
    },
    {
      "inputs": [],
      "name": "ARBITRATION_FROZEN_PERIOD",
      "outputs": [
        {
          "internalType": "bytes32",
          "name": "",
          "type": "bytes32"
        }
      ],
      "stateMutability": "view",
      "type": "function"
    },
    {
      "inputs": [],
      "name": "ARBITRATION_TIMEOUT",
      "outputs": [
        {
          "internalType": "bytes32",
          "name": "",
          "type": "bytes32"
        }
      ],
      "stateMutability": "view",
      "type": "function"
    },
    {
      "inputs": [],
      "name": "DAPP_BTC_FEE_PAYMENT_TIMEOUT",
      "outputs": [
        {
          "internalType": "bytes32",
          "name": "",
          "type": "bytes32"
        }
      ],
      "stateMutability": "view",
      "type": "function"
    },
    {
      "inputs": [],
      "name": "MAX_STAKE",
      "outputs": [
        {
          "internalType": "bytes32",
          "name": "",
          "type": "bytes32"
        }
      ],
      "stateMutability": "view",
      "type": "function"
    },
    {
      "inputs": [],
      "name": "MAX_TRANSACTION_DURATION",
      "outputs": [
        {
          "internalType": "bytes32",
          "name": "",
          "type": "bytes32"
        }
      ],
      "stateMutability": "view",
      "type": "function"
    },
    {
      "inputs": [],
      "name": "MIN_STAKE",
      "outputs": [
        {
          "internalType": "bytes32",
          "name": "",
          "type": "bytes32"
        }
      ],
      "stateMutability": "view",
      "type": "function"
    },
    {
      "inputs": [],
      "name": "MIN_STAKE_LOCKED_TIME",
      "outputs": [
        {
          "internalType": "bytes32",
          "name": "",
          "type": "bytes32"
        }
      ],
      "stateMutability": "view",
      "type": "function"
    },
    {
      "inputs": [],
      "name": "MIN_TRANSACTION_DURATION",
      "outputs": [
        {
          "internalType": "bytes32",
          "name": "",
          "type": "bytes32"
        }
      ],
      "stateMutability": "view",
      "type": "function"
    },
    {
      "inputs": [],
      "name": "SYSTEM_COMPENSATION_FEE_RATE",
      "outputs": [
        {
          "internalType": "bytes32",
          "name": "",
          "type": "bytes32"
        }
      ],
      "stateMutability": "view",
      "type": "function"
    },
    {
      "inputs": [],
      "name": "SYSTEM_FEE_COLLECTOR",
      "outputs": [
        {
          "internalType": "bytes32",
          "name": "",
          "type": "bytes32"
        }
      ],
      "stateMutability": "view",
      "type": "function"
    },
    {
      "inputs": [],
      "name": "SYSTEM_FEE_RATE",
      "outputs": [
        {
          "internalType": "bytes32",
          "name": "",
          "type": "bytes32"
        }
      ],
      "stateMutability": "view",
      "type": "function"
    },
    {
      "inputs": [],
      "name": "TRANSACTION_MIN_BTC_FEE_RATE",
      "outputs": [
        {
          "internalType": "bytes32",
          "name": "",
          "type": "bytes32"
        }
      ],
      "stateMutability": "view",
      "type": "function"
    },
    {
      "inputs": [],
      "name": "TRANSACTION_MIN_FEE_RATE",
      "outputs": [
        {
          "internalType": "bytes32",
          "name": "",
          "type": "bytes32"
        }
      ],
      "stateMutability": "view",
      "type": "function"
    },
    {
      "inputs": [],
      "name": "getAllConfigs",
      "outputs": [
        {
          "internalType": "bytes32[]",
          "name": "keys",
          "type": "bytes32[]"
        },
        {
          "internalType": "uint256[]",
          "name": "values",
          "type": "uint256[]"
        }
      ],
      "stateMutability": "view",
      "type": "function"
    },
    {
      "inputs": [],
      "name": "getArbitrationBTCFeeRate",
      "outputs": [
        {
          "internalType": "uint256",
          "name": "",
          "type": "uint256"
        }
      ],
      "stateMutability": "view",
      "type": "function"
    },
    {
      "inputs": [],
      "name": "getArbitrationFrozenPeriod",
      "outputs": [
        {
          "internalType": "uint256",
          "name": "",
          "type": "uint256"
        }
      ],
      "stateMutability": "view",
      "type": "function"
    },
    {
      "inputs": [],
      "name": "getArbitrationTimeout",
      "outputs": [
        {
          "internalType": "uint256",
          "name": "",
          "type": "uint256"
        }
      ],
      "stateMutability": "view",
      "type": "function"
    },
    {
      "inputs": [
        {
          "internalType": "bytes32",
          "name": "key",
          "type": "bytes32"
        }
      ],
      "name": "getConfig",
      "outputs": [
        {
          "internalType": "uint256",
          "name": "",
          "type": "uint256"
        }
      ],
      "stateMutability": "view",
      "type": "function"
    },
    {
      "inputs": [],
      "name": "getDappBtcFeePaymentTimeout",
      "outputs": [
        {
          "internalType": "uint256",
          "name": "",
          "type": "uint256"
        }
      ],
      "stateMutability": "view",
      "type": "function"
    },
    {
      "inputs": [],
      "name": "getSystemCompensationFeeRate",
      "outputs": [
        {
          "internalType": "uint256",
          "name": "",
          "type": "uint256"
        }
      ],
      "stateMutability": "view",
      "type": "function"
    },
    {
      "inputs": [],
      "name": "getSystemFeeCollector",
      "outputs": [
        {
          "internalType": "address",
          "name": "",
          "type": "address"
        }
      ],
      "stateMutability": "view",
      "type": "function"
    },
    {
      "inputs": [],
      "name": "getSystemFeeRate",
      "outputs": [
        {
          "internalType": "uint256",
          "name": "",
          "type": "uint256"
        }
      ],
      "stateMutability": "view",
      "type": "function"
    },
    {
      "inputs": [],
      "name": "initialize",
      "outputs": [],
      "stateMutability": "nonpayable",
      "type": "function"
    },
    {
      "inputs": [],
      "name": "owner",
      "outputs": [
        {
          "internalType": "address",
          "name": "",
          "type": "address"
        }
      ],
      "stateMutability": "view",
      "type": "function"
    },
    {
      "inputs": [],
      "name": "renounceOwnership",
      "outputs": [],
      "stateMutability": "nonpayable",
      "type": "function"
    },
    {
      "inputs": [
        {
          "internalType": "uint256",
          "name": "feeRate",
          "type": "uint256"
        }
      ],
      "name": "setArbitrationBTCFeeRate",
      "outputs": [],
      "stateMutability": "nonpayable",
      "type": "function"
    },
    {
      "inputs": [
        {
          "internalType": "uint256",
          "name": "period",
          "type": "uint256"
        }
      ],
      "name": "setArbitrationFrozenPeriod",
      "outputs": [],
      "stateMutability": "nonpayable",
      "type": "function"
    },
    {
      "inputs": [
        {
          "internalType": "uint256",
          "name": "timeout",
          "type": "uint256"
        }
      ],
      "name": "setArbitrationTimeout",
      "outputs": [],
      "stateMutability": "nonpayable",
      "type": "function"
    },
    {
      "inputs": [
        {
          "internalType": "bytes32[]",
          "name": "keys",
          "type": "bytes32[]"
        },
        {
          "internalType": "uint256[]",
          "name": "values",
          "type": "uint256[]"
        }
      ],
      "name": "setConfigs",
      "outputs": [],
      "stateMutability": "nonpayable",
      "type": "function"
    },
    {
      "inputs": [
        {
          "internalType": "uint256",
          "name": "timeout",
          "type": "uint256"
        }
      ],
      "name": "setDappBtcFeePaymentTimeout",
      "outputs": [],
      "stateMutability": "nonpayable",
      "type": "function"
    },
    {
      "inputs": [
        {
          "internalType": "uint256",
          "name": "amount",
          "type": "uint256"
        }
      ],
      "name": "setMaxStake",
      "outputs": [],
      "stateMutability": "nonpayable",
      "type": "function"
    },
    {
      "inputs": [
        {
          "internalType": "uint256",
          "name": "duration",
          "type": "uint256"
        }
      ],
      "name": "setMaxTransactionDuration",
      "outputs": [],
      "stateMutability": "nonpayable",
      "type": "function"
    },
    {
      "inputs": [
        {
          "internalType": "uint256",
          "name": "amount",
          "type": "uint256"
        }
      ],
      "name": "setMinStake",
      "outputs": [],
      "stateMutability": "nonpayable",
      "type": "function"
    },
    {
      "inputs": [
        {
          "internalType": "uint256",
          "name": "time",
          "type": "uint256"
        }
      ],
      "name": "setMinStakeLockedTime",
      "outputs": [],
      "stateMutability": "nonpayable",
      "type": "function"
    },
    {
      "inputs": [
        {
          "internalType": "uint256",
          "name": "duration",
          "type": "uint256"
        }
      ],
      "name": "setMinTransactionDuration",
      "outputs": [],
      "stateMutability": "nonpayable",
      "type": "function"
    },
    {
      "inputs": [
        {
          "internalType": "uint256",
          "name": "rate",
          "type": "uint256"
        }
      ],
      "name": "setSystemCompensationFeeRate",
      "outputs": [],
      "stateMutability": "nonpayable",
      "type": "function"
    },
    {
      "inputs": [
        {
          "internalType": "address",
          "name": "collector",
          "type": "address"
        }
      ],
      "name": "setSystemFeeCollector",
      "outputs": [],
      "stateMutability": "nonpayable",
      "type": "function"
    },
    {
      "inputs": [
        {
          "internalType": "uint256",
          "name": "rate",
          "type": "uint256"
        }
      ],
      "name": "setSystemFeeRate",
      "outputs": [],
      "stateMutability": "nonpayable",
      "type": "function"
    },
    {
      "inputs": [
        {
          "internalType": "uint256",
          "name": "feeRate",
          "type": "uint256"
        }
      ],
      "name": "setTransactionMinBTCFeeRate",
      "outputs": [],
      "stateMutability": "nonpayable",
      "type": "function"
    },
    {
      "inputs": [
        {
          "internalType": "uint256",
          "name": "rate",
          "type": "uint256"
        }
      ],
      "name": "setTransactionMinFeeRate",
      "outputs": [],
      "stateMutability": "nonpayable",
      "type": "function"
    },
    {
      "inputs": [
        {
          "internalType": "address",
          "name": "newOwner",
          "type": "address"
        }
      ],
      "name": "transferOwnership",
      "outputs": [],
      "stateMutability": "nonpayable",
      "type": "function"
    }
  ],
  "bytecode": "0x608060405234801561001057600080fd5b5061001961001e565b6100d0565b7ff0c57e16840df040f15088dc2f81fe391c3923bec73e23a9662efc9c229c6a00805468010000000000000000900460ff161561006e5760405163f92ee8a960e01b815260040160405180910390fd5b80546001600160401b03908116146100cd5780546001600160401b0319166001600160401b0390811782556040519081527fc7f505b2f371ae2175ee4913f4499e1f2633a7b5936321eed1cdaeb6115181d29060200160405180910390a15b50565b611d0f806100df6000396000f3fe608060405234801561001057600080fd5b506004361061025e5760003560e01c80636dd5b69d11610146578063a53f844f116100c3578063cb1c2b5c11610087578063cb1c2b5c14610670578063cc9157b714610685578063cd4abbcb14610698578063e6feb4f3146106ab578063e78c9363146106c0578063f2fde38b146106d357600080fd5b8063a53f844f146105f7578063b466844d1461060a578063b46d9ff71461061f578063c1df30e714610634578063c98517c51461065b57600080fd5b80638129fc1c1161010a5780638129fc1c1461059f5780638b6570a0146105a75780638c80fd90146105c75780638da5cb5b146105da578063a1ba7344146105e257600080fd5b80636dd5b69d1461053e5780636fc148371461055e578063715018a6146105715780637869bdd9146105795780637c16f1bc1461058c57600080fd5b80634b74d9ca116101df57806358d0b147116101a357806358d0b147146104715780635c97b6e1146104865780635cb586c8146104995780635ece5e32146104ac57806363507956146104ea57806369e6c5a51461050057600080fd5b80634b74d9ca146103a857806350e610b4146103cf578063552efc821461040d57806355f50acc146104205780635670ef721461045e57600080fd5b80632b6f600d116102265780632b6f600d146102ef5780633918a8461461032d5780633c8865ae14610342578063400bec77146103805780634a700a9d1461039357600080fd5b80630868b0421461026357806309c71c031461027857806310460065146102a05780631eda118f146102c757806324693595146102dc575b600080fd5b610276610271366004611952565b6106e6565b005b61028d600080516020611b7a83398151915281565b6040519081526020015b60405180910390f35b61028d7f8f589203cf1469152b6891bfec4d1037191a00847decb605045205b8d2c419f081565b61028d600080516020611bfa83398151915281565b6102766102ea366004611952565b61076e565b600080516020611b7a83398151915260009081526020527f9180475faa5598bd671d18c2e73a090c51d6e4c22382770d80ff4f5359ffb6695461028d565b61028d600080516020611bda83398151915281565b600080516020611c1a83398151915260009081526020527f1273dc24968734fd6716e4443b1b490a1d2263bc285c9f2109e7b8972350fafa5461028d565b61027661038e366004611952565b6107dc565b61028d600080516020611c7a83398151915281565b61028d7fc919595274e5e6882421c3b30662e7d18eb2b09181b22c8f941f70ad25c9668581565b600080516020611b5a83398151915260009081526020527fb4ebefe1c2bb30334c2647c39d91c3bc2b86bc444dc7ed06c1d3ab50c8052f345461028d565b61027661041b36600461196b565b61084a565b600080516020611cba83398151915260009081526020527ff6c7527c8b4831b709f7aa1c373f61283e9fe8790d1d66c1366e553f3b73f77a5461028d565b61027661046c3660046119e7565b610909565b61028d600080516020611c5a83398151915281565b610276610494366004611952565b610a44565b6102766104a7366004611952565b610ab2565b600080516020611c7a83398151915260009081526020527f207fb48e2de38b1702af3ecad91ef3dcd50020cef182ed6f6531e9ea41972ecb5461028d565b6104f2610b6f565b604051610297929190611a53565b600080516020611bfa83398151915260009081526020527f3ab3d25d1ba3a4b26ab9e2d67e66357c7c003616c9147fb7163c46944c66a72e5461028d565b61028d61054c366004611952565b60009081526020819052604090205490565b61027661056c366004611952565b610ee0565b610276610fcb565b610276610587366004611952565b610fdf565b61027661059a366004611952565b61104d565b6102766110cd565b6105af6113e0565b6040516001600160a01b039091168152602001610297565b6102766105d5366004611952565b611435565b6105af611522565b61028d600080516020611b5a83398151915281565b610276610605366004611952565b611550565b61028d600080516020611cba83398151915281565b61028d600080516020611b9a83398151915281565b61028d7f416347a82a7870c23c5cd09c49fc248e755e19923ecbe26856416974e646f45e81565b61028d600080516020611c9a83398151915281565b61028d600080516020611bba83398151915281565b610276610693366004611952565b6115be565b6102766106a6366004611952565b6116b3565b61028d600080516020611c1a83398151915281565b6102766106ce366004611952565b611721565b6102766106e136600461196b565b61180f565b6106ee61184d565b7f8f589203cf1469152b6891bfec4d1037191a00847decb605045205b8d2c419f0600081815260209081527fd4dc9d022ea66284bf3759878e1770176314bb36aaa222128064ad39ef2e784080549084905560408051828152928301859052909291600080516020611c3a83398151915291015b60405180910390a25050565b61077661184d565b600080516020611bfa833981519152600081815260209081527f3ab3d25d1ba3a4b26ab9e2d67e66357c7c003616c9147fb7163c46944c66a72e80549084905560408051828152928301859052909291600080516020611c3a8339815191529101610762565b6107e461184d565b600080516020611b7a833981519152600081815260209081527f9180475faa5598bd671d18c2e73a090c51d6e4c22382770d80ff4f5359ffb66980549084905560408051828152928301859052909291600080516020611c3a8339815191529101610762565b61085261184d565b6001600160a01b03811661089957604080518082018252600281526105a360f41b6020820152905162461bcd60e51b81526108909190600401611ace565b60405180910390fd5b600080516020611b9a83398151915260008181526020527f3adec799e625fbcf9a9e6abd7129347c0d136e03b8c2b85a7bc847978c47995d80546001600160a01b03841691829055604051909291600080516020611c3a8339815191529161076291858252602082015260400190565b61091161184d565b82811461094857604080518082018252600281526104c360f41b6020820152905162461bcd60e51b81526108909190600401611ace565b60005b83811015610a3d57600080600087878581811061096a5761096a611b1c565b90506020020135815260200190815260200160002054905083838381811061099457610994611b1c565b905060200201356000808888868181106109b0576109b0611b1c565b905060200201358152602001908152602001600020819055508585838181106109db576109db611b1c565b90506020020135600080516020611c3a83398151915282868686818110610a0457610a04611b1c565b90506020020135604051610a22929190918252602082015260400190565b60405180910390a25080610a3581611b32565b91505061094b565b5050505050565b610a4c61184d565b600080516020611b5a833981519152600081815260209081527fb4ebefe1c2bb30334c2647c39d91c3bc2b86bc444dc7ed06c1d3ab50c8052f3480549084905560408051828152928301859052909291600080516020611c3a8339815191529101610762565b610aba61184d565b604080518082019091526002815261046360f41b6020820152612710821115610af65760405162461bcd60e51b81526004016108909190611ace565b507f416347a82a7870c23c5cd09c49fc248e755e19923ecbe26856416974e646f45e600081815260209081527fb93e35772705dc8582ccd84e20a6e71d5064cf322eb62c187a5f6dea834a8c5580549084905560408051828152928301859052909291600080516020611c3a8339815191529101610762565b60408051600e8082526101e08201909252606091829190602082016101c080368337505060408051600e8082526101e082019092529294509050602082016101c080368337019050509050600080516020611bba83398151915282600081518110610bdc57610bdc611b1c565b602002602001018181525050600080516020611c9a83398151915282600181518110610c0a57610c0a611b1c565b6020026020010181815250507f8f589203cf1469152b6891bfec4d1037191a00847decb605045205b8d2c419f082600281518110610c4a57610c4a611b1c565b602002602001018181525050600080516020611bda83398151915282600381518110610c7857610c78611b1c565b602002602001018181525050600080516020611c5a83398151915282600481518110610ca657610ca6611b1c565b6020026020010181815250507fc919595274e5e6882421c3b30662e7d18eb2b09181b22c8f941f70ad25c9668582600581518110610ce657610ce6611b1c565b602002602001018181525050600080516020611b7a83398151915282600681518110610d1457610d14611b1c565b602002602001018181525050600080516020611c7a83398151915282600781518110610d4257610d42611b1c565b602002602001018181525050600080516020611b5a83398151915282600881518110610d7057610d70611b1c565b602002602001018181525050600080516020611c1a83398151915282600981518110610d9e57610d9e611b1c565b602002602001018181525050600080516020611b9a83398151915282600a81518110610dcc57610dcc611b1c565b602002602001018181525050600080516020611cba83398151915282600b81518110610dfa57610dfa611b1c565b6020026020010181815250507f416347a82a7870c23c5cd09c49fc248e755e19923ecbe26856416974e646f45e82600c81518110610e3a57610e3a611b1c565b602002602001018181525050600080516020611bfa83398151915282600d81518110610e6857610e68611b1c565b60200260200101818152505060005b8251811015610edb57600080848381518110610e9557610e95611b1c565b6020026020010151815260200190815260200160002054828281518110610ebe57610ebe611b1c565b602090810291909101015280610ed381611b32565b915050610e77565b509091565b610ee861184d565b600080516020611bba83398151915260009081526020527f8bafc881ab8770d3aa3c40a001af1a259c4daead43125889a41a0df74b95df7b548111610f655760405162461bcd60e51b815260206004820152601360248201527226a0ac2fa9aa20a5a2afa122a627abafa6a4a760691b6044820152606401610890565b600080516020611c9a833981519152600081815260209081527f51ac12cdf0151e6aa80713607543060d53398bb18ee7490680ae53a7f3b7a5d580549084905560408051828152928301859052909291600080516020611c3a8339815191529101610762565b610fd361184d565b610fdd600061187f565b565b610fe761184d565b600080516020611c1a833981519152600081815260209081527f1273dc24968734fd6716e4443b1b490a1d2263bc285c9f2109e7b8972350fafa80549084905560408051828152928301859052909291600080516020611c3a8339815191529101610762565b61105561184d565b7fc919595274e5e6882421c3b30662e7d18eb2b09181b22c8f941f70ad25c96685600081815260209081527f93e2898a7ee2cc0245ce84b51d23cf640698dbafe7113348e9ffbd937319eb7580549084905560408051828152928301859052909291600080516020611c3a8339815191529101610762565b7ff0c57e16840df040f15088dc2f81fe391c3923bec73e23a9662efc9c229c6a008054600160401b810460ff16159067ffffffffffffffff166000811580156111135750825b905060008267ffffffffffffffff1660011480156111305750303b155b90508115801561113e575080155b1561115c5760405163f92ee8a960e01b815260040160405180910390fd5b845467ffffffffffffffff19166001178555831561118657845460ff60401b1916600160401b1785555b61118f336118f0565b60006020819052670de0b6b3a76400007f8bafc881ab8770d3aa3c40a001af1a259c4daead43125889a41a0df74b95df7b5568056bc75e2d631000007f51ac12cdf0151e6aa80713607543060d53398bb18ee7490680ae53a7f3b7a5d55562093a807fd4dc9d022ea66284bf3759878e1770176314bb36aaa222128064ad39ef2e784055620151807feb2d9762322eda69d1229fed9cd144289eed5219d3d6c156e84fe513b33e612d81905562278d007f0606a183f408ed27cd9d043212a6d33aa8f4b829614c8aacaaea09b483cbb1c5557f93e2898a7ee2cc0245ce84b51d23cf640698dbafe7113348e9ffbd937319eb758290557fb93e35772705dc8582ccd84e20a6e71d5064cf322eb62c187a5f6dea834a8c558290557f9180475faa5598bd671d18c2e73a090c51d6e4c22382770d80ff4f5359ffb669556107087f207fb48e2de38b1702af3ecad91ef3dcd50020cef182ed6f6531e9ea41972ecb556101f47fb4ebefe1c2bb30334c2647c39d91c3bc2b86bc444dc7ed06c1d3ab50c8052f345560c87f1273dc24968734fd6716e4443b1b490a1d2263bc285c9f2109e7b8972350fafa556103e87ff6c7527c8b4831b709f7aa1c373f61283e9fe8790d1d66c1366e553f3b73f77a55600080516020611bfa83398151915290526154607f3ab3d25d1ba3a4b26ab9e2d67e66357c7c003616c9147fb7163c46944c66a72e558315610a3d57845460ff60401b19168555604051600181527fc7f505b2f371ae2175ee4913f4499e1f2633a7b5936321eed1cdaeb6115181d29060200160405180910390a15050505050565b600080516020611b9a833981519152600090815260208190527f3adec799e625fbcf9a9e6abd7129347c0d136e03b8c2b85a7bc847978c47995d548082036114305761142a611522565b91505090565b919050565b61143d61184d565b600080516020611c9a83398151915260009081526020527f51ac12cdf0151e6aa80713607543060d53398bb18ee7490680ae53a7f3b7a5d55481106114bc5760405162461bcd60e51b815260206004820152601560248201527409a929cbea6a882968abe8ab0868a8a88a6be9a82b605b1b6044820152606401610890565b600080516020611bba833981519152600081815260209081527f8bafc881ab8770d3aa3c40a001af1a259c4daead43125889a41a0df74b95df7b80549084905560408051828152928301859052909291600080516020611c3a8339815191529101610762565b7f9016d09d72d40fdae2fd8ceac6b6234c7706214fd39c1cd1e609a0528c199300546001600160a01b031690565b61155861184d565b600080516020611cba833981519152600081815260209081527ff6c7527c8b4831b709f7aa1c373f61283e9fe8790d1d66c1366e553f3b73f77a80549084905560408051828152928301859052909291600080516020611c3a8339815191529101610762565b6115c661184d565b600080516020611c5a83398151915260009081526020527f0606a183f408ed27cd9d043212a6d33aa8f4b829614c8aacaaea09b483cbb1c554811061164d5760405162461bcd60e51b815260206004820152601860248201527f4d494e5f4455524154494f4e5f455843454544535f4d415800000000000000006044820152606401610890565b600080516020611bda833981519152600081815260209081527feb2d9762322eda69d1229fed9cd144289eed5219d3d6c156e84fe513b33e612d80549084905560408051828152928301859052909291600080516020611c3a8339815191529101610762565b6116bb61184d565b600080516020611c7a833981519152600081815260209081527f207fb48e2de38b1702af3ecad91ef3dcd50020cef182ed6f6531e9ea41972ecb80549084905560408051828152928301859052909291600080516020611c3a8339815191529101610762565b61172961184d565b600080516020611bda83398151915260009081526020527feb2d9762322eda69d1229fed9cd144289eed5219d3d6c156e84fe513b33e612d5481116117a95760405162461bcd60e51b815260206004820152601660248201527526a0ac2fa22aa920aa24a7a72fa122a627abafa6a4a760511b6044820152606401610890565b600080516020611c5a833981519152600081815260209081527f0606a183f408ed27cd9d043212a6d33aa8f4b829614c8aacaaea09b483cbb1c580549084905560408051828152928301859052909291600080516020611c3a8339815191529101610762565b61181761184d565b6001600160a01b03811661184157604051631e4fbdf760e01b815260006004820152602401610890565b61184a8161187f565b50565b33611856611522565b6001600160a01b031614610fdd5760405163118cdaa760e01b8152336004820152602401610890565b7f9016d09d72d40fdae2fd8ceac6b6234c7706214fd39c1cd1e609a0528c19930080546001600160a01b031981166001600160a01b03848116918217845560405192169182907f8be0079c531659141344cd1fd0a4f28419497f9722a3daafe3b4186f6b6457e090600090a3505050565b6118f8611901565b61184a8161194a565b7ff0c57e16840df040f15088dc2f81fe391c3923bec73e23a9662efc9c229c6a0054600160401b900460ff16610fdd57604051631afcd79f60e31b815260040160405180910390fd5b611817611901565b60006020828403121561196457600080fd5b5035919050565b60006020828403121561197d57600080fd5b81356001600160a01b038116811461199457600080fd5b9392505050565b60008083601f8401126119ad57600080fd5b50813567ffffffffffffffff8111156119c557600080fd5b6020830191508360208260051b85010111156119e057600080fd5b9250929050565b600080600080604085870312156119fd57600080fd5b843567ffffffffffffffff80821115611a1557600080fd5b611a218883890161199b565b90965094506020870135915080821115611a3a57600080fd5b50611a478782880161199b565b95989497509550505050565b604080825283519082018190526000906020906060840190828701845b82811015611a8c57815184529284019290840190600101611a70565b5050508381038285015284518082528583019183019060005b81811015611ac157835183529284019291840191600101611aa5565b5090979650505050505050565b600060208083528351808285015260005b81811015611afb57858101830151858201604001528201611adf565b506000604082860101526040601f19601f8301168501019250505092915050565b634e487b7160e01b600052603260045260246000fd5b600060018201611b5257634e487b7160e01b600052601160045260246000fd5b506001019056fed91f20541e9312a0f4d27f0f0ba02500035307ac99ea67c86c8342ab3fd71bc5f67cbfc49efbe49cfda2049f4fae02cff32ce41383dd9cd151875b60a92f872bab24f8bdba3ac1714795343236c2c4f2f4ec1dc7852ad6c62c7d11680c9f1a58a2cacd4c4a17915c9b22ff024458e28713037852123218861ef99f8b37b23424251496a2e9229b930e5943f3c3e4da6cb786017948b856c9d455ed9cf0fc156c00f62140cff005b9a750629e802f838bd88c867e4c0e63f03e878c739e8f449b4d71e6d712d945d50e1827c705441b1e232ecaaeb195788524f5523b0785b0a2ac2ccce3de9c0816ae772598f7f65fe69f9893b637f7c490497378cbb3ea043ed31f84da73b6cb3a8c2e853a7c46b1c95600fc6ab5acdbeb4f7f16e875c25ab80e223b97d7f941cfc1eaa79302686d0fb0d9628e1d7a65633e700791f0beecce6ce6c3872790fbf28e7fa6102c9021f882ca7c1af8a947c293f9d8c6a5537a5f2c9eb164fc8de1173f171678f1197986f0b3f15d9a3d955f91b9bb812394135da2646970667358221220f77a6581af2b9005ff3b48d5868f83e4dd7bd67622da77cbf6fcf6c5a1fa445d64736f6c63430008140033",
  "linkReferences": {},
  "deployedLinkReferences": {}
}