{
  "_format": "hh-sol-artifact-1",
  "contractName": "BTCUtils",
  "sourceName": "contracts/btc_utils/BTCUtils.sol",
  "abi": [
    {
      "inputs": [
        {
          "internalType": "bytes",
          "name": "signature",
          "type": "bytes"
        }
      ],
      "name": "IsValidDERSignature",
      "outputs": [
        {
          "internalType": "bool",
          "name": "",
          "type": "bool"
        }
      ],
      "stateMutability": "pure",
      "type": "function"
    },
    {
      "inputs": [
        {
          "components": [
            {
              "internalType": "uint32",
              "name": "version",
              "type": "uint32"
            },
            {
              "components": [
                {
                  "internalType": "bytes32",
                  "name": "txid",
                  "type": "bytes32"
                },
                {
                  "internalType": "uint32",
                  "name": "vout",
                  "type": "uint32"
                },
                {
                  "internalType": "bytes",
                  "name": "scriptSig",
                  "type": "bytes"
                },
                {
                  "internalType": "uint32",
                  "name": "sequence",
                  "type": "uint32"
                }
              ],
              "internalType": "struct IBTCUtils.BTCInput[]",
              "name": "inputs",
              "type": "tuple[]"
            },
            {
              "components": [
                {
                  "internalType": "uint64",
                  "name": "value",
                  "type": "uint64"
                },
                {
                  "internalType": "bytes",
                  "name": "scriptPubKey",
                  "type": "bytes"
                }
              ],
              "internalType": "struct IBTCUtils.BTCOutput[]",
              "name": "outputs",
              "type": "tuple[]"
            },
            {
              "internalType": "uint32",
              "name": "locktime",
              "type": "uint32"
            },
            {
              "internalType": "bool",
              "name": "hasWitness",
              "type": "bool"
            }
          ],
          "internalType": "struct IBTCUtils.BTCTransaction",
          "name": "btcTx",
          "type": "tuple"
        },
        {
          "internalType": "uint32",
          "name": "inputIndex",
          "type": "uint32"
        },
        {
          "internalType": "bytes",
          "name": "script",
          "type": "bytes"
        },
        {
          "internalType": "uint64",
          "name": "amount",
          "type": "uint64"
        },
        {
          "internalType": "uint8",
          "name": "sigHashFlag",
          "type": "uint8"
        }
      ],
      "name": "generateWitnessSignData",
      "outputs": [
        {
          "internalType": "bytes",
          "name": "",
          "type": "bytes"
        }
      ],
      "stateMutability": "pure",
      "type": "function"
    },
    {
      "inputs": [
        {
          "internalType": "bytes",
          "name": "txBytes",
          "type": "bytes"
        }
      ],
      "name": "parseBTCTransaction",
      "outputs": [
        {
          "components": [
            {
              "internalType": "uint32",
              "name": "version",
              "type": "uint32"
            },
            {
              "components": [
                {
                  "internalType": "bytes32",
                  "name": "txid",
                  "type": "bytes32"
                },
                {
                  "internalType": "uint32",
                  "name": "vout",
                  "type": "uint32"
                },
                {
                  "internalType": "bytes",
                  "name": "scriptSig",
                  "type": "bytes"
                },
                {
                  "internalType": "uint32",
                  "name": "sequence",
                  "type": "uint32"
                }
              ],
              "internalType": "struct IBTCUtils.BTCInput[]",
              "name": "inputs",
              "type": "tuple[]"
            },
            {
              "components": [
                {
                  "internalType": "uint64",
                  "name": "value",
                  "type": "uint64"
                },
                {
                  "internalType": "bytes",
                  "name": "scriptPubKey",
                  "type": "bytes"
                }
              ],
              "internalType": "struct IBTCUtils.BTCOutput[]",
              "name": "outputs",
              "type": "tuple[]"
            },
            {
              "internalType": "uint32",
              "name": "locktime",
              "type": "uint32"
            },
            {
              "internalType": "bool",
              "name": "hasWitness",
              "type": "bool"
            }
          ],
          "internalType": "struct IBTCUtils.BTCTransaction",
          "name": "transaction",
          "type": "tuple"
        }
      ],
      "stateMutability": "pure",
      "type": "function"
    }
  ],
  "bytecode": "0x608060405234801561001057600080fd5b5061265b806100206000396000f3fe608060405234801561001057600080fd5b50600436106100415760003560e01c806398fc4ac014610046578063aca6fee81461006e578063f64af3d31461008e575b600080fd5b610059610054366004611e0d565b6100ae565b60405190151581526020015b60405180910390f35b61008161007c3660046120e6565b6103c6565b604051610065919061235a565b6100a161009c366004611e0d565b610dc4565b60405161006591906123df565b600060088210156100c1575060006103c0565b828260008181106100d4576100d46124cf565b9091013560f81c60301490506100ec575060006103c0565b600083836001818110610101576101016124cf565b919091013560f81c91508390506101198260026124fb565b146101285760009150506103c0565b600284848281811061013c5761013c6124cf565b9091013560f81c6002149050610157576000925050506103c0565b600085856101668460016124fb565b818110610175576101756124cf565b919091013560f81c915050600081900361019557600093505050506103c0565b60218111806101b9575084816101ac8460026124fb565b6101b691906124fb565b10155b156101ca57600093505050506103c0565b6001811180156101fd575085856101e28460026124fb565b8181106101f1576101f16124cf565b919091013560f81c1590505b80156102345750608086866102138560036124fb565b818110610222576102226124cf565b9050013560f81c60f81b60f81c60ff16105b1561024557600093505050506103c0565b6000816102538460026124fb565b61025d91906124fb565b9050868682818110610271576102716124cf565b9091013560f81c600214905061028e5760009450505050506103c0565b6000878761029d8460016124fb565b8181106102ac576102ac6124cf565b919091013560f81c91505060008190036102ce576000955050505050506103c0565b60218111806102f1575086816102e58460026124fb565b6102ef91906124fb565b115b15610304576000955050505050506103c0565b6001811180156103375750878761031c8460026124fb565b81811061032b5761032b6124cf565b919091013560f81c1590505b801561036e57506080888861034d8560036124fb565b81811061035c5761035c6124cf565b9050013560f81c60f81b60f81c60ff16105b15610381576000955050505050506103c0565b8061038d8460026124fb565b6103989060026124fb565b6103a291906124fb565b85146103b6576000955050505050506103c0565b6001955050505050505b92915050565b60608560200151518563ffffffff1610610413576040805180820182526002815261249960f11b6020820152905162461bcd60e51b815261040a919060040161235a565b60405180910390fd5b608082811614601f8316600461042a6020826124fb565b90506104376020826124fb565b90506104446020826124fb565b90506104516004826124fb565b905061045d8751610f7e565b61046790826124fb565b905086518161047691906124fb565b90506104836008826124fb565b90506104906004826124fb565b905061049d6020826124fb565b90506104aa6004826124fb565b90506104b76004826124fb565b90506000816001600160401b038111156104d3576104d3611e7e565b6040519080825280601f01601f1916602001820160405280156104fd576020820181803683370190505b50905060006105118b600001518383610fc2565b9050846106d05760008b6020015151602461052c919061250e565b6001600160401b0381111561054357610543611e7e565b6040519080825280601f01601f19166020018201604052801561056d576020820181803683370190505b5090506000805b8d60200151518110156105fe5760006105ad8f60200151838151811061059c5761059c6124cf565b6020026020010151600001516110cc565b90506105ba818585611119565b92506105e88f6020015183815181106105d5576105d56124cf565b6020026020010151602001518585610fc2565b92505080806105f690612525565b915050610574565b50600060028084604051610612919061253e565b602060405180830381855afa15801561062f573d6000803e3d6000fd5b5050506040513d601f19601f82011682018060405250810190610652919061255a565b60405160200161066491815260200190565b60408051601f198184030181529082905261067e9161253e565b602060405180830381855afa15801561069b573d6000803e3d6000fd5b5050506040513d601f19601f820116820180604052508101906106be919061255a565b90506106cb818686611119565b505050505b6106db6020826124fb565b9050841580156106f2575063ffffffff8416600214155b8015610705575063ffffffff8416600314155b156108855760008b6020015151600461071e919061250e565b6001600160401b0381111561073557610735611e7e565b6040519080825280601f01601f19166020018201604052801561075f576020820181803683370190505b5090506000805b8d60200151518110156107b35761079f8e60200151828151811061078c5761078c6124cf565b6020026020010151606001518484610fc2565b9150806107ab81612525565b915050610766565b506000600280846040516107c7919061253e565b602060405180830381855afa1580156107e4573d6000803e3d6000fd5b5050506040513d601f19601f82011682018060405250810190610807919061255a565b60405160200161081991815260200190565b60408051601f19818403018152908290526108339161253e565b602060405180830381855afa158015610850573d6000803e3d6000fd5b5050506040513d601f19601f82011682018060405250810190610873919061255a565b9050610880818686611119565b505050505b6108906020826124fb565b90506108bb6108b48c602001518c63ffffffff168151811061059c5761059c6124cf565b8383611119565b90506108ef8b602001518b63ffffffff16815181106108dc576108dc6124cf565b6020026020010151602001518383610fc2565b90506108fd8951838361118c565b61090790826124fb565b905060005b895181101561097a57898181518110610927576109276124cf565b01602001516001600160f81b0319168361094183856124fb565b81518110610951576109516124cf565b60200101906001600160f81b031916908160001a9053508061097281612525565b91505061090c565b50885161098790826124fb565b9050610994888383611406565b90506109c88b602001518b63ffffffff16815181106109b5576109b56124cf565b6020026020010151606001518383610fc2565b905063ffffffff84166002148015906109e8575063ffffffff8416600314155b15610bae576000805b8c6040015151811015610a4257610a248d604001518281518110610a1757610a176124cf565b602002602001015161142d565b610a2e90836124fb565b915080610a3a81612525565b9150506109f1565b506000816001600160401b03811115610a5d57610a5d611e7e565b6040519080825280601f01601f191660200182016040528015610a87576020820181803683370190505b5090506000805b8e6040015151811015610ad757610ac38f604001518281518110610ab457610ab46124cf565b60200260200101518484611454565b915080610acf81612525565b915050610a8e565b50600060028084604051610aeb919061253e565b602060405180830381855afa158015610b08573d6000803e3d6000fd5b5050506040513d601f19601f82011682018060405250810190610b2b919061255a565b604051602001610b3d91815260200190565b60408051601f1981840301815290829052610b579161253e565b602060405180830381855afa158015610b74573d6000803e3d6000fd5b5050506040513d601f19601f82011682018060405250810190610b97919061255a565b9050610ba4818787611119565b5050505050610d38565b63ffffffff84166003148015610bce57508a60400151518a63ffffffff16105b15610d38576000610bf48c604001518c63ffffffff1681518110610a1757610a176124cf565b6001600160401b03811115610c0b57610c0b611e7e565b6040519080825280601f01601f191660200182016040528015610c35576020820181803683370190505b509050610c678c604001518c63ffffffff1681518110610c5757610c576124cf565b6020026020010151826000611454565b50600060028083604051610c7b919061253e565b602060405180830381855afa158015610c98573d6000803e3d6000fd5b5050506040513d601f19601f82011682018060405250810190610cbb919061255a565b604051602001610ccd91815260200190565b60408051601f1981840301815290829052610ce79161253e565b602060405180830381855afa158015610d04573d6000803e3d6000fd5b5050506040513d601f19601f82011682018060405250810190610d27919061255a565b9050610d34818585611119565b5050505b610d436020826124fb565b9050610d548b606001518383610fc2565b9050610d648760ff168383610fc2565b905081518114610db65760405162461bcd60e51b815260206004820152601860248201527f496e76616c6964207369676e2064617461206c656e6774680000000000000000604482015260640161040a565b509998505050505050505050565b6040805160a081018252600080825260606020830181905292820183905291810182905260808101829052908280610dfd6004846124fb565b1115610e33576040805180820182526002815261543760f01b6020820152905162461bcd60e51b815261040a919060040161235a565b610e3e85858461150d565b63ffffffff168352610e516004836124fb565b9150600080610e618787866115be565b811515608088015294509150839050600080610e7e898985611651565b6020890182905296509150859050600080610e9a8b8b85611749565b60408b01829052985091508790508515610ebe57610ebb8b8b8a8751611829565b97505b86610eca8960046124fb565b1115610f00576040805180820182526002815261543760f01b6020820152905162461bcd60e51b815261040a919060040161235a565b8a888b610f0e8260046124fb565b92610f1b93929190612573565b610f249161259d565b60e01c60608a0152610f376004896124fb565b9750868814610f70576040805180820182526002815261543760f01b6020820152905162461bcd60e51b815261040a919060040161235a565b505050505050505092915050565b600060fc821015610f9157506001919050565b61ffff8211610fa257506003919050565b63ffffffff8211610fb557506005919050565b506009919050565b919050565b60008360f81b838381518110610fda57610fda6124cf565b60200101906001600160f81b031916908160001a9053506001600160f81b031960f085901b168361100c8460016124fb565b8151811061101c5761101c6124cf565b60200101906001600160f81b031916908160001a9053506001600160f81b031960e885901b168361104e8460026124fb565b8151811061105e5761105e6124cf565b60200101906001600160f81b031916908160001a9053506001600160f81b031960e085901b16836110908460036124fb565b815181106110a0576110a06124cf565b60200101906001600160f81b031916908160001a9053506110c28260046124fb565b90505b9392505050565b60008060005b6020811015611112576110e681600861250e565b8482602081106110f8576110f86124cf565b1a901b91909117908061110a81612525565b9150506110d2565b5092915050565b6000805b602081101561118057848160208110611138576111386124cf565b1a60f81b8461114783866124fb565b81518110611157576111576124cf565b60200101906001600160f81b031916908160001a9053508061117881612525565b91505061111d565b506110c28260206124fb565b600060fc8410156111cd578360f81b8383815181106111ad576111ad6124cf565b60200101906001600160f81b031916908160001a905350600190506110c5565b61ffff84116112875760fd60f81b8383815181106111ed576111ed6124cf565b60200101906001600160f81b031916908160001a90535060f084901b8060011a60f81b8461121c8560016124fb565b8151811061122c5761122c6124cf565b60200101906001600160f81b031916908160001a9053508060001a60f81b846112568560026124fb565b81518110611266576112666124cf565b60200101906001600160f81b031916908160001a90535060039150506110c5565b63ffffffff841161134c5760fe60f81b8383815181106112a9576112a96124cf565b60200101906001600160f81b031916908160001a90535060e084901b60005b600481101561134157816112dd8260036125cd565b600481106112ed576112ed6124cf565b1a60f81b85826112fe8760016124fb565b61130891906124fb565b81518110611318576113186124cf565b60200101906001600160f81b031916908160001a9053508061133981612525565b9150506112c8565b5060059150506110c5565b60ff60f81b838381518110611363576113636124cf565b60200101906001600160f81b031916908160001a90535060c084901b60005b60088110156113fb57816113978260076125cd565b600881106113a7576113a76124cf565b1a60f81b85826113b88760016124fb565b6113c291906124fb565b815181106113d2576113d26124cf565b60200101906001600160f81b031916908160001a905350806113f381612525565b915050611382565b5060099150506110c5565b6000611413848484610fc2565b91506110c26020856001600160401b0316901c8484610fc2565b60208101515160009061143f81610f7e565b61144a9060086124fb565b6103c091906124fb565b600061146584600001518484611406565b9150611477846020015151848461118c565b61148190836124fb565b915060005b8460200151518110156114fc57846020015181815181106114a9576114a96124cf565b01602001516001600160f81b031916846114c383866124fb565b815181106114d3576114d36124cf565b60200101906001600160f81b031916908160001a905350806114f481612525565b915050611486565b506020840151516110c290836124fb565b60006018848461151e8560036124fb565b81811061152d5761152d6124cf565b919091013560f81c90911b9050601085856115498660026124fb565b818110611558576115586124cf565b919091013560f81c90911b9050600886866115748760016124fb565b818110611583576115836124cf565b919091013560f81c90911b90508686868181106115a2576115a26124cf565b9050013560f81c60f81b60f81c60ff1617171790509392505050565b600081836115cd8260026124fb565b116116495760008585858181106115e6576115e66124cf565b919091013560f81c91506000905086866116018760016124fb565b818110611610576116106124cf565b919091013560f81c91505060ff821615801561162f575060ff81166001145b1561164657600193506116436002846124fb565b92505b50505b935093915050565b606060008060006116638787876118bc565b909250905061167281866124fb565b9250816001600160401b0381111561168c5761168c611e7e565b6040519080825280602002602001820160405280156116df57816020015b604080516080810182526000808252602080830182905260609383018490529282015282526000199092019101816116aa5790505b50935060005b8281101561173e576000806116fb8a8a886119c0565b9150915081878481518110611712576117126124cf565b602090810291909101015261172781876124fb565b95505050808061173690612525565b9150506116e5565b505050935093915050565b6060600080600061175b8787876118bc565b909250905061176a81866124fb565b9250816001600160401b0381111561178457611784611e7e565b6040519080825280602002602001820160405280156117ca57816020015b6040805180820190915260008152606060208201528152602001906001900390816117a25790505b50935060005b8281101561173e576000806117e68a8a88611c08565b91509150818784815181106117fd576117fd6124cf565b602090810291909101015261181281876124fb565b95505050808061182190612525565b9150506117d0565b8160005b828110156118b3576000806118438888866118bc565b909250905061185281856124fb565b935060005b8281101561189d5760008061186d8b8b896118bc565b909250905061187c82826124fb565b61188690886124fb565b96505050808061189590612525565b915050611857565b50505080806118ab90612525565b91505061182d565b50949350505050565b60008060008585858181106118d3576118d36124cf565b919091013560f81c91505060fd8110156118f55760ff16915060019050611649565b8060ff1660fd03611964576008868661190f8760026124fb565b81811061191e5761191e6124cf565b919091013560f81c90911b905086866119388760016124fb565b818110611947576119476124cf565b9050013560f81c60f81b60f81c60ff161760039250925050611649565b8060ff1660fe0361199657611984868661197f8760016124fb565b61150d565b63ffffffff1660059250925050611649565b6119ab86866119a68760016124fb565b611d42565b6001600160401b031660099250925050611649565b60408051608081018252600080825260208201819052606092820183905291810191909152600082846119f48260206124fb565b1115611a2a576040805180820182526002815261543760f01b6020820152905162461bcd60e51b815261040a919060040161235a565b611a56868587611a3b8260206124fb565b92611a4893929190612573565b611a51916125e0565b611d78565b8352611a636020856124fb565b935084611a718560046124fb565b1115611aa7576040805180820182526002815261543760f01b6020820152905162461bcd60e51b815261040a919060040161235a565b611ab286868661150d565b63ffffffff166020840152611ac86004856124fb565b9350600080611ad88888886118bc565b9092509050611ae781876124fb565b955086611af483886124fb565b1115611b2a576040805180820182526002815261543760f01b6020820152905162461bcd60e51b815261040a919060040161235a565b878688611b3785836124fb565b92611b4493929190612573565b8080601f0160208091040260200160405190810160405280939291908181526020018383808284376000920191909152505050506040860152611b8782876124fb565b955086611b958760046124fb565b1115611bcb576040805180820182526002815261543760f01b6020820152905162461bcd60e51b815261040a919060040161235a565b611bd688888861150d565b63ffffffff166060860152611bec6004876124fb565b955084611bf984886125cd565b94509450505050935093915050565b60408051808201909152600081526060602082015260008284611c2c8260086124fb565b1115611c62576040805180820182526002815261543760f01b6020820152905162461bcd60e51b815261040a919060040161235a565b611c6d868686611d42565b6001600160401b03168352611c836008856124fb565b9350600080611c938888886118bc565b9092509050611ca281876124fb565b955086611caf83886124fb565b1115611ce5576040805180820182526002815261543760f01b6020820152905162461bcd60e51b815261040a919060040161235a565b878688611cf285836124fb565b92611cff93929190612573565b8080601f0160208091040260200160405190810160405280939291908181526020018383808284376000920191909152505050506020860152611bec82876124fb565b60006020611d56858561197f8660046124fb565b63ffffffff16901b611d6985858561150d565b63ffffffff1617949350505050565b60408051602080825281830190925260009182919060208201818036833701905050905060005b6020811015611e035783611db482601f6125cd565b60208110611dc457611dc46124cf565b1a60f81b828281518110611dda57611dda6124cf565b60200101906001600160f81b031916908160001a90535080611dfb81612525565b915050611d9f565b506110c5816125fe565b60008060208385031215611e2057600080fd5b82356001600160401b0380821115611e3757600080fd5b818501915085601f830112611e4b57600080fd5b813581811115611e5a57600080fd5b866020828501011115611e6c57600080fd5b60209290920196919550909350505050565b634e487b7160e01b600052604160045260246000fd5b604080519081016001600160401b0381118282101715611eb657611eb6611e7e565b60405290565b60405160a081016001600160401b0381118282101715611eb657611eb6611e7e565b604051608081016001600160401b0381118282101715611eb657611eb6611e7e565b604051601f8201601f191681016001600160401b0381118282101715611f2857611f28611e7e565b604052919050565b803563ffffffff81168114610fbd57600080fd5b60006001600160401b03821115611f5d57611f5d611e7e565b5060051b60200190565b600082601f830112611f7857600080fd5b81356001600160401b03811115611f9157611f91611e7e565b611fa4601f8201601f1916602001611f00565b818152846020838601011115611fb957600080fd5b816020850160208301376000918101602001919091529392505050565b80356001600160401b0381168114610fbd57600080fd5b600082601f830112611ffe57600080fd5b8135602061201361200e83611f44565b611f00565b82815260059290921b8401810191818101908684111561203257600080fd5b8286015b848110156120ba5780356001600160401b03808211156120565760008081fd5b908801906040828b03601f19018113156120705760008081fd5b612078611e94565b612083888501611fd6565b81529083013590828211156120985760008081fd5b6120a68c8984870101611f67565b818901528652505050918301918301612036565b509695505050505050565b80358015158114610fbd57600080fd5b803560ff81168114610fbd57600080fd5b600080600080600060a086880312156120fe57600080fd5b6001600160401b038635111561211357600080fd5b8535860160a0818903121561212757600080fd5b61212f611ebc565b61213882611f30565b81526001600160401b036020830135111561215257600080fd5b6020820135820189601f82011261216857600080fd5b61217561200e8235611f44565b81358082526020808301929160051b8401018c101561219357600080fd5b602083015b6020843560051b850101811015612251576001600160401b03813511156121be57600080fd5b6080813585018e03601f190112156121d557600080fd5b6121dd611ede565b81358501602081013582526121f490604001611f30565b60208201526001600160401b036060833587010135111561221457600080fd5b61222a8e83358701606081013501602001611f67565b604082015261223e60808335870101611f30565b6060820152835260209283019201612198565b50602084015250506001600160401b036040830135111561227157600080fd5b6122818960408401358401611fed565b604082015261229260608301611f30565b60608201526122a3608083016120c5565b608082015295506122b8905060208701611f30565b93506001600160401b03604087013511156122d257600080fd5b6122e28760408801358801611f67565b92506122f060608701611fd6565b91506122fe608087016120d5565b90509295509295909350565b60005b8381101561232557818101518382015260200161230d565b50506000910152565b6000815180845261234681602086016020860161230a565b601f01601f19169290920160200192915050565b6020815260006110c5602083018461232e565b600081518084526020808501808196508360051b8101915082860160005b858110156123d2578284038952815180516001600160401b0316855285015160408686018190526123be8187018361232e565b9a87019a955050509084019060010161238b565b5091979650505050505050565b6000602080835260c0830163ffffffff808651168386015282860151604060a08188015283825180865260e08901915060e08160051b8a01019550868401935060005b8181101561247d5760df198a88030183528451608081518952878a830151168a8a01528582015181878b015261245a828b018261232e565b6060938401518a169a909301999099525096509387019391870191600101612422565b505050870151868403601f19016060880152935061249f91508290508361236d565b91505060608401516124b9608085018263ffffffff169052565b50608084015180151560a0850152509392505050565b634e487b7160e01b600052603260045260246000fd5b634e487b7160e01b600052601160045260246000fd5b808201808211156103c0576103c06124e5565b80820281158282048414176103c0576103c06124e5565b600060018201612537576125376124e5565b5060010190565b6000825161255081846020870161230a565b9190910192915050565b60006020828403121561256c57600080fd5b5051919050565b6000808585111561258357600080fd5b8386111561259057600080fd5b5050820193919092039150565b6001600160e01b031981358181169160048510156125c55780818660040360031b1b83161692505b505092915050565b818103818111156103c0576103c06124e5565b803560208310156103c057600019602084900360031b1b1692915050565b8051602080830151919081101561261f576000198160200360031b1b821691505b5091905056fea2646970667358221220ca2223b337536244b74785810447ed2d9a4528883ebad5f557e1baae5d3d1f7064736f6c63430008140033",
  "linkReferences": {},
  "deployedLinkReferences": {}
}