{
  "_format": "hh-sol-artifact-1",
  "contractName": "BTCUtils",
  "sourceName": "contracts/btc_utils/BTCUtils.sol",
  "abi": [
    {
      "inputs": [
        {
          "internalType": "bytes",
          "name": "signature",
          "type": "bytes"
        }
      ],
      "name": "IsValidDERSignature",
      "outputs": [
        {
          "internalType": "bool",
          "name": "",
          "type": "bool"
        }
      ],
      "stateMutability": "pure",
      "type": "function"
    },
    {
      "inputs": [
        {
          "internalType": "bytes",
          "name": "txData",
          "type": "bytes"
        }
      ],
      "name": "calculateTxId",
      "outputs": [
        {
          "internalType": "bytes32",
          "name": "",
          "type": "bytes32"
        }
      ],
      "stateMutability": "pure",
      "type": "function"
    },
    {
      "inputs": [
        {
          "components": [
            {
              "internalType": "uint32",
              "name": "version",
              "type": "uint32"
            },
            {
              "components": [
                {
                  "internalType": "bytes32",
                  "name": "txid",
                  "type": "bytes32"
                },
                {
                  "internalType": "uint32",
                  "name": "vout",
                  "type": "uint32"
                },
                {
                  "internalType": "bytes",
                  "name": "scriptSig",
                  "type": "bytes"
                },
                {
                  "internalType": "uint32",
                  "name": "sequence",
                  "type": "uint32"
                }
              ],
              "internalType": "struct IBTCUtils.BTCInput[]",
              "name": "inputs",
              "type": "tuple[]"
            },
            {
              "components": [
                {
                  "internalType": "uint64",
                  "name": "value",
                  "type": "uint64"
                },
                {
                  "internalType": "bytes",
                  "name": "scriptPubKey",
                  "type": "bytes"
                }
              ],
              "internalType": "struct IBTCUtils.BTCOutput[]",
              "name": "outputs",
              "type": "tuple[]"
            },
            {
              "internalType": "uint32",
              "name": "locktime",
              "type": "uint32"
            },
            {
              "internalType": "bool",
              "name": "hasWitness",
              "type": "bool"
            }
          ],
          "internalType": "struct IBTCUtils.BTCTransaction",
          "name": "btcTx",
          "type": "tuple"
        },
        {
          "internalType": "uint32",
          "name": "inputIndex",
          "type": "uint32"
        },
        {
          "internalType": "bytes",
          "name": "script",
          "type": "bytes"
        },
        {
          "internalType": "uint64",
          "name": "amount",
          "type": "uint64"
        },
        {
          "internalType": "uint8",
          "name": "sigHashFlag",
          "type": "uint8"
        }
      ],
      "name": "generateWitnessSignData",
      "outputs": [
        {
          "internalType": "bytes",
          "name": "",
          "type": "bytes"
        }
      ],
      "stateMutability": "pure",
      "type": "function"
    },
    {
      "inputs": [
        {
          "internalType": "bytes",
          "name": "txBytes",
          "type": "bytes"
        }
      ],
      "name": "parseBTCTransaction",
      "outputs": [
        {
          "components": [
            {
              "internalType": "uint32",
              "name": "version",
              "type": "uint32"
            },
            {
              "components": [
                {
                  "internalType": "bytes32",
                  "name": "txid",
                  "type": "bytes32"
                },
                {
                  "internalType": "uint32",
                  "name": "vout",
                  "type": "uint32"
                },
                {
                  "internalType": "bytes",
                  "name": "scriptSig",
                  "type": "bytes"
                },
                {
                  "internalType": "uint32",
                  "name": "sequence",
                  "type": "uint32"
                }
              ],
              "internalType": "struct IBTCUtils.BTCInput[]",
              "name": "inputs",
              "type": "tuple[]"
            },
            {
              "components": [
                {
                  "internalType": "uint64",
                  "name": "value",
                  "type": "uint64"
                },
                {
                  "internalType": "bytes",
                  "name": "scriptPubKey",
                  "type": "bytes"
                }
              ],
              "internalType": "struct IBTCUtils.BTCOutput[]",
              "name": "outputs",
              "type": "tuple[]"
            },
            {
              "internalType": "uint32",
              "name": "locktime",
              "type": "uint32"
            },
            {
              "internalType": "bool",
              "name": "hasWitness",
              "type": "bool"
            }
          ],
          "internalType": "struct IBTCUtils.BTCTransaction",
          "name": "transaction",
          "type": "tuple"
        }
      ],
      "stateMutability": "pure",
      "type": "function"
    }
  ],
  "bytecode": "0x608060405234801561001057600080fd5b506129a7806100206000396000f3fe608060405234801561001057600080fd5b506004361061004c5760003560e01c80636d78a10b1461005157806398fc4ac014610077578063aca6fee81461009a578063f64af3d3146100ba575b600080fd5b61006461005f366004612156565b6100da565b6040519081526020015b60405180910390f35b61008a610085366004612156565b61032c565b604051901515815260200161006e565b6100ad6100a836600461242f565b610642565b60405161006e91906126a3565b6100cd6100c8366004612156565b611040565b60405161006e919061272b565b6000828260048181106100ef576100ef61281b565b909101356001600160f81b031916159050801561013557508282600581811061011a5761011a61281b565b9050013560f81c60f81b6001600160f81b031916600160f81b145b156102e457600060066101498585836111fa565b909250905060005b8281101561017a57610164868684611302565b925081905061017281612847565b915050610151565b5060006101888686846111fa565b9250905060005b818110156101b8576101a28787856113fa565b93508190506101b081612847565b91505061018f565b5060006101c6600684612860565b6101d1906004612873565b6101dc906004612873565b6001600160401b038111156101f3576101f36121c7565b6040519080825280601f01601f19166020018201604052801561021d576020820181803683370190505b5090506000610238610231898960006114da565b838361158c565b905060065b848110156102a8578888828181106102575761025761281b565b9050013560f81c60f81b83838061026d90612847565b94508151811061027f5761027f61281b565b60200101906001600160f81b031916908160001a905350806102a081612847565b91505061023d565b5060006102b6600489612860565b90506102cd6102c68a8a846114da565b848461158c565b506102d783611694565b9650505050505050610326565b61032383838080601f01602080910402602001604051908101604052809392919081815260200183838082843760009201919091525061169492505050565b90505b92915050565b6000600882101561033f57506000610326565b828260008181106103525761035261281b565b9091013560f81c603014905061036a57506000610326565b60008383600181811061037f5761037f61281b565b919091013560f81c9150839050610397826002612873565b146103a6576000915050610326565b60028484828181106103ba576103ba61281b565b9091013560f81c60021490506103d557600092505050610326565b600085856103e4846001612873565b8181106103f3576103f361281b565b919091013560f81c91505060008190036104135760009350505050610326565b60218111806104375750848161042a846002612873565b6104349190612873565b10155b156104485760009350505050610326565b60018111801561047b57508585610460846002612873565b81811061046f5761046f61281b565b919091013560f81c1590505b80156104b2575060808686610491856003612873565b8181106104a0576104a061281b565b9050013560f81c60f81b60f81c60ff16105b156104c35760009350505050610326565b6000816104d1846002612873565b6104db9190612873565b90508686828181106104ef576104ef61281b565b9091013560f81c600214905061050c576000945050505050610326565b6000878761051b846001612873565b81811061052a5761052a61281b565b919091013560f81c915050600081900361054c57600095505050505050610326565b602181118061056f57508681610563846002612873565b61056d9190612873565b115b1561058257600095505050505050610326565b6001811180156105b55750878761059a846002612873565b8181106105a9576105a961281b565b919091013560f81c1590505b80156105ec5750608088886105cb856003612873565b8181106105da576105da61281b565b9050013560f81c60f81b60f81c60ff16105b156105ff57600095505050505050610326565b8061060b846002612873565b610616906002612873565b6106209190612873565b851461063457600095505050505050610326565b506001979650505050505050565b60608560200151518563ffffffff161061068f576040805180820182526002815261249960f11b6020820152905162461bcd60e51b815261068691906004016126a3565b60405180910390fd5b608082811614601f831660046106a6602082612873565b90506106b3602082612873565b90506106c0602082612873565b90506106cd600482612873565b90506106d9875161175f565b6106e39082612873565b90508651816106f29190612873565b90506106ff600882612873565b905061070c600482612873565b9050610719602082612873565b9050610726600482612873565b9050610733600482612873565b90506000816001600160401b0381111561074f5761074f6121c7565b6040519080825280601f01601f191660200182016040528015610779576020820181803683370190505b509050600061078d8b60000151838361158c565b90508461094c5760008b602001515160246107a89190612886565b6001600160401b038111156107bf576107bf6121c7565b6040519080825280601f01601f1916602001820160405280156107e9576020820181803683370190505b5090506000805b8d602001515181101561087a5760006108298f6020015183815181106108185761081861281b565b6020026020010151600001516117a3565b90506108368185856117f0565b92506108648f6020015183815181106108515761085161281b565b602002602001015160200151858561158c565b925050808061087290612847565b9150506107f0565b5060006002808460405161088e919061289d565b602060405180830381855afa1580156108ab573d6000803e3d6000fd5b5050506040513d601f19601f820116820180604052508101906108ce91906128b9565b6040516020016108e091815260200190565b60408051601f19818403018152908290526108fa9161289d565b602060405180830381855afa158015610917573d6000803e3d6000fd5b5050506040513d601f19601f8201168201806040525081019061093a91906128b9565b90506109478186866117f0565b505050505b610957602082612873565b90508415801561096e575063ffffffff8416600214155b8015610981575063ffffffff8416600314155b15610b015760008b6020015151600461099a9190612886565b6001600160401b038111156109b1576109b16121c7565b6040519080825280601f01601f1916602001820160405280156109db576020820181803683370190505b5090506000805b8d6020015151811015610a2f57610a1b8e602001518281518110610a0857610a0861281b565b602002602001015160600151848461158c565b915080610a2781612847565b9150506109e2565b50600060028084604051610a43919061289d565b602060405180830381855afa158015610a60573d6000803e3d6000fd5b5050506040513d601f19601f82011682018060405250810190610a8391906128b9565b604051602001610a9591815260200190565b60408051601f1981840301815290829052610aaf9161289d565b602060405180830381855afa158015610acc573d6000803e3d6000fd5b5050506040513d601f19601f82011682018060405250810190610aef91906128b9565b9050610afc8186866117f0565b505050505b610b0c602082612873565b9050610b37610b308c602001518c63ffffffff16815181106108185761081861281b565b83836117f0565b9050610b6b8b602001518b63ffffffff1681518110610b5857610b5861281b565b602002602001015160200151838361158c565b9050610b7989518383611863565b610b839082612873565b905060005b8951811015610bf657898181518110610ba357610ba361281b565b01602001516001600160f81b03191683610bbd8385612873565b81518110610bcd57610bcd61281b565b60200101906001600160f81b031916908160001a90535080610bee81612847565b915050610b88565b508851610c039082612873565b9050610c10888383611add565b9050610c448b602001518b63ffffffff1681518110610c3157610c3161281b565b602002602001015160600151838361158c565b905063ffffffff8416600214801590610c64575063ffffffff8416600314155b15610e2a576000805b8c6040015151811015610cbe57610ca08d604001518281518110610c9357610c9361281b565b6020026020010151611b04565b610caa9083612873565b915080610cb681612847565b915050610c6d565b506000816001600160401b03811115610cd957610cd96121c7565b6040519080825280601f01601f191660200182016040528015610d03576020820181803683370190505b5090506000805b8e6040015151811015610d5357610d3f8f604001518281518110610d3057610d3061281b565b60200260200101518484611b2b565b915080610d4b81612847565b915050610d0a565b50600060028084604051610d67919061289d565b602060405180830381855afa158015610d84573d6000803e3d6000fd5b5050506040513d601f19601f82011682018060405250810190610da791906128b9565b604051602001610db991815260200190565b60408051601f1981840301815290829052610dd39161289d565b602060405180830381855afa158015610df0573d6000803e3d6000fd5b5050506040513d601f19601f82011682018060405250810190610e1391906128b9565b9050610e208187876117f0565b5050505050610fb4565b63ffffffff84166003148015610e4a57508a60400151518a63ffffffff16105b15610fb4576000610e708c604001518c63ffffffff1681518110610c9357610c9361281b565b6001600160401b03811115610e8757610e876121c7565b6040519080825280601f01601f191660200182016040528015610eb1576020820181803683370190505b509050610ee38c604001518c63ffffffff1681518110610ed357610ed361281b565b6020026020010151826000611b2b565b50600060028083604051610ef7919061289d565b602060405180830381855afa158015610f14573d6000803e3d6000fd5b5050506040513d601f19601f82011682018060405250810190610f3791906128b9565b604051602001610f4991815260200190565b60408051601f1981840301815290829052610f639161289d565b602060405180830381855afa158015610f80573d6000803e3d6000fd5b5050506040513d601f19601f82011682018060405250810190610fa391906128b9565b9050610fb08185856117f0565b5050505b610fbf602082612873565b9050610fd08b60600151838361158c565b9050610fe08760ff16838361158c565b9050815181146110325760405162461bcd60e51b815260206004820152601860248201527f496e76616c6964207369676e2064617461206c656e67746800000000000000006044820152606401610686565b509998505050505050505050565b6040805160a081018252600080825260606020830181905292820183905291810182905260808101829052908280611079600484612873565b11156110af576040805180820182526002815261543760f01b6020820152905162461bcd60e51b815261068691906004016126a3565b6110ba8585846114da565b63ffffffff1683526110cd600483612873565b91506000806110dd878786611be4565b8115156080880152945091508390506000806110fa898985611302565b60208901829052965091508590506000806111168b8b856113fa565b60408b0182905298509150879050851561113a576111378b8b8a8751611c76565b97505b86611146896004612873565b111561117c576040805180820182526002815261543760f01b6020820152905162461bcd60e51b815261068691906004016126a3565b8a888b61118a826004612873565b92611197939291906128d2565b6111a0916128fc565b60e01c60608a01526111b3600489612873565b97508688146111ec576040805180820182526002815261543760f01b6020820152905162461bcd60e51b815261068691906004016126a3565b505050505050505092915050565b60008060008585858181106112115761121161281b565b919091013560f81c91505060fd8110156112335760ff169150600190506112fa565b8060ff1660fd036112a2576008868661124d876002612873565b81811061125c5761125c61281b565b919091013560f81c90911b90508686611276876001612873565b8181106112855761128561281b565b9050013560f81c60f81b60f81c60ff1617600392509250506112fa565b8060ff1660fe036112d4576112c286866112bd876001612873565b6114da565b63ffffffff16600592509250506112fa565b6112e986866112e4876001612873565b611d09565b6001600160401b0316600992509250505b935093915050565b606060008060006113148787876111fa565b90925090506113238186612873565b9250816001600160401b0381111561133d5761133d6121c7565b60405190808252806020026020018201604052801561139057816020015b6040805160808101825260008082526020808301829052606093830184905292820152825260001990920191018161135b5790505b50935060005b828110156113ef576000806113ac8a8a88611d3f565b91509150818784815181106113c3576113c361281b565b60209081029190910101526113d88187612873565b9550505080806113e790612847565b915050611396565b505050935093915050565b6060600080600061140c8787876111fa565b909250905061141b8186612873565b9250816001600160401b03811115611435576114356121c7565b60405190808252806020026020018201604052801561147b57816020015b6040805180820190915260008152606060208201528152602001906001900390816114535790505b50935060005b828110156113ef576000806114978a8a88611f87565b91509150818784815181106114ae576114ae61281b565b60209081029190910101526114c38187612873565b9550505080806114d290612847565b915050611481565b6000601884846114eb856003612873565b8181106114fa576114fa61281b565b919091013560f81c90911b905060108585611516866002612873565b8181106115255761152561281b565b919091013560f81c90911b905060088686611541876001612873565b8181106115505761155061281b565b919091013560f81c90911b905086868681811061156f5761156f61281b565b9050013560f81c60f81b60f81c60ff1617171790505b9392505050565b60008360f81b8383815181106115a4576115a461281b565b60200101906001600160f81b031916908160001a9053506001600160f81b031960f085901b16836115d6846001612873565b815181106115e6576115e661281b565b60200101906001600160f81b031916908160001a9053506001600160f81b031960e885901b1683611618846002612873565b815181106116285761162861281b565b60200101906001600160f81b031916908160001a9053506001600160f81b031960e085901b168361165a846003612873565b8151811061166a5761166a61281b565b60200101906001600160f81b031916908160001a90535061168c826004612873565b949350505050565b600080600280846040516116a8919061289d565b602060405180830381855afa1580156116c5573d6000803e3d6000fd5b5050506040513d601f19601f820116820180604052508101906116e891906128b9565b6040516020016116fa91815260200190565b60408051601f19818403018152908290526117149161289d565b602060405180830381855afa158015611731573d6000803e3d6000fd5b5050506040513d601f19601f8201168201806040525081019061175491906128b9565b9050611585816117a3565b600060fc82101561177257506001919050565b61ffff821161178357506003919050565b63ffffffff821161179657506005919050565b506009919050565b919050565b60008060005b60208110156117e9576117bd816008612886565b8482602081106117cf576117cf61281b565b1a901b9190911790806117e181612847565b9150506117a9565b5092915050565b6000805b60208110156118575784816020811061180f5761180f61281b565b1a60f81b8461181e8386612873565b8151811061182e5761182e61281b565b60200101906001600160f81b031916908160001a9053508061184f81612847565b9150506117f4565b5061168c826020612873565b600060fc8410156118a4578360f81b8383815181106118845761188461281b565b60200101906001600160f81b031916908160001a90535060019050611585565b61ffff841161195e5760fd60f81b8383815181106118c4576118c461281b565b60200101906001600160f81b031916908160001a90535060f084901b8060011a60f81b846118f3856001612873565b815181106119035761190361281b565b60200101906001600160f81b031916908160001a9053508060001a60f81b8461192d856002612873565b8151811061193d5761193d61281b565b60200101906001600160f81b031916908160001a9053506003915050611585565b63ffffffff8411611a235760fe60f81b8383815181106119805761198061281b565b60200101906001600160f81b031916908160001a90535060e084901b60005b6004811015611a1857816119b4826003612860565b600481106119c4576119c461281b565b1a60f81b85826119d5876001612873565b6119df9190612873565b815181106119ef576119ef61281b565b60200101906001600160f81b031916908160001a90535080611a1081612847565b91505061199f565b506005915050611585565b60ff60f81b838381518110611a3a57611a3a61281b565b60200101906001600160f81b031916908160001a90535060c084901b60005b6008811015611ad25781611a6e826007612860565b60088110611a7e57611a7e61281b565b1a60f81b8582611a8f876001612873565b611a999190612873565b81518110611aa957611aa961281b565b60200101906001600160f81b031916908160001a90535080611aca81612847565b915050611a59565b506009915050611585565b6000611aea84848461158c565b915061168c6020856001600160401b0316901c848461158c565b602081015151600090611b168161175f565b611b21906008612873565b6103269190612873565b6000611b3c84600001518484611add565b9150611b4e8460200151518484611863565b611b589083612873565b915060005b846020015151811015611bd35784602001518181518110611b8057611b8061281b565b01602001516001600160f81b03191684611b9a8386612873565b81518110611baa57611baa61281b565b60200101906001600160f81b031916908160001a90535080611bcb81612847565b915050611b5d565b5060208401515161168c9083612873565b60008183611bf3826002612873565b116112fa576000858585818110611c0c57611c0c61281b565b919091013560f81c9150600090508686611c27876001612873565b818110611c3657611c3661281b565b919091013560f81c91505060ff8216158015611c55575060ff81166001145b15611c6c5760019350611c69600284612873565b92505b5050935093915050565b8160005b82811015611d0057600080611c908888866111fa565b9092509050611c9f8185612873565b935060005b82811015611cea57600080611cba8b8b896111fa565b9092509050611cc98282612873565b611cd39088612873565b965050508080611ce290612847565b915050611ca4565b5050508080611cf890612847565b915050611c7a565b50949350505050565b60006020611d1d85856112bd866004612873565b63ffffffff16901b611d308585856114da565b63ffffffff1617949350505050565b6040805160808101825260008082526020820181905260609282018390529181019190915260008284611d73826020612873565b1115611da9576040805180820182526002815261543760f01b6020820152905162461bcd60e51b815261068691906004016126a3565b611dd5868587611dba826020612873565b92611dc7939291906128d2565b611dd09161292c565b6120c1565b8352611de2602085612873565b935084611df0856004612873565b1115611e26576040805180820182526002815261543760f01b6020820152905162461bcd60e51b815261068691906004016126a3565b611e318686866114da565b63ffffffff166020840152611e47600485612873565b9350600080611e578888886111fa565b9092509050611e668187612873565b955086611e738388612873565b1115611ea9576040805180820182526002815261543760f01b6020820152905162461bcd60e51b815261068691906004016126a3565b878688611eb68583612873565b92611ec3939291906128d2565b8080601f0160208091040260200160405190810160405280939291908181526020018383808284376000920191909152505050506040860152611f068287612873565b955086611f14876004612873565b1115611f4a576040805180820182526002815261543760f01b6020820152905162461bcd60e51b815261068691906004016126a3565b611f558888886114da565b63ffffffff166060860152611f6b600487612873565b955084611f788488612860565b94509450505050935093915050565b60408051808201909152600081526060602082015260008284611fab826008612873565b1115611fe1576040805180820182526002815261543760f01b6020820152905162461bcd60e51b815261068691906004016126a3565b611fec868686611d09565b6001600160401b03168352612002600885612873565b93506000806120128888886111fa565b90925090506120218187612873565b95508661202e8388612873565b1115612064576040805180820182526002815261543760f01b6020820152905162461bcd60e51b815261068691906004016126a3565b8786886120718583612873565b9261207e939291906128d2565b8080601f0160208091040260200160405190810160405280939291908181526020018383808284376000920191909152505050506020860152611f6b8287612873565b60408051602080825281830190925260009182919060208201818036833701905050905060005b602081101561214c57836120fd82601f612860565b6020811061210d5761210d61281b565b1a60f81b8282815181106121235761212361281b565b60200101906001600160f81b031916908160001a9053508061214481612847565b9150506120e8565b506115858161294a565b6000806020838503121561216957600080fd5b82356001600160401b038082111561218057600080fd5b818501915085601f83011261219457600080fd5b8135818111156121a357600080fd5b8660208285010111156121b557600080fd5b60209290920196919550909350505050565b634e487b7160e01b600052604160045260246000fd5b604080519081016001600160401b03811182821017156121ff576121ff6121c7565b60405290565b60405160a081016001600160401b03811182821017156121ff576121ff6121c7565b604051608081016001600160401b03811182821017156121ff576121ff6121c7565b604051601f8201601f191681016001600160401b0381118282101715612271576122716121c7565b604052919050565b803563ffffffff8116811461179e57600080fd5b60006001600160401b038211156122a6576122a66121c7565b5060051b60200190565b600082601f8301126122c157600080fd5b81356001600160401b038111156122da576122da6121c7565b6122ed601f8201601f1916602001612249565b81815284602083860101111561230257600080fd5b816020850160208301376000918101602001919091529392505050565b80356001600160401b038116811461179e57600080fd5b600082601f83011261234757600080fd5b8135602061235c6123578361228d565b612249565b82815260059290921b8401810191818101908684111561237b57600080fd5b8286015b848110156124035780356001600160401b038082111561239f5760008081fd5b908801906040828b03601f19018113156123b95760008081fd5b6123c16121dd565b6123cc88850161231f565b81529083013590828211156123e15760008081fd5b6123ef8c89848701016122b0565b81890152865250505091830191830161237f565b509695505050505050565b8035801515811461179e57600080fd5b803560ff8116811461179e57600080fd5b600080600080600060a0868803121561244757600080fd5b6001600160401b038635111561245c57600080fd5b8535860160a0818903121561247057600080fd5b612478612205565b61248182612279565b81526001600160401b036020830135111561249b57600080fd5b6020820135820189601f8201126124b157600080fd5b6124be612357823561228d565b81358082526020808301929160051b8401018c10156124dc57600080fd5b602083015b6020843560051b85010181101561259a576001600160401b038135111561250757600080fd5b6080813585018e03601f1901121561251e57600080fd5b612526612227565b813585016020810135825261253d90604001612279565b60208201526001600160401b036060833587010135111561255d57600080fd5b6125738e833587016060810135016020016122b0565b604082015261258760808335870101612279565b60608201528352602092830192016124e1565b50602084015250506001600160401b03604083013511156125ba57600080fd5b6125ca8960408401358401612336565b60408201526125db60608301612279565b60608201526125ec6080830161240e565b60808201529550612601905060208701612279565b93506001600160401b036040870135111561261b57600080fd5b61262b87604088013588016122b0565b92506126396060870161231f565b91506126476080870161241e565b90509295509295909350565b60005b8381101561266e578181015183820152602001612656565b50506000910152565b6000815180845261268f816020860160208601612653565b601f01601f19169290920160200192915050565b6020815260006103236020830184612677565b600082825180855260208086019550808260051b84010181860160005b8481101561271e57858303601f19018952815180516001600160401b03168452840151604085850181905261270a81860183612677565b9a86019a94505050908301906001016126d3565b5090979650505050505050565b6000602080835260c0830163ffffffff808651168386015282860151604060a08188015283825180865260e08901915060e08160051b8a01019550868401935060005b818110156127c95760df198a88030183528451608081518952878a830151168a8a01528582015181878b01526127a6828b0182612677565b6060938401518a169a90930199909952509650938701939187019160010161276e565b505050870151868403601f1901606088015293506127eb9150829050836126b6565b9150506060840151612805608085018263ffffffff169052565b50608084015180151560a0850152509392505050565b634e487b7160e01b600052603260045260246000fd5b634e487b7160e01b600052601160045260246000fd5b60006001820161285957612859612831565b5060010190565b8181038181111561032657610326612831565b8082018082111561032657610326612831565b808202811582820484141761032657610326612831565b600082516128af818460208701612653565b9190910192915050565b6000602082840312156128cb57600080fd5b5051919050565b600080858511156128e257600080fd5b838611156128ef57600080fd5b5050820193919092039150565b6001600160e01b031981358181169160048510156129245780818660040360031b1b83161692505b505092915050565b8035602083101561032657600019602084900360031b1b1692915050565b8051602080830151919081101561296b576000198160200360031b1b821691505b5091905056fea264697066735822122059b629d0c432aaf0f64db4a2d86af547d64834cef447a9cbb0443faf5858d67064736f6c63430008140033",
  "linkReferences": {},
  "deployedLinkReferences": {}
}