{
  "_format": "hh-sol-artifact-1",
  "contractName": "BTCUtils",
  "sourceName": "contracts/btc_utils/BTCUtils.sol",
  "abi": [
    {
      "inputs": [
        {
          "internalType": "bytes",
          "name": "signature",
          "type": "bytes"
        }
      ],
      "name": "IsValidDERSignature",
      "outputs": [
        {
          "internalType": "bool",
          "name": "",
          "type": "bool"
        }
      ],
      "stateMutability": "pure",
      "type": "function"
    },
    {
      "inputs": [
        {
          "internalType": "bytes",
          "name": "txData",
          "type": "bytes"
        }
      ],
      "name": "calculateTxId",
      "outputs": [
        {
          "internalType": "bytes32",
          "name": "",
          "type": "bytes32"
        }
      ],
      "stateMutability": "pure",
      "type": "function"
    },
    {
      "inputs": [
        {
          "components": [
            {
              "internalType": "uint32",
              "name": "version",
              "type": "uint32"
            },
            {
              "components": [
                {
                  "internalType": "bytes32",
                  "name": "txid",
                  "type": "bytes32"
                },
                {
                  "internalType": "uint32",
                  "name": "vout",
                  "type": "uint32"
                },
                {
                  "internalType": "bytes",
                  "name": "scriptSig",
                  "type": "bytes"
                },
                {
                  "internalType": "uint32",
                  "name": "sequence",
                  "type": "uint32"
                }
              ],
              "internalType": "struct IBTCUtils.BTCInput[]",
              "name": "inputs",
              "type": "tuple[]"
            },
            {
              "components": [
                {
                  "internalType": "uint64",
                  "name": "value",
                  "type": "uint64"
                },
                {
                  "internalType": "bytes",
                  "name": "scriptPubKey",
                  "type": "bytes"
                }
              ],
              "internalType": "struct IBTCUtils.BTCOutput[]",
              "name": "outputs",
              "type": "tuple[]"
            },
            {
              "internalType": "uint32",
              "name": "locktime",
              "type": "uint32"
            },
            {
              "internalType": "bool",
              "name": "hasWitness",
              "type": "bool"
            }
          ],
          "internalType": "struct IBTCUtils.BTCTransaction",
          "name": "btcTx",
          "type": "tuple"
        },
        {
          "internalType": "uint32",
          "name": "inputIndex",
          "type": "uint32"
        },
        {
          "internalType": "bytes",
          "name": "script",
          "type": "bytes"
        },
        {
          "internalType": "uint64",
          "name": "amount",
          "type": "uint64"
        },
        {
          "internalType": "uint8",
          "name": "sigHashFlag",
          "type": "uint8"
        }
      ],
      "name": "generateWitnessSignData",
      "outputs": [
        {
          "internalType": "bytes",
          "name": "",
          "type": "bytes"
        }
      ],
      "stateMutability": "pure",
      "type": "function"
    },
    {
      "inputs": [
        {
          "internalType": "bytes",
          "name": "lockScript",
          "type": "bytes"
        },
        {
          "internalType": "address",
          "name": "expectedOwner",
          "type": "address"
        },
        {
          "internalType": "bytes",
          "name": "utxoScript",
          "type": "bytes"
        }
      ],
      "name": "isExpectLockScript",
      "outputs": [
        {
          "internalType": "bool",
          "name": "isExpected",
          "type": "bool"
        }
      ],
      "stateMutability": "pure",
      "type": "function"
    },
    {
      "inputs": [
        {
          "internalType": "bytes",
          "name": "txBytes",
          "type": "bytes"
        }
      ],
      "name": "parseBTCTransaction",
      "outputs": [
        {
          "components": [
            {
              "internalType": "uint32",
              "name": "version",
              "type": "uint32"
            },
            {
              "components": [
                {
                  "internalType": "bytes32",
                  "name": "txid",
                  "type": "bytes32"
                },
                {
                  "internalType": "uint32",
                  "name": "vout",
                  "type": "uint32"
                },
                {
                  "internalType": "bytes",
                  "name": "scriptSig",
                  "type": "bytes"
                },
                {
                  "internalType": "uint32",
                  "name": "sequence",
                  "type": "uint32"
                }
              ],
              "internalType": "struct IBTCUtils.BTCInput[]",
              "name": "inputs",
              "type": "tuple[]"
            },
            {
              "components": [
                {
                  "internalType": "uint64",
                  "name": "value",
                  "type": "uint64"
                },
                {
                  "internalType": "bytes",
                  "name": "scriptPubKey",
                  "type": "bytes"
                }
              ],
              "internalType": "struct IBTCUtils.BTCOutput[]",
              "name": "outputs",
              "type": "tuple[]"
            },
            {
              "internalType": "uint32",
              "name": "locktime",
              "type": "uint32"
            },
            {
              "internalType": "bool",
              "name": "hasWitness",
              "type": "bool"
            }
          ],
          "internalType": "struct IBTCUtils.BTCTransaction",
          "name": "transaction",
          "type": "tuple"
        }
      ],
      "stateMutability": "pure",
      "type": "function"
    }
  ],
  "bytecode": "0x608060405234801561001057600080fd5b50612c7b806100206000396000f3fe608060405234801561001057600080fd5b50600436106100575760003560e01c80636d78a10b1461005c57806398fc4ac014610082578063aca6fee8146100a5578063eea079a5146100c5578063f64af3d3146100d8575b600080fd5b61006f61006a3660046123ba565b6100f8565b6040519081526020015b60405180910390f35b6100956100903660046123ba565b61034a565b6040519015158152602001610079565b6100b86100b3366004612663565b610660565b60405161007991906128d7565b6100956100d33660046128ea565b611060565b6100eb6100e63660046123ba565b61125c565b60405161007991906129ef565b60008282600481811061010d5761010d612adf565b909101356001600160f81b031916159050801561015357508282600581811061013857610138612adf565b9050013560f81c60f81b6001600160f81b031916600160f81b145b156103025760006006610167858583611416565b909250905060005b828110156101985761018286868461151e565b925081905061019081612b0b565b91505061016f565b5060006101a6868684611416565b9250905060005b818110156101d6576101c0878785611616565b93508190506101ce81612b0b565b9150506101ad565b5060006101e4600684612b24565b6101ef906004612b37565b6101fa906004612b37565b6001600160401b03811115610211576102116123fb565b6040519080825280601f01601f19166020018201604052801561023b576020820181803683370190505b509050600061025661024f898960006116f6565b83836117a8565b905060065b848110156102c65788888281811061027557610275612adf565b9050013560f81c60f81b83838061028b90612b0b565b94508151811061029d5761029d612adf565b60200101906001600160f81b031916908160001a905350806102be81612b0b565b91505061025b565b5060006102d4600489612b24565b90506102eb6102e48a8a846116f6565b84846117a8565b506102f5836118b0565b9650505050505050610344565b61034183838080601f0160208091040260200160405190810160405280939291908181526020018383808284376000920191909152506118b092505050565b90505b92915050565b6000600882101561035d57506000610344565b8282600081811061037057610370612adf565b9091013560f81c603014905061038857506000610344565b60008383600181811061039d5761039d612adf565b919091013560f81c91508390506103b5826002612b37565b146103c4576000915050610344565b60028484828181106103d8576103d8612adf565b9091013560f81c60021490506103f357600092505050610344565b60008585610402846001612b37565b81811061041157610411612adf565b919091013560f81c91505060008190036104315760009350505050610344565b602181118061045557508481610448846002612b37565b6104529190612b37565b10155b156104665760009350505050610344565b6001811180156104995750858561047e846002612b37565b81811061048d5761048d612adf565b919091013560f81c1590505b80156104d05750608086866104af856003612b37565b8181106104be576104be612adf565b9050013560f81c60f81b60f81c60ff16105b156104e15760009350505050610344565b6000816104ef846002612b37565b6104f99190612b37565b905086868281811061050d5761050d612adf565b9091013560f81c600214905061052a576000945050505050610344565b60008787610539846001612b37565b81811061054857610548612adf565b919091013560f81c915050600081900361056a57600095505050505050610344565b602181118061058d57508681610581846002612b37565b61058b9190612b37565b115b156105a057600095505050505050610344565b6001811180156105d3575087876105b8846002612b37565b8181106105c7576105c7612adf565b919091013560f81c1590505b801561060a5750608088886105e9856003612b37565b8181106105f8576105f8612adf565b9050013560f81c60f81b60f81c60ff16105b1561061d57600095505050505050610344565b80610629846002612b37565b610634906002612b37565b61063e9190612b37565b851461065257600095505050505050610344565b506001979650505050505050565b60608560200151518563ffffffff16106106ad576040805180820182526002815261249960f11b6020820152905162461bcd60e51b81526106a491906004016128d7565b60405180910390fd5b608082811614601f831660046106c4602082612b37565b90506106d1602082612b37565b90506106de602082612b37565b90506106eb600482612b37565b90506106f7875161197b565b6107019082612b37565b90508651816107109190612b37565b905061071d600882612b37565b905061072a600482612b37565b9050610737602082612b37565b9050610744600482612b37565b9050610751600482612b37565b90506000816001600160401b0381111561076d5761076d6123fb565b6040519080825280601f01601f191660200182016040528015610797576020820181803683370190505b50905060006107ab8b6000015183836117a8565b90508461096a5760008b602001515160246107c69190612b4a565b6001600160401b038111156107dd576107dd6123fb565b6040519080825280601f01601f191660200182016040528015610807576020820181803683370190505b5090506000805b8d60200151518110156108985760006108478f60200151838151811061083657610836612adf565b6020026020010151600001516119bf565b9050610854818585611a0c565b92506108828f60200151838151811061086f5761086f612adf565b60200260200101516020015185856117a8565b925050808061089090612b0b565b91505061080e565b506000600280846040516108ac9190612b61565b602060405180830381855afa1580156108c9573d6000803e3d6000fd5b5050506040513d601f19601f820116820180604052508101906108ec9190612b7d565b6040516020016108fe91815260200190565b60408051601f198184030181529082905261091891612b61565b602060405180830381855afa158015610935573d6000803e3d6000fd5b5050506040513d601f19601f820116820180604052508101906109589190612b7d565b9050610965818686611a0c565b505050505b610975602082612b37565b90508415801561098c575063ffffffff8416600214155b801561099f575063ffffffff8416600314155b15610b1f5760008b602001515160046109b89190612b4a565b6001600160401b038111156109cf576109cf6123fb565b6040519080825280601f01601f1916602001820160405280156109f9576020820181803683370190505b5090506000805b8d6020015151811015610a4d57610a398e602001518281518110610a2657610a26612adf565b60200260200101516060015184846117a8565b915080610a4581612b0b565b915050610a00565b50600060028084604051610a619190612b61565b602060405180830381855afa158015610a7e573d6000803e3d6000fd5b5050506040513d601f19601f82011682018060405250810190610aa19190612b7d565b604051602001610ab391815260200190565b60408051601f1981840301815290829052610acd91612b61565b602060405180830381855afa158015610aea573d6000803e3d6000fd5b5050506040513d601f19601f82011682018060405250810190610b0d9190612b7d565b9050610b1a818686611a0c565b505050505b610b2a602082612b37565b9050610b55610b4e8c602001518c63ffffffff168151811061083657610836612adf565b8383611a0c565b9050610b898b602001518b63ffffffff1681518110610b7657610b76612adf565b60200260200101516020015183836117a8565b9050610b9789518383611a7f565b610ba19082612b37565b905060005b8951811015610c1457898181518110610bc157610bc1612adf565b01602001516001600160f81b03191683610bdb8385612b37565b81518110610beb57610beb612adf565b60200101906001600160f81b031916908160001a90535080610c0c81612b0b565b915050610ba6565b508851610c219082612b37565b9050610c2e888383611cf9565b9050610c628b602001518b63ffffffff1681518110610c4f57610c4f612adf565b60200260200101516060015183836117a8565b905063ffffffff8416600214801590610c82575063ffffffff8416600314155b15610e48576000805b8c6040015151811015610cdc57610cbe8d604001518281518110610cb157610cb1612adf565b6020026020010151611d20565b610cc89083612b37565b915080610cd481612b0b565b915050610c8b565b506000816001600160401b03811115610cf757610cf76123fb565b6040519080825280601f01601f191660200182016040528015610d21576020820181803683370190505b5090506000805b8e6040015151811015610d7157610d5d8f604001518281518110610d4e57610d4e612adf565b60200260200101518484611d47565b915080610d6981612b0b565b915050610d28565b50600060028084604051610d859190612b61565b602060405180830381855afa158015610da2573d6000803e3d6000fd5b5050506040513d601f19601f82011682018060405250810190610dc59190612b7d565b604051602001610dd791815260200190565b60408051601f1981840301815290829052610df191612b61565b602060405180830381855afa158015610e0e573d6000803e3d6000fd5b5050506040513d601f19601f82011682018060405250810190610e319190612b7d565b9050610e3e818787611a0c565b5050505050610fd2565b63ffffffff84166003148015610e6857508a60400151518a63ffffffff16105b15610fd2576000610e8e8c604001518c63ffffffff1681518110610cb157610cb1612adf565b6001600160401b03811115610ea557610ea56123fb565b6040519080825280601f01601f191660200182016040528015610ecf576020820181803683370190505b509050610f018c604001518c63ffffffff1681518110610ef157610ef1612adf565b6020026020010151826000611d47565b50600060028083604051610f159190612b61565b602060405180830381855afa158015610f32573d6000803e3d6000fd5b5050506040513d601f19601f82011682018060405250810190610f559190612b7d565b604051602001610f6791815260200190565b60408051601f1981840301815290829052610f8191612b61565b602060405180830381855afa158015610f9e573d6000803e3d6000fd5b5050506040513d601f19601f82011682018060405250810190610fc19190612b7d565b9050610fce818585611a0c565b5050505b610fdd602082612b37565b9050610fee8b6060015183836117a8565b9050610ffe8760ff1683836117a8565b9050815181146110505760405162461bcd60e51b815260206004820152601860248201527f496e76616c6964207369676e2064617461206c656e677468000000000000000060448201526064016106a4565b5093505050505b95945050505050565b6000601585101561107357506000611057565b60008686600081811061108857611088612adf565b919091013560f81c915050601481146110a5576000915050611057565b60408051601480825281830190925260009182919060208201818036833701905050905060005b60148110156111365789896110e2836001612b37565b8181106110f1576110f1612adf565b9050013560f81c60f81b82828151811061110d5761110d612adf565b60200101906001600160f81b031916908160001a9053508061112e81612b0b565b9150506110cc565b5060148101519150866001600160a01b0316826001600160a01b0316146111635760009350505050611057565b600060028a8a604051611177929190612b96565b602060405180830381855afa158015611194573d6000803e3d6000fd5b5050506040513d601f19601f820116820180604052508101906111b79190612b7d565b90506022861415806111ea5750868660008181106111d7576111d7612adf565b909101356001600160f81b031916151590505b8061121f57508686600181811061120357611203612adf565b9050013560f81c60f81b6001600160f81b031916602060f81b14155b15611231576000945050505050611057565b600061124160226002898b612ba6565b61124a91612bd0565b919091149a9950505050505050505050565b6040805160a081018252600080825260606020830181905292820183905291810182905260808101829052908280611295600484612b37565b11156112cb576040805180820182526002815261543760f01b6020820152905162461bcd60e51b81526106a491906004016128d7565b6112d68585846116f6565b63ffffffff1683526112e9600483612b37565b91506000806112f9878786611e00565b81151560808801529450915083905060008061131689898561151e565b60208901829052965091508590506000806113328b8b85611616565b60408b01829052985091508790508515611356576113538b8b8a8751611e92565b97505b86611362896004612b37565b1115611398576040805180820182526002815261543760f01b6020820152905162461bcd60e51b81526106a491906004016128d7565b8a888b6113a6826004612b37565b926113b393929190612ba6565b6113bc91612bee565b60e01c60608a01526113cf600489612b37565b9750868814611408576040805180820182526002815261543760f01b6020820152905162461bcd60e51b81526106a491906004016128d7565b505050505050505092915050565b600080600085858581811061142d5761142d612adf565b919091013560f81c91505060fd81101561144f5760ff16915060019050611516565b8060ff1660fd036114be5760088686611469876002612b37565b81811061147857611478612adf565b919091013560f81c90911b90508686611492876001612b37565b8181106114a1576114a1612adf565b9050013560f81c60f81b60f81c60ff161760039250925050611516565b8060ff1660fe036114f0576114de86866114d9876001612b37565b6116f6565b63ffffffff1660059250925050611516565b6115058686611500876001612b37565b611f25565b6001600160401b0316600992509250505b935093915050565b60606000806000611530878787611416565b909250905061153f8186612b37565b9250816001600160401b03811115611559576115596123fb565b6040519080825280602002602001820160405280156115ac57816020015b604080516080810182526000808252602080830182905260609383018490529282015282526000199092019101816115775790505b50935060005b8281101561160b576000806115c88a8a88611f5b565b91509150818784815181106115df576115df612adf565b60209081029190910101526115f48187612b37565b95505050808061160390612b0b565b9150506115b2565b505050935093915050565b60606000806000611628878787611416565b90925090506116378186612b37565b9250816001600160401b03811115611651576116516123fb565b60405190808252806020026020018201604052801561169757816020015b60408051808201909152600081526060602082015281526020019060019003908161166f5790505b50935060005b8281101561160b576000806116b38a8a886121a3565b91509150818784815181106116ca576116ca612adf565b60209081029190910101526116df8187612b37565b9550505080806116ee90612b0b565b91505061169d565b600060188484611707856003612b37565b81811061171657611716612adf565b919091013560f81c90911b905060108585611732866002612b37565b81811061174157611741612adf565b919091013560f81c90911b90506008868661175d876001612b37565b81811061176c5761176c612adf565b919091013560f81c90911b905086868681811061178b5761178b612adf565b9050013560f81c60f81b60f81c60ff1617171790505b9392505050565b60008360f81b8383815181106117c0576117c0612adf565b60200101906001600160f81b031916908160001a9053506001600160f81b031960f085901b16836117f2846001612b37565b8151811061180257611802612adf565b60200101906001600160f81b031916908160001a9053506001600160f81b031960e885901b1683611834846002612b37565b8151811061184457611844612adf565b60200101906001600160f81b031916908160001a9053506001600160f81b031960e085901b1683611876846003612b37565b8151811061188657611886612adf565b60200101906001600160f81b031916908160001a9053506118a8826004612b37565b949350505050565b600080600280846040516118c49190612b61565b602060405180830381855afa1580156118e1573d6000803e3d6000fd5b5050506040513d601f19601f820116820180604052508101906119049190612b7d565b60405160200161191691815260200190565b60408051601f198184030181529082905261193091612b61565b602060405180830381855afa15801561194d573d6000803e3d6000fd5b5050506040513d601f19601f820116820180604052508101906119709190612b7d565b90506117a1816119bf565b600060fc82101561198e57506001919050565b61ffff821161199f57506003919050565b63ffffffff82116119b257506005919050565b506009919050565b919050565b60008060005b6020811015611a05576119d9816008612b4a565b8482602081106119eb576119eb612adf565b1a901b9190911790806119fd81612b0b565b9150506119c5565b5092915050565b6000805b6020811015611a7357848160208110611a2b57611a2b612adf565b1a60f81b84611a3a8386612b37565b81518110611a4a57611a4a612adf565b60200101906001600160f81b031916908160001a90535080611a6b81612b0b565b915050611a10565b506118a8826020612b37565b600060fc841015611ac0578360f81b838381518110611aa057611aa0612adf565b60200101906001600160f81b031916908160001a905350600190506117a1565b61ffff8411611b7a5760fd60f81b838381518110611ae057611ae0612adf565b60200101906001600160f81b031916908160001a90535060f084901b8060011a60f81b84611b0f856001612b37565b81518110611b1f57611b1f612adf565b60200101906001600160f81b031916908160001a9053508060001a60f81b84611b49856002612b37565b81518110611b5957611b59612adf565b60200101906001600160f81b031916908160001a90535060039150506117a1565b63ffffffff8411611c3f5760fe60f81b838381518110611b9c57611b9c612adf565b60200101906001600160f81b031916908160001a90535060e084901b60005b6004811015611c345781611bd0826003612b24565b60048110611be057611be0612adf565b1a60f81b8582611bf1876001612b37565b611bfb9190612b37565b81518110611c0b57611c0b612adf565b60200101906001600160f81b031916908160001a90535080611c2c81612b0b565b915050611bbb565b5060059150506117a1565b60ff60f81b838381518110611c5657611c56612adf565b60200101906001600160f81b031916908160001a90535060c084901b60005b6008811015611cee5781611c8a826007612b24565b60088110611c9a57611c9a612adf565b1a60f81b8582611cab876001612b37565b611cb59190612b37565b81518110611cc557611cc5612adf565b60200101906001600160f81b031916908160001a90535080611ce681612b0b565b915050611c75565b5060099150506117a1565b6000611d068484846117a8565b91506118a86020856001600160401b0316901c84846117a8565b602081015151600090611d328161197b565b611d3d906008612b37565b6103449190612b37565b6000611d5884600001518484611cf9565b9150611d6a8460200151518484611a7f565b611d749083612b37565b915060005b846020015151811015611def5784602001518181518110611d9c57611d9c612adf565b01602001516001600160f81b03191684611db68386612b37565b81518110611dc657611dc6612adf565b60200101906001600160f81b031916908160001a90535080611de781612b0b565b915050611d79565b506020840151516118a89083612b37565b60008183611e0f826002612b37565b11611516576000858585818110611e2857611e28612adf565b919091013560f81c9150600090508686611e43876001612b37565b818110611e5257611e52612adf565b919091013560f81c91505060ff8216158015611e71575060ff81166001145b15611e885760019350611e85600284612b37565b92505b5050935093915050565b8160005b82811015611f1c57600080611eac888886611416565b9092509050611ebb8185612b37565b935060005b82811015611f0657600080611ed68b8b89611416565b9092509050611ee58282612b37565b611eef9088612b37565b965050508080611efe90612b0b565b915050611ec0565b5050508080611f1490612b0b565b915050611e96565b50949350505050565b60006020611f3985856114d9866004612b37565b63ffffffff16901b611f4c8585856116f6565b63ffffffff1617949350505050565b6040805160808101825260008082526020820181905260609282018390529181019190915260008284611f8f826020612b37565b1115611fc5576040805180820182526002815261543760f01b6020820152905162461bcd60e51b81526106a491906004016128d7565b611ff1868587611fd6826020612b37565b92611fe393929190612ba6565b611fec91612bd0565b6122dd565b8352611ffe602085612b37565b93508461200c856004612b37565b1115612042576040805180820182526002815261543760f01b6020820152905162461bcd60e51b81526106a491906004016128d7565b61204d8686866116f6565b63ffffffff166020840152612063600485612b37565b9350600080612073888888611416565b90925090506120828187612b37565b95508661208f8388612b37565b11156120c5576040805180820182526002815261543760f01b6020820152905162461bcd60e51b81526106a491906004016128d7565b8786886120d28583612b37565b926120df93929190612ba6565b8080601f01602080910402602001604051908101604052809392919081815260200183838082843760009201919091525050505060408601526121228287612b37565b955086612130876004612b37565b1115612166576040805180820182526002815261543760f01b6020820152905162461bcd60e51b81526106a491906004016128d7565b6121718888886116f6565b63ffffffff166060860152612187600487612b37565b9550846121948488612b24565b94509450505050935093915050565b604080518082019091526000815260606020820152600082846121c7826008612b37565b11156121fd576040805180820182526002815261543760f01b6020820152905162461bcd60e51b81526106a491906004016128d7565b612208868686611f25565b6001600160401b0316835261221e600885612b37565b935060008061222e888888611416565b909250905061223d8187612b37565b95508661224a8388612b37565b1115612280576040805180820182526002815261543760f01b6020820152905162461bcd60e51b81526106a491906004016128d7565b87868861228d8583612b37565b9261229a93929190612ba6565b8080601f01602080910402602001604051908101604052809392919081815260200183838082843760009201919091525050505060208601526121878287612b37565b60408051602080825281830190925260009182919060208201818036833701905050905060005b6020811015612368578361231982601f612b24565b6020811061232957612329612adf565b1a60f81b82828151811061233f5761233f612adf565b60200101906001600160f81b031916908160001a9053508061236081612b0b565b915050612304565b506117a181612c1e565b60008083601f84011261238457600080fd5b5081356001600160401b0381111561239b57600080fd5b6020830191508360208285010111156123b357600080fd5b9250929050565b600080602083850312156123cd57600080fd5b82356001600160401b038111156123e357600080fd5b6123ef85828601612372565b90969095509350505050565b634e487b7160e01b600052604160045260246000fd5b604080519081016001600160401b0381118282101715612433576124336123fb565b60405290565b60405160a081016001600160401b0381118282101715612433576124336123fb565b604051608081016001600160401b0381118282101715612433576124336123fb565b604051601f8201601f191681016001600160401b03811182821017156124a5576124a56123fb565b604052919050565b803563ffffffff811681146119ba57600080fd5b60006001600160401b038211156124da576124da6123fb565b5060051b60200190565b600082601f8301126124f557600080fd5b81356001600160401b0381111561250e5761250e6123fb565b612521601f8201601f191660200161247d565b81815284602083860101111561253657600080fd5b816020850160208301376000918101602001919091529392505050565b80356001600160401b03811681146119ba57600080fd5b600082601f83011261257b57600080fd5b8135602061259061258b836124c1565b61247d565b82815260059290921b840181019181810190868411156125af57600080fd5b8286015b848110156126375780356001600160401b03808211156125d35760008081fd5b908801906040828b03601f19018113156125ed5760008081fd5b6125f5612411565b612600888501612553565b81529083013590828211156126155760008081fd5b6126238c89848701016124e4565b8189015286525050509183019183016125b3565b509695505050505050565b803580151581146119ba57600080fd5b803560ff811681146119ba57600080fd5b600080600080600060a0868803121561267b57600080fd5b6001600160401b038635111561269057600080fd5b8535860160a081890312156126a457600080fd5b6126ac612439565b6126b5826124ad565b81526001600160401b03602083013511156126cf57600080fd5b6020820135820189601f8201126126e557600080fd5b6126f261258b82356124c1565b81358082526020808301929160051b8401018c101561271057600080fd5b602083015b6020843560051b8501018110156127ce576001600160401b038135111561273b57600080fd5b6080813585018e03601f1901121561275257600080fd5b61275a61245b565b8135850160208101358252612771906040016124ad565b60208201526001600160401b036060833587010135111561279157600080fd5b6127a78e833587016060810135016020016124e4565b60408201526127bb608083358701016124ad565b6060820152835260209283019201612715565b50602084015250506001600160401b03604083013511156127ee57600080fd5b6127fe896040840135840161256a565b604082015261280f606083016124ad565b606082015261282060808301612642565b608082015295506128359050602087016124ad565b93506001600160401b036040870135111561284f57600080fd5b61285f87604088013588016124e4565b925061286d60608701612553565b915061287b60808701612652565b90509295509295909350565b60005b838110156128a257818101518382015260200161288a565b50506000910152565b600081518084526128c3816020860160208601612887565b601f01601f19169290920160200192915050565b60208152600061034160208301846128ab565b60008060008060006060868803121561290257600080fd5b85356001600160401b038082111561291957600080fd5b61292589838a01612372565b9097509550602088013591506001600160a01b038216821461294657600080fd5b9093506040870135908082111561295c57600080fd5b5061296988828901612372565b969995985093965092949392505050565b600082825180855260208086019550808260051b84010181860160005b848110156129e257858303601f19018952815180516001600160401b0316845284015160408585018190526129ce818601836128ab565b9a86019a9450505090830190600101612997565b5090979650505050505050565b6000602080835260c0830163ffffffff808651168386015282860151604060a08188015283825180865260e08901915060e08160051b8a01019550868401935060005b81811015612a8d5760df198a88030183528451608081518952878a830151168a8a01528582015181878b0152612a6a828b01826128ab565b6060938401518a169a909301999099525096509387019391870191600101612a32565b505050870151868403601f190160608801529350612aaf91508290508361297a565b9150506060840151612ac9608085018263ffffffff169052565b50608084015180151560a0850152509392505050565b634e487b7160e01b600052603260045260246000fd5b634e487b7160e01b600052601160045260246000fd5b600060018201612b1d57612b1d612af5565b5060010190565b8181038181111561034457610344612af5565b8082018082111561034457610344612af5565b808202811582820484141761034457610344612af5565b60008251612b73818460208701612887565b9190910192915050565b600060208284031215612b8f57600080fd5b5051919050565b8183823760009101908152919050565b60008085851115612bb657600080fd5b83861115612bc357600080fd5b5050820193919092039150565b8035602083101561034457600019602084900360031b1b1692915050565b6001600160e01b03198135818116916004851015612c165780818660040360031b1b83161692505b505092915050565b80516020808301519190811015612c3f576000198160200360031b1b821691505b5091905056fea2646970667358221220c62e86d151479632bb3c952afdf11f546e6c22842aa026d076a1cfbbf892118e64736f6c63430008140033",
  "linkReferences": {},
  "deployedLinkReferences": {}
}